{
  "contractName": "BuyAssistoor",
  "abi": [
    {
      "inputs": [
        {
          "internalType": "address",
          "name": "_weth",
          "type": "address"
        }
      ],
      "stateMutability": "nonpayable",
      "type": "constructor"
    },
    {
      "inputs": [],
      "name": "weth",
      "outputs": [
        {
          "internalType": "contract IWETH",
          "name": "",
          "type": "address"
        }
      ],
      "stateMutability": "view",
      "type": "function"
    },
    {
      "inputs": [
        {
          "components": [
            {
              "internalType": "uint256",
              "name": "partner",
              "type": "uint256"
            },
            {
              "internalType": "string",
              "name": "token",
              "type": "string"
            }
          ],
          "internalType": "struct TradeUrl",
          "name": "_buyerTradeUrl",
          "type": "tuple"
        },
        {
          "internalType": "bytes32",
          "name": "_affLink",
          "type": "bytes32"
        },
        {
          "internalType": "address",
          "name": "_tradeContract",
          "type": "address"
        }
      ],
      "name": "BuyWithEthToWeth",
      "outputs": [],
      "stateMutability": "payable",
      "type": "function"
    }
  ],
  "bytecode": "0x608060405234801561001057600080fd5b5060405161084138038061084183398101604081905261002f91610054565b60008054600160a060020a031916600160a060020a0392909216919091179055610084565b60006020828403121561006657600080fd5b8151600160a060020a038116811461007d57600080fd5b9392505050565b6107ae806100936000396000f3fe608060405260043610610045577c010000000000000000000000000000000000000000000000000000000060003504633fc8cef3811461004a5780638340637314610086575b600080fd5b34801561005657600080fd5b5060005461006a90600160a060020a031681565b604051600160a060020a03909116815260200160405180910390f35b610099610094366004610599565b61009b565b005b600160a060020a038116610110576040517f08c379a000000000000000000000000000000000000000000000000000000000815260206004820152601c60248201527f496e76616c69642062757920636f6e747261637420616464726573730000000060448201526064015b60405180910390fd5b80600081600160a060020a0316631c925df06040518163ffffffff167c0100000000000000000000000000000000000000000000000000000000028152600401602060405180830381865afa15801561016d573d6000803e3d6000fd5b505050506040513d601f19601f8201168201806040525081019061019191906106ac565b60028111156101a2576101a261067d565b14610209576040517f08c379a000000000000000000000000000000000000000000000000000000000815260206004820152601260248201527f496e76616c6964207072696365207479706500000000000000000000000000006044820152606401610107565b60008054906101000a9004600160a060020a0316600160a060020a031663d0e30db0346040518263ffffffff167c01000000000000000000000000000000000000000000000000000000000281526004016000604051808303818588803b15801561027357600080fd5b505af1158015610287573d6000803e3d6000fd5b50506000546040517f70a08231000000000000000000000000000000000000000000000000000000008152306004820152349450600160a060020a0390911692506370a082319150602401602060405180830381865afa1580156102ef573d6000803e3d6000fd5b505050506040513d601f19601f8201168201806040525081019061031391906106d4565b101561037b576040517f08c379a000000000000000000000000000000000000000000000000000000000815260206004820152601260248201527f455448206465706f736974206661696c656400000000000000000000000000006044820152606401610107565b600080546040517f095ea7b3000000000000000000000000000000000000000000000000000000008152600160a060020a0384811660048301523460248301529091169063095ea7b3906044016020604051808303816000875af11580156103e7573d6000803e3d6000fd5b505050506040513d601f19601f8201168201806040525081019061040b91906106ed565b905080610474576040517f08c379a000000000000000000000000000000000000000000000000000000000815260206004820152601460248201527f5745544820617070726f76616c206661696c65640000000000000000000000006044820152606401610107565b6040517f1f97327b000000000000000000000000000000000000000000000000000000008152600160a060020a03831690631f97327b906104bb908890889060040161070f565b600060405180830381600087803b1580156104d557600080fd5b505af11580156104e9573d6000803e3d6000fd5b505050505050505050565b7f4e487b7100000000000000000000000000000000000000000000000000000000600052604160045260246000fd5b6040805190810167ffffffffffffffff81118282101715610546576105466104f4565b60405290565b604051601f8201601f1916810167ffffffffffffffff81118282101715610575576105756104f4565b604052919050565b8035600160a060020a038116811461059457600080fd5b919050565b6000806000606084860312156105ae57600080fd5b833567ffffffffffffffff808211156105c657600080fd5b90850190604082880312156105da57600080fd5b6105e2610523565b82358152602080840135838111156105f957600080fd5b80850194505088601f85011261060e57600080fd5b833583811115610620576106206104f4565b610632601f8201601f1916830161054c565b9350808452898282870101111561064857600080fd5b80828601838601376000908401820152818101929092529450850135925061067490506040850161057d565b90509250925092565b7f4e487b7100000000000000000000000000000000000000000000000000000000600052602160045260246000fd5b6000602082840312156106be57600080fd5b8151600381106106cd57600080fd5b9392505050565b6000602082840312156106e657600080fd5b5051919050565b6000602082840312156106ff57600080fd5b815180151581146106cd57600080fd5b6040815282516040820152600060208085015160406060850152805180608086015260005b818110156107505782810184015186820160a001528301610734565b50600060a0828701015260a0601f19601f83011686010193505050838184015250939250505056fea2646970667358221220599f84a633da85d15f6b169c8758a863e1786126a466c5e11f3eaac9a64b445b64736f6c63430008130033",
  "immutableReferences": {},
  "source": "// SPDX-License-Identifier: MIT\r\npragma solidity 0.8.19;\r\n\r\nimport { IWETH } from \"../CSX/Interfaces.sol\";\r\n\r\ninterface ITradeContract {\r\n    function commitBuy(TradeUrl memory _buyerTradeUrl, bytes32 _affLink) external;\r\n    function priceType() external view returns (PriceType);\r\n    function weiPrice() external view returns (uint256);\r\n}\r\n\r\nimport { TradeStatus, Role } from '../Users/IUsers.sol';\r\nimport { TradeUrl, PriceType } from '../TradeFactory/ITradeFactory.sol';\r\n\r\ncontract BuyAssistoor {\r\n    IWETH public weth;\r\n\r\n    constructor(address _weth) {\r\n        weth = IWETH(_weth);\r\n    }\r\n\r\n    function BuyWithEthToWeth(TradeUrl memory _buyerTradeUrl, bytes32 _affLink, address _tradeContract) public payable {\r\n        require(_tradeContract != address(0), \"Invalid buy contract address\");\r\n\r\n        ITradeContract tradeContract = ITradeContract(_tradeContract);\r\n\r\n        require(tradeContract.priceType() == PriceType.WETH, \"Invalid price type\");\r\n        \r\n        // Convert the ETH to WETH\r\n        weth.deposit{value: msg.value}();\r\n\r\n        // Check the balance\r\n        require(weth.balanceOf(address(this)) >= msg.value, \"ETH deposit failed\");\r\n\r\n        // Approve the transfer of WETH\r\n        bool approved = weth.approve(address(tradeContract), msg.value);\r\n        require(approved, \"WETH approval failed\");\r\n\r\n        // Now you have WETH, and you can call commitBuy function\r\n        tradeContract.commitBuy(_buyerTradeUrl, _affLink);\r\n    }\r\n}\r\n",
  "sourcePath": "C:\\Users\\Charl\\Documents\\Projects\\SteamMarket\\CSX\\csx-contracts\\contracts\\Trade\\BuyAssistoor.sol",
  "compiler": {
    "name": "solc",
    "version": "0.8.19+commit.7dd6d404.Emscripten.clang"
  },
  "schemaVersion": "3.4.3",
  "updatedAt": "2023-05-12T09:06:05.353Z",
  "devdoc": {
    "kind": "dev",
    "methods": {},
    "version": 1
  },
  "userdoc": {
    "kind": "user",
    "methods": {},
    "version": 1
  }
}