{
  "contractName": "CSXOLD",
  "abi": [
    {
      "inputs": [],
      "stateMutability": "nonpayable",
      "type": "constructor"
    },
    {
      "anonymous": false,
      "inputs": [
        {
          "indexed": true,
          "internalType": "address",
          "name": "owner",
          "type": "address"
        },
        {
          "indexed": true,
          "internalType": "address",
          "name": "spender",
          "type": "address"
        },
        {
          "indexed": false,
          "internalType": "uint256",
          "name": "value",
          "type": "uint256"
        }
      ],
      "name": "Approval",
      "type": "event"
    },
    {
      "anonymous": false,
      "inputs": [
        {
          "indexed": false,
          "internalType": "uint256",
          "name": "amount",
          "type": "uint256"
        },
        {
          "indexed": false,
          "internalType": "uint256",
          "name": "dividendPerToken",
          "type": "uint256"
        }
      ],
      "name": "FundsReceived",
      "type": "event"
    },
    {
      "anonymous": false,
      "inputs": [
        {
          "indexed": true,
          "internalType": "address",
          "name": "previousOwner",
          "type": "address"
        },
        {
          "indexed": true,
          "internalType": "address",
          "name": "newOwner",
          "type": "address"
        }
      ],
      "name": "OwnershipTransferred",
      "type": "event"
    },
    {
      "anonymous": false,
      "inputs": [
        {
          "indexed": true,
          "internalType": "address",
          "name": "from",
          "type": "address"
        },
        {
          "indexed": true,
          "internalType": "address",
          "name": "to",
          "type": "address"
        },
        {
          "indexed": false,
          "internalType": "uint256",
          "name": "value",
          "type": "uint256"
        }
      ],
      "name": "Transfer",
      "type": "event"
    },
    {
      "inputs": [],
      "name": "MAX_SUPPLY",
      "outputs": [
        {
          "internalType": "uint256",
          "name": "",
          "type": "uint256"
        }
      ],
      "stateMutability": "view",
      "type": "function"
    },
    {
      "inputs": [
        {
          "internalType": "address",
          "name": "owner",
          "type": "address"
        },
        {
          "internalType": "address",
          "name": "spender",
          "type": "address"
        }
      ],
      "name": "allowance",
      "outputs": [
        {
          "internalType": "uint256",
          "name": "",
          "type": "uint256"
        }
      ],
      "stateMutability": "view",
      "type": "function"
    },
    {
      "inputs": [
        {
          "internalType": "address",
          "name": "spender",
          "type": "address"
        },
        {
          "internalType": "uint256",
          "name": "amount",
          "type": "uint256"
        }
      ],
      "name": "approve",
      "outputs": [
        {
          "internalType": "bool",
          "name": "",
          "type": "bool"
        }
      ],
      "stateMutability": "nonpayable",
      "type": "function"
    },
    {
      "inputs": [
        {
          "internalType": "address",
          "name": "account",
          "type": "address"
        }
      ],
      "name": "balanceOf",
      "outputs": [
        {
          "internalType": "uint256",
          "name": "",
          "type": "uint256"
        }
      ],
      "stateMutability": "view",
      "type": "function"
    },
    {
      "inputs": [],
      "name": "decimals",
      "outputs": [
        {
          "internalType": "uint8",
          "name": "",
          "type": "uint8"
        }
      ],
      "stateMutability": "view",
      "type": "function"
    },
    {
      "inputs": [
        {
          "internalType": "address",
          "name": "spender",
          "type": "address"
        },
        {
          "internalType": "uint256",
          "name": "subtractedValue",
          "type": "uint256"
        }
      ],
      "name": "decreaseAllowance",
      "outputs": [
        {
          "internalType": "bool",
          "name": "",
          "type": "bool"
        }
      ],
      "stateMutability": "nonpayable",
      "type": "function"
    },
    {
      "inputs": [
        {
          "internalType": "address",
          "name": "spender",
          "type": "address"
        },
        {
          "internalType": "uint256",
          "name": "addedValue",
          "type": "uint256"
        }
      ],
      "name": "increaseAllowance",
      "outputs": [
        {
          "internalType": "bool",
          "name": "",
          "type": "bool"
        }
      ],
      "stateMutability": "nonpayable",
      "type": "function"
    },
    {
      "inputs": [],
      "name": "locked",
      "outputs": [
        {
          "internalType": "bool",
          "name": "",
          "type": "bool"
        }
      ],
      "stateMutability": "view",
      "type": "function"
    },
    {
      "inputs": [],
      "name": "name",
      "outputs": [
        {
          "internalType": "string",
          "name": "",
          "type": "string"
        }
      ],
      "stateMutability": "view",
      "type": "function"
    },
    {
      "inputs": [],
      "name": "owner",
      "outputs": [
        {
          "internalType": "address",
          "name": "",
          "type": "address"
        }
      ],
      "stateMutability": "view",
      "type": "function"
    },
    {
      "inputs": [],
      "name": "renounceOwnership",
      "outputs": [],
      "stateMutability": "nonpayable",
      "type": "function"
    },
    {
      "inputs": [],
      "name": "symbol",
      "outputs": [
        {
          "internalType": "string",
          "name": "",
          "type": "string"
        }
      ],
      "stateMutability": "view",
      "type": "function"
    },
    {
      "inputs": [],
      "name": "totalSupply",
      "outputs": [
        {
          "internalType": "uint256",
          "name": "",
          "type": "uint256"
        }
      ],
      "stateMutability": "view",
      "type": "function"
    },
    {
      "inputs": [
        {
          "internalType": "address",
          "name": "to",
          "type": "address"
        },
        {
          "internalType": "uint256",
          "name": "amount",
          "type": "uint256"
        }
      ],
      "name": "transfer",
      "outputs": [
        {
          "internalType": "bool",
          "name": "",
          "type": "bool"
        }
      ],
      "stateMutability": "nonpayable",
      "type": "function"
    },
    {
      "inputs": [
        {
          "internalType": "address",
          "name": "from",
          "type": "address"
        },
        {
          "internalType": "address",
          "name": "to",
          "type": "address"
        },
        {
          "internalType": "uint256",
          "name": "amount",
          "type": "uint256"
        }
      ],
      "name": "transferFrom",
      "outputs": [
        {
          "internalType": "bool",
          "name": "",
          "type": "bool"
        }
      ],
      "stateMutability": "nonpayable",
      "type": "function"
    },
    {
      "inputs": [
        {
          "internalType": "address",
          "name": "newOwner",
          "type": "address"
        }
      ],
      "name": "transferOwnership",
      "outputs": [],
      "stateMutability": "nonpayable",
      "type": "function"
    },
    {
      "stateMutability": "payable",
      "type": "receive"
    },
    {
      "inputs": [
        {
          "internalType": "address",
          "name": "to_",
          "type": "address"
        },
        {
          "internalType": "uint256",
          "name": "amount_",
          "type": "uint256"
        }
      ],
      "name": "mint",
      "outputs": [],
      "stateMutability": "nonpayable",
      "type": "function"
    },
    {
      "inputs": [],
      "name": "toggleLock",
      "outputs": [],
      "stateMutability": "nonpayable",
      "type": "function"
    },
    {
      "inputs": [],
      "name": "claim",
      "outputs": [],
      "stateMutability": "nonpayable",
      "type": "function"
    },
    {
      "inputs": [
        {
          "internalType": "address",
          "name": "_account",
          "type": "address"
        }
      ],
      "name": "getClaimableAmount",
      "outputs": [
        {
          "internalType": "uint256",
          "name": "",
          "type": "uint256"
        }
      ],
      "stateMutability": "view",
      "type": "function"
    }
  ],
  "bytecode": "0x60806040523480156200001157600080fd5b506040518060400160405280601081526020017f536b696e734d61726b657420436f696e000000000000000000000000000000008152506040518060400160405280600381526020017f534d430000000000000000000000000000000000000000000000000000000000815250620000aa6200009b620000e1640100000000026401000000009004565b640100000000620000e5810204565b600180556005620000bc83826200020c565b506006620000cb82826200020c565b5050600b805460ff1916600117905550620002df565b3390565b60008054600160a060020a03838116600160a060020a0319831681178455604051919092169283917f8be0079c531659141344cd1fd0a4f28419497f9722a3daafe3b4186f6b6457e09190a35050565b7f4e487b7100000000000000000000000000000000000000000000000000000000600052604160045260246000fd5b6002810460018216806200017957607f821691505b602082108103620001b3577f4e487b7100000000000000000000000000000000000000000000000000000000600052602260045260246000fd5b50919050565b601f82111562000207576000818152602081206020601f86010481016020861015620001e25750805b6020601f860104820191505b818110156200020357828155600101620001ee565b5050505b505050565b815167ffffffffffffffff81111562000229576200022962000135565b62000241816200023a845462000164565b84620001b9565b602080601f8311600181146200027d5760008415620002605750858301515b60028086026008870290910a600019041982161786555062000203565b600085815260208120601f198616915b82811015620002ae578886015182559484019460019091019084016200028d565b5085821015620002cf57878501516008601f88160260020a60001904191681555b5050505050600202600101905550565b61125d80620002ef6000396000f3fe6080604052600436106100f65760e060020a600035046306fdde0381146101c9578063095ea7b3146101f457806318160ddd1461022457806323b872dd14610243578063313ce5671461026357806332cb6b0c1461027f578063395093511461029e57806340c10f19146102be5780634e71d92d146102e057806370a08231146102f5578063715018a6146103155780638da5cb5b1461032a57806395d89b4114610357578063a457c2d71461036c578063a9059cbb1461038c578063cf309012146103ac578063dd62ed3e146103c6578063e12f3a61146103e6578063f2fde38b14610406578063ff9413d81461042657600080fd5b366101c45760045460000361014b5760405160e560020a62461bcd0281526020600482015260106024820152608260020a6f139bc81d1bdad95b9cc81b5a5b9d19590260448201526064015b60405180910390fd5b6004546101656c0c9f2c9cd04674edea4000000034611048565b61016f919061105f565b600760008282546101809190611085565b90915550506007546040805134815260208101929092527f063d07ee72a7483b8e07ca09054bb686775c5c030f945dde3823a5257a0a93eb910160405180910390a1005b600080fd5b3480156101d557600080fd5b506101de61043b565b6040516101eb9190611098565b60405180910390f35b34801561020057600080fd5b5061021461020f366004611102565b6104cd565b60405190151581526020016101eb565b34801561023057600080fd5b506004545b6040519081526020016101eb565b34801561024f57600080fd5b5061021461025e36600461112c565b6104e7565b34801561026f57600080fd5b50604051601281526020016101eb565b34801561028b57600080fd5b506102356a52b7d2dcc80cd2e400000081565b3480156102aa57600080fd5b506102146102b9366004611102565b61050b565b3480156102ca57600080fd5b506102de6102d9366004611102565b61052d565b005b3480156102ec57600080fd5b506102de6105be565b34801561030157600080fd5b50610235610310366004611168565b6107da565b34801561032157600080fd5b506102de6107f5565b34801561033657600080fd5b5061033f610807565b604051600160a060020a0390911681526020016101eb565b34801561036357600080fd5b506101de610816565b34801561037857600080fd5b50610214610387366004611102565b610825565b34801561039857600080fd5b506102146103a7366004611102565b6108a6565b3480156103b857600080fd5b50600b546102149060ff1681565b3480156103d257600080fd5b506102356103e1366004611183565b6108b4565b3480156103f257600080fd5b50610235610401366004611168565b6108df565b34801561041257600080fd5b506102de610421366004611168565b610952565b34801561043257600080fd5b506102de6109d1565b60606005805461044a906111b6565b80601f0160208091040260200160405190810160405280929190818152602001828054610476906111b6565b80156104c35780601f10610498576101008083540402835291602001916104c3565b820191906000526020600020905b8154815290600101906020018083116104a657829003601f168201915b5050505050905090565b6000336104db8185856109ed565b60019150505b92915050565b6000336104f5858285610b1d565b610500858585610b9a565b506001949350505050565b6000336104db81858561051e83836108b4565b6105289190611085565b6109ed565b610535610d50565b806a52b7d2dcc80cd2e400000061054b60045490565b6105559083611085565b11156105a65760405160e560020a62461bcd02815260206004820152601b60248201527f616d6f756e7420737572706173736573206d617820737570706c7900000000006044820152606401610142565b6105af83610db2565b6105b98383610e5b565b505050565b6105c6610f19565b600b5460ff161561061c5760405160e560020a62461bcd02815260206004820152601c60248201527f636f6e74726163742069732063757272656e746c79206c6f636b6564000000006044820152606401610142565b6000610627336107da565b336000908152600960205260409020549091508115158061064757508015155b6106b65760405160e560020a62461bcd02815260206004820152603460248201527f44546f6b656e3a2063616c6c657220706f7373657373206e6f20746f6b656e736044820152606060020a73206f722063726564697465642062616c616e6365026064820152608401610142565b6000821561070a5733600090815260086020526040902080546007549182905590610706906c0c9f2c9cd04674edea40000000906107009087906106fa9086610f75565b90610f81565b90610f8d565b9150505b811561072d573360009081526009602052604081205561072a8183610f99565b90505b80156107cc57604051600090339083908381818185875af1925050503d8060008114610775576040519150601f19603f3d011682016040523d82523d6000602084013e61077a565b606091505b50509050806107ca5760405160e560020a62461bcd0281526020600482015260166024820152605360020a75086deead8c840dcdee840eed2e8d0c8e4c2ee40cae8d026044820152606401610142565b505b5050506107d860018055565b565b600160a060020a031660009081526002602052604090205490565b6107fd610d50565b6107d86000610fa5565b600054600160a060020a031690565b60606006805461044a906111b6565b6000338161083382866108b4565b9050838110156108995760405160e560020a62461bcd02815260206004820152602560248201527f45524332303a2064656372656173656420616c6c6f77616e63652062656c6f77604482015260d860020a64207a65726f026064820152608401610142565b61050082868684036109ed565b6000336104db818585610b9a565b600160a060020a03918216600090815260036020908152604080832093909416825291909152205490565b6000806109246c0c9f2c9cd04674edea400000006107006108ff866107da565b600160a060020a0387166000908152600860205260409020546007546106fa91610f75565b600160a060020a03841660009081526009602052604090205490915061094b908290610f99565b9392505050565b61095a610d50565b600160a060020a0381166109c55760405160e560020a62461bcd02815260206004820152602660248201527f4f776e61626c653a206e6577206f776e657220697320746865207a65726f2061604482015260d060020a65646472657373026064820152608401610142565b6109ce81610fa5565b50565b6109d9610d50565b600b805460ff19811660ff90911615179055565b600160a060020a038316610a555760405160e560020a62461bcd028152602060048201526024808201527f45524332303a20617070726f76652066726f6d20746865207a65726f20616464604482015260e060020a6372657373026064820152608401610142565b600160a060020a038216610abc5760405160e560020a62461bcd02815260206004820152602260248201527f45524332303a20617070726f766520746f20746865207a65726f206164647265604482015260f060020a617373026064820152608401610142565b600160a060020a0383811660008181526003602090815260408083209487168084529482529182902085905590518481527f8c5be1e5ebec7d5bd14f71427d1e84f3dd0314c0f7b2291e5b200ac8c7c3b925910160405180910390a3505050565b6000610b2984846108b4565b90506000198114610b945781811015610b875760405160e560020a62461bcd02815260206004820152601d60248201527f45524332303a20696e73756666696369656e7420616c6c6f77616e63650000006044820152606401610142565b610b9484848484036109ed565b50505050565b600160a060020a038316610c045760405160e560020a62461bcd02815260206004820152602560248201527f45524332303a207472616e736665722066726f6d20746865207a65726f206164604482015260d860020a646472657373026064820152608401610142565b600160a060020a038216610c6c5760405160e560020a62461bcd02815260206004820152602360248201527f45524332303a207472616e7366657220746f20746865207a65726f2061646472604482015260e860020a62657373026064820152608401610142565b610c77838383610ff5565b600160a060020a03831660009081526002602052604090205481811015610cf55760405160e560020a62461bcd02815260206004820152602660248201527f45524332303a207472616e7366657220616d6f756e7420657863656564732062604482015260d060020a65616c616e6365026064820152608401610142565b600160a060020a03808516600081815260026020526040808220868603905592861680825290839020805486019055915160008051602061120883398151915290610d439086815260200190565b60405180910390a3610b94565b33610d59610807565b600160a060020a0316146107d85760405160e560020a62461bcd02815260206004820181905260248201527f4f776e61626c653a2063616c6c6572206973206e6f7420746865206f776e65726044820152606401610142565b6000610dbd826107da565b90508015610e3b5733600090815260086020526040812054600754610dfa916c0c9f2c9cd04674edea40000000916107009186916106fa91610f75565b600160a060020a038416600090815260096020526040902054909150610e209082610f99565b600160a060020a038416600090815260096020526040902055505b50600754600160a060020a03909116600090815260086020526040902055565b600160a060020a038216610eb45760405160e560020a62461bcd02815260206004820152601f60248201527f45524332303a206d696e7420746f20746865207a65726f2061646472657373006044820152606401610142565b610ec060008383610ff5565b8060046000828254610ed29190611085565b9091555050600160a060020a038216600081815260026020908152604080832080548601905551848152600080516020611208833981519152910160405180910390a35050565b600260015403610f6e5760405160e560020a62461bcd02815260206004820152601f60248201527f5265656e7472616e637947756172643a207265656e7472616e742063616c6c006044820152606401610142565b6002600155565b600061094b82846111f4565b600061094b8284611048565b600061094b828461105f565b600061094b8284611085565b60008054600160a060020a03838116600160a060020a0319831681178455604051919092169283917f8be0079c531659141344cd1fd0a4f28419497f9722a3daafe3b4186f6b6457e09190a35050565b600160a060020a03831615806110125750600160a060020a038216155b1561101c57505050565b61102582610db2565b6105b983610db2565b60e060020a634e487b710260009081526011600452602490fd5b80820281158282048414176104e1576104e161102e565b6000826110805760e060020a634e487b710260009081526012600452602490fd5b500490565b808201808211156104e1576104e161102e565b600060208083528351808285015260005b818110156110c5578581018301518582016040015282016110a9565b506000604082860101526040601f19601f8301168501019250505092915050565b8035600160a060020a03811681146110fd57600080fd5b919050565b6000806040838503121561111557600080fd5b61111e836110e6565b946020939093013593505050565b60008060006060848603121561114157600080fd5b61114a846110e6565b9250611158602085016110e6565b9150604084013590509250925092565b60006020828403121561117a57600080fd5b61094b826110e6565b6000806040838503121561119657600080fd5b61119f836110e6565b91506111ad602084016110e6565b90509250929050565b6002810460018216806111ca57607f821691505b6020821081036111ee5760e060020a634e487b710260009081526022600452602490fd5b50919050565b818103818111156104e1576104e161102e56feddf252ad1be2c89b69c2b068fc378daa952ba7f163c4a11628f55a4df523b3efa26469706673582212201bb6d3576ca54ed7aba2ef0bfa77789a9ce2e0a1c05afed158202c24090ab22464736f6c63430008130033",
  "immutableReferences": {},
  "source": "//SPDX-License-Identifier: Unlicense\r\npragma solidity 0.8.19;\r\n\r\nimport {ERC20} from \"@openzeppelin/contracts/token/ERC20/ERC20.sol\";\r\nimport {Ownable} from \"@openzeppelin/contracts/access/Ownable.sol\";\r\nimport {ReentrancyGuard} from \"@openzeppelin/contracts/security/ReentrancyGuard.sol\";\r\nimport \"@openzeppelin/contracts/utils/math/SafeMath.sol\";\r\n\r\ncontract CSXOLD is Ownable, ReentrancyGuard, ERC20 {\r\n    using SafeMath for uint256;\r\n    uint256 public constant MAX_SUPPLY = 100000000 ether;\r\n    uint256 private constant PRECISION = 10**30; // in gwei\r\n\r\n    /// @notice Eth share of each token in gwei\r\n    uint256 dividendPerToken;\r\n    mapping(address => uint256) xDividendPerToken;\r\n    /// @notice Amount that should have been withdrawn\r\n    mapping(address => uint256) credit;\r\n\r\n    /// @notice State variable representing amount claimed by account in ETH\r\n    mapping(address => uint256) totalClaimed;\r\n\r\n    /// @notice If locked is true, users are not allowed to withdraw funds\r\n    bool public locked;\r\n\r\n    event FundsReceived(uint256 amount, uint256 dividendPerToken);\r\n\r\n    modifier mintable(uint256 amount) {\r\n        require(\r\n            amount + totalSupply() <= MAX_SUPPLY,\r\n            \"amount surpasses max supply\"\r\n        );\r\n        _;\r\n    }\r\n    modifier isUnlocked() {\r\n        require(!locked, \"contract is currently locked\");\r\n        _;\r\n    }\r\n\r\n    modifier onlyAddress(address _address) {\r\n        require(msg.sender == _address, \"Incorrect party.\");\r\n        _;\r\n    }\r\n\r\n    receive() external payable {\r\n        require(totalSupply() != 0, \"No tokens minted\");\r\n        dividendPerToken += (msg.value * PRECISION) / totalSupply();\r\n        // gwei Multiplier decreases impact of remainder though\r\n        emit FundsReceived(msg.value, dividendPerToken);\r\n    }\r\n\r\n    constructor() ERC20('SkinsMarket Coin', 'SMC')\r\n    {\r\n        locked = true;\r\n    }\r\n\r\n    function mint(address to_, uint256 amount_)\r\n        public\r\n        onlyOwner\r\n        mintable(amount_)\r\n    {\r\n        _claimToCredit(to_);\r\n        _mint(to_, amount_);\r\n    }\r\n\r\n    function toggleLock() external onlyOwner {\r\n        locked = !locked;\r\n    }\r\n\r\n    /// @notice Withdraw Eth from contract onto the caller w.r.t balance of token held by caller\r\n    /// @dev Reentrancy Guard modifier in order to protect the transaction from reentrancy attack\r\n    function claim() external nonReentrant isUnlocked {\r\n        uint256 holderBalance = balanceOf(_msgSender());\r\n        uint256 creditBalance = credit[_msgSender()];\r\n        require(\r\n            holderBalance != 0 || creditBalance != 0,\r\n            \"DToken: caller possess no tokens or credited balance\"\r\n        );\r\n\r\n        uint256 amount;\r\n\r\n        if (holderBalance != 0) {\r\n            uint256 userDividendPerToken = xDividendPerToken[_msgSender()];\r\n            xDividendPerToken[_msgSender()] = dividendPerToken;\r\n            amount = dividendPerToken\r\n                .sub(userDividendPerToken)\r\n                .mul(holderBalance)\r\n                .div(PRECISION);\r\n        }\r\n\r\n        if (creditBalance != 0) {\r\n            credit[_msgSender()] = 0;\r\n            amount = amount.add(creditBalance);\r\n        }\r\n\r\n        if (amount != 0) {\r\n            (bool success, ) = payable(_msgSender()).call{value: amount}(\"\");\r\n            require(success, \"Could not withdraw eth\");\r\n        }\r\n    }\r\n\r\n    function getClaimableAmount(address _account) external view returns (uint256) {\r\n        uint256 amount = dividendPerToken\r\n            .sub(xDividendPerToken[_account])\r\n            .mul(balanceOf(_account))\r\n            .div(PRECISION);\r\n        amount = amount.add(credit[_account]);\r\n        return amount;\r\n    }\r\n\r\n    //=================================== INTERNAL ==============================================\r\n    function _beforeTokenTransfer(\r\n        address from,\r\n        address to,\r\n        uint256 amount\r\n    ) internal override {\r\n        if (from == address(0) || to == address(0)) return;\r\n        // receiver first withdraw funds to credit\r\n        _claimToCredit(to);\r\n        _claimToCredit(from);\r\n    }\r\n\r\n    //=================================== PRIVATE ==============================================\r\n\r\n    function _claimToCredit(address to_) private {\r\n        uint256 recipientBalance = balanceOf(to_);\r\n        if (recipientBalance != 0) {\r\n            //uint256 amount = ( (dividendPerToken - xDividendPerToken[to_]) * recipientBalance / MULTIPLIER);\r\n            uint256 amount = dividendPerToken\r\n                .sub(xDividendPerToken[_msgSender()])\r\n                .mul(recipientBalance)\r\n                .div(PRECISION);\r\n            //credit[to_] += amount;\r\n            credit[to_] = credit[to_].add(amount);\r\n        }\r\n        xDividendPerToken[to_] = dividendPerToken;\r\n    }\r\n}\r\n",
  "sourcePath": "C:\\Users\\Charl\\Documents\\Projects\\SteamMarket\\CSX\\csx-contracts\\contracts\\CSX\\CSX_backup.sol",
  "compiler": {
    "name": "solc",
    "version": "0.8.19+commit.7dd6d404.Emscripten.clang"
  },
  "schemaVersion": "3.4.3",
  "updatedAt": "2023-03-29T11:51:01.043Z",
  "devdoc": {
    "events": {
      "Approval(address,address,uint256)": {
        "details": "Emitted when the allowance of a `spender` for an `owner` is set by a call to {approve}. `value` is the new allowance."
      },
      "Transfer(address,address,uint256)": {
        "details": "Emitted when `value` tokens are moved from one account (`from`) to another (`to`). Note that `value` may be zero."
      }
    },
    "kind": "dev",
    "methods": {
      "allowance(address,address)": {
        "details": "See {IERC20-allowance}."
      },
      "approve(address,uint256)": {
        "details": "See {IERC20-approve}. NOTE: If `amount` is the maximum `uint256`, the allowance is not updated on `transferFrom`. This is semantically equivalent to an infinite approval. Requirements: - `spender` cannot be the zero address."
      },
      "balanceOf(address)": {
        "details": "See {IERC20-balanceOf}."
      },
      "claim()": {
        "details": "Reentrancy Guard modifier in order to protect the transaction from reentrancy attack"
      },
      "decimals()": {
        "details": "Returns the number of decimals used to get its user representation. For example, if `decimals` equals `2`, a balance of `505` tokens should be displayed to a user as `5.05` (`505 / 10 ** 2`). Tokens usually opt for a value of 18, imitating the relationship between Ether and Wei. This is the value {ERC20} uses, unless this function is overridden; NOTE: This information is only used for _display_ purposes: it in no way affects any of the arithmetic of the contract, including {IERC20-balanceOf} and {IERC20-transfer}."
      },
      "decreaseAllowance(address,uint256)": {
        "details": "Atomically decreases the allowance granted to `spender` by the caller. This is an alternative to {approve} that can be used as a mitigation for problems described in {IERC20-approve}. Emits an {Approval} event indicating the updated allowance. Requirements: - `spender` cannot be the zero address. - `spender` must have allowance for the caller of at least `subtractedValue`."
      },
      "increaseAllowance(address,uint256)": {
        "details": "Atomically increases the allowance granted to `spender` by the caller. This is an alternative to {approve} that can be used as a mitigation for problems described in {IERC20-approve}. Emits an {Approval} event indicating the updated allowance. Requirements: - `spender` cannot be the zero address."
      },
      "name()": {
        "details": "Returns the name of the token."
      },
      "owner()": {
        "details": "Returns the address of the current owner."
      },
      "renounceOwnership()": {
        "details": "Leaves the contract without owner. It will not be possible to call `onlyOwner` functions anymore. Can only be called by the current owner. NOTE: Renouncing ownership will leave the contract without an owner, thereby removing any functionality that is only available to the owner."
      },
      "symbol()": {
        "details": "Returns the symbol of the token, usually a shorter version of the name."
      },
      "totalSupply()": {
        "details": "See {IERC20-totalSupply}."
      },
      "transfer(address,uint256)": {
        "details": "See {IERC20-transfer}. Requirements: - `to` cannot be the zero address. - the caller must have a balance of at least `amount`."
      },
      "transferFrom(address,address,uint256)": {
        "details": "See {IERC20-transferFrom}. Emits an {Approval} event indicating the updated allowance. This is not required by the EIP. See the note at the beginning of {ERC20}. NOTE: Does not update the allowance if the current allowance is the maximum `uint256`. Requirements: - `from` and `to` cannot be the zero address. - `from` must have a balance of at least `amount`. - the caller must have allowance for ``from``'s tokens of at least `amount`."
      },
      "transferOwnership(address)": {
        "details": "Transfers ownership of the contract to a new account (`newOwner`). Can only be called by the current owner."
      }
    },
    "version": 1
  },
  "userdoc": {
    "kind": "user",
    "methods": {
      "claim()": {
        "notice": "Withdraw Eth from contract onto the caller w.r.t balance of token held by caller"
      },
      "locked()": {
        "notice": "If locked is true, users are not allowed to withdraw funds"
      }
    },
    "version": 1
  }
}