{
  "contractName": "CSXTradeFactory",
  "abi": [
    {
      "inputs": [
        {
          "internalType": "address",
          "name": "_keepers",
          "type": "address"
        },
        {
          "internalType": "address",
          "name": "_users",
          "type": "address"
        },
        {
          "internalType": "address",
          "name": "_tradeFactoryBaseStorage",
          "type": "address"
        }
      ],
      "stateMutability": "nonpayable",
      "type": "constructor"
    },
    {
      "anonymous": false,
      "inputs": [
        {
          "indexed": false,
          "internalType": "address",
          "name": "contractAddress",
          "type": "address"
        },
        {
          "indexed": false,
          "internalType": "enum TradeStatus",
          "name": "",
          "type": "uint8"
        },
        {
          "indexed": false,
          "internalType": "string",
          "name": "data",
          "type": "string"
        }
      ],
      "name": "TradeContractStatusChange",
      "type": "event"
    },
    {
      "inputs": [
        {
          "internalType": "string",
          "name": "",
          "type": "string"
        },
        {
          "internalType": "address",
          "name": "",
          "type": "address"
        }
      ],
      "name": "assetIdFromUserAddrssToTradeAddrss",
      "outputs": [
        {
          "internalType": "address",
          "name": "",
          "type": "address"
        }
      ],
      "stateMutability": "view",
      "type": "function",
      "constant": true
    },
    {
      "inputs": [
        {
          "internalType": "string",
          "name": "_assetId",
          "type": "string"
        },
        {
          "internalType": "address",
          "name": "sellerAddrss",
          "type": "address"
        }
      ],
      "name": "hasAlreadyListedItem",
      "outputs": [
        {
          "internalType": "bool",
          "name": "",
          "type": "bool"
        }
      ],
      "stateMutability": "view",
      "type": "function",
      "constant": true
    },
    {
      "inputs": [
        {
          "internalType": "address",
          "name": "contractAddress",
          "type": "address"
        }
      ],
      "name": "isThisTradeContract",
      "outputs": [
        {
          "internalType": "bool",
          "name": "",
          "type": "bool"
        }
      ],
      "stateMutability": "view",
      "type": "function",
      "constant": true
    },
    {
      "inputs": [],
      "name": "keepersContract",
      "outputs": [
        {
          "internalType": "contract IKeepers",
          "name": "",
          "type": "address"
        }
      ],
      "stateMutability": "view",
      "type": "function",
      "constant": true
    },
    {
      "inputs": [
        {
          "internalType": "enum TradeStatus",
          "name": "status",
          "type": "uint8"
        },
        {
          "internalType": "string",
          "name": "data",
          "type": "string"
        }
      ],
      "name": "onStatusChange",
      "outputs": [],
      "stateMutability": "nonpayable",
      "type": "function"
    },
    {
      "inputs": [
        {
          "internalType": "string",
          "name": "_assetId",
          "type": "string"
        },
        {
          "internalType": "address",
          "name": "sellerAddrss",
          "type": "address"
        }
      ],
      "name": "removeAssetIdUsed",
      "outputs": [
        {
          "internalType": "bool",
          "name": "",
          "type": "bool"
        }
      ],
      "stateMutability": "nonpayable",
      "type": "function"
    },
    {
      "inputs": [],
      "name": "usersContract",
      "outputs": [
        {
          "internalType": "contract IUsers",
          "name": "",
          "type": "address"
        }
      ],
      "stateMutability": "view",
      "type": "function",
      "constant": true
    },
    {
      "inputs": [
        {
          "internalType": "string",
          "name": "_itemMarketName",
          "type": "string"
        },
        {
          "components": [
            {
              "internalType": "uint256",
              "name": "partner",
              "type": "uint256"
            },
            {
              "internalType": "string",
              "name": "token",
              "type": "string"
            }
          ],
          "internalType": "struct TradeUrl",
          "name": "_tradeUrl",
          "type": "tuple"
        },
        {
          "internalType": "string",
          "name": "_assetId",
          "type": "string"
        },
        {
          "internalType": "string",
          "name": "_inspectLink",
          "type": "string"
        },
        {
          "internalType": "string",
          "name": "_itemImageUrl",
          "type": "string"
        },
        {
          "internalType": "uint256",
          "name": "_weiPrice",
          "type": "uint256"
        },
        {
          "components": [
            {
              "internalType": "string",
              "name": "value",
              "type": "string"
            },
            {
              "internalType": "string",
              "name": "min",
              "type": "string"
            },
            {
              "internalType": "string",
              "name": "max",
              "type": "string"
            }
          ],
          "internalType": "struct FloatInfo",
          "name": "_float",
          "type": "tuple"
        },
        {
          "components": [
            {
              "internalType": "string",
              "name": "name",
              "type": "string"
            },
            {
              "internalType": "string",
              "name": "material",
              "type": "string"
            },
            {
              "internalType": "uint8",
              "name": "slot",
              "type": "uint8"
            },
            {
              "internalType": "string",
              "name": "imageLink",
              "type": "string"
            }
          ],
          "internalType": "struct Sticker[]",
          "name": "_stickers",
          "type": "tuple[]"
        },
        {
          "internalType": "string",
          "name": "_weaponType",
          "type": "string"
        }
      ],
      "name": "createListingContract",
      "outputs": [],
      "stateMutability": "nonpayable",
      "type": "function"
    },
    {
      "inputs": [
        {
          "internalType": "uint256",
          "name": "index",
          "type": "uint256"
        }
      ],
      "name": "getTradeDetailsByIndex",
      "outputs": [
        {
          "components": [
            {
              "internalType": "address",
              "name": "contractAddress",
              "type": "address"
            },
            {
              "internalType": "address",
              "name": "seller",
              "type": "address"
            },
            {
              "components": [
                {
                  "internalType": "uint256",
                  "name": "partner",
                  "type": "uint256"
                },
                {
                  "internalType": "string",
                  "name": "token",
                  "type": "string"
                }
              ],
              "internalType": "struct TradeUrl",
              "name": "sellerTradeUrl",
              "type": "tuple"
            },
            {
              "internalType": "address",
              "name": "buyer",
              "type": "address"
            },
            {
              "components": [
                {
                  "internalType": "uint256",
                  "name": "partner",
                  "type": "uint256"
                },
                {
                  "internalType": "string",
                  "name": "token",
                  "type": "string"
                }
              ],
              "internalType": "struct TradeUrl",
              "name": "buyerTradeUrl",
              "type": "tuple"
            },
            {
              "internalType": "string",
              "name": "itemMarketName",
              "type": "string"
            },
            {
              "internalType": "string",
              "name": "inspectLink",
              "type": "string"
            },
            {
              "internalType": "string",
              "name": "itemImageUrl",
              "type": "string"
            },
            {
              "internalType": "uint256",
              "name": "weiPrice",
              "type": "uint256"
            },
            {
              "internalType": "uint256",
              "name": "averageSellerDeliveryTime",
              "type": "uint256"
            },
            {
              "components": [
                {
                  "internalType": "string",
                  "name": "value",
                  "type": "string"
                },
                {
                  "internalType": "string",
                  "name": "min",
                  "type": "string"
                },
                {
                  "internalType": "string",
                  "name": "max",
                  "type": "string"
                }
              ],
              "internalType": "struct FloatInfo",
              "name": "float",
              "type": "tuple"
            },
            {
              "internalType": "enum TradeStatus",
              "name": "status",
              "type": "uint8"
            },
            {
              "components": [
                {
                  "internalType": "string",
                  "name": "name",
                  "type": "string"
                },
                {
                  "internalType": "string",
                  "name": "material",
                  "type": "string"
                },
                {
                  "internalType": "uint8",
                  "name": "slot",
                  "type": "uint8"
                },
                {
                  "internalType": "string",
                  "name": "imageLink",
                  "type": "string"
                }
              ],
              "internalType": "struct Sticker[]",
              "name": "stickers",
              "type": "tuple[]"
            },
            {
              "internalType": "string",
              "name": "weaponType",
              "type": "string"
            }
          ],
          "internalType": "struct TradeInfo",
          "name": "result",
          "type": "tuple"
        }
      ],
      "stateMutability": "view",
      "type": "function",
      "constant": true
    },
    {
      "inputs": [
        {
          "internalType": "address",
          "name": "tradeAddrs",
          "type": "address"
        }
      ],
      "name": "getTradeDetailsByAddress",
      "outputs": [
        {
          "components": [
            {
              "internalType": "address",
              "name": "contractAddress",
              "type": "address"
            },
            {
              "internalType": "address",
              "name": "seller",
              "type": "address"
            },
            {
              "components": [
                {
                  "internalType": "uint256",
                  "name": "partner",
                  "type": "uint256"
                },
                {
                  "internalType": "string",
                  "name": "token",
                  "type": "string"
                }
              ],
              "internalType": "struct TradeUrl",
              "name": "sellerTradeUrl",
              "type": "tuple"
            },
            {
              "internalType": "address",
              "name": "buyer",
              "type": "address"
            },
            {
              "components": [
                {
                  "internalType": "uint256",
                  "name": "partner",
                  "type": "uint256"
                },
                {
                  "internalType": "string",
                  "name": "token",
                  "type": "string"
                }
              ],
              "internalType": "struct TradeUrl",
              "name": "buyerTradeUrl",
              "type": "tuple"
            },
            {
              "internalType": "string",
              "name": "itemMarketName",
              "type": "string"
            },
            {
              "internalType": "string",
              "name": "inspectLink",
              "type": "string"
            },
            {
              "internalType": "string",
              "name": "itemImageUrl",
              "type": "string"
            },
            {
              "internalType": "uint256",
              "name": "weiPrice",
              "type": "uint256"
            },
            {
              "internalType": "uint256",
              "name": "averageSellerDeliveryTime",
              "type": "uint256"
            },
            {
              "components": [
                {
                  "internalType": "string",
                  "name": "value",
                  "type": "string"
                },
                {
                  "internalType": "string",
                  "name": "min",
                  "type": "string"
                },
                {
                  "internalType": "string",
                  "name": "max",
                  "type": "string"
                }
              ],
              "internalType": "struct FloatInfo",
              "name": "float",
              "type": "tuple"
            },
            {
              "internalType": "enum TradeStatus",
              "name": "status",
              "type": "uint8"
            },
            {
              "components": [
                {
                  "internalType": "string",
                  "name": "name",
                  "type": "string"
                },
                {
                  "internalType": "string",
                  "name": "material",
                  "type": "string"
                },
                {
                  "internalType": "uint8",
                  "name": "slot",
                  "type": "uint8"
                },
                {
                  "internalType": "string",
                  "name": "imageLink",
                  "type": "string"
                }
              ],
              "internalType": "struct Sticker[]",
              "name": "stickers",
              "type": "tuple[]"
            },
            {
              "internalType": "string",
              "name": "weaponType",
              "type": "string"
            }
          ],
          "internalType": "struct TradeInfo",
          "name": "result",
          "type": "tuple"
        }
      ],
      "stateMutability": "view",
      "type": "function",
      "constant": true
    },
    {
      "inputs": [
        {
          "internalType": "enum TradeStatus",
          "name": "status",
          "type": "uint8"
        },
        {
          "internalType": "uint256",
          "name": "indexFrom",
          "type": "uint256"
        },
        {
          "internalType": "uint256",
          "name": "maxResults",
          "type": "uint256"
        }
      ],
      "name": "getTradeIndexesByStatus",
      "outputs": [
        {
          "components": [
            {
              "internalType": "uint256",
              "name": "index",
              "type": "uint256"
            },
            {
              "internalType": "uint256",
              "name": "weiPrice",
              "type": "uint256"
            },
            {
              "internalType": "enum PriceType",
              "name": "priceType",
              "type": "uint8"
            },
            {
              "internalType": "string",
              "name": "weaponType",
              "type": "string"
            },
            {
              "internalType": "string",
              "name": "itemMarketName",
              "type": "string"
            },
            {
              "internalType": "uint256",
              "name": "nextIndex",
              "type": "uint256"
            }
          ],
          "internalType": "struct TradeIndex[]",
          "name": "",
          "type": "tuple[]"
        }
      ],
      "stateMutability": "view",
      "type": "function",
      "constant": true
    },
    {
      "inputs": [
        {
          "internalType": "enum TradeStatus",
          "name": "status",
          "type": "uint8"
        }
      ],
      "name": "getTradeCountByStatus",
      "outputs": [
        {
          "internalType": "uint256",
          "name": "",
          "type": "uint256"
        }
      ],
      "stateMutability": "view",
      "type": "function",
      "constant": true
    }
  ],
  "bytecode": "0x60806040523480156200001157600080fd5b506040516200297038038062002970833981016040819052620000349162000099565b600160005560038054600160a060020a03948516600160a060020a031991821617909155600480549385169382169390931790925560058054919093169116179055620000e3565b8051600160a060020a03811681146200009457600080fd5b919050565b600080600060608486031215620000af57600080fd5b620000ba846200007c565b9250620000ca602085016200007c565b9150620000da604085016200007c565b90509250925092565b61287d80620000f36000396000f3fe608060405234801561001057600080fd5b50600436106100a75760e060020a6000350463142ebf3c81146100ac57806333034d71146100d5578063346c743d146100f55780635a9ad1e0146101155780636311c2f2146101365780636e4235f61461015957806375c1e222146101855780637c31f38b1461019a57806399b2abc6146101ad578063adea4866146101c0578063c2bd884b146101d3578063f983567d146101e6575b600080fd5b6004546100bf90600160a060020a031681565b6040516100cc91906118d4565b60405180910390f35b6100e86100e33660046118e8565b61022a565b6040516100cc9190611aaa565b610108610103366004611c1e565b610a9d565b6040516100cc9190611c53565b610128610123366004611d13565b610cfd565b6040519081526020016100cc565b610149610144366004611e34565b610de9565b60405190151581526020016100cc565b610149610167366004611e85565b600160a060020a031660009081526002602052604090205460ff1690565b610198610193366004612102565b610e7c565b005b6101496101a8366004611e34565b61135c565b6101986101bb36600461224b565b6113b5565b6100e86101ce366004611e85565b611414565b6003546100bf90600160a060020a031681565b6100bf6101f4366004611e34565b815160208184018101805160068252928201948201949094209190935290915260009081526040902054600160a060020a031681565b6102326117d3565b60055460405160e260020a6313ae700d028152600481018490528391600091600160a060020a0390911690634eb9c03490602401602060405180830381865afa158015610283573d6000803e3d6000fd5b505050506040513d601f19601f820116820180604052508101906102a7919061229a565b600160a060020a0381168085526040805160e060020a6308551a53028152905192935090916308551a53916004808201926020929091908290030181865afa1580156102f7573d6000803e3d6000fd5b505050506040513d601f19601f8201168201806040525081019061031b919061229a565b8360200190600160a060020a03169081600160a060020a03168152505080600160a060020a0316637150d8ae6040518163ffffffff1660e060020a028152600401602060405180830381865afa158015610379573d6000803e3d6000fd5b505050506040513d601f19601f8201168201806040525081019061039d919061229a565b8360600190600160a060020a03169081600160a060020a03168152505080600160a060020a0316631e86221f6040518163ffffffff1660e060020a028152600401600060405180830381865afa1580156103fb573d6000803e3d6000fd5b505050506040513d6000823e601f3d908101601f1916820160405261042391908101906122fc565b8360a0018190525080600160a060020a03166370e066f66040518163ffffffff1660e060020a028152600401600060405180830381865afa15801561046c573d6000803e3d6000fd5b505050506040513d6000823e601f3d908101601f1916820160405261049491908101906122fc565b60c08401526104a1611852565b81600160a060020a03166302197c556040518163ffffffff1660e060020a028152600401600060405180830381865afa1580156104e2573d6000803e3d6000fd5b505050506040513d6000823e601f3d908101601f1916820160405261050a9190810190612330565b6020830152815260408401819052610520611852565b82600160a060020a031663fddd56c56040518163ffffffff1660e060020a028152600401600060405180830381865afa158015610561573d6000803e3d6000fd5b505050506040513d6000823e601f3d908101601f191682016040526105899190810190612330565b602080840191909152908252608086018290526040805160e060020a63e29b9e970281529051600160a060020a0386169263e29b9e9792600480820193918290030181865afa1580156105e0573d6000803e3d6000fd5b505050506040513d601f19601f82011682018060405250810190610604919061236d565b8561010001818152505082600160a060020a031663e67d55236040518163ffffffff1660e060020a028152600401600060405180830381865afa15801561064f573d6000803e3d6000fd5b505050506040513d6000823e601f3d908101601f1916820160405261067791908101906122fc565b60e086015260048054602087015160405160e460020a630791bd0d028152600160a060020a039092169263791bd0d0926106b29291016118d4565b602060405180830381865afa1580156106cf573d6000803e3d6000fd5b505050506040513d601f19601f820116820180604052508101906106f3919061236d565b61012086015261070161186c565b83600160a060020a03166368ccaa526040518163ffffffff1660e060020a028152600401600060405180830381865afa158015610742573d6000803e3d6000fd5b505050506040513d6000823e601f3d908101601f1916820160405261076a9190810190612386565b6040808501919091526020808501929092529183526101408801839052815160e160020a63100697690281529151600160a060020a0387169263200d2ed29260048083019391928290030181865afa1580156107ca573d6000803e3d6000fd5b505050506040513d601f19601f820116820180604052508101906107ee919061240d565b8661016001906009811115610805576108056119d6565b90816009811115610818576108186119d6565b81525050600084600160a060020a031663f4a84e0f6040518163ffffffff1660e060020a028152600401602060405180830381865afa15801561085f573d6000803e3d6000fd5b505050506040513d601f19601f82011682018060405250810190610883919061236d565b90506000816001604060020a0381111561089f5761089f611d30565b6040519080825280602002602001820160405280156108fe57816020015b6108eb60405180608001604052806060815260200160608152602001600060ff168152602001606081525090565b8152602001906001900390816108bd5790505b50905060005b8151811015610a165760405160e760020a63011f2cbb02815260048101829052600160a060020a03881690638f965d8090602401600060405180830381865afa158015610955573d6000803e3d6000fd5b505050506040513d6000823e601f3d908101601f1916820160405261097d919081019061242a565b85858151811061098f5761098f6124c5565b60200260200101516000018686815181106109ac576109ac6124c5565b60200260200101516020018787815181106109c9576109c96124c5565b60200260200101516040018888815181106109e6576109e66124c5565b60209081029190910101516060019390935260ff9093169091529190525280610a0e816124f9565b915050610904565b508088610180018190525085600160a060020a0316638dada6d86040518163ffffffff1660e060020a028152600401600060405180830381865afa158015610a62573d6000803e3d6000fd5b505050506040513d6000823e601f3d908101601f19168201604052610a8a91908101906122fc565b6101a08901525095979650505050505050565b60606000826001604060020a03811115610ab957610ab9611d30565b604051908082528060200260200182016040528015610af257816020015b610adf61188d565b815260200190600190039081610ad75790505b5090506000808590506000600560009054906101000a9004600160a060020a0316600160a060020a031663a09037a96040518163ffffffff1660e060020a028152600401602060405180830381865afa158015610b53573d6000803e3d6000fd5b505050506040513d601f19601f82011682018060405250810190610b77919061236d565b90505b8583108015610b8857508082105b15610cf1576000610b988361022a565b9050886009811115610bac57610bac6119d6565b8161016001516009811115610bc357610bc36119d6565b03610ce05782858581518110610bdb57610bdb6124c5565b60200260200101516000018181525050806101000151858581518110610c0357610c036124c5565b602002602001015160200181815250506000858581518110610c2757610c276124c5565b6020026020010151604001906002811115610c4457610c446119d6565b90816002811115610c5757610c576119d6565b81525050806101a00151858581518110610c7357610c736124c5565b6020026020010151606001819052508060a00151858581518110610c9957610c996124c5565b602090810291909101015160800152610cb3836001612512565b858581518110610cc557610cc56124c5565b602090810291909101015160a00152610cdd846124f9565b93505b610ce9836124f9565b925050610b7a565b50919695505050505050565b600080600080600560009054906101000a9004600160a060020a0316600160a060020a031663a09037a96040518163ffffffff1660e060020a028152600401602060405180830381865afa158015610d59573d6000803e3d6000fd5b505050506040513d601f19601f82011682018060405250810190610d7d919061236d565b90505b80821015610de0576000610d938361022a565b9050856009811115610da757610da76119d6565b8161016001516009811115610dbe57610dbe6119d6565b03610dcf57610dcc846124f9565b93505b610dd8836124f9565b925050610d80565b50909392505050565b3360009081526002602052604081205460ff16610e245760405160e560020a62461bcd028152600401610e1b90612525565b60405180910390fd5b6000600684604051610e369190612561565b9081526040805160209281900383019020600160a060020a03868116600090815291909352208054600160a060020a031916929091169190911790555060015b92915050565b610e84611445565b6004805460405160e060020a6397f735d5028152600160a060020a03909116916397f735d591610eb6913391016118d4565b602060405180830381865afa158015610ed3573d6000803e3d6000fd5b505050506040513d601f19601f82011682018060405250810190610ef7919061257d565b15610f305760405160e560020a62461bcd028152602060048201526003602482015260ea60020a62189b99026044820152606401610e1b565b6000600160a060020a0316600688604051610f4b9190612561565b90815260408051602092819003830190203360009081529252902054600160a060020a031614610fa85760405160e560020a62461bcd028152602060048201526002602482015260f260020a611a59026044820152606401610e1b565b60055460405160e660020a6252b749028152600160a060020a03909116906314add24090610fe6908c908c908c908c908c908c908c9060040161259f565b600060405180830381600087803b15801561100057600080fd5b505af1158015611014573d6000803e3d6000fd5b505050506000600560009054906101000a9004600160a060020a0316600160a060020a03166394a792e16040518163ffffffff1660e060020a028152600401602060405180830381865afa158015611070573d6000803e3d6000fd5b505050506040513d601f19601f82011682018060405250810190611094919061229a565b90506000600560009054906101000a9004600160a060020a0316600160a060020a031663a09037a96040518163ffffffff1660e060020a028152600401602060405180830381865afa1580156110ee573d6000803e3d6000fd5b505050506040513d601f19601f82011682018060405250810190611112919061236d565b600160a060020a038084166000908152600260205260408120805460ff19166001908117909155600554939450909290911690634eb9c034906111559085612628565b6040518263ffffffff1660e060020a02815260040161117691815260200190565b602060405180830381865afa158015611193573d6000803e3d6000fd5b505050506040513d601f19601f820116820180604052508101906111b7919061229a565b60405160e160020a631fe5f2ed028152909150600160a060020a03821690633fcbe5da906111eb908890889060040161263b565b600060405180830381600087803b15801561120557600080fd5b505af1158015611219573d6000803e3d6000fd5b5050505060018261122a9190612628565b600160a060020a0384166000908152600160205260409081902091909155518390600690611259908d90612561565b90815260408051602092819003830181203360009081529084528290208054600160a060020a031916600160a060020a039590951694909417909355606080840182528084529183018290528201528b516112b3906114a1565b81526112be886114a1565b60208201526112cc33611536565b816040018190525060008d8c83600001518f602001518b600001518660200151876040015160405160200161130797969594939291906126eb565b60405160208183030381529060405290506000805160206128288339815191528560008360405161133a939291906127ca565b60405180910390a150505050506113516001600055565b505050505050505050565b600080600160a060020a03166006846040516113789190612561565b9081526040805160209281900383019020600160a060020a03868116600090815291909352205416036113ad57506000610e76565b506001610e76565b3360009081526002602052604090205460ff166113e75760405160e560020a62461bcd028152600401610e1b90612525565b600080516020612828833981519152338383604051611408939291906127ca565b60405180910390a15050565b61141c6117d3565b600160a060020a03821660009081526001602052604090205461143e8161022a565b9392505050565b60026000540361149a5760405160e560020a62461bcd02815260206004820152601f60248201527f5265656e7472616e637947756172643a207265656e7472616e742063616c6c006044820152606401610e1b565b6002600055565b606060006114ae8361154c565b60010190506000816001604060020a038111156114cd576114cd611d30565b6040519080825280601f01601f1916602001820160405280156114f7576020820181803683370190505b5090508181016020015b60001901608160020a6f181899199a1a9b1b9c1cb0b131b232b302600a86061a8153600a850494508461150157509392505050565b6060610e76600160a060020a038316601461162a565b600080604060020a72184f03e93ff9f4daa797ed6e38ed64bf6a1f0102831061159157604060020a72184f03e93ff9f4daa797ed6e38ed64bf6a1f0102830492506040015b6d04ee2d6d415b85acef810000000083106115bd576d04ee2d6d415b85acef8100000000830492506020015b662386f26fc1000083106115db57662386f26fc10000830492506010015b6305f5e10083106115f3576305f5e100830492506008015b612710831061160757612710830492506004015b60648310611619576064830492506002015b600a8310610e765760010192915050565b606060006116398360026127f9565b611644906002612512565b6001604060020a0381111561165b5761165b611d30565b6040519080825280601f01601f191660200182016040528015611685576020820181803683370190505b50905060fc60020a600302816000815181106116a3576116a36124c5565b6020010190600160f860020a031916908160001a90535060fb60020a600f02816001815181106116d5576116d56124c5565b6020010190600160f860020a031916908160001a90535060006116f98460026127f9565b611704906001612512565b90505b600181111561178157608160020a6f181899199a1a9b1b9c1cb0b131b232b30285600f166010811061173b5761173b6124c5565b1a60f860020a02828281518110611754576117546124c5565b6020010190600160f860020a031916908160001a90535060109094049361177a81612810565b9050611707565b50831561143e5760405160e560020a62461bcd02815260206004820181905260248201527f537472696e67733a20686578206c656e67746820696e73756666696369656e746044820152606401610e1b565b604080516101c081018252600080825260208201529081016117f3611852565b815260006020820152604001611807611852565b8152602001606081526020016060815260200160608152602001600081526020016000815260200161183761186c565b81526020016000815260200160608152602001606081525090565b604051806040016040528060008152602001606081525090565b60405180606001604052806060815260200160608152602001606081525090565b6040518060c001604052806000815260200160008152602001600060028111156118b9576118b96119d6565b81526020016060815260200160608152602001600081525090565b600160a060020a0391909116815260200190565b6000602082840312156118fa57600080fd5b5035919050565b600160a060020a03169052565b60005b83811015611929578181015183820152602001611911565b50506000910152565b6000815180845261194a81602086016020860161190e565b601f01601f19169290920160200192915050565b80518252600060208201516040602085015261197d6040850182611932565b949350505050565b600081516060845261199a6060850182611932565b9050602083015184820360208601526119b38282611932565b915050604083015184820360408601526119cd8282611932565b95945050505050565b60e060020a634e487b710260009081526021600452602490fd5b600a8110611a0057611a006119d6565b9052565b6000828251808552602080860195508081830284010181860160005b84811015611a9d57601f19868403018952815160808151818652611a4682870182611932565b9150508582015185820387870152611a5e8282611932565b915050604060ff8184015116818701525060608083015192508582038187015250611a898183611932565b9a86019a9450505090830190600101611a20565b5090979650505050505050565b60208152611abc602082018351611901565b60006020830151611ad06040840182611901565b5060408301516101c0806060850152611aed6101e085018361195e565b91506060850151611b016080860182611901565b506080850151601f19808685030160a0870152611b1e848361195e565b935060a08701519150808685030160c0870152611b3b8483611932565b935060c08701519150808685030160e0870152611b588483611932565b935060e08701519150610100818786030181880152611b778584611932565b9088015161012088810191909152880151610140808901919091528801518782038301610160808a01919091529195509250611bb38584611985565b945080880151925050610180611bcb818801846119f0565b808801519250506101a0818786030181880152611be88584611a04565b908801518782039092018488015293509050611c048382611932565b9695505050505050565b600a8110611c1b57600080fd5b50565b600080600060608486031215611c3357600080fd5b8335611c3e81611c0e565b95602085013595506040909401359392505050565b60208082528251828201819052600091906040908185019080840286018301878501865b83811015611d0557603f19898403018552815160c08151855288820151898601528782015160038110611cac57611cac6119d6565b85890152606082810151818701839052611cc883880182611932565b9250505060808083015186830382880152611ce38382611932565b60a0948501519790940196909652505094870194925090860190600101611c77565b509098975050505050505050565b600060208284031215611d2557600080fd5b813561143e81611c0e565b60e060020a634e487b710260009081526041600452602490fd5b604051608081016001604060020a0381118282101715611d6c57611d6c611d30565b60405290565b604051601f8201601f191681016001604060020a0381118282101715611d9a57611d9a611d30565b604052919050565b60006001604060020a03821115611dbb57611dbb611d30565b50601f01601f191660200190565b600082601f830112611dda57600080fd5b8135611ded611de882611da2565b611d72565b818152846020838601011115611e0257600080fd5b816020850160208301376000918101602001919091529392505050565b600160a060020a0381168114611c1b57600080fd5b60008060408385031215611e4757600080fd5b82356001604060020a03811115611e5d57600080fd5b611e6985828601611dc9565b9250506020830135611e7a81611e1f565b809150509250929050565b600060208284031215611e9757600080fd5b813561143e81611e1f565b600060408284031215611eb457600080fd5b604080519081016001604060020a038082118383101715611ed757611ed7611d30565b81604052829350843583526020850135915080821115611ef657600080fd5b50611f0385828601611dc9565b6020830152505092915050565b600060608284031215611f2257600080fd5b604051606081016001604060020a038082118383101715611f4557611f45611d30565b816040528293508435915080821115611f5d57600080fd5b611f6986838701611dc9565b83526020850135915080821115611f7f57600080fd5b611f8b86838701611dc9565b60208401526040850135915080821115611fa457600080fd5b50611fb185828601611dc9565b6040830152505092915050565b60ff81168114611c1b57600080fd5b600082601f830112611fde57600080fd5b813560206001604060020a0380831115611ffa57611ffa611d30565b818302612008838201611d72565b938452858101830193838101908886111561202257600080fd5b84880192505b858310156120f6578235848111156120405760008081fd5b88016080818b03601f19018113156120585760008081fd5b612060611d4a565b87830135878111156120725760008081fd5b6120808d8a83870101611dc9565b825250604080840135888111156120975760008081fd5b6120a58e8b83880101611dc9565b8a840152506060808501356120b981611fbe565b838301529284013592888411156120d257600091508182fd5b6120e08e8b86880101611dc9565b9083015250845250509184019190840190612028565b98975050505050505050565b60008060008060008060008060006101208a8c03121561212157600080fd5b89356001604060020a038082111561213857600080fd5b6121448d838e01611dc9565b9a5060208c013591508082111561215a57600080fd5b6121668d838e01611ea2565b995060408c013591508082111561217c57600080fd5b6121888d838e01611dc9565b985060608c013591508082111561219e57600080fd5b6121aa8d838e01611dc9565b975060808c01359150808211156121c057600080fd5b6121cc8d838e01611dc9565b965060a08c0135955060c08c01359150808211156121e957600080fd5b6121f58d838e01611f10565b945060e08c013591508082111561220b57600080fd5b6122178d838e01611fcd565b93506101008c013591508082111561222e57600080fd5b5061223b8c828d01611dc9565b9150509295985092959850929598565b6000806040838503121561225e57600080fd5b823561226981611c0e565b915060208301356001604060020a0381111561228457600080fd5b61229085828601611dc9565b9150509250929050565b6000602082840312156122ac57600080fd5b815161143e81611e1f565b600082601f8301126122c857600080fd5b81516122d6611de882611da2565b8181528460208386010111156122eb57600080fd5b61197d82602083016020870161190e565b60006020828403121561230e57600080fd5b81516001604060020a0381111561232457600080fd5b61197d848285016122b7565b6000806040838503121561234357600080fd5b825160208401519092506001604060020a0381111561236157600080fd5b612290858286016122b7565b60006020828403121561237f57600080fd5b5051919050565b60008060006060848603121561239b57600080fd5b83516001604060020a03808211156123b257600080fd5b6123be878388016122b7565b945060208601519150808211156123d457600080fd5b6123e0878388016122b7565b935060408601519150808211156123f657600080fd5b50612403868287016122b7565b9150509250925092565b60006020828403121561241f57600080fd5b815161143e81611c0e565b6000806000806080858703121561244057600080fd5b84516001604060020a038082111561245757600080fd5b612463888389016122b7565b9550602087015191508082111561247957600080fd5b612485888389016122b7565b94506040870151915061249782611fbe565b6060870151919350808211156124ac57600080fd5b506124b9878288016122b7565b91505092959194509250565b60e060020a634e487b710260009081526032600452602490fd5b60e060020a634e487b710260009081526011600452602490fd5b60006001820161250b5761250b6124df565b5060010190565b80820180821115610e7657610e766124df565b602080825260039082015260e860020a6221746302604082015260600190565b6000815161255781856020860161190e565b9290920192915050565b6000825161257381846020870161190e565b9190910192915050565b60006020828403121561258f57600080fd5b8151801515811461143e57600080fd5b60e0815260006125b260e083018a611932565b82810360208401526125c4818a61195e565b905082810360408401526125d88189611932565b905082810360608401526125ec8188611932565b905082810360808401526126008187611932565b90508460a084015282810360c084015261261a8185611985565b9a9950505050505050505050565b81810381811115610e7657610e766124df565b604080825283518282018190526000919060609081850190602080820287018401818a01875b848110156126d857605f198a840301865281516080815181865261268782870182611932565b915050858201518582038787015261269f8282611932565b91505060ff8a830151168a860152888201519150848103898601526126c48183611932565b978601979450505090830190600101612661565b50508781038289015261261a818a611932565b6000885160206126fe8285838e0161190e565b818401915060f260020a611f1f028083528a516127218160028601858f0161190e565b60029301928301819052895161273d8160048601858e0161190e565b60f860020a602b026004949091019384015288516127618160058601858d0161190e565b60059301928301819052875161277d8160078601858c0161190e565b600793019283015285516127978160098501848a0161190e565b6127ba6127b460098386010160f260020a611f1f02815260020190565b87612545565b9c9b505050505050505050505050565b600160a060020a03841681526127e360208201846119f0565b6060604082015260006119cd6060830184611932565b8082028115828204841417610e7657610e766124df565b60008161281f5761281f6124df565b50600019019056fee84cfdc339669fa65116ce7f2ca5c4d0818d0ba66cc7fa49d99a653a89882b1da2646970667358221220a58c78c09d852754fcc22f95171f9647182460e12dddd22f4f0d9dd2d806fe8d64736f6c63430008130033",
  "immutableReferences": {},
  "source": "// //SPDX-License-Identifier: UNLICENSED\r\npragma solidity 0.8.19;\r\n\r\nimport \"./TradeFactoryBase.sol\";\r\n\r\nstruct TradeIndex {\r\n    uint256 index;\r\n    uint256 weiPrice;\r\n    PriceType priceType;\r\n    string weaponType;\r\n    string itemMarketName;\r\n    uint256 nextIndex;\r\n}\r\n\r\nstruct ExtraTest {\r\n    string tradeUrlPartner;\r\n    string weiPriceStringed;\r\n    string sellerAddress;\r\n}\r\n\r\ncontract CSXTradeFactory is TradeFactoryBase {\r\n    constructor(\r\n        address _keepers,\r\n        address _users,\r\n        address _tradeFactoryBaseStorage\r\n    ) TradeFactoryBase(_keepers, _users, _tradeFactoryBaseStorage) {}\r\n\r\n    function createListingContract(\r\n        string memory _itemMarketName,\r\n        TradeUrl memory _tradeUrl,\r\n        string memory _assetId,\r\n        string memory _inspectLink,\r\n        string memory _itemImageUrl,\r\n        uint256 _weiPrice,\r\n        FloatInfo memory _float,\r\n        Sticker[] memory _stickers,\r\n        string memory _weaponType\r\n    ) external nonReentrant {\r\n        require(usersContract.isBanned(msg.sender) == false, \"bnd\");\r\n        require(\r\n            assetIdFromUserAddrssToTradeAddrss[_assetId][msg.sender] ==\r\n                address(0),\r\n            \"id\"\r\n        );\r\n\r\n        tradeFactoryBaseStorage.newTradeContract(\r\n            _itemMarketName,\r\n            _tradeUrl,\r\n            _assetId,\r\n            _inspectLink,\r\n            _itemImageUrl,\r\n            _weiPrice,\r\n            _float\r\n        );       \r\n\r\n        address newAddress = tradeFactoryBaseStorage.getLastTradeContractAddress();\r\n\r\n        uint256 totalContracts = tradeFactoryBaseStorage.totalContracts();\r\n\r\n        isTradeContract[newAddress] = true;\r\n\r\n        CSXTrade _contract = tradeFactoryBaseStorage.getTradeContractByIndex(totalContracts - 1);\r\n\r\n        _contract.initExtraInfo(\r\n            _stickers,\r\n            _weaponType\r\n        );        \r\n\r\n        contractAddressToIndex[newAddress] = totalContracts - 1;\r\n        assetIdFromUserAddrssToTradeAddrss[_assetId][msg.sender] = newAddress;\r\n\r\n        ExtraTest memory _extraTest;\r\n\r\n        _extraTest.tradeUrlPartner = Strings.toString(_tradeUrl.partner);\r\n        _extraTest.weiPriceStringed = Strings.toString(_weiPrice);\r\n        _extraTest.sellerAddress = Strings.toHexString(msg.sender);\r\n\r\n        string memory data = string(\r\n            abi.encodePacked(\r\n                _itemMarketName,\r\n                \"||\",\r\n                _assetId,\r\n                \"||\",\r\n                _extraTest.tradeUrlPartner,\r\n                \"+\",\r\n                _tradeUrl.token,\r\n                \"||\",\r\n                _float.value,\r\n                \"||\",\r\n                _extraTest.weiPriceStringed,\r\n                \"||\",\r\n                _extraTest.sellerAddress\r\n            )\r\n        );\r\n        emit TradeContractStatusChange(newAddress, TradeStatus.ForSale, data);\r\n    }\r\n\r\n    function getTradeDetailsByIndex(\r\n        uint256 index\r\n    ) public view returns (TradeInfo memory result) {\r\n        uint256 i = index;\r\n        //SMTrade _contract = tradeContracts[i];\r\n        CSXTrade _contract = tradeFactoryBaseStorage.getTradeContractByIndex(i);\r\n\r\n        result.contractAddress = address(_contract);\r\n        result.seller = _contract.seller();\r\n        result.buyer = _contract.buyer();\r\n        result.itemMarketName = _contract.itemMarketName();\r\n        result.inspectLink = _contract.inspectLink();\r\n\r\n        TradeUrl memory _sTradeUrl;\r\n        (_sTradeUrl.partner, _sTradeUrl.token) = _contract.sellerTradeUrl();\r\n        result.sellerTradeUrl = _sTradeUrl;\r\n\r\n        TradeUrl memory _bTradeUrl;\r\n        (_bTradeUrl.partner, _bTradeUrl.token) = _contract.buyerTradeUrl();\r\n        result.buyerTradeUrl = _bTradeUrl;\r\n\r\n        result.weiPrice = _contract.weiPrice();\r\n        result.itemImageUrl = _contract.itemImageUrl();\r\n        result.averageSellerDeliveryTime = usersContract.getAverageDeliveryTime(\r\n            result.seller\r\n        );\r\n        FloatInfo memory _float;\r\n        (_float.value, _float.min, _float.max) = _contract.float();\r\n        result.float = _float;\r\n        result.status = _contract.status();\r\n\r\n        uint256 lengthOfStickersArray = _contract.stickerLength();\r\n        Sticker[] memory _stickers = new Sticker[](lengthOfStickersArray);\r\n\r\n        for (uint256 y = 0; y < _stickers.length; y++) {\r\n            (\r\n                _stickers[y].name,\r\n                _stickers[y].material,\r\n                _stickers[y].slot,\r\n                _stickers[y].imageLink\r\n            ) = _contract.stickers(y);\r\n        }\r\n        result.stickers = _stickers;\r\n\r\n        result.weaponType = _contract.weaponType();\r\n\r\n        return result;\r\n    }\r\n\r\n    function getTradeDetailsByAddress(\r\n        address tradeAddrs\r\n    ) public view returns (TradeInfo memory result) {\r\n        uint256 i = contractAddressToIndex[tradeAddrs];\r\n        result = getTradeDetailsByIndex(i);\r\n    }\r\n\r\n    function getTradeIndexesByStatus(\r\n    TradeStatus status,\r\n    uint256 indexFrom,\r\n    uint256 maxResults\r\n    ) external view returns (TradeIndex[] memory) {\r\n        TradeIndex[] memory tradeIndexes = new TradeIndex[](maxResults);\r\n        uint256 resultIndex;\r\n        uint256 i = indexFrom;\r\n        uint256 totalContracts = tradeFactoryBaseStorage.totalContracts();\r\n        while (resultIndex < maxResults && i < totalContracts) {\r\n            TradeInfo memory _trade = getTradeDetailsByIndex(i);\r\n\r\n            if (_trade.status == status) {\r\n                tradeIndexes[resultIndex].index = i;\r\n                tradeIndexes[resultIndex].weiPrice = _trade.weiPrice;\r\n                tradeIndexes[resultIndex].priceType = PriceType.ETHER;\r\n                tradeIndexes[resultIndex].weaponType = _trade.weaponType;\r\n                tradeIndexes[resultIndex].itemMarketName = _trade.itemMarketName;\r\n                tradeIndexes[resultIndex].nextIndex = i + 1;\r\n                ++resultIndex;\r\n            }\r\n\r\n            ++i;\r\n        }\r\n        return tradeIndexes;\r\n    }\r\n\r\n    function getTradeCountByStatus(\r\n        TradeStatus status\r\n    ) external view returns (uint256) {\r\n        uint256 count;\r\n        uint256 i = 0;\r\n        uint256 totalContracts = tradeFactoryBaseStorage.totalContracts();\r\n        while (i < totalContracts) {\r\n            TradeInfo memory _trade = getTradeDetailsByIndex(i);\r\n            if (_trade.status == status) {\r\n                ++count;\r\n            }\r\n            ++i;\r\n        }\r\n        return count;\r\n    }\r\n}\r\n",
  "sourcePath": "C:\\Users\\Charl\\Documents\\Projects\\SteamMarket\\CSX\\csx-contracts\\contracts\\TradeFactory\\TradeFactory.sol",
  "compiler": {
    "name": "solc",
    "version": "0.8.19+commit.7dd6d404.Emscripten.clang"
  },
  "schemaVersion": "3.4.3",
  "updatedAt": "2023-04-05T10:31:20.863Z",
  "networkType": "ethereum",
  "devdoc": {
    "kind": "dev",
    "methods": {},
    "version": 1
  },
  "userdoc": {
    "kind": "user",
    "methods": {},
    "version": 1
  }
}