{
  "contractName": "CSXTradeFactory",
  "abi": [
    {
      "inputs": [
        {
          "internalType": "address",
          "name": "_keepers",
          "type": "address"
        },
        {
          "internalType": "address",
          "name": "_users",
          "type": "address"
        },
        {
          "internalType": "address",
          "name": "_tradeFactoryBaseStorage",
          "type": "address"
        },
        {
          "internalType": "uint256",
          "name": "_baseFee",
          "type": "uint256"
        },
        {
          "components": [
            {
              "internalType": "address",
              "name": "weth",
              "type": "address"
            },
            {
              "internalType": "address",
              "name": "usdc",
              "type": "address"
            },
            {
              "internalType": "address",
              "name": "usdt",
              "type": "address"
            }
          ],
          "internalType": "struct PaymentTokens",
          "name": "_paymentTokens",
          "type": "tuple"
        },
        {
          "internalType": "address",
          "name": "_referralRegistryContract",
          "type": "address"
        }
      ],
      "stateMutability": "nonpayable",
      "type": "constructor"
    },
    {
      "anonymous": false,
      "inputs": [
        {
          "indexed": false,
          "internalType": "address",
          "name": "contractAddress",
          "type": "address"
        },
        {
          "indexed": false,
          "internalType": "enum TradeStatus",
          "name": "",
          "type": "uint8"
        },
        {
          "indexed": false,
          "internalType": "string",
          "name": "data",
          "type": "string"
        },
        {
          "indexed": false,
          "internalType": "address",
          "name": "sellerAddress",
          "type": "address"
        },
        {
          "indexed": false,
          "internalType": "address",
          "name": "buyerAddress",
          "type": "address"
        }
      ],
      "name": "TradeContractStatusChange",
      "type": "event"
    },
    {
      "inputs": [
        {
          "internalType": "string",
          "name": "",
          "type": "string"
        },
        {
          "internalType": "address",
          "name": "",
          "type": "address"
        }
      ],
      "name": "assetIdFromUserAddrssToTradeAddrss",
      "outputs": [
        {
          "internalType": "address",
          "name": "",
          "type": "address"
        }
      ],
      "stateMutability": "view",
      "type": "function",
      "constant": true
    },
    {
      "inputs": [],
      "name": "baseFee",
      "outputs": [
        {
          "internalType": "uint256",
          "name": "",
          "type": "uint256"
        }
      ],
      "stateMutability": "view",
      "type": "function",
      "constant": true
    },
    {
      "inputs": [
        {
          "internalType": "uint256",
          "name": "_baseFee",
          "type": "uint256"
        }
      ],
      "name": "changeBaseFee",
      "outputs": [],
      "stateMutability": "nonpayable",
      "type": "function"
    },
    {
      "inputs": [
        {
          "internalType": "string",
          "name": "_assetId",
          "type": "string"
        },
        {
          "internalType": "address",
          "name": "sellerAddrss",
          "type": "address"
        }
      ],
      "name": "hasAlreadyListedItem",
      "outputs": [
        {
          "internalType": "bool",
          "name": "",
          "type": "bool"
        }
      ],
      "stateMutability": "view",
      "type": "function",
      "constant": true
    },
    {
      "inputs": [
        {
          "internalType": "address",
          "name": "contractAddress",
          "type": "address"
        }
      ],
      "name": "isThisTradeContract",
      "outputs": [
        {
          "internalType": "bool",
          "name": "",
          "type": "bool"
        }
      ],
      "stateMutability": "view",
      "type": "function",
      "constant": true
    },
    {
      "inputs": [],
      "name": "keepersContract",
      "outputs": [
        {
          "internalType": "contract IKeepers",
          "name": "",
          "type": "address"
        }
      ],
      "stateMutability": "view",
      "type": "function",
      "constant": true
    },
    {
      "inputs": [
        {
          "internalType": "enum TradeStatus",
          "name": "status",
          "type": "uint8"
        },
        {
          "internalType": "string",
          "name": "data",
          "type": "string"
        },
        {
          "internalType": "address",
          "name": "sellerAddress",
          "type": "address"
        },
        {
          "internalType": "address",
          "name": "buyerAddress",
          "type": "address"
        }
      ],
      "name": "onStatusChange",
      "outputs": [],
      "stateMutability": "nonpayable",
      "type": "function"
    },
    {
      "inputs": [],
      "name": "referralRegistryContract",
      "outputs": [
        {
          "internalType": "contract IReferralRegistry",
          "name": "",
          "type": "address"
        }
      ],
      "stateMutability": "view",
      "type": "function",
      "constant": true
    },
    {
      "inputs": [
        {
          "internalType": "string",
          "name": "_assetId",
          "type": "string"
        },
        {
          "internalType": "address",
          "name": "sellerAddrss",
          "type": "address"
        }
      ],
      "name": "removeAssetIdUsed",
      "outputs": [
        {
          "internalType": "bool",
          "name": "",
          "type": "bool"
        }
      ],
      "stateMutability": "nonpayable",
      "type": "function"
    },
    {
      "inputs": [],
      "name": "usersContract",
      "outputs": [
        {
          "internalType": "contract IUsers",
          "name": "",
          "type": "address"
        }
      ],
      "stateMutability": "view",
      "type": "function",
      "constant": true
    },
    {
      "inputs": [
        {
          "components": [
            {
              "internalType": "string",
              "name": "itemMarketName",
              "type": "string"
            },
            {
              "components": [
                {
                  "internalType": "uint256",
                  "name": "partner",
                  "type": "uint256"
                },
                {
                  "internalType": "string",
                  "name": "token",
                  "type": "string"
                }
              ],
              "internalType": "struct TradeUrl",
              "name": "tradeUrl",
              "type": "tuple"
            },
            {
              "internalType": "string",
              "name": "assetId",
              "type": "string"
            },
            {
              "internalType": "string",
              "name": "inspectLink",
              "type": "string"
            },
            {
              "internalType": "string",
              "name": "itemImageUrl",
              "type": "string"
            },
            {
              "internalType": "uint256",
              "name": "weiPrice",
              "type": "uint256"
            },
            {
              "components": [
                {
                  "internalType": "string",
                  "name": "floatValues",
                  "type": "string"
                },
                {
                  "internalType": "uint256",
                  "name": "paintSeed",
                  "type": "uint256"
                },
                {
                  "internalType": "uint256",
                  "name": "paintIndex",
                  "type": "uint256"
                }
              ],
              "internalType": "struct SkinInfo",
              "name": "skinInfo",
              "type": "tuple"
            },
            {
              "components": [
                {
                  "internalType": "string",
                  "name": "name",
                  "type": "string"
                },
                {
                  "internalType": "string",
                  "name": "material",
                  "type": "string"
                },
                {
                  "internalType": "uint8",
                  "name": "slot",
                  "type": "uint8"
                },
                {
                  "internalType": "string",
                  "name": "imageLink",
                  "type": "string"
                }
              ],
              "internalType": "struct Sticker[]",
              "name": "stickers",
              "type": "tuple[]"
            },
            {
              "internalType": "string",
              "name": "weaponType",
              "type": "string"
            },
            {
              "internalType": "enum PriceType",
              "name": "priceType",
              "type": "uint8"
            }
          ],
          "internalType": "struct ListingParams",
          "name": "params",
          "type": "tuple"
        }
      ],
      "name": "createListingContract",
      "outputs": [],
      "stateMutability": "nonpayable",
      "type": "function"
    },
    {
      "inputs": [
        {
          "internalType": "uint256",
          "name": "index",
          "type": "uint256"
        }
      ],
      "name": "getTradeDetailsByIndex",
      "outputs": [
        {
          "components": [
            {
              "internalType": "address",
              "name": "contractAddress",
              "type": "address"
            },
            {
              "internalType": "address",
              "name": "seller",
              "type": "address"
            },
            {
              "components": [
                {
                  "internalType": "uint256",
                  "name": "partner",
                  "type": "uint256"
                },
                {
                  "internalType": "string",
                  "name": "token",
                  "type": "string"
                }
              ],
              "internalType": "struct TradeUrl",
              "name": "sellerTradeUrl",
              "type": "tuple"
            },
            {
              "internalType": "address",
              "name": "buyer",
              "type": "address"
            },
            {
              "components": [
                {
                  "internalType": "uint256",
                  "name": "partner",
                  "type": "uint256"
                },
                {
                  "internalType": "string",
                  "name": "token",
                  "type": "string"
                }
              ],
              "internalType": "struct TradeUrl",
              "name": "buyerTradeUrl",
              "type": "tuple"
            },
            {
              "internalType": "string",
              "name": "itemMarketName",
              "type": "string"
            },
            {
              "internalType": "string",
              "name": "inspectLink",
              "type": "string"
            },
            {
              "internalType": "string",
              "name": "itemImageUrl",
              "type": "string"
            },
            {
              "internalType": "uint256",
              "name": "weiPrice",
              "type": "uint256"
            },
            {
              "internalType": "uint256",
              "name": "averageSellerDeliveryTime",
              "type": "uint256"
            },
            {
              "components": [
                {
                  "internalType": "string",
                  "name": "floatValues",
                  "type": "string"
                },
                {
                  "internalType": "uint256",
                  "name": "paintSeed",
                  "type": "uint256"
                },
                {
                  "internalType": "uint256",
                  "name": "paintIndex",
                  "type": "uint256"
                }
              ],
              "internalType": "struct SkinInfo",
              "name": "skinInfo",
              "type": "tuple"
            },
            {
              "internalType": "enum TradeStatus",
              "name": "status",
              "type": "uint8"
            },
            {
              "components": [
                {
                  "internalType": "string",
                  "name": "name",
                  "type": "string"
                },
                {
                  "internalType": "string",
                  "name": "material",
                  "type": "string"
                },
                {
                  "internalType": "uint8",
                  "name": "slot",
                  "type": "uint8"
                },
                {
                  "internalType": "string",
                  "name": "imageLink",
                  "type": "string"
                }
              ],
              "internalType": "struct Sticker[]",
              "name": "stickers",
              "type": "tuple[]"
            },
            {
              "internalType": "string",
              "name": "weaponType",
              "type": "string"
            },
            {
              "internalType": "enum PriceType",
              "name": "priceType",
              "type": "uint8"
            }
          ],
          "internalType": "struct TradeInfo",
          "name": "result",
          "type": "tuple"
        }
      ],
      "stateMutability": "view",
      "type": "function",
      "constant": true
    },
    {
      "inputs": [
        {
          "internalType": "address",
          "name": "tradeAddrs",
          "type": "address"
        }
      ],
      "name": "getTradeDetailsByAddress",
      "outputs": [
        {
          "components": [
            {
              "internalType": "address",
              "name": "contractAddress",
              "type": "address"
            },
            {
              "internalType": "address",
              "name": "seller",
              "type": "address"
            },
            {
              "components": [
                {
                  "internalType": "uint256",
                  "name": "partner",
                  "type": "uint256"
                },
                {
                  "internalType": "string",
                  "name": "token",
                  "type": "string"
                }
              ],
              "internalType": "struct TradeUrl",
              "name": "sellerTradeUrl",
              "type": "tuple"
            },
            {
              "internalType": "address",
              "name": "buyer",
              "type": "address"
            },
            {
              "components": [
                {
                  "internalType": "uint256",
                  "name": "partner",
                  "type": "uint256"
                },
                {
                  "internalType": "string",
                  "name": "token",
                  "type": "string"
                }
              ],
              "internalType": "struct TradeUrl",
              "name": "buyerTradeUrl",
              "type": "tuple"
            },
            {
              "internalType": "string",
              "name": "itemMarketName",
              "type": "string"
            },
            {
              "internalType": "string",
              "name": "inspectLink",
              "type": "string"
            },
            {
              "internalType": "string",
              "name": "itemImageUrl",
              "type": "string"
            },
            {
              "internalType": "uint256",
              "name": "weiPrice",
              "type": "uint256"
            },
            {
              "internalType": "uint256",
              "name": "averageSellerDeliveryTime",
              "type": "uint256"
            },
            {
              "components": [
                {
                  "internalType": "string",
                  "name": "floatValues",
                  "type": "string"
                },
                {
                  "internalType": "uint256",
                  "name": "paintSeed",
                  "type": "uint256"
                },
                {
                  "internalType": "uint256",
                  "name": "paintIndex",
                  "type": "uint256"
                }
              ],
              "internalType": "struct SkinInfo",
              "name": "skinInfo",
              "type": "tuple"
            },
            {
              "internalType": "enum TradeStatus",
              "name": "status",
              "type": "uint8"
            },
            {
              "components": [
                {
                  "internalType": "string",
                  "name": "name",
                  "type": "string"
                },
                {
                  "internalType": "string",
                  "name": "material",
                  "type": "string"
                },
                {
                  "internalType": "uint8",
                  "name": "slot",
                  "type": "uint8"
                },
                {
                  "internalType": "string",
                  "name": "imageLink",
                  "type": "string"
                }
              ],
              "internalType": "struct Sticker[]",
              "name": "stickers",
              "type": "tuple[]"
            },
            {
              "internalType": "string",
              "name": "weaponType",
              "type": "string"
            },
            {
              "internalType": "enum PriceType",
              "name": "priceType",
              "type": "uint8"
            }
          ],
          "internalType": "struct TradeInfo",
          "name": "result",
          "type": "tuple"
        }
      ],
      "stateMutability": "view",
      "type": "function",
      "constant": true
    },
    {
      "inputs": [
        {
          "internalType": "enum TradeStatus",
          "name": "status",
          "type": "uint8"
        },
        {
          "internalType": "uint256",
          "name": "indexFrom",
          "type": "uint256"
        },
        {
          "internalType": "uint256",
          "name": "maxResults",
          "type": "uint256"
        }
      ],
      "name": "getTradeIndexesByStatus",
      "outputs": [
        {
          "components": [
            {
              "internalType": "uint256",
              "name": "index",
              "type": "uint256"
            },
            {
              "internalType": "uint256",
              "name": "weiPrice",
              "type": "uint256"
            },
            {
              "internalType": "enum PriceType",
              "name": "priceType",
              "type": "uint8"
            },
            {
              "internalType": "string",
              "name": "weaponType",
              "type": "string"
            },
            {
              "internalType": "string",
              "name": "itemMarketName",
              "type": "string"
            },
            {
              "internalType": "uint256",
              "name": "nextIndex",
              "type": "uint256"
            }
          ],
          "internalType": "struct TradeIndex[]",
          "name": "",
          "type": "tuple[]"
        }
      ],
      "stateMutability": "view",
      "type": "function",
      "constant": true
    },
    {
      "inputs": [
        {
          "internalType": "enum TradeStatus",
          "name": "status",
          "type": "uint8"
        }
      ],
      "name": "getTradeCountByStatus",
      "outputs": [
        {
          "internalType": "uint256",
          "name": "",
          "type": "uint256"
        }
      ],
      "stateMutability": "view",
      "type": "function",
      "constant": true
    }
  ],
  "bytecode": "0x60806040523480156200001157600080fd5b5060405162002bf738038062002bf78339810160408190526200003491620000ea565b6001600081905560048054600160a060020a0319908116600160a060020a03998a161790915560058054821697891697909717909655600680548716958816959095179094559190925581516008805485169186169190911790556020820151600980548516918616919091179055604090910151600a80548416918516919091179055600b80549092169216919091179055620001ee565b8051600160a060020a0381168114620000e557600080fd5b919050565b6000806000806000808688036101008112156200010657600080fd5b6200011188620000cd565b96506200012160208901620000cd565b95506200013160408901620000cd565b9450606088015193506060607f19820112156200014d57600080fd5b506040516060810181811067ffffffffffffffff8211171562000199577f4e487b7100000000000000000000000000000000000000000000000000000000600052604160045260246000fd5b604052620001aa60808901620000cd565b8152620001ba60a08901620000cd565b6020820152620001cd60c08901620000cd565b60408201529150620001e260e08801620000cd565b90509295509295509295565b6129f980620001fe6000396000f3fe608060405234801561001057600080fd5b50600436106100c85760e060020a6000350463142ebf3c81146100cd578063182dcc99146100f657806333034d7114610109578063346c743d146101295780635a9ad1e0146101495780635cdab7981461016a5780636311c2f21461017f5780636e4235f6146101a25780636ef25c3a146101ce5780637c31f38b146101d7578063adea4866146101ea578063c2bd884b146101fd578063e861029414610210578063eff6be2f14610223578063f983567d14610236575b600080fd5b6005546100e090600160a060020a031681565b6040516100ed91906119fc565b60405180910390f35b600b546100e090600160a060020a031681565b61011c610117366004611a10565b61027a565b6040516100ed9190611bc6565b61013c610137366004611d50565b610b82565b6040516100ed9190611d85565b61015c610157366004611e3d565b610de6565b6040519081526020016100ed565b61017d610178366004611f81565b610ed2565b005b61019261018d366004611ff5565b610f40565b60405190151581526020016100ed565b6101926101b0366004612046565b600160a060020a031660009081526003602052604090205460ff1690565b61015c60015481565b6101926101e5366004611ff5565b610fca565b61011c6101f8366004612046565b611023565b6004546100e090600160a060020a031681565b61017d61021e3660046122aa565b611054565b61017d610231366004611a10565b6116a5565b6100e0610244366004611ff5565b815160208184018101805160078252928201948201949094209190935290915260009081526040902054600160a060020a031681565b6102826118f5565b60065460405160e260020a6313ae700d028152600481018490528391600091600160a060020a0390911690634eb9c03490602401602060405180830381865afa1580156102d3573d6000803e3d6000fd5b505050506040513d601f19601f820116820180604052508101906102f79190612435565b600160a060020a0381168085526040805160e060020a6308551a53028152905192935090916308551a53916004808201926020929091908290030181865afa158015610347573d6000803e3d6000fd5b505050506040513d601f19601f8201168201806040525081019061036b9190612435565b8360200190600160a060020a03169081600160a060020a03168152505080600160a060020a0316637150d8ae6040518163ffffffff1660e060020a028152600401602060405180830381865afa1580156103c9573d6000803e3d6000fd5b505050506040513d601f19601f820116820180604052508101906103ed9190612435565b8360600190600160a060020a03169081600160a060020a03168152505080600160a060020a0316631e86221f6040518163ffffffff1660e060020a028152600401600060405180830381865afa15801561044b573d6000803e3d6000fd5b505050506040513d6000823e601f3d908101601f191682016040526104739190810190612497565b8360a0018190525080600160a060020a03166370e066f66040518163ffffffff1660e060020a028152600401600060405180830381865afa1580156104bc573d6000803e3d6000fd5b505050506040513d6000823e601f3d908101601f191682016040526104e49190810190612497565b60c08401526104f161197a565b81600160a060020a03166302197c556040518163ffffffff1660e060020a028152600401600060405180830381865afa158015610532573d6000803e3d6000fd5b505050506040513d6000823e601f3d908101601f1916820160405261055a91908101906124cb565b602083015281526040840181905261057061197a565b82600160a060020a031663fddd56c56040518163ffffffff1660e060020a028152600401600060405180830381865afa1580156105b1573d6000803e3d6000fd5b505050506040513d6000823e601f3d908101601f191682016040526105d991908101906124cb565b602080840191909152908252608086018290526040805160e060020a63e29b9e970281529051600160a060020a0386169263e29b9e9792600480820193918290030181865afa158015610630573d6000803e3d6000fd5b505050506040513d601f19601f820116820180604052508101906106549190612512565b8561010001818152505082600160a060020a031663e67d55236040518163ffffffff1660e060020a028152600401600060405180830381865afa15801561069f573d6000803e3d6000fd5b505050506040513d6000823e601f3d908101601f191682016040526106c79190810190612497565b60e0860152600554602086015160405160e460020a630791bd0d028152600160a060020a039092169163791bd0d091610702916004016119fc565b602060405180830381865afa15801561071f573d6000803e3d6000fd5b505050506040513d601f19601f820116820180604052508101906107439190612512565b610120860152610751611994565b83600160a060020a0316636fed1d7e6040518163ffffffff1660e060020a028152600401600060405180830381865afa158015610792573d6000803e3d6000fd5b505050506040513d6000823e601f3d908101601f191682016040526107ba919081019061252b565b6040808501919091526020808501929092529183526101408801839052815160e160020a63100697690281529151600160a060020a0387169263200d2ed29260048083019391928290030181865afa15801561081a573d6000803e3d6000fd5b505050506040513d601f19601f8201168201806040525081019061083e919061257a565b866101600190600981111561085557610855611ae2565b9081600981111561086857610868611ae2565b81525050600084600160a060020a031663f4a84e0f6040518163ffffffff1660e060020a028152600401602060405180830381865afa1580156108af573d6000803e3d6000fd5b505050506040513d601f19601f820116820180604052508101906108d39190612512565b90506000816001604060020a038111156108ef576108ef611e5a565b60405190808252806020026020018201604052801561094e57816020015b61093b60405180608001604052806060815260200160608152602001600060ff168152602001606081525090565b81526020019060019003908161090d5790505b50905060005b8151811015610a665760405160e760020a63011f2cbb02815260048101829052600160a060020a03881690638f965d8090602401600060405180830381865afa1580156109a5573d6000803e3d6000fd5b505050506040513d6000823e601f3d908101601f191682016040526109cd9190810190612597565b8585815181106109df576109df612632565b60200260200101516000018686815181106109fc576109fc612632565b6020026020010151602001878781518110610a1957610a19612632565b6020026020010151604001888881518110610a3657610a36612632565b60209081029190910101516060019390935260ff9093169091529190525280610a5e81612666565b915050610954565b508088610180018190525085600160a060020a0316638dada6d86040518163ffffffff1660e060020a028152600401600060405180830381865afa158015610ab2573d6000803e3d6000fd5b505050506040513d6000823e601f3d908101601f19168201604052610ada9190810190612497565b886101a0018190525085600160a060020a0316631c925df06040518163ffffffff1660e060020a028152600401602060405180830381865afa158015610b24573d6000803e3d6000fd5b505050506040513d601f19601f82011682018060405250810190610b48919061267f565b886101c001906002811115610b5f57610b5f611ae2565b90816002811115610b7257610b72611ae2565b8152505050505050505050919050565b60606000826001604060020a03811115610b9e57610b9e611e5a565b604051908082528060200260200182016040528015610bd757816020015b610bc46119b5565b815260200190600190039081610bbc5790505b5090506000808590506000600660009054906101000a9004600160a060020a0316600160a060020a031663a09037a96040518163ffffffff1660e060020a028152600401602060405180830381865afa158015610c38573d6000803e3d6000fd5b505050506040513d601f19601f82011682018060405250810190610c5c9190612512565b90505b8583108015610c6d57508082105b15610dda576000610c7d8361027a565b9050886009811115610c9157610c91611ae2565b8161016001516009811115610ca857610ca8611ae2565b03610dc95782858581518110610cc057610cc0612632565b60200260200101516000018181525050806101000151858581518110610ce857610ce8612632565b60200260200101516020018181525050806101c00151858581518110610d1057610d10612632565b6020026020010151604001906002811115610d2d57610d2d611ae2565b90816002811115610d4057610d40611ae2565b81525050806101a00151858581518110610d5c57610d5c612632565b6020026020010151606001819052508060a00151858581518110610d8257610d82612632565b602090810291909101015160800152610d9c83600161269c565b858581518110610dae57610dae612632565b602090810291909101015160a00152610dc684612666565b93505b610dd283612666565b925050610c5f565b50919695505050505050565b600080600080600660009054906101000a9004600160a060020a0316600160a060020a031663a09037a96040518163ffffffff1660e060020a028152600401602060405180830381865afa158015610e42573d6000803e3d6000fd5b505050506040513d601f19601f82011682018060405250810190610e669190612512565b90505b80821015610ec9576000610e7c8361027a565b9050856009811115610e9057610e90611ae2565b8161016001516009811115610ea757610ea7611ae2565b03610eb857610eb584612666565b93505b610ec183612666565b925050610e69565b50909392505050565b3360009081526003602052604090205460ff16610f0d5760405160e560020a62461bcd028152600401610f04906126af565b60405180910390fd5b6000805160206129a48339815191523385858585604051610f329594939291906126cf565b60405180910390a150505050565b3360009081526003602052604081205460ff16610f725760405160e560020a62461bcd028152600401610f04906126af565b6000600784604051610f84919061271a565b9081526040805160209281900383019020600160a060020a03868116600090815291909352208054600160a060020a031916929091169190911790555060015b92915050565b600080600160a060020a0316600784604051610fe6919061271a565b9081526040805160209281900383019020600160a060020a038681166000908152919093522054160361101b57506000610fc4565b506001610fc4565b61102b6118f5565b600160a060020a03821660009081526002602052604090205461104d8161027a565b9392505050565b61105c611726565b60055460405160e060020a6397f735d5028152600160a060020a03909116906397f735d59061108f9033906004016119fc565b602060405180830381865afa1580156110ac573d6000803e3d6000fd5b505050506040513d601f19601f820116820180604052508101906110d09190612736565b156111095760405160e560020a62461bcd028152602060048201526003602482015260ea60020a62189b99026044820152606401610f04565b6000600160a060020a031660078260400151604051611128919061271a565b90815260408051602092819003830190203360009081529252902054600160a060020a0316146111855760405160e560020a62461bcd028152602060048201526002602482015260f260020a611a59026044820152606401610f04565b600654815160208301516040808501516060860151608087015160a088015160c0890151945160e160020a633beb05cd028152600160a060020a03909816976377d60b9a976111de979096909594939291600401612758565b600060405180830381600087803b1580156111f857600080fd5b505af115801561120c573d6000803e3d6000fd5b505050506000600660009054906101000a9004600160a060020a0316600160a060020a03166394a792e16040518163ffffffff1660e060020a028152600401602060405180830381865afa158015611268573d6000803e3d6000fd5b505050506040513d601f19601f8201168201806040525081019061128c9190612435565b90506000600660009054906101000a9004600160a060020a0316600160a060020a031663a09037a96040518163ffffffff1660e060020a028152600401602060405180830381865afa1580156112e6573d6000803e3d6000fd5b505050506040513d601f19601f8201168201806040525081019061130a9190612512565b600160a060020a038084166000908152600360205260408120805460ff19166001908117909155600654939450909290911690634eb9c0349061134d90856127e1565b6040518263ffffffff1660e060020a02815260040161136e91815260200190565b602060405180830381865afa15801561138b573d6000803e3d6000fd5b505050506040513d601f19601f820116820180604052508101906113af9190612435565b9050600084610120015160028111156113ca576113ca611ae2565b036114595760e0840151610100850151600854610120870151600b5460405160e060020a63d1d67a57028152600160a060020a038781169663d1d67a57966114229691959094918316939092909116906004016127f4565b600060405180830381600087803b15801561143c57600080fd5b505af1158015611450573d6000803e3d6000fd5b50505050611575565b6001846101200151600281111561147257611472611ae2565b036114ca5760e0840151610100850151600954610120870151600b5460405160e060020a63d1d67a57028152600160a060020a038781169663d1d67a57966114229691959094918316939092909116906004016127f4565b600284610120015160028111156114e3576114e3611ae2565b0361153b5760e0840151610100850151600a54610120870151600b5460405160e060020a63d1d67a57028152600160a060020a038781169663d1d67a57966114229691959094918316939092909116906004016127f4565b60405160e560020a62461bcd028152602060048201526009602482015260b860020a68707269636554797065026044820152606401610f04565b6115806001836127e1565b600160a060020a038416600090815260026020526040908190209190915584810151905184916007916115b3919061271a565b90815260408051602092819003830181203360009081529084528290208054600160a060020a031916600160a060020a039590951694909417909355828101905260608083529082015260208501515161160c90611782565b815260a085015161161c90611782565b6020808301829052865160408089015185518a85015185015160c08c015151935160009761165397949593949293929091016128e3565b60405160208183030381529060405290506000805160206129a48339815191528560008333600060405161168b9594939291906126cf565b60405180910390a150505050506116a26001600055565b50565b6004805460405160e260020a6326a8d83b028152600160a060020a0390911691639aa360ec916116d7913391016119fc565b602060405180830381865afa1580156116f4573d6000803e3d6000fd5b505050506040513d601f19601f820116820180604052508101906117189190612736565b61172157600080fd5b600155565b60026000540361177b5760405160e560020a62461bcd02815260206004820152601f60248201527f5265656e7472616e637947756172643a207265656e7472616e742063616c6c006044820152606401610f04565b6002600055565b6060600061178f83611817565b60010190506000816001604060020a038111156117ae576117ae611e5a565b6040519080825280601f01601f1916602001820160405280156117d8576020820181803683370190505b5090508181016020015b60001901608160020a6f181899199a1a9b1b9c1cb0b131b232b302600a86061a8153600a85049450846117e257509392505050565b600080604060020a72184f03e93ff9f4daa797ed6e38ed64bf6a1f0102831061185c57604060020a72184f03e93ff9f4daa797ed6e38ed64bf6a1f0102830492506040015b6d04ee2d6d415b85acef81000000008310611888576d04ee2d6d415b85acef8100000000830492506020015b662386f26fc1000083106118a657662386f26fc10000830492506010015b6305f5e10083106118be576305f5e100830492506008015b61271083106118d257612710830492506004015b606483106118e4576064830492506002015b600a8310610fc45760010192915050565b604080516101e0810182526000808252602082015290810161191561197a565b81526000602082015260400161192961197a565b81526020016060815260200160608152602001606081526020016000815260200160008152602001611959611994565b81526020016000815260606020820181905260408201819052016000905290565b604051806040016040528060008152602001606081525090565b60405180606001604052806060815260200160008152602001600081525090565b6040518060c001604052806000815260200160008152602001600060028111156119e1576119e1611ae2565b81526020016060815260200160608152602001600081525090565b600160a060020a0391909116815260200190565b600060208284031215611a2257600080fd5b5035919050565b600160a060020a03169052565b60005b83811015611a51578181015183820152602001611a39565b50506000910152565b60008151808452611a72816020860160208601611a36565b601f01601f19169290920160200192915050565b805182526000602082015160406020850152611aa56040850182611a5a565b949350505050565b6000815160608452611ac26060850182611a5a565b905060208301516020850152604083015160408501528091505092915050565b60e060020a634e487b710260009081526021600452602490fd5b600a8110611b0c57611b0c611ae2565b9052565b6000828251808552602080860195508081830284010181860160005b84811015611ba957601f19868403018952815160808151818652611b5282870182611a5a565b9150508582015185820387870152611b6a8282611a5a565b915050604060ff8184015116818701525060608083015192508582038187015250611b958183611a5a565b9a86019a9450505090830190600101611b2c565b5090979650505050505050565b60038110611b0c57611b0c611ae2565b60208152611bd8602082018351611a29565b60006020830151611bec6040840182611a29565b5060408301516101e0806060850152611c09610200850183611a86565b91506060850151611c1d6080860182611a29565b506080850151601f19808685030160a0870152611c3a8483611a86565b935060a08701519150808685030160c0870152611c578483611a5a565b935060c08701519150808685030160e0870152611c748483611a5a565b935060e08701519150610100818786030181880152611c938584611a5a565b9088015161012088810191909152880151610140808901919091528801518782038301610160808a01919091529195509250611ccf8584611aad565b945080880151925050610180611ce781880184611afc565b808801519250506101a0818786030181880152611d048584611b10565b9450808801519250506101c0818786030181880152611d238584611a5a565b94508088015192505050611d3982860182611bb6565b5090949350505050565b600a81106116a257600080fd5b600080600060608486031215611d6557600080fd5b8335611d7081611d43565b95602085013595506040909401359392505050565b60208082528251828201819052600091906040908185019080840286018301878501865b83811015611e2f57603f19898403018552815160c081518552888201518986015287820151611dda89870182611bb6565b506060808301518282880152611df283880182611a5a565b9250505060808083015186830382880152611e0d8382611a5a565b60a0948501519790940196909652505094870194925090860190600101611da9565b509098975050505050505050565b600060208284031215611e4f57600080fd5b813561104d81611d43565b60e060020a634e487b710260009081526041600452602490fd5b604051608081016001604060020a0381118282101715611e9657611e96611e5a565b60405290565b60405161014081016001604060020a0381118282101715611e9657611e96611e5a565b604051601f8201601f191681016001604060020a0381118282101715611ee757611ee7611e5a565b604052919050565b60006001604060020a03821115611f0857611f08611e5a565b50601f01601f191660200190565b600082601f830112611f2757600080fd5b8135611f3a611f3582611eef565b611ebf565b818152846020838601011115611f4f57600080fd5b816020850160208301376000918101602001919091529392505050565b600160a060020a03811681146116a257600080fd5b60008060008060808587031215611f9757600080fd5b8435611fa281611d43565b935060208501356001604060020a03811115611fbd57600080fd5b611fc987828801611f16565b9350506040850135611fda81611f6c565b91506060850135611fea81611f6c565b939692955090935050565b6000806040838503121561200857600080fd5b82356001604060020a0381111561201e57600080fd5b61202a85828601611f16565b925050602083013561203b81611f6c565b809150509250929050565b60006020828403121561205857600080fd5b813561104d81611f6c565b60006040828403121561207557600080fd5b604080519081016001604060020a03808211838310171561209857612098611e5a565b816040528293508435835260208501359150808211156120b757600080fd5b506120c485828601611f16565b6020830152505092915050565b6000606082840312156120e357600080fd5b604051606081016001604060020a03808211838310171561210657612106611e5a565b81604052829350843591508082111561211e57600080fd5b5061212b85828601611f16565b82525060208301356020820152604083013560408201525092915050565b60ff811681146116a257600080fd5b600082601f83011261216957600080fd5b813560206001604060020a038083111561218557612185611e5a565b818302612193838201611ebf565b93845285810183019383810190888611156121ad57600080fd5b84880192505b85831015612281578235848111156121cb5760008081fd5b88016080818b03601f19018113156121e35760008081fd5b6121eb611e74565b87830135878111156121fd5760008081fd5b61220b8d8a83870101611f16565b825250604080840135888111156122225760008081fd5b6122308e8b83880101611f16565b8a8401525060608085013561224481612149565b8383015292840135928884111561225d57600091508182fd5b61226b8e8b86880101611f16565b90830152508452505091840191908401906121b3565b98975050505050505050565b600381106116a257600080fd5b80356122a58161228d565b919050565b6000602082840312156122bc57600080fd5b81356001604060020a03808211156122d357600080fd5b9083019061014082860312156122e857600080fd5b6122f0611e9c565b8235828111156122ff57600080fd5b61230b87828601611f16565b82525060208301358281111561232057600080fd5b61232c87828601612063565b60208301525060408301358281111561234457600080fd5b61235087828601611f16565b60408301525060608301358281111561236857600080fd5b61237487828601611f16565b60608301525060808301358281111561238c57600080fd5b61239887828601611f16565b60808301525060a083013560a082015260c0830135828111156123ba57600080fd5b6123c6878286016120d1565b60c08301525060e0830135828111156123de57600080fd5b6123ea87828601612158565b60e083015250610100808401358381111561240457600080fd5b61241088828701611f16565b828401525050610120915061242682840161229a565b91810191909152949350505050565b60006020828403121561244757600080fd5b815161104d81611f6c565b600082601f83011261246357600080fd5b8151612471611f3582611eef565b81815284602083860101111561248657600080fd5b611aa5826020830160208701611a36565b6000602082840312156124a957600080fd5b81516001604060020a038111156124bf57600080fd5b611aa584828501612452565b600080604083850312156124de57600080fd5b825160208401519092506001604060020a038111156124fc57600080fd5b61250885828601612452565b9150509250929050565b60006020828403121561252457600080fd5b5051919050565b60008060006060848603121561254057600080fd5b83516001604060020a0381111561255657600080fd5b61256286828701612452565b93505060208401519150604084015190509250925092565b60006020828403121561258c57600080fd5b815161104d81611d43565b600080600080608085870312156125ad57600080fd5b84516001604060020a03808211156125c457600080fd5b6125d088838901612452565b955060208701519150808211156125e657600080fd5b6125f288838901612452565b94506040870151915061260482612149565b60608701519193508082111561261957600080fd5b5061262687828801612452565b91505092959194509250565b60e060020a634e487b710260009081526032600452602490fd5b60e060020a634e487b710260009081526011600452602490fd5b6000600182016126785761267861264c565b5060010190565b60006020828403121561269157600080fd5b815161104d8161228d565b80820180821115610fc457610fc461264c565b602080825260039082015260e860020a6221746302604082015260600190565b600160a060020a0386811682526000906126ec6020840188611afc565b60a0604084015261270060a0840187611a5a565b948116606084015292909216608090910152509392505050565b6000825161272c818460208701611a36565b9190910192915050565b60006020828403121561274857600080fd5b8151801515811461104d57600080fd5b60e08152600061276b60e083018a611a5a565b828103602084015261277d818a611a86565b905082810360408401526127918189611a5a565b905082810360608401526127a58188611a5a565b905082810360808401526127b98187611a5a565b90508460a084015282810360c08401526127d38185611aad565b9a9950505050505050505050565b81810381811115610fc457610fc461264c565b600060a0820160a0835280885180835260c0850191506020925060c0838202860101838b0160005b838110156128995760bf1988840301855281516080815181865261284282870182611a5a565b915050878201518582038987015261285a8282611a5a565b915050604060ff81840151168187015250606080830151925085820381870152506128858183611a5a565b96880196945050509085019060010161281c565b5050858103848701526128ac818b611a5a565b9450505050506128bf6040830186611a29565b6128cc6060830185611bb6565b6128d96080830184611a29565b9695505050505050565b6000875160206128f68285838d01611a36565b818401915060f260020a611f1f0280835289516129198160028601858e01611a36565b6002930192830181905288516129358160048601858d01611a36565b60f860020a602b026004949091019384015287516129598160058601858c01611a36565b6005930192830181905286516129758160078601858b01611a36565b6007930192830152845161298f8160098501848901611a36565b91909101600901999850505050505050505056fe2c6c2c8fac99064b89e2a97cba30b9bce7b1a84a55e0310e16b56924c6ab2f45a2646970667358221220e431687e14969550a984c6c3a9a87fa080c800528ee501bf71569505d52e31a964736f6c63430008130033",
  "immutableReferences": {},
  "source": "// //SPDX-License-Identifier: UNLICENSED\r\npragma solidity 0.8.19;\r\n\r\nimport \"./TradeFactoryBase.sol\";\r\n\r\nstruct TradeIndex {\r\n    uint256 index;\r\n    uint256 weiPrice;\r\n    PriceType priceType;\r\n    string weaponType;\r\n    string itemMarketName;\r\n    uint256 nextIndex;\r\n}\r\n\r\nstruct ExtraTest {\r\n    string tradeUrlPartner;\r\n    string weiPriceStringed;\r\n}\r\n\r\nstruct ListingParams {\r\n    string itemMarketName;\r\n    TradeUrl tradeUrl;\r\n    string assetId;\r\n    string inspectLink;\r\n    string itemImageUrl;\r\n    uint256 weiPrice;\r\n    SkinInfo skinInfo;\r\n    Sticker[] stickers;\r\n    string weaponType;\r\n    PriceType priceType;\r\n}\r\n\r\nstruct PaymentTokens {\r\n    address weth;\r\n    address usdc;\r\n    address usdt;\r\n}\r\n\r\ncontract CSXTradeFactory is TradeFactoryBase {\r\n    PaymentTokens paymentTokens;\r\n    IReferralRegistry public referralRegistryContract;\r\n\r\n    constructor(\r\n        address _keepers,\r\n        address _users,\r\n        address _tradeFactoryBaseStorage,\r\n        uint256 _baseFee,\r\n        PaymentTokens memory _paymentTokens,\r\n        address _referralRegistryContract\r\n    ) TradeFactoryBase(_keepers, _users, _tradeFactoryBaseStorage, _baseFee) {\r\n        paymentTokens = _paymentTokens;\r\n        referralRegistryContract = IReferralRegistry(_referralRegistryContract);\r\n    }\r\n\r\n    function createListingContract(\r\n        ListingParams memory params\r\n    ) external nonReentrant {\r\n        require(usersContract.isBanned(msg.sender) == false, \"bnd\");\r\n        require(\r\n            assetIdFromUserAddrssToTradeAddrss[params.assetId][msg.sender] ==\r\n                address(0),\r\n            \"id\"\r\n        );\r\n\r\n        tradeFactoryBaseStorage.newTradeContract(\r\n            params.itemMarketName,\r\n            params.tradeUrl,\r\n            params.assetId,\r\n            params.inspectLink,\r\n            params.itemImageUrl,\r\n            params.weiPrice,\r\n            params.skinInfo\r\n        );\r\n\r\n        address newAddress = tradeFactoryBaseStorage\r\n            .getLastTradeContractAddress();\r\n\r\n        uint256 totalContracts = tradeFactoryBaseStorage.totalContracts();\r\n\r\n        isTradeContract[newAddress] = true;\r\n\r\n        CSXTrade _contract = tradeFactoryBaseStorage.getTradeContractByIndex(\r\n            totalContracts - 1\r\n        );\r\n\r\n        if(params.priceType == PriceType.WETH) {\r\n            _contract.initExtraInfo(\r\n                params.stickers,\r\n                params.weaponType,\r\n                paymentTokens.weth,\r\n                params.priceType,\r\n                address(referralRegistryContract)\r\n            );\r\n        } else if(params.priceType == PriceType.USDC) {\r\n            _contract.initExtraInfo(\r\n                params.stickers,\r\n                params.weaponType,\r\n                paymentTokens.usdc,\r\n                params.priceType,\r\n                address(referralRegistryContract)\r\n            );\r\n        } else if(params.priceType == PriceType.USDT) {\r\n            _contract.initExtraInfo(\r\n                params.stickers,\r\n                params.weaponType,\r\n                paymentTokens.usdt,\r\n                params.priceType,\r\n                address(referralRegistryContract)\r\n            );\r\n        } else {\r\n            revert(\"priceType\");\r\n        }\r\n\r\n        contractAddressToIndex[newAddress] = totalContracts - 1;\r\n        assetIdFromUserAddrssToTradeAddrss[params.assetId][msg.sender] = newAddress;\r\n\r\n        ExtraTest memory _extraTest;\r\n\r\n        _extraTest.tradeUrlPartner = Strings.toString(params.tradeUrl.partner);\r\n        _extraTest.weiPriceStringed = Strings.toString(params.weiPrice);\r\n\r\n        string memory data = string(\r\n            abi.encodePacked(\r\n                params.itemMarketName,\r\n                \"||\",\r\n                params.assetId,\r\n                \"||\",\r\n                _extraTest.tradeUrlPartner,\r\n                \"+\",\r\n                params.tradeUrl.token,\r\n                \"||\",\r\n                params.skinInfo.floatValues, // \"[0.00, 0.00, 0.000000]\" (max, min, value)\r\n                \"||\",\r\n                _extraTest.weiPriceStringed\r\n            )\r\n        );\r\n        emit TradeContractStatusChange(\r\n            newAddress,\r\n            TradeStatus.ForSale,\r\n            data,\r\n            msg.sender,\r\n            address(0)\r\n        );\r\n    }\r\n\r\n    function getTradeDetailsByIndex(\r\n        uint256 index\r\n    ) public view returns (TradeInfo memory result) {\r\n        uint256 i = index;\r\n        //SMTrade _contract = tradeContracts[i];\r\n        CSXTrade _contract = tradeFactoryBaseStorage.getTradeContractByIndex(i);\r\n\r\n        result.contractAddress = address(_contract);\r\n        result.seller = _contract.seller();\r\n        result.buyer = _contract.buyer();\r\n        result.itemMarketName = _contract.itemMarketName();\r\n        result.inspectLink = _contract.inspectLink();\r\n\r\n        TradeUrl memory _sTradeUrl;\r\n        (_sTradeUrl.partner, _sTradeUrl.token) = _contract.sellerTradeUrl();\r\n        result.sellerTradeUrl = _sTradeUrl;\r\n\r\n        TradeUrl memory _bTradeUrl;\r\n        (_bTradeUrl.partner, _bTradeUrl.token) = _contract.buyerTradeUrl();\r\n        result.buyerTradeUrl = _bTradeUrl;\r\n\r\n        result.weiPrice = _contract.weiPrice();\r\n        result.itemImageUrl = _contract.itemImageUrl();\r\n        result.averageSellerDeliveryTime = usersContract.getAverageDeliveryTime(\r\n            result.seller\r\n        );\r\n        SkinInfo memory _skinInfo;\r\n        (\r\n            _skinInfo.floatValues,\r\n            _skinInfo.paintSeed,\r\n            _skinInfo.paintIndex\r\n        ) = _contract.skinInfo();\r\n        result.skinInfo = _skinInfo;\r\n        result.status = _contract.status();\r\n\r\n        uint256 lengthOfStickersArray = _contract.stickerLength();\r\n        Sticker[] memory _stickers = new Sticker[](lengthOfStickersArray);\r\n\r\n        for (uint256 y = 0; y < _stickers.length; y++) {\r\n            (\r\n                _stickers[y].name,\r\n                _stickers[y].material,\r\n                _stickers[y].slot,\r\n                _stickers[y].imageLink\r\n            ) = _contract.stickers(y);\r\n        }\r\n        result.stickers = _stickers;\r\n\r\n        result.weaponType = _contract.weaponType();\r\n\r\n        result.priceType = _contract.priceType();\r\n\r\n        return result;\r\n    }\r\n\r\n    function getTradeDetailsByAddress(\r\n        address tradeAddrs\r\n    ) public view returns (TradeInfo memory result) {\r\n        uint256 i = contractAddressToIndex[tradeAddrs];\r\n        result = getTradeDetailsByIndex(i);\r\n    }\r\n\r\n    function getTradeIndexesByStatus(\r\n        TradeStatus status,\r\n        uint256 indexFrom,\r\n        uint256 maxResults\r\n    ) external view returns (TradeIndex[] memory) {\r\n        TradeIndex[] memory tradeIndexes = new TradeIndex[](maxResults);\r\n        uint256 resultIndex;\r\n        uint256 i = indexFrom;\r\n        uint256 totalContracts = tradeFactoryBaseStorage.totalContracts();\r\n        while (resultIndex < maxResults && i < totalContracts) {\r\n            TradeInfo memory _trade = getTradeDetailsByIndex(i);\r\n\r\n            if (_trade.status == status) {\r\n                tradeIndexes[resultIndex].index = i;\r\n                tradeIndexes[resultIndex].weiPrice = _trade.weiPrice;\r\n                tradeIndexes[resultIndex].priceType = _trade.priceType;\r\n                tradeIndexes[resultIndex].weaponType = _trade.weaponType;\r\n                tradeIndexes[resultIndex].itemMarketName = _trade\r\n                    .itemMarketName;\r\n                tradeIndexes[resultIndex].nextIndex = i + 1;\r\n                ++resultIndex;\r\n            }\r\n\r\n            ++i;\r\n        }\r\n        return tradeIndexes;\r\n    }\r\n\r\n    function getTradeCountByStatus(\r\n        TradeStatus status\r\n    ) external view returns (uint256) {\r\n        uint256 count;\r\n        uint256 i = 0;\r\n        uint256 totalContracts = tradeFactoryBaseStorage.totalContracts();\r\n        while (i < totalContracts) {\r\n            TradeInfo memory _trade = getTradeDetailsByIndex(i);\r\n            if (_trade.status == status) {\r\n                ++count;\r\n            }\r\n            ++i;\r\n        }\r\n        return count;\r\n    }\r\n}\r\n",
  "sourcePath": "C:\\Users\\Charl\\Documents\\Projects\\SteamMarket\\CSX\\csx-contracts\\contracts\\TradeFactory\\TradeFactory.sol",
  "compiler": {
    "name": "solc",
    "version": "0.8.19+commit.7dd6d404.Emscripten.clang"
  },
  "schemaVersion": "3.4.3",
  "updatedAt": "2023-04-19T09:27:01.310Z",
  "networkType": "ethereum",
  "devdoc": {
    "kind": "dev",
    "methods": {},
    "version": 1
  },
  "userdoc": {
    "kind": "user",
    "methods": {},
    "version": 1
  }
}