{
  "contractName": "CSXTrade",
  "abi": [
    {
      "inputs": [
        {
          "internalType": "address",
          "name": "_factory",
          "type": "address"
        },
        {
          "internalType": "address",
          "name": "_keepers",
          "type": "address"
        },
        {
          "internalType": "address",
          "name": "_users",
          "type": "address"
        },
        {
          "internalType": "address",
          "name": "_seller",
          "type": "address"
        },
        {
          "internalType": "uint256",
          "name": "_weiPrice",
          "type": "uint256"
        },
        {
          "internalType": "string",
          "name": "_itemMarketName",
          "type": "string"
        },
        {
          "components": [
            {
              "internalType": "uint256",
              "name": "partner",
              "type": "uint256"
            },
            {
              "internalType": "string",
              "name": "token",
              "type": "string"
            }
          ],
          "internalType": "struct TradeUrl",
          "name": "_sellerTradeUrl",
          "type": "tuple"
        },
        {
          "internalType": "string",
          "name": "_sellerAssetId",
          "type": "string"
        },
        {
          "internalType": "string",
          "name": "_inspectLink",
          "type": "string"
        },
        {
          "internalType": "string",
          "name": "_itemImageUrl",
          "type": "string"
        },
        {
          "components": [
            {
              "internalType": "string",
              "name": "floatValues",
              "type": "string"
            },
            {
              "internalType": "uint256",
              "name": "paintSeed",
              "type": "uint256"
            },
            {
              "internalType": "uint256",
              "name": "paintIndex",
              "type": "uint256"
            }
          ],
          "internalType": "struct SkinInfo",
          "name": "_skinInfo",
          "type": "tuple"
        }
      ],
      "stateMutability": "nonpayable",
      "type": "constructor"
    },
    {
      "inputs": [],
      "name": "buyer",
      "outputs": [
        {
          "internalType": "address",
          "name": "",
          "type": "address"
        }
      ],
      "stateMutability": "view",
      "type": "function"
    },
    {
      "inputs": [],
      "name": "buyerCommitTimestamp",
      "outputs": [
        {
          "internalType": "uint256",
          "name": "",
          "type": "uint256"
        }
      ],
      "stateMutability": "view",
      "type": "function"
    },
    {
      "inputs": [],
      "name": "buyerTradeUrl",
      "outputs": [
        {
          "internalType": "uint256",
          "name": "partner",
          "type": "uint256"
        },
        {
          "internalType": "string",
          "name": "token",
          "type": "string"
        }
      ],
      "stateMutability": "view",
      "type": "function"
    },
    {
      "inputs": [],
      "name": "depositedValue",
      "outputs": [
        {
          "internalType": "uint256",
          "name": "",
          "type": "uint256"
        }
      ],
      "stateMutability": "view",
      "type": "function"
    },
    {
      "inputs": [],
      "name": "disputeComplaint",
      "outputs": [
        {
          "internalType": "string",
          "name": "",
          "type": "string"
        }
      ],
      "stateMutability": "view",
      "type": "function"
    },
    {
      "inputs": [],
      "name": "disputedStatus",
      "outputs": [
        {
          "internalType": "enum TradeStatus",
          "name": "",
          "type": "uint8"
        }
      ],
      "stateMutability": "view",
      "type": "function"
    },
    {
      "inputs": [],
      "name": "disputeer",
      "outputs": [
        {
          "internalType": "address",
          "name": "",
          "type": "address"
        }
      ],
      "stateMutability": "view",
      "type": "function"
    },
    {
      "inputs": [],
      "name": "factoryContract",
      "outputs": [
        {
          "internalType": "contract ITradeFactory",
          "name": "",
          "type": "address"
        }
      ],
      "stateMutability": "view",
      "type": "function"
    },
    {
      "inputs": [],
      "name": "hasInit",
      "outputs": [
        {
          "internalType": "bool",
          "name": "",
          "type": "bool"
        }
      ],
      "stateMutability": "view",
      "type": "function"
    },
    {
      "inputs": [],
      "name": "inspectLink",
      "outputs": [
        {
          "internalType": "string",
          "name": "",
          "type": "string"
        }
      ],
      "stateMutability": "view",
      "type": "function"
    },
    {
      "inputs": [],
      "name": "itemImageUrl",
      "outputs": [
        {
          "internalType": "string",
          "name": "",
          "type": "string"
        }
      ],
      "stateMutability": "view",
      "type": "function"
    },
    {
      "inputs": [],
      "name": "itemMarketName",
      "outputs": [
        {
          "internalType": "string",
          "name": "",
          "type": "string"
        }
      ],
      "stateMutability": "view",
      "type": "function"
    },
    {
      "inputs": [],
      "name": "itemSellerAssetId",
      "outputs": [
        {
          "internalType": "string",
          "name": "",
          "type": "string"
        }
      ],
      "stateMutability": "view",
      "type": "function"
    },
    {
      "inputs": [],
      "name": "keepersContract",
      "outputs": [
        {
          "internalType": "contract IKeepers",
          "name": "",
          "type": "address"
        }
      ],
      "stateMutability": "view",
      "type": "function"
    },
    {
      "inputs": [],
      "name": "paymentToken",
      "outputs": [
        {
          "internalType": "contract IERC20",
          "name": "",
          "type": "address"
        }
      ],
      "stateMutability": "view",
      "type": "function"
    },
    {
      "inputs": [],
      "name": "priceType",
      "outputs": [
        {
          "internalType": "enum PriceType",
          "name": "",
          "type": "uint8"
        }
      ],
      "stateMutability": "view",
      "type": "function"
    },
    {
      "inputs": [],
      "name": "referralRegistryContract",
      "outputs": [
        {
          "internalType": "contract IReferralRegistry",
          "name": "",
          "type": "address"
        }
      ],
      "stateMutability": "view",
      "type": "function"
    },
    {
      "inputs": [],
      "name": "seller",
      "outputs": [
        {
          "internalType": "address",
          "name": "",
          "type": "address"
        }
      ],
      "stateMutability": "view",
      "type": "function"
    },
    {
      "inputs": [],
      "name": "sellerAcceptedTimestamp",
      "outputs": [
        {
          "internalType": "uint256",
          "name": "",
          "type": "uint256"
        }
      ],
      "stateMutability": "view",
      "type": "function"
    },
    {
      "inputs": [],
      "name": "sellerTradeUrl",
      "outputs": [
        {
          "internalType": "uint256",
          "name": "partner",
          "type": "uint256"
        },
        {
          "internalType": "string",
          "name": "token",
          "type": "string"
        }
      ],
      "stateMutability": "view",
      "type": "function"
    },
    {
      "inputs": [],
      "name": "skinInfo",
      "outputs": [
        {
          "internalType": "string",
          "name": "floatValues",
          "type": "string"
        },
        {
          "internalType": "uint256",
          "name": "paintSeed",
          "type": "uint256"
        },
        {
          "internalType": "uint256",
          "name": "paintIndex",
          "type": "uint256"
        }
      ],
      "stateMutability": "view",
      "type": "function"
    },
    {
      "inputs": [],
      "name": "status",
      "outputs": [
        {
          "internalType": "enum TradeStatus",
          "name": "",
          "type": "uint8"
        }
      ],
      "stateMutability": "view",
      "type": "function"
    },
    {
      "inputs": [
        {
          "internalType": "uint256",
          "name": "",
          "type": "uint256"
        }
      ],
      "name": "stickers",
      "outputs": [
        {
          "internalType": "string",
          "name": "name",
          "type": "string"
        },
        {
          "internalType": "string",
          "name": "material",
          "type": "string"
        },
        {
          "internalType": "uint8",
          "name": "slot",
          "type": "uint8"
        },
        {
          "internalType": "string",
          "name": "imageLink",
          "type": "string"
        }
      ],
      "stateMutability": "view",
      "type": "function"
    },
    {
      "inputs": [],
      "name": "usersContract",
      "outputs": [
        {
          "internalType": "contract IUsers",
          "name": "",
          "type": "address"
        }
      ],
      "stateMutability": "view",
      "type": "function"
    },
    {
      "inputs": [],
      "name": "weaponType",
      "outputs": [
        {
          "internalType": "string",
          "name": "",
          "type": "string"
        }
      ],
      "stateMutability": "view",
      "type": "function"
    },
    {
      "inputs": [],
      "name": "weiPrice",
      "outputs": [
        {
          "internalType": "uint256",
          "name": "",
          "type": "uint256"
        }
      ],
      "stateMutability": "view",
      "type": "function"
    },
    {
      "inputs": [
        {
          "components": [
            {
              "internalType": "string",
              "name": "name",
              "type": "string"
            },
            {
              "internalType": "string",
              "name": "material",
              "type": "string"
            },
            {
              "internalType": "uint8",
              "name": "slot",
              "type": "uint8"
            },
            {
              "internalType": "string",
              "name": "imageLink",
              "type": "string"
            }
          ],
          "internalType": "struct Sticker[]",
          "name": "_stickers",
          "type": "tuple[]"
        },
        {
          "internalType": "string",
          "name": "_weaponType",
          "type": "string"
        },
        {
          "internalType": "address",
          "name": "_paymentToken",
          "type": "address"
        },
        {
          "internalType": "enum PriceType",
          "name": "_priceType",
          "type": "uint8"
        },
        {
          "internalType": "address",
          "name": "_referralRegistryContract",
          "type": "address"
        }
      ],
      "name": "initExtraInfo",
      "outputs": [],
      "stateMutability": "nonpayable",
      "type": "function"
    },
    {
      "inputs": [],
      "name": "stickerLength",
      "outputs": [
        {
          "internalType": "uint256",
          "name": "",
          "type": "uint256"
        }
      ],
      "stateMutability": "view",
      "type": "function"
    },
    {
      "inputs": [],
      "name": "sellerCancel",
      "outputs": [],
      "stateMutability": "nonpayable",
      "type": "function"
    },
    {
      "inputs": [
        {
          "components": [
            {
              "internalType": "uint256",
              "name": "partner",
              "type": "uint256"
            },
            {
              "internalType": "string",
              "name": "token",
              "type": "string"
            }
          ],
          "internalType": "struct TradeUrl",
          "name": "_buyerTradeUrl",
          "type": "tuple"
        },
        {
          "internalType": "bytes32",
          "name": "_affLink",
          "type": "bytes32"
        }
      ],
      "name": "commitBuy",
      "outputs": [],
      "stateMutability": "nonpayable",
      "type": "function"
    },
    {
      "inputs": [],
      "name": "buyerCancel",
      "outputs": [],
      "stateMutability": "nonpayable",
      "type": "function"
    },
    {
      "inputs": [
        {
          "internalType": "bool",
          "name": "sellerCommited",
          "type": "bool"
        }
      ],
      "name": "sellerTradeVeridict",
      "outputs": [],
      "stateMutability": "nonpayable",
      "type": "function"
    },
    {
      "inputs": [],
      "name": "buyerConfirmReceived",
      "outputs": [],
      "stateMutability": "nonpayable",
      "type": "function"
    },
    {
      "inputs": [],
      "name": "sellerConfirmsTrade",
      "outputs": [],
      "stateMutability": "nonpayable",
      "type": "function"
    },
    {
      "inputs": [
        {
          "internalType": "bool",
          "name": "isTradeMade",
          "type": "bool"
        }
      ],
      "name": "keeperNodeConfirmsTrade",
      "outputs": [],
      "stateMutability": "nonpayable",
      "type": "function"
    },
    {
      "inputs": [
        {
          "internalType": "string",
          "name": "_complaint",
          "type": "string"
        }
      ],
      "name": "openDispute",
      "outputs": [],
      "stateMutability": "nonpayable",
      "type": "function"
    },
    {
      "inputs": [
        {
          "internalType": "bool",
          "name": "isFavourOfBuyer",
          "type": "bool"
        },
        {
          "internalType": "bool",
          "name": "giveWarningToSeller",
          "type": "bool"
        },
        {
          "internalType": "bool",
          "name": "giveWarningToBuyer",
          "type": "bool"
        },
        {
          "internalType": "bool",
          "name": "isWithValue",
          "type": "bool"
        }
      ],
      "name": "resolveDispute",
      "outputs": [],
      "stateMutability": "nonpayable",
      "type": "function"
    }
  ],
  "bytecode": "0x60806040523480156200001157600080fd5b506040516200458438038062004584833981016040819052620000349162000330565b60168054600160a060020a038d8116600160a060020a03199283161790925560148054601580548e8616908516179055600180548d8616941693909317909255600e8a9055918c166101000260ff1916600160a860020a03199091161790556003620000a1878262000554565b50845160059081556020860151869190600690620000c0908262000554565b5060049150620000d39050858262000554565b506009620000e2848262000554565b50600a620000f1838262000554565b5080518190601190819062000107908262000554565b506020820151816001015560408201518160020155905050505050505050505050505062000626565b8051600160a060020a03811681146200014857600080fd5b919050565b7f4e487b7100000000000000000000000000000000000000000000000000000000600052604160045260246000fd5b604051601f8201601f191681016001604060020a0381118282101715620001a757620001a76200014d565b604052919050565b600082601f830112620001c157600080fd5b81516001604060020a03811115620001dd57620001dd6200014d565b6020620001f3601f8301601f191682016200017c565b82815285828487010111156200020857600080fd5b60005b83811015620002285785810183015182820184015282016200020b565b506000928101909101919091529392505050565b6000604082840312156200024f57600080fd5b604051604081016001604060020a0382821081831117156200027557620002756200014d565b816040528293508451835260208501519150808211156200029557600080fd5b50620002a485828601620001af565b6020830152505092915050565b600060608284031215620002c457600080fd5b604051606081016001604060020a038282108183111715620002ea57620002ea6200014d565b8160405282935084519150808211156200030357600080fd5b506200031285828601620001af565b82525060208301516020820152604083015160408201525092915050565b60008060008060008060008060008060006101608c8e0312156200035357600080fd5b6200035e8c62000130565b9a506200036e60208d0162000130565b99506200037e60408d0162000130565b98506200038e60608d0162000130565b975060808c0151965060a08c01516001604060020a03811115620003b157600080fd5b620003bf8e828f01620001af565b96505060c08c01516001604060020a03811115620003dc57600080fd5b620003ea8e828f016200023c565b95505060e08c01516001604060020a038111156200040757600080fd5b620004158e828f01620001af565b9450506101008c01516001604060020a038111156200043357600080fd5b620004418e828f01620001af565b9350506101208c01516001604060020a038111156200045f57600080fd5b6200046d8e828f01620001af565b9250506101408c01516001604060020a038111156200048b57600080fd5b620004998e828f01620002b1565b9150509295989b509295989b9093969950565b600281046001821680620004c157607f821691505b602082108103620004fb577f4e487b7100000000000000000000000000000000000000000000000000000000600052602260045260246000fd5b50919050565b601f8211156200054f576000818152602081206020601f860104810160208610156200052a5750805b6020601f860104820191505b818110156200054b5782815560010162000536565b5050505b505050565b81516001604060020a038111156200057057620005706200014d565b6200058881620005818454620004ac565b8462000501565b602080601f831160018114620005c45760008415620005a75750858301515b60028086026008870290910a60001904198216178655506200054b565b600085815260208120601f198616915b82811015620005f557888601518255948401946001909101908401620005d4565b50858210156200061657878501516008601f88160260020a60001904191681555b5050505050600202600101905550565b613f4e80620006366000396000f3fe608060405234801561001057600080fd5b50600436106101ba5760e060020a600035046302197c5581146101bf57806302d8ee9c146101de57806308551a53146101f3578063142ebf3c14610213578063182dcc99146102265780631c925df0146102395780631e86221f1461025a5780631f97327b14610262578063200d2ed2146102775780632d90d70d146102915780633013ce29146102a8578063343bf40e146102bb5780633440543a146102df578063356cd0dc146102e75780634e9448e9146102ef578063595210ad146103025780635b902134146103155780636fed1d7e1461031e57806370e066f61461033557806370ec9d541461033d5780637150d8ae146103555780637384001c1461036857806385e14a48146103705780638dada6d81461037d5780638f965d8014610385578063975a1773146103a8578063c2bd884b146103b1578063d1d67a57146103c9578063d2ef033c146103dc578063d55a17c0146103ef578063de11c94a146103f7578063e29b9e971461040a578063e67d552314610413578063e9d13b571461041b578063f4a84e0f14610423578063fd7d6df41461042b578063fddd56c51461043e575b600080fd5b6101c7610446565b6040516101d592919061329a565b60405180910390f35b6101e66104dd565b6040516101d591906132bb565b60015461020690600160a060020a031681565b6040516101d591906132ce565b60155461020690600160a060020a031681565b60175461020690600160a060020a031681565b60005461024d9060a060020a900460ff1681565b6040516101d591906132fc565b6101e661056b565b6102756102703660046133f7565b610578565b005b6014546102849060ff1681565b6040516101d591906134a3565b61029a60105481565b6040519081526020016101d5565b60005461020690600160a060020a031681565b6019546102cf9060a860020a900460ff1681565b60405190151581526020016101d5565b610275610bd1565b6101e6610ff2565b6102756102fd3660046134c2565b610fff565b61027561031036600461351e565b6115eb565b61029a600f5481565b610326611858565b6040516101d593929190613552565b6101e66118f6565b601954610206906101009004600160a060020a031681565b60025461020690600160a060020a031681565b610275611903565b6019546102849060ff1681565b6101e6611c67565b610398610393366004613577565b611c74565b6040516101d59493929190613590565b61029a600d5481565b601454610206906101009004600160a060020a031681565b6102756103d7366004613611565b611e55565b6102756103ea3660046137d2565b612066565b6102756126e0565b60165461020690600160a060020a031681565b61029a600e5481565b6101e6612907565b610275612914565b600b5461029a565b6102756104393660046137d2565b612b81565b6101c7612ef7565b600580546006805491929161045a906137ef565b80601f0160208091040260200160405190810160405280929190818152602001828054610486906137ef565b80156104d35780601f106104a8576101008083540402835291602001916104d3565b820191906000526020600020905b8154815290600101906020018083116104b657829003601f168201915b5050505050905082565b600480546104ea906137ef565b80601f0160208091040260200160405190810160405280929190818152602001828054610516906137ef565b80156105635780601f1061053857610100808354040283529160200191610563565b820191906000526020600020905b81548152906001019060200180831161054657829003601f168201915b505050505081565b600380546104ea906137ef565b600060145460ff166009811115610591576105916132e2565b146105d85760405160e560020a62461bcd02815260206004820152600c602482015260a160020a6b3a39321039ba1010b832b7170260448201526064015b60405180910390fd5b60175460405160e060020a63ed0fc5a90281526004810183905260009182918291600160a060020a03169063ed0fc5a990602401602060405180830381865afa158015610629573d6000803e3d6000fd5b505050506040513d601f19601f8201168201806040525081019061064d919061382d565b600160a060020a031614159050600081156106d75760175460405160e060020a63f3c7c93102815260048101869052600091600160a060020a03169063f3c7c931906024016040805180830381865afa1580156106ae573d6000803e3d6000fd5b505050506040513d601f19601f820116820180604052508101906106d2919061384a565b509150505b601754600e546016546040805160e160020a6337792e1d0281529051600094600160a060020a03908116946342ba2f2494909389939190921691636ef25c3a9160048083019260209291908290030181865afa15801561073b573d6000803e3d6000fd5b505050506040513d601f19601f8201168201806040525081019061075f919061386e565b60405160e060020a63ffffffff861602815260048101939093529015156024830152604482015260648101859052608401608060405180830381865afa1580156107ad573d6000803e3d6000fd5b505050506040513d601f19601f820116820180604052508101906107d19190613887565b505060005460405160e060020a6323b872dd02815233600482015230602482015260448101849052929650869350600160a060020a0316916323b872dd91506064016020604051808303816000875af1158015610832573d6000803e3d6000fd5b505050506040513d601f19601f8201168201806040525081019061085691906138bd565b61089a5760405160e560020a62461bcd02815260206004820152600f6024820152608a60020a6e1d1c985b9cd9995c8819985a5b19590260448201526064016105cf565b600154600160a060020a031633036108e45760405160e560020a62461bcd028152602060048201526007602482015260c960020a6610b9b2b63632b90260448201526064016105cf565b6014805460ff191660021790554260105560155460015460405160e060020a637f1b5565028152600160a060020a0392831692637f1b55659261092f923092909116906004016138da565b600060405180830381600087803b15801561094957600080fd5b505af115801561095d573d6000803e3d6000fd5b505060028054600160a060020a03191633179055505085516007908155602087015187919060089061098f908261393a565b505060005460405160e060020a6370a08231028152600160a060020a0390911691506370a08231906109c59030906004016132ce565b602060405180830381865afa1580156109e2573d6000803e3d6000fd5b505050506040513d601f19601f82011682018060405250810190610a06919061386e565b600d55600554600090610a1890612f0b565b8751600690610a2690612f0b565b8960200151610a3433612fa0565b610a3f600e54612f0b565b604051602001610a5496959493929190613a2c565b60408051601f198184030181529082905260155460015460145460e060020a63fe4162d1028552929450600160a060020a039182169363fe4162d193610aa6933093169160ff90911690600401613b21565b600060405180830381600087803b158015610ac057600080fd5b505af1158015610ad4573d6000803e3d6000fd5b505060155460025460145460405160e060020a63116fd649028152600160a060020a03938416955063116fd6499450610b1d93309360009391169160ff90911690600401613b46565b600060405180830381600087803b158015610b3757600080fd5b505af1158015610b4b573d6000803e3d6000fd5b505060165460145460015460025460405160e360020a630b9b56f3028152600160a060020a039485169650635cdab7989550610b969460ff9094169388938116921690600401613b8c565b600060405180830381600087803b158015610bb057600080fd5b505af1158015610bc4573d6000803e3d6000fd5b5050505050505050505050565b600254600160a060020a0316338114610bff5760405160e560020a62461bcd0281526004016105cf90613bcd565b600260145460ff166009811115610c1857610c186132e2565b1480610c3a5750600460145460ff166009811115610c3857610c386132e2565b145b610c7f5760405160e560020a62461bcd0281526020600482015260106024820152608160020a6f3a393239ba3990b1b7b6b6be30b1ba170260448201526064016105cf565b6014805460ff1916600617905560155460015460405160e160020a6321f11cdd028152600160a060020a03928316926343e239ba92610cc6923092909116906004016138da565b600060405180830381600087803b158015610ce057600080fd5b505af1158015610cf4573d6000803e3d6000fd5b505060165460015460405160e160020a633188e17902815260009450600160a060020a039283169350636311c2f292610d34926004929116908201613bf0565b6020604051808303816000875af1158015610d53573d6000803e3d6000fd5b505050506040513d601f19601f82011682018060405250810190610d7791906138bd565b905080610dc45760405160e560020a62461bcd0281526020600482015260156024820152605a60020a74191a591b89dd081c995b5bdd99481d1c98591952590260448201526064016105cf565b600054600154600d5460405160e060020a63a9059cbb028152600160a060020a039384169363a9059cbb93610dfe93911691600401613c8a565b6020604051808303816000875af1158015610e1d573d6000803e3d6000fd5b505050506040513d601f19601f82011682018060405250810190610e4191906138bd565b610e605760405160e560020a62461bcd0281526004016105cf90613ca3565b60155460015460145460405160e060020a63fe4162d1028152600160a060020a039384169363fe4162d193610ea2933093919092169160ff1690600401613b21565b600060405180830381600087803b158015610ebc57600080fd5b505af1158015610ed0573d6000803e3d6000fd5b505060155460025460145460405160e060020a63fe4162d1028152600160a060020a03938416955063fe4162d19450610f13933093169160ff1690600401613b21565b600060405180830381600087803b158015610f2d57600080fd5b505af1158015610f41573d6000803e3d6000fd5b505050506000610f52600e54612f0b565b604051602001610f629190613cc4565b60408051601f198184030181529082905260165460145460015460025460e360020a630b9b56f3028652939550600160a060020a0392831694635cdab79894610fbb9460ff909416938893811692911690600401613b8c565b600060405180830381600087803b158015610fd557600080fd5b505af1158015610fe9573d6000803e3d6000fd5b50505050505050565b601880546104ea906137ef565b60145460405160e760020a63012875b1028152610100909104600160a060020a03169063943ad880906110369033906004016132ce565b602060405180830381865afa158015611053573d6000803e3d6000fd5b505050506040513d601f19601f8201168201806040525081019061107791906138bd565b806110f8575060145460405160e060020a63fd6aad25028152610100909104600160a060020a03169063fd6aad25906110b49033906004016132ce565b602060405180830381865afa1580156110d1573d6000803e3d6000fd5b505050506040513d601f19601f820116820180604052508101906110f5919061386e565b15155b61113a5760405160e560020a62461bcd02815260206004820152600d6024820152609a60020a6c085ad95c1c881bdc881bdc98db0260448201526064016105cf565b600760145460ff166009811115611153576111536132e2565b1461118e5760405160e560020a62461bcd028152602060048201526005602482015260dc60020a6402164697370260448201526064016105cf565b60165460015460405160e160020a633188e179028152600092600160a060020a0390811692636311c2f2926111c99260049216908201613bf0565b6020604051808303816000875af11580156111e8573d6000803e3d6000fd5b505050506040513d601f19601f8201168201806040525081019061120c91906138bd565b90508061122e5760405160e560020a62461bcd0281526004016105cf90613cff565b84156112f657600960145460ff16600981111561124d5761124d6132e2565b505081156112f157600054600254600d5460405160e060020a63a9059cbb028152600160a060020a039384169363a9059cbb9361128f93911691600401613c8a565b6020604051808303816000875af11580156112ae573d6000803e3d6000fd5b505050506040513d601f19601f820116820180604052508101906112d291906138bd565b6112f15760405160e560020a62461bcd0281526004016105cf90613ca3565b6113a5565b6014805460ff1916600817905581156113a557600054600154600d5460405160e060020a63a9059cbb028152600160a060020a039384169363a9059cbb9361134393911691600401613c8a565b6020604051808303816000875af1158015611362573d6000803e3d6000fd5b505050506040513d601f19601f8201168201806040525081019061138691906138bd565b6113a55760405160e560020a62461bcd0281526004016105cf90613ca3565b83156114155760155460015460405160e160020a6329ca0ea7028152600160a060020a03928316926353941d4e926113e2929116906004016132ce565b600060405180830381600087803b1580156113fc57600080fd5b505af1158015611410573d6000803e3d6000fd5b505050505b82156114855760155460025460405160e160020a6329ca0ea7028152600160a060020a03928316926353941d4e92611452929116906004016132ce565b600060405180830381600087803b15801561146c57600080fd5b505af1158015611480573d6000803e3d6000fd5b505050505b60155460015460145460405160e060020a63fe4162d1028152600160a060020a039384169363fe4162d1936114c7933093919092169160ff1690600401613b21565b600060405180830381600087803b1580156114e157600080fd5b505af11580156114f5573d6000803e3d6000fd5b505060155460025460145460405160e060020a63fe4162d1028152600160a060020a03938416955063fe4162d19450611538933093169160ff1690600401613b21565b600060405180830381600087803b15801561155257600080fd5b505af1158015611566573d6000803e3d6000fd5b505060165460145460015460025460405160e360020a630b9b56f3028152600160a060020a039485169650635cdab79895506115b29460ff909416939283169290911690600401613d24565b600060405180830381600087803b1580156115cc57600080fd5b505af11580156115e0573d6000803e3d6000fd5b505050505050505050565b600154600254600160a060020a03918216911633821480611614575033600160a060020a038216145b61164f5760405160e560020a62461bcd028152602060048201526006602482015260d460020a6502167726f7570260448201526064016105cf565b600760145460ff166009811115611668576116686132e2565b1415801561168d5750600860145460ff16600981111561168a5761168a6132e2565b14155b80156116b05750600960145460ff1660098111156116ad576116ad6132e2565b14155b6116ef5760405160e560020a62461bcd02815260206004820152600a602482015260b060020a69616c72656164794469730260448201526064016105cf565b60148054600760ff19918216811790925560198054600160a860020a0319163361010002909216919091179091179055601861172b848261393a565b5060155460015460145460405160e060020a63fe4162d1028152600160a060020a039384169363fe4162d19361176e933093919092169160ff1690600401613b21565b600060405180830381600087803b15801561178857600080fd5b505af115801561179c573d6000803e3d6000fd5b505060155460025460145460405160e060020a63fe4162d1028152600160a060020a03938416955063fe4162d194506117df933093169160ff1690600401613b21565b600060405180830381600087803b1580156117f957600080fd5b505af115801561180d573d6000803e3d6000fd5b505060165460145460015460025460405160e360020a630b9b56f3028152600160a060020a039485169650635cdab7989550610fbb9460ff909416938a938116921690600401613b8c565b601180548190611867906137ef565b80601f0160208091040260200160405190810160405280929190818152602001828054611893906137ef565b80156118e05780601f106118b5576101008083540402835291602001916118e0565b820191906000526020600020905b8154815290600101906020018083116118c357829003601f168201915b5050505050908060010154908060020154905083565b600980546104ea906137ef565b600154600160a060020a03163381146119315760405160e560020a62461bcd0281526004016105cf90613bcd565b600460145460ff16600981111561194a5761194a6132e2565b1461196a5760405160e560020a62461bcd0281526004016105cf90613d5c565b600f5461197a906203f480613d9e565b4210156119c35760405160e560020a62461bcd0281526020600482015260116024820152607a60020a700cc819185e5cc81b9bdd081c185cdcd9590260448201526064016105cf565b6014805460ff1916600617905560155460015460405160e160020a6321f11cdd028152600160a060020a03928316926343e239ba92611a0a923092909116906004016138da565b600060405180830381600087803b158015611a2457600080fd5b505af1158015611a38573d6000803e3d6000fd5b505060155460015460145460405160e060020a63fe4162d1028152600160a060020a03938416955063fe4162d19450611a7b933093169160ff1690600401613b21565b600060405180830381600087803b158015611a9557600080fd5b505af1158015611aa9573d6000803e3d6000fd5b505060155460025460145460405160e060020a63fe4162d1028152600160a060020a03938416955063fe4162d19450611aec933093169160ff1690600401613b21565b600060405180830381600087803b158015611b0657600080fd5b505af1158015611b1a573d6000803e3d6000fd5b5050600054600154600d5460405160e060020a63a9059cbb028152600160a060020a03938416955063a9059cbb9450611b599390921691600401613c8a565b6020604051808303816000875af1158015611b78573d6000803e3d6000fd5b505050506040513d601f19601f82011682018060405250810190611b9c91906138bd565b611bbb5760405160e560020a62461bcd0281526004016105cf90613ca3565b6000611bc8600e54612f0b565b604051602001611bd89190613db1565b60408051601f198184030181529082905260165460145460015460025460e360020a630b9b56f3028652939550600160a060020a0392831694635cdab79894611c319460ff909416938893811692911690600401613b8c565b600060405180830381600087803b158015611c4b57600080fd5b505af1158015611c5f573d6000803e3d6000fd5b505050505050565b600c80546104ea906137ef565b600b8181548110611c8457600080fd5b9060005260206000209060040201600091509050806000018054611ca7906137ef565b80601f0160208091040260200160405190810160405280929190818152602001828054611cd3906137ef565b8015611d205780601f10611cf557610100808354040283529160200191611d20565b820191906000526020600020905b815481529060010190602001808311611d0357829003601f168201915b505050505090806001018054611d35906137ef565b80601f0160208091040260200160405190810160405280929190818152602001828054611d61906137ef565b8015611dae5780601f10611d8357610100808354040283529160200191611dae565b820191906000526020600020905b815481529060010190602001808311611d9157829003601f168201915b5050506002840154600385018054949560ff909216949193509150611dd2906137ef565b80601f0160208091040260200160405190810160405280929190818152602001828054611dfe906137ef565b8015611e4b5780601f10611e2057610100808354040283529160200191611e4b565b820191906000526020600020905b815481529060010190602001808311611e2e57829003601f168201915b5050505050905084565b601654600160a060020a031633148015611e79575060195460a860020a900460ff16155b611eb65760405160e560020a62461bcd028152602060048201526008602482015260c060020a6721666163746f72790260448201526064016105cf565b6019805460a860020a60ff02191660a860020a17905560005b8551811015611f7857600b868281518110611eec57611eec613dcd565b60209081029190910181015182546001810184556000938452919092208251600490920201908190611f1e908261393a565b5060208201516001820190611f33908261393a565b50604082015160028201805460ff191660ff90921691909117905560608201516003820190611f62908261393a565b5050508080611f7090613de7565b915050611ecf565b506015546001805460405160e060020a63116fd649028152600160a060020a039384169363116fd64993611fb793309391921690600090600401613b46565b600060405180830381600087803b158015611fd157600080fd5b505af1158015611fe5573d6000803e3d6000fd5b5050505083600c9081611ff8919061393a565b5060008054600160a060020a038516600160a060020a0319821681178355849291600160a860020a0319161760a060020a83600281111561203b5761203b6132e2565b021790555060178054600160a060020a031916600160a060020a039290921691909117905550505050565b60145460405160e760020a63012875b1028152610100909104600160a060020a03169063943ad8809061209d9033906004016132ce565b602060405180830381865afa1580156120ba573d6000803e3d6000fd5b505050506040513d601f19601f820116820180604052508101906120de91906138bd565b6120e757600080fd5b600260145460ff166009811115612100576121006132e2565b14806121225750600460145460ff166009811115612120576121206132e2565b145b6121635760405160e560020a62461bcd02815260206004820152600c602482015260a060020a6b747264737473213e636f6d6d0260448201526064016105cf565b801561240f576014805460ff1916600617905560155460015460405160e160020a6321f11cdd028152600160a060020a03928316926343e239ba926121b0923092909116906004016138da565b600060405180830381600087803b1580156121ca57600080fd5b505af11580156121de573d6000803e3d6000fd5b505060155460015460145460405160e060020a63fe4162d1028152600160a060020a03938416955063fe4162d19450612221933093169160ff1690600401613b21565b600060405180830381600087803b15801561223b57600080fd5b505af115801561224f573d6000803e3d6000fd5b505060155460025460145460405160e060020a63fe4162d1028152600160a060020a03938416955063fe4162d19450612292933093169160ff1690600401613b21565b600060405180830381600087803b1580156122ac57600080fd5b505af11580156122c0573d6000803e3d6000fd5b5050600054600154600d5460405160e060020a63a9059cbb028152600160a060020a03938416955063a9059cbb94506122ff9390921691600401613c8a565b6020604051808303816000875af115801561231e573d6000803e3d6000fd5b505050506040513d601f19601f8201168201806040525081019061234291906138bd565b6123615760405160e560020a62461bcd0281526004016105cf90613ca3565b600061236e600e54612f0b565b60405160200161237e9190613db1565b60408051601f198184030181529082905260165460145460015460025460e360020a630b9b56f3028652939550600160a060020a0392831694635cdab798946123d79460ff909416938893811692911690600401613b8c565b600060405180830381600087803b1580156123f157600080fd5b505af1158015612405573d6000803e3d6000fd5b505050505061263c565b60148054600960ff198216811790925560155460015460405160e060020a63fe4162d102815260ff90931693600160a060020a039283169363fe4162d19361245e933093911691600401613b21565b600060405180830381600087803b15801561247857600080fd5b505af115801561248c573d6000803e3d6000fd5b5060029250612499915050565b8160098111156124ab576124ab6132e2565b106125255760155460025460145460405160e060020a63fe4162d1028152600160a060020a039384169363fe4162d1936124f2933093919092169160ff1690600401613b21565b600060405180830381600087803b15801561250c57600080fd5b505af1158015612520573d6000803e3d6000fd5b505050505b600054600254600d5460405160e060020a63a9059cbb028152600160a060020a039384169363a9059cbb9361255f93911691600401613c8a565b6020604051808303816000875af115801561257e573d6000803e3d6000fd5b505050506040513d601f19601f820116820180604052508101906125a291906138bd565b6125c15760405160e560020a62461bcd0281526004016105cf90613ca3565b60165460145460015460025460405160e360020a630b9b56f3028152600160a060020a0394851694635cdab798946126089460ff9091169390821692911690600401613e00565b600060405180830381600087803b15801561262257600080fd5b505af1158015612636573d6000803e3d6000fd5b50505050505b60165460015460405160e160020a633188e179028152600092600160a060020a0390811692636311c2f2926126779260049216908201613bf0565b6020604051808303816000875af1158015612696573d6000803e3d6000fd5b505050506040513d601f19601f820116820180604052508101906126ba91906138bd565b9050806126dc5760405160e560020a62461bcd0281526004016105cf90613cff565b5050565b600154600160a060020a031633811461270e5760405160e560020a62461bcd0281526004016105cf90613bcd565b600060145460ff166009811115612727576127276132e2565b146127645760405160e560020a62461bcd028152602060048201526007602482015260c960020a6639ba1010b832b70260448201526064016105cf565b6014805460ff19166001908117909155601554815460405160e060020a63fe4162d1028152600160a060020a039283169363fe4162d1936127ad93309391169190600401613b21565b600060405180830381600087803b1580156127c757600080fd5b505af11580156127db573d6000803e3d6000fd5b5050505060006127ec600e54612f0b565b6040516020016127fc9190613db1565b60408051601f198184030181529082905260165460145460015460025460e360020a630b9b56f3028652939550600160a060020a0392831694635cdab798946128559460ff909416938893811692911690600401613b8c565b600060405180830381600087803b15801561286f57600080fd5b505af1158015612883573d6000803e3d6000fd5b505060165460015460405160e160020a633188e179028152600160a060020a039283169450636311c2f293506128bf9260049216908201613bf0565b6020604051808303816000875af11580156128de573d6000803e3d6000fd5b505050506040513d601f19601f8201168201806040525081019061290291906138bd565b505050565b600a80546104ea906137ef565b600254600160a060020a03163381146129425760405160e560020a62461bcd0281526004016105cf90613bcd565b600260145460ff16600981111561295b5761295b6132e2565b1461297b5760405160e560020a62461bcd0281526004016105cf90613d5c565b6014805460ff1916600390811790915560155460015460405160e060020a63fe4162d1028152600160a060020a039283169363fe4162d1936129c593309391169190600401613b21565b600060405180830381600087803b1580156129df57600080fd5b505af11580156129f3573d6000803e3d6000fd5b505060155460025460145460405160e060020a63fe4162d1028152600160a060020a03938416955063fe4162d19450612a36933093169160ff1690600401613b21565b600060405180830381600087803b158015612a5057600080fd5b505af1158015612a64573d6000803e3d6000fd5b5050600054600254600d5460405160e060020a63a9059cbb028152600160a060020a03938416955063a9059cbb9450612aa39390921691600401613c8a565b6020604051808303816000875af1158015612ac2573d6000803e3d6000fd5b505050506040513d601f19601f82011682018060405250810190612ae691906138bd565b612b055760405160e560020a62461bcd0281526004016105cf90613ca3565b60165460145460015460025460405160e360020a630b9b56f3028152600160a060020a0394851694635cdab79894612b4c9460ff9091169390821692911690600401613e4e565b600060405180830381600087803b158015612b6657600080fd5b505af1158015612b7a573d6000803e3d6000fd5b5050505050565b600154600160a060020a0316338114612baf5760405160e560020a62461bcd0281526004016105cf90613bcd565b600260145460ff166009811115612bc857612bc86132e2565b14612be85760405160e560020a62461bcd0281526004016105cf90613d5c565b8115612d26576014805460ff1916600490811790915542600f5560155460015460405160e060020a63fe4162d1028152600160a060020a039283169363fe4162d193612c3b933093911691908101613b21565b600060405180830381600087803b158015612c5557600080fd5b505af1158015612c69573d6000803e3d6000fd5b505060155460025460145460405160e060020a63fe4162d1028152600160a060020a03938416955063fe4162d19450612cac933093169160ff1690600401613b21565b600060405180830381600087803b158015612cc657600080fd5b505af1158015612cda573d6000803e3d6000fd5b505060165460145460015460025460405160e360020a630b9b56f3028152600160a060020a039485169650635cdab7989550611c319460ff909416939283169290911690600401613d24565b6014805460ff1916600590811790915560155460015460405160e060020a63fe4162d1028152600160a060020a039283169363fe4162d193612d7093309391169190600401613b21565b600060405180830381600087803b158015612d8a57600080fd5b505af1158015612d9e573d6000803e3d6000fd5b505060155460025460145460405160e060020a63fe4162d1028152600160a060020a03938416955063fe4162d19450612de1933093169160ff1690600401613b21565b600060405180830381600087803b158015612dfb57600080fd5b505af1158015612e0f573d6000803e3d6000fd5b5050600054600254600d5460405160e060020a63a9059cbb028152600160a060020a03938416955063a9059cbb9450612e4e9390921691600401613c8a565b6020604051808303816000875af1158015612e6d573d6000803e3d6000fd5b505050506040513d601f19601f82011682018060405250810190612e9191906138bd565b612eb05760405160e560020a62461bcd0281526004016105cf90613ca3565b60165460145460015460025460405160e360020a630b9b56f3028152600160a060020a0394851694635cdab79894611c319460ff9091169390821692911690600401613e9c565b600780546008805491929161045a906137ef565b60606000612f1883612fbc565b60010190506000816001604060020a03811115612f3757612f37613316565b6040519080825280601f01601f191660200182016040528015612f61576020820181803683370190505b5090508181016020015b60001901608160020a6f181899199a1a9b1b9c1cb0b131b232b302600a86061a8153600a8504945084612f6b57509392505050565b6060612fb6600160a060020a038316601461309a565b92915050565b600080604060020a72184f03e93ff9f4daa797ed6e38ed64bf6a1f0102831061300157604060020a72184f03e93ff9f4daa797ed6e38ed64bf6a1f0102830492506040015b6d04ee2d6d415b85acef8100000000831061302d576d04ee2d6d415b85acef8100000000830492506020015b662386f26fc10000831061304b57662386f26fc10000830492506010015b6305f5e1008310613063576305f5e100830492506008015b612710831061307757612710830492506004015b60648310613089576064830492506002015b600a8310612fb65760010192915050565b606060006130a9836002613eea565b6130b4906002613d9e565b6001604060020a038111156130cb576130cb613316565b6040519080825280601f01601f1916602001820160405280156130f5576020820181803683370190505b50905060fc60020a6003028160008151811061311357613113613dcd565b6020010190600160f860020a031916908160001a90535060fb60020a600f028160018151811061314557613145613dcd565b6020010190600160f860020a031916908160001a9053506000613169846002613eea565b613174906001613d9e565b90505b60018111156131f157608160020a6f181899199a1a9b1b9c1cb0b131b232b30285600f16601081106131ab576131ab613dcd565b1a60f860020a028282815181106131c4576131c4613dcd565b6020010190600160f860020a031916908160001a9053506010909404936131ea81613f01565b9050613177565b5083156132435760405160e560020a62461bcd02815260206004820181905260248201527f537472696e67733a20686578206c656e67746820696e73756666696369656e7460448201526064016105cf565b9392505050565b60005b8381101561326557818101518382015260200161324d565b50506000910152565b6000815180845261328681602086016020860161324a565b601f01601f19169290920160200192915050565b8281526040602082015260006132b3604083018461326e565b949350505050565b602081526000613243602083018461326e565b600160a060020a0391909116815260200190565b60e060020a634e487b710260009081526021600452602490fd5b6020810160038310613310576133106132e2565b91905290565b60e060020a634e487b710260009081526041600452602490fd5b604051608081016001604060020a038111828210171561335257613352613316565b60405290565b604051601f8201601f191681016001604060020a038111828210171561338057613380613316565b604052919050565b600082601f83011261339957600080fd5b81356001604060020a038111156133b2576133b2613316565b6133c5601f8201601f1916602001613358565b8181528460208386010111156133da57600080fd5b816020850160208301376000918101602001919091529392505050565b6000806040838503121561340a57600080fd5b82356001604060020a038082111561342157600080fd5b908401906040828703121561343557600080fd5b60405160408101818110838211171561345057613450613316565b6040528235815260208301358281111561346957600080fd5b61347588828601613388565b602083015250809450505050602083013590509250929050565b600a811061349f5761349f6132e2565b9052565b60208101612fb6828461348f565b80151581146134bf57600080fd5b50565b600080600080608085870312156134d857600080fd5b84356134e3816134b1565b935060208501356134f3816134b1565b92506040850135613503816134b1565b91506060850135613513816134b1565b939692955090935050565b60006020828403121561353057600080fd5b81356001604060020a0381111561354657600080fd5b6132b384828501613388565b606081526000613565606083018661326e565b60208301949094525060400152919050565b60006020828403121561358957600080fd5b5035919050565b6080815260006135a3608083018761326e565b82810360208401526135b5818761326e565b905060ff8516604084015282810360608401526135d2818561326e565b979650505050505050565b600160a060020a03811681146134bf57600080fd5b80356135fd816135dd565b919050565b8035600381106135fd57600080fd5b600080600080600060a0868803121561362957600080fd5b6001604060020a03863581101561363f57600080fd5b8635870188601f82011261365257600080fd5b818135111561366357613663613316565b61367260208083350201613358565b81358082526020808301929181028401018b101561368f57600080fd5b602083015b6020808535028501018110156137755784813511156136b257600080fd5b803584016080818e03601f190112156136ca57600080fd5b6136d2613330565b86602083013511156136e357600080fd5b6136f58e602080850135850101613388565b8152866040830135111561370857600080fd5b61371b8e60206040850135850101613388565b6020820152606082013560ff81161461373357600080fd5b60608201356040820152866080830135111561374e57600080fd5b6137618e60206080850135850101613388565b606082015284525060209283019201613694565b5097505050602087013581101561378b57600080fd5b5061379c8760208801358801613388565b93506137aa604087016135f2565b92506137b860608701613602565b91506137c6608087016135f2565b90509295509295909350565b6000602082840312156137e457600080fd5b8135613243816134b1565b60028104600182168061380357607f821691505b6020821081036138275760e060020a634e487b710260009081526022600452602490fd5b50919050565b60006020828403121561383f57600080fd5b8151613243816135dd565b6000806040838503121561385d57600080fd5b505080516020909101519092909150565b60006020828403121561388057600080fd5b5051919050565b6000806000806080858703121561389d57600080fd5b505082516020840151604085015160609095015191969095509092509050565b6000602082840312156138cf57600080fd5b8151613243816134b1565b600160a060020a0392831681529116602082015260400190565b601f821115612902576000818152602081206020601f8601048101602086101561391b5750805b6020601f860104820191505b81811015611c5f57828155600101613927565b81516001604060020a0381111561395357613953613316565b6139678161396184546137ef565b846138f4565b602080601f8311600181146139a057600084156139845750858301515b60028086026008870290910a6000190419821617865550611c5f565b600085815260208120601f198616915b828110156139cf578886015182559484019460019091019084016139b0565b50858210156139ef57878501516008601f88160260020a60001904191681555b5050505050600202600101905550565b60008151613a1181856020860161324a565b9290920192915050565b60f260020a611f1f02815260020190565b60008751613a3e818460208c0161324a565b808301905060f860020a602b02815260008854613a5a816137ef565b600182168015613a715760018114613a8c57613ac5565b60ff1983166001860152600182151583028601019350613ac5565b8b600052602060002060005b83811015613aba57815460018289010152600182019150602081019050613a98565b505060018286010193505b505050613b13613b0d613b02613b07613b02613afc613aec613ae688613a1b565b8f6139ff565b60f860020a602b02815260010190565b8c6139ff565b613a1b565b896139ff565b866139ff565b9a9950505050505050505050565b600160a060020a03848116825283166020820152606081016132b3604083018461348f565b600160a060020a038581168252608082019060028610613b6857613b686132e2565b6020830186905284166040830152613b83606083018461348f565b95945050505050565b613b96818661348f565b608060208201526000613bac608083018661326e565b600160a060020a039485166040840152929093166060909101529392505050565b602080825260069082015260d060020a6521706172747902604082015260600190565b604081526000808454613c02816137ef565b8060408601526060600180841660008114613c245760018114613c3e57613c6f565b60ff19851688840152602084151502880183019550613c6f565b8960005260208060002060005b86811015613c665781548b8201870152908401908201613c4b565b8a018501975050505b50505050600160a060020a0385166020850152509050613243565b600160a060020a03929092168252602082015260400190565b602080825260049082015260e260020a63085cdb9d02604082015260600190565b60008251613cd681846020870161324a565b60f260020a611f1f0292019182525060d260020a65135053955053026002820152600801919050565b602080825260089082015260c260020a67085d1c985919525902604082015260600190565b613d2e818561348f565b608060208201819052600090820152600160a060020a0392831660408201529116606082015260a001919050565b6020808252600b9082015260a860020a6a74726473747321636f6d6d02604082015260600190565b60e060020a634e487b710260009081526011600452602490fd5b80820180821115612fb657612fb6613d84565b60008251613dc381846020870161324a565b9190910192915050565b60e060020a634e487b710260009081526032600452602490fd5b600060018201613df957613df9613d84565b5060010190565b613e0a818561348f565b608060208201819052600a9082015260b260020a6912d3c8111151905553150260a0820152600160a060020a0392831660408201529116606082015260c001919050565b613e58818561348f565b608060208201819052600a9082015260b260020a69109548111151905553150260a0820152600160a060020a0392831660408201529116606082015260c001919050565b613ea6818561348f565b608060208201819052600a9082015260b260020a6914d148111151905553150260a0820152600160a060020a0392831660408201529116606082015260c001919050565b8082028115828204841417612fb657612fb6613d84565b600081613f1057613f10613d84565b50600019019056fea2646970667358221220059f850e2e4be3bc472aca0bdd13c556df5b605caf8bdfe38245f326d87aab7864736f6c63430008130033",
  "immutableReferences": {},
  "source": "// //SPDX-License-Identifier: UNLICENSED\r\npragma solidity 0.8.19;\r\n\r\nimport {IERC20} from \"@openzeppelin/contracts/interfaces/IERC20.sol\";\r\n\r\nimport \"../Keepers/IKeepers.sol\";\r\nimport \"../Users/IUsers.sol\";\r\nimport {ITradeFactory, TradeUrl, Sticker, SkinInfo, PriceType } from \"../TradeFactory/ITradeFactory.sol\";\r\nimport {Strings} from \"../utils/Strings.sol\";\r\n\r\nimport \"../Referrals/IReferralRegistry.sol\";\r\n\r\ncontract CSXTrade {\r\n    IERC20 public paymentToken;\r\n    PriceType public priceType;\r\n\r\n    address public seller;\r\n    address public buyer;\r\n\r\n    string public itemMarketName;\r\n    string public itemSellerAssetId;\r\n\r\n    TradeUrl public sellerTradeUrl;\r\n    TradeUrl public buyerTradeUrl;\r\n\r\n    string public inspectLink;\r\n    string public itemImageUrl;\r\n    Sticker[] public stickers;\r\n\r\n    string public weaponType;\r\n\r\n    uint256 public depositedValue;\r\n    uint256 public weiPrice;\r\n\r\n    uint256 public sellerAcceptedTimestamp;\r\n    uint256 public buyerCommitTimestamp;\r\n\r\n    SkinInfo public skinInfo;\r\n\r\n    TradeStatus public status;\r\n\r\n    IKeepers public keepersContract;\r\n    IUsers public usersContract;\r\n    ITradeFactory public factoryContract;\r\n\r\n    IReferralRegistry public referralRegistryContract;\r\n\r\n    string public disputeComplaint;\r\n    TradeStatus public disputedStatus;\r\n    address public disputeer;\r\n\r\n    constructor(\r\n        address _factory,\r\n        address _keepers,\r\n        address _users,\r\n        address _seller,\r\n        uint256 _weiPrice,\r\n        string memory _itemMarketName,\r\n        TradeUrl memory _sellerTradeUrl,\r\n        string memory _sellerAssetId,\r\n        string memory _inspectLink,\r\n        string memory _itemImageUrl,\r\n        SkinInfo memory _skinInfo\r\n    ) {\r\n        factoryContract = ITradeFactory(_factory);\r\n        keepersContract = IKeepers(_keepers);\r\n        usersContract = IUsers(_users);\r\n        seller = _seller;\r\n        weiPrice = _weiPrice;\r\n        status = TradeStatus.ForSale;\r\n        itemMarketName = _itemMarketName;\r\n        sellerTradeUrl = _sellerTradeUrl;\r\n        itemSellerAssetId = _sellerAssetId;\r\n        inspectLink = _inspectLink;\r\n        itemImageUrl = _itemImageUrl;\r\n        skinInfo = _skinInfo;\r\n    }\r\n    bool public hasInit;\r\n\r\n    function initExtraInfo(\r\n        Sticker[] memory _stickers,\r\n        string memory _weaponType,\r\n        address _paymentToken,\r\n        PriceType _priceType,\r\n        address _referralRegistryContract\r\n    ) external {\r\n        require(msg.sender == address(factoryContract) && !hasInit, \"!factory\");\r\n        hasInit = true;\r\n        for (uint256 i = 0; i < _stickers.length; i++) {\r\n            stickers.push(_stickers[i]);\r\n        }\r\n        usersContract.addUserInteractionStatus(\r\n            address(this),\r\n            Role.SELLER,\r\n            seller,\r\n            TradeStatus.ForSale\r\n        );\r\n        weaponType = _weaponType;\r\n        paymentToken = IERC20(_paymentToken);\r\n        priceType = _priceType;\r\n        referralRegistryContract = IReferralRegistry(_referralRegistryContract);\r\n    }\r\n\r\n    function stickerLength() external view returns (uint256) {\r\n        return stickers.length;\r\n    }\r\n\r\n    modifier onlyAddress(address _address) {\r\n        require(msg.sender == _address, \"!party\");\r\n        _;\r\n    }\r\n\r\n    modifier onlyTheseAddresses(address _add1, address _add2) {\r\n        require(msg.sender == _add1 || msg.sender == _add2, \"!group\");\r\n        _;\r\n    }\r\n\r\n    modifier onlyKeeperNode() {\r\n        require(keepersContract.isKeeperNode(msg.sender));\r\n        _;\r\n    }\r\n\r\n    modifier onlyKeepersOrNode() {\r\n        require(\r\n            keepersContract.isKeeperNode(msg.sender) ||\r\n                keepersContract.indexOf(msg.sender) != 0,\r\n            \"!kepr or orcl\"\r\n        );\r\n        _;\r\n    }\r\n\r\n    // Seller can cancel the listing up til any buyer has committed tokens.\r\n    function sellerCancel() external onlyAddress(seller) {\r\n        require(status == TradeStatus.ForSale, \"st !pen\");\r\n        status = TradeStatus.SellerCancelled;\r\n        usersContract.changeUserInteractionStatus(\r\n            address(this),\r\n            seller,\r\n            status\r\n        );\r\n        string memory data = string(\r\n            abi.encodePacked(\r\n                Strings.toString(weiPrice) /*,\r\n                \"||\", */\r\n            )\r\n        );\r\n        factoryContract.onStatusChange(status, data, seller, buyer);\r\n        factoryContract.removeAssetIdUsed(itemSellerAssetId, seller);\r\n    }\r\n\r\n    // Buyer commits tokens to buy if status-state allows & Sends trade-offer to sellers trade-link off-chain.\r\n    function commitBuy(\r\n        TradeUrl memory _buyerTradeUrl,\r\n        bytes32 _affLink\r\n    ) public {\r\n        require(status == TradeStatus.ForSale, \"trd st !pen.\");\r\n        uint256 buyerNetValue;\r\n        bool hasRefferal = referralRegistryContract.getReferralCodeOwner(\r\n            _affLink\r\n        ) != address(0);\r\n\r\n        uint256 ownerRatio;\r\n\r\n        if(hasRefferal){\r\n            (uint256 _ownerRatio, /*uint256 buyerRatio*/) = referralRegistryContract.getReferralCodeRatios(_affLink);\r\n            ownerRatio = _ownerRatio;\r\n        }    \r\n\r\n        (\r\n            uint256 _buyerNetValue,\r\n            /*uint256 affililatorRebate*/,\r\n            /*uint256 holdersAmount*/,\r\n            /*uint256 discountedFee*/\r\n        ) = referralRegistryContract.calculateNetValue(\r\n                weiPrice,\r\n                hasRefferal,\r\n                factoryContract.baseFee(),\r\n                ownerRatio\r\n            );\r\n\r\n        buyerNetValue = _buyerNetValue;\r\n\r\n        require(paymentToken.transferFrom(msg.sender, address(this), buyerNetValue), 'transfer failed');\r\n        \r\n        require(msg.sender != seller, \"!seller\");\r\n        status = TradeStatus.BuyerCommitted;\r\n        buyerCommitTimestamp = block.timestamp;\r\n        usersContract.startDeliveryTimer(address(this), seller);\r\n        buyer = msg.sender;\r\n        buyerTradeUrl = _buyerTradeUrl;\r\n\r\n        depositedValue = paymentToken.balanceOf(address(this));\r\n\r\n        string memory data = string(\r\n            abi.encodePacked(\r\n                Strings.toString(sellerTradeUrl.partner),\r\n                \"+\",\r\n                sellerTradeUrl.token,\r\n                \"||\",\r\n                Strings.toString(_buyerTradeUrl.partner),\r\n                \"+\",\r\n                _buyerTradeUrl.token,\r\n                \"||\",\r\n                Strings.toHexString(msg.sender),\r\n                \"||\",\r\n                Strings.toString(weiPrice)\r\n            )\r\n        );\r\n\r\n        usersContract.changeUserInteractionStatus(\r\n            address(this),\r\n            seller,\r\n            status\r\n        );\r\n        usersContract.addUserInteractionStatus(\r\n            address(this),\r\n            Role.BUYER,\r\n            buyer,\r\n            status\r\n        );\r\n        factoryContract.onStatusChange(status, data, seller, buyer);\r\n    }\r\n\r\n    // Buyer can cancel the trade up til the seller has accepted the trade offer.\r\n    function buyerCancel() external onlyAddress(buyer) {\r\n        require(status == TradeStatus.BuyerCommitted, \"trdsts!comm\");\r\n        // require(block.timestamp >= buyerCommitTimestamp + 24 hours, \"!24hrs\");\r\n        // TODO: REMOVE THIS REQUIREMENT FOR TESTING\r\n        // require(block.timestamp >= buyerCommitTimestamp + 5 minutes, \"!5mnts\"); // FOR TESTING\r\n        status = TradeStatus.BuyerCancelled;\r\n        usersContract.changeUserInteractionStatus(\r\n            address(this),\r\n            seller,\r\n            status\r\n        );\r\n        usersContract.changeUserInteractionStatus(address(this), buyer, status);       \r\n \r\n\r\n        require(paymentToken.transfer(buyer, depositedValue), \"!snt\");\r\n\r\n        factoryContract.onStatusChange(status, \"BU DEFAULT\", seller, buyer);\r\n    }\r\n\r\n    // Seller Confirms or deny they have accepted the trade offer.\r\n    function sellerTradeVeridict(\r\n        bool sellerCommited\r\n    ) public onlyAddress(seller) {\r\n        require(status == TradeStatus.BuyerCommitted, \"trdsts!comm\");\r\n        if (sellerCommited) {\r\n            status = TradeStatus.SellerCommitted;\r\n            sellerAcceptedTimestamp = block.timestamp;\r\n            usersContract.changeUserInteractionStatus(\r\n                address(this),\r\n                seller,\r\n                status\r\n            );\r\n            usersContract.changeUserInteractionStatus(\r\n                address(this),\r\n                buyer,\r\n                status\r\n            );\r\n            factoryContract.onStatusChange(status, \"\", seller, buyer);\r\n        } else {\r\n            status = TradeStatus.SellerCancelledAfterBuyerCommitted;\r\n            usersContract.changeUserInteractionStatus(\r\n                address(this),\r\n                seller,\r\n                status\r\n            );\r\n            usersContract.changeUserInteractionStatus(\r\n                address(this),\r\n                buyer,\r\n                status\r\n            );\r\n            require(paymentToken.transfer(buyer, depositedValue), \"!snt\");\r\n            factoryContract.onStatusChange(status, \"SE DEFAULT\", seller, buyer);\r\n        }\r\n    }\r\n\r\n    // Buyer Confirms they have received the item.\r\n    function buyerConfirmReceived() public onlyAddress(buyer) {\r\n        require(\r\n            status == TradeStatus.BuyerCommitted ||\r\n                status == TradeStatus.SellerCommitted,\r\n            \"trdsts!comm|act.\"\r\n        );\r\n        status = TradeStatus.Completed;\r\n        usersContract.endDeliveryTimer(address(this), seller);\r\n        bool success = factoryContract.removeAssetIdUsed(\r\n            itemSellerAssetId,\r\n            seller\r\n        );\r\n        require(success, \"didn't remove tradeId\");\r\n        \r\n        require(paymentToken.transfer(seller, depositedValue), \"!snt\");\r\n\r\n        usersContract.changeUserInteractionStatus(\r\n            address(this),\r\n            seller,\r\n            status\r\n        );\r\n        usersContract.changeUserInteractionStatus(address(this), buyer, status);\r\n        string memory data = string(\r\n            abi.encodePacked(Strings.toString(weiPrice), \"||\", \"MANUAL\")\r\n        );\r\n        factoryContract.onStatusChange(status, data, seller, buyer);\r\n    }\r\n\r\n    // Seller confirms the trade has been made after 3 days from acceptance.\r\n    function sellerConfirmsTrade() external onlyAddress(seller) {\r\n        require(status == TradeStatus.SellerCommitted, \"trdsts!comm\");\r\n        require(\r\n            block.timestamp >= sellerAcceptedTimestamp + 3 days,\r\n            \"3 days not passed\"\r\n        );\r\n        status = TradeStatus.Completed;\r\n        usersContract.endDeliveryTimer(address(this), seller);\r\n        usersContract.changeUserInteractionStatus(\r\n            address(this),\r\n            seller,\r\n            status\r\n        );\r\n        usersContract.changeUserInteractionStatus(address(this), buyer, status);\r\n        \r\n        require(paymentToken.transfer(seller, depositedValue), \"!snt\");\r\n\r\n        string memory data = string(\r\n            abi.encodePacked(Strings.toString(weiPrice))\r\n        );\r\n        factoryContract.onStatusChange(status, data, seller, buyer);\r\n    }\r\n\r\n    // KeeperNode Confirms the trade has been made.\r\n    function keeperNodeConfirmsTrade(bool isTradeMade) external onlyKeeperNode {\r\n        require(\r\n            status == TradeStatus.BuyerCommitted ||\r\n                status == TradeStatus.SellerCommitted,\r\n            \"trdsts!>comm\"\r\n        );\r\n        if (isTradeMade) {\r\n            status = TradeStatus.Completed;\r\n            usersContract.endDeliveryTimer(address(this), seller);\r\n            usersContract.changeUserInteractionStatus(\r\n                address(this),\r\n                seller,\r\n                status\r\n            );\r\n            usersContract.changeUserInteractionStatus(\r\n                address(this),\r\n                buyer,\r\n                status\r\n            );\r\n            \r\n            require(paymentToken.transfer(seller, depositedValue), \"!snt\");\r\n\r\n            string memory data = string(\r\n                abi.encodePacked(Strings.toString(weiPrice))\r\n            );\r\n            factoryContract.onStatusChange(status, data, seller, buyer);\r\n        } else {\r\n            TradeStatus oldStatus = status;\r\n            status = TradeStatus.Clawbacked;\r\n            usersContract.changeUserInteractionStatus(\r\n                address(this),\r\n                seller,\r\n                status\r\n            );\r\n            if (oldStatus >= TradeStatus.BuyerCommitted) {\r\n                usersContract.changeUserInteractionStatus(\r\n                    address(this),\r\n                    buyer,\r\n                    status\r\n                );\r\n            }            \r\n            require(paymentToken.transfer(buyer, depositedValue), \"!snt\");\r\n            factoryContract.onStatusChange(status, \"KO DEFAULT\", seller, buyer);\r\n        }\r\n\r\n        bool raS = factoryContract.removeAssetIdUsed(itemSellerAssetId, seller);\r\n        require(raS, \"!tradeId\");\r\n    }\r\n\r\n    // Or Buyer/Seller opens dispute in any state.\r\n    function openDispute(\r\n        string memory _complaint\r\n    ) external onlyTheseAddresses(seller, buyer) {\r\n        require(\r\n            status != TradeStatus.Disputed &&\r\n                status != TradeStatus.Resolved &&\r\n                status != TradeStatus.Clawbacked,\r\n            \"alreadyDis\"\r\n        );\r\n        status = TradeStatus.Disputed;\r\n        disputeer = msg.sender;\r\n        disputedStatus = status;\r\n        disputeComplaint = _complaint;\r\n        usersContract.changeUserInteractionStatus(\r\n            address(this),\r\n            seller,\r\n            status\r\n        );\r\n        usersContract.changeUserInteractionStatus(address(this), buyer, status);\r\n        factoryContract.onStatusChange(status, _complaint, seller, buyer);\r\n    }\r\n\r\n    // Keepers & KeeperNode resolves the dispute.\r\n    function resolveDispute(\r\n        bool isFavourOfBuyer,\r\n        bool giveWarningToSeller,\r\n        bool giveWarningToBuyer,\r\n        bool isWithValue\r\n    ) external onlyKeepersOrNode {\r\n        require(status == TradeStatus.Disputed, \"!disp\");\r\n        bool success = factoryContract.removeAssetIdUsed(\r\n            itemSellerAssetId,\r\n            seller\r\n        );\r\n        require(success, \"!tradeId\");\r\n        if (isFavourOfBuyer) {\r\n            status == TradeStatus.Clawbacked;\r\n            if (isWithValue) {\r\n                require(paymentToken.transfer(buyer, depositedValue), \"!snt\");\r\n            }\r\n        } else {\r\n            status = TradeStatus.Resolved;\r\n            if (isWithValue) {\r\n                require(paymentToken.transfer(seller, depositedValue), \"!snt\");\r\n            }\r\n        }\r\n        if (giveWarningToSeller) {\r\n            usersContract.warnUser(seller);\r\n        }\r\n        if (giveWarningToBuyer) {\r\n            usersContract.warnUser(buyer);\r\n        }\r\n        usersContract.changeUserInteractionStatus(\r\n            address(this),\r\n            seller,\r\n            status\r\n        );\r\n        usersContract.changeUserInteractionStatus(address(this), buyer, status);\r\n        factoryContract.onStatusChange(status, \"\", seller, buyer);\r\n    }\r\n}\r\n",
  "sourcePath": "C:\\Users\\Charl\\Documents\\Projects\\SteamMarket\\CSX\\csx-contracts\\contracts\\Trade\\Trade.sol",
  "compiler": {
    "name": "solc",
    "version": "0.8.19+commit.7dd6d404.Emscripten.clang"
  },
  "schemaVersion": "3.4.3",
  "updatedAt": "2023-04-19T09:26:27.741Z",
  "devdoc": {
    "kind": "dev",
    "methods": {},
    "version": 1
  },
  "userdoc": {
    "kind": "user",
    "methods": {},
    "version": 1
  }
}