{
  "contractName": "CSXTradeFactory",
  "abi": [
    {
      "inputs": [
        {
          "internalType": "address",
          "name": "_keepers",
          "type": "address"
        },
        {
          "internalType": "address",
          "name": "_users",
          "type": "address"
        },
        {
          "internalType": "address",
          "name": "_tradeFactoryBaseStorage",
          "type": "address"
        },
        {
          "internalType": "uint256",
          "name": "_baseFee",
          "type": "uint256"
        },
        {
          "components": [
            {
              "internalType": "address",
              "name": "weth",
              "type": "address"
            },
            {
              "internalType": "address",
              "name": "usdc",
              "type": "address"
            },
            {
              "internalType": "address",
              "name": "usdt",
              "type": "address"
            }
          ],
          "internalType": "struct PaymentTokens",
          "name": "_paymentTokens",
          "type": "tuple"
        },
        {
          "internalType": "address",
          "name": "_referralRegistryAddress",
          "type": "address"
        },
        {
          "internalType": "address",
          "name": "_sCSXTokenAddress",
          "type": "address"
        },
        {
          "internalType": "address",
          "name": "_buyAssistoor",
          "type": "address"
        }
      ],
      "stateMutability": "nonpayable",
      "type": "constructor"
    },
    {
      "anonymous": false,
      "inputs": [
        {
          "indexed": false,
          "internalType": "address",
          "name": "contractAddress",
          "type": "address"
        },
        {
          "indexed": false,
          "internalType": "enum TradeStatus",
          "name": "",
          "type": "uint8"
        },
        {
          "indexed": false,
          "internalType": "string",
          "name": "data",
          "type": "string"
        },
        {
          "indexed": false,
          "internalType": "address",
          "name": "sellerAddress",
          "type": "address"
        },
        {
          "indexed": false,
          "internalType": "address",
          "name": "buyerAddress",
          "type": "address"
        }
      ],
      "name": "TradeContractStatusChange",
      "type": "event"
    },
    {
      "inputs": [
        {
          "internalType": "string",
          "name": "",
          "type": "string"
        },
        {
          "internalType": "address",
          "name": "",
          "type": "address"
        }
      ],
      "name": "assetIdFromUserAddrssToTradeAddrss",
      "outputs": [
        {
          "internalType": "address",
          "name": "",
          "type": "address"
        }
      ],
      "stateMutability": "view",
      "type": "function"
    },
    {
      "inputs": [],
      "name": "baseFee",
      "outputs": [
        {
          "internalType": "uint256",
          "name": "",
          "type": "uint256"
        }
      ],
      "stateMutability": "view",
      "type": "function"
    },
    {
      "inputs": [],
      "name": "buyAssistoor",
      "outputs": [
        {
          "internalType": "address",
          "name": "",
          "type": "address"
        }
      ],
      "stateMutability": "view",
      "type": "function"
    },
    {
      "inputs": [
        {
          "internalType": "uint256",
          "name": "_baseFee",
          "type": "uint256"
        }
      ],
      "name": "changeBaseFee",
      "outputs": [],
      "stateMutability": "nonpayable",
      "type": "function"
    },
    {
      "inputs": [
        {
          "internalType": "string",
          "name": "_assetId",
          "type": "string"
        },
        {
          "internalType": "address",
          "name": "sellerAddrss",
          "type": "address"
        }
      ],
      "name": "hasAlreadyListedItem",
      "outputs": [
        {
          "internalType": "bool",
          "name": "",
          "type": "bool"
        }
      ],
      "stateMutability": "view",
      "type": "function"
    },
    {
      "inputs": [
        {
          "internalType": "address",
          "name": "contractAddress",
          "type": "address"
        }
      ],
      "name": "isThisTradeContract",
      "outputs": [
        {
          "internalType": "bool",
          "name": "",
          "type": "bool"
        }
      ],
      "stateMutability": "view",
      "type": "function"
    },
    {
      "inputs": [],
      "name": "keepersContract",
      "outputs": [
        {
          "internalType": "contract IKeepers",
          "name": "",
          "type": "address"
        }
      ],
      "stateMutability": "view",
      "type": "function"
    },
    {
      "inputs": [
        {
          "internalType": "enum TradeStatus",
          "name": "status",
          "type": "uint8"
        },
        {
          "internalType": "string",
          "name": "data",
          "type": "string"
        },
        {
          "internalType": "address",
          "name": "sellerAddress",
          "type": "address"
        },
        {
          "internalType": "address",
          "name": "buyerAddress",
          "type": "address"
        }
      ],
      "name": "onStatusChange",
      "outputs": [],
      "stateMutability": "nonpayable",
      "type": "function"
    },
    {
      "inputs": [],
      "name": "paymentTokens",
      "outputs": [
        {
          "internalType": "address",
          "name": "weth",
          "type": "address"
        },
        {
          "internalType": "address",
          "name": "usdc",
          "type": "address"
        },
        {
          "internalType": "address",
          "name": "usdt",
          "type": "address"
        }
      ],
      "stateMutability": "view",
      "type": "function"
    },
    {
      "inputs": [],
      "name": "referralRegistryAddress",
      "outputs": [
        {
          "internalType": "address",
          "name": "",
          "type": "address"
        }
      ],
      "stateMutability": "view",
      "type": "function"
    },
    {
      "inputs": [
        {
          "internalType": "string",
          "name": "_assetId",
          "type": "string"
        },
        {
          "internalType": "address",
          "name": "sellerAddrss",
          "type": "address"
        }
      ],
      "name": "removeAssetIdUsed",
      "outputs": [
        {
          "internalType": "bool",
          "name": "",
          "type": "bool"
        }
      ],
      "stateMutability": "nonpayable",
      "type": "function"
    },
    {
      "inputs": [],
      "name": "sCSXTokenAddress",
      "outputs": [
        {
          "internalType": "address",
          "name": "",
          "type": "address"
        }
      ],
      "stateMutability": "view",
      "type": "function"
    },
    {
      "inputs": [],
      "name": "totalContracts",
      "outputs": [
        {
          "internalType": "uint256",
          "name": "",
          "type": "uint256"
        }
      ],
      "stateMutability": "view",
      "type": "function"
    },
    {
      "inputs": [],
      "name": "usersContract",
      "outputs": [
        {
          "internalType": "contract IUsers",
          "name": "",
          "type": "address"
        }
      ],
      "stateMutability": "view",
      "type": "function"
    },
    {
      "inputs": [
        {
          "components": [
            {
              "internalType": "string",
              "name": "itemMarketName",
              "type": "string"
            },
            {
              "components": [
                {
                  "internalType": "uint256",
                  "name": "partner",
                  "type": "uint256"
                },
                {
                  "internalType": "string",
                  "name": "token",
                  "type": "string"
                }
              ],
              "internalType": "struct TradeUrl",
              "name": "tradeUrl",
              "type": "tuple"
            },
            {
              "internalType": "string",
              "name": "assetId",
              "type": "string"
            },
            {
              "internalType": "string",
              "name": "inspectLink",
              "type": "string"
            },
            {
              "internalType": "string",
              "name": "itemImageUrl",
              "type": "string"
            },
            {
              "internalType": "uint256",
              "name": "weiPrice",
              "type": "uint256"
            },
            {
              "components": [
                {
                  "internalType": "string",
                  "name": "floatValues",
                  "type": "string"
                },
                {
                  "internalType": "uint256",
                  "name": "paintSeed",
                  "type": "uint256"
                },
                {
                  "internalType": "uint256",
                  "name": "paintIndex",
                  "type": "uint256"
                }
              ],
              "internalType": "struct SkinInfo",
              "name": "skinInfo",
              "type": "tuple"
            },
            {
              "components": [
                {
                  "internalType": "string",
                  "name": "name",
                  "type": "string"
                },
                {
                  "internalType": "string",
                  "name": "material",
                  "type": "string"
                },
                {
                  "internalType": "uint8",
                  "name": "slot",
                  "type": "uint8"
                },
                {
                  "internalType": "string",
                  "name": "imageLink",
                  "type": "string"
                }
              ],
              "internalType": "struct Sticker[]",
              "name": "stickers",
              "type": "tuple[]"
            },
            {
              "internalType": "string",
              "name": "weaponType",
              "type": "string"
            },
            {
              "internalType": "enum PriceType",
              "name": "priceType",
              "type": "uint8"
            }
          ],
          "internalType": "struct ListingParams",
          "name": "params",
          "type": "tuple"
        }
      ],
      "name": "createListingContract",
      "outputs": [],
      "stateMutability": "nonpayable",
      "type": "function"
    },
    {
      "inputs": [
        {
          "internalType": "uint256",
          "name": "index",
          "type": "uint256"
        }
      ],
      "name": "getTradeDetailsByIndex",
      "outputs": [
        {
          "components": [
            {
              "internalType": "address",
              "name": "contractAddress",
              "type": "address"
            },
            {
              "internalType": "address",
              "name": "seller",
              "type": "address"
            },
            {
              "components": [
                {
                  "internalType": "uint256",
                  "name": "partner",
                  "type": "uint256"
                },
                {
                  "internalType": "string",
                  "name": "token",
                  "type": "string"
                }
              ],
              "internalType": "struct TradeUrl",
              "name": "sellerTradeUrl",
              "type": "tuple"
            },
            {
              "internalType": "address",
              "name": "buyer",
              "type": "address"
            },
            {
              "components": [
                {
                  "internalType": "uint256",
                  "name": "partner",
                  "type": "uint256"
                },
                {
                  "internalType": "string",
                  "name": "token",
                  "type": "string"
                }
              ],
              "internalType": "struct TradeUrl",
              "name": "buyerTradeUrl",
              "type": "tuple"
            },
            {
              "internalType": "string",
              "name": "itemMarketName",
              "type": "string"
            },
            {
              "internalType": "string",
              "name": "inspectLink",
              "type": "string"
            },
            {
              "internalType": "string",
              "name": "itemImageUrl",
              "type": "string"
            },
            {
              "internalType": "uint256",
              "name": "weiPrice",
              "type": "uint256"
            },
            {
              "internalType": "uint256",
              "name": "averageSellerDeliveryTime",
              "type": "uint256"
            },
            {
              "components": [
                {
                  "internalType": "string",
                  "name": "floatValues",
                  "type": "string"
                },
                {
                  "internalType": "uint256",
                  "name": "paintSeed",
                  "type": "uint256"
                },
                {
                  "internalType": "uint256",
                  "name": "paintIndex",
                  "type": "uint256"
                }
              ],
              "internalType": "struct SkinInfo",
              "name": "skinInfo",
              "type": "tuple"
            },
            {
              "internalType": "enum TradeStatus",
              "name": "status",
              "type": "uint8"
            },
            {
              "components": [
                {
                  "internalType": "string",
                  "name": "name",
                  "type": "string"
                },
                {
                  "internalType": "string",
                  "name": "material",
                  "type": "string"
                },
                {
                  "internalType": "uint8",
                  "name": "slot",
                  "type": "uint8"
                },
                {
                  "internalType": "string",
                  "name": "imageLink",
                  "type": "string"
                }
              ],
              "internalType": "struct Sticker[]",
              "name": "stickers",
              "type": "tuple[]"
            },
            {
              "internalType": "string",
              "name": "weaponType",
              "type": "string"
            },
            {
              "internalType": "enum PriceType",
              "name": "priceType",
              "type": "uint8"
            },
            {
              "internalType": "string",
              "name": "assetId",
              "type": "string"
            }
          ],
          "internalType": "struct TradeInfo",
          "name": "result",
          "type": "tuple"
        }
      ],
      "stateMutability": "view",
      "type": "function"
    },
    {
      "inputs": [
        {
          "internalType": "address",
          "name": "tradeAddrs",
          "type": "address"
        }
      ],
      "name": "getTradeDetailsByAddress",
      "outputs": [
        {
          "components": [
            {
              "internalType": "address",
              "name": "contractAddress",
              "type": "address"
            },
            {
              "internalType": "address",
              "name": "seller",
              "type": "address"
            },
            {
              "components": [
                {
                  "internalType": "uint256",
                  "name": "partner",
                  "type": "uint256"
                },
                {
                  "internalType": "string",
                  "name": "token",
                  "type": "string"
                }
              ],
              "internalType": "struct TradeUrl",
              "name": "sellerTradeUrl",
              "type": "tuple"
            },
            {
              "internalType": "address",
              "name": "buyer",
              "type": "address"
            },
            {
              "components": [
                {
                  "internalType": "uint256",
                  "name": "partner",
                  "type": "uint256"
                },
                {
                  "internalType": "string",
                  "name": "token",
                  "type": "string"
                }
              ],
              "internalType": "struct TradeUrl",
              "name": "buyerTradeUrl",
              "type": "tuple"
            },
            {
              "internalType": "string",
              "name": "itemMarketName",
              "type": "string"
            },
            {
              "internalType": "string",
              "name": "inspectLink",
              "type": "string"
            },
            {
              "internalType": "string",
              "name": "itemImageUrl",
              "type": "string"
            },
            {
              "internalType": "uint256",
              "name": "weiPrice",
              "type": "uint256"
            },
            {
              "internalType": "uint256",
              "name": "averageSellerDeliveryTime",
              "type": "uint256"
            },
            {
              "components": [
                {
                  "internalType": "string",
                  "name": "floatValues",
                  "type": "string"
                },
                {
                  "internalType": "uint256",
                  "name": "paintSeed",
                  "type": "uint256"
                },
                {
                  "internalType": "uint256",
                  "name": "paintIndex",
                  "type": "uint256"
                }
              ],
              "internalType": "struct SkinInfo",
              "name": "skinInfo",
              "type": "tuple"
            },
            {
              "internalType": "enum TradeStatus",
              "name": "status",
              "type": "uint8"
            },
            {
              "components": [
                {
                  "internalType": "string",
                  "name": "name",
                  "type": "string"
                },
                {
                  "internalType": "string",
                  "name": "material",
                  "type": "string"
                },
                {
                  "internalType": "uint8",
                  "name": "slot",
                  "type": "uint8"
                },
                {
                  "internalType": "string",
                  "name": "imageLink",
                  "type": "string"
                }
              ],
              "internalType": "struct Sticker[]",
              "name": "stickers",
              "type": "tuple[]"
            },
            {
              "internalType": "string",
              "name": "weaponType",
              "type": "string"
            },
            {
              "internalType": "enum PriceType",
              "name": "priceType",
              "type": "uint8"
            },
            {
              "internalType": "string",
              "name": "assetId",
              "type": "string"
            }
          ],
          "internalType": "struct TradeInfo",
          "name": "result",
          "type": "tuple"
        }
      ],
      "stateMutability": "view",
      "type": "function"
    },
    {
      "inputs": [
        {
          "internalType": "enum TradeStatus",
          "name": "status",
          "type": "uint8"
        },
        {
          "internalType": "uint256",
          "name": "indexFrom",
          "type": "uint256"
        },
        {
          "internalType": "uint256",
          "name": "maxResults",
          "type": "uint256"
        }
      ],
      "name": "getTradeIndexesByStatus",
      "outputs": [
        {
          "components": [
            {
              "internalType": "uint256",
              "name": "index",
              "type": "uint256"
            },
            {
              "internalType": "uint256",
              "name": "weiPrice",
              "type": "uint256"
            },
            {
              "internalType": "enum PriceType",
              "name": "priceType",
              "type": "uint8"
            },
            {
              "internalType": "string",
              "name": "weaponType",
              "type": "string"
            },
            {
              "internalType": "string",
              "name": "itemMarketName",
              "type": "string"
            },
            {
              "internalType": "uint256",
              "name": "nextIndex",
              "type": "uint256"
            }
          ],
          "internalType": "struct TradeIndex[]",
          "name": "",
          "type": "tuple[]"
        }
      ],
      "stateMutability": "view",
      "type": "function"
    },
    {
      "inputs": [
        {
          "internalType": "enum TradeStatus",
          "name": "status",
          "type": "uint8"
        }
      ],
      "name": "getTradeCountByStatus",
      "outputs": [
        {
          "internalType": "uint256",
          "name": "",
          "type": "uint256"
        }
      ],
      "stateMutability": "view",
      "type": "function"
    }
  ],
  "bytecode": "0x60806040523480156200001157600080fd5b506040516200310f3803806200310f833981016040819052620000349162000109565b6001600081905560048054600160a060020a0319908116600160a060020a039b8c1617909155600580548216998b1699909917909855600680548916978a16979097179096559390945581516008805487169188169190911790556020820151600980548716918816919091179055604090910151600a80548616918716919091179055600b80548516918616919091179055600c8054841692851692909217909155600d8054909216921691909117905562000235565b8051600160a060020a03811681146200010457600080fd5b919050565b600080600080600080600080888a036101408112156200012857600080fd5b620001338a620000ec565b98506200014360208b01620000ec565b97506200015360408b01620000ec565b965060608a015195506060607f19820112156200016f57600080fd5b506040516060810181811067ffffffffffffffff82111715620001bb577f4e487b7100000000000000000000000000000000000000000000000000000000600052604160045260246000fd5b604052620001cc60808b01620000ec565b8152620001dc60a08b01620000ec565b6020820152620001ef60c08b01620000ec565b604082015293506200020460e08a01620000ec565b9250620002156101008a01620000ec565b9150620002266101208a01620000ec565b90509295985092959890939650565b612eca80620002456000396000f3fe608060405234801561001057600080fd5b50600436106101255760003560e060020a900480636311c2f2116100b1578063adea486611610075578063adea4866146102c6578063c2bd884b146102d9578063e8610294146102ec578063eff6be2f146102ff578063f983567d1461031257600080fd5b80636311c2f2146102535780636e4235f6146102765780636ef25c3a146102a25780637c31f38b146102ab578063a09037a9146102be57600080fd5b806333034d71116100f857806333034d71146101ca578063346c743d146101ea57806348e6f7a11461020a5780635a9ad1e01461021d5780635cdab7981461023e57600080fd5b8063142ebf3c1461012a5780631f02d6fe1461015a578063204cd72e1461016d57806325ef180d14610180575b600080fd5b60055461013d90600160a060020a031681565b604051600160a060020a0390911681526020015b60405180910390f35b600d5461013d90600160a060020a031681565b600c5461013d90600160a060020a031681565b600854600954600a546101a092600160a060020a03908116928116911683565b60408051600160a060020a0394851681529284166020840152921691810191909152606001610151565b6101dd6101d8366004611e33565b610356565b6040516101519190611fee565b6101fd6101f83660046121ab565b610d86565b60405161015191906121e0565b600b5461013d90600160a060020a031681565b61023061022b366004612298565b610feb565b604051908152602001610151565b61025161024c3660046123f5565b6110d7565b005b61026661026136600461246a565b611188565b6040519015158152602001610151565b6102666102843660046124bc565b600160a060020a031660009081526003602052604090205460ff1690565b61023060015481565b6102666102b936600461246a565b611254565b6102306112ad565b6101dd6102d43660046124bc565b611339565b60045461013d90600160a060020a031681565b6102516102fa366004612723565b61136a565b61025161030d366004611e33565b611aa1565b61013d61032036600461246a565b815160208184018101805160078252928201948201949094209190935290915260009081526040902054600160a060020a031681565b61035e611d18565b6006546040517f4eb9c034000000000000000000000000000000000000000000000000000000008152600481018490528391600091600160a060020a0390911690634eb9c03490602401602060405180830381865afa1580156103c5573d6000803e3d6000fd5b505050506040513d601f19601f820116820180604052508101906103e991906128af565b600160a060020a038116808552604080517f08551a53000000000000000000000000000000000000000000000000000000008152905192935090916308551a53916004808201926020929091908290030181865afa15801561044f573d6000803e3d6000fd5b505050506040513d601f19601f8201168201806040525081019061047391906128af565b8360200190600160a060020a03169081600160a060020a03168152505080600160a060020a0316637150d8ae6040518163ffffffff1660e060020a028152600401602060405180830381865afa1580156104d1573d6000803e3d6000fd5b505050506040513d601f19601f820116820180604052508101906104f591906128af565b8360600190600160a060020a03169081600160a060020a03168152505080600160a060020a0316631e86221f6040518163ffffffff1660e060020a028152600401600060405180830381865afa158015610553573d6000803e3d6000fd5b505050506040513d6000823e601f3d908101601f1916820160405261057b9190810190612911565b8360a0018190525080600160a060020a03166370e066f66040518163ffffffff1660e060020a028152600401600060405180830381865afa1580156105c4573d6000803e3d6000fd5b505050506040513d6000823e601f3d908101601f191682016040526105ec9190810190612911565b60c084015260408051808201909152600081526060602082015281600160a060020a03166302197c556040518163ffffffff1660e060020a028152600401600060405180830381865afa158015610647573d6000803e3d6000fd5b505050506040513d6000823e601f3d908101601f1916820160405261066f9190810190612946565b602080840191909152908252604080860183905280518082019091526000815260609181019190915282600160a060020a031663fddd56c56040518163ffffffff1660e060020a028152600401600060405180830381865afa1580156106d9573d6000803e3d6000fd5b505050506040513d6000823e601f3d908101601f191682016040526107019190810190612946565b60208084019190915290825260808601829052604080517fe29b9e970000000000000000000000000000000000000000000000000000000081529051600160a060020a0386169263e29b9e9792600480820193918290030181865afa15801561076e573d6000803e3d6000fd5b505050506040513d601f19601f82011682018060405250810190610792919061298d565b8561010001818152505082600160a060020a031663e67d55236040518163ffffffff1660e060020a028152600401600060405180830381865afa1580156107dd573d6000803e3d6000fd5b505050506040513d6000823e601f3d908101601f191682016040526108059190810190612911565b60e086015260055460208601516040517f791bd0d0000000000000000000000000000000000000000000000000000000008152600160a060020a03918216600482015291169063791bd0d090602401602060405180830381865afa158015610871573d6000803e3d6000fd5b505050506040513d601f19601f82011682018060405250810190610895919061298d565b610120860152604080516060808201835281526000602082018190529181019190915283600160a060020a0316636fed1d7e6040518163ffffffff1660e060020a028152600401600060405180830381865afa1580156108f9573d6000803e3d6000fd5b505050506040513d6000823e601f3d908101601f1916820160405261092191908101906129a6565b604080850191909152602080850192909252918352610140880183905281517f200d2ed20000000000000000000000000000000000000000000000000000000081529151600160a060020a0387169263200d2ed29260048083019391928290030181865afa158015610997573d6000803e3d6000fd5b505050506040513d601f19601f820116820180604052508101906109bb91906129f6565b86610160019060098111156109d2576109d2611ef8565b908160098111156109e5576109e5611ef8565b81525050600084600160a060020a031663f4a84e0f6040518163ffffffff1660e060020a028152600401602060405180830381865afa158015610a2c573d6000803e3d6000fd5b505050506040513d601f19601f82011682018060405250810190610a50919061298d565b905060008167ffffffffffffffff811115610a6d57610a6d6122b5565b604051908082528060200260200182016040528015610acc57816020015b610ab960405180608001604052806060815260200160608152602001600060ff168152602001606081525090565b815260200190600190039081610a8b5790505b50905060005b8151811015610bfa576040517f8f965d8000000000000000000000000000000000000000000000000000000000815260048101829052600160a060020a03881690638f965d8090602401600060405180830381865afa158015610b39573d6000803e3d6000fd5b505050506040513d6000823e601f3d908101601f19168201604052610b619190810190612a13565b858581518110610b7357610b73612aaf565b6020026020010151600001868681518110610b9057610b90612aaf565b6020026020010151602001878781518110610bad57610bad612aaf565b6020026020010151604001888881518110610bca57610bca612aaf565b60209081029190910101516060019390935260ff9093169091529190525280610bf281612b0d565b915050610ad2565b508088610180018190525085600160a060020a0316638dada6d86040518163ffffffff1660e060020a028152600401600060405180830381865afa158015610c46573d6000803e3d6000fd5b505050506040513d6000823e601f3d908101601f19168201604052610c6e9190810190612911565b886101a0018190525085600160a060020a0316631c925df06040518163ffffffff1660e060020a028152600401602060405180830381865afa158015610cb8573d6000803e3d6000fd5b505050506040513d601f19601f82011682018060405250810190610cdc9190612b26565b886101c001906002811115610cf357610cf3611ef8565b90816002811115610d0657610d06611ef8565b8152505085600160a060020a03166302d8ee9c6040518163ffffffff1660e060020a028152600401600060405180830381865afa158015610d4b573d6000803e3d6000fd5b505050506040513d6000823e601f3d908101601f19168201604052610d739190810190612911565b6101e08901525095979650505050505050565b606060008267ffffffffffffffff811115610da357610da36122b5565b604051908082528060200260200182016040528015610ddc57816020015b610dc9611dec565b815260200190600190039081610dc15790505b5090506000808590506000600660009054906101000a9004600160a060020a0316600160a060020a031663a09037a96040518163ffffffff1660e060020a028152600401602060405180830381865afa158015610e3d573d6000803e3d6000fd5b505050506040513d601f19601f82011682018060405250810190610e61919061298d565b90505b8583108015610e7257508082105b15610fdf576000610e8283610356565b9050886009811115610e9657610e96611ef8565b8161016001516009811115610ead57610ead611ef8565b03610fce5782858581518110610ec557610ec5612aaf565b60200260200101516000018181525050806101000151858581518110610eed57610eed612aaf565b60200260200101516020018181525050806101c00151858581518110610f1557610f15612aaf565b6020026020010151604001906002811115610f3257610f32611ef8565b90816002811115610f4557610f45611ef8565b81525050806101a00151858581518110610f6157610f61612aaf565b6020026020010151606001819052508060a00151858581518110610f8757610f87612aaf565b602090810291909101015160800152610fa1836001612b43565b858581518110610fb357610fb3612aaf565b602090810291909101015160a00152610fcb84612b0d565b93505b610fd783612b0d565b925050610e64565b50919695505050505050565b600080600080600660009054906101000a9004600160a060020a0316600160a060020a031663a09037a96040518163ffffffff1660e060020a028152600401602060405180830381865afa158015611047573d6000803e3d6000fd5b505050506040513d601f19601f8201168201806040525081019061106b919061298d565b90505b808210156110ce57600061108183610356565b905085600981111561109557611095611ef8565b81610160015160098111156110ac576110ac611ef8565b036110bd576110ba84612b0d565b93505b6110c683612b0d565b92505061106e565b50909392505050565b3360009081526003602052604090205460ff1661114357604051600080516020612e75833981519152815260206004820152600360248201527f217463000000000000000000000000000000000000000000000000000000000060448201526064015b60405180910390fd5b7f2c6c2c8fac99064b89e2a97cba30b9bce7b1a84a55e0310e16b56924c6ab2f45338585858560405161117a959493929190612b56565b60405180910390a150505050565b3360009081526003602052604081205460ff166111ef57604051600080516020612e75833981519152815260206004820152600360248201527f2174630000000000000000000000000000000000000000000000000000000000604482015260640161113a565b60006007846040516112019190612ba0565b9081526040805160209281900383019020600160a060020a0386811660009081529190935220805473ffffffffffffffffffffffffffffffffffffffff1916929091169190911790555060015b92915050565b600080600160a060020a03166007846040516112709190612ba0565b9081526040805160209281900383019020600160a060020a03868116600090815291909352205416036112a55750600061124e565b50600161124e565b600654604080517fa09037a90000000000000000000000000000000000000000000000000000000081529051600092600160a060020a03169163a09037a99160048083019260209291908290030181865afa158015611310573d6000803e3d6000fd5b505050506040513d601f19601f82011682018060405250810190611334919061298d565b905090565b611341611d18565b600160a060020a03821660009081526002602052604090205461136381610356565b9392505050565b611372611b35565b6005546040517f97f735d5000000000000000000000000000000000000000000000000000000008152336004820152600160a060020a03909116906397f735d590602401602060405180830381865afa1580156113d3573d6000803e3d6000fd5b505050506040513d601f19601f820116820180604052508101906113f79190612bbc565b1561144c57604051600080516020612e75833981519152815260206004820152600360248201527f626e640000000000000000000000000000000000000000000000000000000000604482015260640161113a565b6000600160a060020a03166007826040015160405161146b9190612ba0565b90815260408051602092819003830190203360009081529252902054600160a060020a0316146114e557604051600080516020612e75833981519152815260206004820152600260248201527f6964000000000000000000000000000000000000000000000000000000000000604482015260640161113a565b600654815160208301516040808501516060860151608087015160a088015160c089015194517f77d60b9a000000000000000000000000000000000000000000000000000000008152600160a060020a03909816976377d60b9a97611554979096909594939291600401612bde565b600060405180830381600087803b15801561156e57600080fd5b505af1158015611582573d6000803e3d6000fd5b505050506000600660009054906101000a9004600160a060020a0316600160a060020a03166394a792e16040518163ffffffff1660e060020a028152600401602060405180830381865afa1580156115de573d6000803e3d6000fd5b505050506040513d601f19601f8201168201806040525081019061160291906128af565b90506000600660009054906101000a9004600160a060020a0316600160a060020a031663a09037a96040518163ffffffff1660e060020a028152600401602060405180830381865afa15801561165c573d6000803e3d6000fd5b505050506040513d601f19601f82011682018060405250810190611680919061298d565b600160a060020a038084166000908152600360205260408120805460ff19166001908117909155600654939450909290911690634eb9c034906116c39085612c67565b6040518263ffffffff1660e060020a0281526004016116e491815260200190565b602060405180830381865afa158015611701573d6000803e3d6000fd5b505050506040513d601f19601f8201168201806040525081019061172591906128af565b90506000846101200151600281111561174057611740611ef8565b036117ea5760e0840151610100850151600854610120870151600b54600c546040517feee0efec000000000000000000000000000000000000000000000000000000008152600160a060020a038089169763eee0efec976117b39791969095918316949093918316921690600401612c7a565b600060405180830381600087803b1580156117cd57600080fd5b505af11580156117e1573d6000803e3d6000fd5b50505050611952565b6001846101200151600281111561180357611803611ef8565b036118765760e0840151610100850151600954610120870151600b54600c546040517feee0efec000000000000000000000000000000000000000000000000000000008152600160a060020a038089169763eee0efec976117b39791969095918316949093918316921690600401612c7a565b6002846101200151600281111561188f5761188f611ef8565b036119025760e0840151610100850151600a54610120870151600b54600c546040517feee0efec000000000000000000000000000000000000000000000000000000008152600160a060020a038089169763eee0efec976117b39791969095918316949093918316921690600401612c7a565b604051600080516020612e75833981519152815260206004820152600960248201527f7072696365547970650000000000000000000000000000000000000000000000604482015260640161113a565b61195d600183612c67565b600160a060020a038416600090815260026020526040908190209190915584810151905184916007916119909190612ba0565b9081526040805160209281900383018120336000908152908452829020805473ffffffffffffffffffffffffffffffffffffffff1916600160a060020a03959095169490941790935582810190526060808352908201526020850151516119f690611b96565b815260a0850151611a0690611b96565b6020808301829052865160408089015185518a85015185015160c08c0151519351600097611a3d9794959394929392909101612d83565b60405160208183030381529060405290507f2c6c2c8fac99064b89e2a97cba30b9bce7b1a84a55e0310e16b56924c6ab2f4585600083336000604051611a87959493929190612b56565b60405180910390a15050505050611a9e6001600055565b50565b600480546040517f9aa360ec0000000000000000000000000000000000000000000000000000000081523392810192909252600160a060020a031690639aa360ec90602401602060405180830381865afa158015611b03573d6000803e3d6000fd5b505050506040513d601f19601f82011682018060405250810190611b279190612bbc565b611b3057600080fd5b600155565b600260005403611b8f57604051600080516020612e75833981519152815260206004820152601f60248201527f5265656e7472616e637947756172643a207265656e7472616e742063616c6c00604482015260640161113a565b6002600055565b60606000611ba383611c36565b600101905060008167ffffffffffffffff811115611bc357611bc36122b5565b6040519080825280601f01601f191660200182016040528015611bed576020820181803683370190505b5090508181016020015b600019017f3031323334353637383961626364656600000000000000000000000000000000600a86061a8153600a8504945084611bf757509392505050565b6000807a184f03e93ff9f4daa797ed6e38ed64bf6a1f0100000000000000008310611c7f577a184f03e93ff9f4daa797ed6e38ed64bf6a1f010000000000000000830492506040015b6d04ee2d6d415b85acef81000000008310611cab576d04ee2d6d415b85acef8100000000830492506020015b662386f26fc100008310611cc957662386f26fc10000830492506010015b6305f5e1008310611ce1576305f5e100830492506008015b6127108310611cf557612710830492506004015b60648310611d07576064830492506002015b600a831061124e5760010192915050565b60408051610200810182526000808252602080830182905283518085018552918252606090820152909182019081526020016000600160a060020a03168152602001611d77604051806040016040528060008152602001606081525090565b81526020016060815260200160608152602001606081526020016000815260200160008152602001611dc360405180606001604052806060815260200160008152602001600081525090565b815260200160008152606060208201819052604082018190520160008152602001606081525090565b6040518060c00160405280600081526020016000815260200160006002811115611e1857611e18611ef8565b81526020016060815260200160608152602001600081525090565b600060208284031215611e4557600080fd5b5035919050565b60005b83811015611e67578181015183820152602001611e4f565b50506000910152565b60008151808452611e88816020860160208601611e4c565b601f01601f19169290920160200192915050565b805182526000602082015160406020850152611ebb6040850182611e70565b949350505050565b6000815160608452611ed86060850182611e70565b905060208301516020850152604083015160408501528091505092915050565b7f4e487b7100000000000000000000000000000000000000000000000000000000600052602160045260246000fd5b600a8110611f3757611f37611ef8565b9052565b600081518084526020808501808196508284028101915082860160005b85811015611fd1578284038952815160808151818752611f7a82880182611e70565b9150508682015186820388880152611f928282611e70565b915050604060ff8184015116818801525060608083015192508682038188015250611fbd8183611e70565b9a87019a9550505090840190600101611f58565b5091979650505050505050565b60038110611f3757611f37611ef8565b60208152612008602082018351600160a060020a03169052565b600060208301516120246040840182600160a060020a03169052565b506040830151610200806060850152612041610220850183611e9c565b9150606085015161205d6080860182600160a060020a03169052565b506080850151601f19808685030160a087015261207a8483611e9c565b935060a08701519150808685030160c08701526120978483611e70565b935060c08701519150808685030160e08701526120b48483611e70565b935060e087015191506101008187860301818801526120d38584611e70565b9088015161012088810191909152880151610140808901919091528801518782038301610160808a0191909152919550925061210f8584611ec3565b94508088015192505061018061212781880184611f27565b808801519250506101a08187860301818801526121448584611f3b565b9450808801519250506101c08187860301818801526121638584611e70565b9450808801519250506101e061217b81880184611fde565b8701518685039091018387015290506121948382611e70565b9695505050505050565b600a8110611a9e57600080fd5b6000806000606084860312156121c057600080fd5b83356121cb8161219e565b95602085013595506040909401359392505050565b60208082528251828201819052600091906040908185019080840286018301878501865b8381101561228a57603f19898403018552815160c08151855288820151898601528782015161223589870182611fde565b50606080830151828288015261224d83880182611e70565b92505050608080830151868303828801526122688382611e70565b60a0948501519790940196909652505094870194925090860190600101612204565b509098975050505050505050565b6000602082840312156122aa57600080fd5b81356113638161219e565b7f4e487b7100000000000000000000000000000000000000000000000000000000600052604160045260246000fd5b6040516080810167ffffffffffffffff81118282101715612307576123076122b5565b60405290565b604051610140810167ffffffffffffffff81118282101715612307576123076122b5565b604051601f8201601f1916810167ffffffffffffffff8111828210171561235a5761235a6122b5565b604052919050565b600067ffffffffffffffff82111561237c5761237c6122b5565b50601f01601f191660200190565b600082601f83011261239b57600080fd5b81356123ae6123a982612362565b612331565b8181528460208386010111156123c357600080fd5b816020850160208301376000918101602001919091529392505050565b600160a060020a0381168114611a9e57600080fd5b6000806000806080858703121561240b57600080fd5b84356124168161219e565b9350602085013567ffffffffffffffff81111561243257600080fd5b61243e8782880161238a565b935050604085013561244f816123e0565b9150606085013561245f816123e0565b939692955090935050565b6000806040838503121561247d57600080fd5b823567ffffffffffffffff81111561249457600080fd5b6124a08582860161238a565b92505060208301356124b1816123e0565b809150509250929050565b6000602082840312156124ce57600080fd5b8135611363816123e0565b6000604082840312156124eb57600080fd5b6040516040810167ffffffffffffffff828210818311171561250f5761250f6122b5565b8160405282935084358352602085013591508082111561252e57600080fd5b5061253b8582860161238a565b6020830152505092915050565b60006060828403121561255a57600080fd5b6040516060810167ffffffffffffffff828210818311171561257e5761257e6122b5565b81604052829350843591508082111561259657600080fd5b506125a38582860161238a565b82525060208301356020820152604083013560408201525092915050565b60ff81168114611a9e57600080fd5b600082601f8301126125e157600080fd5b8135602067ffffffffffffffff808311156125fe576125fe6122b5565b81830261260c838201612331565b938452858101830193838101908886111561262657600080fd5b84880192505b858310156126fa578235848111156126445760008081fd5b88016080818b03601f190181131561265c5760008081fd5b6126646122e4565b87830135878111156126765760008081fd5b6126848d8a8387010161238a565b8252506040808401358881111561269b5760008081fd5b6126a98e8b8388010161238a565b8a840152506060808501356126bd816125c1565b838301529284013592888411156126d657600091508182fd5b6126e48e8b8688010161238a565b908301525084525050918401919084019061262c565b98975050505050505050565b60038110611a9e57600080fd5b803561271e81612706565b919050565b60006020828403121561273557600080fd5b813567ffffffffffffffff8082111561274d57600080fd5b90830190610140828603121561276257600080fd5b61276a61230d565b82358281111561277957600080fd5b6127858782860161238a565b82525060208301358281111561279a57600080fd5b6127a6878286016124d9565b6020830152506040830135828111156127be57600080fd5b6127ca8782860161238a565b6040830152506060830135828111156127e257600080fd5b6127ee8782860161238a565b60608301525060808301358281111561280657600080fd5b6128128782860161238a565b60808301525060a083013560a082015260c08301358281111561283457600080fd5b61284087828601612548565b60c08301525060e08301358281111561285857600080fd5b612864878286016125d0565b60e083015250610100808401358381111561287e57600080fd5b61288a8882870161238a565b82840152505061012091506128a0828401612713565b91810191909152949350505050565b6000602082840312156128c157600080fd5b8151611363816123e0565b600082601f8301126128dd57600080fd5b81516128eb6123a982612362565b81815284602083860101111561290057600080fd5b611ebb826020830160208701611e4c565b60006020828403121561292357600080fd5b815167ffffffffffffffff81111561293a57600080fd5b611ebb848285016128cc565b6000806040838503121561295957600080fd5b82519150602083015167ffffffffffffffff81111561297757600080fd5b612983858286016128cc565b9150509250929050565b60006020828403121561299f57600080fd5b5051919050565b6000806000606084860312156129bb57600080fd5b835167ffffffffffffffff8111156129d257600080fd5b6129de868287016128cc565b93505060208401519150604084015190509250925092565b600060208284031215612a0857600080fd5b81516113638161219e565b60008060008060808587031215612a2957600080fd5b845167ffffffffffffffff80821115612a4157600080fd5b612a4d888389016128cc565b95506020870151915080821115612a6357600080fd5b612a6f888389016128cc565b945060408701519150612a81826125c1565b606087015191935080821115612a9657600080fd5b50612aa3878288016128cc565b91505092959194509250565b7f4e487b7100000000000000000000000000000000000000000000000000000000600052603260045260246000fd5b7f4e487b7100000000000000000000000000000000000000000000000000000000600052601160045260246000fd5b600060018201612b1f57612b1f612ade565b5060010190565b600060208284031215612b3857600080fd5b815161136381612706565b8082018082111561124e5761124e612ade565b6000600160a060020a038088168352612b726020840188611f27565b60a06040840152612b8660a0840187611e70565b948116606084015292909216608090910152509392505050565b60008251612bb2818460208701611e4c565b9190910192915050565b600060208284031215612bce57600080fd5b8151801515811461136357600080fd5b60e081526000612bf160e083018a611e70565b8281036020840152612c03818a611e9c565b90508281036040840152612c178189611e70565b90508281036060840152612c2b8188611e70565b90508281036080840152612c3f8187611e70565b90508460a084015282810360c0840152612c598185611ec3565b9a9950505050505050505050565b8181038181111561124e5761124e612ade565b600060c0820160c0835280895180835260e0850191506020925060e0838202860101838c0160005b83811015612d1f5760df19888403018552815160808151818652612cc882870182611e70565b9150508782015185820389870152612ce08282611e70565b915050604060ff8184015116818701525060608083015192508582038187015250612d0b8183611e70565b968801969450505090850190600101612ca2565b505085810384870152612d32818c611e70565b945050505050612d4d6040830187600160a060020a03169052565b612d5a6060830186611fde565b600160a060020a0384166080830152600160a060020a03831660a0830152979650505050505050565b600087516020612d968285838d01611e4c565b81840191507f7c7c0000000000000000000000000000000000000000000000000000000000008083528951612dd18160028601858e01611e4c565b600293019283018190528851612ded8160048601858d01611e4c565b7f2b00000000000000000000000000000000000000000000000000000000000000600494909101938401528751612e2a8160058601858c01611e4c565b600593019283018190528651612e468160078601858b01611e4c565b60079301928301528451612e608160098501848901611e4c565b91909101600901999850505050505050505056fe08c379a000000000000000000000000000000000000000000000000000000000a26469706673582212204143914fca15517194b56d3c7feb2728705057ab893c677dad123e160f542af764736f6c63430008130033",
  "immutableReferences": {},
  "source": "// //SPDX-License-Identifier: UNLICENSED\r\npragma solidity 0.8.19;\r\n\r\nimport \"./TradeFactoryBase.sol\";\r\n\r\nstruct TradeIndex {\r\n    uint256 index;\r\n    uint256 weiPrice;\r\n    PriceType priceType;\r\n    string weaponType;\r\n    string itemMarketName;\r\n    uint256 nextIndex;\r\n}\r\n\r\nstruct ExtraTest {\r\n    string tradeUrlPartner;\r\n    string weiPriceStringed;\r\n}\r\n\r\nstruct ListingParams {\r\n    string itemMarketName;\r\n    TradeUrl tradeUrl;\r\n    string assetId;\r\n    string inspectLink;\r\n    string itemImageUrl;\r\n    uint256 weiPrice;\r\n    SkinInfo skinInfo;\r\n    Sticker[] stickers;\r\n    string weaponType;\r\n    PriceType priceType;\r\n}\r\n\r\nstruct PaymentTokens {\r\n    address weth;\r\n    address usdc;\r\n    address usdt;\r\n}\r\n\r\ncontract CSXTradeFactory is TradeFactoryBase {\r\n    PaymentTokens public paymentTokens;\r\n    address public referralRegistryAddress;\r\n    address public sCSXTokenAddress;\r\n    address public buyAssistoor;\r\n\r\n    constructor(\r\n        address _keepers,\r\n        address _users,\r\n        address _tradeFactoryBaseStorage,\r\n        uint256 _baseFee,\r\n        PaymentTokens memory _paymentTokens,\r\n        address _referralRegistryAddress,\r\n        address _sCSXTokenAddress,\r\n        address _buyAssistoor\r\n    ) TradeFactoryBase(_keepers, _users, _tradeFactoryBaseStorage, _baseFee) {\r\n        paymentTokens = _paymentTokens;\r\n        referralRegistryAddress = _referralRegistryAddress;\r\n        sCSXTokenAddress = _sCSXTokenAddress;\r\n        buyAssistoor = _buyAssistoor;\r\n    }\r\n\r\n    function createListingContract(\r\n        ListingParams memory params\r\n    ) external nonReentrant {\r\n        require(usersContract.isBanned(msg.sender) == false, \"bnd\");\r\n        require(\r\n            assetIdFromUserAddrssToTradeAddrss[params.assetId][msg.sender] ==\r\n                address(0),\r\n            \"id\"\r\n        );\r\n\r\n        tradeFactoryBaseStorage.newTradeContract(\r\n            params.itemMarketName,\r\n            params.tradeUrl,\r\n            params.assetId,\r\n            params.inspectLink,\r\n            params.itemImageUrl,\r\n            params.weiPrice,\r\n            params.skinInfo\r\n        );\r\n\r\n        address newAddress = tradeFactoryBaseStorage\r\n            .getLastTradeContractAddress();\r\n\r\n        uint256 totalContracts = tradeFactoryBaseStorage.totalContracts();\r\n\r\n        isTradeContract[newAddress] = true;\r\n\r\n        CSXTrade _contract = tradeFactoryBaseStorage.getTradeContractByIndex(\r\n            totalContracts - 1\r\n        );\r\n\r\n        if(params.priceType == PriceType.WETH) {\r\n            _contract.initExtraInfo(\r\n                params.stickers,\r\n                params.weaponType,\r\n                paymentTokens.weth,\r\n                params.priceType,\r\n                referralRegistryAddress,\r\n                sCSXTokenAddress\r\n            );\r\n        } else if(params.priceType == PriceType.USDC) {\r\n            _contract.initExtraInfo(\r\n                params.stickers,\r\n                params.weaponType,\r\n                paymentTokens.usdc,\r\n                params.priceType,\r\n                referralRegistryAddress,\r\n                sCSXTokenAddress\r\n            );\r\n        } else if(params.priceType == PriceType.USDT) {\r\n            _contract.initExtraInfo(\r\n                params.stickers,\r\n                params.weaponType,\r\n                paymentTokens.usdt,\r\n                params.priceType,\r\n                referralRegistryAddress,\r\n                sCSXTokenAddress\r\n            );\r\n        } else {\r\n            revert(\"priceType\");\r\n        }\r\n\r\n        contractAddressToIndex[newAddress] = totalContracts - 1;\r\n        assetIdFromUserAddrssToTradeAddrss[params.assetId][msg.sender] = newAddress;\r\n\r\n        ExtraTest memory _extraTest;\r\n\r\n        _extraTest.tradeUrlPartner = Strings.toString(params.tradeUrl.partner);\r\n        _extraTest.weiPriceStringed = Strings.toString(params.weiPrice);\r\n\r\n        string memory data = string(\r\n            abi.encodePacked(\r\n                params.itemMarketName,\r\n                \"||\",\r\n                params.assetId,\r\n                \"||\",\r\n                _extraTest.tradeUrlPartner,\r\n                \"+\",\r\n                params.tradeUrl.token,\r\n                \"||\",\r\n                params.skinInfo.floatValues, // \"[0.00, 0.00, 0.000000]\" (max, min, value)\r\n                \"||\",\r\n                _extraTest.weiPriceStringed\r\n            )\r\n        );\r\n        emit TradeContractStatusChange(\r\n            newAddress,\r\n            TradeStatus.ForSale,\r\n            data,\r\n            msg.sender,\r\n            address(0)\r\n        );\r\n    }\r\n\r\n    function getTradeDetailsByIndex(\r\n        uint256 index\r\n    ) public view returns (TradeInfo memory result) {\r\n        uint256 i = index;\r\n        //SMTrade _contract = tradeContracts[i];\r\n        CSXTrade _contract = tradeFactoryBaseStorage.getTradeContractByIndex(i);\r\n\r\n        result.contractAddress = address(_contract);\r\n        result.seller = _contract.seller();\r\n        result.buyer = _contract.buyer();\r\n        result.itemMarketName = _contract.itemMarketName();\r\n        result.inspectLink = _contract.inspectLink();\r\n\r\n        TradeUrl memory _sTradeUrl;\r\n        (_sTradeUrl.partner, _sTradeUrl.token) = _contract.sellerTradeUrl();\r\n        result.sellerTradeUrl = _sTradeUrl;\r\n\r\n        TradeUrl memory _bTradeUrl;\r\n        (_bTradeUrl.partner, _bTradeUrl.token) = _contract.buyerTradeUrl();\r\n        result.buyerTradeUrl = _bTradeUrl;\r\n\r\n        result.weiPrice = _contract.weiPrice();\r\n        result.itemImageUrl = _contract.itemImageUrl();\r\n        result.averageSellerDeliveryTime = usersContract.getAverageDeliveryTime(\r\n            result.seller\r\n        );\r\n        SkinInfo memory _skinInfo;\r\n        (\r\n            _skinInfo.floatValues,\r\n            _skinInfo.paintSeed,\r\n            _skinInfo.paintIndex\r\n        ) = _contract.skinInfo();\r\n        result.skinInfo = _skinInfo;\r\n        result.status = _contract.status();\r\n\r\n        uint256 lengthOfStickersArray = _contract.stickerLength();\r\n        Sticker[] memory _stickers = new Sticker[](lengthOfStickersArray);\r\n\r\n        for (uint256 y = 0; y < _stickers.length; y++) {\r\n            (\r\n                _stickers[y].name,\r\n                _stickers[y].material,\r\n                _stickers[y].slot,\r\n                _stickers[y].imageLink\r\n            ) = _contract.stickers(y);\r\n        }\r\n        result.stickers = _stickers;\r\n\r\n        result.weaponType = _contract.weaponType();\r\n\r\n        result.priceType = _contract.priceType();\r\n\r\n        result.assetId = _contract.itemSellerAssetId();\r\n\r\n        return result;\r\n    }\r\n\r\n    function getTradeDetailsByAddress(\r\n        address tradeAddrs\r\n    ) public view returns (TradeInfo memory result) {\r\n        uint256 i = contractAddressToIndex[tradeAddrs];\r\n        result = getTradeDetailsByIndex(i);\r\n    }\r\n\r\n    function getTradeIndexesByStatus(\r\n        TradeStatus status,\r\n        uint256 indexFrom,\r\n        uint256 maxResults\r\n    ) external view returns (TradeIndex[] memory) {\r\n        TradeIndex[] memory tradeIndexes = new TradeIndex[](maxResults);\r\n        uint256 resultIndex;\r\n        uint256 i = indexFrom;\r\n        uint256 totalContracts = tradeFactoryBaseStorage.totalContracts();\r\n        while (resultIndex < maxResults && i < totalContracts) {\r\n            TradeInfo memory _trade = getTradeDetailsByIndex(i);\r\n\r\n            if (_trade.status == status) {\r\n                tradeIndexes[resultIndex].index = i;\r\n                tradeIndexes[resultIndex].weiPrice = _trade.weiPrice;\r\n                tradeIndexes[resultIndex].priceType = _trade.priceType;\r\n                tradeIndexes[resultIndex].weaponType = _trade.weaponType;\r\n                tradeIndexes[resultIndex].itemMarketName = _trade\r\n                    .itemMarketName;\r\n                tradeIndexes[resultIndex].nextIndex = i + 1;\r\n                ++resultIndex;\r\n            }\r\n\r\n            ++i;\r\n        }\r\n        return tradeIndexes;\r\n    }\r\n\r\n    function getTradeCountByStatus(\r\n        TradeStatus status\r\n    ) external view returns (uint256) {\r\n        uint256 count;\r\n        uint256 i = 0;\r\n        uint256 totalContracts = tradeFactoryBaseStorage.totalContracts();\r\n        while (i < totalContracts) {\r\n            TradeInfo memory _trade = getTradeDetailsByIndex(i);\r\n            if (_trade.status == status) {\r\n                ++count;\r\n            }\r\n            ++i;\r\n        }\r\n        return count;\r\n    }\r\n}\r\n",
  "sourcePath": "C:\\Users\\Charl\\Documents\\Projects\\SteamMarket\\CSX\\csx-contracts\\contracts\\TradeFactory\\TradeFactory.sol",
  "compiler": {
    "name": "solc",
    "version": "0.8.19+commit.7dd6d404.Emscripten.clang"
  },
  "schemaVersion": "3.4.3",
  "updatedAt": "2023-05-26T09:22:03.225Z",
  "devdoc": {
    "kind": "dev",
    "methods": {},
    "version": 1
  },
  "userdoc": {
    "kind": "user",
    "methods": {},
    "version": 1
  }
}