{
  "contractName": "CSXTrade",
  "abi": [
    {
      "inputs": [
        {
          "internalType": "address",
          "name": "_factory",
          "type": "address"
        },
        {
          "internalType": "address",
          "name": "_keepers",
          "type": "address"
        },
        {
          "internalType": "address",
          "name": "_users",
          "type": "address"
        },
        {
          "internalType": "address",
          "name": "_seller",
          "type": "address"
        },
        {
          "internalType": "uint256",
          "name": "_weiPrice",
          "type": "uint256"
        },
        {
          "internalType": "string",
          "name": "_itemMarketName",
          "type": "string"
        },
        {
          "components": [
            {
              "internalType": "uint256",
              "name": "partner",
              "type": "uint256"
            },
            {
              "internalType": "string",
              "name": "token",
              "type": "string"
            }
          ],
          "internalType": "struct TradeUrl",
          "name": "_sellerTradeUrl",
          "type": "tuple"
        },
        {
          "internalType": "string",
          "name": "_sellerAssetId",
          "type": "string"
        },
        {
          "internalType": "string",
          "name": "_inspectLink",
          "type": "string"
        },
        {
          "internalType": "string",
          "name": "_itemImageUrl",
          "type": "string"
        },
        {
          "components": [
            {
              "internalType": "string",
              "name": "floatValues",
              "type": "string"
            },
            {
              "internalType": "uint256",
              "name": "paintSeed",
              "type": "uint256"
            },
            {
              "internalType": "uint256",
              "name": "paintIndex",
              "type": "uint256"
            }
          ],
          "internalType": "struct SkinInfo",
          "name": "_skinInfo",
          "type": "tuple"
        }
      ],
      "stateMutability": "nonpayable",
      "type": "constructor"
    },
    {
      "inputs": [],
      "name": "buyer",
      "outputs": [
        {
          "internalType": "address",
          "name": "",
          "type": "address"
        }
      ],
      "stateMutability": "view",
      "type": "function"
    },
    {
      "inputs": [],
      "name": "buyerCommitTimestamp",
      "outputs": [
        {
          "internalType": "uint256",
          "name": "",
          "type": "uint256"
        }
      ],
      "stateMutability": "view",
      "type": "function"
    },
    {
      "inputs": [],
      "name": "buyerTradeUrl",
      "outputs": [
        {
          "internalType": "uint256",
          "name": "partner",
          "type": "uint256"
        },
        {
          "internalType": "string",
          "name": "token",
          "type": "string"
        }
      ],
      "stateMutability": "view",
      "type": "function"
    },
    {
      "inputs": [],
      "name": "depositedValue",
      "outputs": [
        {
          "internalType": "uint256",
          "name": "",
          "type": "uint256"
        }
      ],
      "stateMutability": "view",
      "type": "function"
    },
    {
      "inputs": [],
      "name": "disputeComplaint",
      "outputs": [
        {
          "internalType": "string",
          "name": "",
          "type": "string"
        }
      ],
      "stateMutability": "view",
      "type": "function"
    },
    {
      "inputs": [],
      "name": "disputedStatus",
      "outputs": [
        {
          "internalType": "enum TradeStatus",
          "name": "",
          "type": "uint8"
        }
      ],
      "stateMutability": "view",
      "type": "function"
    },
    {
      "inputs": [],
      "name": "disputeer",
      "outputs": [
        {
          "internalType": "address",
          "name": "",
          "type": "address"
        }
      ],
      "stateMutability": "view",
      "type": "function"
    },
    {
      "inputs": [],
      "name": "factoryContract",
      "outputs": [
        {
          "internalType": "contract ITradeFactory",
          "name": "",
          "type": "address"
        }
      ],
      "stateMutability": "view",
      "type": "function"
    },
    {
      "inputs": [],
      "name": "hasInit",
      "outputs": [
        {
          "internalType": "bool",
          "name": "",
          "type": "bool"
        }
      ],
      "stateMutability": "view",
      "type": "function"
    },
    {
      "inputs": [],
      "name": "inspectLink",
      "outputs": [
        {
          "internalType": "string",
          "name": "",
          "type": "string"
        }
      ],
      "stateMutability": "view",
      "type": "function"
    },
    {
      "inputs": [],
      "name": "itemImageUrl",
      "outputs": [
        {
          "internalType": "string",
          "name": "",
          "type": "string"
        }
      ],
      "stateMutability": "view",
      "type": "function"
    },
    {
      "inputs": [],
      "name": "itemMarketName",
      "outputs": [
        {
          "internalType": "string",
          "name": "",
          "type": "string"
        }
      ],
      "stateMutability": "view",
      "type": "function"
    },
    {
      "inputs": [],
      "name": "itemSellerAssetId",
      "outputs": [
        {
          "internalType": "string",
          "name": "",
          "type": "string"
        }
      ],
      "stateMutability": "view",
      "type": "function"
    },
    {
      "inputs": [],
      "name": "keepersContract",
      "outputs": [
        {
          "internalType": "contract IKeepers",
          "name": "",
          "type": "address"
        }
      ],
      "stateMutability": "view",
      "type": "function"
    },
    {
      "inputs": [],
      "name": "paymentToken",
      "outputs": [
        {
          "internalType": "contract IERC20",
          "name": "",
          "type": "address"
        }
      ],
      "stateMutability": "view",
      "type": "function"
    },
    {
      "inputs": [],
      "name": "priceType",
      "outputs": [
        {
          "internalType": "enum PriceType",
          "name": "",
          "type": "uint8"
        }
      ],
      "stateMutability": "view",
      "type": "function"
    },
    {
      "inputs": [],
      "name": "referralCode",
      "outputs": [
        {
          "internalType": "bytes32",
          "name": "",
          "type": "bytes32"
        }
      ],
      "stateMutability": "view",
      "type": "function"
    },
    {
      "inputs": [],
      "name": "referralRegistryContract",
      "outputs": [
        {
          "internalType": "contract IReferralRegistry",
          "name": "",
          "type": "address"
        }
      ],
      "stateMutability": "view",
      "type": "function"
    },
    {
      "inputs": [],
      "name": "sCSXToken",
      "outputs": [
        {
          "internalType": "contract IStakedCSX",
          "name": "",
          "type": "address"
        }
      ],
      "stateMutability": "view",
      "type": "function"
    },
    {
      "inputs": [],
      "name": "seller",
      "outputs": [
        {
          "internalType": "address",
          "name": "",
          "type": "address"
        }
      ],
      "stateMutability": "view",
      "type": "function"
    },
    {
      "inputs": [],
      "name": "sellerAcceptedTimestamp",
      "outputs": [
        {
          "internalType": "uint256",
          "name": "",
          "type": "uint256"
        }
      ],
      "stateMutability": "view",
      "type": "function"
    },
    {
      "inputs": [],
      "name": "sellerTradeUrl",
      "outputs": [
        {
          "internalType": "uint256",
          "name": "partner",
          "type": "uint256"
        },
        {
          "internalType": "string",
          "name": "token",
          "type": "string"
        }
      ],
      "stateMutability": "view",
      "type": "function"
    },
    {
      "inputs": [],
      "name": "skinInfo",
      "outputs": [
        {
          "internalType": "string",
          "name": "floatValues",
          "type": "string"
        },
        {
          "internalType": "uint256",
          "name": "paintSeed",
          "type": "uint256"
        },
        {
          "internalType": "uint256",
          "name": "paintIndex",
          "type": "uint256"
        }
      ],
      "stateMutability": "view",
      "type": "function"
    },
    {
      "inputs": [],
      "name": "status",
      "outputs": [
        {
          "internalType": "enum TradeStatus",
          "name": "",
          "type": "uint8"
        }
      ],
      "stateMutability": "view",
      "type": "function"
    },
    {
      "inputs": [
        {
          "internalType": "uint256",
          "name": "",
          "type": "uint256"
        }
      ],
      "name": "stickers",
      "outputs": [
        {
          "internalType": "string",
          "name": "name",
          "type": "string"
        },
        {
          "internalType": "string",
          "name": "material",
          "type": "string"
        },
        {
          "internalType": "uint8",
          "name": "slot",
          "type": "uint8"
        },
        {
          "internalType": "string",
          "name": "imageLink",
          "type": "string"
        }
      ],
      "stateMutability": "view",
      "type": "function"
    },
    {
      "inputs": [],
      "name": "usersContract",
      "outputs": [
        {
          "internalType": "contract IUsers",
          "name": "",
          "type": "address"
        }
      ],
      "stateMutability": "view",
      "type": "function"
    },
    {
      "inputs": [],
      "name": "weaponType",
      "outputs": [
        {
          "internalType": "string",
          "name": "",
          "type": "string"
        }
      ],
      "stateMutability": "view",
      "type": "function"
    },
    {
      "inputs": [],
      "name": "weiPrice",
      "outputs": [
        {
          "internalType": "uint256",
          "name": "",
          "type": "uint256"
        }
      ],
      "stateMutability": "view",
      "type": "function"
    },
    {
      "inputs": [
        {
          "components": [
            {
              "internalType": "string",
              "name": "name",
              "type": "string"
            },
            {
              "internalType": "string",
              "name": "material",
              "type": "string"
            },
            {
              "internalType": "uint8",
              "name": "slot",
              "type": "uint8"
            },
            {
              "internalType": "string",
              "name": "imageLink",
              "type": "string"
            }
          ],
          "internalType": "struct Sticker[]",
          "name": "_stickers",
          "type": "tuple[]"
        },
        {
          "internalType": "string",
          "name": "_weaponType",
          "type": "string"
        },
        {
          "internalType": "address",
          "name": "_paymentToken",
          "type": "address"
        },
        {
          "internalType": "enum PriceType",
          "name": "_priceType",
          "type": "uint8"
        },
        {
          "internalType": "address",
          "name": "_referralRegistryContract",
          "type": "address"
        },
        {
          "internalType": "address",
          "name": "_sCSXToken",
          "type": "address"
        }
      ],
      "name": "initExtraInfo",
      "outputs": [],
      "stateMutability": "nonpayable",
      "type": "function"
    },
    {
      "inputs": [],
      "name": "stickerLength",
      "outputs": [
        {
          "internalType": "uint256",
          "name": "",
          "type": "uint256"
        }
      ],
      "stateMutability": "view",
      "type": "function"
    },
    {
      "inputs": [],
      "name": "sellerCancel",
      "outputs": [],
      "stateMutability": "nonpayable",
      "type": "function"
    },
    {
      "inputs": [
        {
          "components": [
            {
              "internalType": "uint256",
              "name": "partner",
              "type": "uint256"
            },
            {
              "internalType": "string",
              "name": "token",
              "type": "string"
            }
          ],
          "internalType": "struct TradeUrl",
          "name": "_buyerTradeUrl",
          "type": "tuple"
        },
        {
          "internalType": "bytes32",
          "name": "_affLink",
          "type": "bytes32"
        }
      ],
      "name": "commitBuy",
      "outputs": [],
      "stateMutability": "nonpayable",
      "type": "function"
    },
    {
      "inputs": [],
      "name": "buyerCancel",
      "outputs": [],
      "stateMutability": "nonpayable",
      "type": "function"
    },
    {
      "inputs": [
        {
          "internalType": "bool",
          "name": "sellerCommited",
          "type": "bool"
        }
      ],
      "name": "sellerTradeVeridict",
      "outputs": [],
      "stateMutability": "nonpayable",
      "type": "function"
    },
    {
      "inputs": [],
      "name": "buyerConfirmReceived",
      "outputs": [],
      "stateMutability": "nonpayable",
      "type": "function"
    },
    {
      "inputs": [],
      "name": "sellerConfirmsTrade",
      "outputs": [],
      "stateMutability": "nonpayable",
      "type": "function"
    },
    {
      "inputs": [
        {
          "internalType": "bool",
          "name": "isTradeMade",
          "type": "bool"
        }
      ],
      "name": "keeperNodeConfirmsTrade",
      "outputs": [],
      "stateMutability": "nonpayable",
      "type": "function"
    },
    {
      "inputs": [
        {
          "internalType": "string",
          "name": "_complaint",
          "type": "string"
        }
      ],
      "name": "openDispute",
      "outputs": [],
      "stateMutability": "nonpayable",
      "type": "function"
    },
    {
      "inputs": [
        {
          "internalType": "bool",
          "name": "isFavourOfBuyer",
          "type": "bool"
        },
        {
          "internalType": "bool",
          "name": "giveWarningToSeller",
          "type": "bool"
        },
        {
          "internalType": "bool",
          "name": "giveWarningToBuyer",
          "type": "bool"
        },
        {
          "internalType": "bool",
          "name": "isWithValue",
          "type": "bool"
        }
      ],
      "name": "resolveDispute",
      "outputs": [],
      "stateMutability": "nonpayable",
      "type": "function"
    },
    {
      "inputs": [
        {
          "internalType": "bytes32",
          "name": "_affLink",
          "type": "bytes32"
        }
      ],
      "name": "getNetValue",
      "outputs": [
        {
          "internalType": "uint256",
          "name": "buyerNetPrice",
          "type": "uint256"
        },
        {
          "internalType": "uint256",
          "name": "sellerNetProceeds",
          "type": "uint256"
        },
        {
          "internalType": "uint256",
          "name": "affiliatorNetReward",
          "type": "uint256"
        },
        {
          "internalType": "uint256",
          "name": "tokenHoldersNetReward",
          "type": "uint256"
        }
      ],
      "stateMutability": "view",
      "type": "function"
    }
  ],
  "bytecode": "0x60806040523480156200001157600080fd5b50604051620053e5380380620053e58339810160408190526200003491620003a1565b8a601760006101000a815481600160a060020a030219169083600160a060020a0316021790555089601560016101000a815481600160a060020a030219169083600160a060020a0316021790555088601660006101000a815481600160a060020a030219169083600160a060020a0316021790555087600260016101000a815481600160a060020a030219169083600160a060020a0316021790555086600f819055506000601560006101000a81548160ff02191690836009811115620000ff57620000ff6200051d565b02179055506004620001128782620005f4565b50845160069081556020860151869190600790620001319082620005f4565b50600591506200014490508582620005f4565b50600a620001538482620005f4565b50600b620001628382620005f4565b50805181906012908190620001789082620005f4565b5060208201518160010155604082015181600201559050505050505050505050505050620006c6565b8051600160a060020a0381168114620001b957600080fd5b919050565b7f4e487b7100000000000000000000000000000000000000000000000000000000600052604160045260246000fd5b604051601f8201601f191681016001604060020a0381118282101715620002185762000218620001be565b604052919050565b600082601f8301126200023257600080fd5b81516001604060020a038111156200024e576200024e620001be565b602062000264601f8301601f19168201620001ed565b82815285828487010111156200027957600080fd5b60005b83811015620002995785810183015182820184015282016200027c565b506000928101909101919091529392505050565b600060408284031215620002c057600080fd5b604051604081016001604060020a038282108183111715620002e657620002e6620001be565b816040528293508451835260208501519150808211156200030657600080fd5b50620003158582860162000220565b6020830152505092915050565b6000606082840312156200033557600080fd5b604051606081016001604060020a0382821081831117156200035b576200035b620001be565b8160405282935084519150808211156200037457600080fd5b50620003838582860162000220565b82525060208301516020820152604083015160408201525092915050565b60008060008060008060008060008060006101608c8e031215620003c457600080fd5b620003cf8c620001a1565b9a50620003df60208d01620001a1565b9950620003ef60408d01620001a1565b9850620003ff60608d01620001a1565b975060808c0151965060a08c01516001604060020a038111156200042257600080fd5b620004308e828f0162000220565b96505060c08c01516001604060020a038111156200044d57600080fd5b6200045b8e828f01620002ad565b95505060e08c01516001604060020a038111156200047857600080fd5b620004868e828f0162000220565b9450506101008c01516001604060020a03811115620004a457600080fd5b620004b28e828f0162000220565b9350506101208c01516001604060020a03811115620004d057600080fd5b620004de8e828f0162000220565b9250506101408c01516001604060020a03811115620004fc57600080fd5b6200050a8e828f0162000322565b9150509295989b509295989b9093969950565b7f4e487b7100000000000000000000000000000000000000000000000000000000600052602160045260246000fd5b6002810460018216806200056157607f821691505b6020821081036200059b577f4e487b7100000000000000000000000000000000000000000000000000000000600052602260045260246000fd5b50919050565b601f821115620005ef576000818152602081206020601f86010481016020861015620005ca5750805b6020601f860104820191505b81811015620005eb57828155600101620005d6565b5050505b505050565b81516001604060020a03811115620006105762000610620001be565b62000628816200062184546200054c565b84620005a1565b602080601f831160018114620006645760008415620006475750858301515b60028086026008870290910a6000190419821617865550620005eb565b600085815260208120601f198616915b82811015620006955788860151825594840194600190910190840162000674565b5085821015620006b657878501516008601f88160260020a60001904191681555b5050505050600202600101905550565b614d0f80620006d66000396000f3fe608060405234801561001057600080fd5b5060043610610265576000357c01000000000000000000000000000000000000000000000000000000009004806370ec9d5411610158578063d8b6d252116100d5578063e9d13b5711610099578063e9d13b571461051d578063eee0efec14610525578063f4a84e0f14610538578063fd7d6df414610540578063fddd56c51461055357600080fd5b8063d8b6d252146104bd578063de11c94a146104c6578063e29b9e97146104d9578063e67d5523146104e2578063e8b58b21146104ea57600080fd5b80638f965d801161011c5780638f965d801461045e578063975a177314610481578063c2bd884b1461048a578063d2ef033c146104a2578063d55a17c0146104b557600080fd5b806370ec9d54146104165780637150d8ae1461042e5780637384001c1461044157806385e14a48146104495780638dada6d81461045657600080fd5b80632d90d70d116101e65780634e9448e9116101aa5780634e9448e9146103c8578063595210ad146103db5780635b902134146103ee5780636fed1d7e146103f757806370e066f61461040e57600080fd5b80632d90d70d146103585780633013ce291461036f578063343bf40e146103825780633440543a146103b8578063356cd0dc146103c057600080fd5b8063182dcc991161022d578063182dcc99146102f45780631c925df0146103075780631e86221f146103215780631f97327b14610329578063200d2ed21461033e57600080fd5b806302197c551461026a57806302d8ee9c1461028957806308551a531461029e578063142ebf3c146102ce578063166e21f1146102e1575b600080fd5b61027261055b565b604051610280929190613f83565b60405180910390f35b6102916105f2565b6040516102809190613fa4565b6002546102b6906101009004600160a060020a031681565b604051600160a060020a039091168152602001610280565b6016546102b690600160a060020a031681565b6019546102b690600160a060020a031681565b6018546102b690600160a060020a031681565b6002546103149060ff1681565b6040516102809190613fe8565b610291610680565b61033c6103373660046140dd565b61068d565b005b60155461034b9060ff1681565b6040516102809190614186565b61036160115481565b604051908152602001610280565b6000546102b690600160a060020a031681565b601b546103a8907501000000000000000000000000000000000000000000900460ff1681565b6040519015158152602001610280565b61033c610b97565b610291610f92565b61033c6103d63660046141a5565b610f9f565b61033c6103e9366004614201565b6115f1565b61036160105481565b6103ff61189f565b60405161028093929190614236565b61029161193d565b601b546102b6906101009004600160a060020a031681565b6003546102b690600160a060020a031681565b61033c61194a565b601b5461034b9060ff1681565b610291611c98565b61047161046c36600461425b565b611ca5565b6040516102809493929190614274565b610361600e5481565b6015546102b6906101009004600160a060020a031681565b61033c6104b03660046142c1565b611e86565b61033c61253e565b61036160015481565b6017546102b690600160a060020a031681565b610361600f5481565b6102916127c4565b6104fd6104f836600461425b565b6127d1565b604080519485526020850193909352918301526060820152608001610280565b61033c612a39565b61033c610533366004614312565b612d38565b600c54610361565b61033c61054e3660046142c1565b612fc6565b6102726133df565b600680546007805491929161056f90614511565b80601f016020809104026020016040519081016040528092919081815260200182805461059b90614511565b80156105e85780601f106105bd576101008083540402835291602001916105e8565b820191906000526020600020905b8154815290600101906020018083116105cb57829003601f168201915b5050505050905082565b600580546105ff90614511565b80601f016020809104026020016040519081016040528092919081815260200182805461062b90614511565b80156106785780601f1061064d57610100808354040283529160200191610678565b820191906000526020600020905b81548152906001019060200180831161065b57829003601f168201915b505050505081565b600480546105ff90614511565b600060155460ff1660098111156106a6576106a6613fb7565b146106fb5760405160e560020a62461bcd02815260206004820152600360248201527f216673000000000000000000000000000000000000000000000000000000000060448201526064015b60405180910390fd5b6002546101009004600160a060020a0316320361075d5760405160e560020a62461bcd02815260206004820152600760248201527f2173656c6c65720000000000000000000000000000000000000000000000000060448201526064016106f2565b6000610768826127d1565b50506000546040517f23b872dd00000000000000000000000000000000000000000000000000000000815233600482015230602482015260448101849052929350600160a060020a0316916323b872dd91506064016020604051808303816000875af11580156107dc573d6000803e3d6000fd5b505050506040513d601f19601f820116820180604052508101906108009190614552565b61084f5760405160e560020a62461bcd02815260206004820152600f60248201527f7472616e73666572206661696c6564000000000000000000000000000000000060448201526064016106f2565b60018290556015805460ff191660029081179091554260115560165490546040517f7f1b5565000000000000000000000000000000000000000000000000000000008152306004820152600160a060020a0361010090920482166024820152911690637f1b556590604401600060405180830381600087803b1580156108d457600080fd5b505af11580156108e8573d6000803e3d6000fd5b50506003805473ffffffffffffffffffffffffffffffffffffffff191632179055505082516008908155602084015184919060099061092790826145b5565b50506000546040517f70a08231000000000000000000000000000000000000000000000000000000008152306004820152600160a060020a0390911691506370a0823190602401602060405180830381865afa15801561098b573d6000803e3d6000fd5b505050506040513d601f19601f820116820180604052508101906109af919061467b565b600e556006546000906109c1906133f3565b84516007906109cf906133f3565b86602001516109dd32613493565b6109e8600f546133f3565b6040516020016109fd969594939291906146b0565b60408051601f198184030181529082905260165460025460155460e060020a63fe4162d1028552929450600160a060020a039182169363fe4162d193610a549330936101009004169160ff90911690600401614817565b600060405180830381600087803b158015610a6e57600080fd5b505af1158015610a82573d6000803e3d6000fd5b50506016546003546015546040517f116fd649000000000000000000000000000000000000000000000000000000008152600160a060020a03938416955063116fd6499450610ae193309360009391169160ff9091169060040161483c565b600060405180830381600087803b158015610afb57600080fd5b505af1158015610b0f573d6000803e3d6000fd5b505060175460155460025460035460405160e360020a630b9b56f3028152600160a060020a039485169650635cdab7989550610b5f9460ff90941693889361010090048116921690600401614882565b600060405180830381600087803b158015610b7957600080fd5b505af1158015610b8d573d6000803e3d6000fd5b5050505050505050565b600354600160a060020a0316338114610be35760405160e560020a62461bcd0281526020600482015260066024820152600080516020614cba83398151915260448201526064016106f2565b600260155460ff166009811115610bfc57610bfc613fb7565b1480610c1e5750600460155460ff166009811115610c1c57610c1c613fb7565b145b610c6d5760405160e560020a62461bcd02815260206004820152601060248201527f74726473747321636f6d6d7c6163742e0000000000000000000000000000000060448201526064016106f2565b6015805460ff191660061790556016546002546040517f43e239ba000000000000000000000000000000000000000000000000000000008152306004820152600160a060020a03610100909204821660248201529116906343e239ba90604401600060405180830381600087803b158015610ce757600080fd5b505af1158015610cfb573d6000803e3d6000fd5b50506017546002546040517f6311c2f200000000000000000000000000000000000000000000000000000000815260009450600160a060020a039283169350636311c2f292610d5992600592610100909104909116906004016148c3565b6020604051808303816000875af1158015610d78573d6000803e3d6000fd5b505050506040513d601f19601f82011682018060405250810190610d9c9190614552565b905080610dee5760405160e560020a62461bcd02815260206004820152601560248201527f6469646e27742072656d6f76652074726164654964000000000000000000000060448201526064016106f2565b610df66134af565b60165460025460155460405160e060020a63fe4162d1028152600160a060020a039384169363fe4162d193610e3d9330936101009092049092169160ff1690600401614817565b600060405180830381600087803b158015610e5757600080fd5b505af1158015610e6b573d6000803e3d6000fd5b505060165460035460155460405160e060020a63fe4162d1028152600160a060020a03938416955063fe4162d19450610eae933093169160ff1690600401614817565b600060405180830381600087803b158015610ec857600080fd5b505af1158015610edc573d6000803e3d6000fd5b505050506000610eed600f546133f3565b604051602001610efd919061495d565b60408051601f198184030181529082905260175460155460025460035460e360020a630b9b56f3028652939550600160a060020a0392831694635cdab79894610f5b9460ff9094169388936101009004811692911690600401614882565b600060405180830381600087803b158015610f7557600080fd5b505af1158015610f89573d6000803e3d6000fd5b50505050505050565b601a80546105ff90614511565b6015546040517f943ad880000000000000000000000000000000000000000000000000000000008152336004820152610100909104600160a060020a03169063943ad88090602401602060405180830381865afa158015611004573d6000803e3d6000fd5b505050506040513d601f19601f820116820180604052508101906110289190614552565b806110ba57506015546040517ffd6aad25000000000000000000000000000000000000000000000000000000008152336004820152610100909104600160a060020a03169063fd6aad2590602401602060405180830381865afa158015611093573d6000803e3d6000fd5b505050506040513d601f19601f820116820180604052508101906110b7919061467b565b15155b6111095760405160e560020a62461bcd02815260206004820152600d60248201527f216b657072206f72206f72636c0000000000000000000000000000000000000060448201526064016106f2565b600760155460ff16600981111561112257611122613fb7565b146111725760405160e560020a62461bcd02815260206004820152600560248201527f216469737000000000000000000000000000000000000000000000000000000060448201526064016106f2565b6017546002546040517f6311c2f2000000000000000000000000000000000000000000000000000000008152600092600160a060020a0390811692636311c2f2926111c992600592610100900416906004016148c3565b6020604051808303816000875af11580156111e8573d6000803e3d6000fd5b505050506040513d601f19601f8201168201806040525081019061120c9190614552565b90508061125e5760405160e560020a62461bcd02815260206004820152600860248201527f217472616465496400000000000000000000000000000000000000000000000060448201526064016106f2565b841561135f57600960155460ff16600981111561127d5761127d613fb7565b5050811561135a57600054600354600e54604051600080516020614c7a8339815191528152600160a060020a039283166004820152602481019190915291169063a9059cbb906044016020604051808303816000875af11580156112e5573d6000803e3d6000fd5b505050506040513d601f19601f820116820180604052508101906113099190614552565b61135a5760405160e560020a62461bcd0281526004016106f29060208082526004908201527f21736e7400000000000000000000000000000000000000000000000000000000604082015260600190565b61137a565b6015805460ff19166008179055811561137a5761137a6134af565b8315611400576016546002546040517f53941d4e000000000000000000000000000000000000000000000000000000008152600160a060020a03610100909204821660048201529116906353941d4e90602401600060405180830381600087803b1580156113e757600080fd5b505af11580156113fb573d6000803e3d6000fd5b505050505b8215611481576016546003546040517f53941d4e000000000000000000000000000000000000000000000000000000008152600160a060020a0391821660048201529116906353941d4e90602401600060405180830381600087803b15801561146857600080fd5b505af115801561147c573d6000803e3d6000fd5b505050505b60165460025460155460405160e060020a63fe4162d1028152600160a060020a039384169363fe4162d1936114c89330936101009092049092169160ff1690600401614817565b600060405180830381600087803b1580156114e257600080fd5b505af11580156114f6573d6000803e3d6000fd5b505060165460035460155460405160e060020a63fe4162d1028152600160a060020a03938416955063fe4162d19450611539933093169160ff1690600401614817565b600060405180830381600087803b15801561155357600080fd5b505af1158015611567573d6000803e3d6000fd5b505060175460155460025460035460405160e360020a630b9b56f3028152600160a060020a039485169650635cdab79895506115b89460ff90941693610100909304831692909116906004016149c4565b600060405180830381600087803b1580156115d257600080fd5b505af11580156115e6573d6000803e3d6000fd5b505050505050505050565b600254600354600160a060020a03610100909204821691163382148061161f575033600160a060020a038216145b61166e5760405160e560020a62461bcd02815260206004820152600660248201527f2167726f7570000000000000000000000000000000000000000000000000000060448201526064016106f2565b600760155460ff16600981111561168757611687613fb7565b141580156116ac5750600860155460ff1660098111156116a9576116a9613fb7565b14155b80156116cf5750600960155460ff1660098111156116cc576116cc613fb7565b14155b61171e5760405160e560020a62461bcd02815260206004820152600a60248201527f616c72656164794469730000000000000000000000000000000000000000000060448201526064016106f2565b60158054600760ff199182168117909255601b805474ffffffffffffffffffffffffffffffffffffffffff19163361010002909216919091179091179055601a61176884826145b5565b5060165460025460155460405160e060020a63fe4162d1028152600160a060020a039384169363fe4162d1936117b09330936101009092049092169160ff1690600401614817565b600060405180830381600087803b1580156117ca57600080fd5b505af11580156117de573d6000803e3d6000fd5b505060165460035460155460405160e060020a63fe4162d1028152600160a060020a03938416955063fe4162d19450611821933093169160ff1690600401614817565b600060405180830381600087803b15801561183b57600080fd5b505af115801561184f573d6000803e3d6000fd5b505060175460155460025460035460405160e360020a630b9b56f3028152600160a060020a039485169650635cdab7989550610f5b9460ff909416938a9361010090048116921690600401614882565b6012805481906118ae90614511565b80601f01602080910402602001604051908101604052809291908181526020018280546118da90614511565b80156119275780601f106118fc57610100808354040283529160200191611927565b820191906000526020600020905b81548152906001019060200180831161190a57829003601f168201915b5050505050908060010154908060020154905083565b600a80546105ff90614511565b6002546101009004600160a060020a031633811461199b5760405160e560020a62461bcd0281526020600482015260066024820152600080516020614cba83398151915260448201526064016106f2565b600460155460ff1660098111156119b4576119b4613fb7565b14611a045760405160e560020a62461bcd02815260206004820152600b60248201527f74726473747321636f6d6d00000000000000000000000000000000000000000060448201526064016106f2565b601054611a14906203f480614a19565b421015611a665760405160e560020a62461bcd02815260206004820152601160248201527f332064617973206e6f742070617373656400000000000000000000000000000060448201526064016106f2565b6015805460ff191660061790556016546002546040517f43e239ba000000000000000000000000000000000000000000000000000000008152306004820152600160a060020a03610100909204821660248201529116906343e239ba90604401600060405180830381600087803b158015611ae057600080fd5b505af1158015611af4573d6000803e3d6000fd5b505060165460025460155460405160e060020a63fe4162d1028152600160a060020a03938416955063fe4162d19450611b3c9330936101009004169160ff1690600401614817565b600060405180830381600087803b158015611b5657600080fd5b505af1158015611b6a573d6000803e3d6000fd5b505060165460035460155460405160e060020a63fe4162d1028152600160a060020a03938416955063fe4162d19450611bad933093169160ff1690600401614817565b600060405180830381600087803b158015611bc757600080fd5b505af1158015611bdb573d6000803e3d6000fd5b50505050611be76134af565b6000611bf4600f546133f3565b604051602001611c049190614a2c565b60408051601f198184030181529082905260175460155460025460035460e360020a630b9b56f3028652939550600160a060020a0392831694635cdab79894611c629460ff9094169388936101009004811692911690600401614882565b600060405180830381600087803b158015611c7c57600080fd5b505af1158015611c90573d6000803e3d6000fd5b505050505050565b600d80546105ff90614511565b600c8181548110611cb557600080fd5b9060005260206000209060040201600091509050806000018054611cd890614511565b80601f0160208091040260200160405190810160405280929190818152602001828054611d0490614511565b8015611d515780601f10611d2657610100808354040283529160200191611d51565b820191906000526020600020905b815481529060010190602001808311611d3457829003601f168201915b505050505090806001018054611d6690614511565b80601f0160208091040260200160405190810160405280929190818152602001828054611d9290614511565b8015611ddf5780601f10611db457610100808354040283529160200191611ddf565b820191906000526020600020905b815481529060010190602001808311611dc257829003601f168201915b5050506002840154600385018054949560ff909216949193509150611e0390614511565b80601f0160208091040260200160405190810160405280929190818152602001828054611e2f90614511565b8015611e7c5780601f10611e5157610100808354040283529160200191611e7c565b820191906000526020600020905b815481529060010190602001808311611e5f57829003601f168201915b5050505050905084565b6015546040517f943ad880000000000000000000000000000000000000000000000000000000008152336004820152610100909104600160a060020a03169063943ad88090602401602060405180830381865afa158015611eeb573d6000803e3d6000fd5b505050506040513d601f19601f82011682018060405250810190611f0f9190614552565b611f1857600080fd5b600260155460ff166009811115611f3157611f31613fb7565b1480611f535750600460155460ff166009811115611f5157611f51613fb7565b145b611fa25760405160e560020a62461bcd02815260206004820152600c60248201527f747264737473213e636f6d6d000000000000000000000000000000000000000060448201526064016106f2565b80156121dc576015805460ff191660061790556016546002546040517f43e239ba000000000000000000000000000000000000000000000000000000008152306004820152600160a060020a03610100909204821660248201529116906343e239ba90604401600060405180830381600087803b15801561202257600080fd5b505af1158015612036573d6000803e3d6000fd5b505060165460025460155460405160e060020a63fe4162d1028152600160a060020a03938416955063fe4162d1945061207e9330936101009004169160ff1690600401614817565b600060405180830381600087803b15801561209857600080fd5b505af11580156120ac573d6000803e3d6000fd5b505060165460035460155460405160e060020a63fe4162d1028152600160a060020a03938416955063fe4162d194506120ef933093169160ff1690600401614817565b600060405180830381600087803b15801561210957600080fd5b505af115801561211d573d6000803e3d6000fd5b505050506121296134af565b6000612136600f546133f3565b6040516020016121469190614a2c565b60408051601f198184030181529082905260175460155460025460035460e360020a630b9b56f3028652939550600160a060020a0392831694635cdab798946121a49460ff9094169388936101009004811692911690600401614882565b600060405180830381600087803b1580156121be57600080fd5b505af11580156121d2573d6000803e3d6000fd5b505050505061244e565b60158054600960ff198216811790925560165460025460405160e060020a63fe4162d102815260ff90931693600160a060020a039283169363fe4162d19361223293309361010090910490911691600401614817565b600060405180830381600087803b15801561224c57600080fd5b505af1158015612260573d6000803e3d6000fd5b506002925061226d915050565b81600981111561227f5761227f613fb7565b106122f95760165460035460155460405160e060020a63fe4162d1028152600160a060020a039384169363fe4162d1936122c6933093919092169160ff1690600401614817565b600060405180830381600087803b1580156122e057600080fd5b505af11580156122f4573d6000803e3d6000fd5b505050505b600054600354600e54604051600080516020614c7a8339815191528152600160a060020a039283166004820152602481019190915291169063a9059cbb906044016020604051808303816000875af1158015612359573d6000803e3d6000fd5b505050506040513d601f19601f8201168201806040525081019061237d9190614552565b6123ce5760405160e560020a62461bcd0281526004016106f29060208082526004908201527f21736e7400000000000000000000000000000000000000000000000000000000604082015260600190565b60175460155460025460035460405160e360020a630b9b56f3028152600160a060020a0394851694635cdab7989461241a9460ff90911693610100909104821692911690600401614a48565b600060405180830381600087803b15801561243457600080fd5b505af1158015612448573d6000803e3d6000fd5b50505050505b6017546002546040517f6311c2f2000000000000000000000000000000000000000000000000000000008152600092600160a060020a0390811692636311c2f2926124a592600592610100900416906004016148c3565b6020604051808303816000875af11580156124c4573d6000803e3d6000fd5b505050506040513d601f19601f820116820180604052508101906124e89190614552565b90508061253a5760405160e560020a62461bcd02815260206004820152600860248201527f217472616465496400000000000000000000000000000000000000000000000060448201526064016106f2565b5050565b6002546101009004600160a060020a031633811461258f5760405160e560020a62461bcd0281526020600482015260066024820152600080516020614cba83398151915260448201526064016106f2565b600060155460ff1660098111156125a8576125a8613fb7565b146125f85760405160e560020a62461bcd02815260206004820152600760248201527f7374202170656e0000000000000000000000000000000000000000000000000060448201526064016106f2565b6015805460ff1916600190811790915560165460025460405160e060020a63fe4162d1028152600160a060020a039283169363fe4162d1936126499330936101009091049091169190600401614817565b600060405180830381600087803b15801561266357600080fd5b505af1158015612677573d6000803e3d6000fd5b505050506000612688600f546133f3565b6040516020016126989190614a2c565b60408051601f198184030181529082905260175460155460025460035460e360020a630b9b56f3028652939550600160a060020a0392831694635cdab798946126f69460ff9094169388936101009004811692911690600401614882565b600060405180830381600087803b15801561271057600080fd5b505af1158015612724573d6000803e3d6000fd5b50506017546002546040517f6311c2f2000000000000000000000000000000000000000000000000000000008152600160a060020a039283169450636311c2f2935061277c92600592610100900416906004016148c3565b6020604051808303816000875af115801561279b573d6000803e3d6000fd5b505050506040513d601f19601f820116820180604052508101906127bf9190614552565b505050565b600b80546105ff90614511565b6018546040517fed0fc5a90000000000000000000000000000000000000000000000000000000081526004810183905260009182918291829182918291600160a060020a039091169063ed0fc5a990602401602060405180830381865afa158015612840573d6000803e3d6000fd5b505050506040513d601f19601f820116820180604052508101906128649190614aa6565b600160a060020a03161415905060008115612904576018546040517ff3c7c93100000000000000000000000000000000000000000000000000000000815260048101899052600091600160a060020a03169063f3c7c931906024016040805180830381865afa1580156128db573d6000803e3d6000fd5b505050506040513d601f19601f820116820180604052508101906128ff9190614ac3565b509150505b601854600f54601754604080517f6ef25c3a0000000000000000000000000000000000000000000000000000000081529051600160a060020a03948516946342ba2f2494938893911691636ef25c3a916004808201926020929091908290030181865afa158015612979573d6000803e3d6000fd5b505050506040513d601f19601f8201168201806040525081019061299d919061467b565b6040517c010000000000000000000000000000000000000000000000000000000063ffffffff861602815260048101939093529015156024830152604482015260648101849052608401608060405180830381865afa158015612a04573d6000803e3d6000fd5b505050506040513d601f19601f82011682018060405250810190612a289190614ae7565b929a91995097509095509350505050565b600354600160a060020a0316338114612a855760405160e560020a62461bcd0281526020600482015260066024820152600080516020614cba83398151915260448201526064016106f2565b600260155460ff166009811115612a9e57612a9e613fb7565b14612aee5760405160e560020a62461bcd02815260206004820152600b60248201527f74726473747321636f6d6d00000000000000000000000000000000000000000060448201526064016106f2565b6015805460ff1916600390811790915560165460025460405160e060020a63fe4162d1028152600160a060020a039283169363fe4162d193612b3f9330936101009091049091169190600401614817565b600060405180830381600087803b158015612b5957600080fd5b505af1158015612b6d573d6000803e3d6000fd5b505060165460035460155460405160e060020a63fe4162d1028152600160a060020a03938416955063fe4162d19450612bb0933093169160ff1690600401614817565b600060405180830381600087803b158015612bca57600080fd5b505af1158015612bde573d6000803e3d6000fd5b5050600054600354600e54604051600080516020614c7a8339815191528152600160a060020a03928316600482015260248101919091529116925063a9059cbb91506044016020604051808303816000875af1158015612c42573d6000803e3d6000fd5b505050506040513d601f19601f82011682018060405250810190612c669190614552565b612cb75760405160e560020a62461bcd0281526004016106f29060208082526004908201527f21736e7400000000000000000000000000000000000000000000000000000000604082015260600190565b60175460155460025460035460405160e360020a630b9b56f3028152600160a060020a0394851694635cdab79894612d039460ff90911693610100909104821692911690600401614b1d565b600060405180830381600087803b158015612d1d57600080fd5b505af1158015612d31573d6000803e3d6000fd5b5050505050565b601754600160a060020a031633148015612d6e5750601b547501000000000000000000000000000000000000000000900460ff16155b612dbd5760405160e560020a62461bcd02815260206004820152600860248201527f21666163746f727900000000000000000000000000000000000000000000000060448201526064016106f2565b601b805475ff0000000000000000000000000000000000000000001916750100000000000000000000000000000000000000000017905560005b8651811015612ea057600c878281518110612e1457612e14614b7b565b60209081029190910181015182546001810184556000938452919092208251600490920201908190612e4690826145b5565b5060208201516001820190612e5b90826145b5565b50604082015160028201805460ff191660ff90921691909117905560608201516003820190612e8a90826145b5565b5050508080612e9890614b98565b915050612df7565b506016546002546040517f116fd649000000000000000000000000000000000000000000000000000000008152600160a060020a039283169263116fd64992612efa9230926001926101009004169060009060040161483c565b600060405180830381600087803b158015612f1457600080fd5b505af1158015612f28573d6000803e3d6000fd5b5050505084600d9081612f3b91906145b5565b506000805473ffffffffffffffffffffffffffffffffffffffff1916600160a060020a0386161790556002805484919060ff191660018383811115612f8257612f82613fb7565b021790555060188054600160a060020a0393841673ffffffffffffffffffffffffffffffffffffffff19918216179091556019805492909316911617905550505050565b6002546101009004600160a060020a03163381146130175760405160e560020a62461bcd0281526020600482015260066024820152600080516020614cba83398151915260448201526064016106f2565b600260155460ff16600981111561303057613030613fb7565b146130805760405160e560020a62461bcd02815260206004820152600b60248201527f74726473747321636f6d6d00000000000000000000000000000000000000000060448201526064016106f2565b81156131ca576015805460ff191660049081179091554260105560165460025460405160e060020a63fe4162d1028152600160a060020a039283169363fe4162d1936130da93309361010090910490911691908101614817565b600060405180830381600087803b1580156130f457600080fd5b505af1158015613108573d6000803e3d6000fd5b505060165460035460155460405160e060020a63fe4162d1028152600160a060020a03938416955063fe4162d1945061314b933093169160ff1690600401614817565b600060405180830381600087803b15801561316557600080fd5b505af1158015613179573d6000803e3d6000fd5b505060175460155460025460035460405160e360020a630b9b56f3028152600160a060020a039485169650635cdab7989550611c629460ff90941693610100909304831692909116906004016149c4565b6015805460ff1916600590811790915560165460025460405160e060020a63fe4162d1028152600160a060020a039283169363fe4162d19361321b9330936101009091049091169190600401614817565b600060405180830381600087803b15801561323557600080fd5b505af1158015613249573d6000803e3d6000fd5b505060165460035460155460405160e060020a63fe4162d1028152600160a060020a03938416955063fe4162d1945061328c933093169160ff1690600401614817565b600060405180830381600087803b1580156132a657600080fd5b505af11580156132ba573d6000803e3d6000fd5b5050600054600354600e54604051600080516020614c7a8339815191528152600160a060020a03928316600482015260248101919091529116925063a9059cbb91506044016020604051808303816000875af115801561331e573d6000803e3d6000fd5b505050506040513d601f19601f820116820180604052508101906133429190614552565b6133935760405160e560020a62461bcd0281526004016106f29060208082526004908201527f21736e7400000000000000000000000000000000000000000000000000000000604082015260600190565b60175460155460025460035460405160e360020a630b9b56f3028152600160a060020a0394851694635cdab79894611c629460ff90911693610100909104821692911690600401614bb1565b600880546009805491929161056f90614511565b6060600061340083613c00565b600101905060008167ffffffffffffffff81111561342057613420613ff6565b6040519080825280601f01601f19166020018201604052801561344a576020820181803683370190505b5090508181016020015b600019017f3031323334353637383961626364656600000000000000000000000000000000600a86061a8153600a850494508461345457509392505050565b60606134a9600160a060020a0383166014613ce2565b92915050565b6018546003546040517f92c40344000000000000000000000000000000000000000000000000000000008152600160a060020a03918216600482015260009291909116906392c4034490602401602060405180830381865afa158015613519573d6000803e3d6000fd5b505050506040513d601f19601f8201168201806040525081019061353d919061467b565b905080156135595760015481146135545760018190555b613735565b60015415613735576018546001546040517faa05c9e7000000000000000000000000000000000000000000000000000000008152600160a060020a039092169163aa05c9e7916135af9160040190815260200190565b602060405180830381865afa1580156135cc573d6000803e3d6000fd5b505050506040513d601f19601f820116820180604052508101906135f09190614552565b6135fe576000600155613735565b6018546001546040517fed0fc5a90000000000000000000000000000000000000000000000000000000081526004810191909152600091600160a060020a03169063ed0fc5a990602401602060405180830381865afa158015613665573d6000803e3d6000fd5b505050506040513d601f19601f820116820180604052508101906136899190614aa6565b600354909150600160a060020a03908116908216036136ac576000600155613733565b6018546001546003546040517ffd4788ac0000000000000000000000000000000000000000000000000000000081526004810192909252600160a060020a0390811660248301529091169063fd4788ac90604401600060405180830381600087803b15801561371a57600080fd5b505af115801561372e573d6000803e3d6000fd5b505050505b505b6000806000806137466001546127d1565b600054600254604051600080516020614c7a8339815191528152600160a060020a0361010090920482166004820152602481018690529599509397509195509350169063a9059cbb906044016020604051808303816000875af11580156137b1573d6000803e3d6000fd5b505050506040513d601f19601f820116820180604052508101906137d59190614552565b6138245760405160e560020a62461bcd02815260206004820152600560248201527f2173736e7400000000000000000000000000000000000000000000000000000060448201526064016106f2565b8115613a29576000546018546001546040517fed0fc5a90000000000000000000000000000000000000000000000000000000081526004810191909152600160a060020a039283169263a9059cbb92169063ed0fc5a990602401602060405180830381865afa15801561389b573d6000803e3d6000fd5b505050506040513d601f19601f820116820180604052508101906138bf9190614aa6565b6040517c010000000000000000000000000000000000000000000000000000000063ffffffff8416028152600160a060020a039091166004820152602481018590526044016020604051808303816000875af1158015613923573d6000803e3d6000fd5b505050506040513d601f19601f820116820180604052508101906139479190614552565b6139965760405160e560020a62461bcd02815260206004820152600560248201527f2172736e7400000000000000000000000000000000000000000000000000000060448201526064016106f2565b6018546000546001546040517fa033142f000000000000000000000000000000000000000000000000000000008152306004820152600160a060020a03928316602482015260448101919091526064810185905291169063a033142f90608401600060405180830381600087803b158015613a1057600080fd5b505af1158015613a24573d6000803e3d6000fd5b505050505b6000546019546040517f095ea7b3000000000000000000000000000000000000000000000000000000008152600160a060020a0391821660048201526024810184905291169063095ea7b3906044016020604051808303816000875af1158015613a97573d6000803e3d6000fd5b505050506040513d601f19601f82011682018060405250810190613abb9190614552565b506019546000546040517f5f78d6bd000000000000000000000000000000000000000000000000000000008152600160a060020a03918216600482015260248101849052911690635f78d6bd906044016020604051808303816000875af1158015613b2a573d6000803e3d6000fd5b505050506040513d601f19601f82011682018060405250810190613b4e9190614552565b613b9d5760405160e560020a62461bcd02815260206004820152600560248201527f2174736e7400000000000000000000000000000000000000000000000000000060448201526064016106f2565b6016546002546003546001546040517f2455eb83000000000000000000000000000000000000000000000000000000008152600160a060020a0394851694632455eb83946115b894610100820483169492169260ff909116908b90600401614c0f565b6000807a184f03e93ff9f4daa797ed6e38ed64bf6a1f0100000000000000008310613c49577a184f03e93ff9f4daa797ed6e38ed64bf6a1f010000000000000000830492506040015b6d04ee2d6d415b85acef81000000008310613c75576d04ee2d6d415b85acef8100000000830492506020015b662386f26fc100008310613c9357662386f26fc10000830492506010015b6305f5e1008310613cab576305f5e100830492506008015b6127108310613cbf57612710830492506004015b60648310613cd1576064830492506002015b600a83106134a95760010192915050565b60606000613cf1836002614c4b565b613cfc906002614a19565b67ffffffffffffffff811115613d1457613d14613ff6565b6040519080825280601f01601f191660200182016040528015613d3e576020820181803683370190505b5090507f300000000000000000000000000000000000000000000000000000000000000081600081518110613d7557613d75614b7b565b60200101907effffffffffffffffffffffffffffffffffffffffffffffffffffffffffffff1916908160001a9053507f780000000000000000000000000000000000000000000000000000000000000081600181518110613dd857613dd8614b7b565b60200101907effffffffffffffffffffffffffffffffffffffffffffffffffffffffffffff1916908160001a9053506000613e14846002614c4b565b613e1f906001614a19565b90505b6001811115613eda577f303132333435363738396162636465660000000000000000000000000000000085600f1660108110613e6057613e60614b7b565b1a7f010000000000000000000000000000000000000000000000000000000000000002828281518110613e9557613e95614b7b565b60200101907effffffffffffffffffffffffffffffffffffffffffffffffffffffffffffff1916908160001a905350601090940493613ed381614c62565b9050613e22565b508315613f2c5760405160e560020a62461bcd02815260206004820181905260248201527f537472696e67733a20686578206c656e67746820696e73756666696369656e7460448201526064016106f2565b9392505050565b60005b83811015613f4e578181015183820152602001613f36565b50506000910152565b60008151808452613f6f816020860160208601613f33565b601f01601f19169290920160200192915050565b828152604060208201526000613f9c6040830184613f57565b949350505050565b602081526000613f2c6020830184613f57565b600080516020614c9a833981519152600052602160045260246000fd5b60038110613fe457613fe4613fb7565b9052565b602081016134a98284613fd4565b600080516020614c9a833981519152600052604160045260246000fd5b6040516080810167ffffffffffffffff8111828210171561403657614036613ff6565b60405290565b604051601f8201601f1916810167ffffffffffffffff8111828210171561406557614065613ff6565b604052919050565b600082601f83011261407e57600080fd5b813567ffffffffffffffff81111561409857614098613ff6565b6140ab601f8201601f191660200161403c565b8181528460208386010111156140c057600080fd5b816020850160208301376000918101602001919091529392505050565b600080604083850312156140f057600080fd5b823567ffffffffffffffff8082111561410857600080fd5b908401906040828703121561411c57600080fd5b60405160408101818110838211171561413757614137613ff6565b6040528235815260208301358281111561415057600080fd5b61415c8882860161406d565b602083015250809450505050602083013590509250929050565b600a8110613fe457613fe4613fb7565b602081016134a98284614176565b80151581146141a257600080fd5b50565b600080600080608085870312156141bb57600080fd5b84356141c681614194565b935060208501356141d681614194565b925060408501356141e681614194565b915060608501356141f681614194565b939692955090935050565b60006020828403121561421357600080fd5b813567ffffffffffffffff81111561422a57600080fd5b613f9c8482850161406d565b6060815260006142496060830186613f57565b60208301949094525060400152919050565b60006020828403121561426d57600080fd5b5035919050565b6080815260006142876080830187613f57565b82810360208401526142998187613f57565b905060ff8516604084015282810360608401526142b68185613f57565b979650505050505050565b6000602082840312156142d357600080fd5b8135613f2c81614194565b600160a060020a03811681146141a257600080fd5b80356142fe816142de565b919050565b8035600381106142fe57600080fd5b60008060008060008060c0878903121561432b57600080fd5b67ffffffffffffffff8735111561434157600080fd5b8635870188601f82011261435457600080fd5b67ffffffffffffffff8135111561436d5761436d613ff6565b61437c6020808335020161403c565b81358082526020808301929181028401018b101561439957600080fd5b602083015b60208085350285010181101561449f5767ffffffffffffffff813511156143c457600080fd5b803584016080818e03601f190112156143dc57600080fd5b6143e4614013565b67ffffffffffffffff602083013511156143fd57600080fd5b61440f8e60208085013585010161406d565b815267ffffffffffffffff6040830135111561442a57600080fd5b61443d8e6020604085013585010161406d565b6020820152606082013560ff81161461445557600080fd5b6060820135604082015267ffffffffffffffff6080830135111561447857600080fd5b61448b8e6020608085013585010161406d565b60608201528452506020928301920161439e565b509750505067ffffffffffffffff602088013511156144bd57600080fd5b6144cd886020890135890161406d565b94506144db604088016142f3565b93506144e960608801614303565b92506144f7608088016142f3565b915061450560a088016142f3565b90509295509295509295565b60028104600182168061452557607f821691505b60208210810361454c57600080516020614c9a833981519152600052602260045260246000fd5b50919050565b60006020828403121561456457600080fd5b8151613f2c81614194565b601f8211156127bf576000818152602081206020601f860104810160208610156145965750805b6020601f860104820191505b81811015611c90578281556001016145a2565b815167ffffffffffffffff8111156145cf576145cf613ff6565b6145e3816145dd8454614511565b8461456f565b602080601f83116001811461461c57600084156146005750858301515b60028086026008870290910a6000190419821617865550611c90565b600085815260208120601f198616915b8281101561464b5788860151825594840194600190910190840161462c565b508582101561466b57878501516008601f88160260020a60001904191681555b5050505050600202600101905550565b60006020828403121561468d57600080fd5b5051919050565b600081516146a6818560208601613f33565b9290920192915050565b600087516146c2818460208c01613f33565b80830190507f2b000000000000000000000000000000000000000000000000000000000000008152600088546146f781614511565b60018216801561470e576001811461472957614762565b60ff1983166001860152600182151583028601019350614762565b8b600052602060002060005b8381101561475757815460018289010152600182019150602081019050614735565b505060018286010193505b50507f7c7c0000000000000000000000000000000000000000000000000000000000008252506148096148036147d46147fd816147ce6147a5600288018f614694565b7f2b00000000000000000000000000000000000000000000000000000000000000815260010190565b8c614694565b7f7c7c000000000000000000000000000000000000000000000000000000000000815260020190565b89614694565b86614694565b9a9950505050505050505050565b600160a060020a0384811682528316602082015260608101613f9c6040830184614176565b600160a060020a03858116825260808201906002861061485e5761485e613fb7565b60208301869052841660408301526148796060830184614176565b95945050505050565b61488c8186614176565b6080602082015260006148a26080830186613f57565b600160a060020a039485166040840152929093166060909101529392505050565b6040815260008084546148d581614511565b80604086015260606001808416600081146148f7576001811461491157614942565b60ff19851688840152602084151502880183019550614942565b8960005260208060002060005b868110156149395781548b820187015290840190820161491e565b8a018501975050505b50505050600160a060020a0385166020850152509050613f2c565b6000825161496f818460208701613f33565b7f7c7c0000000000000000000000000000000000000000000000000000000000009201918252507f4d414e55414c00000000000000000000000000000000000000000000000000006002820152600801919050565b6149ce8185614176565b608060208201819052600090820152600160a060020a0392831660408201529116606082015260a001919050565b600080516020614c9a833981519152600052601160045260246000fd5b808201808211156134a9576134a96149fc565b60008251614a3e818460208701613f33565b9190910192915050565b614a528185614176565b608060208201819052600a908201527f4b4f2044454641554c540000000000000000000000000000000000000000000060a0820152600160a060020a0392831660408201529116606082015260c001919050565b600060208284031215614ab857600080fd5b8151613f2c816142de565b60008060408385031215614ad657600080fd5b505080516020909101519092909150565b60008060008060808587031215614afd57600080fd5b505082516020840151604085015160609095015191969095509092509050565b614b278185614176565b608060208201819052600a908201527f42552044454641554c540000000000000000000000000000000000000000000060a0820152600160a060020a0392831660408201529116606082015260c001919050565b600080516020614c9a833981519152600052603260045260246000fd5b600060018201614baa57614baa6149fc565b5060010190565b614bbb8185614176565b608060208201819052600a908201527f53452044454641554c540000000000000000000000000000000000000000000060a0820152600160a060020a0392831660408201529116606082015260c001919050565b600160a060020a038681168252851660208201526040810184905260a08101614c3b6060830185613fd4565b8260808301529695505050505050565b80820281158282048414176134a9576134a96149fc565b600081614c7157614c716149fc565b50600019019056fea9059cbb000000000000000000000000000000000000000000000000000000004e487b71000000000000000000000000000000000000000000000000000000002170617274790000000000000000000000000000000000000000000000000000a26469706673582212200040acaa12795e19373e98279b77e508ce2c2a22011f662c1f3bc582b9a491af64736f6c63430008130033",
  "immutableReferences": {},
  "source": "// //SPDX-License-Identifier: MIT\r\npragma solidity 0.8.19;\r\n\r\nimport {IERC20} from \"@openzeppelin/contracts/interfaces/IERC20.sol\";\r\n\r\nimport \"../Keepers/IKeepers.sol\";\r\nimport \"../Users/IUsers.sol\";\r\nimport {ITradeFactory, TradeUrl, Sticker, SkinInfo, PriceType } from \"../TradeFactory/ITradeFactory.sol\";\r\nimport {Strings} from \"../utils/Strings.sol\";\r\n\r\nimport {IStakedCSX} from \"../CSX/Interfaces.sol\";\r\n\r\nimport \"../Referrals/IReferralRegistry.sol\";\r\n\r\ncontract CSXTrade {\r\n    IERC20 public paymentToken;\r\n    bytes32 public referralCode;\r\n    PriceType public priceType;\r\n\r\n    address public seller;\r\n    address public buyer;\r\n\r\n    string public itemMarketName;\r\n    string public itemSellerAssetId;\r\n\r\n    TradeUrl public sellerTradeUrl;\r\n    TradeUrl public buyerTradeUrl;\r\n\r\n    string public inspectLink;\r\n    string public itemImageUrl;\r\n    Sticker[] public stickers;\r\n\r\n    string public weaponType;\r\n\r\n    uint256 public depositedValue;\r\n    uint256 public weiPrice;\r\n\r\n    uint256 public sellerAcceptedTimestamp;\r\n    uint256 public buyerCommitTimestamp;\r\n\r\n    SkinInfo public skinInfo;\r\n\r\n    TradeStatus public status;\r\n\r\n    IKeepers public keepersContract;\r\n    IUsers public usersContract;\r\n    ITradeFactory public factoryContract;\r\n\r\n    IReferralRegistry public referralRegistryContract;\r\n    IStakedCSX public sCSXToken;\r\n\r\n    string public disputeComplaint;\r\n    TradeStatus public disputedStatus;\r\n    address public disputeer;\r\n\r\n    constructor(\r\n        address _factory,\r\n        address _keepers,\r\n        address _users,\r\n        address _seller,\r\n        uint256 _weiPrice,\r\n        string memory _itemMarketName,\r\n        TradeUrl memory _sellerTradeUrl,\r\n        string memory _sellerAssetId,\r\n        string memory _inspectLink,\r\n        string memory _itemImageUrl,\r\n        SkinInfo memory _skinInfo\r\n    ) {\r\n        factoryContract = ITradeFactory(_factory);\r\n        keepersContract = IKeepers(_keepers);\r\n        usersContract = IUsers(_users);\r\n        seller = _seller;\r\n        weiPrice = _weiPrice;\r\n        status = TradeStatus.ForSale;\r\n        itemMarketName = _itemMarketName;\r\n        sellerTradeUrl = _sellerTradeUrl;\r\n        itemSellerAssetId = _sellerAssetId;\r\n        inspectLink = _inspectLink;\r\n        itemImageUrl = _itemImageUrl;\r\n        skinInfo = _skinInfo;\r\n    }\r\n    bool public hasInit;\r\n\r\n    function initExtraInfo(\r\n        Sticker[] memory _stickers,\r\n        string memory _weaponType,\r\n        address _paymentToken,\r\n        PriceType _priceType,\r\n        address _referralRegistryContract,\r\n        address _sCSXToken\r\n    ) external {\r\n        require(msg.sender == address(factoryContract) && !hasInit, \"!factory\");\r\n        hasInit = true;\r\n        for (uint256 i = 0; i < _stickers.length; i++) {\r\n            stickers.push(_stickers[i]);\r\n        }\r\n        usersContract.addUserInteractionStatus(\r\n            address(this),\r\n            Role.SELLER,\r\n            seller,\r\n            TradeStatus.ForSale\r\n        );\r\n        weaponType = _weaponType;\r\n        paymentToken = IERC20(_paymentToken);\r\n        priceType = _priceType;\r\n        referralRegistryContract = IReferralRegistry(_referralRegistryContract);\r\n        sCSXToken = IStakedCSX(_sCSXToken);\r\n    }\r\n\r\n    function stickerLength() external view returns (uint256) {\r\n        return stickers.length;\r\n    }\r\n\r\n    modifier onlyAddress(address _address) {\r\n        require(msg.sender == _address, \"!party\");\r\n        _;\r\n    }\r\n\r\n    modifier onlyTheseAddresses(address _add1, address _add2) {\r\n        require(msg.sender == _add1 || msg.sender == _add2, \"!group\");\r\n        _;\r\n    }\r\n\r\n    modifier onlyKeeperNode() {\r\n        require(keepersContract.isKeeperNode(msg.sender));\r\n        _;\r\n    }\r\n\r\n    modifier onlyKeepersOrNode() {\r\n        require(\r\n            keepersContract.isKeeperNode(msg.sender) ||\r\n                keepersContract.indexOf(msg.sender) != 0,\r\n            \"!kepr or orcl\"\r\n        );\r\n        _;\r\n    }\r\n\r\n    // Seller can cancel the listing up til any buyer has committed tokens.\r\n    function sellerCancel() external onlyAddress(seller) {\r\n        require(status == TradeStatus.ForSale, \"st !pen\");\r\n        status = TradeStatus.SellerCancelled;\r\n        usersContract.changeUserInteractionStatus(\r\n            address(this),\r\n            seller,\r\n            status\r\n        );\r\n        string memory data = string(\r\n            abi.encodePacked(\r\n                Strings.toString(weiPrice) /*,\r\n                \"||\", */\r\n            )\r\n        );\r\n        factoryContract.onStatusChange(status, data, seller, buyer);\r\n        factoryContract.removeAssetIdUsed(itemSellerAssetId, seller);\r\n    }\r\n\r\n    // Buyer commits tokens to buy if status-state allows & Sends trade-offer to sellers trade-link off-chain.\r\n    function commitBuy(\r\n        TradeUrl memory _buyerTradeUrl,\r\n        bytes32 _affLink\r\n    ) public {\r\n        require(status == TradeStatus.ForSale, \"!fs\");\r\n        require(tx.origin != seller, \"!seller\");\r\n\r\n        (uint256 buyerNetValue,,,) = getNetValue(_affLink);\r\n\r\n        require(paymentToken.transferFrom(msg.sender, address(this), buyerNetValue), 'transfer failed');\r\n\r\n        referralCode = _affLink;\r\n        \r\n        status = TradeStatus.BuyerCommitted;\r\n        buyerCommitTimestamp = block.timestamp;\r\n        usersContract.startDeliveryTimer(address(this), seller);\r\n        buyer = tx.origin;\r\n        buyerTradeUrl = _buyerTradeUrl;\r\n\r\n        depositedValue = paymentToken.balanceOf(address(this));\r\n\r\n        string memory data = string(\r\n            abi.encodePacked(\r\n                Strings.toString(sellerTradeUrl.partner),\r\n                \"+\",\r\n                sellerTradeUrl.token,\r\n                \"||\",\r\n                Strings.toString(_buyerTradeUrl.partner),\r\n                \"+\",\r\n                _buyerTradeUrl.token,\r\n                \"||\",\r\n                Strings.toHexString(tx.origin),\r\n                \"||\",\r\n                Strings.toString(weiPrice)\r\n            )\r\n        );\r\n\r\n        usersContract.changeUserInteractionStatus(\r\n            address(this),\r\n            seller,\r\n            status\r\n        );\r\n        usersContract.addUserInteractionStatus(\r\n            address(this),\r\n            Role.BUYER,\r\n            buyer,\r\n            status\r\n        );\r\n        factoryContract.onStatusChange(status, data, seller, buyer);\r\n    }\r\n\r\n    // Buyer can cancel the trade up til the seller has accepted the trade offer.\r\n    function buyerCancel() external onlyAddress(buyer) {\r\n        require(status == TradeStatus.BuyerCommitted, \"trdsts!comm\");\r\n        // require(block.timestamp >= buyerCommitTimestamp + 24 hours, \"!24hrs\");\r\n        // TODO: REMOVE THIS REQUIREMENT FOR TESTING\r\n        // require(block.timestamp >= buyerCommitTimestamp + 5 minutes, \"!5mnts\"); // FOR TESTING\r\n        status = TradeStatus.BuyerCancelled;\r\n        usersContract.changeUserInteractionStatus(\r\n            address(this),\r\n            seller,\r\n            status\r\n        );\r\n        usersContract.changeUserInteractionStatus(address(this), buyer, status);       \r\n \r\n\r\n        require(paymentToken.transfer(buyer, depositedValue), \"!snt\");\r\n\r\n        factoryContract.onStatusChange(status, \"BU DEFAULT\", seller, buyer);\r\n    }\r\n\r\n    // Seller Confirms or deny they have accepted the trade offer.\r\n    function sellerTradeVeridict(\r\n        bool sellerCommited\r\n    ) public onlyAddress(seller) {\r\n        require(status == TradeStatus.BuyerCommitted, \"trdsts!comm\");\r\n        if (sellerCommited) {\r\n            status = TradeStatus.SellerCommitted;\r\n            sellerAcceptedTimestamp = block.timestamp;\r\n            usersContract.changeUserInteractionStatus(\r\n                address(this),\r\n                seller,\r\n                status\r\n            );\r\n            usersContract.changeUserInteractionStatus(\r\n                address(this),\r\n                buyer,\r\n                status\r\n            );\r\n            factoryContract.onStatusChange(status, \"\", seller, buyer);\r\n        } else {\r\n            status = TradeStatus.SellerCancelledAfterBuyerCommitted;\r\n            usersContract.changeUserInteractionStatus(\r\n                address(this),\r\n                seller,\r\n                status\r\n            );\r\n            usersContract.changeUserInteractionStatus(\r\n                address(this),\r\n                buyer,\r\n                status\r\n            );\r\n            require(paymentToken.transfer(buyer, depositedValue), \"!snt\");\r\n            factoryContract.onStatusChange(status, \"SE DEFAULT\", seller, buyer);\r\n        }\r\n    }\r\n\r\n    // Buyer Confirms they have received the item.\r\n    function buyerConfirmReceived() public onlyAddress(buyer) {\r\n        require(\r\n            status == TradeStatus.BuyerCommitted ||\r\n                status == TradeStatus.SellerCommitted,\r\n            \"trdsts!comm|act.\"\r\n        );\r\n        status = TradeStatus.Completed;\r\n        usersContract.endDeliveryTimer(address(this), seller);\r\n        bool success = factoryContract.removeAssetIdUsed(\r\n            itemSellerAssetId,\r\n            seller\r\n        );\r\n        require(success, \"didn't remove tradeId\");\r\n        \r\n        _distributeProceeds();\r\n\r\n        usersContract.changeUserInteractionStatus(address(this), seller, status);\r\n        usersContract.changeUserInteractionStatus(address(this), buyer, status);\r\n        string memory data = string(\r\n            abi.encodePacked(Strings.toString(weiPrice), \"||\", \"MANUAL\")\r\n        );\r\n        factoryContract.onStatusChange(status, data, seller, buyer);\r\n    }\r\n\r\n    // Seller confirms the trade has been made after 3 days from acceptance.\r\n    function sellerConfirmsTrade() external onlyAddress(seller) {\r\n        require(status == TradeStatus.SellerCommitted, \"trdsts!comm\");\r\n        require(\r\n            block.timestamp >= sellerAcceptedTimestamp + 3 days,\r\n            \"3 days not passed\"\r\n        );\r\n        status = TradeStatus.Completed;\r\n        usersContract.endDeliveryTimer(address(this), seller);\r\n        usersContract.changeUserInteractionStatus(\r\n            address(this),\r\n            seller,\r\n            status\r\n        );\r\n        usersContract.changeUserInteractionStatus(address(this), buyer, status);\r\n        \r\n        //require(paymentToken.transfer(seller, depositedValue), \"!snt\");\r\n\r\n        _distributeProceeds();\r\n\r\n        string memory data = string(\r\n            abi.encodePacked(Strings.toString(weiPrice))\r\n        );\r\n        factoryContract.onStatusChange(status, data, seller, buyer);\r\n    }\r\n\r\n    // KeeperNode Confirms the trade has been made.\r\n    function keeperNodeConfirmsTrade(bool isTradeMade) external onlyKeeperNode {\r\n        require(\r\n            status == TradeStatus.BuyerCommitted ||\r\n                status == TradeStatus.SellerCommitted,\r\n            \"trdsts!>comm\"\r\n        );\r\n        if (isTradeMade) {\r\n            status = TradeStatus.Completed;\r\n            usersContract.endDeliveryTimer(address(this), seller);\r\n            usersContract.changeUserInteractionStatus(\r\n                address(this),\r\n                seller,\r\n                status\r\n            );\r\n            usersContract.changeUserInteractionStatus(\r\n                address(this),\r\n                buyer,\r\n                status\r\n            );\r\n            \r\n            // require(paymentToken.transfer(seller, depositedValue), \"!snt\");\r\n            _distributeProceeds();\r\n\r\n            string memory data = string(\r\n                abi.encodePacked(Strings.toString(weiPrice))\r\n            );\r\n            factoryContract.onStatusChange(status, data, seller, buyer);\r\n        } else {\r\n            TradeStatus oldStatus = status;\r\n            status = TradeStatus.Clawbacked;\r\n            usersContract.changeUserInteractionStatus(\r\n                address(this),\r\n                seller,\r\n                status\r\n            );\r\n            if (oldStatus >= TradeStatus.BuyerCommitted) {\r\n                usersContract.changeUserInteractionStatus(\r\n                    address(this),\r\n                    buyer,\r\n                    status\r\n                );\r\n            }            \r\n            require(paymentToken.transfer(buyer, depositedValue), \"!snt\");\r\n            factoryContract.onStatusChange(status, \"KO DEFAULT\", seller, buyer);\r\n        }\r\n\r\n        bool raS = factoryContract.removeAssetIdUsed(itemSellerAssetId, seller);\r\n        require(raS, \"!tradeId\");\r\n    }\r\n\r\n    // Or Buyer/Seller opens dispute in any state.\r\n    function openDispute(\r\n        string memory _complaint\r\n    ) external onlyTheseAddresses(seller, buyer) {\r\n        require(\r\n            status != TradeStatus.Disputed &&\r\n                status != TradeStatus.Resolved &&\r\n                status != TradeStatus.Clawbacked,\r\n            \"alreadyDis\"\r\n        );\r\n        status = TradeStatus.Disputed;\r\n        disputeer = msg.sender;\r\n        disputedStatus = status;\r\n        disputeComplaint = _complaint;\r\n        usersContract.changeUserInteractionStatus(\r\n            address(this),\r\n            seller,\r\n            status\r\n        );\r\n        usersContract.changeUserInteractionStatus(address(this), buyer, status);\r\n        factoryContract.onStatusChange(status, _complaint, seller, buyer);\r\n    }\r\n\r\n    // Keepers & KeeperNode resolves the dispute.\r\n    function resolveDispute(\r\n        bool isFavourOfBuyer,\r\n        bool giveWarningToSeller,\r\n        bool giveWarningToBuyer,\r\n        bool isWithValue\r\n    ) external onlyKeepersOrNode {\r\n        require(status == TradeStatus.Disputed, \"!disp\");\r\n        bool success = factoryContract.removeAssetIdUsed(\r\n            itemSellerAssetId,\r\n            seller\r\n        );\r\n        require(success, \"!tradeId\");\r\n        if (isFavourOfBuyer) {\r\n            status == TradeStatus.Clawbacked;\r\n            if (isWithValue) {\r\n                require(paymentToken.transfer(buyer, depositedValue), \"!snt\");\r\n            }\r\n        } else {\r\n            status = TradeStatus.Resolved;\r\n            if (isWithValue) {\r\n                // require(paymentToken.transfer(seller, depositedValue), \"!snt\");\r\n                _distributeProceeds();\r\n            }\r\n        }\r\n        if (giveWarningToSeller) {\r\n            usersContract.warnUser(seller);\r\n        }\r\n        if (giveWarningToBuyer) {\r\n            usersContract.warnUser(buyer);\r\n        }\r\n        usersContract.changeUserInteractionStatus(\r\n            address(this),\r\n            seller,\r\n            status\r\n        );\r\n        usersContract.changeUserInteractionStatus(address(this), buyer, status);\r\n        factoryContract.onStatusChange(status, \"\", seller, buyer);\r\n    }\r\n\r\n    // Private Functions\r\n    function _distributeProceeds() private {\r\n        // Fetch the referral code from the registry for the buyer\r\n        bytes32 storageRefCode = referralRegistryContract.getReferralCode(buyer);\r\n\r\n        // If the fetched referral code is not zero (i.e., it exists), then check if it's different from the current referral code.\r\n        // If it's different, then update the current referral code to the fetched one.\r\n        if(storageRefCode != bytes32(0)){\r\n            if(storageRefCode != referralCode){\r\n                referralCode = storageRefCode;\r\n            }\r\n        // If the fetched referral code is zero (i.e., it doesn't exist), then check if the current referral code is not zero.\r\n        // If the current referral code is not zero, then we need to validate it.\r\n        } else if(referralCode != bytes32(0)) { \r\n            // Check if the current referral code is registered. If it's not, then we set the referral code to zero and skip further checks.\r\n            if(!referralRegistryContract.isReferralCodeRegistered(referralCode)){\r\n                referralCode = bytes32(0);\r\n            } else {\r\n                // If the referral code is valid, then we fetch the owner of the referral code.\r\n                address refOwner = referralRegistryContract.getReferralCodeOwner(referralCode);\r\n                // Check if the owner of the referral code is not the buyer.\r\n                // If it's the buyer, then we set the referral code to zero.\r\n                // If it's not the buyer, then we set the referral code as Primary for the buyer.\r\n                if(refOwner == buyer){\r\n                    referralCode = bytes32(0);\r\n                } else {\r\n                    referralRegistryContract.setReferralCodeAsTC(referralCode, buyer);\r\n                } \r\n            }\r\n        }\r\n\r\n        (uint256 buyerNetPrice, uint256 sellerNetProceeds, uint256 affiliatorNetReward, uint256 tokenHoldersNetReward) = getNetValue(referralCode);\r\n        require(paymentToken.transfer(seller, sellerNetProceeds), \"!ssnt\");\r\n        if(affiliatorNetReward > 0){\r\n            require(paymentToken.transfer(referralRegistryContract.getReferralCodeOwner(referralCode), affiliatorNetReward), \"!rsnt\");\r\n            referralRegistryContract.emitReferralCodeRebateUpdated(address(this), address(paymentToken), referralCode, affiliatorNetReward);\r\n        }\r\n        paymentToken.approve(address(sCSXToken), tokenHoldersNetReward);\r\n        require(sCSXToken.depositDividend(address(paymentToken), tokenHoldersNetReward), '!tsnt');\r\n        usersContract.emitNewTrade(seller, buyer, referralCode, priceType, buyerNetPrice);        \r\n    }\r\n\r\n    function getNetValue(bytes32 _affLink) public view returns (uint256 buyerNetPrice, uint256 sellerNetProceeds, uint256 affiliatorNetReward, uint256 tokenHoldersNetReward) {\r\n        bool hasReferral = referralRegistryContract.getReferralCodeOwner(\r\n            _affLink\r\n        ) != address(0);\r\n\r\n        uint256 ownerRatio;\r\n\r\n        if(hasReferral){\r\n            (uint256 _ownerRatio, /*uint256 buyerRatio*/) = referralRegistryContract.getReferralCodeRatios(_affLink);\r\n            ownerRatio = _ownerRatio;\r\n        }    \r\n\r\n        (\r\n            buyerNetPrice,\r\n            sellerNetProceeds,\r\n            affiliatorNetReward,\r\n            tokenHoldersNetReward\r\n        ) = referralRegistryContract.calculateNetValue(\r\n                weiPrice,\r\n                hasReferral,\r\n                factoryContract.baseFee(),\r\n                ownerRatio\r\n        );\r\n    }\r\n}\r\n",
  "sourcePath": "C:\\Users\\Charl\\Documents\\Projects\\SteamMarket\\CSX\\csx-contracts\\contracts\\Trade\\Trade.sol",
  "compiler": {
    "name": "solc",
    "version": "0.8.19+commit.7dd6d404.Emscripten.clang"
  },
  "schemaVersion": "3.4.3",
  "updatedAt": "2023-05-12T09:06:05.367Z",
  "devdoc": {
    "kind": "dev",
    "methods": {},
    "version": 1
  },
  "userdoc": {
    "kind": "user",
    "methods": {},
    "version": 1
  }
}