{
  "contractName": "CSXTradeFactory",
  "abi": [
    {
      "inputs": [
        {
          "internalType": "address",
          "name": "_keepers",
          "type": "address"
        },
        {
          "internalType": "address",
          "name": "_users",
          "type": "address"
        },
        {
          "internalType": "address",
          "name": "_tradeFactoryBaseStorage",
          "type": "address"
        }
      ],
      "stateMutability": "nonpayable",
      "type": "constructor"
    },
    {
      "anonymous": false,
      "inputs": [
        {
          "indexed": false,
          "internalType": "address",
          "name": "contractAddress",
          "type": "address"
        },
        {
          "indexed": false,
          "internalType": "enum TradeStatus",
          "name": "",
          "type": "uint8"
        },
        {
          "indexed": false,
          "internalType": "string",
          "name": "data",
          "type": "string"
        },
        {
          "indexed": false,
          "internalType": "address",
          "name": "sellerAddress",
          "type": "address"
        },
        {
          "indexed": false,
          "internalType": "address",
          "name": "buyerAddress",
          "type": "address"
        }
      ],
      "name": "TradeContractStatusChange",
      "type": "event"
    },
    {
      "inputs": [
        {
          "internalType": "string",
          "name": "",
          "type": "string"
        },
        {
          "internalType": "address",
          "name": "",
          "type": "address"
        }
      ],
      "name": "assetIdFromUserAddrssToTradeAddrss",
      "outputs": [
        {
          "internalType": "address",
          "name": "",
          "type": "address"
        }
      ],
      "stateMutability": "view",
      "type": "function",
      "constant": true
    },
    {
      "inputs": [
        {
          "internalType": "string",
          "name": "_assetId",
          "type": "string"
        },
        {
          "internalType": "address",
          "name": "sellerAddrss",
          "type": "address"
        }
      ],
      "name": "hasAlreadyListedItem",
      "outputs": [
        {
          "internalType": "bool",
          "name": "",
          "type": "bool"
        }
      ],
      "stateMutability": "view",
      "type": "function",
      "constant": true
    },
    {
      "inputs": [
        {
          "internalType": "address",
          "name": "contractAddress",
          "type": "address"
        }
      ],
      "name": "isThisTradeContract",
      "outputs": [
        {
          "internalType": "bool",
          "name": "",
          "type": "bool"
        }
      ],
      "stateMutability": "view",
      "type": "function",
      "constant": true
    },
    {
      "inputs": [],
      "name": "keepersContract",
      "outputs": [
        {
          "internalType": "contract IKeepers",
          "name": "",
          "type": "address"
        }
      ],
      "stateMutability": "view",
      "type": "function",
      "constant": true
    },
    {
      "inputs": [
        {
          "internalType": "enum TradeStatus",
          "name": "status",
          "type": "uint8"
        },
        {
          "internalType": "string",
          "name": "data",
          "type": "string"
        },
        {
          "internalType": "address",
          "name": "sellerAddress",
          "type": "address"
        },
        {
          "internalType": "address",
          "name": "buyerAddress",
          "type": "address"
        }
      ],
      "name": "onStatusChange",
      "outputs": [],
      "stateMutability": "nonpayable",
      "type": "function"
    },
    {
      "inputs": [
        {
          "internalType": "string",
          "name": "_assetId",
          "type": "string"
        },
        {
          "internalType": "address",
          "name": "sellerAddrss",
          "type": "address"
        }
      ],
      "name": "removeAssetIdUsed",
      "outputs": [
        {
          "internalType": "bool",
          "name": "",
          "type": "bool"
        }
      ],
      "stateMutability": "nonpayable",
      "type": "function"
    },
    {
      "inputs": [],
      "name": "usersContract",
      "outputs": [
        {
          "internalType": "contract IUsers",
          "name": "",
          "type": "address"
        }
      ],
      "stateMutability": "view",
      "type": "function",
      "constant": true
    },
    {
      "inputs": [
        {
          "internalType": "string",
          "name": "_itemMarketName",
          "type": "string"
        },
        {
          "components": [
            {
              "internalType": "uint256",
              "name": "partner",
              "type": "uint256"
            },
            {
              "internalType": "string",
              "name": "token",
              "type": "string"
            }
          ],
          "internalType": "struct TradeUrl",
          "name": "_tradeUrl",
          "type": "tuple"
        },
        {
          "internalType": "string",
          "name": "_assetId",
          "type": "string"
        },
        {
          "internalType": "string",
          "name": "_inspectLink",
          "type": "string"
        },
        {
          "internalType": "string",
          "name": "_itemImageUrl",
          "type": "string"
        },
        {
          "internalType": "uint256",
          "name": "_weiPrice",
          "type": "uint256"
        },
        {
          "components": [
            {
              "internalType": "string",
              "name": "floatValues",
              "type": "string"
            },
            {
              "internalType": "uint256",
              "name": "paintSeed",
              "type": "uint256"
            },
            {
              "internalType": "uint256",
              "name": "paintIndex",
              "type": "uint256"
            }
          ],
          "internalType": "struct SkinInfo",
          "name": "_skinInfo",
          "type": "tuple"
        },
        {
          "components": [
            {
              "internalType": "string",
              "name": "name",
              "type": "string"
            },
            {
              "internalType": "string",
              "name": "material",
              "type": "string"
            },
            {
              "internalType": "uint8",
              "name": "slot",
              "type": "uint8"
            },
            {
              "internalType": "string",
              "name": "imageLink",
              "type": "string"
            }
          ],
          "internalType": "struct Sticker[]",
          "name": "_stickers",
          "type": "tuple[]"
        },
        {
          "internalType": "string",
          "name": "_weaponType",
          "type": "string"
        }
      ],
      "name": "createListingContract",
      "outputs": [],
      "stateMutability": "nonpayable",
      "type": "function"
    },
    {
      "inputs": [
        {
          "internalType": "uint256",
          "name": "index",
          "type": "uint256"
        }
      ],
      "name": "getTradeDetailsByIndex",
      "outputs": [
        {
          "components": [
            {
              "internalType": "address",
              "name": "contractAddress",
              "type": "address"
            },
            {
              "internalType": "address",
              "name": "seller",
              "type": "address"
            },
            {
              "components": [
                {
                  "internalType": "uint256",
                  "name": "partner",
                  "type": "uint256"
                },
                {
                  "internalType": "string",
                  "name": "token",
                  "type": "string"
                }
              ],
              "internalType": "struct TradeUrl",
              "name": "sellerTradeUrl",
              "type": "tuple"
            },
            {
              "internalType": "address",
              "name": "buyer",
              "type": "address"
            },
            {
              "components": [
                {
                  "internalType": "uint256",
                  "name": "partner",
                  "type": "uint256"
                },
                {
                  "internalType": "string",
                  "name": "token",
                  "type": "string"
                }
              ],
              "internalType": "struct TradeUrl",
              "name": "buyerTradeUrl",
              "type": "tuple"
            },
            {
              "internalType": "string",
              "name": "itemMarketName",
              "type": "string"
            },
            {
              "internalType": "string",
              "name": "inspectLink",
              "type": "string"
            },
            {
              "internalType": "string",
              "name": "itemImageUrl",
              "type": "string"
            },
            {
              "internalType": "uint256",
              "name": "weiPrice",
              "type": "uint256"
            },
            {
              "internalType": "uint256",
              "name": "averageSellerDeliveryTime",
              "type": "uint256"
            },
            {
              "components": [
                {
                  "internalType": "string",
                  "name": "floatValues",
                  "type": "string"
                },
                {
                  "internalType": "uint256",
                  "name": "paintSeed",
                  "type": "uint256"
                },
                {
                  "internalType": "uint256",
                  "name": "paintIndex",
                  "type": "uint256"
                }
              ],
              "internalType": "struct SkinInfo",
              "name": "skinInfo",
              "type": "tuple"
            },
            {
              "internalType": "enum TradeStatus",
              "name": "status",
              "type": "uint8"
            },
            {
              "components": [
                {
                  "internalType": "string",
                  "name": "name",
                  "type": "string"
                },
                {
                  "internalType": "string",
                  "name": "material",
                  "type": "string"
                },
                {
                  "internalType": "uint8",
                  "name": "slot",
                  "type": "uint8"
                },
                {
                  "internalType": "string",
                  "name": "imageLink",
                  "type": "string"
                }
              ],
              "internalType": "struct Sticker[]",
              "name": "stickers",
              "type": "tuple[]"
            },
            {
              "internalType": "string",
              "name": "weaponType",
              "type": "string"
            }
          ],
          "internalType": "struct TradeInfo",
          "name": "result",
          "type": "tuple"
        }
      ],
      "stateMutability": "view",
      "type": "function",
      "constant": true
    },
    {
      "inputs": [
        {
          "internalType": "address",
          "name": "tradeAddrs",
          "type": "address"
        }
      ],
      "name": "getTradeDetailsByAddress",
      "outputs": [
        {
          "components": [
            {
              "internalType": "address",
              "name": "contractAddress",
              "type": "address"
            },
            {
              "internalType": "address",
              "name": "seller",
              "type": "address"
            },
            {
              "components": [
                {
                  "internalType": "uint256",
                  "name": "partner",
                  "type": "uint256"
                },
                {
                  "internalType": "string",
                  "name": "token",
                  "type": "string"
                }
              ],
              "internalType": "struct TradeUrl",
              "name": "sellerTradeUrl",
              "type": "tuple"
            },
            {
              "internalType": "address",
              "name": "buyer",
              "type": "address"
            },
            {
              "components": [
                {
                  "internalType": "uint256",
                  "name": "partner",
                  "type": "uint256"
                },
                {
                  "internalType": "string",
                  "name": "token",
                  "type": "string"
                }
              ],
              "internalType": "struct TradeUrl",
              "name": "buyerTradeUrl",
              "type": "tuple"
            },
            {
              "internalType": "string",
              "name": "itemMarketName",
              "type": "string"
            },
            {
              "internalType": "string",
              "name": "inspectLink",
              "type": "string"
            },
            {
              "internalType": "string",
              "name": "itemImageUrl",
              "type": "string"
            },
            {
              "internalType": "uint256",
              "name": "weiPrice",
              "type": "uint256"
            },
            {
              "internalType": "uint256",
              "name": "averageSellerDeliveryTime",
              "type": "uint256"
            },
            {
              "components": [
                {
                  "internalType": "string",
                  "name": "floatValues",
                  "type": "string"
                },
                {
                  "internalType": "uint256",
                  "name": "paintSeed",
                  "type": "uint256"
                },
                {
                  "internalType": "uint256",
                  "name": "paintIndex",
                  "type": "uint256"
                }
              ],
              "internalType": "struct SkinInfo",
              "name": "skinInfo",
              "type": "tuple"
            },
            {
              "internalType": "enum TradeStatus",
              "name": "status",
              "type": "uint8"
            },
            {
              "components": [
                {
                  "internalType": "string",
                  "name": "name",
                  "type": "string"
                },
                {
                  "internalType": "string",
                  "name": "material",
                  "type": "string"
                },
                {
                  "internalType": "uint8",
                  "name": "slot",
                  "type": "uint8"
                },
                {
                  "internalType": "string",
                  "name": "imageLink",
                  "type": "string"
                }
              ],
              "internalType": "struct Sticker[]",
              "name": "stickers",
              "type": "tuple[]"
            },
            {
              "internalType": "string",
              "name": "weaponType",
              "type": "string"
            }
          ],
          "internalType": "struct TradeInfo",
          "name": "result",
          "type": "tuple"
        }
      ],
      "stateMutability": "view",
      "type": "function",
      "constant": true
    },
    {
      "inputs": [
        {
          "internalType": "enum TradeStatus",
          "name": "status",
          "type": "uint8"
        },
        {
          "internalType": "uint256",
          "name": "indexFrom",
          "type": "uint256"
        },
        {
          "internalType": "uint256",
          "name": "maxResults",
          "type": "uint256"
        }
      ],
      "name": "getTradeIndexesByStatus",
      "outputs": [
        {
          "components": [
            {
              "internalType": "uint256",
              "name": "index",
              "type": "uint256"
            },
            {
              "internalType": "uint256",
              "name": "weiPrice",
              "type": "uint256"
            },
            {
              "internalType": "enum PriceType",
              "name": "priceType",
              "type": "uint8"
            },
            {
              "internalType": "string",
              "name": "weaponType",
              "type": "string"
            },
            {
              "internalType": "string",
              "name": "itemMarketName",
              "type": "string"
            },
            {
              "internalType": "uint256",
              "name": "nextIndex",
              "type": "uint256"
            }
          ],
          "internalType": "struct TradeIndex[]",
          "name": "",
          "type": "tuple[]"
        }
      ],
      "stateMutability": "view",
      "type": "function",
      "constant": true
    },
    {
      "inputs": [
        {
          "internalType": "enum TradeStatus",
          "name": "status",
          "type": "uint8"
        }
      ],
      "name": "getTradeCountByStatus",
      "outputs": [
        {
          "internalType": "uint256",
          "name": "",
          "type": "uint256"
        }
      ],
      "stateMutability": "view",
      "type": "function",
      "constant": true
    }
  ],
  "bytecode": "0x60806040523480156200001157600080fd5b506040516200293d3803806200293d833981016040819052620000349162000099565b600160005560038054600160a060020a03948516600160a060020a031991821617909155600480549385169382169390931790925560058054919093169116179055620000e3565b8051600160a060020a03811681146200009457600080fd5b919050565b600080600060608486031215620000af57600080fd5b620000ba846200007c565b9250620000ca602085016200007c565b9150620000da604085016200007c565b90509250925092565b61284a80620000f36000396000f3fe608060405234801561001057600080fd5b50600436106100a75760e060020a6000350463142ebf3c81146100ac57806333034d71146100d5578063346c743d146100f55780635a9ad1e0146101155780635cdab798146101365780636311c2f21461014b5780636e4235f61461016e5780637c31f38b1461019a578063adea4866146101ad578063c2bd884b146101c0578063f24cbf37146101d3578063f983567d146101e6575b600080fd5b6004546100bf90600160a060020a031681565b6040516100cc91906118e0565b60405180910390f35b6100e86100e33660046118f4565b61022a565b6040516100cc9190611a9a565b610108610103366004611c0e565b610a9d565b6040516100cc9190611c43565b610128610123366004611d03565b610cfd565b6040519081526020016100cc565b610149610144366004611e24565b610de9565b005b61015e610159366004611e98565b610e57565b60405190151581526020016100cc565b61015e61017c366004611ee9565b600160a060020a031660009081526002602052604090205460ff1690565b61015e6101a8366004611e98565b610ee1565b6100e86101bb366004611ee9565b610f3a565b6003546100bf90600160a060020a031681565b6101496101e1366004612130565b610f6b565b6100bf6101f4366004611e98565b815160208184018101805160068252928201948201949094209190935290915260009081526040902054600160a060020a031681565b6102326117df565b60055460405160e260020a6313ae700d028152600481018490528391600091600160a060020a0390911690634eb9c03490602401602060405180830381865afa158015610283573d6000803e3d6000fd5b505050506040513d601f19601f820116820180604052508101906102a79190612279565b600160a060020a0381168085526040805160e060020a6308551a53028152905192935090916308551a53916004808201926020929091908290030181865afa1580156102f7573d6000803e3d6000fd5b505050506040513d601f19601f8201168201806040525081019061031b9190612279565b8360200190600160a060020a03169081600160a060020a03168152505080600160a060020a0316637150d8ae6040518163ffffffff1660e060020a028152600401602060405180830381865afa158015610379573d6000803e3d6000fd5b505050506040513d601f19601f8201168201806040525081019061039d9190612279565b8360600190600160a060020a03169081600160a060020a03168152505080600160a060020a0316631e86221f6040518163ffffffff1660e060020a028152600401600060405180830381865afa1580156103fb573d6000803e3d6000fd5b505050506040513d6000823e601f3d908101601f1916820160405261042391908101906122db565b8360a0018190525080600160a060020a03166370e066f66040518163ffffffff1660e060020a028152600401600060405180830381865afa15801561046c573d6000803e3d6000fd5b505050506040513d6000823e601f3d908101601f1916820160405261049491908101906122db565b60c08401526104a161185e565b81600160a060020a03166302197c556040518163ffffffff1660e060020a028152600401600060405180830381865afa1580156104e2573d6000803e3d6000fd5b505050506040513d6000823e601f3d908101601f1916820160405261050a919081019061230f565b602083015281526040840181905261052061185e565b82600160a060020a031663fddd56c56040518163ffffffff1660e060020a028152600401600060405180830381865afa158015610561573d6000803e3d6000fd5b505050506040513d6000823e601f3d908101601f19168201604052610589919081019061230f565b602080840191909152908252608086018290526040805160e060020a63e29b9e970281529051600160a060020a0386169263e29b9e9792600480820193918290030181865afa1580156105e0573d6000803e3d6000fd5b505050506040513d601f19601f820116820180604052508101906106049190612356565b8561010001818152505082600160a060020a031663e67d55236040518163ffffffff1660e060020a028152600401600060405180830381865afa15801561064f573d6000803e3d6000fd5b505050506040513d6000823e601f3d908101601f1916820160405261067791908101906122db565b60e086015260048054602087015160405160e460020a630791bd0d028152600160a060020a039092169263791bd0d0926106b29291016118e0565b602060405180830381865afa1580156106cf573d6000803e3d6000fd5b505050506040513d601f19601f820116820180604052508101906106f39190612356565b610120860152610701611878565b83600160a060020a0316636fed1d7e6040518163ffffffff1660e060020a028152600401600060405180830381865afa158015610742573d6000803e3d6000fd5b505050506040513d6000823e601f3d908101601f1916820160405261076a919081019061236f565b6040808501919091526020808501929092529183526101408801839052815160e160020a63100697690281529151600160a060020a0387169263200d2ed29260048083019391928290030181865afa1580156107ca573d6000803e3d6000fd5b505050506040513d601f19601f820116820180604052508101906107ee91906123be565b8661016001906009811115610805576108056119c6565b90816009811115610818576108186119c6565b81525050600084600160a060020a031663f4a84e0f6040518163ffffffff1660e060020a028152600401602060405180830381865afa15801561085f573d6000803e3d6000fd5b505050506040513d601f19601f820116820180604052508101906108839190612356565b90506000816001604060020a0381111561089f5761089f611d20565b6040519080825280602002602001820160405280156108fe57816020015b6108eb60405180608001604052806060815260200160608152602001600060ff168152602001606081525090565b8152602001906001900390816108bd5790505b50905060005b8151811015610a165760405160e760020a63011f2cbb02815260048101829052600160a060020a03881690638f965d8090602401600060405180830381865afa158015610955573d6000803e3d6000fd5b505050506040513d6000823e601f3d908101601f1916820160405261097d91908101906123db565b85858151811061098f5761098f612476565b60200260200101516000018686815181106109ac576109ac612476565b60200260200101516020018787815181106109c9576109c9612476565b60200260200101516040018888815181106109e6576109e6612476565b60209081029190910101516060019390935260ff9093169091529190525280610a0e816124aa565b915050610904565b508088610180018190525085600160a060020a0316638dada6d86040518163ffffffff1660e060020a028152600401600060405180830381865afa158015610a62573d6000803e3d6000fd5b505050506040513d6000823e601f3d908101601f19168201604052610a8a91908101906122db565b6101a08901525095979650505050505050565b60606000826001604060020a03811115610ab957610ab9611d20565b604051908082528060200260200182016040528015610af257816020015b610adf611899565b815260200190600190039081610ad75790505b5090506000808590506000600560009054906101000a9004600160a060020a0316600160a060020a031663a09037a96040518163ffffffff1660e060020a028152600401602060405180830381865afa158015610b53573d6000803e3d6000fd5b505050506040513d601f19601f82011682018060405250810190610b779190612356565b90505b8583108015610b8857508082105b15610cf1576000610b988361022a565b9050886009811115610bac57610bac6119c6565b8161016001516009811115610bc357610bc36119c6565b03610ce05782858581518110610bdb57610bdb612476565b60200260200101516000018181525050806101000151858581518110610c0357610c03612476565b602002602001015160200181815250506000858581518110610c2757610c27612476565b6020026020010151604001906002811115610c4457610c446119c6565b90816002811115610c5757610c576119c6565b81525050806101a00151858581518110610c7357610c73612476565b6020026020010151606001819052508060a00151858581518110610c9957610c99612476565b602090810291909101015160800152610cb38360016124c3565b858581518110610cc557610cc5612476565b602090810291909101015160a00152610cdd846124aa565b93505b610ce9836124aa565b925050610b7a565b50919695505050505050565b600080600080600560009054906101000a9004600160a060020a0316600160a060020a031663a09037a96040518163ffffffff1660e060020a028152600401602060405180830381865afa158015610d59573d6000803e3d6000fd5b505050506040513d601f19601f82011682018060405250810190610d7d9190612356565b90505b80821015610de0576000610d938361022a565b9050856009811115610da757610da76119c6565b8161016001516009811115610dbe57610dbe6119c6565b03610dcf57610dcc846124aa565b93505b610dd8836124aa565b925050610d80565b50909392505050565b3360009081526002602052604090205460ff16610e245760405160e560020a62461bcd028152600401610e1b906124d6565b60405180910390fd5b6000805160206127f58339815191523385858585604051610e499594939291906124f6565b60405180910390a150505050565b3360009081526002602052604081205460ff16610e895760405160e560020a62461bcd028152600401610e1b906124d6565b6000600684604051610e9b919061255d565b9081526040805160209281900383019020600160a060020a03868116600090815291909352208054600160a060020a031916929091169190911790555060015b92915050565b600080600160a060020a0316600684604051610efd919061255d565b9081526040805160209281900383019020600160a060020a0386811660009081529190935220541603610f3257506000610edb565b506001610edb565b610f426117df565b600160a060020a038216600090815260016020526040902054610f648161022a565b9392505050565b610f73611451565b6004805460405160e060020a6397f735d5028152600160a060020a03909116916397f735d591610fa5913391016118e0565b602060405180830381865afa158015610fc2573d6000803e3d6000fd5b505050506040513d601f19601f82011682018060405250810190610fe69190612579565b1561101f5760405160e560020a62461bcd028152602060048201526003602482015260ea60020a62189b99026044820152606401610e1b565b6000600160a060020a031660068860405161103a919061255d565b90815260408051602092819003830190203360009081529252902054600160a060020a0316146110975760405160e560020a62461bcd028152602060048201526002602482015260f260020a611a59026044820152606401610e1b565b60055460405160e160020a633beb05cd028152600160a060020a03909116906377d60b9a906110d6908c908c908c908c908c908c908c9060040161259b565b600060405180830381600087803b1580156110f057600080fd5b505af1158015611104573d6000803e3d6000fd5b505050506000600560009054906101000a9004600160a060020a0316600160a060020a03166394a792e16040518163ffffffff1660e060020a028152600401602060405180830381865afa158015611160573d6000803e3d6000fd5b505050506040513d601f19601f820116820180604052508101906111849190612279565b90506000600560009054906101000a9004600160a060020a0316600160a060020a031663a09037a96040518163ffffffff1660e060020a028152600401602060405180830381865afa1580156111de573d6000803e3d6000fd5b505050506040513d601f19601f820116820180604052508101906112029190612356565b600160a060020a038084166000908152600260205260408120805460ff19166001908117909155600554939450909290911690634eb9c034906112459085612624565b6040518263ffffffff1660e060020a02815260040161126691815260200190565b602060405180830381865afa158015611283573d6000803e3d6000fd5b505050506040513d601f19601f820116820180604052508101906112a79190612279565b60405160e160020a631fe5f2ed028152909150600160a060020a03821690633fcbe5da906112db9088908890600401612637565b600060405180830381600087803b1580156112f557600080fd5b505af1158015611309573d6000803e3d6000fd5b5050505060018261131a9190612624565b600160a060020a0384166000908152600160205260409081902091909155518390600690611349908d9061255d565b90815260408051602092819003830181203360009081529084528290208054600160a060020a031916600160a060020a039590951694909417909355606080840182528084529183018290528201528b516113a3906114ad565b81526113ae886114ad565b60208201526113bc33611542565b816040018190525060008d8c83600001518f602001518b60000151866020015187604001516040516020016113f797969594939291906126e7565b60405160208183030381529060405290506000805160206127f58339815191528560008333600060405161142f9594939291906124f6565b60405180910390a150505050506114466001600055565b505050505050505050565b6002600054036114a65760405160e560020a62461bcd02815260206004820152601f60248201527f5265656e7472616e637947756172643a207265656e7472616e742063616c6c006044820152606401610e1b565b6002600055565b606060006114ba83611558565b60010190506000816001604060020a038111156114d9576114d9611d20565b6040519080825280601f01601f191660200182016040528015611503576020820181803683370190505b5090508181016020015b60001901608160020a6f181899199a1a9b1b9c1cb0b131b232b302600a86061a8153600a850494508461150d57509392505050565b6060610edb600160a060020a0383166014611636565b600080604060020a72184f03e93ff9f4daa797ed6e38ed64bf6a1f0102831061159d57604060020a72184f03e93ff9f4daa797ed6e38ed64bf6a1f0102830492506040015b6d04ee2d6d415b85acef810000000083106115c9576d04ee2d6d415b85acef8100000000830492506020015b662386f26fc1000083106115e757662386f26fc10000830492506010015b6305f5e10083106115ff576305f5e100830492506008015b612710831061161357612710830492506004015b60648310611625576064830492506002015b600a8310610edb5760010192915050565b606060006116458360026127c6565b6116509060026124c3565b6001604060020a0381111561166757611667611d20565b6040519080825280601f01601f191660200182016040528015611691576020820181803683370190505b50905060fc60020a600302816000815181106116af576116af612476565b6020010190600160f860020a031916908160001a90535060fb60020a600f02816001815181106116e1576116e1612476565b6020010190600160f860020a031916908160001a90535060006117058460026127c6565b6117109060016124c3565b90505b600181111561178d57608160020a6f181899199a1a9b1b9c1cb0b131b232b30285600f166010811061174757611747612476565b1a60f860020a0282828151811061176057611760612476565b6020010190600160f860020a031916908160001a905350601090940493611786816127dd565b9050611713565b508315610f645760405160e560020a62461bcd02815260206004820181905260248201527f537472696e67733a20686578206c656e67746820696e73756666696369656e746044820152606401610e1b565b604080516101c081018252600080825260208201529081016117ff61185e565b81526000602082015260400161181361185e565b81526020016060815260200160608152602001606081526020016000815260200160008152602001611843611878565b81526020016000815260200160608152602001606081525090565b604051806040016040528060008152602001606081525090565b60405180606001604052806060815260200160008152602001600081525090565b6040518060c001604052806000815260200160008152602001600060028111156118c5576118c56119c6565b81526020016060815260200160608152602001600081525090565b600160a060020a0391909116815260200190565b60006020828403121561190657600080fd5b5035919050565b600160a060020a03169052565b60005b8381101561193557818101518382015260200161191d565b50506000910152565b6000815180845261195681602086016020860161191a565b601f01601f19169290920160200192915050565b805182526000602082015160406020850152611989604085018261193e565b949350505050565b60008151606084526119a6606085018261193e565b905060208301516020850152604083015160408501528091505092915050565b60e060020a634e487b710260009081526021600452602490fd5b600a81106119f0576119f06119c6565b9052565b6000828251808552602080860195508081830284010181860160005b84811015611a8d57601f19868403018952815160808151818652611a368287018261193e565b9150508582015185820387870152611a4e828261193e565b915050604060ff8184015116818701525060608083015192508582038187015250611a79818361193e565b9a86019a9450505090830190600101611a10565b5090979650505050505050565b60208152611aac60208201835161190d565b60006020830151611ac0604084018261190d565b5060408301516101c0806060850152611add6101e085018361196a565b91506060850151611af1608086018261190d565b506080850151601f19808685030160a0870152611b0e848361196a565b935060a08701519150808685030160c0870152611b2b848361193e565b935060c08701519150808685030160e0870152611b48848361193e565b935060e08701519150610100818786030181880152611b67858461193e565b9088015161012088810191909152880151610140808901919091528801518782038301610160808a01919091529195509250611ba38584611991565b945080880151925050610180611bbb818801846119e0565b808801519250506101a0818786030181880152611bd885846119f4565b908801518782039092018488015293509050611bf4838261193e565b9695505050505050565b600a8110611c0b57600080fd5b50565b600080600060608486031215611c2357600080fd5b8335611c2e81611bfe565b95602085013595506040909401359392505050565b60208082528251828201819052600091906040908185019080840286018301878501865b83811015611cf557603f19898403018552815160c08151855288820151898601528782015160038110611c9c57611c9c6119c6565b85890152606082810151818701839052611cb88388018261193e565b9250505060808083015186830382880152611cd3838261193e565b60a0948501519790940196909652505094870194925090860190600101611c67565b509098975050505050505050565b600060208284031215611d1557600080fd5b8135610f6481611bfe565b60e060020a634e487b710260009081526041600452602490fd5b604051608081016001604060020a0381118282101715611d5c57611d5c611d20565b60405290565b604051601f8201601f191681016001604060020a0381118282101715611d8a57611d8a611d20565b604052919050565b60006001604060020a03821115611dab57611dab611d20565b50601f01601f191660200190565b600082601f830112611dca57600080fd5b8135611ddd611dd882611d92565b611d62565b818152846020838601011115611df257600080fd5b816020850160208301376000918101602001919091529392505050565b600160a060020a0381168114611c0b57600080fd5b60008060008060808587031215611e3a57600080fd5b8435611e4581611bfe565b935060208501356001604060020a03811115611e6057600080fd5b611e6c87828801611db9565b9350506040850135611e7d81611e0f565b91506060850135611e8d81611e0f565b939692955090935050565b60008060408385031215611eab57600080fd5b82356001604060020a03811115611ec157600080fd5b611ecd85828601611db9565b9250506020830135611ede81611e0f565b809150509250929050565b600060208284031215611efb57600080fd5b8135610f6481611e0f565b600060408284031215611f1857600080fd5b604080519081016001604060020a038082118383101715611f3b57611f3b611d20565b81604052829350843583526020850135915080821115611f5a57600080fd5b50611f6785828601611db9565b6020830152505092915050565b600060608284031215611f8657600080fd5b604051606081016001604060020a038082118383101715611fa957611fa9611d20565b816040528293508435915080821115611fc157600080fd5b50611fce85828601611db9565b82525060208301356020820152604083013560408201525092915050565b60ff81168114611c0b57600080fd5b600082601f83011261200c57600080fd5b813560206001604060020a038083111561202857612028611d20565b818302612036838201611d62565b938452858101830193838101908886111561205057600080fd5b84880192505b858310156121245782358481111561206e5760008081fd5b88016080818b03601f19018113156120865760008081fd5b61208e611d3a565b87830135878111156120a05760008081fd5b6120ae8d8a83870101611db9565b825250604080840135888111156120c55760008081fd5b6120d38e8b83880101611db9565b8a840152506060808501356120e781611fec565b8383015292840135928884111561210057600091508182fd5b61210e8e8b86880101611db9565b9083015250845250509184019190840190612056565b98975050505050505050565b60008060008060008060008060006101208a8c03121561214f57600080fd5b89356001604060020a038082111561216657600080fd5b6121728d838e01611db9565b9a5060208c013591508082111561218857600080fd5b6121948d838e01611f06565b995060408c01359150808211156121aa57600080fd5b6121b68d838e01611db9565b985060608c01359150808211156121cc57600080fd5b6121d88d838e01611db9565b975060808c01359150808211156121ee57600080fd5b6121fa8d838e01611db9565b965060a08c0135955060c08c013591508082111561221757600080fd5b6122238d838e01611f74565b945060e08c013591508082111561223957600080fd5b6122458d838e01611ffb565b93506101008c013591508082111561225c57600080fd5b506122698c828d01611db9565b9150509295985092959850929598565b60006020828403121561228b57600080fd5b8151610f6481611e0f565b600082601f8301126122a757600080fd5b81516122b5611dd882611d92565b8181528460208386010111156122ca57600080fd5b61198982602083016020870161191a565b6000602082840312156122ed57600080fd5b81516001604060020a0381111561230357600080fd5b61198984828501612296565b6000806040838503121561232257600080fd5b825160208401519092506001604060020a0381111561234057600080fd5b61234c85828601612296565b9150509250929050565b60006020828403121561236857600080fd5b5051919050565b60008060006060848603121561238457600080fd5b83516001604060020a0381111561239a57600080fd5b6123a686828701612296565b93505060208401519150604084015190509250925092565b6000602082840312156123d057600080fd5b8151610f6481611bfe565b600080600080608085870312156123f157600080fd5b84516001604060020a038082111561240857600080fd5b61241488838901612296565b9550602087015191508082111561242a57600080fd5b61243688838901612296565b94506040870151915061244882611fec565b60608701519193508082111561245d57600080fd5b5061246a87828801612296565b91505092959194509250565b60e060020a634e487b710260009081526032600452602490fd5b60e060020a634e487b710260009081526011600452602490fd5b6000600182016124bc576124bc612490565b5060010190565b80820180821115610edb57610edb612490565b602080825260039082015260e860020a6221746302604082015260600190565b600160a060020a03868116825260009061251360208401886119e0565b60a0604084015261252760a084018761193e565b948116606084015292909216608090910152509392505050565b6000815161255381856020860161191a565b9290920192915050565b6000825161256f81846020870161191a565b9190910192915050565b60006020828403121561258b57600080fd5b81518015158114610f6457600080fd5b60e0815260006125ae60e083018a61193e565b82810360208401526125c0818a61196a565b905082810360408401526125d4818961193e565b905082810360608401526125e8818861193e565b905082810360808401526125fc818761193e565b90508460a084015282810360c08401526126168185611991565b9a9950505050505050505050565b81810381811115610edb57610edb612490565b604080825283518282018190526000919060609081850190602080820287018401818a01875b848110156126d457605f198a84030186528151608081518186526126838287018261193e565b915050858201518582038787015261269b828261193e565b91505060ff8a830151168a860152888201519150848103898601526126c0818361193e565b97860197945050509083019060010161265d565b505087810382890152612616818a61193e565b6000885160206126fa8285838e0161191a565b818401915060f260020a611f1f028083528a5161271d8160028601858f0161191a565b6002930192830181905289516127398160048601858e0161191a565b60f860020a602b0260049490910193840152885161275d8160058601858d0161191a565b6005930192830181905287516127798160078601858c0161191a565b600793019283015285516127938160098501848a0161191a565b6127b66127b060098386010160f260020a611f1f02815260020190565b87612541565b9c9b505050505050505050505050565b8082028115828204841417610edb57610edb612490565b6000816127ec576127ec612490565b50600019019056fe2c6c2c8fac99064b89e2a97cba30b9bce7b1a84a55e0310e16b56924c6ab2f45a2646970667358221220b40087059bb5336d0f0f9b3aeb96d23a8dad0674d6d0f27b5d08fbf441012fd064736f6c63430008130033",
  "immutableReferences": {},
  "source": "// //SPDX-License-Identifier: UNLICENSED\r\npragma solidity 0.8.19;\r\n\r\nimport \"./TradeFactoryBase.sol\";\r\n\r\nstruct TradeIndex {\r\n    uint256 index;\r\n    uint256 weiPrice;\r\n    PriceType priceType;\r\n    string weaponType;\r\n    string itemMarketName;\r\n    uint256 nextIndex;\r\n}\r\n\r\nstruct ExtraTest {\r\n    string tradeUrlPartner;\r\n    string weiPriceStringed;\r\n    string sellerAddress;\r\n}\r\n\r\ncontract CSXTradeFactory is TradeFactoryBase {\r\n    constructor(\r\n        address _keepers,\r\n        address _users,\r\n        address _tradeFactoryBaseStorage\r\n    ) TradeFactoryBase(_keepers, _users, _tradeFactoryBaseStorage) {}\r\n\r\n    function createListingContract(\r\n        string memory _itemMarketName,\r\n        TradeUrl memory _tradeUrl,\r\n        string memory _assetId,\r\n        string memory _inspectLink,\r\n        string memory _itemImageUrl,\r\n        uint256 _weiPrice,\r\n        SkinInfo memory _skinInfo,\r\n        Sticker[] memory _stickers,\r\n        string memory _weaponType\r\n    ) external nonReentrant {\r\n        require(usersContract.isBanned(msg.sender) == false, \"bnd\");\r\n        require(\r\n            assetIdFromUserAddrssToTradeAddrss[_assetId][msg.sender] ==\r\n                address(0),\r\n            \"id\"\r\n        );\r\n\r\n        tradeFactoryBaseStorage.newTradeContract(\r\n            _itemMarketName,\r\n            _tradeUrl,\r\n            _assetId,\r\n            _inspectLink,\r\n            _itemImageUrl,\r\n            _weiPrice,\r\n            _skinInfo\r\n        );       \r\n\r\n        address newAddress = tradeFactoryBaseStorage.getLastTradeContractAddress();\r\n\r\n        uint256 totalContracts = tradeFactoryBaseStorage.totalContracts();\r\n\r\n        isTradeContract[newAddress] = true;\r\n\r\n        CSXTrade _contract = tradeFactoryBaseStorage.getTradeContractByIndex(totalContracts - 1);\r\n\r\n        _contract.initExtraInfo(\r\n            _stickers,\r\n            _weaponType\r\n        );        \r\n\r\n        contractAddressToIndex[newAddress] = totalContracts - 1;\r\n        assetIdFromUserAddrssToTradeAddrss[_assetId][msg.sender] = newAddress;\r\n\r\n        ExtraTest memory _extraTest;\r\n\r\n        _extraTest.tradeUrlPartner = Strings.toString(_tradeUrl.partner);\r\n        _extraTest.weiPriceStringed = Strings.toString(_weiPrice);\r\n        _extraTest.sellerAddress = Strings.toHexString(msg.sender);\r\n\r\n        string memory data = string(\r\n            abi.encodePacked(\r\n                _itemMarketName,\r\n                \"||\",\r\n                _assetId,\r\n                \"||\",\r\n                _extraTest.tradeUrlPartner,\r\n                \"+\",\r\n                _tradeUrl.token,\r\n                \"||\",\r\n                _skinInfo.floatValues, // \"[0.00, 0.00, 0.000000]\" (max, min, value)\r\n                \"||\",\r\n                _extraTest.weiPriceStringed,\r\n                \"||\",\r\n                _extraTest.sellerAddress\r\n            )\r\n        );\r\n        emit TradeContractStatusChange(newAddress, TradeStatus.ForSale, data, msg.sender, address(0));\r\n    }\r\n\r\n    function getTradeDetailsByIndex(\r\n        uint256 index\r\n    ) public view returns (TradeInfo memory result) {\r\n        uint256 i = index;\r\n        //SMTrade _contract = tradeContracts[i];\r\n        CSXTrade _contract = tradeFactoryBaseStorage.getTradeContractByIndex(i);\r\n\r\n        result.contractAddress = address(_contract);\r\n        result.seller = _contract.seller();\r\n        result.buyer = _contract.buyer();\r\n        result.itemMarketName = _contract.itemMarketName();\r\n        result.inspectLink = _contract.inspectLink();\r\n\r\n        TradeUrl memory _sTradeUrl;\r\n        (_sTradeUrl.partner, _sTradeUrl.token) = _contract.sellerTradeUrl();\r\n        result.sellerTradeUrl = _sTradeUrl;\r\n\r\n        TradeUrl memory _bTradeUrl;\r\n        (_bTradeUrl.partner, _bTradeUrl.token) = _contract.buyerTradeUrl();\r\n        result.buyerTradeUrl = _bTradeUrl;\r\n\r\n        result.weiPrice = _contract.weiPrice();\r\n        result.itemImageUrl = _contract.itemImageUrl();\r\n        result.averageSellerDeliveryTime = usersContract.getAverageDeliveryTime(\r\n            result.seller\r\n        );\r\n        SkinInfo memory _skinInfo;\r\n        (_skinInfo.floatValues, _skinInfo.paintSeed, _skinInfo.paintIndex) = _contract.skinInfo();\r\n        result.skinInfo = _skinInfo;\r\n        result.status = _contract.status();\r\n\r\n        uint256 lengthOfStickersArray = _contract.stickerLength();\r\n        Sticker[] memory _stickers = new Sticker[](lengthOfStickersArray);\r\n\r\n        for (uint256 y = 0; y < _stickers.length; y++) {\r\n            (\r\n                _stickers[y].name,\r\n                _stickers[y].material,\r\n                _stickers[y].slot,\r\n                _stickers[y].imageLink\r\n            ) = _contract.stickers(y);\r\n        }\r\n        result.stickers = _stickers;\r\n\r\n        result.weaponType = _contract.weaponType();\r\n\r\n        return result;\r\n    }\r\n\r\n    function getTradeDetailsByAddress(\r\n        address tradeAddrs\r\n    ) public view returns (TradeInfo memory result) {\r\n        uint256 i = contractAddressToIndex[tradeAddrs];\r\n        result = getTradeDetailsByIndex(i);\r\n    }\r\n\r\n    function getTradeIndexesByStatus(\r\n    TradeStatus status,\r\n    uint256 indexFrom,\r\n    uint256 maxResults\r\n    ) external view returns (TradeIndex[] memory) {\r\n        TradeIndex[] memory tradeIndexes = new TradeIndex[](maxResults);\r\n        uint256 resultIndex;\r\n        uint256 i = indexFrom;\r\n        uint256 totalContracts = tradeFactoryBaseStorage.totalContracts();\r\n        while (resultIndex < maxResults && i < totalContracts) {\r\n            TradeInfo memory _trade = getTradeDetailsByIndex(i);\r\n\r\n            if (_trade.status == status) {\r\n                tradeIndexes[resultIndex].index = i;\r\n                tradeIndexes[resultIndex].weiPrice = _trade.weiPrice;\r\n                tradeIndexes[resultIndex].priceType = PriceType.ETHER;\r\n                tradeIndexes[resultIndex].weaponType = _trade.weaponType;\r\n                tradeIndexes[resultIndex].itemMarketName = _trade.itemMarketName;\r\n                tradeIndexes[resultIndex].nextIndex = i + 1;\r\n                ++resultIndex;\r\n            }\r\n\r\n            ++i;\r\n        }\r\n        return tradeIndexes;\r\n    }\r\n\r\n    function getTradeCountByStatus(\r\n        TradeStatus status\r\n    ) external view returns (uint256) {\r\n        uint256 count;\r\n        uint256 i = 0;\r\n        uint256 totalContracts = tradeFactoryBaseStorage.totalContracts();\r\n        while (i < totalContracts) {\r\n            TradeInfo memory _trade = getTradeDetailsByIndex(i);\r\n            if (_trade.status == status) {\r\n                ++count;\r\n            }\r\n            ++i;\r\n        }\r\n        return count;\r\n    }\r\n}\r\n",
  "sourcePath": "C:\\Users\\Charl\\Documents\\Projects\\SteamMarket\\CSX\\csx-contracts\\contracts\\TradeFactory\\TradeFactory.sol",
  "compiler": {
    "name": "solc",
    "version": "0.8.19+commit.7dd6d404.Emscripten.clang"
  },
  "schemaVersion": "3.4.3",
  "updatedAt": "2023-04-16T13:34:34.834Z",
  "networkType": "ethereum",
  "devdoc": {
    "kind": "dev",
    "methods": {},
    "version": 1
  },
  "userdoc": {
    "kind": "user",
    "methods": {},
    "version": 1
  }
}