{
  "contractName": "CSXTrade",
  "abi": [
    {
      "inputs": [
        {
          "internalType": "address",
          "name": "_factory",
          "type": "address"
        },
        {
          "internalType": "address",
          "name": "_keepers",
          "type": "address"
        },
        {
          "internalType": "address",
          "name": "_users",
          "type": "address"
        },
        {
          "internalType": "address",
          "name": "_seller",
          "type": "address"
        },
        {
          "internalType": "uint256",
          "name": "_weiPrice",
          "type": "uint256"
        },
        {
          "internalType": "string",
          "name": "_itemMarketName",
          "type": "string"
        },
        {
          "components": [
            {
              "internalType": "uint256",
              "name": "partner",
              "type": "uint256"
            },
            {
              "internalType": "string",
              "name": "token",
              "type": "string"
            }
          ],
          "internalType": "struct TradeUrl",
          "name": "_sellerTradeUrl",
          "type": "tuple"
        },
        {
          "internalType": "string",
          "name": "_sellerAssetId",
          "type": "string"
        },
        {
          "internalType": "string",
          "name": "_inspectLink",
          "type": "string"
        },
        {
          "internalType": "string",
          "name": "_itemImageUrl",
          "type": "string"
        },
        {
          "components": [
            {
              "internalType": "string",
              "name": "value",
              "type": "string"
            },
            {
              "internalType": "string",
              "name": "min",
              "type": "string"
            },
            {
              "internalType": "string",
              "name": "max",
              "type": "string"
            }
          ],
          "internalType": "struct FloatInfo",
          "name": "_float",
          "type": "tuple"
        }
      ],
      "stateMutability": "nonpayable",
      "type": "constructor"
    },
    {
      "inputs": [],
      "name": "buyer",
      "outputs": [
        {
          "internalType": "address payable",
          "name": "",
          "type": "address"
        }
      ],
      "stateMutability": "view",
      "type": "function"
    },
    {
      "inputs": [],
      "name": "buyerDeposited",
      "outputs": [
        {
          "internalType": "uint256",
          "name": "",
          "type": "uint256"
        }
      ],
      "stateMutability": "view",
      "type": "function"
    },
    {
      "inputs": [],
      "name": "buyerTradeUrl",
      "outputs": [
        {
          "internalType": "uint256",
          "name": "partner",
          "type": "uint256"
        },
        {
          "internalType": "string",
          "name": "token",
          "type": "string"
        }
      ],
      "stateMutability": "view",
      "type": "function"
    },
    {
      "inputs": [],
      "name": "disputeComplaint",
      "outputs": [
        {
          "internalType": "string",
          "name": "",
          "type": "string"
        }
      ],
      "stateMutability": "view",
      "type": "function"
    },
    {
      "inputs": [],
      "name": "disputedStatus",
      "outputs": [
        {
          "internalType": "enum TradeStatus",
          "name": "",
          "type": "uint8"
        }
      ],
      "stateMutability": "view",
      "type": "function"
    },
    {
      "inputs": [],
      "name": "disputeer",
      "outputs": [
        {
          "internalType": "address",
          "name": "",
          "type": "address"
        }
      ],
      "stateMutability": "view",
      "type": "function"
    },
    {
      "inputs": [],
      "name": "factoryContract",
      "outputs": [
        {
          "internalType": "contract ITradeFactory",
          "name": "",
          "type": "address"
        }
      ],
      "stateMutability": "view",
      "type": "function"
    },
    {
      "inputs": [],
      "name": "float",
      "outputs": [
        {
          "internalType": "string",
          "name": "value",
          "type": "string"
        },
        {
          "internalType": "string",
          "name": "min",
          "type": "string"
        },
        {
          "internalType": "string",
          "name": "max",
          "type": "string"
        }
      ],
      "stateMutability": "view",
      "type": "function"
    },
    {
      "inputs": [],
      "name": "hasInit",
      "outputs": [
        {
          "internalType": "bool",
          "name": "",
          "type": "bool"
        }
      ],
      "stateMutability": "view",
      "type": "function"
    },
    {
      "inputs": [],
      "name": "inspectLink",
      "outputs": [
        {
          "internalType": "string",
          "name": "",
          "type": "string"
        }
      ],
      "stateMutability": "view",
      "type": "function"
    },
    {
      "inputs": [],
      "name": "itemImageUrl",
      "outputs": [
        {
          "internalType": "string",
          "name": "",
          "type": "string"
        }
      ],
      "stateMutability": "view",
      "type": "function"
    },
    {
      "inputs": [],
      "name": "itemMarketName",
      "outputs": [
        {
          "internalType": "string",
          "name": "",
          "type": "string"
        }
      ],
      "stateMutability": "view",
      "type": "function"
    },
    {
      "inputs": [],
      "name": "itemSellerAssetId",
      "outputs": [
        {
          "internalType": "string",
          "name": "",
          "type": "string"
        }
      ],
      "stateMutability": "view",
      "type": "function"
    },
    {
      "inputs": [],
      "name": "keepersContract",
      "outputs": [
        {
          "internalType": "contract IKeepers",
          "name": "",
          "type": "address"
        }
      ],
      "stateMutability": "view",
      "type": "function"
    },
    {
      "inputs": [],
      "name": "seller",
      "outputs": [
        {
          "internalType": "address payable",
          "name": "",
          "type": "address"
        }
      ],
      "stateMutability": "view",
      "type": "function"
    },
    {
      "inputs": [],
      "name": "sellerAcceptedTimestamp",
      "outputs": [
        {
          "internalType": "uint256",
          "name": "",
          "type": "uint256"
        }
      ],
      "stateMutability": "view",
      "type": "function"
    },
    {
      "inputs": [],
      "name": "sellerTradeUrl",
      "outputs": [
        {
          "internalType": "uint256",
          "name": "partner",
          "type": "uint256"
        },
        {
          "internalType": "string",
          "name": "token",
          "type": "string"
        }
      ],
      "stateMutability": "view",
      "type": "function"
    },
    {
      "inputs": [],
      "name": "status",
      "outputs": [
        {
          "internalType": "enum TradeStatus",
          "name": "",
          "type": "uint8"
        }
      ],
      "stateMutability": "view",
      "type": "function"
    },
    {
      "inputs": [
        {
          "internalType": "uint256",
          "name": "",
          "type": "uint256"
        }
      ],
      "name": "stickers",
      "outputs": [
        {
          "internalType": "string",
          "name": "name",
          "type": "string"
        },
        {
          "internalType": "string",
          "name": "material",
          "type": "string"
        },
        {
          "internalType": "uint8",
          "name": "slot",
          "type": "uint8"
        },
        {
          "internalType": "string",
          "name": "imageLink",
          "type": "string"
        }
      ],
      "stateMutability": "view",
      "type": "function"
    },
    {
      "inputs": [],
      "name": "usersContract",
      "outputs": [
        {
          "internalType": "contract IUsers",
          "name": "",
          "type": "address"
        }
      ],
      "stateMutability": "view",
      "type": "function"
    },
    {
      "inputs": [],
      "name": "weaponType",
      "outputs": [
        {
          "internalType": "string",
          "name": "",
          "type": "string"
        }
      ],
      "stateMutability": "view",
      "type": "function"
    },
    {
      "inputs": [],
      "name": "weiPrice",
      "outputs": [
        {
          "internalType": "uint256",
          "name": "",
          "type": "uint256"
        }
      ],
      "stateMutability": "view",
      "type": "function"
    },
    {
      "inputs": [
        {
          "components": [
            {
              "internalType": "string",
              "name": "name",
              "type": "string"
            },
            {
              "internalType": "string",
              "name": "material",
              "type": "string"
            },
            {
              "internalType": "uint8",
              "name": "slot",
              "type": "uint8"
            },
            {
              "internalType": "string",
              "name": "imageLink",
              "type": "string"
            }
          ],
          "internalType": "struct Sticker[]",
          "name": "_stickers",
          "type": "tuple[]"
        },
        {
          "internalType": "string",
          "name": "_weaponType",
          "type": "string"
        }
      ],
      "name": "initExtraInfo",
      "outputs": [],
      "stateMutability": "nonpayable",
      "type": "function"
    },
    {
      "inputs": [],
      "name": "stickerLength",
      "outputs": [
        {
          "internalType": "uint256",
          "name": "",
          "type": "uint256"
        }
      ],
      "stateMutability": "view",
      "type": "function"
    },
    {
      "inputs": [],
      "name": "sellerCancel",
      "outputs": [],
      "stateMutability": "nonpayable",
      "type": "function"
    },
    {
      "inputs": [
        {
          "components": [
            {
              "internalType": "uint256",
              "name": "partner",
              "type": "uint256"
            },
            {
              "internalType": "string",
              "name": "token",
              "type": "string"
            }
          ],
          "internalType": "struct TradeUrl",
          "name": "_buyerTradeUrl",
          "type": "tuple"
        }
      ],
      "name": "commitBuy",
      "outputs": [],
      "stateMutability": "payable",
      "type": "function"
    },
    {
      "inputs": [],
      "name": "buyerCancel",
      "outputs": [],
      "stateMutability": "nonpayable",
      "type": "function"
    },
    {
      "inputs": [
        {
          "internalType": "bool",
          "name": "sellerCommited",
          "type": "bool"
        }
      ],
      "name": "sellerTradeVeridict",
      "outputs": [],
      "stateMutability": "nonpayable",
      "type": "function"
    },
    {
      "inputs": [],
      "name": "buyerConfirmReceived",
      "outputs": [],
      "stateMutability": "nonpayable",
      "type": "function"
    },
    {
      "inputs": [],
      "name": "sellerConfirmsTrade",
      "outputs": [],
      "stateMutability": "nonpayable",
      "type": "function"
    },
    {
      "inputs": [
        {
          "internalType": "bool",
          "name": "isTradeMade",
          "type": "bool"
        }
      ],
      "name": "keeperNodeConfirmsTrade",
      "outputs": [],
      "stateMutability": "nonpayable",
      "type": "function"
    },
    {
      "inputs": [
        {
          "internalType": "string",
          "name": "_complaint",
          "type": "string"
        }
      ],
      "name": "openDispute",
      "outputs": [],
      "stateMutability": "nonpayable",
      "type": "function"
    },
    {
      "inputs": [
        {
          "internalType": "bool",
          "name": "isFavourOfBuyer",
          "type": "bool"
        },
        {
          "internalType": "bool",
          "name": "giveWarningToSeller",
          "type": "bool"
        },
        {
          "internalType": "bool",
          "name": "giveWarningToBuyer",
          "type": "bool"
        },
        {
          "internalType": "bool",
          "name": "isWithValue",
          "type": "bool"
        }
      ],
      "name": "resolveDispute",
      "outputs": [],
      "stateMutability": "nonpayable",
      "type": "function"
    }
  ],
  "bytecode": "0x60806040523480156200001157600080fd5b50604051620041bb380380620041bb83398101604081905262000034916200037b565b60148054600160a060020a038d8116600160a060020a03199283161790925560128054601380548e8616908516179055600080548d8616941693909317909255600d8a9055918c166101000260ff1916600160a860020a03199091161790556002620000a187826200059f565b50845160049081556020860151869190600590620000c090826200059f565b5060039150620000d3905085826200059f565b506008620000e284826200059f565b506009620000f183826200059f565b508051600f906200010390826200059f565b5060208101516010906200011890826200059f565b5060408101516011906200012d90826200059f565b50505050505050505050505062000671565b8051600160a060020a03811681146200015757600080fd5b919050565b7f4e487b7100000000000000000000000000000000000000000000000000000000600052604160045260246000fd5b604051601f8201601f191681016001604060020a0381118282101715620001b657620001b66200015c565b604052919050565b600082601f830112620001d057600080fd5b81516001604060020a03811115620001ec57620001ec6200015c565b602062000202601f8301601f191682016200018b565b82815285828487010111156200021757600080fd5b60005b83811015620002375785810183015182820184015282016200021a565b506000928101909101919091529392505050565b6000604082840312156200025e57600080fd5b604051604081016001604060020a0382821081831117156200028457620002846200015c565b81604052829350845183526020850151915080821115620002a457600080fd5b50620002b385828601620001be565b6020830152505092915050565b600060608284031215620002d357600080fd5b604051606081016001604060020a038282108183111715620002f957620002f96200015c565b8160405282935084519150808211156200031257600080fd5b6200032086838701620001be565b835260208501519150808211156200033757600080fd5b6200034586838701620001be565b602084015260408501519150808211156200035f57600080fd5b506200036e85828601620001be565b6040830152505092915050565b60008060008060008060008060008060006101608c8e0312156200039e57600080fd5b620003a98c6200013f565b9a50620003b960208d016200013f565b9950620003c960408d016200013f565b9850620003d960608d016200013f565b975060808c0151965060a08c01516001604060020a03811115620003fc57600080fd5b6200040a8e828f01620001be565b96505060c08c01516001604060020a038111156200042757600080fd5b620004358e828f016200024b565b95505060e08c01516001604060020a038111156200045257600080fd5b620004608e828f01620001be565b9450506101008c01516001604060020a038111156200047e57600080fd5b6200048c8e828f01620001be565b9350506101208c01516001604060020a03811115620004aa57600080fd5b620004b88e828f01620001be565b9250506101408c01516001604060020a03811115620004d657600080fd5b620004e48e828f01620002c0565b9150509295989b509295989b9093969950565b6002810460018216806200050c57607f821691505b60208210810362000546577f4e487b7100000000000000000000000000000000000000000000000000000000600052602260045260246000fd5b50919050565b601f8211156200059a576000818152602081206020601f86010481016020861015620005755750805b6020601f860104820191505b81811015620005965782815560010162000581565b5050505b505050565b81516001604060020a03811115620005bb57620005bb6200015c565b620005d381620005cc8454620004f7565b846200054c565b602080601f8311600181146200060f5760008415620005f25750858301515b60028086026008870290910a600019041982161786555062000596565b600085815260208120601f198616915b8281101562000640578886015182559484019460019091019084016200061f565b50858210156200066157878501516008601f88160260020a60001904191681555b5050505050600202600101905550565b613b3a80620006816000396000f3fe6080604052600436106101815760e060020a600035046302197c55811461018657806302d8ee9c146101b257806308551a53146101d4578063142ebf3c146102015780631e86221f14610221578063200d2ed214610236578063343bf40e1461025d5780633440543a1461028e578063356cd0dc146102a55780633fcbe5da146102ba5780634e9448e9146102da578063595210ad146102fa5780635b9021341461031a57806368ccaa521461033e57806370e066f61461036257806370ec9d54146103775780637150d8ae1461039c5780637384001c146103bc5780637c148952146103d157806385e14a48146103e75780638dada6d8146104015780638f965d8014610416578063b06bec3e14610446578063c2bd884b14610459578063d2ef033c1461047e578063d55a17c01461049e578063de11c94a146104b3578063e29b9e97146104d3578063e67d5523146104e9578063e9d13b57146104fe578063f4a84e0f14610513578063fd7d6df414610528578063fddd56c514610548575b600080fd5b34801561019257600080fd5b5061019b61055d565b6040516101a9929190612fec565b60405180910390f35b3480156101be57600080fd5b506101c76105f4565b6040516101a9919061300d565b3480156101e057600080fd5b506000546101f490600160a060020a031681565b6040516101a99190613020565b34801561020d57600080fd5b506013546101f490600160a060020a031681565b34801561022d57600080fd5b506101c7610682565b34801561024257600080fd5b506012546102509060ff1681565b6040516101a99190613062565b34801561026957600080fd5b5060165461027e9060a860020a900460ff1681565b60405190151581526020016101a9565b34801561029a57600080fd5b506102a361068f565b005b3480156102b157600080fd5b506101c7610ab7565b3480156102c657600080fd5b506102a36102d5366004613151565b610ac4565b3480156102e657600080fd5b506102a36102f53660046132e2565b610c6d565b34801561030657600080fd5b506102a361031536600461333e565b61123f565b34801561032657600080fd5b50610330600e5481565b6040519081526020016101a9565b34801561034a57600080fd5b506103536114d8565b6040516101a993929190613372565b34801561036e57600080fd5b506101c7611686565b34801561038357600080fd5b506016546101f4906101009004600160a060020a031681565b3480156103a857600080fd5b506001546101f490600160a060020a031681565b3480156103c857600080fd5b506102a3611693565b3480156103dd57600080fd5b50610330600c5481565b3480156103f357600080fd5b506016546102509060ff1681565b34801561040d57600080fd5b506101c7611990565b34801561042257600080fd5b506104366104313660046133b5565b61199d565b6040516101a994939291906133ce565b6102a361045436600461341b565b611b7e565b34801561046557600080fd5b506012546101f4906101009004600160a060020a031681565b34801561048a57600080fd5b506102a36104993660046134a7565b611eca565b3480156104aa57600080fd5b506102a36124e6565b3480156104bf57600080fd5b506014546101f490600160a060020a031681565b3480156104df57600080fd5b50610330600d5481565b3480156104f557600080fd5b506101c76126fc565b34801561050a57600080fd5b506102a3612709565b34801561051f57600080fd5b50600a54610330565b34801561053457600080fd5b506102a36105433660046134a7565b612911565b34801561055457600080fd5b5061019b612c49565b6004805460058054919291610571906134c4565b80601f016020809104026020016040519081016040528092919081815260200182805461059d906134c4565b80156105ea5780601f106105bf576101008083540402835291602001916105ea565b820191906000526020600020905b8154815290600101906020018083116105cd57829003601f168201915b5050505050905082565b60038054610601906134c4565b80601f016020809104026020016040519081016040528092919081815260200182805461062d906134c4565b801561067a5780601f1061064f5761010080835404028352916020019161067a565b820191906000526020600020905b81548152906001019060200180831161065d57829003601f168201915b505050505081565b60028054610601906134c4565b600154600160a060020a03163381146106c65760405160e560020a62461bcd0281526004016106bd90613502565b60405180910390fd5b600260125460ff1660098111156106df576106df613034565b14806107015750600460125460ff1660098111156106ff576106ff613034565b145b6107465760405160e560020a62461bcd0281526020600482015260106024820152608160020a6f3a393239ba3990b1b7b6b6be30b1ba170260448201526064016106bd565b6012805460ff1916600617905560135460005460405160e160020a6321f11cdd028152600160a060020a03928316926343e239ba9261078d92309290911690600401613525565b600060405180830381600087803b1580156107a757600080fd5b505af11580156107bb573d6000803e3d6000fd5b50506014546000805460405160e160020a633188e179028152919450600160a060020a039283169350636311c2f2926107fd926003929091169060040161353f565b6020604051808303816000875af115801561081c573d6000803e3d6000fd5b505050506040513d601f19601f8201168201806040525081019061084091906135d9565b90508061088d5760405160e560020a62461bcd0281526020600482015260156024820152605a60020a74191a591b89dd081c995b5bdd99481d1c98591952590260448201526064016106bd565b60008054600c54604051600160a060020a03909216918381818185875af1925050503d80600081146108db576040519150601f19603f3d011682016040523d82523d6000602084013e6108e0565b606091505b50509050806109325760405160e560020a62461bcd0281526020600482015260186024820152604060020a774661696c7572652c206574686572206e6f742073656e74210260448201526064016106bd565b60135460005460125460405160e060020a63fe4162d1028152600160a060020a039384169363fe4162d193610974933093919092169160ff16906004016135f6565b600060405180830381600087803b15801561098e57600080fd5b505af11580156109a2573d6000803e3d6000fd5b505060135460015460125460405160e060020a63fe4162d1028152600160a060020a03938416955063fe4162d194506109e5933093169160ff16906004016135f6565b600060405180830381600087803b1580156109ff57600080fd5b505af1158015610a13573d6000803e3d6000fd5b505050506000610a24600d54612c5d565b604051602001610a349190613648565b60408051601f198184030181529082905260145460125460e160020a634cd955e3028452919350600160a060020a0316916399b2abc691610a7f9160ff909116908590600401613683565b600060405180830381600087803b158015610a9957600080fd5b505af1158015610aad573d6000803e3d6000fd5b5050505050505050565b60158054610601906134c4565b601454600160a060020a031633148015610ae8575060165460a860020a900460ff16155b610b255760405160e560020a62461bcd028152602060048201526008602482015260c060020a6721666163746f72790260448201526064016106bd565b6016805460a860020a60ff02191660a860020a17905560005b8251811015610be757600a838281518110610b5b57610b5b6136a3565b60209081029190910181015182546001810184556000938452919092208251600490920201908190610b8d9082613703565b5060208201516001820190610ba29082613703565b50604082015160028201805460ff191660ff90921691909117905560608201516003820190610bd19082613703565b5050508080610bdf906137e2565b915050610b3e565b506013546000805460405160e060020a63116fd649028152600160a060020a039384169363116fd64993610c2793309360019390911691906004016137fb565b600060405180830381600087803b158015610c4157600080fd5b505af1158015610c55573d6000803e3d6000fd5b5050505080600b9081610c689190613703565b505050565b60125460405160e760020a63012875b1028152610100909104600160a060020a03169063943ad88090610ca4903390600401613020565b602060405180830381865afa158015610cc1573d6000803e3d6000fd5b505050506040513d601f19601f82011682018060405250810190610ce591906135d9565b80610d66575060125460405160e060020a63fd6aad25028152610100909104600160a060020a03169063fd6aad2590610d22903390600401613020565b602060405180830381865afa158015610d3f573d6000803e3d6000fd5b505050506040513d601f19601f82011682018060405250810190610d639190613841565b15155b610da85760405160e560020a62461bcd02815260206004820152600d6024820152609a60020a6c085ad95c1c881bdc881bdc98db0260448201526064016106bd565b600760125460ff166009811115610dc157610dc1613034565b14610dfc5760405160e560020a62461bcd028152602060048201526005602482015260dc60020a6402164697370260448201526064016106bd565b6014546000805460405160e160020a633188e1790281529192600160a060020a0390811692636311c2f292610e399260039291169060040161353f565b6020604051808303816000875af1158015610e58573d6000803e3d6000fd5b505050506040513d601f19601f82011682018060405250810190610e7c91906135d9565b905080610e9e5760405160e560020a62461bcd0281526004016106bd9061385a565b8415610f6057600960125460ff166009811115610ebd57610ebd613034565b50508115610f5b57600154600c54604051600092600160a060020a031691908381818185875af1925050503d8060008114610f14576040519150601f19603f3d011682016040523d82523d6000602084013e610f19565b606091505b5050905080610f595760405160e560020a62461bcd0281526004016106bd90602080825260049082015260e260020a63085cdb9d02604082015260600190565b505b611007565b6012805460ff1916600817905581156110075760008054600c54604051600160a060020a03909216918381818185875af1925050503d8060008114610fc1576040519150601f19603f3d011682016040523d82523d6000602084013e610fc6565b606091505b50509050806110055760405160e560020a62461bcd028152602060048201526005602482015260d960020a6410b9b73a190260448201526064016106bd565b505b83156110775760135460005460405160e160020a6329ca0ea7028152600160a060020a03928316926353941d4e9261104492911690600401613020565b600060405180830381600087803b15801561105e57600080fd5b505af1158015611072573d6000803e3d6000fd5b505050505b82156110e75760135460015460405160e160020a6329ca0ea7028152600160a060020a03928316926353941d4e926110b492911690600401613020565b600060405180830381600087803b1580156110ce57600080fd5b505af11580156110e2573d6000803e3d6000fd5b505050505b60135460005460125460405160e060020a63fe4162d1028152600160a060020a039384169363fe4162d193611129933093919092169160ff16906004016135f6565b600060405180830381600087803b15801561114357600080fd5b505af1158015611157573d6000803e3d6000fd5b505060135460015460125460405160e060020a63fe4162d1028152600160a060020a03938416955063fe4162d1945061119a933093169160ff16906004016135f6565b600060405180830381600087803b1580156111b457600080fd5b505af11580156111c8573d6000803e3d6000fd5b505060145460125460405160e160020a634cd955e3028152600160a060020a0390921693506399b2abc692506112069160ff9091169060040161387f565b600060405180830381600087803b15801561122057600080fd5b505af1158015611234573d6000803e3d6000fd5b505050505050505050565b600054600154600160a060020a03918216911633821480611268575033600160a060020a038216145b6112a35760405160e560020a62461bcd028152602060048201526006602482015260d460020a6502167726f7570260448201526064016106bd565b600760125460ff1660098111156112bc576112bc613034565b141580156112e15750600860125460ff1660098111156112de576112de613034565b14155b80156113045750600960125460ff16600981111561130157611301613034565b14155b6113435760405160e560020a62461bcd02815260206004820152600a602482015260b060020a69616c72656164794469730260448201526064016106bd565b60128054600760ff19918216811790925560168054600160a860020a0319163361010002909216919091179091179055601561137f8482613703565b5060135460005460125460405160e060020a63fe4162d1028152600160a060020a039384169363fe4162d1936113c2933093919092169160ff16906004016135f6565b600060405180830381600087803b1580156113dc57600080fd5b505af11580156113f0573d6000803e3d6000fd5b505060135460015460125460405160e060020a63fe4162d1028152600160a060020a03938416955063fe4162d19450611433933093169160ff16906004016135f6565b600060405180830381600087803b15801561144d57600080fd5b505af1158015611461573d6000803e3d6000fd5b505060145460125460405160e160020a634cd955e3028152600160a060020a0390921693506399b2abc692506114a19160ff909116908790600401613683565b600060405180830381600087803b1580156114bb57600080fd5b505af11580156114cf573d6000803e3d6000fd5b50505050505050565b600f805481906114e7906134c4565b80601f0160208091040260200160405190810160405280929190818152602001828054611513906134c4565b80156115605780601f1061153557610100808354040283529160200191611560565b820191906000526020600020905b81548152906001019060200180831161154357829003601f168201915b505050505090806001018054611575906134c4565b80601f01602080910402602001604051908101604052809291908181526020018280546115a1906134c4565b80156115ee5780601f106115c3576101008083540402835291602001916115ee565b820191906000526020600020905b8154815290600101906020018083116115d157829003601f168201915b505050505090806002018054611603906134c4565b80601f016020809104026020016040519081016040528092919081815260200182805461162f906134c4565b801561167c5780601f106116515761010080835404028352916020019161167c565b820191906000526020600020905b81548152906001019060200180831161165f57829003601f168201915b5050505050905083565b60088054610601906134c4565b600054600160a060020a03163381146116c15760405160e560020a62461bcd0281526004016106bd90613502565b600460125460ff1660098111156116da576116da613034565b146116fa5760405160e560020a62461bcd0281526004016106bd906138a0565b600e5461170a906203f4806138c8565b4210156117535760405160e560020a62461bcd0281526020600482015260116024820152607a60020a700cc819185e5cc81b9bdd081c185cdcd9590260448201526064016106bd565b6012805460ff1916600617905560135460005460405160e160020a6321f11cdd028152600160a060020a03928316926343e239ba9261179a92309290911690600401613525565b600060405180830381600087803b1580156117b457600080fd5b505af11580156117c8573d6000803e3d6000fd5b505060135460005460125460405160e060020a63fe4162d1028152600160a060020a03938416955063fe4162d1945061180b933093169160ff16906004016135f6565b600060405180830381600087803b15801561182557600080fd5b505af1158015611839573d6000803e3d6000fd5b505060135460015460125460405160e060020a63fe4162d1028152600160a060020a03938416955063fe4162d1945061187c933093169160ff16906004016135f6565b600060405180830381600087803b15801561189657600080fd5b505af11580156118aa573d6000803e3d6000fd5b505060008054600c54604051929450600160a060020a039091169250908381818185875af1925050503d80600081146118ff576040519150601f19603f3d011682016040523d82523d6000602084013e611904565b606091505b50509050806119285760405160e560020a62461bcd0281526004016106bd906138db565b6000611935600d54612c5d565b60405160200161194591906138ff565b60408051601f198184030181529082905260145460125460e160020a634cd955e3028452919350600160a060020a0316916399b2abc6916114a19160ff909116908590600401613683565b600b8054610601906134c4565b600a81815481106119ad57600080fd5b90600052602060002090600402016000915090508060000180546119d0906134c4565b80601f01602080910402602001604051908101604052809291908181526020018280546119fc906134c4565b8015611a495780601f10611a1e57610100808354040283529160200191611a49565b820191906000526020600020905b815481529060010190602001808311611a2c57829003601f168201915b505050505090806001018054611a5e906134c4565b80601f0160208091040260200160405190810160405280929190818152602001828054611a8a906134c4565b8015611ad75780601f10611aac57610100808354040283529160200191611ad7565b820191906000526020600020905b815481529060010190602001808311611aba57829003601f168201915b5050506002840154600385018054949560ff909216949193509150611afb906134c4565b80601f0160208091040260200160405190810160405280929190818152602001828054611b27906134c4565b8015611b745780601f10611b4957610100808354040283529160200191611b74565b820191906000526020600020905b815481529060010190602001808311611b5757829003601f168201915b5050505050905084565b600060125460ff166009811115611b9757611b97613034565b14611bd95760405160e560020a62461bcd02815260206004820152600c602482015260a160020a6b3a39321039ba1010b832b7170260448201526064016106bd565b600d54341015611c1a5760405160e560020a62461bcd028152602060048201526006602482015260d060020a652176616c75650260448201526064016106bd565b600054600160a060020a03163303611c645760405160e560020a62461bcd028152602060048201526007602482015260c960020a6610b9b2b63632b90260448201526064016106bd565b6012805460ff1916600217905560135460005460405160e060020a637f1b5565028152600160a060020a0392831692637f1b556592611cab92309290911690600401613525565b600060405180830381600087803b158015611cc557600080fd5b505af1158015611cd9573d6000803e3d6000fd5b505060018054600160a060020a031916331790555050805160069081556020820151829190600790611d0b9082613703565b505034600c5550600454600090611d2190612c5d565b8251600590611d2f90612c5d565b8460200151611d3d33612cf2565b611d48600d54612c5d565b604051602001611d5d9695949392919061391b565b60408051601f198184030181529082905260135460005460125460e060020a63fe4162d1028552929450600160a060020a039182169363fe4162d193611daf933093169160ff909116906004016135f6565b600060405180830381600087803b158015611dc957600080fd5b505af1158015611ddd573d6000803e3d6000fd5b505060135460015460125460405160e060020a63116fd649028152600160a060020a03938416955063116fd6499450611e2693309360009391169160ff909116906004016137fb565b600060405180830381600087803b158015611e4057600080fd5b505af1158015611e54573d6000803e3d6000fd5b505060145460125460405160e160020a634cd955e3028152600160a060020a0390921693506399b2abc69250611e949160ff909116908590600401613683565b600060405180830381600087803b158015611eae57600080fd5b505af1158015611ec2573d6000803e3d6000fd5b505050505050565b60125460405160e760020a63012875b1028152610100909104600160a060020a03169063943ad88090611f01903390600401613020565b602060405180830381865afa158015611f1e573d6000803e3d6000fd5b505050506040513d601f19601f82011682018060405250810190611f4291906135d9565b611f4b57600080fd5b600260125460ff166009811115611f6457611f64613034565b1480611f865750600460125460ff166009811115611f8457611f84613034565b145b611fc75760405160e560020a62461bcd02815260206004820152600c602482015260a060020a6b747264737473213e636f6d6d0260448201526064016106bd565b8015612243576012805460ff1916600617905560135460005460405160e160020a6321f11cdd028152600160a060020a03928316926343e239ba9261201492309290911690600401613525565b600060405180830381600087803b15801561202e57600080fd5b505af1158015612042573d6000803e3d6000fd5b505060135460005460125460405160e060020a63fe4162d1028152600160a060020a03938416955063fe4162d19450612085933093169160ff16906004016135f6565b600060405180830381600087803b15801561209f57600080fd5b505af11580156120b3573d6000803e3d6000fd5b505060135460015460125460405160e060020a63fe4162d1028152600160a060020a03938416955063fe4162d194506120f6933093169160ff16906004016135f6565b600060405180830381600087803b15801561211057600080fd5b505af1158015612124573d6000803e3d6000fd5b505060008054600c54604051929450600160a060020a039091169250908381818185875af1925050503d8060008114612179576040519150601f19603f3d011682016040523d82523d6000602084013e61217e565b606091505b50509050806121a25760405160e560020a62461bcd0281526004016106bd906138db565b60006121af600d54612c5d565b6040516020016121bf91906138ff565b60408051601f198184030181529082905260145460125460e160020a634cd955e3028452919350600160a060020a0316916399b2abc69161220a9160ff909116908590600401613683565b600060405180830381600087803b15801561222457600080fd5b505af1158015612238573d6000803e3d6000fd5b505050505050612440565b60128054600960ff198216811790925560135460005460405160e060020a63fe4162d102815260ff90931693600160a060020a039283169363fe4162d1936122929330939116916004016135f6565b600060405180830381600087803b1580156122ac57600080fd5b505af11580156122c0573d6000803e3d6000fd5b50600292506122cd915050565b8160098111156122df576122df613034565b106123595760135460015460125460405160e060020a63fe4162d1028152600160a060020a039384169363fe4162d193612326933093919092169160ff16906004016135f6565b600060405180830381600087803b15801561234057600080fd5b505af1158015612354573d6000803e3d6000fd5b505050505b600154600c54604051600092600160a060020a031691908381818185875af1925050503d80600081146123a8576040519150601f19603f3d011682016040523d82523d6000602084013e6123ad565b606091505b50509050806123d15760405160e560020a62461bcd0281526004016106bd906138db565b60145460125460405160e160020a634cd955e3028152600160a060020a03909216916399b2abc69161240b9160ff90911690600401613a10565b600060405180830381600087803b15801561242557600080fd5b505af1158015612439573d6000803e3d6000fd5b5050505050505b6014546000805460405160e160020a633188e1790281529192600160a060020a0390811692636311c2f29261247d9260039291169060040161353f565b6020604051808303816000875af115801561249c573d6000803e3d6000fd5b505050506040513d601f19601f820116820180604052508101906124c091906135d9565b9050806124e25760405160e560020a62461bcd0281526004016106bd9061385a565b5050565b600054600160a060020a03163381146125145760405160e560020a62461bcd0281526004016106bd90613502565b600060125460ff16600981111561252d5761252d613034565b1461256a5760405160e560020a62461bcd028152602060048201526007602482015260c960020a6639ba1010b832b70260448201526064016106bd565b6012805460ff1916600190811790915560135460005460405160e060020a63fe4162d1028152600160a060020a039283169363fe4162d1936125b4933093911691906004016135f6565b600060405180830381600087803b1580156125ce57600080fd5b505af11580156125e2573d6000803e3d6000fd5b5050505060006125f3600d54612c5d565b60405160200161260391906138ff565b60408051601f198184030181529082905260145460125460e160020a634cd955e3028452919350600160a060020a0316916399b2abc69161264e9160ff909116908590600401613683565b600060405180830381600087803b15801561266857600080fd5b505af115801561267c573d6000803e3d6000fd5b505060145460005460405160e160020a633188e179028152600160a060020a039283169450636311c2f293506126b992600392169060040161353f565b6020604051808303816000875af11580156126d8573d6000803e3d6000fd5b505050506040513d601f19601f82011682018060405250810190610c6891906135d9565b60098054610601906134c4565b600154600160a060020a03163381146127375760405160e560020a62461bcd0281526004016106bd90613502565b600260125460ff16600981111561275057612750613034565b146127705760405160e560020a62461bcd0281526004016106bd906138a0565b6012805460ff1916600390811790915560135460005460405160e060020a63fe4162d1028152600160a060020a039283169363fe4162d1936127ba933093911691906004016135f6565b600060405180830381600087803b1580156127d457600080fd5b505af11580156127e8573d6000803e3d6000fd5b505060135460015460125460405160e060020a63fe4162d1028152600160a060020a03938416955063fe4162d1945061282b933093169160ff16906004016135f6565b600060405180830381600087803b15801561284557600080fd5b505af1158015612859573d6000803e3d6000fd5b5050600154600c5460405160009450600160a060020a039092169250908381818185875af1925050503d80600081146128ae576040519150601f19603f3d011682016040523d82523d6000602084013e6128b3565b606091505b50509050806128d75760405160e560020a62461bcd0281526004016106bd90613a47565b60145460125460405160e160020a634cd955e3028152600160a060020a03909216916399b2abc691611e949160ff90911690600401613a68565b600054600160a060020a031633811461293f5760405160e560020a62461bcd0281526004016106bd90613502565b600260125460ff16600981111561295857612958613034565b146129785760405160e560020a62461bcd0281526004016106bd906138a0565b8115612aa8576012805460ff1916600490811790915542600e5560135460005460405160e060020a63fe4162d1028152600160a060020a039283169363fe4162d1936129cb9330939116919081016135f6565b600060405180830381600087803b1580156129e557600080fd5b505af11580156129f9573d6000803e3d6000fd5b505060135460015460125460405160e060020a63fe4162d1028152600160a060020a03938416955063fe4162d19450612a3c933093169160ff16906004016135f6565b600060405180830381600087803b158015612a5657600080fd5b505af1158015612a6a573d6000803e3d6000fd5b505060145460125460405160e160020a634cd955e3028152600160a060020a0390921693506399b2abc69250611e949160ff9091169060040161387f565b6012805460ff1916600590811790915560135460005460405160e060020a63fe4162d1028152600160a060020a039283169363fe4162d193612af2933093911691906004016135f6565b600060405180830381600087803b158015612b0c57600080fd5b505af1158015612b20573d6000803e3d6000fd5b505060135460015460125460405160e060020a63fe4162d1028152600160a060020a03938416955063fe4162d19450612b63933093169160ff16906004016135f6565b600060405180830381600087803b158015612b7d57600080fd5b505af1158015612b91573d6000803e3d6000fd5b5050600154600c5460405160009450600160a060020a039092169250908381818185875af1925050503d8060008114612be6576040519150601f19603f3d011682016040523d82523d6000602084013e612beb565b606091505b5050905080612c0f5760405160e560020a62461bcd0281526004016106bd90613a47565b60145460125460405160e160020a634cd955e3028152600160a060020a03909216916399b2abc6916114a19160ff90911690600401613a9f565b6006805460078054919291610571906134c4565b60606000612c6a83612d0e565b60010190506000816001604060020a03811115612c8957612c89613070565b6040519080825280601f01601f191660200182016040528015612cb3576020820181803683370190505b5090508181016020015b60001901608160020a6f181899199a1a9b1b9c1cb0b131b232b302600a86061a8153600a8504945084612cbd57509392505050565b6060612d08600160a060020a0383166014612dec565b92915050565b600080604060020a72184f03e93ff9f4daa797ed6e38ed64bf6a1f01028310612d5357604060020a72184f03e93ff9f4daa797ed6e38ed64bf6a1f0102830492506040015b6d04ee2d6d415b85acef81000000008310612d7f576d04ee2d6d415b85acef8100000000830492506020015b662386f26fc100008310612d9d57662386f26fc10000830492506010015b6305f5e1008310612db5576305f5e100830492506008015b6127108310612dc957612710830492506004015b60648310612ddb576064830492506002015b600a8310612d085760010192915050565b60606000612dfb836002613ad6565b612e069060026138c8565b6001604060020a03811115612e1d57612e1d613070565b6040519080825280601f01601f191660200182016040528015612e47576020820181803683370190505b50905060fc60020a60030281600081518110612e6557612e656136a3565b6020010190600160f860020a031916908160001a90535060fb60020a600f0281600181518110612e9757612e976136a3565b6020010190600160f860020a031916908160001a9053506000612ebb846002613ad6565b612ec69060016138c8565b90505b6001811115612f4357608160020a6f181899199a1a9b1b9c1cb0b131b232b30285600f1660108110612efd57612efd6136a3565b1a60f860020a02828281518110612f1657612f166136a3565b6020010190600160f860020a031916908160001a905350601090940493612f3c81613aed565b9050612ec9565b508315612f955760405160e560020a62461bcd02815260206004820181905260248201527f537472696e67733a20686578206c656e67746820696e73756666696369656e7460448201526064016106bd565b9392505050565b60005b83811015612fb7578181015183820152602001612f9f565b50506000910152565b60008151808452612fd8816020860160208601612f9c565b601f01601f19169290920160200192915050565b8281526040602082015260006130056040830184612fc0565b949350505050565b602081526000612f956020830184612fc0565b600160a060020a0391909116815260200190565b60e060020a634e487b710260009081526021600452602490fd5b600a811061305e5761305e613034565b9052565b60208101612d08828461304e565b60e060020a634e487b710260009081526041600452602490fd5b604051608081016001604060020a03811182821017156130ac576130ac613070565b60405290565b604051601f8201601f191681016001604060020a03811182821017156130da576130da613070565b604052919050565b600082601f8301126130f357600080fd5b81356001604060020a0381111561310c5761310c613070565b61311f601f8201601f19166020016130b2565b81815284602083860101111561313457600080fd5b816020850160208301376000918101602001919091529392505050565b6000806040838503121561316457600080fd5b82356001604060020a038082111561317b57600080fd5b818501915085601f83011261318f57600080fd5b81356020828211156131a3576131a3613070565b8082026131b18282016130b2565b928352848101820192828101908a8511156131cb57600080fd5b83870192505b848310156132a3578235868111156131e95760008081fd5b87016080818d03601f19018113156132015760008081fd5b61320961308a565b868301358981111561321b5760008081fd5b6132298f89838701016130e2565b82525060408301358981111561323f5760008081fd5b61324d8f89838701016130e2565b888301525060608084013560ff811681146132685760008081fd5b60408301529183013591898311156132805760008081fd5b61328e8f89858701016130e2565b908201528452505091830191908301906131d1565b97505050860135925050808211156132ba57600080fd5b506132c7858286016130e2565b9150509250929050565b80151581146132df57600080fd5b50565b600080600080608085870312156132f857600080fd5b8435613303816132d1565b93506020850135613313816132d1565b92506040850135613323816132d1565b91506060850135613333816132d1565b939692955090935050565b60006020828403121561335057600080fd5b81356001604060020a0381111561336657600080fd5b613005848285016130e2565b6060815260006133856060830186612fc0565b82810360208401526133978186612fc0565b905082810360408401526133ab8185612fc0565b9695505050505050565b6000602082840312156133c757600080fd5b5035919050565b6080815260006133e16080830187612fc0565b82810360208401526133f38187612fc0565b905060ff8516604084015282810360608401526134108185612fc0565b979650505050505050565b60006020828403121561342d57600080fd5b81356001604060020a038082111561344457600080fd5b908301906040828603121561345857600080fd5b60405160408101818110838211171561347357613473613070565b6040528235815260208301358281111561348c57600080fd5b613498878286016130e2565b60208301525095945050505050565b6000602082840312156134b957600080fd5b8135612f95816132d1565b6002810460018216806134d857607f821691505b6020821081036134fc5760e060020a634e487b710260009081526022600452602490fd5b50919050565b602080825260069082015260d060020a6521706172747902604082015260600190565b600160a060020a0392831681529116602082015260400190565b604081526000808454613551816134c4565b8060408601526060600180841660008114613573576001811461358d576135be565b60ff198516888401526020841515028801830195506135be565b8960005260208060002060005b868110156135b55781548b820187015290840190820161359a565b8a018501975050505b50505050600160a060020a0385166020850152509050612f95565b6000602082840312156135eb57600080fd5b8151612f95816132d1565b600160a060020a0384811682528316602082015260608101613005604083018461304e565b6000815161362d818560208601612f9c565b9290920192915050565b60f260020a611f1f02815260020190565b6000825161365a818460208701612f9c565b60f260020a611f1f0292019182525060d260020a65135053955053026002820152600801919050565b61368d818461304e565b6040602082015260006130056040830184612fc0565b60e060020a634e487b710260009081526032600452602490fd5b601f821115610c68576000818152602081206020601f860104810160208610156136e45750805b6020601f860104820191505b81811015611ec2578281556001016136f0565b81516001604060020a0381111561371c5761371c613070565b6137308161372a84546134c4565b846136bd565b602080601f831160018114613769576000841561374d5750858301515b60028086026008870290910a6000190419821617865550611ec2565b600085815260208120601f198616915b8281101561379857888601518255948401946001909101908401613779565b50858210156137b857878501516008601f88160260020a60001904191681555b5050505050600202600101905550565b60e060020a634e487b710260009081526011600452602490fd5b6000600182016137f4576137f46137c8565b5060010190565b600160a060020a03858116825260808201906002861061381d5761381d613034565b6020830186905284166040830152613838606083018461304e565b95945050505050565b60006020828403121561385357600080fd5b5051919050565b602080825260089082015260c260020a67085d1c985919525902604082015260600190565b613889818361304e565b604060208201819052600090820152606001919050565b6020808252600b9082015260a860020a6a74726473747321636f6d6d02604082015260600190565b80820180821115612d0857612d086137c8565b602080825260079082015260cb60020a66042e6dce88ae8d02604082015260600190565b60008251613911818460208701612f9c565b9190910192915050565b6000875161392d818460208c01612f9c565b808301905060f860020a602b02815260008854613949816134c4565b600182168015613960576001811461397b576139b4565b60ff19831660018601526001821515830286010193506139b4565b8b600052602060002060005b838110156139a957815460018289010152600182019150602081019050613987565b505060018286010193505b505050613a026139fc6139f16139f66139f16139eb6139db6139d588613637565b8f61361b565b60f860020a602b02815260010190565b8c61361b565b613637565b8961361b565b8661361b565b9a9950505050505050505050565b613a1a818361304e565b604060208201819052600a9082015260b260020a6912d3c811115190555315026060820152608001919050565b602080825260049082015260e360020a630428ae8d02604082015260600190565b613a72818361304e565b604060208201819052600a9082015260b260020a6910954811115190555315026060820152608001919050565b613aa9818361304e565b604060208201819052600a9082015260b260020a6914d14811115190555315026060820152608001919050565b8082028115828204841417612d0857612d086137c8565b600081613afc57613afc6137c8565b50600019019056fea2646970667358221220d7c3e484480a0179363db5ff35c5cc008dbb0b6574b7641d45ed7deb575d3ff764736f6c63430008130033",
  "immutableReferences": {},
  "source": "// //SPDX-License-Identifier: UNLICENSED\r\npragma solidity 0.8.19;\r\n\r\nimport \"../Keepers/IKeepers.sol\";\r\nimport \"../Users/IUsers.sol\";\r\nimport \"../TradeFactory/ITradeFactory.sol\";\r\n\r\ncontract CSXTrade {\r\n\r\n    address payable public seller;\r\n    address payable public buyer;\r\n\r\n    string public itemMarketName;\r\n    string public itemSellerAssetId;\r\n\r\n    TradeUrl public sellerTradeUrl;\r\n    TradeUrl public buyerTradeUrl;\r\n\r\n    string public inspectLink;\r\n    string public itemImageUrl;\r\n    Sticker[] public stickers;\r\n\r\n    string public weaponType;\r\n\r\n    uint256 public buyerDeposited;\r\n    uint256 public weiPrice;\r\n    uint256 public sellerAcceptedTimestamp;\r\n\r\n    FloatInfo public float;\r\n\r\n    TradeStatus public status;\r\n\r\n    IKeepers public keepersContract;\r\n    IUsers public usersContract;\r\n    ITradeFactory public factoryContract;\r\n\r\n    string public disputeComplaint;\r\n    TradeStatus public disputedStatus;\r\n    address public disputeer;\r\n\r\n    constructor(\r\n        address _factory,\r\n        address _keepers,\r\n        address _users,\r\n        address _seller,\r\n        uint256 _weiPrice,\r\n        string memory _itemMarketName,\r\n        TradeUrl memory _sellerTradeUrl,\r\n        string memory _sellerAssetId,\r\n        string memory _inspectLink,\r\n        string memory _itemImageUrl,\r\n        FloatInfo memory _float\r\n    ) {\r\n        factoryContract = ITradeFactory(_factory);\r\n        keepersContract = IKeepers(_keepers);\r\n        usersContract = IUsers(_users);\r\n        seller = payable(_seller);\r\n        weiPrice = _weiPrice;\r\n        status = TradeStatus.ForSale;\r\n        itemMarketName = _itemMarketName;\r\n        sellerTradeUrl = _sellerTradeUrl;\r\n        itemSellerAssetId = _sellerAssetId;\r\n        inspectLink = _inspectLink;\r\n        itemImageUrl = _itemImageUrl;\r\n        float.value = _float.value;\r\n        float.min = _float.min;\r\n        float.max = _float.max;\r\n    }\r\n\r\n    bool public hasInit;\r\n    function initExtraInfo(Sticker[] memory _stickers, string memory _weaponType) external {\r\n        require(msg.sender == address(factoryContract) && !hasInit, '!factory');\r\n        hasInit = true;\r\n        for (uint256 i = 0; i < _stickers.length; i++) {\r\n            stickers.push(_stickers[i]);\r\n        }\r\n        usersContract.addUserInteractionStatus(address(this), Role.SELLER, seller, TradeStatus.ForSale);\r\n        weaponType = _weaponType;\r\n    }\r\n\r\n    function stickerLength() external view returns (uint256) {\r\n        return stickers.length;\r\n    }\r\n\r\n    modifier onlyAddress(address _address) {\r\n        require(msg.sender == _address, \"!party\");\r\n        _;\r\n    }\r\n\r\n    modifier onlyTheseAddresses(address _add1, address _add2) {\r\n        require(msg.sender == _add1 || msg.sender == _add2, \"!group\");\r\n        _;\r\n    }\r\n\r\n    modifier onlyKeeperNode() {\r\n        require(keepersContract.isKeeperNode(msg.sender));\r\n        _;\r\n    }\r\n\r\n    modifier onlyKeepersOrNode() {\r\n        require(\r\n            keepersContract.isKeeperNode(msg.sender) ||\r\n                keepersContract.indexOf(msg.sender) != 0,\r\n            \"!kepr or orcl\"\r\n        );\r\n        _;\r\n    }\r\n\r\n    // Seller can cancel the listing up til any buyer has committed tokens.\r\n    function sellerCancel() external onlyAddress(seller) {\r\n        require(status == TradeStatus.ForSale, \"st !pen\");\r\n        status = TradeStatus.SellerCancelled;\r\n        usersContract.changeUserInteractionStatus(address(this), seller, status);\r\n        string memory data = string(\r\n            abi.encodePacked(\r\n                Strings.toString(weiPrice) /*,\r\n                \"||\", */\r\n            )\r\n        );\r\n        factoryContract.onStatusChange(status, data);\r\n        factoryContract.removeAssetIdUsed(itemSellerAssetId, seller);\r\n    }\r\n\r\n    // Buyer commits tokens to buy if status-state allows & Sends trade-offer to sellers trade-link off-chain.\r\n    function commitBuy(TradeUrl memory _buyerTradeUrl) public payable {\r\n        require(status == TradeStatus.ForSale, \"trd st !pen.\");\r\n        require(msg.value >= weiPrice, \"!value\");\r\n        require(msg.sender != seller, \"!seller\");\r\n        status = TradeStatus.BuyerCommitted;\r\n        usersContract.startDeliveryTimer(address(this), seller);\r\n        buyer = payable(msg.sender);\r\n        buyerTradeUrl = _buyerTradeUrl;\r\n\r\n        buyerDeposited = msg.value;\r\n        \r\n        string memory data = string(\r\n            abi.encodePacked(\r\n                Strings.toString(sellerTradeUrl.partner),\r\n                \"+\",\r\n                sellerTradeUrl.token,\r\n                \"||\",\r\n                Strings.toString(_buyerTradeUrl.partner),\r\n                \"+\",\r\n                _buyerTradeUrl.token,\r\n                \"||\",\r\n                Strings.toHexString(msg.sender),\r\n                \"||\",\r\n                Strings.toString(weiPrice)\r\n            )\r\n        );\r\n\r\n        usersContract.changeUserInteractionStatus(address(this), seller, status);\r\n        usersContract.addUserInteractionStatus(address(this), Role.BUYER, buyer, status);\r\n        factoryContract.onStatusChange(status, data);\r\n    }\r\n\r\n    // Buyer can cancel the trade up til the seller has accepted the trade offer.\r\n    function buyerCancel() external onlyAddress(buyer) {\r\n        require(status == TradeStatus.BuyerCommitted, \"trdsts!comm\");\r\n        status = TradeStatus.BuyerCancelled;\r\n        usersContract.changeUserInteractionStatus(address(this), seller, status);\r\n        usersContract.changeUserInteractionStatus(address(this), buyer, status);\r\n        (bool sent, ) = buyer.call{value: buyerDeposited}(\"\");\r\n        require(sent, \"!Eth\");\r\n        factoryContract.onStatusChange(status, \"BU DEFAULT\");\r\n    }\r\n\r\n    // Seller Confirms or deny they have accepted the trade offer.\r\n    function sellerTradeVeridict(bool sellerCommited) public onlyAddress(seller) {\r\n        require(status == TradeStatus.BuyerCommitted, \"trdsts!comm\");\r\n        if(sellerCommited) {\r\n            status = TradeStatus.SellerCommitted;\r\n            sellerAcceptedTimestamp = block.timestamp;\r\n            usersContract.changeUserInteractionStatus(address(this), seller, status);\r\n            usersContract.changeUserInteractionStatus(address(this), buyer, status);\r\n            factoryContract.onStatusChange(status, \"\");\r\n        } else {\r\n            status = TradeStatus.SellerCancelledAfterBuyerCommitted;\r\n            usersContract.changeUserInteractionStatus(address(this), seller, status);\r\n            usersContract.changeUserInteractionStatus(address(this), buyer, status);\r\n            (bool sent, ) = buyer.call{value: buyerDeposited}(\"\");\r\n            require(sent, \"!Eth\");\r\n            factoryContract.onStatusChange(status, \"SE DEFAULT\");\r\n        }\r\n    }\r\n\r\n    // Buyer Confirms they have received the item.\r\n    function buyerConfirmReceived() public onlyAddress(buyer) {\r\n        require(\r\n            status == TradeStatus.BuyerCommitted || status == TradeStatus.SellerCommitted,\r\n            \"trdsts!comm|act.\"\r\n        );\r\n        status = TradeStatus.Completed;\r\n        usersContract.endDeliveryTimer(address(this), seller);\r\n        bool success = factoryContract.removeAssetIdUsed(itemSellerAssetId, seller);\r\n        require(success, \"didn't remove tradeId\");\r\n        (bool sent, ) = seller.call{value: buyerDeposited}(\"\");\r\n        require(sent, \"Failure, ether not sent!\");\r\n        usersContract.changeUserInteractionStatus(address(this), seller, status);\r\n        usersContract.changeUserInteractionStatus(address(this), buyer, status); \r\n        string memory data = string(\r\n            abi.encodePacked(\r\n                Strings.toString(weiPrice),\r\n                \"||\",\r\n                \"MANUAL\"\r\n            )\r\n        );\r\n        factoryContract.onStatusChange(status, data);\r\n    }\r\n\r\n    // Seller confirms the trade has been made after 3 days from acceptance.\r\n    function sellerConfirmsTrade() external onlyAddress(seller) {\r\n        require(\r\n            status == TradeStatus.SellerCommitted,\r\n            \"trdsts!comm\"\r\n        );\r\n        require(\r\n            block.timestamp >= sellerAcceptedTimestamp + 3 days,\r\n            \"3 days not passed\"\r\n        );\r\n        status = TradeStatus.Completed;\r\n        usersContract.endDeliveryTimer(address(this), seller);\r\n        usersContract.changeUserInteractionStatus(address(this), seller, status);\r\n        usersContract.changeUserInteractionStatus(address(this), buyer, status);\r\n        (bool sS, ) = seller.call{value: buyerDeposited}(\"\");\r\n        require(sS, \"!sntEth\");\r\n        string memory data = string(\r\n            abi.encodePacked(\r\n                Strings.toString(weiPrice)\r\n            )\r\n        );\r\n        factoryContract.onStatusChange(status, data);\r\n    }\r\n\r\n    // KeeperNode Confirms the trade has been made.\r\n    function keeperNodeConfirmsTrade(bool isTradeMade) external onlyKeeperNode {\r\n        require(\r\n            status == TradeStatus.BuyerCommitted || status == TradeStatus.SellerCommitted,\r\n            \"trdsts!>comm\"\r\n        );        \r\n        if (isTradeMade) {\r\n            status = TradeStatus.Completed;\r\n            usersContract.endDeliveryTimer(address(this), seller);\r\n            usersContract.changeUserInteractionStatus(address(this), seller, status);\r\n            usersContract.changeUserInteractionStatus(address(this), buyer, status);\r\n            (bool sS, ) = seller.call{value: buyerDeposited}(\"\");\r\n            require(sS, \"!sntEth\");\r\n            string memory data = string(\r\n                abi.encodePacked(\r\n                    Strings.toString(weiPrice)\r\n                )\r\n            );\r\n            factoryContract.onStatusChange(status, data);\r\n        } else {\r\n            TradeStatus oldStatus = status;\r\n            status = TradeStatus.Clawbacked;\r\n            usersContract.changeUserInteractionStatus(address(this), seller, status);        \r\n            if(oldStatus >= TradeStatus.BuyerCommitted){\r\n                usersContract.changeUserInteractionStatus(address(this), buyer, status);\r\n            }\r\n            (bool bS, ) = buyer.call{value: buyerDeposited}(\"\");\r\n            require(bS, \"!sntEth\");\r\n            factoryContract.onStatusChange(status, \"KO DEFAULT\");\r\n        }\r\n        \r\n        bool raS = factoryContract.removeAssetIdUsed(itemSellerAssetId, seller);\r\n        require(raS, \"!tradeId\");\r\n    }\r\n\r\n    // Or Buyer/Seller opens dispute in any state.\r\n    function openDispute(string memory _complaint)\r\n        external\r\n        onlyTheseAddresses(seller, buyer)\r\n    {\r\n        require(\r\n            status != TradeStatus.Disputed &&\r\n                status != TradeStatus.Resolved &&\r\n                status != TradeStatus.Clawbacked,\r\n            \"alreadyDis\"\r\n        );\r\n        status = TradeStatus.Disputed;\r\n        disputeer = msg.sender;\r\n        disputedStatus = status;\r\n        disputeComplaint = _complaint;\r\n        usersContract.changeUserInteractionStatus(address(this), seller, status);\r\n        usersContract.changeUserInteractionStatus(address(this), buyer, status); \r\n        factoryContract.onStatusChange(status, _complaint);\r\n    }\r\n\r\n    // Keepers & KeeperNode resolves the dispute.\r\n    function resolveDispute(\r\n        bool isFavourOfBuyer,\r\n        bool giveWarningToSeller,\r\n        bool giveWarningToBuyer,\r\n        bool isWithValue\r\n    ) external onlyKeepersOrNode {\r\n        require(status == TradeStatus.Disputed, \"!disp\");\r\n        bool success = factoryContract.removeAssetIdUsed(itemSellerAssetId, seller);\r\n        require(success, \"!tradeId\");\r\n        if (isFavourOfBuyer) {\r\n            status == TradeStatus.Clawbacked;\r\n            if (isWithValue) {\r\n                (bool sent, ) = buyer.call{value: buyerDeposited}(\"\");\r\n                require(sent, \"!snt\");\r\n            }\r\n        } else {\r\n            status = TradeStatus.Resolved;\r\n            if (isWithValue) {\r\n                (bool sent, ) = seller.call{value: buyerDeposited}(\"\");\r\n                require(sent, \"!snt2\");\r\n            }\r\n        }\r\n        if (giveWarningToSeller) {\r\n            usersContract.warnUser(seller);\r\n        }\r\n        if (giveWarningToBuyer) {\r\n            usersContract.warnUser(buyer);\r\n        }\r\n        usersContract.changeUserInteractionStatus(address(this), seller, status);\r\n        usersContract.changeUserInteractionStatus(address(this), buyer, status);\r\n        factoryContract.onStatusChange(status, \"\");\r\n    }\r\n}\r\n",
  "sourcePath": "C:\\Users\\Charl\\Documents\\Projects\\SteamMarket\\CSX\\csx-contracts\\contracts\\Trade\\Trade.sol",
  "compiler": {
    "name": "solc",
    "version": "0.8.19+commit.7dd6d404.Emscripten.clang"
  },
  "schemaVersion": "3.4.3",
  "updatedAt": "2023-04-05T10:31:01.485Z",
  "devdoc": {
    "kind": "dev",
    "methods": {},
    "version": 1
  },
  "userdoc": {
    "kind": "user",
    "methods": {},
    "version": 1
  }
}