{
  "contractName": "CSXTradeFactory",
  "abi": [
    {
      "inputs": [
        {
          "internalType": "address",
          "name": "_keepers",
          "type": "address"
        },
        {
          "internalType": "address",
          "name": "_users",
          "type": "address"
        },
        {
          "internalType": "address",
          "name": "_tradeFactoryBaseStorage",
          "type": "address"
        },
        {
          "internalType": "uint256",
          "name": "_baseFee",
          "type": "uint256"
        },
        {
          "components": [
            {
              "internalType": "address",
              "name": "weth",
              "type": "address"
            },
            {
              "internalType": "address",
              "name": "usdc",
              "type": "address"
            },
            {
              "internalType": "address",
              "name": "usdt",
              "type": "address"
            }
          ],
          "internalType": "struct PaymentTokens",
          "name": "_paymentTokens",
          "type": "tuple"
        },
        {
          "internalType": "address",
          "name": "_referralRegistryAddress",
          "type": "address"
        },
        {
          "internalType": "address",
          "name": "_sCSXTokenAddress",
          "type": "address"
        },
        {
          "internalType": "address",
          "name": "_buyAssistoor",
          "type": "address"
        }
      ],
      "stateMutability": "nonpayable",
      "type": "constructor"
    },
    {
      "anonymous": false,
      "inputs": [
        {
          "indexed": false,
          "internalType": "address",
          "name": "contractAddress",
          "type": "address"
        },
        {
          "indexed": false,
          "internalType": "enum TradeStatus",
          "name": "",
          "type": "uint8"
        },
        {
          "indexed": false,
          "internalType": "string",
          "name": "data",
          "type": "string"
        },
        {
          "indexed": false,
          "internalType": "address",
          "name": "sellerAddress",
          "type": "address"
        },
        {
          "indexed": false,
          "internalType": "address",
          "name": "buyerAddress",
          "type": "address"
        }
      ],
      "name": "TradeContractStatusChange",
      "type": "event"
    },
    {
      "inputs": [
        {
          "internalType": "string",
          "name": "",
          "type": "string"
        },
        {
          "internalType": "address",
          "name": "",
          "type": "address"
        }
      ],
      "name": "assetIdFromUserAddrssToTradeAddrss",
      "outputs": [
        {
          "internalType": "address",
          "name": "",
          "type": "address"
        }
      ],
      "stateMutability": "view",
      "type": "function"
    },
    {
      "inputs": [],
      "name": "baseFee",
      "outputs": [
        {
          "internalType": "uint256",
          "name": "",
          "type": "uint256"
        }
      ],
      "stateMutability": "view",
      "type": "function"
    },
    {
      "inputs": [],
      "name": "buyAssistoor",
      "outputs": [
        {
          "internalType": "address",
          "name": "",
          "type": "address"
        }
      ],
      "stateMutability": "view",
      "type": "function"
    },
    {
      "inputs": [
        {
          "internalType": "uint256",
          "name": "_baseFee",
          "type": "uint256"
        }
      ],
      "name": "changeBaseFee",
      "outputs": [],
      "stateMutability": "nonpayable",
      "type": "function"
    },
    {
      "inputs": [
        {
          "internalType": "string",
          "name": "_assetId",
          "type": "string"
        },
        {
          "internalType": "address",
          "name": "sellerAddrss",
          "type": "address"
        }
      ],
      "name": "hasAlreadyListedItem",
      "outputs": [
        {
          "internalType": "bool",
          "name": "",
          "type": "bool"
        }
      ],
      "stateMutability": "view",
      "type": "function"
    },
    {
      "inputs": [
        {
          "internalType": "address",
          "name": "contractAddress",
          "type": "address"
        }
      ],
      "name": "isThisTradeContract",
      "outputs": [
        {
          "internalType": "bool",
          "name": "",
          "type": "bool"
        }
      ],
      "stateMutability": "view",
      "type": "function"
    },
    {
      "inputs": [],
      "name": "keepersContract",
      "outputs": [
        {
          "internalType": "contract IKeepers",
          "name": "",
          "type": "address"
        }
      ],
      "stateMutability": "view",
      "type": "function"
    },
    {
      "inputs": [
        {
          "internalType": "enum TradeStatus",
          "name": "status",
          "type": "uint8"
        },
        {
          "internalType": "string",
          "name": "data",
          "type": "string"
        },
        {
          "internalType": "address",
          "name": "sellerAddress",
          "type": "address"
        },
        {
          "internalType": "address",
          "name": "buyerAddress",
          "type": "address"
        }
      ],
      "name": "onStatusChange",
      "outputs": [],
      "stateMutability": "nonpayable",
      "type": "function"
    },
    {
      "inputs": [],
      "name": "paymentTokens",
      "outputs": [
        {
          "internalType": "address",
          "name": "weth",
          "type": "address"
        },
        {
          "internalType": "address",
          "name": "usdc",
          "type": "address"
        },
        {
          "internalType": "address",
          "name": "usdt",
          "type": "address"
        }
      ],
      "stateMutability": "view",
      "type": "function"
    },
    {
      "inputs": [],
      "name": "referralRegistryAddress",
      "outputs": [
        {
          "internalType": "address",
          "name": "",
          "type": "address"
        }
      ],
      "stateMutability": "view",
      "type": "function"
    },
    {
      "inputs": [
        {
          "internalType": "string",
          "name": "_assetId",
          "type": "string"
        },
        {
          "internalType": "address",
          "name": "sellerAddrss",
          "type": "address"
        }
      ],
      "name": "removeAssetIdUsed",
      "outputs": [
        {
          "internalType": "bool",
          "name": "",
          "type": "bool"
        }
      ],
      "stateMutability": "nonpayable",
      "type": "function"
    },
    {
      "inputs": [],
      "name": "sCSXTokenAddress",
      "outputs": [
        {
          "internalType": "address",
          "name": "",
          "type": "address"
        }
      ],
      "stateMutability": "view",
      "type": "function"
    },
    {
      "inputs": [],
      "name": "totalContracts",
      "outputs": [
        {
          "internalType": "uint256",
          "name": "",
          "type": "uint256"
        }
      ],
      "stateMutability": "view",
      "type": "function"
    },
    {
      "inputs": [],
      "name": "usersContract",
      "outputs": [
        {
          "internalType": "contract IUsers",
          "name": "",
          "type": "address"
        }
      ],
      "stateMutability": "view",
      "type": "function"
    },
    {
      "inputs": [
        {
          "components": [
            {
              "internalType": "string",
              "name": "itemMarketName",
              "type": "string"
            },
            {
              "components": [
                {
                  "internalType": "uint256",
                  "name": "partner",
                  "type": "uint256"
                },
                {
                  "internalType": "string",
                  "name": "token",
                  "type": "string"
                }
              ],
              "internalType": "struct TradeUrl",
              "name": "tradeUrl",
              "type": "tuple"
            },
            {
              "internalType": "string",
              "name": "assetId",
              "type": "string"
            },
            {
              "internalType": "string",
              "name": "inspectLink",
              "type": "string"
            },
            {
              "internalType": "string",
              "name": "itemImageUrl",
              "type": "string"
            },
            {
              "internalType": "uint256",
              "name": "weiPrice",
              "type": "uint256"
            },
            {
              "components": [
                {
                  "internalType": "string",
                  "name": "floatValues",
                  "type": "string"
                },
                {
                  "internalType": "uint256",
                  "name": "paintSeed",
                  "type": "uint256"
                },
                {
                  "internalType": "uint256",
                  "name": "paintIndex",
                  "type": "uint256"
                }
              ],
              "internalType": "struct SkinInfo",
              "name": "skinInfo",
              "type": "tuple"
            },
            {
              "components": [
                {
                  "internalType": "string",
                  "name": "name",
                  "type": "string"
                },
                {
                  "internalType": "string",
                  "name": "material",
                  "type": "string"
                },
                {
                  "internalType": "uint8",
                  "name": "slot",
                  "type": "uint8"
                },
                {
                  "internalType": "string",
                  "name": "imageLink",
                  "type": "string"
                }
              ],
              "internalType": "struct Sticker[]",
              "name": "stickers",
              "type": "tuple[]"
            },
            {
              "internalType": "string",
              "name": "weaponType",
              "type": "string"
            },
            {
              "internalType": "enum PriceType",
              "name": "priceType",
              "type": "uint8"
            }
          ],
          "internalType": "struct ListingParams",
          "name": "params",
          "type": "tuple"
        }
      ],
      "name": "createListingContract",
      "outputs": [],
      "stateMutability": "nonpayable",
      "type": "function"
    },
    {
      "inputs": [
        {
          "internalType": "uint256",
          "name": "index",
          "type": "uint256"
        }
      ],
      "name": "getTradeDetailsByIndex",
      "outputs": [
        {
          "components": [
            {
              "internalType": "address",
              "name": "contractAddress",
              "type": "address"
            },
            {
              "internalType": "address",
              "name": "seller",
              "type": "address"
            },
            {
              "components": [
                {
                  "internalType": "uint256",
                  "name": "partner",
                  "type": "uint256"
                },
                {
                  "internalType": "string",
                  "name": "token",
                  "type": "string"
                }
              ],
              "internalType": "struct TradeUrl",
              "name": "sellerTradeUrl",
              "type": "tuple"
            },
            {
              "internalType": "address",
              "name": "buyer",
              "type": "address"
            },
            {
              "components": [
                {
                  "internalType": "uint256",
                  "name": "partner",
                  "type": "uint256"
                },
                {
                  "internalType": "string",
                  "name": "token",
                  "type": "string"
                }
              ],
              "internalType": "struct TradeUrl",
              "name": "buyerTradeUrl",
              "type": "tuple"
            },
            {
              "internalType": "string",
              "name": "itemMarketName",
              "type": "string"
            },
            {
              "internalType": "string",
              "name": "inspectLink",
              "type": "string"
            },
            {
              "internalType": "string",
              "name": "itemImageUrl",
              "type": "string"
            },
            {
              "internalType": "uint256",
              "name": "weiPrice",
              "type": "uint256"
            },
            {
              "internalType": "uint256",
              "name": "averageSellerDeliveryTime",
              "type": "uint256"
            },
            {
              "components": [
                {
                  "internalType": "string",
                  "name": "floatValues",
                  "type": "string"
                },
                {
                  "internalType": "uint256",
                  "name": "paintSeed",
                  "type": "uint256"
                },
                {
                  "internalType": "uint256",
                  "name": "paintIndex",
                  "type": "uint256"
                }
              ],
              "internalType": "struct SkinInfo",
              "name": "skinInfo",
              "type": "tuple"
            },
            {
              "internalType": "enum TradeStatus",
              "name": "status",
              "type": "uint8"
            },
            {
              "components": [
                {
                  "internalType": "string",
                  "name": "name",
                  "type": "string"
                },
                {
                  "internalType": "string",
                  "name": "material",
                  "type": "string"
                },
                {
                  "internalType": "uint8",
                  "name": "slot",
                  "type": "uint8"
                },
                {
                  "internalType": "string",
                  "name": "imageLink",
                  "type": "string"
                }
              ],
              "internalType": "struct Sticker[]",
              "name": "stickers",
              "type": "tuple[]"
            },
            {
              "internalType": "string",
              "name": "weaponType",
              "type": "string"
            },
            {
              "internalType": "enum PriceType",
              "name": "priceType",
              "type": "uint8"
            }
          ],
          "internalType": "struct TradeInfo",
          "name": "result",
          "type": "tuple"
        }
      ],
      "stateMutability": "view",
      "type": "function"
    },
    {
      "inputs": [
        {
          "internalType": "address",
          "name": "tradeAddrs",
          "type": "address"
        }
      ],
      "name": "getTradeDetailsByAddress",
      "outputs": [
        {
          "components": [
            {
              "internalType": "address",
              "name": "contractAddress",
              "type": "address"
            },
            {
              "internalType": "address",
              "name": "seller",
              "type": "address"
            },
            {
              "components": [
                {
                  "internalType": "uint256",
                  "name": "partner",
                  "type": "uint256"
                },
                {
                  "internalType": "string",
                  "name": "token",
                  "type": "string"
                }
              ],
              "internalType": "struct TradeUrl",
              "name": "sellerTradeUrl",
              "type": "tuple"
            },
            {
              "internalType": "address",
              "name": "buyer",
              "type": "address"
            },
            {
              "components": [
                {
                  "internalType": "uint256",
                  "name": "partner",
                  "type": "uint256"
                },
                {
                  "internalType": "string",
                  "name": "token",
                  "type": "string"
                }
              ],
              "internalType": "struct TradeUrl",
              "name": "buyerTradeUrl",
              "type": "tuple"
            },
            {
              "internalType": "string",
              "name": "itemMarketName",
              "type": "string"
            },
            {
              "internalType": "string",
              "name": "inspectLink",
              "type": "string"
            },
            {
              "internalType": "string",
              "name": "itemImageUrl",
              "type": "string"
            },
            {
              "internalType": "uint256",
              "name": "weiPrice",
              "type": "uint256"
            },
            {
              "internalType": "uint256",
              "name": "averageSellerDeliveryTime",
              "type": "uint256"
            },
            {
              "components": [
                {
                  "internalType": "string",
                  "name": "floatValues",
                  "type": "string"
                },
                {
                  "internalType": "uint256",
                  "name": "paintSeed",
                  "type": "uint256"
                },
                {
                  "internalType": "uint256",
                  "name": "paintIndex",
                  "type": "uint256"
                }
              ],
              "internalType": "struct SkinInfo",
              "name": "skinInfo",
              "type": "tuple"
            },
            {
              "internalType": "enum TradeStatus",
              "name": "status",
              "type": "uint8"
            },
            {
              "components": [
                {
                  "internalType": "string",
                  "name": "name",
                  "type": "string"
                },
                {
                  "internalType": "string",
                  "name": "material",
                  "type": "string"
                },
                {
                  "internalType": "uint8",
                  "name": "slot",
                  "type": "uint8"
                },
                {
                  "internalType": "string",
                  "name": "imageLink",
                  "type": "string"
                }
              ],
              "internalType": "struct Sticker[]",
              "name": "stickers",
              "type": "tuple[]"
            },
            {
              "internalType": "string",
              "name": "weaponType",
              "type": "string"
            },
            {
              "internalType": "enum PriceType",
              "name": "priceType",
              "type": "uint8"
            }
          ],
          "internalType": "struct TradeInfo",
          "name": "result",
          "type": "tuple"
        }
      ],
      "stateMutability": "view",
      "type": "function"
    },
    {
      "inputs": [
        {
          "internalType": "enum TradeStatus",
          "name": "status",
          "type": "uint8"
        },
        {
          "internalType": "uint256",
          "name": "indexFrom",
          "type": "uint256"
        },
        {
          "internalType": "uint256",
          "name": "maxResults",
          "type": "uint256"
        }
      ],
      "name": "getTradeIndexesByStatus",
      "outputs": [
        {
          "components": [
            {
              "internalType": "uint256",
              "name": "index",
              "type": "uint256"
            },
            {
              "internalType": "uint256",
              "name": "weiPrice",
              "type": "uint256"
            },
            {
              "internalType": "enum PriceType",
              "name": "priceType",
              "type": "uint8"
            },
            {
              "internalType": "string",
              "name": "weaponType",
              "type": "string"
            },
            {
              "internalType": "string",
              "name": "itemMarketName",
              "type": "string"
            },
            {
              "internalType": "uint256",
              "name": "nextIndex",
              "type": "uint256"
            }
          ],
          "internalType": "struct TradeIndex[]",
          "name": "",
          "type": "tuple[]"
        }
      ],
      "stateMutability": "view",
      "type": "function"
    },
    {
      "inputs": [
        {
          "internalType": "enum TradeStatus",
          "name": "status",
          "type": "uint8"
        }
      ],
      "name": "getTradeCountByStatus",
      "outputs": [
        {
          "internalType": "uint256",
          "name": "",
          "type": "uint256"
        }
      ],
      "stateMutability": "view",
      "type": "function"
    }
  ],
  "bytecode": "0x60806040523480156200001157600080fd5b506040516200307f3803806200307f833981016040819052620000349162000109565b6001600081905560048054600160a060020a0319908116600160a060020a039b8c1617909155600580548216998b1699909917909855600680548916978a16979097179096559390945581516008805487169188169190911790556020820151600980548716918816919091179055604090910151600a80548616918716919091179055600b80548516918616919091179055600c8054841692851692909217909155600d8054909216921691909117905562000235565b8051600160a060020a03811681146200010457600080fd5b919050565b600080600080600080600080888a036101408112156200012857600080fd5b620001338a620000ec565b98506200014360208b01620000ec565b97506200015360408b01620000ec565b965060608a015195506060607f19820112156200016f57600080fd5b506040516060810181811067ffffffffffffffff82111715620001bb577f4e487b7100000000000000000000000000000000000000000000000000000000600052604160045260246000fd5b604052620001cc60808b01620000ec565b8152620001dc60a08b01620000ec565b6020820152620001ef60c08b01620000ec565b604082015293506200020460e08a01620000ec565b9250620002156101008a01620000ec565b9150620002266101208a01620000ec565b90509295985092959890939650565b612e3a80620002456000396000f3fe608060405234801561001057600080fd5b50600436106101255760003560e060020a900480636311c2f2116100b1578063adea486611610075578063adea4866146102c6578063c2bd884b146102d9578063e8610294146102ec578063eff6be2f146102ff578063f983567d1461031257600080fd5b80636311c2f2146102535780636e4235f6146102765780636ef25c3a146102a25780637c31f38b146102ab578063a09037a9146102be57600080fd5b806333034d71116100f857806333034d71146101ca578063346c743d146101ea57806348e6f7a11461020a5780635a9ad1e01461021d5780635cdab7981461023e57600080fd5b8063142ebf3c1461012a5780631f02d6fe1461015a578063204cd72e1461016d57806325ef180d14610180575b600080fd5b60055461013d90600160a060020a031681565b604051600160a060020a0390911681526020015b60405180910390f35b600d5461013d90600160a060020a031681565b600c5461013d90600160a060020a031681565b600854600954600a546101a092600160a060020a03908116928116911683565b60408051600160a060020a0394851681529284166020840152921691810191909152606001610151565b6101dd6101d8366004611dbb565b610356565b6040516101519190611f79565b6101fd6101f836600461211b565b610d16565b6040516101519190612150565b600b5461013d90600160a060020a031681565b61023061022b366004612208565b610f7b565b604051908152602001610151565b61025161024c366004612365565b611067565b005b6102666102613660046123da565b611118565b6040519015158152602001610151565b61026661028436600461242c565b600160a060020a031660009081526003602052604090205460ff1690565b61023060015481565b6102666102b93660046123da565b6111e4565b61023061123d565b6101dd6102d436600461242c565b6112c9565b60045461013d90600160a060020a031681565b6102516102fa366004612693565b6112fa565b61025161030d366004611dbb565b611a31565b61013d6103203660046123da565b815160208184018101805160078252928201948201949094209190935290915260009081526040902054600160a060020a031681565b61035e611ca8565b6006546040517f4eb9c034000000000000000000000000000000000000000000000000000000008152600481018490528391600091600160a060020a0390911690634eb9c03490602401602060405180830381865afa1580156103c5573d6000803e3d6000fd5b505050506040513d601f19601f820116820180604052508101906103e9919061281f565b600160a060020a038116808552604080517f08551a53000000000000000000000000000000000000000000000000000000008152905192935090916308551a53916004808201926020929091908290030181865afa15801561044f573d6000803e3d6000fd5b505050506040513d601f19601f82011682018060405250810190610473919061281f565b8360200190600160a060020a03169081600160a060020a03168152505080600160a060020a0316637150d8ae6040518163ffffffff1660e060020a028152600401602060405180830381865afa1580156104d1573d6000803e3d6000fd5b505050506040513d601f19601f820116820180604052508101906104f5919061281f565b8360600190600160a060020a03169081600160a060020a03168152505080600160a060020a0316631e86221f6040518163ffffffff1660e060020a028152600401600060405180830381865afa158015610553573d6000803e3d6000fd5b505050506040513d6000823e601f3d908101601f1916820160405261057b9190810190612881565b8360a0018190525080600160a060020a03166370e066f66040518163ffffffff1660e060020a028152600401600060405180830381865afa1580156105c4573d6000803e3d6000fd5b505050506040513d6000823e601f3d908101601f191682016040526105ec9190810190612881565b60c084015260408051808201909152600081526060602082015281600160a060020a03166302197c556040518163ffffffff1660e060020a028152600401600060405180830381865afa158015610647573d6000803e3d6000fd5b505050506040513d6000823e601f3d908101601f1916820160405261066f91908101906128b6565b602080840191909152908252604080860183905280518082019091526000815260609181019190915282600160a060020a031663fddd56c56040518163ffffffff1660e060020a028152600401600060405180830381865afa1580156106d9573d6000803e3d6000fd5b505050506040513d6000823e601f3d908101601f1916820160405261070191908101906128b6565b60208084019190915290825260808601829052604080517fe29b9e970000000000000000000000000000000000000000000000000000000081529051600160a060020a0386169263e29b9e9792600480820193918290030181865afa15801561076e573d6000803e3d6000fd5b505050506040513d601f19601f8201168201806040525081019061079291906128fd565b8561010001818152505082600160a060020a031663e67d55236040518163ffffffff1660e060020a028152600401600060405180830381865afa1580156107dd573d6000803e3d6000fd5b505050506040513d6000823e601f3d908101601f191682016040526108059190810190612881565b60e086015260055460208601516040517f791bd0d0000000000000000000000000000000000000000000000000000000008152600160a060020a03918216600482015291169063791bd0d090602401602060405180830381865afa158015610871573d6000803e3d6000fd5b505050506040513d601f19601f8201168201806040525081019061089591906128fd565b610120860152604080516060808201835281526000602082018190529181019190915283600160a060020a0316636fed1d7e6040518163ffffffff1660e060020a028152600401600060405180830381865afa1580156108f9573d6000803e3d6000fd5b505050506040513d6000823e601f3d908101601f191682016040526109219190810190612916565b604080850191909152602080850192909252918352610140880183905281517f200d2ed20000000000000000000000000000000000000000000000000000000081529151600160a060020a0387169263200d2ed29260048083019391928290030181865afa158015610997573d6000803e3d6000fd5b505050506040513d601f19601f820116820180604052508101906109bb9190612966565b86610160019060098111156109d2576109d2611e80565b908160098111156109e5576109e5611e80565b81525050600084600160a060020a031663f4a84e0f6040518163ffffffff1660e060020a028152600401602060405180830381865afa158015610a2c573d6000803e3d6000fd5b505050506040513d601f19601f82011682018060405250810190610a5091906128fd565b905060008167ffffffffffffffff811115610a6d57610a6d612225565b604051908082528060200260200182016040528015610acc57816020015b610ab960405180608001604052806060815260200160608152602001600060ff168152602001606081525090565b815260200190600190039081610a8b5790505b50905060005b8151811015610bfa576040517f8f965d8000000000000000000000000000000000000000000000000000000000815260048101829052600160a060020a03881690638f965d8090602401600060405180830381865afa158015610b39573d6000803e3d6000fd5b505050506040513d6000823e601f3d908101601f19168201604052610b619190810190612983565b858581518110610b7357610b73612a1f565b6020026020010151600001868681518110610b9057610b90612a1f565b6020026020010151602001878781518110610bad57610bad612a1f565b6020026020010151604001888881518110610bca57610bca612a1f565b60209081029190910101516060019390935260ff9093169091529190525280610bf281612a7d565b915050610ad2565b508088610180018190525085600160a060020a0316638dada6d86040518163ffffffff1660e060020a028152600401600060405180830381865afa158015610c46573d6000803e3d6000fd5b505050506040513d6000823e601f3d908101601f19168201604052610c6e9190810190612881565b886101a0018190525085600160a060020a0316631c925df06040518163ffffffff1660e060020a028152600401602060405180830381865afa158015610cb8573d6000803e3d6000fd5b505050506040513d601f19601f82011682018060405250810190610cdc9190612a96565b886101c001906002811115610cf357610cf3611e80565b90816002811115610d0657610d06611e80565b8152505050505050505050919050565b606060008267ffffffffffffffff811115610d3357610d33612225565b604051908082528060200260200182016040528015610d6c57816020015b610d59611d74565b815260200190600190039081610d515790505b5090506000808590506000600660009054906101000a9004600160a060020a0316600160a060020a031663a09037a96040518163ffffffff1660e060020a028152600401602060405180830381865afa158015610dcd573d6000803e3d6000fd5b505050506040513d601f19601f82011682018060405250810190610df191906128fd565b90505b8583108015610e0257508082105b15610f6f576000610e1283610356565b9050886009811115610e2657610e26611e80565b8161016001516009811115610e3d57610e3d611e80565b03610f5e5782858581518110610e5557610e55612a1f565b60200260200101516000018181525050806101000151858581518110610e7d57610e7d612a1f565b60200260200101516020018181525050806101c00151858581518110610ea557610ea5612a1f565b6020026020010151604001906002811115610ec257610ec2611e80565b90816002811115610ed557610ed5611e80565b81525050806101a00151858581518110610ef157610ef1612a1f565b6020026020010151606001819052508060a00151858581518110610f1757610f17612a1f565b602090810291909101015160800152610f31836001612ab3565b858581518110610f4357610f43612a1f565b602090810291909101015160a00152610f5b84612a7d565b93505b610f6783612a7d565b925050610df4565b50919695505050505050565b600080600080600660009054906101000a9004600160a060020a0316600160a060020a031663a09037a96040518163ffffffff1660e060020a028152600401602060405180830381865afa158015610fd7573d6000803e3d6000fd5b505050506040513d601f19601f82011682018060405250810190610ffb91906128fd565b90505b8082101561105e57600061101183610356565b905085600981111561102557611025611e80565b816101600151600981111561103c5761103c611e80565b0361104d5761104a84612a7d565b93505b61105683612a7d565b925050610ffe565b50909392505050565b3360009081526003602052604090205460ff166110d357604051600080516020612de5833981519152815260206004820152600360248201527f217463000000000000000000000000000000000000000000000000000000000060448201526064015b60405180910390fd5b7f2c6c2c8fac99064b89e2a97cba30b9bce7b1a84a55e0310e16b56924c6ab2f45338585858560405161110a959493929190612ac6565b60405180910390a150505050565b3360009081526003602052604081205460ff1661117f57604051600080516020612de5833981519152815260206004820152600360248201527f217463000000000000000000000000000000000000000000000000000000000060448201526064016110ca565b60006007846040516111919190612b10565b9081526040805160209281900383019020600160a060020a0386811660009081529190935220805473ffffffffffffffffffffffffffffffffffffffff1916929091169190911790555060015b92915050565b600080600160a060020a03166007846040516112009190612b10565b9081526040805160209281900383019020600160a060020a0386811660009081529190935220541603611235575060006111de565b5060016111de565b600654604080517fa09037a90000000000000000000000000000000000000000000000000000000081529051600092600160a060020a03169163a09037a99160048083019260209291908290030181865afa1580156112a0573d6000803e3d6000fd5b505050506040513d601f19601f820116820180604052508101906112c491906128fd565b905090565b6112d1611ca8565b600160a060020a0382166000908152600260205260409020546112f381610356565b9392505050565b611302611ac5565b6005546040517f97f735d5000000000000000000000000000000000000000000000000000000008152336004820152600160a060020a03909116906397f735d590602401602060405180830381865afa158015611363573d6000803e3d6000fd5b505050506040513d601f19601f820116820180604052508101906113879190612b2c565b156113dc57604051600080516020612de5833981519152815260206004820152600360248201527f626e64000000000000000000000000000000000000000000000000000000000060448201526064016110ca565b6000600160a060020a0316600782604001516040516113fb9190612b10565b90815260408051602092819003830190203360009081529252902054600160a060020a03161461147557604051600080516020612de5833981519152815260206004820152600260248201527f696400000000000000000000000000000000000000000000000000000000000060448201526064016110ca565b600654815160208301516040808501516060860151608087015160a088015160c089015194517f77d60b9a000000000000000000000000000000000000000000000000000000008152600160a060020a03909816976377d60b9a976114e4979096909594939291600401612b4e565b600060405180830381600087803b1580156114fe57600080fd5b505af1158015611512573d6000803e3d6000fd5b505050506000600660009054906101000a9004600160a060020a0316600160a060020a03166394a792e16040518163ffffffff1660e060020a028152600401602060405180830381865afa15801561156e573d6000803e3d6000fd5b505050506040513d601f19601f82011682018060405250810190611592919061281f565b90506000600660009054906101000a9004600160a060020a0316600160a060020a031663a09037a96040518163ffffffff1660e060020a028152600401602060405180830381865afa1580156115ec573d6000803e3d6000fd5b505050506040513d601f19601f8201168201806040525081019061161091906128fd565b600160a060020a038084166000908152600360205260408120805460ff19166001908117909155600654939450909290911690634eb9c034906116539085612bd7565b6040518263ffffffff1660e060020a02815260040161167491815260200190565b602060405180830381865afa158015611691573d6000803e3d6000fd5b505050506040513d601f19601f820116820180604052508101906116b5919061281f565b9050600084610120015160028111156116d0576116d0611e80565b0361177a5760e0840151610100850151600854610120870151600b54600c546040517feee0efec000000000000000000000000000000000000000000000000000000008152600160a060020a038089169763eee0efec976117439791969095918316949093918316921690600401612bea565b600060405180830381600087803b15801561175d57600080fd5b505af1158015611771573d6000803e3d6000fd5b505050506118e2565b6001846101200151600281111561179357611793611e80565b036118065760e0840151610100850151600954610120870151600b54600c546040517feee0efec000000000000000000000000000000000000000000000000000000008152600160a060020a038089169763eee0efec976117439791969095918316949093918316921690600401612bea565b6002846101200151600281111561181f5761181f611e80565b036118925760e0840151610100850151600a54610120870151600b54600c546040517feee0efec000000000000000000000000000000000000000000000000000000008152600160a060020a038089169763eee0efec976117439791969095918316949093918316921690600401612bea565b604051600080516020612de5833981519152815260206004820152600960248201527f707269636554797065000000000000000000000000000000000000000000000060448201526064016110ca565b6118ed600183612bd7565b600160a060020a038416600090815260026020526040908190209190915584810151905184916007916119209190612b10565b9081526040805160209281900383018120336000908152908452829020805473ffffffffffffffffffffffffffffffffffffffff1916600160a060020a039590951694909417909355828101905260608083529082015260208501515161198690611b26565b815260a085015161199690611b26565b6020808301829052865160408089015185518a85015185015160c08c01515193516000976119cd9794959394929392909101612cf3565b60405160208183030381529060405290507f2c6c2c8fac99064b89e2a97cba30b9bce7b1a84a55e0310e16b56924c6ab2f4585600083336000604051611a17959493929190612ac6565b60405180910390a15050505050611a2e6001600055565b50565b600480546040517f9aa360ec0000000000000000000000000000000000000000000000000000000081523392810192909252600160a060020a031690639aa360ec90602401602060405180830381865afa158015611a93573d6000803e3d6000fd5b505050506040513d601f19601f82011682018060405250810190611ab79190612b2c565b611ac057600080fd5b600155565b600260005403611b1f57604051600080516020612de5833981519152815260206004820152601f60248201527f5265656e7472616e637947756172643a207265656e7472616e742063616c6c0060448201526064016110ca565b6002600055565b60606000611b3383611bc6565b600101905060008167ffffffffffffffff811115611b5357611b53612225565b6040519080825280601f01601f191660200182016040528015611b7d576020820181803683370190505b5090508181016020015b600019017f3031323334353637383961626364656600000000000000000000000000000000600a86061a8153600a8504945084611b8757509392505050565b6000807a184f03e93ff9f4daa797ed6e38ed64bf6a1f0100000000000000008310611c0f577a184f03e93ff9f4daa797ed6e38ed64bf6a1f010000000000000000830492506040015b6d04ee2d6d415b85acef81000000008310611c3b576d04ee2d6d415b85acef8100000000830492506020015b662386f26fc100008310611c5957662386f26fc10000830492506010015b6305f5e1008310611c71576305f5e100830492506008015b6127108310611c8557612710830492506004015b60648310611c97576064830492506002015b600a83106111de5760010192915050565b604080516101e0810182526000808252602080830182905283518085018552918252606090820152909182019081526020016000600160a060020a03168152602001611d07604051806040016040528060008152602001606081525090565b81526020016060815260200160608152602001606081526020016000815260200160008152602001611d5360405180606001604052806060815260200160008152602001600081525090565b81526020016000815260606020820181905260408201819052016000905290565b6040518060c00160405280600081526020016000815260200160006002811115611da057611da0611e80565b81526020016060815260200160608152602001600081525090565b600060208284031215611dcd57600080fd5b5035919050565b60005b83811015611def578181015183820152602001611dd7565b50506000910152565b60008151808452611e10816020860160208601611dd4565b601f01601f19169290920160200192915050565b805182526000602082015160406020850152611e436040850182611df8565b949350505050565b6000815160608452611e606060850182611df8565b905060208301516020850152604083015160408501528091505092915050565b7f4e487b7100000000000000000000000000000000000000000000000000000000600052602160045260246000fd5b600a8110611ebf57611ebf611e80565b9052565b6000828251808552602080860195508081830284010181860160005b84811015611f5c57601f19868403018952815160808151818652611f0582870182611df8565b9150508582015185820387870152611f1d8282611df8565b915050604060ff8184015116818701525060608083015192508582038187015250611f488183611df8565b9a86019a9450505090830190600101611edf565b5090979650505050505050565b60038110611ebf57611ebf611e80565b60208152611f93602082018351600160a060020a03169052565b60006020830151611faf6040840182600160a060020a03169052565b5060408301516101e0806060850152611fcc610200850183611e24565b91506060850151611fe86080860182600160a060020a03169052565b506080850151601f19808685030160a08701526120058483611e24565b935060a08701519150808685030160c08701526120228483611df8565b935060c08701519150808685030160e087015261203f8483611df8565b935060e0870151915061010081878603018188015261205e8584611df8565b9088015161012088810191909152880151610140808901919091528801518782038301610160808a0191909152919550925061209a8584611e4b565b9450808801519250506101806120b281880184611eaf565b808801519250506101a08187860301818801526120cf8584611ec3565b9450808801519250506101c08187860301818801526120ee8584611df8565b9450808801519250505061210482860182611f69565b5090949350505050565b600a8110611a2e57600080fd5b60008060006060848603121561213057600080fd5b833561213b8161210e565b95602085013595506040909401359392505050565b60208082528251828201819052600091906040908185019080840286018301878501865b838110156121fa57603f19898403018552815160c0815185528882015189860152878201516121a589870182611f69565b5060608083015182828801526121bd83880182611df8565b92505050608080830151868303828801526121d88382611df8565b60a0948501519790940196909652505094870194925090860190600101612174565b509098975050505050505050565b60006020828403121561221a57600080fd5b81356112f38161210e565b7f4e487b7100000000000000000000000000000000000000000000000000000000600052604160045260246000fd5b6040516080810167ffffffffffffffff8111828210171561227757612277612225565b60405290565b604051610140810167ffffffffffffffff8111828210171561227757612277612225565b604051601f8201601f1916810167ffffffffffffffff811182821017156122ca576122ca612225565b604052919050565b600067ffffffffffffffff8211156122ec576122ec612225565b50601f01601f191660200190565b600082601f83011261230b57600080fd5b813561231e612319826122d2565b6122a1565b81815284602083860101111561233357600080fd5b816020850160208301376000918101602001919091529392505050565b600160a060020a0381168114611a2e57600080fd5b6000806000806080858703121561237b57600080fd5b84356123868161210e565b9350602085013567ffffffffffffffff8111156123a257600080fd5b6123ae878288016122fa565b93505060408501356123bf81612350565b915060608501356123cf81612350565b939692955090935050565b600080604083850312156123ed57600080fd5b823567ffffffffffffffff81111561240457600080fd5b612410858286016122fa565b925050602083013561242181612350565b809150509250929050565b60006020828403121561243e57600080fd5b81356112f381612350565b60006040828403121561245b57600080fd5b6040516040810167ffffffffffffffff828210818311171561247f5761247f612225565b8160405282935084358352602085013591508082111561249e57600080fd5b506124ab858286016122fa565b6020830152505092915050565b6000606082840312156124ca57600080fd5b6040516060810167ffffffffffffffff82821081831117156124ee576124ee612225565b81604052829350843591508082111561250657600080fd5b50612513858286016122fa565b82525060208301356020820152604083013560408201525092915050565b60ff81168114611a2e57600080fd5b600082601f83011261255157600080fd5b8135602067ffffffffffffffff8083111561256e5761256e612225565b81830261257c8382016122a1565b938452858101830193838101908886111561259657600080fd5b84880192505b8583101561266a578235848111156125b45760008081fd5b88016080818b03601f19018113156125cc5760008081fd5b6125d4612254565b87830135878111156125e65760008081fd5b6125f48d8a838701016122fa565b8252506040808401358881111561260b5760008081fd5b6126198e8b838801016122fa565b8a8401525060608085013561262d81612531565b8383015292840135928884111561264657600091508182fd5b6126548e8b868801016122fa565b908301525084525050918401919084019061259c565b98975050505050505050565b60038110611a2e57600080fd5b803561268e81612676565b919050565b6000602082840312156126a557600080fd5b813567ffffffffffffffff808211156126bd57600080fd5b9083019061014082860312156126d257600080fd5b6126da61227d565b8235828111156126e957600080fd5b6126f5878286016122fa565b82525060208301358281111561270a57600080fd5b61271687828601612449565b60208301525060408301358281111561272e57600080fd5b61273a878286016122fa565b60408301525060608301358281111561275257600080fd5b61275e878286016122fa565b60608301525060808301358281111561277657600080fd5b612782878286016122fa565b60808301525060a083013560a082015260c0830135828111156127a457600080fd5b6127b0878286016124b8565b60c08301525060e0830135828111156127c857600080fd5b6127d487828601612540565b60e08301525061010080840135838111156127ee57600080fd5b6127fa888287016122fa565b8284015250506101209150612810828401612683565b91810191909152949350505050565b60006020828403121561283157600080fd5b81516112f381612350565b600082601f83011261284d57600080fd5b815161285b612319826122d2565b81815284602083860101111561287057600080fd5b611e43826020830160208701611dd4565b60006020828403121561289357600080fd5b815167ffffffffffffffff8111156128aa57600080fd5b611e438482850161283c565b600080604083850312156128c957600080fd5b82519150602083015167ffffffffffffffff8111156128e757600080fd5b6128f38582860161283c565b9150509250929050565b60006020828403121561290f57600080fd5b5051919050565b60008060006060848603121561292b57600080fd5b835167ffffffffffffffff81111561294257600080fd5b61294e8682870161283c565b93505060208401519150604084015190509250925092565b60006020828403121561297857600080fd5b81516112f38161210e565b6000806000806080858703121561299957600080fd5b845167ffffffffffffffff808211156129b157600080fd5b6129bd8883890161283c565b955060208701519150808211156129d357600080fd5b6129df8883890161283c565b9450604087015191506129f182612531565b606087015191935080821115612a0657600080fd5b50612a138782880161283c565b91505092959194509250565b7f4e487b7100000000000000000000000000000000000000000000000000000000600052603260045260246000fd5b7f4e487b7100000000000000000000000000000000000000000000000000000000600052601160045260246000fd5b600060018201612a8f57612a8f612a4e565b5060010190565b600060208284031215612aa857600080fd5b81516112f381612676565b808201808211156111de576111de612a4e565b6000600160a060020a038088168352612ae26020840188611eaf565b60a06040840152612af660a0840187611df8565b948116606084015292909216608090910152509392505050565b60008251612b22818460208701611dd4565b9190910192915050565b600060208284031215612b3e57600080fd5b815180151581146112f357600080fd5b60e081526000612b6160e083018a611df8565b8281036020840152612b73818a611e24565b90508281036040840152612b878189611df8565b90508281036060840152612b9b8188611df8565b90508281036080840152612baf8187611df8565b90508460a084015282810360c0840152612bc98185611e4b565b9a9950505050505050505050565b818103818111156111de576111de612a4e565b600060c0820160c0835280895180835260e0850191506020925060e0838202860101838c0160005b83811015612c8f5760df19888403018552815160808151818652612c3882870182611df8565b9150508782015185820389870152612c508282611df8565b915050604060ff8184015116818701525060608083015192508582038187015250612c7b8183611df8565b968801969450505090850190600101612c12565b505085810384870152612ca2818c611df8565b945050505050612cbd6040830187600160a060020a03169052565b612cca6060830186611f69565b600160a060020a0384166080830152600160a060020a03831660a0830152979650505050505050565b600087516020612d068285838d01611dd4565b81840191507f7c7c0000000000000000000000000000000000000000000000000000000000008083528951612d418160028601858e01611dd4565b600293019283018190528851612d5d8160048601858d01611dd4565b7f2b00000000000000000000000000000000000000000000000000000000000000600494909101938401528751612d9a8160058601858c01611dd4565b600593019283018190528651612db68160078601858b01611dd4565b60079301928301528451612dd08160098501848901611dd4565b91909101600901999850505050505050505056fe08c379a000000000000000000000000000000000000000000000000000000000a26469706673582212202be84823459549ca2815e55e389a12c5ba3218fcc65ddb10a7cc2a2dd4a3b9a564736f6c63430008130033",
  "immutableReferences": {},
  "source": "// //SPDX-License-Identifier: UNLICENSED\r\npragma solidity 0.8.19;\r\n\r\nimport \"./TradeFactoryBase.sol\";\r\n\r\nstruct TradeIndex {\r\n    uint256 index;\r\n    uint256 weiPrice;\r\n    PriceType priceType;\r\n    string weaponType;\r\n    string itemMarketName;\r\n    uint256 nextIndex;\r\n}\r\n\r\nstruct ExtraTest {\r\n    string tradeUrlPartner;\r\n    string weiPriceStringed;\r\n}\r\n\r\nstruct ListingParams {\r\n    string itemMarketName;\r\n    TradeUrl tradeUrl;\r\n    string assetId;\r\n    string inspectLink;\r\n    string itemImageUrl;\r\n    uint256 weiPrice;\r\n    SkinInfo skinInfo;\r\n    Sticker[] stickers;\r\n    string weaponType;\r\n    PriceType priceType;\r\n}\r\n\r\nstruct PaymentTokens {\r\n    address weth;\r\n    address usdc;\r\n    address usdt;\r\n}\r\n\r\ncontract CSXTradeFactory is TradeFactoryBase {\r\n    PaymentTokens public paymentTokens;\r\n    address public referralRegistryAddress;\r\n    address public sCSXTokenAddress;\r\n    address public buyAssistoor;\r\n\r\n    constructor(\r\n        address _keepers,\r\n        address _users,\r\n        address _tradeFactoryBaseStorage,\r\n        uint256 _baseFee,\r\n        PaymentTokens memory _paymentTokens,\r\n        address _referralRegistryAddress,\r\n        address _sCSXTokenAddress,\r\n        address _buyAssistoor\r\n    ) TradeFactoryBase(_keepers, _users, _tradeFactoryBaseStorage, _baseFee) {\r\n        paymentTokens = _paymentTokens;\r\n        referralRegistryAddress = _referralRegistryAddress;\r\n        sCSXTokenAddress = _sCSXTokenAddress;\r\n        buyAssistoor = _buyAssistoor;\r\n    }\r\n\r\n    function createListingContract(\r\n        ListingParams memory params\r\n    ) external nonReentrant {\r\n        require(usersContract.isBanned(msg.sender) == false, \"bnd\");\r\n        require(\r\n            assetIdFromUserAddrssToTradeAddrss[params.assetId][msg.sender] ==\r\n                address(0),\r\n            \"id\"\r\n        );\r\n\r\n        tradeFactoryBaseStorage.newTradeContract(\r\n            params.itemMarketName,\r\n            params.tradeUrl,\r\n            params.assetId,\r\n            params.inspectLink,\r\n            params.itemImageUrl,\r\n            params.weiPrice,\r\n            params.skinInfo\r\n        );\r\n\r\n        address newAddress = tradeFactoryBaseStorage\r\n            .getLastTradeContractAddress();\r\n\r\n        uint256 totalContracts = tradeFactoryBaseStorage.totalContracts();\r\n\r\n        isTradeContract[newAddress] = true;\r\n\r\n        CSXTrade _contract = tradeFactoryBaseStorage.getTradeContractByIndex(\r\n            totalContracts - 1\r\n        );\r\n\r\n        if(params.priceType == PriceType.WETH) {\r\n            _contract.initExtraInfo(\r\n                params.stickers,\r\n                params.weaponType,\r\n                paymentTokens.weth,\r\n                params.priceType,\r\n                referralRegistryAddress,\r\n                sCSXTokenAddress\r\n            );\r\n        } else if(params.priceType == PriceType.USDC) {\r\n            _contract.initExtraInfo(\r\n                params.stickers,\r\n                params.weaponType,\r\n                paymentTokens.usdc,\r\n                params.priceType,\r\n                referralRegistryAddress,\r\n                sCSXTokenAddress\r\n            );\r\n        } else if(params.priceType == PriceType.USDT) {\r\n            _contract.initExtraInfo(\r\n                params.stickers,\r\n                params.weaponType,\r\n                paymentTokens.usdt,\r\n                params.priceType,\r\n                referralRegistryAddress,\r\n                sCSXTokenAddress\r\n            );\r\n        } else {\r\n            revert(\"priceType\");\r\n        }\r\n\r\n        contractAddressToIndex[newAddress] = totalContracts - 1;\r\n        assetIdFromUserAddrssToTradeAddrss[params.assetId][msg.sender] = newAddress;\r\n\r\n        ExtraTest memory _extraTest;\r\n\r\n        _extraTest.tradeUrlPartner = Strings.toString(params.tradeUrl.partner);\r\n        _extraTest.weiPriceStringed = Strings.toString(params.weiPrice);\r\n\r\n        string memory data = string(\r\n            abi.encodePacked(\r\n                params.itemMarketName,\r\n                \"||\",\r\n                params.assetId,\r\n                \"||\",\r\n                _extraTest.tradeUrlPartner,\r\n                \"+\",\r\n                params.tradeUrl.token,\r\n                \"||\",\r\n                params.skinInfo.floatValues, // \"[0.00, 0.00, 0.000000]\" (max, min, value)\r\n                \"||\",\r\n                _extraTest.weiPriceStringed\r\n            )\r\n        );\r\n        emit TradeContractStatusChange(\r\n            newAddress,\r\n            TradeStatus.ForSale,\r\n            data,\r\n            msg.sender,\r\n            address(0)\r\n        );\r\n    }\r\n\r\n    function getTradeDetailsByIndex(\r\n        uint256 index\r\n    ) public view returns (TradeInfo memory result) {\r\n        uint256 i = index;\r\n        //SMTrade _contract = tradeContracts[i];\r\n        CSXTrade _contract = tradeFactoryBaseStorage.getTradeContractByIndex(i);\r\n\r\n        result.contractAddress = address(_contract);\r\n        result.seller = _contract.seller();\r\n        result.buyer = _contract.buyer();\r\n        result.itemMarketName = _contract.itemMarketName();\r\n        result.inspectLink = _contract.inspectLink();\r\n\r\n        TradeUrl memory _sTradeUrl;\r\n        (_sTradeUrl.partner, _sTradeUrl.token) = _contract.sellerTradeUrl();\r\n        result.sellerTradeUrl = _sTradeUrl;\r\n\r\n        TradeUrl memory _bTradeUrl;\r\n        (_bTradeUrl.partner, _bTradeUrl.token) = _contract.buyerTradeUrl();\r\n        result.buyerTradeUrl = _bTradeUrl;\r\n\r\n        result.weiPrice = _contract.weiPrice();\r\n        result.itemImageUrl = _contract.itemImageUrl();\r\n        result.averageSellerDeliveryTime = usersContract.getAverageDeliveryTime(\r\n            result.seller\r\n        );\r\n        SkinInfo memory _skinInfo;\r\n        (\r\n            _skinInfo.floatValues,\r\n            _skinInfo.paintSeed,\r\n            _skinInfo.paintIndex\r\n        ) = _contract.skinInfo();\r\n        result.skinInfo = _skinInfo;\r\n        result.status = _contract.status();\r\n\r\n        uint256 lengthOfStickersArray = _contract.stickerLength();\r\n        Sticker[] memory _stickers = new Sticker[](lengthOfStickersArray);\r\n\r\n        for (uint256 y = 0; y < _stickers.length; y++) {\r\n            (\r\n                _stickers[y].name,\r\n                _stickers[y].material,\r\n                _stickers[y].slot,\r\n                _stickers[y].imageLink\r\n            ) = _contract.stickers(y);\r\n        }\r\n        result.stickers = _stickers;\r\n\r\n        result.weaponType = _contract.weaponType();\r\n\r\n        result.priceType = _contract.priceType();\r\n\r\n        return result;\r\n    }\r\n\r\n    function getTradeDetailsByAddress(\r\n        address tradeAddrs\r\n    ) public view returns (TradeInfo memory result) {\r\n        uint256 i = contractAddressToIndex[tradeAddrs];\r\n        result = getTradeDetailsByIndex(i);\r\n    }\r\n\r\n    function getTradeIndexesByStatus(\r\n        TradeStatus status,\r\n        uint256 indexFrom,\r\n        uint256 maxResults\r\n    ) external view returns (TradeIndex[] memory) {\r\n        TradeIndex[] memory tradeIndexes = new TradeIndex[](maxResults);\r\n        uint256 resultIndex;\r\n        uint256 i = indexFrom;\r\n        uint256 totalContracts = tradeFactoryBaseStorage.totalContracts();\r\n        while (resultIndex < maxResults && i < totalContracts) {\r\n            TradeInfo memory _trade = getTradeDetailsByIndex(i);\r\n\r\n            if (_trade.status == status) {\r\n                tradeIndexes[resultIndex].index = i;\r\n                tradeIndexes[resultIndex].weiPrice = _trade.weiPrice;\r\n                tradeIndexes[resultIndex].priceType = _trade.priceType;\r\n                tradeIndexes[resultIndex].weaponType = _trade.weaponType;\r\n                tradeIndexes[resultIndex].itemMarketName = _trade\r\n                    .itemMarketName;\r\n                tradeIndexes[resultIndex].nextIndex = i + 1;\r\n                ++resultIndex;\r\n            }\r\n\r\n            ++i;\r\n        }\r\n        return tradeIndexes;\r\n    }\r\n\r\n    function getTradeCountByStatus(\r\n        TradeStatus status\r\n    ) external view returns (uint256) {\r\n        uint256 count;\r\n        uint256 i = 0;\r\n        uint256 totalContracts = tradeFactoryBaseStorage.totalContracts();\r\n        while (i < totalContracts) {\r\n            TradeInfo memory _trade = getTradeDetailsByIndex(i);\r\n            if (_trade.status == status) {\r\n                ++count;\r\n            }\r\n            ++i;\r\n        }\r\n        return count;\r\n    }\r\n}\r\n",
  "sourcePath": "C:\\Users\\Charl\\Documents\\Projects\\SteamMarket\\CSX\\csx-contracts\\contracts\\TradeFactory\\TradeFactory.sol",
  "compiler": {
    "name": "solc",
    "version": "0.8.19+commit.7dd6d404.Emscripten.clang"
  },
  "schemaVersion": "3.4.3",
  "updatedAt": "2023-05-23T09:33:51.228Z",
  "devdoc": {
    "kind": "dev",
    "methods": {},
    "version": 1
  },
  "userdoc": {
    "kind": "user",
    "methods": {},
    "version": 1
  }
}