{
  "contractName": "CSXTrade",
  "abi": [
    {
      "inputs": [
        {
          "internalType": "address",
          "name": "_factory",
          "type": "address"
        },
        {
          "internalType": "address",
          "name": "_keepers",
          "type": "address"
        },
        {
          "internalType": "address",
          "name": "_users",
          "type": "address"
        },
        {
          "internalType": "address",
          "name": "_seller",
          "type": "address"
        },
        {
          "internalType": "uint256",
          "name": "_weiPrice",
          "type": "uint256"
        },
        {
          "internalType": "string",
          "name": "_itemMarketName",
          "type": "string"
        },
        {
          "components": [
            {
              "internalType": "uint256",
              "name": "partner",
              "type": "uint256"
            },
            {
              "internalType": "string",
              "name": "token",
              "type": "string"
            }
          ],
          "internalType": "struct TradeUrl",
          "name": "_sellerTradeUrl",
          "type": "tuple"
        },
        {
          "internalType": "string",
          "name": "_sellerAssetId",
          "type": "string"
        },
        {
          "internalType": "string",
          "name": "_inspectLink",
          "type": "string"
        },
        {
          "internalType": "string",
          "name": "_itemImageUrl",
          "type": "string"
        },
        {
          "components": [
            {
              "internalType": "string",
              "name": "floatValues",
              "type": "string"
            },
            {
              "internalType": "uint256",
              "name": "paintSeed",
              "type": "uint256"
            },
            {
              "internalType": "uint256",
              "name": "paintIndex",
              "type": "uint256"
            }
          ],
          "internalType": "struct SkinInfo",
          "name": "_skinInfo",
          "type": "tuple"
        }
      ],
      "stateMutability": "nonpayable",
      "type": "constructor"
    },
    {
      "inputs": [],
      "name": "buyer",
      "outputs": [
        {
          "internalType": "address",
          "name": "",
          "type": "address"
        }
      ],
      "stateMutability": "view",
      "type": "function"
    },
    {
      "inputs": [],
      "name": "buyerCommitTimestamp",
      "outputs": [
        {
          "internalType": "uint256",
          "name": "",
          "type": "uint256"
        }
      ],
      "stateMutability": "view",
      "type": "function"
    },
    {
      "inputs": [],
      "name": "buyerTradeUrl",
      "outputs": [
        {
          "internalType": "uint256",
          "name": "partner",
          "type": "uint256"
        },
        {
          "internalType": "string",
          "name": "token",
          "type": "string"
        }
      ],
      "stateMutability": "view",
      "type": "function"
    },
    {
      "inputs": [],
      "name": "depositedValue",
      "outputs": [
        {
          "internalType": "uint256",
          "name": "",
          "type": "uint256"
        }
      ],
      "stateMutability": "view",
      "type": "function"
    },
    {
      "inputs": [],
      "name": "disputeComplaint",
      "outputs": [
        {
          "internalType": "string",
          "name": "",
          "type": "string"
        }
      ],
      "stateMutability": "view",
      "type": "function"
    },
    {
      "inputs": [],
      "name": "disputeer",
      "outputs": [
        {
          "internalType": "address",
          "name": "",
          "type": "address"
        }
      ],
      "stateMutability": "view",
      "type": "function"
    },
    {
      "inputs": [],
      "name": "factoryContract",
      "outputs": [
        {
          "internalType": "contract ITradeFactory",
          "name": "",
          "type": "address"
        }
      ],
      "stateMutability": "view",
      "type": "function"
    },
    {
      "inputs": [],
      "name": "hasInit",
      "outputs": [
        {
          "internalType": "bool",
          "name": "",
          "type": "bool"
        }
      ],
      "stateMutability": "view",
      "type": "function"
    },
    {
      "inputs": [],
      "name": "inspectLink",
      "outputs": [
        {
          "internalType": "string",
          "name": "",
          "type": "string"
        }
      ],
      "stateMutability": "view",
      "type": "function"
    },
    {
      "inputs": [],
      "name": "itemImageUrl",
      "outputs": [
        {
          "internalType": "string",
          "name": "",
          "type": "string"
        }
      ],
      "stateMutability": "view",
      "type": "function"
    },
    {
      "inputs": [],
      "name": "itemMarketName",
      "outputs": [
        {
          "internalType": "string",
          "name": "",
          "type": "string"
        }
      ],
      "stateMutability": "view",
      "type": "function"
    },
    {
      "inputs": [],
      "name": "itemSellerAssetId",
      "outputs": [
        {
          "internalType": "string",
          "name": "",
          "type": "string"
        }
      ],
      "stateMutability": "view",
      "type": "function"
    },
    {
      "inputs": [],
      "name": "keepersContract",
      "outputs": [
        {
          "internalType": "contract IKeepers",
          "name": "",
          "type": "address"
        }
      ],
      "stateMutability": "view",
      "type": "function"
    },
    {
      "inputs": [],
      "name": "paymentToken",
      "outputs": [
        {
          "internalType": "contract IERC20",
          "name": "",
          "type": "address"
        }
      ],
      "stateMutability": "view",
      "type": "function"
    },
    {
      "inputs": [],
      "name": "priceType",
      "outputs": [
        {
          "internalType": "enum PriceType",
          "name": "",
          "type": "uint8"
        }
      ],
      "stateMutability": "view",
      "type": "function"
    },
    {
      "inputs": [],
      "name": "referralCode",
      "outputs": [
        {
          "internalType": "bytes32",
          "name": "",
          "type": "bytes32"
        }
      ],
      "stateMutability": "view",
      "type": "function"
    },
    {
      "inputs": [],
      "name": "referralRegistryContract",
      "outputs": [
        {
          "internalType": "contract IReferralRegistry",
          "name": "",
          "type": "address"
        }
      ],
      "stateMutability": "view",
      "type": "function"
    },
    {
      "inputs": [],
      "name": "sCSXToken",
      "outputs": [
        {
          "internalType": "contract IStakedCSX",
          "name": "",
          "type": "address"
        }
      ],
      "stateMutability": "view",
      "type": "function"
    },
    {
      "inputs": [],
      "name": "seller",
      "outputs": [
        {
          "internalType": "address",
          "name": "",
          "type": "address"
        }
      ],
      "stateMutability": "view",
      "type": "function"
    },
    {
      "inputs": [],
      "name": "sellerAcceptedTimestamp",
      "outputs": [
        {
          "internalType": "uint256",
          "name": "",
          "type": "uint256"
        }
      ],
      "stateMutability": "view",
      "type": "function"
    },
    {
      "inputs": [],
      "name": "sellerTradeUrl",
      "outputs": [
        {
          "internalType": "uint256",
          "name": "partner",
          "type": "uint256"
        },
        {
          "internalType": "string",
          "name": "token",
          "type": "string"
        }
      ],
      "stateMutability": "view",
      "type": "function"
    },
    {
      "inputs": [],
      "name": "skinInfo",
      "outputs": [
        {
          "internalType": "string",
          "name": "floatValues",
          "type": "string"
        },
        {
          "internalType": "uint256",
          "name": "paintSeed",
          "type": "uint256"
        },
        {
          "internalType": "uint256",
          "name": "paintIndex",
          "type": "uint256"
        }
      ],
      "stateMutability": "view",
      "type": "function"
    },
    {
      "inputs": [],
      "name": "status",
      "outputs": [
        {
          "internalType": "enum TradeStatus",
          "name": "",
          "type": "uint8"
        }
      ],
      "stateMutability": "view",
      "type": "function"
    },
    {
      "inputs": [
        {
          "internalType": "uint256",
          "name": "",
          "type": "uint256"
        }
      ],
      "name": "stickers",
      "outputs": [
        {
          "internalType": "string",
          "name": "name",
          "type": "string"
        },
        {
          "internalType": "string",
          "name": "material",
          "type": "string"
        },
        {
          "internalType": "uint8",
          "name": "slot",
          "type": "uint8"
        },
        {
          "internalType": "string",
          "name": "imageLink",
          "type": "string"
        }
      ],
      "stateMutability": "view",
      "type": "function"
    },
    {
      "inputs": [],
      "name": "usersContract",
      "outputs": [
        {
          "internalType": "contract IUsers",
          "name": "",
          "type": "address"
        }
      ],
      "stateMutability": "view",
      "type": "function"
    },
    {
      "inputs": [],
      "name": "weaponType",
      "outputs": [
        {
          "internalType": "string",
          "name": "",
          "type": "string"
        }
      ],
      "stateMutability": "view",
      "type": "function"
    },
    {
      "inputs": [],
      "name": "weiPrice",
      "outputs": [
        {
          "internalType": "uint256",
          "name": "",
          "type": "uint256"
        }
      ],
      "stateMutability": "view",
      "type": "function"
    },
    {
      "inputs": [
        {
          "components": [
            {
              "internalType": "string",
              "name": "name",
              "type": "string"
            },
            {
              "internalType": "string",
              "name": "material",
              "type": "string"
            },
            {
              "internalType": "uint8",
              "name": "slot",
              "type": "uint8"
            },
            {
              "internalType": "string",
              "name": "imageLink",
              "type": "string"
            }
          ],
          "internalType": "struct Sticker[]",
          "name": "_stickers",
          "type": "tuple[]"
        },
        {
          "internalType": "string",
          "name": "_weaponType",
          "type": "string"
        },
        {
          "internalType": "address",
          "name": "_paymentToken",
          "type": "address"
        },
        {
          "internalType": "enum PriceType",
          "name": "_priceType",
          "type": "uint8"
        },
        {
          "internalType": "address",
          "name": "_referralRegistryContract",
          "type": "address"
        },
        {
          "internalType": "address",
          "name": "_sCSXToken",
          "type": "address"
        }
      ],
      "name": "initExtraInfo",
      "outputs": [],
      "stateMutability": "nonpayable",
      "type": "function"
    },
    {
      "inputs": [],
      "name": "stickerLength",
      "outputs": [
        {
          "internalType": "uint256",
          "name": "",
          "type": "uint256"
        }
      ],
      "stateMutability": "view",
      "type": "function"
    },
    {
      "inputs": [],
      "name": "sellerCancel",
      "outputs": [],
      "stateMutability": "nonpayable",
      "type": "function"
    },
    {
      "inputs": [
        {
          "components": [
            {
              "internalType": "uint256",
              "name": "partner",
              "type": "uint256"
            },
            {
              "internalType": "string",
              "name": "token",
              "type": "string"
            }
          ],
          "internalType": "struct TradeUrl",
          "name": "_buyerTradeUrl",
          "type": "tuple"
        },
        {
          "internalType": "bytes32",
          "name": "_affLink",
          "type": "bytes32"
        },
        {
          "internalType": "address",
          "name": "_buyerAddress",
          "type": "address"
        }
      ],
      "name": "commitBuy",
      "outputs": [],
      "stateMutability": "nonpayable",
      "type": "function"
    },
    {
      "inputs": [],
      "name": "buyerCancel",
      "outputs": [],
      "stateMutability": "nonpayable",
      "type": "function"
    },
    {
      "inputs": [
        {
          "internalType": "bool",
          "name": "sellerCommited",
          "type": "bool"
        }
      ],
      "name": "sellerTradeVeridict",
      "outputs": [],
      "stateMutability": "nonpayable",
      "type": "function"
    },
    {
      "inputs": [],
      "name": "buyerConfirmReceived",
      "outputs": [],
      "stateMutability": "nonpayable",
      "type": "function"
    },
    {
      "inputs": [],
      "name": "sellerConfirmsTrade",
      "outputs": [],
      "stateMutability": "nonpayable",
      "type": "function"
    },
    {
      "inputs": [
        {
          "internalType": "bool",
          "name": "isTradeMade",
          "type": "bool"
        }
      ],
      "name": "keeperNodeConfirmsTrade",
      "outputs": [],
      "stateMutability": "nonpayable",
      "type": "function"
    },
    {
      "inputs": [
        {
          "internalType": "string",
          "name": "_complaint",
          "type": "string"
        }
      ],
      "name": "openDispute",
      "outputs": [],
      "stateMutability": "nonpayable",
      "type": "function"
    },
    {
      "inputs": [
        {
          "internalType": "bool",
          "name": "isFavourOfBuyer",
          "type": "bool"
        },
        {
          "internalType": "bool",
          "name": "giveWarningToSeller",
          "type": "bool"
        },
        {
          "internalType": "bool",
          "name": "giveWarningToBuyer",
          "type": "bool"
        },
        {
          "internalType": "bool",
          "name": "isWithValue",
          "type": "bool"
        }
      ],
      "name": "resolveDispute",
      "outputs": [],
      "stateMutability": "nonpayable",
      "type": "function"
    },
    {
      "inputs": [
        {
          "internalType": "bytes32",
          "name": "_affLink",
          "type": "bytes32"
        }
      ],
      "name": "getNetValue",
      "outputs": [
        {
          "internalType": "uint256",
          "name": "buyerNetPrice",
          "type": "uint256"
        },
        {
          "internalType": "uint256",
          "name": "sellerNetProceeds",
          "type": "uint256"
        },
        {
          "internalType": "uint256",
          "name": "affiliatorNetReward",
          "type": "uint256"
        },
        {
          "internalType": "uint256",
          "name": "tokenHoldersNetReward",
          "type": "uint256"
        }
      ],
      "stateMutability": "view",
      "type": "function"
    }
  ],
  "bytecode": "0x60806040523480156200001157600080fd5b506040516200545a3803806200545a8339810160408190526200003491620003a1565b8a601760006101000a815481600160a060020a030219169083600160a060020a0316021790555089601560016101000a815481600160a060020a030219169083600160a060020a0316021790555088601660006101000a815481600160a060020a030219169083600160a060020a0316021790555087600260016101000a815481600160a060020a030219169083600160a060020a0316021790555086600f819055506000601560006101000a81548160ff02191690836009811115620000ff57620000ff6200051d565b02179055506004620001128782620005f4565b50845160069081556020860151869190600790620001319082620005f4565b50600591506200014490508582620005f4565b50600a620001538482620005f4565b50600b620001628382620005f4565b50805181906012908190620001789082620005f4565b5060208201518160010155604082015181600201559050505050505050505050505050620006c6565b8051600160a060020a0381168114620001b957600080fd5b919050565b7f4e487b7100000000000000000000000000000000000000000000000000000000600052604160045260246000fd5b604051601f8201601f191681016001604060020a0381118282101715620002185762000218620001be565b604052919050565b600082601f8301126200023257600080fd5b81516001604060020a038111156200024e576200024e620001be565b602062000264601f8301601f19168201620001ed565b82815285828487010111156200027957600080fd5b60005b83811015620002995785810183015182820184015282016200027c565b506000928101909101919091529392505050565b600060408284031215620002c057600080fd5b604051604081016001604060020a038282108183111715620002e657620002e6620001be565b816040528293508451835260208501519150808211156200030657600080fd5b50620003158582860162000220565b6020830152505092915050565b6000606082840312156200033557600080fd5b604051606081016001604060020a0382821081831117156200035b576200035b620001be565b8160405282935084519150808211156200037457600080fd5b50620003838582860162000220565b82525060208301516020820152604083015160408201525092915050565b60008060008060008060008060008060006101608c8e031215620003c457600080fd5b620003cf8c620001a1565b9a50620003df60208d01620001a1565b9950620003ef60408d01620001a1565b9850620003ff60608d01620001a1565b975060808c0151965060a08c01516001604060020a038111156200042257600080fd5b620004308e828f0162000220565b96505060c08c01516001604060020a038111156200044d57600080fd5b6200045b8e828f01620002ad565b95505060e08c01516001604060020a038111156200047857600080fd5b620004868e828f0162000220565b9450506101008c01516001604060020a03811115620004a457600080fd5b620004b28e828f0162000220565b9350506101208c01516001604060020a03811115620004d057600080fd5b620004de8e828f0162000220565b9250506101408c01516001604060020a03811115620004fc57600080fd5b6200050a8e828f0162000322565b9150509295989b509295989b9093969950565b7f4e487b7100000000000000000000000000000000000000000000000000000000600052602160045260246000fd5b6002810460018216806200056157607f821691505b6020821081036200059b577f4e487b7100000000000000000000000000000000000000000000000000000000600052602260045260246000fd5b50919050565b601f821115620005ef576000818152602081206020601f86010481016020861015620005ca5750805b6020601f860104820191505b81811015620005eb57828155600101620005d6565b5050505b505050565b81516001604060020a03811115620006105762000610620001be565b62000628816200062184546200054c565b84620005a1565b602080601f831160018114620006645760008415620006475750858301515b60028086026008870290910a6000190419821617865550620005eb565b600085815260208120601f198616915b82811015620006955788860151825594840194600190910190840162000674565b5085821015620006b657878501516008601f88160260020a60001904191681555b5050505050600202600101905550565b614d8480620006d66000396000f3fe608060405234801561001057600080fd5b506004361061025a576000357c01000000000000000000000000000000000000000000000000000000009004806370e066f611610158578063d8b6d252116100d5578063e9d13b5711610099578063e9d13b57146104ff578063eee0efec14610507578063f4a84e0f1461051a578063fd7d6df414610522578063fddd56c51461053557600080fd5b8063d8b6d2521461049f578063de11c94a146104a8578063e29b9e97146104bb578063e67d5523146104c4578063e8b58b21146104cc57600080fd5b80638f965d801161011c5780638f965d8014610440578063975a177314610463578063c2bd884b1461046c578063d2ef033c14610484578063d55a17c01461049757600080fd5b806370e066f61461040257806370ec9d541461040a5780637150d8ae1461041d5780637384001c146104305780638dada6d81461043857600080fd5b80632b757693116101e6578063356cd0dc116101aa578063356cd0dc146103b45780634e9448e9146103bc578063595210ad146103cf5780635b902134146103e25780636fed1d7e146103eb57600080fd5b80632b757693146103385780632d90d70d1461034d5780633013ce2914610364578063343bf40e146103775780633440543a146103ac57600080fd5b8063166e21f11161022d578063166e21f1146102d6578063182dcc99146102e95780631c925df0146102fc5780631e86221f14610316578063200d2ed21461031e57600080fd5b806302197c551461025f57806302d8ee9c1461027e57806308551a5314610293578063142ebf3c146102c3575b600080fd5b61026761053d565b604051610275929190613fed565b60405180910390f35b6102866105d4565b604051610275919061400e565b6002546102ab906101009004600160a060020a031681565b604051600160a060020a039091168152602001610275565b6016546102ab90600160a060020a031681565b6019546102ab90600160a060020a031681565b6018546102ab90600160a060020a031681565b6002546103099060ff1681565b6040516102759190614052565b610286610662565b60155461032b9060ff1681565b6040516102759190614070565b61034b61034636600461418d565b61066f565b005b61035660115481565b604051908152602001610275565b6000546102ab90600160a060020a031681565b601b5461039c9074010000000000000000000000000000000000000000900460ff1681565b6040519015158152602001610275565b61034b610bfc565b610286610ff7565b61034b6103ca366004614248565b611004565b61034b6103dd3660046142a4565b611656565b61035660105481565b6103f36118f4565b604051610275939291906142d9565b610286611992565b601b546102ab90600160a060020a031681565b6003546102ab90600160a060020a031681565b61034b61199f565b610286611ced565b61045361044e3660046142fe565b611cfa565b6040516102759493929190614317565b610356600e5481565b6015546102ab906101009004600160a060020a031681565b61034b610492366004614364565b611edb565b61034b612593565b61035660015481565b6017546102ab90600160a060020a031681565b610356600f5481565b610286612819565b6104df6104da3660046142fe565b612826565b604080519485526020850193909352918301526060820152608001610275565b61034b612a9c565b61034b610515366004614390565b612d9b565b600c54610356565b61034b610530366004614364565b613026565b610267613449565b60068054600780549192916105519061458f565b80601f016020809104026020016040519081016040528092919081815260200182805461057d9061458f565b80156105ca5780601f1061059f576101008083540402835291602001916105ca565b820191906000526020600020905b8154815290600101906020018083116105ad57829003601f168201915b5050505050905082565b600580546105e19061458f565b80601f016020809104026020016040519081016040528092919081815260200182805461060d9061458f565b801561065a5780601f1061062f5761010080835404028352916020019161065a565b820191906000526020600020905b81548152906001019060200180831161063d57829003601f168201915b505050505081565b600480546105e19061458f565b600060155460ff16600981111561068857610688614021565b146106dd5760405160e560020a62461bcd02815260206004820152600360248201527f216673000000000000000000000000000000000000000000000000000000000060448201526064015b60405180910390fd5b601754604080517f1f02d6fe0000000000000000000000000000000000000000000000000000000081529051600092600160a060020a031691631f02d6fe9160048083019260209291908290030181865afa158015610740573d6000803e3d6000fd5b505050506040513d601f19601f8201168201806040525081019061076491906145d0565b600160a060020a0316330361077a57508061077d565b50335b600254600160a060020a036101009091048116908216036107e35760405160e560020a62461bcd02815260206004820152600760248201527f2173656c6c65720000000000000000000000000000000000000000000000000060448201526064016106d4565b60006107ee84612826565b50506000546040517f23b872dd00000000000000000000000000000000000000000000000000000000815233600482015230602482015260448101849052929350600160a060020a0316916323b872dd91506064016020604051808303816000875af1158015610862573d6000803e3d6000fd5b505050506040513d601f19601f8201168201806040525081019061088691906145ed565b6108d55760405160e560020a62461bcd02815260206004820152600f60248201527f7472616e73666572206661696c6564000000000000000000000000000000000060448201526064016106d4565b60018490556015805460ff191660029081179091554260115560165490546040517f7f1b5565000000000000000000000000000000000000000000000000000000008152306004820152600160a060020a0361010090920482166024820152911690637f1b556590604401600060405180830381600087803b15801561095a57600080fd5b505af115801561096e573d6000803e3d6000fd5b50506003805473ffffffffffffffffffffffffffffffffffffffff1916600160a060020a03861617905550508451600890815560208601518691906009906109b69082614650565b50506000546040517f70a08231000000000000000000000000000000000000000000000000000000008152306004820152600160a060020a0390911691506370a0823190602401602060405180830381865afa158015610a1a573d6000803e3d6000fd5b505050506040513d601f19601f82011682018060405250810190610a3e9190614716565b600e55600f54600090610a509061345d565b604051602001610a60919061472f565b60408051601f198184030181529082905260165460025460155460e060020a63fe4162d1028552929450600160a060020a039182169363fe4162d193610ab79330936101009004169160ff9091169060040161474b565b600060405180830381600087803b158015610ad157600080fd5b505af1158015610ae5573d6000803e3d6000fd5b50506016546003546015546040517f116fd649000000000000000000000000000000000000000000000000000000008152600160a060020a03938416955063116fd6499450610b4493309360009391169160ff90911690600401614770565b600060405180830381600087803b158015610b5e57600080fd5b505af1158015610b72573d6000803e3d6000fd5b505060175460155460025460035460405160e360020a630b9b56f3028152600160a060020a039485169650635cdab7989550610bc29460ff909416938893610100900481169216906004016147b6565b600060405180830381600087803b158015610bdc57600080fd5b505af1158015610bf0573d6000803e3d6000fd5b50505050505050505050565b600354600160a060020a0316338114610c485760405160e560020a62461bcd0281526020600482015260066024820152600080516020614d2f83398151915260448201526064016106d4565b600260155460ff166009811115610c6157610c61614021565b1480610c835750600460155460ff166009811115610c8157610c81614021565b145b610cd25760405160e560020a62461bcd02815260206004820152601060248201527f74726473747321636f6d6d7c6163742e0000000000000000000000000000000060448201526064016106d4565b6015805460ff191660061790556016546002546040517f43e239ba000000000000000000000000000000000000000000000000000000008152306004820152600160a060020a03610100909204821660248201529116906343e239ba90604401600060405180830381600087803b158015610d4c57600080fd5b505af1158015610d60573d6000803e3d6000fd5b50506017546002546040517f6311c2f200000000000000000000000000000000000000000000000000000000815260009450600160a060020a039283169350636311c2f292610dbe92600592610100909104909116906004016147f7565b6020604051808303816000875af1158015610ddd573d6000803e3d6000fd5b505050506040513d601f19601f82011682018060405250810190610e0191906145ed565b905080610e535760405160e560020a62461bcd02815260206004820152601560248201527f6469646e27742072656d6f76652074726164654964000000000000000000000060448201526064016106d4565b610e5b6134fd565b60165460025460155460405160e060020a63fe4162d1028152600160a060020a039384169363fe4162d193610ea29330936101009092049092169160ff169060040161474b565b600060405180830381600087803b158015610ebc57600080fd5b505af1158015610ed0573d6000803e3d6000fd5b505060165460035460155460405160e060020a63fe4162d1028152600160a060020a03938416955063fe4162d19450610f13933093169160ff169060040161474b565b600060405180830381600087803b158015610f2d57600080fd5b505af1158015610f41573d6000803e3d6000fd5b505050506000610f52600f5461345d565b604051602001610f629190614891565b60408051601f198184030181529082905260175460155460025460035460e360020a630b9b56f3028652939550600160a060020a0392831694635cdab79894610fc09460ff90941693889361010090048116929116906004016147b6565b600060405180830381600087803b158015610fda57600080fd5b505af1158015610fee573d6000803e3d6000fd5b50505050505050565b601a80546105e19061458f565b6015546040517f943ad880000000000000000000000000000000000000000000000000000000008152336004820152610100909104600160a060020a03169063943ad88090602401602060405180830381865afa158015611069573d6000803e3d6000fd5b505050506040513d601f19601f8201168201806040525081019061108d91906145ed565b8061111f57506015546040517ffd6aad25000000000000000000000000000000000000000000000000000000008152336004820152610100909104600160a060020a03169063fd6aad2590602401602060405180830381865afa1580156110f8573d6000803e3d6000fd5b505050506040513d601f19601f8201168201806040525081019061111c9190614716565b15155b61116e5760405160e560020a62461bcd02815260206004820152600d60248201527f216b657072206f72206f72636c0000000000000000000000000000000000000060448201526064016106d4565b600760155460ff16600981111561118757611187614021565b146111d75760405160e560020a62461bcd02815260206004820152600560248201527f216469737000000000000000000000000000000000000000000000000000000060448201526064016106d4565b6017546002546040517f6311c2f2000000000000000000000000000000000000000000000000000000008152600092600160a060020a0390811692636311c2f29261122e92600592610100900416906004016147f7565b6020604051808303816000875af115801561124d573d6000803e3d6000fd5b505050506040513d601f19601f8201168201806040525081019061127191906145ed565b9050806112c35760405160e560020a62461bcd02815260206004820152600860248201527f217472616465496400000000000000000000000000000000000000000000000060448201526064016106d4565b84156113c457600960155460ff1660098111156112e2576112e2614021565b505081156113bf57600054600354600e54604051600080516020614cef8339815191528152600160a060020a039283166004820152602481019190915291169063a9059cbb906044016020604051808303816000875af115801561134a573d6000803e3d6000fd5b505050506040513d601f19601f8201168201806040525081019061136e91906145ed565b6113bf5760405160e560020a62461bcd0281526004016106d49060208082526004908201527f21736e7400000000000000000000000000000000000000000000000000000000604082015260600190565b6113df565b6015805460ff1916600817905581156113df576113df6134fd565b8315611465576016546002546040517f53941d4e000000000000000000000000000000000000000000000000000000008152600160a060020a03610100909204821660048201529116906353941d4e90602401600060405180830381600087803b15801561144c57600080fd5b505af1158015611460573d6000803e3d6000fd5b505050505b82156114e6576016546003546040517f53941d4e000000000000000000000000000000000000000000000000000000008152600160a060020a0391821660048201529116906353941d4e90602401600060405180830381600087803b1580156114cd57600080fd5b505af11580156114e1573d6000803e3d6000fd5b505050505b60165460025460155460405160e060020a63fe4162d1028152600160a060020a039384169363fe4162d19361152d9330936101009092049092169160ff169060040161474b565b600060405180830381600087803b15801561154757600080fd5b505af115801561155b573d6000803e3d6000fd5b505060165460035460155460405160e060020a63fe4162d1028152600160a060020a03938416955063fe4162d1945061159e933093169160ff169060040161474b565b600060405180830381600087803b1580156115b857600080fd5b505af11580156115cc573d6000803e3d6000fd5b505060175460155460025460035460405160e360020a630b9b56f3028152600160a060020a039485169650635cdab798955061161d9460ff90941693610100909304831692909116906004016148f8565b600060405180830381600087803b15801561163757600080fd5b505af115801561164b573d6000803e3d6000fd5b505050505050505050565b600254600354600160a060020a036101009092048216911633821480611684575033600160a060020a038216145b6116d35760405160e560020a62461bcd02815260206004820152600660248201527f2167726f7570000000000000000000000000000000000000000000000000000060448201526064016106d4565b600760155460ff1660098111156116ec576116ec614021565b141580156117115750600860155460ff16600981111561170e5761170e614021565b14155b80156117345750600960155460ff16600981111561173157611731614021565b14155b6117835760405160e560020a62461bcd02815260206004820152600a60248201527f616c72656164794469730000000000000000000000000000000000000000000060448201526064016106d4565b6015805460ff19166007179055601b80543373ffffffffffffffffffffffffffffffffffffffff19909116179055601a6117bd8482614650565b5060165460025460155460405160e060020a63fe4162d1028152600160a060020a039384169363fe4162d1936118059330936101009092049092169160ff169060040161474b565b600060405180830381600087803b15801561181f57600080fd5b505af1158015611833573d6000803e3d6000fd5b505060165460035460155460405160e060020a63fe4162d1028152600160a060020a03938416955063fe4162d19450611876933093169160ff169060040161474b565b600060405180830381600087803b15801561189057600080fd5b505af11580156118a4573d6000803e3d6000fd5b505060175460155460025460035460405160e360020a630b9b56f3028152600160a060020a039485169650635cdab7989550610fc09460ff909416938a93610100900481169216906004016147b6565b6012805481906119039061458f565b80601f016020809104026020016040519081016040528092919081815260200182805461192f9061458f565b801561197c5780601f106119515761010080835404028352916020019161197c565b820191906000526020600020905b81548152906001019060200180831161195f57829003601f168201915b5050505050908060010154908060020154905083565b600a80546105e19061458f565b6002546101009004600160a060020a03163381146119f05760405160e560020a62461bcd0281526020600482015260066024820152600080516020614d2f83398151915260448201526064016106d4565b600460155460ff166009811115611a0957611a09614021565b14611a595760405160e560020a62461bcd02815260206004820152600b60248201527f74726473747321636f6d6d00000000000000000000000000000000000000000060448201526064016106d4565b601054611a69906203f48061494d565b421015611abb5760405160e560020a62461bcd02815260206004820152601160248201527f332064617973206e6f742070617373656400000000000000000000000000000060448201526064016106d4565b6015805460ff191660061790556016546002546040517f43e239ba000000000000000000000000000000000000000000000000000000008152306004820152600160a060020a03610100909204821660248201529116906343e239ba90604401600060405180830381600087803b158015611b3557600080fd5b505af1158015611b49573d6000803e3d6000fd5b505060165460025460155460405160e060020a63fe4162d1028152600160a060020a03938416955063fe4162d19450611b919330936101009004169160ff169060040161474b565b600060405180830381600087803b158015611bab57600080fd5b505af1158015611bbf573d6000803e3d6000fd5b505060165460035460155460405160e060020a63fe4162d1028152600160a060020a03938416955063fe4162d19450611c02933093169160ff169060040161474b565b600060405180830381600087803b158015611c1c57600080fd5b505af1158015611c30573d6000803e3d6000fd5b50505050611c3c6134fd565b6000611c49600f5461345d565b604051602001611c59919061472f565b60408051601f198184030181529082905260175460155460025460035460e360020a630b9b56f3028652939550600160a060020a0392831694635cdab79894611cb79460ff90941693889361010090048116929116906004016147b6565b600060405180830381600087803b158015611cd157600080fd5b505af1158015611ce5573d6000803e3d6000fd5b505050505050565b600d80546105e19061458f565b600c8181548110611d0a57600080fd5b9060005260206000209060040201600091509050806000018054611d2d9061458f565b80601f0160208091040260200160405190810160405280929190818152602001828054611d599061458f565b8015611da65780601f10611d7b57610100808354040283529160200191611da6565b820191906000526020600020905b815481529060010190602001808311611d8957829003601f168201915b505050505090806001018054611dbb9061458f565b80601f0160208091040260200160405190810160405280929190818152602001828054611de79061458f565b8015611e345780601f10611e0957610100808354040283529160200191611e34565b820191906000526020600020905b815481529060010190602001808311611e1757829003601f168201915b5050506002840154600385018054949560ff909216949193509150611e589061458f565b80601f0160208091040260200160405190810160405280929190818152602001828054611e849061458f565b8015611ed15780601f10611ea657610100808354040283529160200191611ed1565b820191906000526020600020905b815481529060010190602001808311611eb457829003601f168201915b5050505050905084565b6015546040517f943ad880000000000000000000000000000000000000000000000000000000008152336004820152610100909104600160a060020a03169063943ad88090602401602060405180830381865afa158015611f40573d6000803e3d6000fd5b505050506040513d601f19601f82011682018060405250810190611f6491906145ed565b611f6d57600080fd5b600260155460ff166009811115611f8657611f86614021565b1480611fa85750600460155460ff166009811115611fa657611fa6614021565b145b611ff75760405160e560020a62461bcd02815260206004820152600c60248201527f747264737473213e636f6d6d000000000000000000000000000000000000000060448201526064016106d4565b8015612231576015805460ff191660061790556016546002546040517f43e239ba000000000000000000000000000000000000000000000000000000008152306004820152600160a060020a03610100909204821660248201529116906343e239ba90604401600060405180830381600087803b15801561207757600080fd5b505af115801561208b573d6000803e3d6000fd5b505060165460025460155460405160e060020a63fe4162d1028152600160a060020a03938416955063fe4162d194506120d39330936101009004169160ff169060040161474b565b600060405180830381600087803b1580156120ed57600080fd5b505af1158015612101573d6000803e3d6000fd5b505060165460035460155460405160e060020a63fe4162d1028152600160a060020a03938416955063fe4162d19450612144933093169160ff169060040161474b565b600060405180830381600087803b15801561215e57600080fd5b505af1158015612172573d6000803e3d6000fd5b5050505061217e6134fd565b600061218b600f5461345d565b60405160200161219b919061472f565b60408051601f198184030181529082905260175460155460025460035460e360020a630b9b56f3028652939550600160a060020a0392831694635cdab798946121f99460ff90941693889361010090048116929116906004016147b6565b600060405180830381600087803b15801561221357600080fd5b505af1158015612227573d6000803e3d6000fd5b50505050506124a3565b60158054600960ff198216811790925560165460025460405160e060020a63fe4162d102815260ff90931693600160a060020a039283169363fe4162d1936122879330936101009091049091169160040161474b565b600060405180830381600087803b1580156122a157600080fd5b505af11580156122b5573d6000803e3d6000fd5b50600292506122c2915050565b8160098111156122d4576122d4614021565b1061234e5760165460035460155460405160e060020a63fe4162d1028152600160a060020a039384169363fe4162d19361231b933093919092169160ff169060040161474b565b600060405180830381600087803b15801561233557600080fd5b505af1158015612349573d6000803e3d6000fd5b505050505b600054600354600e54604051600080516020614cef8339815191528152600160a060020a039283166004820152602481019190915291169063a9059cbb906044016020604051808303816000875af11580156123ae573d6000803e3d6000fd5b505050506040513d601f19601f820116820180604052508101906123d291906145ed565b6124235760405160e560020a62461bcd0281526004016106d49060208082526004908201527f21736e7400000000000000000000000000000000000000000000000000000000604082015260600190565b60175460155460025460035460405160e360020a630b9b56f3028152600160a060020a0394851694635cdab7989461246f9460ff90911693610100909104821692911690600401614960565b600060405180830381600087803b15801561248957600080fd5b505af115801561249d573d6000803e3d6000fd5b50505050505b6017546002546040517f6311c2f2000000000000000000000000000000000000000000000000000000008152600092600160a060020a0390811692636311c2f2926124fa92600592610100900416906004016147f7565b6020604051808303816000875af1158015612519573d6000803e3d6000fd5b505050506040513d601f19601f8201168201806040525081019061253d91906145ed565b90508061258f5760405160e560020a62461bcd02815260206004820152600860248201527f217472616465496400000000000000000000000000000000000000000000000060448201526064016106d4565b5050565b6002546101009004600160a060020a03163381146125e45760405160e560020a62461bcd0281526020600482015260066024820152600080516020614d2f83398151915260448201526064016106d4565b600060155460ff1660098111156125fd576125fd614021565b1461264d5760405160e560020a62461bcd02815260206004820152600760248201527f7374202170656e0000000000000000000000000000000000000000000000000060448201526064016106d4565b6015805460ff1916600190811790915560165460025460405160e060020a63fe4162d1028152600160a060020a039283169363fe4162d19361269e933093610100909104909116919060040161474b565b600060405180830381600087803b1580156126b857600080fd5b505af11580156126cc573d6000803e3d6000fd5b5050505060006126dd600f5461345d565b6040516020016126ed919061472f565b60408051601f198184030181529082905260175460155460025460035460e360020a630b9b56f3028652939550600160a060020a0392831694635cdab7989461274b9460ff90941693889361010090048116929116906004016147b6565b600060405180830381600087803b15801561276557600080fd5b505af1158015612779573d6000803e3d6000fd5b50506017546002546040517f6311c2f2000000000000000000000000000000000000000000000000000000008152600160a060020a039283169450636311c2f293506127d192600592610100900416906004016147f7565b6020604051808303816000875af11580156127f0573d6000803e3d6000fd5b505050506040513d601f19601f8201168201806040525081019061281491906145ed565b505050565b600b80546105e19061458f565b6018546040517fed0fc5a90000000000000000000000000000000000000000000000000000000081526004810183905260009182918291829182918291600160a060020a039091169063ed0fc5a990602401602060405180830381865afa158015612895573d6000803e3d6000fd5b505050506040513d601f19601f820116820180604052508101906128b991906145d0565b600160a060020a03161415905060008115612967576018546040517ff3c7c93100000000000000000000000000000000000000000000000000000000815260048101899052600091600160a060020a03169063f3c7c931906024016040805180830381865afa158015612930573d6000803e3d6000fd5b505050506040513d601f19601f8201168201806040525081019061295491906149be565b915061296390506002826149e2565b9150505b601854600f54601754604080517f6ef25c3a0000000000000000000000000000000000000000000000000000000081529051600160a060020a03948516946342ba2f2494938893911691636ef25c3a916004808201926020929091908290030181865afa1580156129dc573d6000803e3d6000fd5b505050506040513d601f19601f82011682018060405250810190612a009190614716565b6040517c010000000000000000000000000000000000000000000000000000000063ffffffff861602815260048101939093529015156024830152604482015260648101849052608401608060405180830381865afa158015612a67573d6000803e3d6000fd5b505050506040513d601f19601f82011682018060405250810190612a8b9190614a0b565b929a91995097509095509350505050565b600354600160a060020a0316338114612ae85760405160e560020a62461bcd0281526020600482015260066024820152600080516020614d2f83398151915260448201526064016106d4565b600260155460ff166009811115612b0157612b01614021565b14612b515760405160e560020a62461bcd02815260206004820152600b60248201527f74726473747321636f6d6d00000000000000000000000000000000000000000060448201526064016106d4565b6015805460ff1916600390811790915560165460025460405160e060020a63fe4162d1028152600160a060020a039283169363fe4162d193612ba2933093610100909104909116919060040161474b565b600060405180830381600087803b158015612bbc57600080fd5b505af1158015612bd0573d6000803e3d6000fd5b505060165460035460155460405160e060020a63fe4162d1028152600160a060020a03938416955063fe4162d19450612c13933093169160ff169060040161474b565b600060405180830381600087803b158015612c2d57600080fd5b505af1158015612c41573d6000803e3d6000fd5b5050600054600354600e54604051600080516020614cef8339815191528152600160a060020a03928316600482015260248101919091529116925063a9059cbb91506044016020604051808303816000875af1158015612ca5573d6000803e3d6000fd5b505050506040513d601f19601f82011682018060405250810190612cc991906145ed565b612d1a5760405160e560020a62461bcd0281526004016106d49060208082526004908201527f21736e7400000000000000000000000000000000000000000000000000000000604082015260600190565b60175460155460025460035460405160e360020a630b9b56f3028152600160a060020a0394851694635cdab79894612d669460ff90911693610100909104821692911690600401614a41565b600060405180830381600087803b158015612d8057600080fd5b505af1158015612d94573d6000803e3d6000fd5b5050505050565b601754600160a060020a031633148015612dd05750601b5474010000000000000000000000000000000000000000900460ff16155b612e1f5760405160e560020a62461bcd02815260206004820152600860248201527f21666163746f727900000000000000000000000000000000000000000000000060448201526064016106d4565b601b805474ff000000000000000000000000000000000000000019167401000000000000000000000000000000000000000017905560005b8651811015612f0057600c878281518110612e7457612e74614a9f565b60209081029190910181015182546001810184556000938452919092208251600490920201908190612ea69082614650565b5060208201516001820190612ebb9082614650565b50604082015160028201805460ff191660ff90921691909117905560608201516003820190612eea9082614650565b5050508080612ef890614abc565b915050612e57565b506016546002546040517f116fd649000000000000000000000000000000000000000000000000000000008152600160a060020a039283169263116fd64992612f5a92309260019261010090041690600090600401614770565b600060405180830381600087803b158015612f7457600080fd5b505af1158015612f88573d6000803e3d6000fd5b5050505084600d9081612f9b9190614650565b506000805473ffffffffffffffffffffffffffffffffffffffff1916600160a060020a0386161790556002805484919060ff191660018383811115612fe257612fe2614021565b021790555060188054600160a060020a0393841673ffffffffffffffffffffffffffffffffffffffff19918216179091556019805492909316911617905550505050565b6002546101009004600160a060020a03163381146130775760405160e560020a62461bcd0281526020600482015260066024820152600080516020614d2f83398151915260448201526064016106d4565b600260155460ff16600981111561309057613090614021565b146130e05760405160e560020a62461bcd02815260206004820152600b60248201527f74726473747321636f6d6d00000000000000000000000000000000000000000060448201526064016106d4565b8115613234576015805460ff191660049081179091554260105560165460025460405160e060020a63fe4162d1028152600160a060020a039283169363fe4162d19361313a9330936101009091049091169190810161474b565b600060405180830381600087803b15801561315457600080fd5b505af1158015613168573d6000803e3d6000fd5b505060165460035460155460405160e060020a63fe4162d1028152600160a060020a03938416955063fe4162d194506131ab933093169160ff169060040161474b565b600060405180830381600087803b1580156131c557600080fd5b505af11580156131d9573d6000803e3d6000fd5b5050505060006131ed60066000015461345d565b6008546007906131fc9061345d565b60035460099061321490600160a060020a0316613c4e565b61321f600f5461345d565b604051602001610f6296959493929190614b48565b6015805460ff1916600590811790915560165460025460405160e060020a63fe4162d1028152600160a060020a039283169363fe4162d193613285933093610100909104909116919060040161474b565b600060405180830381600087803b15801561329f57600080fd5b505af11580156132b3573d6000803e3d6000fd5b505060165460035460155460405160e060020a63fe4162d1028152600160a060020a03938416955063fe4162d194506132f6933093169160ff169060040161474b565b600060405180830381600087803b15801561331057600080fd5b505af1158015613324573d6000803e3d6000fd5b5050600054600354600e54604051600080516020614cef8339815191528152600160a060020a03928316600482015260248101919091529116925063a9059cbb91506044016020604051808303816000875af1158015613388573d6000803e3d6000fd5b505050506040513d601f19601f820116820180604052508101906133ac91906145ed565b6133fd5760405160e560020a62461bcd0281526004016106d49060208082526004908201527f21736e7400000000000000000000000000000000000000000000000000000000604082015260600190565b60175460155460025460035460405160e360020a630b9b56f3028152600160a060020a0394851694635cdab79894611cb79460ff90911693610100909104821692911690600401614c26565b60088054600980549192916105519061458f565b6060600061346a83613c6a565b600101905060008167ffffffffffffffff81111561348a5761348a61407e565b6040519080825280601f01601f1916602001820160405280156134b4576020820181803683370190505b5090508181016020015b600019017f3031323334353637383961626364656600000000000000000000000000000000600a86061a8153600a85049450846134be57509392505050565b6018546003546040517f92c40344000000000000000000000000000000000000000000000000000000008152600160a060020a03918216600482015260009291909116906392c4034490602401602060405180830381865afa158015613567573d6000803e3d6000fd5b505050506040513d601f19601f8201168201806040525081019061358b9190614716565b905080156135a75760015481146135a25760018190555b613783565b60015415613783576018546001546040517faa05c9e7000000000000000000000000000000000000000000000000000000008152600160a060020a039092169163aa05c9e7916135fd9160040190815260200190565b602060405180830381865afa15801561361a573d6000803e3d6000fd5b505050506040513d601f19601f8201168201806040525081019061363e91906145ed565b61364c576000600155613783565b6018546001546040517fed0fc5a90000000000000000000000000000000000000000000000000000000081526004810191909152600091600160a060020a03169063ed0fc5a990602401602060405180830381865afa1580156136b3573d6000803e3d6000fd5b505050506040513d601f19601f820116820180604052508101906136d791906145d0565b600354909150600160a060020a03908116908216036136fa576000600155613781565b6018546001546003546040517ffd4788ac0000000000000000000000000000000000000000000000000000000081526004810192909252600160a060020a0390811660248301529091169063fd4788ac90604401600060405180830381600087803b15801561376857600080fd5b505af115801561377c573d6000803e3d6000fd5b505050505b505b600080600080613794600154612826565b600054600254604051600080516020614cef8339815191528152600160a060020a0361010090920482166004820152602481018690529599509397509195509350169063a9059cbb906044016020604051808303816000875af11580156137ff573d6000803e3d6000fd5b505050506040513d601f19601f8201168201806040525081019061382391906145ed565b6138725760405160e560020a62461bcd02815260206004820152600560248201527f2173736e7400000000000000000000000000000000000000000000000000000060448201526064016106d4565b8115613a77576000546018546001546040517fed0fc5a90000000000000000000000000000000000000000000000000000000081526004810191909152600160a060020a039283169263a9059cbb92169063ed0fc5a990602401602060405180830381865afa1580156138e9573d6000803e3d6000fd5b505050506040513d601f19601f8201168201806040525081019061390d91906145d0565b6040517c010000000000000000000000000000000000000000000000000000000063ffffffff8416028152600160a060020a039091166004820152602481018590526044016020604051808303816000875af1158015613971573d6000803e3d6000fd5b505050506040513d601f19601f8201168201806040525081019061399591906145ed565b6139e45760405160e560020a62461bcd02815260206004820152600560248201527f2172736e7400000000000000000000000000000000000000000000000000000060448201526064016106d4565b6018546000546001546040517fa033142f000000000000000000000000000000000000000000000000000000008152306004820152600160a060020a03928316602482015260448101919091526064810185905291169063a033142f90608401600060405180830381600087803b158015613a5e57600080fd5b505af1158015613a72573d6000803e3d6000fd5b505050505b6000546019546040517f095ea7b3000000000000000000000000000000000000000000000000000000008152600160a060020a0391821660048201526024810184905291169063095ea7b3906044016020604051808303816000875af1158015613ae5573d6000803e3d6000fd5b505050506040513d601f19601f82011682018060405250810190613b0991906145ed565b506019546000546040517f5f78d6bd000000000000000000000000000000000000000000000000000000008152600160a060020a03918216600482015260248101849052911690635f78d6bd906044016020604051808303816000875af1158015613b78573d6000803e3d6000fd5b505050506040513d601f19601f82011682018060405250810190613b9c91906145ed565b613beb5760405160e560020a62461bcd02815260206004820152600560248201527f2174736e7400000000000000000000000000000000000000000000000000000060448201526064016106d4565b6016546002546003546001546040517f2455eb83000000000000000000000000000000000000000000000000000000008152600160a060020a0394851694632455eb839461161d94610100820483169492169260ff909116908b90600401614c84565b6060613c64600160a060020a0383166014613d4c565b92915050565b6000807a184f03e93ff9f4daa797ed6e38ed64bf6a1f0100000000000000008310613cb3577a184f03e93ff9f4daa797ed6e38ed64bf6a1f010000000000000000830492506040015b6d04ee2d6d415b85acef81000000008310613cdf576d04ee2d6d415b85acef8100000000830492506020015b662386f26fc100008310613cfd57662386f26fc10000830492506010015b6305f5e1008310613d15576305f5e100830492506008015b6127108310613d2957612710830492506004015b60648310613d3b576064830492506002015b600a8310613c645760010192915050565b60606000613d5b836002614cc0565b613d6690600261494d565b67ffffffffffffffff811115613d7e57613d7e61407e565b6040519080825280601f01601f191660200182016040528015613da8576020820181803683370190505b5090507f300000000000000000000000000000000000000000000000000000000000000081600081518110613ddf57613ddf614a9f565b60200101907effffffffffffffffffffffffffffffffffffffffffffffffffffffffffffff1916908160001a9053507f780000000000000000000000000000000000000000000000000000000000000081600181518110613e4257613e42614a9f565b60200101907effffffffffffffffffffffffffffffffffffffffffffffffffffffffffffff1916908160001a9053506000613e7e846002614cc0565b613e8990600161494d565b90505b6001811115613f44577f303132333435363738396162636465660000000000000000000000000000000085600f1660108110613eca57613eca614a9f565b1a7f010000000000000000000000000000000000000000000000000000000000000002828281518110613eff57613eff614a9f565b60200101907effffffffffffffffffffffffffffffffffffffffffffffffffffffffffffff1916908160001a905350601090940493613f3d81614cd7565b9050613e8c565b508315613f965760405160e560020a62461bcd02815260206004820181905260248201527f537472696e67733a20686578206c656e67746820696e73756666696369656e7460448201526064016106d4565b9392505050565b60005b83811015613fb8578181015183820152602001613fa0565b50506000910152565b60008151808452613fd9816020860160208601613f9d565b601f01601f19169290920160200192915050565b8281526040602082015260006140066040830184613fc1565b949350505050565b602081526000613f966020830184613fc1565b600080516020614d0f833981519152600052602160045260246000fd5b6003811061404e5761404e614021565b9052565b60208101613c64828461403e565b600a811061404e5761404e614021565b60208101613c648284614060565b600080516020614d0f833981519152600052604160045260246000fd5b6040516080810167ffffffffffffffff811182821017156140be576140be61407e565b60405290565b604051601f8201601f1916810167ffffffffffffffff811182821017156140ed576140ed61407e565b604052919050565b600082601f83011261410657600080fd5b813567ffffffffffffffff8111156141205761412061407e565b614133601f8201601f19166020016140c4565b81815284602083860101111561414857600080fd5b816020850160208301376000918101602001919091529392505050565b600160a060020a038116811461417a57600080fd5b50565b803561418881614165565b919050565b6000806000606084860312156141a257600080fd5b833567ffffffffffffffff808211156141ba57600080fd5b90850190604082880312156141ce57600080fd5b6040516040810181811083821117156141e9576141e961407e565b6040528235815260208301358281111561420257600080fd5b61420e898286016140f5565b60208301525080955050505060208401359150604084013561422f81614165565b809150509250925092565b801515811461417a57600080fd5b6000806000806080858703121561425e57600080fd5b84356142698161423a565b935060208501356142798161423a565b925060408501356142898161423a565b915060608501356142998161423a565b939692955090935050565b6000602082840312156142b657600080fd5b813567ffffffffffffffff8111156142cd57600080fd5b614006848285016140f5565b6060815260006142ec6060830186613fc1565b60208301949094525060400152919050565b60006020828403121561431057600080fd5b5035919050565b60808152600061432a6080830187613fc1565b828103602084015261433c8187613fc1565b905060ff8516604084015282810360608401526143598185613fc1565b979650505050505050565b60006020828403121561437657600080fd5b8135613f968161423a565b80356003811061418857600080fd5b60008060008060008060c087890312156143a957600080fd5b67ffffffffffffffff873511156143bf57600080fd5b8635870188601f8201126143d257600080fd5b67ffffffffffffffff813511156143eb576143eb61407e565b6143fa602080833502016140c4565b81358082526020808301929181028401018b101561441757600080fd5b602083015b60208085350285010181101561451d5767ffffffffffffffff8135111561444257600080fd5b803584016080818e03601f1901121561445a57600080fd5b61446261409b565b67ffffffffffffffff6020830135111561447b57600080fd5b61448d8e6020808501358501016140f5565b815267ffffffffffffffff604083013511156144a857600080fd5b6144bb8e602060408501358501016140f5565b6020820152606082013560ff8116146144d357600080fd5b6060820135604082015267ffffffffffffffff608083013511156144f657600080fd5b6145098e602060808501358501016140f5565b60608201528452506020928301920161441c565b509750505067ffffffffffffffff6020880135111561453b57600080fd5b61454b88602089013589016140f5565b94506145596040880161417d565b935061456760608801614381565b92506145756080880161417d565b915061458360a0880161417d565b90509295509295509295565b6002810460018216806145a357607f821691505b6020821081036145ca57600080516020614d0f833981519152600052602260045260246000fd5b50919050565b6000602082840312156145e257600080fd5b8151613f9681614165565b6000602082840312156145ff57600080fd5b8151613f968161423a565b601f821115612814576000818152602081206020601f860104810160208610156146315750805b6020601f860104820191505b81811015611ce55782815560010161463d565b815167ffffffffffffffff81111561466a5761466a61407e565b61467e81614678845461458f565b8461460a565b602080601f8311600181146146b7576000841561469b5750858301515b60028086026008870290910a6000190419821617865550611ce5565b600085815260208120601f198616915b828110156146e6578886015182559484019460019091019084016146c7565b508582101561470657878501516008601f88160260020a60001904191681555b5050505050600202600101905550565b60006020828403121561472857600080fd5b5051919050565b60008251614741818460208701613f9d565b9190910192915050565b600160a060020a03848116825283166020820152606081016140066040830184614060565b600160a060020a03858116825260808201906002861061479257614792614021565b60208301869052841660408301526147ad6060830184614060565b95945050505050565b6147c08186614060565b6080602082015260006147d66080830186613fc1565b600160a060020a039485166040840152929093166060909101529392505050565b6040815260008084546148098161458f565b806040860152606060018084166000811461482b576001811461484557614876565b60ff19851688840152602084151502880183019550614876565b8960005260208060002060005b8681101561486d5781548b8201870152908401908201614852565b8a018501975050505b50505050600160a060020a0385166020850152509050613f96565b600082516148a3818460208701613f9d565b7f7c7c0000000000000000000000000000000000000000000000000000000000009201918252507f4d414e55414c00000000000000000000000000000000000000000000000000006002820152600801919050565b6149028185614060565b608060208201819052600090820152600160a060020a0392831660408201529116606082015260a001919050565b600080516020614d0f833981519152600052601160045260246000fd5b80820180821115613c6457613c64614930565b61496a8185614060565b608060208201819052600a908201527f4b4f5f44454641554c540000000000000000000000000000000000000000000060a0820152600160a060020a0392831660408201529116606082015260c001919050565b600080604083850312156149d157600080fd5b505080516020909101519092909150565b600082614a0657600080516020614d0f833981519152600052601260045260246000fd5b500490565b60008060008060808587031215614a2157600080fd5b505082516020840151604085015160609095015191969095509092509050565b614a4b8185614060565b608060208201819052600a908201527f42555f44454641554c540000000000000000000000000000000000000000000060a0820152600160a060020a0392831660408201529116606082015260c001919050565b600080516020614d0f833981519152600052603260045260246000fd5b600060018201614ace57614ace614930565b5060010190565b60008154614ae28161458f565b60018281168015614afa5760018114614b0f57614b3e565b60ff1984168752821515830287019450614b3e565b8560005260208060002060005b85811015614b355781548a820152908401908201614b1c565b50505082870194505b5050505092915050565b60008751614b5a818460208c01613f9d565b7f2b0000000000000000000000000000000000000000000000000000000000000090830181815290614b8f600183018a614ad5565b91507f7c7c0000000000000000000000000000000000000000000000000000000000008083528851614bc8816002860160208d01613f9d565b60029301928301829052614bdf6003840189614ad5565b925080835286519150614bf9826002850160208a01613f9d565b600292909101918201528351614c16816004840160208801613f9d565b0160040198975050505050505050565b614c308185614060565b608060208201819052600a908201527f53455f44454641554c540000000000000000000000000000000000000000000060a0820152600160a060020a0392831660408201529116606082015260c001919050565b600160a060020a038681168252851660208201526040810184905260a08101614cb0606083018561403e565b8260808301529695505050505050565b8082028115828204841417613c6457613c64614930565b600081614ce657614ce6614930565b50600019019056fea9059cbb000000000000000000000000000000000000000000000000000000004e487b71000000000000000000000000000000000000000000000000000000002170617274790000000000000000000000000000000000000000000000000000a26469706673582212207a4b27e0cd87406bebce30c86129aef35aeaf2efbaa2856e676a852d45fdd4ad64736f6c63430008130033",
  "immutableReferences": {},
  "source": "// //SPDX-License-Identifier: MIT\r\npragma solidity 0.8.19;\r\n\r\nimport {IERC20} from \"@openzeppelin/contracts/interfaces/IERC20.sol\";\r\n\r\nimport {IKeepers} from \"../Keepers/IKeepers.sol\";\r\nimport {IUsers, TradeStatus, Role} from \"../Users/IUsers.sol\";\r\nimport {ITradeFactory, TradeUrl, Sticker, SkinInfo, PriceType} from \"../TradeFactory/ITradeFactory.sol\";\r\nimport {Strings} from \"../utils/Strings.sol\";\r\n\r\nimport {IStakedCSX} from \"../CSX/Interfaces.sol\";\r\n\r\nimport {IReferralRegistry} from \"../Referrals/IReferralRegistry.sol\";\r\n\r\ncontract CSXTrade {\r\n    IERC20 public paymentToken;\r\n    bytes32 public referralCode;\r\n    PriceType public priceType;\r\n\r\n    address public seller;\r\n    address public buyer;\r\n\r\n    string public itemMarketName;\r\n    string public itemSellerAssetId;\r\n\r\n    TradeUrl public sellerTradeUrl;\r\n    TradeUrl public buyerTradeUrl;\r\n\r\n    string public inspectLink;\r\n    string public itemImageUrl;\r\n    Sticker[] public stickers;\r\n\r\n    string public weaponType;\r\n\r\n    uint256 public depositedValue;\r\n    uint256 public weiPrice;\r\n\r\n    uint256 public sellerAcceptedTimestamp;\r\n    uint256 public buyerCommitTimestamp;\r\n\r\n    SkinInfo public skinInfo;\r\n\r\n    TradeStatus public status;\r\n\r\n    IKeepers public keepersContract;\r\n    IUsers public usersContract;\r\n    ITradeFactory public factoryContract;\r\n\r\n    IReferralRegistry public referralRegistryContract;\r\n    IStakedCSX public sCSXToken;\r\n\r\n    string public disputeComplaint;\r\n    address public disputeer;\r\n\r\n    constructor(\r\n        address _factory,\r\n        address _keepers,\r\n        address _users,\r\n        address _seller,\r\n        uint256 _weiPrice,\r\n        string memory _itemMarketName,\r\n        TradeUrl memory _sellerTradeUrl,\r\n        string memory _sellerAssetId,\r\n        string memory _inspectLink,\r\n        string memory _itemImageUrl,\r\n        SkinInfo memory _skinInfo\r\n    ) {\r\n        factoryContract = ITradeFactory(_factory);\r\n        keepersContract = IKeepers(_keepers);\r\n        usersContract = IUsers(_users);\r\n        seller = _seller;\r\n        weiPrice = _weiPrice;\r\n        status = TradeStatus.ForSale;\r\n        itemMarketName = _itemMarketName;\r\n        sellerTradeUrl = _sellerTradeUrl;\r\n        itemSellerAssetId = _sellerAssetId;\r\n        inspectLink = _inspectLink;\r\n        itemImageUrl = _itemImageUrl;\r\n        skinInfo = _skinInfo;\r\n    }\r\n\r\n    bool public hasInit;\r\n\r\n    function initExtraInfo(\r\n        Sticker[] memory _stickers,\r\n        string memory _weaponType,\r\n        address _paymentToken,\r\n        PriceType _priceType,\r\n        address _referralRegistryContract,\r\n        address _sCSXToken\r\n    ) external {\r\n        require(msg.sender == address(factoryContract) && !hasInit, \"!factory\");\r\n        hasInit = true;\r\n        for (uint256 i = 0; i < _stickers.length; i++) {\r\n            stickers.push(_stickers[i]);\r\n        }\r\n        usersContract.addUserInteractionStatus(\r\n            address(this),\r\n            Role.SELLER,\r\n            seller,\r\n            TradeStatus.ForSale\r\n        );\r\n        weaponType = _weaponType;\r\n        paymentToken = IERC20(_paymentToken);\r\n        priceType = _priceType;\r\n        referralRegistryContract = IReferralRegistry(_referralRegistryContract);\r\n        sCSXToken = IStakedCSX(_sCSXToken);\r\n    }\r\n\r\n    function stickerLength() external view returns (uint256) {\r\n        return stickers.length;\r\n    }\r\n\r\n    modifier onlyAddress(address _address) {\r\n        require(msg.sender == _address, \"!party\");\r\n        _;\r\n    }\r\n\r\n    modifier onlyTheseAddresses(address _add1, address _add2) {\r\n        require(msg.sender == _add1 || msg.sender == _add2, \"!group\");\r\n        _;\r\n    }\r\n\r\n    modifier onlyKeeperNode() {\r\n        require(keepersContract.isKeeperNode(msg.sender));\r\n        _;\r\n    }\r\n\r\n    modifier onlyKeepersOrNode() {\r\n        require(\r\n            keepersContract.isKeeperNode(msg.sender) ||\r\n                keepersContract.indexOf(msg.sender) != 0,\r\n            \"!kepr or orcl\"\r\n        );\r\n        _;\r\n    }\r\n\r\n    // Seller can cancel the listing up til any buyer has committed tokens.\r\n    function sellerCancel() external onlyAddress(seller) {\r\n        require(status == TradeStatus.ForSale, \"st !pen\");\r\n        status = TradeStatus.SellerCancelled;\r\n        usersContract.changeUserInteractionStatus(\r\n            address(this),\r\n            seller,\r\n            status\r\n        );\r\n        string memory data = string(\r\n            abi.encodePacked(\r\n                Strings.toString(weiPrice) /*,\r\n                \"||\", */\r\n            )\r\n        );\r\n        factoryContract.onStatusChange(status, data, seller, buyer);\r\n        factoryContract.removeAssetIdUsed(itemSellerAssetId, seller);\r\n    }\r\n\r\n    // Buyer commits tokens to buy if status-state allows & Sends trade-offer to sellers trade-link off-chain.\r\n    function commitBuy(\r\n        TradeUrl memory _buyerTradeUrl,\r\n        bytes32 _affLink,\r\n        address _buyerAddress\r\n    ) public {\r\n        require(status == TradeStatus.ForSale, \"!fs\");\r\n\r\n        address _buyer;\r\n        if (msg.sender == factoryContract.buyAssistoor()) {\r\n            _buyer = _buyerAddress;\r\n        } else {\r\n            _buyer = msg.sender;\r\n        }\r\n\r\n        require(_buyer != seller, \"!seller\");\r\n\r\n        (uint256 buyerNetValue, , , ) = getNetValue(_affLink);\r\n\r\n        require(\r\n            paymentToken.transferFrom(msg.sender, address(this), buyerNetValue),\r\n            \"transfer failed\"\r\n        );\r\n\r\n        referralCode = _affLink;\r\n\r\n        status = TradeStatus.BuyerCommitted;\r\n        buyerCommitTimestamp = block.timestamp;\r\n        usersContract.startDeliveryTimer(address(this), seller);\r\n        buyer = _buyer;\r\n        buyerTradeUrl = _buyerTradeUrl;\r\n\r\n        depositedValue = paymentToken.balanceOf(address(this));\r\n\r\n        // string memory data = string(\r\n        //     abi.encodePacked(\r\n        //         Strings.toString(sellerTradeUrl.partner),\r\n        //         \"+\",\r\n        //         sellerTradeUrl.token,\r\n        //         \"||\",\r\n        //         Strings.toString(_buyerTradeUrl.partner),\r\n        //         \"+\",\r\n        //         _buyerTradeUrl.token,\r\n        //         \"||\",\r\n        //         Strings.toHexString(buyer),\r\n        //         \"||\",\r\n        //         Strings.toString(weiPrice)\r\n        //     )\r\n        // );\r\n\r\n        string memory data = string(\r\n            abi.encodePacked(Strings.toString(weiPrice))\r\n        );\r\n\r\n        usersContract.changeUserInteractionStatus(\r\n            address(this),\r\n            seller,\r\n            status\r\n        );\r\n        usersContract.addUserInteractionStatus(\r\n            address(this),\r\n            Role.BUYER,\r\n            buyer,\r\n            status\r\n        );\r\n        factoryContract.onStatusChange(status, data, seller, buyer);\r\n    }\r\n\r\n    // Buyer can cancel the trade up til the seller has accepted the trade offer.\r\n    function buyerCancel() external onlyAddress(buyer) {\r\n        require(status == TradeStatus.BuyerCommitted, \"trdsts!comm\");\r\n        // require(block.timestamp >= buyerCommitTimestamp + 24 hours, \"!24hrs\");\r\n        // TODO: REMOVE THIS REQUIREMENT FOR TESTING\r\n        // require(block.timestamp >= buyerCommitTimestamp + 5 minutes, \"!5mnts\"); // FOR TESTING\r\n        status = TradeStatus.BuyerCancelled;\r\n        usersContract.changeUserInteractionStatus(\r\n            address(this),\r\n            seller,\r\n            status\r\n        );\r\n        usersContract.changeUserInteractionStatus(address(this), buyer, status);\r\n\r\n        require(paymentToken.transfer(buyer, depositedValue), \"!snt\");\r\n\r\n        factoryContract.onStatusChange(status, \"BU_DEFAULT\", seller, buyer);\r\n    }\r\n\r\n    // Seller Confirms or deny they have accepted the trade offer.\r\n    function sellerTradeVeridict(\r\n        bool sellerCommited\r\n    ) public onlyAddress(seller) {\r\n        require(status == TradeStatus.BuyerCommitted, \"trdsts!comm\");\r\n        if (sellerCommited) {\r\n            status = TradeStatus.SellerCommitted;\r\n            sellerAcceptedTimestamp = block.timestamp;\r\n            usersContract.changeUserInteractionStatus(\r\n                address(this),\r\n                seller,\r\n                status\r\n            );\r\n            usersContract.changeUserInteractionStatus(\r\n                address(this),\r\n                buyer,\r\n                status\r\n            );\r\n            string memory data = string(\r\n                abi.encodePacked(\r\n                    Strings.toString(sellerTradeUrl.partner),\r\n                    \"+\",\r\n                    sellerTradeUrl.token,\r\n                    \"||\",\r\n                    Strings.toString(buyerTradeUrl.partner),\r\n                    \"+\",\r\n                    buyerTradeUrl.token,\r\n                    \"||\",\r\n                    Strings.toHexString(buyer),\r\n                    \"||\",\r\n                    Strings.toString(weiPrice)\r\n                )\r\n            );\r\n\r\n            factoryContract.onStatusChange(status, data, seller, buyer);\r\n        } else {\r\n            status = TradeStatus.SellerCancelledAfterBuyerCommitted;\r\n            usersContract.changeUserInteractionStatus(\r\n                address(this),\r\n                seller,\r\n                status\r\n            );\r\n            usersContract.changeUserInteractionStatus(\r\n                address(this),\r\n                buyer,\r\n                status\r\n            );\r\n            require(paymentToken.transfer(buyer, depositedValue), \"!snt\");\r\n            factoryContract.onStatusChange(status, \"SE_DEFAULT\", seller, buyer);\r\n        }\r\n    }\r\n\r\n    // Buyer Confirms they have received the item.\r\n    function buyerConfirmReceived() external onlyAddress(buyer) {\r\n        require(\r\n            status == TradeStatus.BuyerCommitted ||\r\n                status == TradeStatus.SellerCommitted,\r\n            \"trdsts!comm|act.\"\r\n        );\r\n        status = TradeStatus.Completed;\r\n        usersContract.endDeliveryTimer(address(this), seller);\r\n        bool success = factoryContract.removeAssetIdUsed(\r\n            itemSellerAssetId,\r\n            seller\r\n        );\r\n        require(success, \"didn't remove tradeId\");\r\n\r\n        _distributeProceeds();\r\n\r\n        usersContract.changeUserInteractionStatus(\r\n            address(this),\r\n            seller,\r\n            status\r\n        );\r\n        usersContract.changeUserInteractionStatus(address(this), buyer, status);\r\n        string memory data = string(\r\n            abi.encodePacked(Strings.toString(weiPrice), \"||\", \"MANUAL\")\r\n        );\r\n        factoryContract.onStatusChange(status, data, seller, buyer);\r\n    }\r\n\r\n    // Seller confirms the trade has been made after 3 days from acceptance.\r\n    function sellerConfirmsTrade() external onlyAddress(seller) {\r\n        require(status == TradeStatus.SellerCommitted, \"trdsts!comm\");\r\n        require(\r\n            block.timestamp >= sellerAcceptedTimestamp + 3 days,\r\n            \"3 days not passed\"\r\n        );\r\n        status = TradeStatus.Completed;\r\n        usersContract.endDeliveryTimer(address(this), seller);\r\n        usersContract.changeUserInteractionStatus(\r\n            address(this),\r\n            seller,\r\n            status\r\n        );\r\n        usersContract.changeUserInteractionStatus(address(this), buyer, status);\r\n\r\n        //require(paymentToken.transfer(seller, depositedValue), \"!snt\");\r\n\r\n        _distributeProceeds();\r\n\r\n        string memory data = string(\r\n            abi.encodePacked(Strings.toString(weiPrice))\r\n        );\r\n        factoryContract.onStatusChange(status, data, seller, buyer);\r\n    }\r\n\r\n    // KeeperNode Confirms the trade has been made.\r\n    function keeperNodeConfirmsTrade(bool isTradeMade) external onlyKeeperNode {\r\n        require(\r\n            status == TradeStatus.BuyerCommitted ||\r\n                status == TradeStatus.SellerCommitted,\r\n            \"trdsts!>comm\"\r\n        );\r\n        if (isTradeMade) {\r\n            status = TradeStatus.Completed;\r\n            usersContract.endDeliveryTimer(address(this), seller);\r\n            usersContract.changeUserInteractionStatus(\r\n                address(this),\r\n                seller,\r\n                status\r\n            );\r\n            usersContract.changeUserInteractionStatus(\r\n                address(this),\r\n                buyer,\r\n                status\r\n            );\r\n\r\n            // require(paymentToken.transfer(seller, depositedValue), \"!snt\");\r\n            _distributeProceeds();\r\n\r\n            string memory data = string(\r\n                abi.encodePacked(Strings.toString(weiPrice))\r\n            );\r\n            factoryContract.onStatusChange(status, data, seller, buyer);\r\n        } else {\r\n            TradeStatus oldStatus = status;\r\n            status = TradeStatus.Clawbacked;\r\n            usersContract.changeUserInteractionStatus(\r\n                address(this),\r\n                seller,\r\n                status\r\n            );\r\n            if (oldStatus >= TradeStatus.BuyerCommitted) {\r\n                usersContract.changeUserInteractionStatus(\r\n                    address(this),\r\n                    buyer,\r\n                    status\r\n                );\r\n            }\r\n            require(paymentToken.transfer(buyer, depositedValue), \"!snt\");\r\n            factoryContract.onStatusChange(status, \"KO_DEFAULT\", seller, buyer);\r\n        }\r\n\r\n        bool raS = factoryContract.removeAssetIdUsed(itemSellerAssetId, seller);\r\n        require(raS, \"!tradeId\");\r\n    }\r\n\r\n    // Or Buyer/Seller opens dispute in any state.\r\n    function openDispute(\r\n        string memory _complaint\r\n    ) external onlyTheseAddresses(seller, buyer) {\r\n        require(\r\n            status != TradeStatus.Disputed &&\r\n                status != TradeStatus.Resolved &&\r\n                status != TradeStatus.Clawbacked,\r\n            \"alreadyDis\"\r\n        );\r\n        status = TradeStatus.Disputed;\r\n        disputeer = msg.sender;\r\n        disputeComplaint = _complaint;\r\n        usersContract.changeUserInteractionStatus(\r\n            address(this),\r\n            seller,\r\n            status\r\n        );\r\n        usersContract.changeUserInteractionStatus(address(this), buyer, status);\r\n        factoryContract.onStatusChange(status, _complaint, seller, buyer);\r\n    }\r\n\r\n    // Keepers & KeeperNode resolves the dispute.\r\n    function resolveDispute(\r\n        bool isFavourOfBuyer,\r\n        bool giveWarningToSeller,\r\n        bool giveWarningToBuyer,\r\n        bool isWithValue\r\n    ) external onlyKeepersOrNode {\r\n        require(status == TradeStatus.Disputed, \"!disp\");\r\n        bool success = factoryContract.removeAssetIdUsed(\r\n            itemSellerAssetId,\r\n            seller\r\n        );\r\n        require(success, \"!tradeId\");\r\n        if (isFavourOfBuyer) {\r\n            status == TradeStatus.Clawbacked;\r\n            if (isWithValue) {\r\n                require(paymentToken.transfer(buyer, depositedValue), \"!snt\");\r\n            }\r\n        } else {\r\n            status = TradeStatus.Resolved;\r\n            if (isWithValue) {\r\n                // require(paymentToken.transfer(seller, depositedValue), \"!snt\");\r\n                _distributeProceeds();\r\n            }\r\n        }\r\n        if (giveWarningToSeller) {\r\n            usersContract.warnUser(seller);\r\n        }\r\n        if (giveWarningToBuyer) {\r\n            usersContract.warnUser(buyer);\r\n        }\r\n        usersContract.changeUserInteractionStatus(\r\n            address(this),\r\n            seller,\r\n            status\r\n        );\r\n        usersContract.changeUserInteractionStatus(address(this), buyer, status);\r\n        factoryContract.onStatusChange(status, \"\", seller, buyer);\r\n    }\r\n\r\n    // Private Functions\r\n    function _distributeProceeds() private {\r\n        // Fetch the referral code from the registry for the buyer\r\n        bytes32 storageRefCode = referralRegistryContract.getReferralCode(\r\n            buyer\r\n        );\r\n\r\n        // If the fetched referral code is not zero (i.e., it exists), then check if it's different from the current referral code.\r\n        // If it's different, then update the current referral code to the fetched one.\r\n        if (storageRefCode != bytes32(0)) {\r\n            if (storageRefCode != referralCode) {\r\n                referralCode = storageRefCode;\r\n            }\r\n            // If the fetched referral code is zero (i.e., it doesn't exist), then check if the current referral code is not zero.\r\n            // If the current referral code is not zero, then we need to validate it.\r\n        } else if (referralCode != bytes32(0)) {\r\n            // Check if the current referral code is registered. If it's not, then we set the referral code to zero and skip further checks.\r\n            if (\r\n                !referralRegistryContract.isReferralCodeRegistered(referralCode)\r\n            ) {\r\n                referralCode = bytes32(0);\r\n            } else {\r\n                // If the referral code is valid, then we fetch the owner of the referral code.\r\n                address refOwner = referralRegistryContract\r\n                    .getReferralCodeOwner(referralCode);\r\n                // Check if the owner of the referral code is not the buyer.\r\n                // If it's the buyer, then we set the referral code to zero.\r\n                // If it's not the buyer, then we set the referral code as Primary for the buyer.\r\n                if (refOwner == buyer) {\r\n                    referralCode = bytes32(0);\r\n                } else {\r\n                    referralRegistryContract.setReferralCodeAsTC(\r\n                        referralCode,\r\n                        buyer\r\n                    );\r\n                }\r\n            }\r\n        }\r\n\r\n        (\r\n            uint256 buyerNetPrice,\r\n            uint256 sellerNetProceeds,\r\n            uint256 affiliatorNetReward,\r\n            uint256 tokenHoldersNetReward\r\n        ) = getNetValue(referralCode);\r\n        require(paymentToken.transfer(seller, sellerNetProceeds), \"!ssnt\");\r\n        if (affiliatorNetReward > 0) {\r\n            require(\r\n                paymentToken.transfer(\r\n                    referralRegistryContract.getReferralCodeOwner(referralCode),\r\n                    affiliatorNetReward\r\n                ),\r\n                \"!rsnt\"\r\n            );\r\n            referralRegistryContract.emitReferralCodeRebateUpdated(\r\n                address(this),\r\n                address(paymentToken),\r\n                referralCode,\r\n                affiliatorNetReward\r\n            );\r\n        }\r\n        paymentToken.approve(address(sCSXToken), tokenHoldersNetReward);\r\n        require(\r\n            sCSXToken.depositDividend(\r\n                address(paymentToken),\r\n                tokenHoldersNetReward\r\n            ),\r\n            \"!tsnt\"\r\n        );\r\n        usersContract.emitNewTrade(\r\n            seller,\r\n            buyer,\r\n            referralCode,\r\n            priceType,\r\n            buyerNetPrice\r\n        );\r\n    }\r\n\r\n    function getNetValue(\r\n        bytes32 _affLink\r\n    )\r\n        public\r\n        view\r\n        returns (\r\n            uint256 buyerNetPrice,\r\n            uint256 sellerNetProceeds,\r\n            uint256 affiliatorNetReward,\r\n            uint256 tokenHoldersNetReward\r\n        )\r\n    {\r\n        bool hasReferral = referralRegistryContract.getReferralCodeOwner(\r\n            _affLink\r\n        ) != address(0);\r\n\r\n        //uint256 ownerRatio;\r\n        uint256 buyerRatio;\r\n\r\n        if (hasReferral) {\r\n            (\r\n                ,\r\n                /*uint256 _ownerRatio*/ uint256 _buyerRatio\r\n            ) = referralRegistryContract.getReferralCodeRatios(_affLink);\r\n            //ownerRatio = _ownerRatio;\r\n            buyerRatio = (_buyerRatio / 2);\r\n        }\r\n\r\n        (\r\n            buyerNetPrice,\r\n            sellerNetProceeds,\r\n            affiliatorNetReward,\r\n            tokenHoldersNetReward\r\n        ) = referralRegistryContract.calculateNetValue(\r\n            weiPrice,\r\n            hasReferral,\r\n            factoryContract.baseFee(),\r\n            buyerRatio\r\n        );\r\n    }\r\n}\r\n",
  "sourcePath": "C:\\Users\\Charl\\Documents\\Projects\\SteamMarket\\CSX\\csx-contracts\\contracts\\Trade\\Trade.sol",
  "compiler": {
    "name": "solc",
    "version": "0.8.19+commit.7dd6d404.Emscripten.clang"
  },
  "schemaVersion": "3.4.3",
  "updatedAt": "2023-08-22T18:04:20.840Z",
  "devdoc": {
    "kind": "dev",
    "methods": {},
    "version": 1
  },
  "userdoc": {
    "kind": "user",
    "methods": {},
    "version": 1
  }
}