{
  "contractName": "EscrowedCSX",
  "abi": [
    {
      "inputs": [
        {
          "internalType": "address",
          "name": "_csxToken",
          "type": "address"
        }
      ],
      "stateMutability": "nonpayable",
      "type": "constructor"
    },
    {
      "anonymous": false,
      "inputs": [
        {
          "indexed": true,
          "internalType": "address",
          "name": "owner",
          "type": "address"
        },
        {
          "indexed": true,
          "internalType": "address",
          "name": "spender",
          "type": "address"
        },
        {
          "indexed": false,
          "internalType": "uint256",
          "name": "value",
          "type": "uint256"
        }
      ],
      "name": "Approval",
      "type": "event"
    },
    {
      "anonymous": false,
      "inputs": [
        {
          "indexed": true,
          "internalType": "address",
          "name": "user",
          "type": "address"
        },
        {
          "indexed": false,
          "internalType": "uint256",
          "name": "amount",
          "type": "uint256"
        }
      ],
      "name": "Claimed",
      "type": "event"
    },
    {
      "anonymous": false,
      "inputs": [
        {
          "indexed": true,
          "internalType": "address",
          "name": "user",
          "type": "address"
        },
        {
          "indexed": false,
          "internalType": "uint256",
          "name": "amount",
          "type": "uint256"
        }
      ],
      "name": "Minted",
      "type": "event"
    },
    {
      "anonymous": false,
      "inputs": [
        {
          "indexed": true,
          "internalType": "address",
          "name": "from",
          "type": "address"
        },
        {
          "indexed": true,
          "internalType": "address",
          "name": "to",
          "type": "address"
        },
        {
          "indexed": false,
          "internalType": "uint256",
          "name": "value",
          "type": "uint256"
        }
      ],
      "name": "Transfer",
      "type": "event"
    },
    {
      "inputs": [
        {
          "internalType": "address",
          "name": "owner",
          "type": "address"
        },
        {
          "internalType": "address",
          "name": "spender",
          "type": "address"
        }
      ],
      "name": "allowance",
      "outputs": [
        {
          "internalType": "uint256",
          "name": "",
          "type": "uint256"
        }
      ],
      "stateMutability": "view",
      "type": "function"
    },
    {
      "inputs": [
        {
          "internalType": "address",
          "name": "spender",
          "type": "address"
        },
        {
          "internalType": "uint256",
          "name": "amount",
          "type": "uint256"
        }
      ],
      "name": "approve",
      "outputs": [
        {
          "internalType": "bool",
          "name": "",
          "type": "bool"
        }
      ],
      "stateMutability": "nonpayable",
      "type": "function"
    },
    {
      "inputs": [
        {
          "internalType": "address",
          "name": "account",
          "type": "address"
        }
      ],
      "name": "balanceOf",
      "outputs": [
        {
          "internalType": "uint256",
          "name": "",
          "type": "uint256"
        }
      ],
      "stateMutability": "view",
      "type": "function"
    },
    {
      "inputs": [
        {
          "internalType": "uint256",
          "name": "amount",
          "type": "uint256"
        }
      ],
      "name": "burn",
      "outputs": [],
      "stateMutability": "nonpayable",
      "type": "function"
    },
    {
      "inputs": [
        {
          "internalType": "address",
          "name": "account",
          "type": "address"
        },
        {
          "internalType": "uint256",
          "name": "amount",
          "type": "uint256"
        }
      ],
      "name": "burnFrom",
      "outputs": [],
      "stateMutability": "nonpayable",
      "type": "function"
    },
    {
      "inputs": [],
      "name": "csxToken",
      "outputs": [
        {
          "internalType": "contract IERC20",
          "name": "",
          "type": "address"
        }
      ],
      "stateMutability": "view",
      "type": "function"
    },
    {
      "inputs": [],
      "name": "decimals",
      "outputs": [
        {
          "internalType": "uint8",
          "name": "",
          "type": "uint8"
        }
      ],
      "stateMutability": "view",
      "type": "function"
    },
    {
      "inputs": [
        {
          "internalType": "address",
          "name": "spender",
          "type": "address"
        },
        {
          "internalType": "uint256",
          "name": "subtractedValue",
          "type": "uint256"
        }
      ],
      "name": "decreaseAllowance",
      "outputs": [
        {
          "internalType": "bool",
          "name": "",
          "type": "bool"
        }
      ],
      "stateMutability": "nonpayable",
      "type": "function"
    },
    {
      "inputs": [
        {
          "internalType": "address",
          "name": "spender",
          "type": "address"
        },
        {
          "internalType": "uint256",
          "name": "addedValue",
          "type": "uint256"
        }
      ],
      "name": "increaseAllowance",
      "outputs": [
        {
          "internalType": "bool",
          "name": "",
          "type": "bool"
        }
      ],
      "stateMutability": "nonpayable",
      "type": "function"
    },
    {
      "inputs": [],
      "name": "isInitialized",
      "outputs": [
        {
          "internalType": "bool",
          "name": "",
          "type": "bool"
        }
      ],
      "stateMutability": "view",
      "type": "function"
    },
    {
      "inputs": [],
      "name": "name",
      "outputs": [
        {
          "internalType": "string",
          "name": "",
          "type": "string"
        }
      ],
      "stateMutability": "view",
      "type": "function"
    },
    {
      "inputs": [],
      "name": "symbol",
      "outputs": [
        {
          "internalType": "string",
          "name": "",
          "type": "string"
        }
      ],
      "stateMutability": "view",
      "type": "function"
    },
    {
      "inputs": [],
      "name": "totalSupply",
      "outputs": [
        {
          "internalType": "uint256",
          "name": "",
          "type": "uint256"
        }
      ],
      "stateMutability": "view",
      "type": "function"
    },
    {
      "inputs": [
        {
          "internalType": "address",
          "name": "to",
          "type": "address"
        },
        {
          "internalType": "uint256",
          "name": "amount",
          "type": "uint256"
        }
      ],
      "name": "transfer",
      "outputs": [
        {
          "internalType": "bool",
          "name": "",
          "type": "bool"
        }
      ],
      "stateMutability": "nonpayable",
      "type": "function"
    },
    {
      "inputs": [
        {
          "internalType": "address",
          "name": "from",
          "type": "address"
        },
        {
          "internalType": "address",
          "name": "to",
          "type": "address"
        },
        {
          "internalType": "uint256",
          "name": "amount",
          "type": "uint256"
        }
      ],
      "name": "transferFrom",
      "outputs": [
        {
          "internalType": "bool",
          "name": "",
          "type": "bool"
        }
      ],
      "stateMutability": "nonpayable",
      "type": "function"
    },
    {
      "inputs": [],
      "name": "vestedCSX",
      "outputs": [
        {
          "internalType": "contract IERC20",
          "name": "",
          "type": "address"
        }
      ],
      "stateMutability": "view",
      "type": "function"
    },
    {
      "inputs": [
        {
          "internalType": "address",
          "name": "_vCSXToken",
          "type": "address"
        }
      ],
      "name": "init",
      "outputs": [],
      "stateMutability": "nonpayable",
      "type": "function"
    },
    {
      "inputs": [
        {
          "internalType": "uint256",
          "name": "_amount",
          "type": "uint256"
        }
      ],
      "name": "mintEscrow",
      "outputs": [],
      "stateMutability": "nonpayable",
      "type": "function"
    }
  ],
  "bytecode": "0x608060405260068054600160a860020a0319163360a060020a60ff0219161790553480156200002d57600080fd5b50604051620013483803806200134883398101604081905262000050916200010a565b6040518060400160405280600c81526020017f457363726f7765642043535800000000000000000000000000000000000000008152506040518060400160405280600481526020017f65435358000000000000000000000000000000000000000000000000000000008152508160039081620000cd919062000213565b506004620000dc828262000213565b505060016005555060078054600160a060020a031916600160a060020a0392909216919091179055620002e6565b6000602082840312156200011d57600080fd5b8151600160a060020a03811681146200013557600080fd5b9392505050565b7f4e487b7100000000000000000000000000000000000000000000000000000000600052604160045260246000fd5b6002810460018216806200018057607f821691505b602082108103620001ba577f4e487b7100000000000000000000000000000000000000000000000000000000600052602260045260246000fd5b50919050565b601f8211156200020e576000818152602081206020601f86010481016020861015620001e95750805b6020601f860104820191505b818110156200020a57828155600101620001f5565b5050505b505050565b815167ffffffffffffffff8111156200023057620002306200013c565b62000248816200024184546200016b565b84620001c0565b602080601f831160018114620002845760008415620002675750858301515b60028086026008870290910a60001904198216178655506200020a565b600085815260208120601f198616915b82811015620002b55788860151825594840194600190910190840162000294565b5085821015620002d657878501516008601f88160260020a60001904191681555b5050505050600202600101905550565b61105280620002f66000396000f3fe608060405234801561001057600080fd5b5060043610610133576000357c01000000000000000000000000000000000000000000000000000000009004806342966c68116100bf57806395d89b411161008e57806395d89b4114610287578063a457c2d71461028f578063a639a300146102a2578063a9059cbb146102b5578063dd62ed3e146102c857600080fd5b806342966c681461020d5780636bc0357e1461022057806370a082311461024b57806379cc67901461027457600080fd5b806323b872dd1161010657806323b872dd146101a05780632fa5d7a6146101b3578063313ce567146101c6578063392e53cd146101d557806339509351146101fa57600080fd5b806306fdde0314610138578063095ea7b31461015657806318160ddd1461017957806319ab453c1461018b575b600080fd5b610140610301565b60405161014d9190610e2f565b60405180910390f35b610169610164366004610e99565b610393565b604051901515815260200161014d565b6002545b60405190815260200161014d565b61019e610199366004610ec3565b6103ad565b005b6101696101ae366004610ee5565b6104e2565b61019e6101c1366004610f21565b610506565b6040516012815260200161014d565b6006546101699074010000000000000000000000000000000000000000900460ff1681565b610169610208366004610e99565b610694565b61019e61021b366004610f21565b6106d3565b60085461023390600160a060020a031681565b604051600160a060020a03909116815260200161014d565b61017d610259366004610ec3565b600160a060020a031660009081526020819052604090205490565b61019e610282366004610e99565b6106dd565b6101406106f6565b61016961029d366004610e99565b610705565b60075461023390600160a060020a031681565b6101696102c3366004610e99565b6107b2565b61017d6102d6366004610f3a565b600160a060020a03918216600090815260016020908152604080832093909416825291909152205490565b60606003805461031090610f6d565b80601f016020809104026020016040519081016040528092919081815260200182805461033c90610f6d565b80156103895780601f1061035e57610100808354040283529160200191610389565b820191906000526020600020905b81548152906001019060200180831161036c57829003601f168201915b5050505050905090565b6000336103a18185856107c0565b60019150505b92915050565b60065474010000000000000000000000000000000000000000900460ff16156104205760405160e560020a62461bcd02815260206004820152601360248201527f416c726561647920696e697469616c697a65640000000000000000000000000060448201526064015b60405180910390fd5b600654600160a060020a0316331461047d5760405160e560020a62461bcd02815260206004820152601c60248201527f4f6e6c79206465706c6f7965722063616e20696e697469616c697a65000000006044820152606401610417565b6006805474ff000000000000000000000000000000000000000019167401000000000000000000000000000000000000000017905560088054600160a060020a0390921673ffffffffffffffffffffffffffffffffffffffff19909216919091179055565b6000336104f085828561091f565b6104fb8585856109b4565b506001949350505050565b61050e610baa565b600081116105615760405160e560020a62461bcd02815260206004820152601d60248201527f416d6f756e74206d7573742062652067726561746572207468616e20300000006044820152606401610417565b6007546008546040517f23b872dd000000000000000000000000000000000000000000000000000000008152336004820152600160a060020a039182166024820152604481018490529116906323b872dd906064016020604051808303816000875af11580156105d5573d6000803e3d6000fd5b505050506040513d601f19601f820116820180604052508101906105f99190610fc0565b6106485760405160e560020a62461bcd02815260206004820152601060248201527f5472616e73666572206661696c65642e000000000000000000000000000000006044820152606401610417565b6106523382610c06565b60405181815233907f30385c845b448a36257a6a1716e6ad2e1bc2cbe333cde1e69fe849ad6511adfe9060200160405180910390a26106916001600555565b50565b336000818152600160209081526040808320600160a060020a03871684529091528120549091906103a190829086906106ce908790610fe2565b6107c0565b6106913382610cc8565b6106e882338361091f565b6106f28282610cc8565b5050565b60606004805461031090610f6d565b336000818152600160209081526040808320600160a060020a0387168452909152812054909190838110156107a55760405160e560020a62461bcd02815260206004820152602560248201527f45524332303a2064656372656173656420616c6c6f77616e63652062656c6f7760448201527f207a65726f0000000000000000000000000000000000000000000000000000006064820152608401610417565b6104fb82868684036107c0565b6000336103a18185856109b4565b600160a060020a03831661083e5760405160e560020a62461bcd028152602060048201526024808201527f45524332303a20617070726f76652066726f6d20746865207a65726f2061646460448201527f72657373000000000000000000000000000000000000000000000000000000006064820152608401610417565b600160a060020a0382166108bd5760405160e560020a62461bcd02815260206004820152602260248201527f45524332303a20617070726f766520746f20746865207a65726f20616464726560448201527f73730000000000000000000000000000000000000000000000000000000000006064820152608401610417565b600160a060020a0383811660008181526001602090815260408083209487168084529482529182902085905590518481527f8c5be1e5ebec7d5bd14f71427d1e84f3dd0314c0f7b2291e5b200ac8c7c3b92591015b60405180910390a3505050565b600160a060020a0383811660009081526001602090815260408083209386168352929052205460001981146109ae57818110156109a15760405160e560020a62461bcd02815260206004820152601d60248201527f45524332303a20696e73756666696369656e7420616c6c6f77616e63650000006044820152606401610417565b6109ae84848484036107c0565b50505050565b600160a060020a038316610a335760405160e560020a62461bcd02815260206004820152602560248201527f45524332303a207472616e736665722066726f6d20746865207a65726f20616460448201527f64726573730000000000000000000000000000000000000000000000000000006064820152608401610417565b600160a060020a038216610ab25760405160e560020a62461bcd02815260206004820152602360248201527f45524332303a207472616e7366657220746f20746865207a65726f206164647260448201527f65737300000000000000000000000000000000000000000000000000000000006064820152608401610417565b600160a060020a03831660009081526020819052604090205481811015610b445760405160e560020a62461bcd02815260206004820152602660248201527f45524332303a207472616e7366657220616d6f756e742065786365656473206260448201527f616c616e636500000000000000000000000000000000000000000000000000006064820152608401610417565b600160a060020a03848116600081815260208181526040808320878703905593871680835291849020805487019055925185815290927fddf252ad1be2c89b69c2b068fc378daa952ba7f163c4a11628f55a4df523b3ef910160405180910390a36109ae565b600260055403610bff5760405160e560020a62461bcd02815260206004820152601f60248201527f5265656e7472616e637947756172643a207265656e7472616e742063616c6c006044820152606401610417565b6002600555565b600160a060020a038216610c5f5760405160e560020a62461bcd02815260206004820152601f60248201527f45524332303a206d696e7420746f20746865207a65726f2061646472657373006044820152606401610417565b8060026000828254610c719190610fe2565b9091555050600160a060020a038216600081815260208181526040808320805486019055518481527fddf252ad1be2c89b69c2b068fc378daa952ba7f163c4a11628f55a4df523b3ef910160405180910390a35050565b600160a060020a038216610d475760405160e560020a62461bcd02815260206004820152602160248201527f45524332303a206275726e2066726f6d20746865207a65726f2061646472657360448201527f73000000000000000000000000000000000000000000000000000000000000006064820152608401610417565b600160a060020a03821660009081526020819052604090205481811015610dd95760405160e560020a62461bcd02815260206004820152602260248201527f45524332303a206275726e20616d6f756e7420657863656564732062616c616e60448201527f63650000000000000000000000000000000000000000000000000000000000006064820152608401610417565b600160a060020a0383166000818152602081815260408083208686039055600280548790039055518581529192917fddf252ad1be2c89b69c2b068fc378daa952ba7f163c4a11628f55a4df523b3ef9101610912565b600060208083528351808285015260005b81811015610e5c57858101830151858201604001528201610e40565b506000604082860101526040601f19601f8301168501019250505092915050565b8035600160a060020a0381168114610e9457600080fd5b919050565b60008060408385031215610eac57600080fd5b610eb583610e7d565b946020939093013593505050565b600060208284031215610ed557600080fd5b610ede82610e7d565b9392505050565b600080600060608486031215610efa57600080fd5b610f0384610e7d565b9250610f1160208501610e7d565b9150604084013590509250925092565b600060208284031215610f3357600080fd5b5035919050565b60008060408385031215610f4d57600080fd5b610f5683610e7d565b9150610f6460208401610e7d565b90509250929050565b600281046001821680610f8157607f821691505b602082108103610fba577f4e487b7100000000000000000000000000000000000000000000000000000000600052602260045260246000fd5b50919050565b600060208284031215610fd257600080fd5b81518015158114610ede57600080fd5b808201808211156103a7577f4e487b7100000000000000000000000000000000000000000000000000000000600052601160045260246000fdfea2646970667358221220f9bcebe5119e510cae86bda2c148c0316f9fb6b02623bf477c1077055823172164736f6c63430008130033",
  "immutableReferences": {},
  "source": "// SPDX-License-Identifier: MIT\r\n// CSX Escrow Contract v1\r\n\r\npragma solidity 0.8.19;\r\n\r\nimport {ERC20Burnable, ERC20, IERC20} from \"@openzeppelin/contracts/token/ERC20/extensions/ERC20Burnable.sol\";\r\n\r\nimport {ReentrancyGuard} from \"./Interfaces.sol\";\r\n\r\ncontract EscrowedCSX is ERC20Burnable, ReentrancyGuard {\r\n    address deployer = msg.sender;\r\n    bool public isInitialized = false;\r\n    IERC20 public csxToken;\r\n    IERC20 public vestedCSX;\r\n\r\n    event Minted(address indexed user, uint256 amount);\r\n    event Claimed(address indexed user, uint256 amount);\r\n\r\n    constructor(address _csxToken) ERC20(\"Escrowed CSX\", \"eCSX\") {\r\n        csxToken = IERC20(_csxToken);\r\n    }\r\n\r\n    function init(address _vCSXToken) external {\r\n        require(!isInitialized, \"Already initialized\");\r\n        require(msg.sender == deployer, \"Only deployer can initialize\");\r\n        isInitialized = true;\r\n        vestedCSX = IERC20(_vCSXToken);\r\n    }\r\n\r\n    function mintEscrow(uint256 _amount) external nonReentrant {\r\n        require(_amount > 0, \"Amount must be greater than 0\");\r\n        require(csxToken.transferFrom(msg.sender, address(vestedCSX), _amount), 'Transfer failed.');\r\n        _mint(msg.sender, _amount);\r\n        // vestings[msg.sender] = Vesting(_amount, block.timestamp);\r\n        // handle vesting in vCSX contract\r\n        emit Minted(msg.sender, _amount);\r\n    }\r\n}\r\n",
  "sourcePath": "C:\\Users\\Charl\\Documents\\Projects\\SteamMarket\\CSX\\csx-contracts\\contracts\\CSX\\EscrowedCSX.sol",
  "compiler": {
    "name": "solc",
    "version": "0.8.19+commit.7dd6d404.Emscripten.clang"
  },
  "schemaVersion": "3.4.3",
  "updatedAt": "2023-08-22T17:36:56.377Z",
  "devdoc": {
    "events": {
      "Approval(address,address,uint256)": {
        "details": "Emitted when the allowance of a `spender` for an `owner` is set by a call to {approve}. `value` is the new allowance."
      },
      "Transfer(address,address,uint256)": {
        "details": "Emitted when `value` tokens are moved from one account (`from`) to another (`to`). Note that `value` may be zero."
      }
    },
    "kind": "dev",
    "methods": {
      "allowance(address,address)": {
        "details": "See {IERC20-allowance}."
      },
      "approve(address,uint256)": {
        "details": "See {IERC20-approve}. NOTE: If `amount` is the maximum `uint256`, the allowance is not updated on `transferFrom`. This is semantically equivalent to an infinite approval. Requirements: - `spender` cannot be the zero address."
      },
      "balanceOf(address)": {
        "details": "See {IERC20-balanceOf}."
      },
      "burn(uint256)": {
        "details": "Destroys `amount` tokens from the caller. See {ERC20-_burn}."
      },
      "burnFrom(address,uint256)": {
        "details": "Destroys `amount` tokens from `account`, deducting from the caller's allowance. See {ERC20-_burn} and {ERC20-allowance}. Requirements: - the caller must have allowance for ``accounts``'s tokens of at least `amount`."
      },
      "decimals()": {
        "details": "Returns the number of decimals used to get its user representation. For example, if `decimals` equals `2`, a balance of `505` tokens should be displayed to a user as `5.05` (`505 / 10 ** 2`). Tokens usually opt for a value of 18, imitating the relationship between Ether and Wei. This is the value {ERC20} uses, unless this function is overridden; NOTE: This information is only used for _display_ purposes: it in no way affects any of the arithmetic of the contract, including {IERC20-balanceOf} and {IERC20-transfer}."
      },
      "decreaseAllowance(address,uint256)": {
        "details": "Atomically decreases the allowance granted to `spender` by the caller. This is an alternative to {approve} that can be used as a mitigation for problems described in {IERC20-approve}. Emits an {Approval} event indicating the updated allowance. Requirements: - `spender` cannot be the zero address. - `spender` must have allowance for the caller of at least `subtractedValue`."
      },
      "increaseAllowance(address,uint256)": {
        "details": "Atomically increases the allowance granted to `spender` by the caller. This is an alternative to {approve} that can be used as a mitigation for problems described in {IERC20-approve}. Emits an {Approval} event indicating the updated allowance. Requirements: - `spender` cannot be the zero address."
      },
      "name()": {
        "details": "Returns the name of the token."
      },
      "symbol()": {
        "details": "Returns the symbol of the token, usually a shorter version of the name."
      },
      "totalSupply()": {
        "details": "See {IERC20-totalSupply}."
      },
      "transfer(address,uint256)": {
        "details": "See {IERC20-transfer}. Requirements: - `to` cannot be the zero address. - the caller must have a balance of at least `amount`."
      },
      "transferFrom(address,address,uint256)": {
        "details": "See {IERC20-transferFrom}. Emits an {Approval} event indicating the updated allowance. This is not required by the EIP. See the note at the beginning of {ERC20}. NOTE: Does not update the allowance if the current allowance is the maximum `uint256`. Requirements: - `from` and `to` cannot be the zero address. - `from` must have a balance of at least `amount`. - the caller must have allowance for ``from``'s tokens of at least `amount`."
      }
    },
    "version": 1
  },
  "userdoc": {
    "kind": "user",
    "methods": {},
    "version": 1
  }
}