{
  "contractName": "EscrowedCSX",
  "abi": [
    {
      "inputs": [
        {
          "internalType": "address",
          "name": "_csxToken",
          "type": "address"
        }
      ],
      "stateMutability": "nonpayable",
      "type": "constructor"
    },
    {
      "anonymous": false,
      "inputs": [
        {
          "indexed": true,
          "internalType": "address",
          "name": "owner",
          "type": "address"
        },
        {
          "indexed": true,
          "internalType": "address",
          "name": "spender",
          "type": "address"
        },
        {
          "indexed": false,
          "internalType": "uint256",
          "name": "value",
          "type": "uint256"
        }
      ],
      "name": "Approval",
      "type": "event"
    },
    {
      "anonymous": false,
      "inputs": [
        {
          "indexed": true,
          "internalType": "address",
          "name": "user",
          "type": "address"
        },
        {
          "indexed": false,
          "internalType": "uint256",
          "name": "amount",
          "type": "uint256"
        }
      ],
      "name": "Claimed",
      "type": "event"
    },
    {
      "anonymous": false,
      "inputs": [
        {
          "indexed": true,
          "internalType": "address",
          "name": "user",
          "type": "address"
        },
        {
          "indexed": false,
          "internalType": "uint256",
          "name": "amount",
          "type": "uint256"
        }
      ],
      "name": "Minted",
      "type": "event"
    },
    {
      "anonymous": false,
      "inputs": [
        {
          "indexed": true,
          "internalType": "address",
          "name": "from",
          "type": "address"
        },
        {
          "indexed": true,
          "internalType": "address",
          "name": "to",
          "type": "address"
        },
        {
          "indexed": false,
          "internalType": "uint256",
          "name": "value",
          "type": "uint256"
        }
      ],
      "name": "Transfer",
      "type": "event"
    },
    {
      "inputs": [
        {
          "internalType": "address",
          "name": "owner",
          "type": "address"
        },
        {
          "internalType": "address",
          "name": "spender",
          "type": "address"
        }
      ],
      "name": "allowance",
      "outputs": [
        {
          "internalType": "uint256",
          "name": "",
          "type": "uint256"
        }
      ],
      "stateMutability": "view",
      "type": "function",
      "constant": true
    },
    {
      "inputs": [
        {
          "internalType": "address",
          "name": "spender",
          "type": "address"
        },
        {
          "internalType": "uint256",
          "name": "amount",
          "type": "uint256"
        }
      ],
      "name": "approve",
      "outputs": [
        {
          "internalType": "bool",
          "name": "",
          "type": "bool"
        }
      ],
      "stateMutability": "nonpayable",
      "type": "function"
    },
    {
      "inputs": [
        {
          "internalType": "address",
          "name": "account",
          "type": "address"
        }
      ],
      "name": "balanceOf",
      "outputs": [
        {
          "internalType": "uint256",
          "name": "",
          "type": "uint256"
        }
      ],
      "stateMutability": "view",
      "type": "function",
      "constant": true
    },
    {
      "inputs": [
        {
          "internalType": "uint256",
          "name": "amount",
          "type": "uint256"
        }
      ],
      "name": "burn",
      "outputs": [],
      "stateMutability": "nonpayable",
      "type": "function"
    },
    {
      "inputs": [
        {
          "internalType": "address",
          "name": "account",
          "type": "address"
        },
        {
          "internalType": "uint256",
          "name": "amount",
          "type": "uint256"
        }
      ],
      "name": "burnFrom",
      "outputs": [],
      "stateMutability": "nonpayable",
      "type": "function"
    },
    {
      "inputs": [],
      "name": "csxToken",
      "outputs": [
        {
          "internalType": "contract IERC20",
          "name": "",
          "type": "address"
        }
      ],
      "stateMutability": "view",
      "type": "function",
      "constant": true
    },
    {
      "inputs": [],
      "name": "decimals",
      "outputs": [
        {
          "internalType": "uint8",
          "name": "",
          "type": "uint8"
        }
      ],
      "stateMutability": "view",
      "type": "function",
      "constant": true
    },
    {
      "inputs": [
        {
          "internalType": "address",
          "name": "spender",
          "type": "address"
        },
        {
          "internalType": "uint256",
          "name": "subtractedValue",
          "type": "uint256"
        }
      ],
      "name": "decreaseAllowance",
      "outputs": [
        {
          "internalType": "bool",
          "name": "",
          "type": "bool"
        }
      ],
      "stateMutability": "nonpayable",
      "type": "function"
    },
    {
      "inputs": [
        {
          "internalType": "address",
          "name": "spender",
          "type": "address"
        },
        {
          "internalType": "uint256",
          "name": "addedValue",
          "type": "uint256"
        }
      ],
      "name": "increaseAllowance",
      "outputs": [
        {
          "internalType": "bool",
          "name": "",
          "type": "bool"
        }
      ],
      "stateMutability": "nonpayable",
      "type": "function"
    },
    {
      "inputs": [],
      "name": "name",
      "outputs": [
        {
          "internalType": "string",
          "name": "",
          "type": "string"
        }
      ],
      "stateMutability": "view",
      "type": "function",
      "constant": true
    },
    {
      "inputs": [],
      "name": "symbol",
      "outputs": [
        {
          "internalType": "string",
          "name": "",
          "type": "string"
        }
      ],
      "stateMutability": "view",
      "type": "function",
      "constant": true
    },
    {
      "inputs": [],
      "name": "totalSupply",
      "outputs": [
        {
          "internalType": "uint256",
          "name": "",
          "type": "uint256"
        }
      ],
      "stateMutability": "view",
      "type": "function",
      "constant": true
    },
    {
      "inputs": [
        {
          "internalType": "address",
          "name": "to",
          "type": "address"
        },
        {
          "internalType": "uint256",
          "name": "amount",
          "type": "uint256"
        }
      ],
      "name": "transfer",
      "outputs": [
        {
          "internalType": "bool",
          "name": "",
          "type": "bool"
        }
      ],
      "stateMutability": "nonpayable",
      "type": "function"
    },
    {
      "inputs": [
        {
          "internalType": "address",
          "name": "from",
          "type": "address"
        },
        {
          "internalType": "address",
          "name": "to",
          "type": "address"
        },
        {
          "internalType": "uint256",
          "name": "amount",
          "type": "uint256"
        }
      ],
      "name": "transferFrom",
      "outputs": [
        {
          "internalType": "bool",
          "name": "",
          "type": "bool"
        }
      ],
      "stateMutability": "nonpayable",
      "type": "function"
    },
    {
      "inputs": [],
      "name": "vestingToken",
      "outputs": [
        {
          "internalType": "contract IERC20",
          "name": "",
          "type": "address"
        }
      ],
      "stateMutability": "view",
      "type": "function",
      "constant": true
    },
    {
      "inputs": [
        {
          "internalType": "address",
          "name": "_vCSXToken",
          "type": "address"
        }
      ],
      "name": "init",
      "outputs": [],
      "stateMutability": "nonpayable",
      "type": "function"
    },
    {
      "inputs": [
        {
          "internalType": "uint256",
          "name": "_amount",
          "type": "uint256"
        }
      ],
      "name": "mintEscrow",
      "outputs": [],
      "stateMutability": "nonpayable",
      "type": "function"
    }
  ],
  "bytecode": "0x608060405260068054600160a860020a0319163360a060020a60ff0219161790553480156200002d57600080fd5b506040516200112f3803806200112f83398101604081905262000050916200010a565b6040518060400160405280600c81526020017f457363726f7765642043535800000000000000000000000000000000000000008152506040518060400160405280600481526020017f65435358000000000000000000000000000000000000000000000000000000008152508160039081620000cd919062000213565b506004620000dc828262000213565b505060016005555060078054600160a060020a031916600160a060020a0392909216919091179055620002e6565b6000602082840312156200011d57600080fd5b8151600160a060020a03811681146200013557600080fd5b9392505050565b7f4e487b7100000000000000000000000000000000000000000000000000000000600052604160045260246000fd5b6002810460018216806200018057607f821691505b602082108103620001ba577f4e487b7100000000000000000000000000000000000000000000000000000000600052602260045260246000fd5b50919050565b601f8211156200020e576000818152602081206020601f86010481016020861015620001e95750805b6020601f860104820191505b818110156200020a57828155600101620001f5565b5050505b505050565b815167ffffffffffffffff8111156200023057620002306200013c565b62000248816200024184546200016b565b84620001c0565b602080601f831160018114620002845760008415620002675750858301515b60028086026008870290910a60001904198216178655506200020a565b600085815260208120601f198616915b82811015620002b55788860151825594840194600190910190840162000294565b5085821015620002d657878501516008601f88160260020a60001904191681555b5050505050600202600101905550565b610e3980620002f66000396000f3fe608060405234801561001057600080fd5b50600436106100de5760e060020a600035046306fdde0381146100e3578063095ea7b31461010157806318160ddd1461012457806319ab453c1461013657806319d152fa1461014b57806323b872dd146101765780632fa5d7a614610189578063313ce5671461019c57806339509351146101ab57806342966c68146101be57806370a08231146101d157806379cc6790146101fa57806395d89b411461020d578063a457c2d714610215578063a639a30014610228578063a9059cbb1461023b578063dd62ed3e1461024e575b600080fd5b6100eb610261565b6040516100f89190610c20565b60405180910390f35b61011461010f366004610c8a565b6102f3565b60405190151581526020016100f8565b6002545b6040519081526020016100f8565b610149610144366004610cb4565b61030d565b005b60085461015e90600160a060020a031681565b604051600160a060020a0390911681526020016100f8565b610114610184366004610cd6565b6103fe565b610149610197366004610d12565b610422565b604051601281526020016100f8565b6101146101b9366004610c8a565b610590565b6101496101cc366004610d12565b6105b2565b6101286101df366004610cb4565b600160a060020a031660009081526020819052604090205490565b610149610208366004610c8a565b6105bc565b6100eb6105d5565b610114610223366004610c8a565b6105e4565b60075461015e90600160a060020a031681565b610114610249366004610c8a565b610665565b61012861025c366004610d2b565b610673565b60606003805461027090610d5e565b80601f016020809104026020016040519081016040528092919081815260200182805461029c90610d5e565b80156102e95780601f106102be576101008083540402835291602001916102e9565b820191906000526020600020905b8154815290600101906020018083116102cc57829003601f168201915b5050505050905090565b60003361030181858561069e565b60019150505b92915050565b60065460a060020a900460ff16156103685760405160e560020a62461bcd0281526020600482015260136024820152606a60020a72105b1c9958591e481a5b9a5d1a585b1a5e99590260448201526064015b60405180910390fd5b600654600160a060020a031633146103c55760405160e560020a62461bcd02815260206004820152601c60248201527f4f6e6c79206465706c6f7965722063616e20696e697469616c697a6500000000604482015260640161035f565b6006805460a060020a60ff02191660a060020a17905560088054600160a060020a03909216600160a060020a0319909216919091179055565b60003361040c8582856107cf565b61041785858561084c565b506001949350505050565b61042a6109f0565b6000811161047d5760405160e560020a62461bcd02815260206004820152601d60248201527f416d6f756e74206d7573742062652067726561746572207468616e2030000000604482015260640161035f565b60075460085460405160e060020a6323b872dd028152336004820152600160a060020a039182166024820152604481018490529116906323b872dd906064016020604051808303816000875af11580156104db573d6000803e3d6000fd5b505050506040513d601f19601f820116820180604052508101906104ff9190610d9c565b6105445760405160e560020a62461bcd0281526020600482015260106024820152608160020a6f2a3930b739b332b9103330b4b632b21702604482015260640161035f565b61054e3382610a4c565b60405181815233907f30385c845b448a36257a6a1716e6ad2e1bc2cbe333cde1e69fe849ad6511adfe9060200160405180910390a261058d6001600555565b50565b6000336103018185856105a38383610673565b6105ad9190610dbe565b61069e565b61058d3382610afc565b6105c78233836107cf565b6105d18282610afc565b5050565b60606004805461027090610d5e565b600033816105f28286610673565b9050838110156106585760405160e560020a62461bcd02815260206004820152602560248201527f45524332303a2064656372656173656420616c6c6f77616e63652062656c6f77604482015260d860020a64207a65726f02606482015260840161035f565b610417828686840361069e565b60003361030181858561084c565b600160a060020a03918216600090815260016020908152604080832093909416825291909152205490565b600160a060020a0383166107065760405160e560020a62461bcd028152602060048201526024808201527f45524332303a20617070726f76652066726f6d20746865207a65726f20616464604482015260e060020a637265737302606482015260840161035f565b600160a060020a03821661076d5760405160e560020a62461bcd02815260206004820152602260248201527f45524332303a20617070726f766520746f20746865207a65726f206164647265604482015260f060020a61737302606482015260840161035f565b600160a060020a0383811660008181526001602090815260408083209487168084529482529182902085905590518481527f8c5be1e5ebec7d5bd14f71427d1e84f3dd0314c0f7b2291e5b200ac8c7c3b92591015b60405180910390a3505050565b60006107db8484610673565b9050600019811461084657818110156108395760405160e560020a62461bcd02815260206004820152601d60248201527f45524332303a20696e73756666696369656e7420616c6c6f77616e6365000000604482015260640161035f565b610846848484840361069e565b50505050565b600160a060020a0383166108b65760405160e560020a62461bcd02815260206004820152602560248201527f45524332303a207472616e736665722066726f6d20746865207a65726f206164604482015260d860020a64647265737302606482015260840161035f565b600160a060020a03821661091e5760405160e560020a62461bcd02815260206004820152602360248201527f45524332303a207472616e7366657220746f20746865207a65726f2061646472604482015260e860020a6265737302606482015260840161035f565b600160a060020a0383166000908152602081905260409020548181101561099c5760405160e560020a62461bcd02815260206004820152602660248201527f45524332303a207472616e7366657220616d6f756e7420657863656564732062604482015260d060020a65616c616e636502606482015260840161035f565b600160a060020a0384811660008181526020818152604080832087870390559387168083529184902080548701905592518581529092600080516020610de4833981519152910160405180910390a3610846565b600260055403610a455760405160e560020a62461bcd02815260206004820152601f60248201527f5265656e7472616e637947756172643a207265656e7472616e742063616c6c00604482015260640161035f565b6002600555565b600160a060020a038216610aa55760405160e560020a62461bcd02815260206004820152601f60248201527f45524332303a206d696e7420746f20746865207a65726f206164647265737300604482015260640161035f565b8060026000828254610ab79190610dbe565b9091555050600160a060020a03821660008181526020818152604080832080548601905551848152600080516020610de4833981519152910160405180910390a35050565b600160a060020a038216610b625760405160e560020a62461bcd02815260206004820152602160248201527f45524332303a206275726e2066726f6d20746865207a65726f20616464726573604482015260f860020a607302606482015260840161035f565b600160a060020a03821660009081526020819052604090205481811015610bdc5760405160e560020a62461bcd02815260206004820152602260248201527f45524332303a206275726e20616d6f756e7420657863656564732062616c616e604482015260f060020a61636502606482015260840161035f565b600160a060020a038316600081815260208181526040808320868603905560028054879003905551858152919291600080516020610de483398151915291016107c2565b600060208083528351808285015260005b81811015610c4d57858101830151858201604001528201610c31565b506000604082860101526040601f19601f8301168501019250505092915050565b8035600160a060020a0381168114610c8557600080fd5b919050565b60008060408385031215610c9d57600080fd5b610ca683610c6e565b946020939093013593505050565b600060208284031215610cc657600080fd5b610ccf82610c6e565b9392505050565b600080600060608486031215610ceb57600080fd5b610cf484610c6e565b9250610d0260208501610c6e565b9150604084013590509250925092565b600060208284031215610d2457600080fd5b5035919050565b60008060408385031215610d3e57600080fd5b610d4783610c6e565b9150610d5560208401610c6e565b90509250929050565b600281046001821680610d7257607f821691505b602082108103610d965760e060020a634e487b710260009081526022600452602490fd5b50919050565b600060208284031215610dae57600080fd5b81518015158114610ccf57600080fd5b808201808211156103075760e060020a634e487b710260009081526011600452602490fdfeddf252ad1be2c89b69c2b068fc378daa952ba7f163c4a11628f55a4df523b3efa264697066735822122007b21366d0c73082b9d00ad5774f7f39698afdf983f196548826d03e21db98cf64736f6c63430008130033",
  "immutableReferences": {},
  "source": "// SPDX-License-Identifier: MIT\r\n// CSX Escrow Contract v1\r\n\r\npragma solidity 0.8.19;\r\n\r\nimport \"@openzeppelin/contracts/token/ERC20/extensions/ERC20Burnable.sol\";\r\n\r\nimport {ReentrancyGuard} from \"./Interfaces.sol\";\r\n\r\ncontract EscrowedCSX is ERC20Burnable, ReentrancyGuard {\r\n    address deployer = msg.sender;\r\n    bool isInitialized = false;\r\n    IERC20 public csxToken;\r\n    IERC20 public vestingToken;\r\n\r\n    // uint256 public constant VESTING_PERIOD = 24 * 30 days;\r\n\r\n    // struct Vesting {\r\n    //     uint256 amount;\r\n    //     uint256 startTime;\r\n    // }\r\n\r\n    // mapping(address => Vesting) public vestings;\r\n\r\n    event Minted(address indexed user, uint256 amount);\r\n    event Claimed(address indexed user, uint256 amount);\r\n\r\n    constructor(address _csxToken) ERC20(\"Escrowed CSX\", \"eCSX\") {\r\n        csxToken = IERC20(_csxToken);\r\n    }\r\n\r\n    function init(address _vCSXToken) external {\r\n        require(!isInitialized, \"Already initialized\");\r\n        require(msg.sender == deployer, \"Only deployer can initialize\");\r\n        isInitialized = true;\r\n        vestingToken = IERC20(_vCSXToken);\r\n    }\r\n\r\n    function mintEscrow(uint256 _amount) external nonReentrant {\r\n        require(_amount > 0, \"Amount must be greater than 0\");\r\n        require(csxToken.transferFrom(msg.sender, address(vestingToken), _amount), 'Transfer failed.');\r\n        _mint(msg.sender, _amount);\r\n        // vestings[msg.sender] = Vesting(_amount, block.timestamp);\r\n        // handle vesting in vCSX contract\r\n        emit Minted(msg.sender, _amount);\r\n    }\r\n\r\n    // function claim() external nonReentrant {\r\n    //     require(vestings[msg.sender].amount > 0, \"No vested tokens found\");\r\n    //     require(block.timestamp >= vestings[msg.sender].startTime + VESTING_PERIOD, \"Vesting period not completed\");\r\n\r\n    //     uint256 amount = vestings[msg.sender].amount;\r\n    //     delete vestings[msg.sender];\r\n    //     _burn(msg.sender, amount);\r\n    //     csxToken.transfer(msg.sender, amount);\r\n    //     emit Claimed(msg.sender, amount);\r\n    // }\r\n}\r\n",
  "sourcePath": "C:\\Users\\Charl\\Documents\\Projects\\SteamMarket\\CSX\\csx-contracts\\contracts\\CSX\\EscrowedCSX.sol",
  "compiler": {
    "name": "solc",
    "version": "0.8.19+commit.7dd6d404.Emscripten.clang"
  },
  "schemaVersion": "3.4.3",
  "updatedAt": "2023-04-16T13:34:34.780Z",
  "networkType": "ethereum",
  "devdoc": {
    "events": {
      "Approval(address,address,uint256)": {
        "details": "Emitted when the allowance of a `spender` for an `owner` is set by a call to {approve}. `value` is the new allowance."
      },
      "Transfer(address,address,uint256)": {
        "details": "Emitted when `value` tokens are moved from one account (`from`) to another (`to`). Note that `value` may be zero."
      }
    },
    "kind": "dev",
    "methods": {
      "allowance(address,address)": {
        "details": "See {IERC20-allowance}."
      },
      "approve(address,uint256)": {
        "details": "See {IERC20-approve}. NOTE: If `amount` is the maximum `uint256`, the allowance is not updated on `transferFrom`. This is semantically equivalent to an infinite approval. Requirements: - `spender` cannot be the zero address."
      },
      "balanceOf(address)": {
        "details": "See {IERC20-balanceOf}."
      },
      "burn(uint256)": {
        "details": "Destroys `amount` tokens from the caller. See {ERC20-_burn}."
      },
      "burnFrom(address,uint256)": {
        "details": "Destroys `amount` tokens from `account`, deducting from the caller's allowance. See {ERC20-_burn} and {ERC20-allowance}. Requirements: - the caller must have allowance for ``accounts``'s tokens of at least `amount`."
      },
      "decimals()": {
        "details": "Returns the number of decimals used to get its user representation. For example, if `decimals` equals `2`, a balance of `505` tokens should be displayed to a user as `5.05` (`505 / 10 ** 2`). Tokens usually opt for a value of 18, imitating the relationship between Ether and Wei. This is the value {ERC20} uses, unless this function is overridden; NOTE: This information is only used for _display_ purposes: it in no way affects any of the arithmetic of the contract, including {IERC20-balanceOf} and {IERC20-transfer}."
      },
      "decreaseAllowance(address,uint256)": {
        "details": "Atomically decreases the allowance granted to `spender` by the caller. This is an alternative to {approve} that can be used as a mitigation for problems described in {IERC20-approve}. Emits an {Approval} event indicating the updated allowance. Requirements: - `spender` cannot be the zero address. - `spender` must have allowance for the caller of at least `subtractedValue`."
      },
      "increaseAllowance(address,uint256)": {
        "details": "Atomically increases the allowance granted to `spender` by the caller. This is an alternative to {approve} that can be used as a mitigation for problems described in {IERC20-approve}. Emits an {Approval} event indicating the updated allowance. Requirements: - `spender` cannot be the zero address."
      },
      "name()": {
        "details": "Returns the name of the token."
      },
      "symbol()": {
        "details": "Returns the symbol of the token, usually a shorter version of the name."
      },
      "totalSupply()": {
        "details": "See {IERC20-totalSupply}."
      },
      "transfer(address,uint256)": {
        "details": "See {IERC20-transfer}. Requirements: - `to` cannot be the zero address. - the caller must have a balance of at least `amount`."
      },
      "transferFrom(address,address,uint256)": {
        "details": "See {IERC20-transferFrom}. Emits an {Approval} event indicating the updated allowance. This is not required by the EIP. See the note at the beginning of {ERC20}. NOTE: Does not update the allowance if the current allowance is the maximum `uint256`. Requirements: - `from` and `to` cannot be the zero address. - `from` must have a balance of at least `amount`. - the caller must have allowance for ``from``'s tokens of at least `amount`."
      }
    },
    "version": 1
  },
  "userdoc": {
    "kind": "user",
    "methods": {},
    "version": 1
  }
}