{
  "contractName": "Keepers",
  "abi": [
    {
      "inputs": [
        {
          "internalType": "address",
          "name": "_council",
          "type": "address"
        },
        {
          "internalType": "address",
          "name": "_keeperNodeAddress",
          "type": "address"
        }
      ],
      "stateMutability": "nonpayable",
      "type": "constructor"
    },
    {
      "inputs": [],
      "name": "council",
      "outputs": [
        {
          "internalType": "address",
          "name": "",
          "type": "address"
        }
      ],
      "stateMutability": "view",
      "type": "function"
    },
    {
      "inputs": [
        {
          "internalType": "uint256",
          "name": "",
          "type": "uint256"
        }
      ],
      "name": "keepers",
      "outputs": [
        {
          "internalType": "address",
          "name": "",
          "type": "address"
        }
      ],
      "stateMutability": "view",
      "type": "function"
    },
    {
      "inputs": [
        {
          "internalType": "address",
          "name": "",
          "type": "address"
        }
      ],
      "name": "keepersIndex",
      "outputs": [
        {
          "internalType": "uint256",
          "name": "",
          "type": "uint256"
        }
      ],
      "stateMutability": "view",
      "type": "function"
    },
    {
      "inputs": [
        {
          "internalType": "address",
          "name": "_keeper",
          "type": "address"
        }
      ],
      "name": "indexOf",
      "outputs": [
        {
          "internalType": "uint256",
          "name": "",
          "type": "uint256"
        }
      ],
      "stateMutability": "view",
      "type": "function"
    },
    {
      "inputs": [
        {
          "internalType": "address",
          "name": "_keeper",
          "type": "address"
        }
      ],
      "name": "addKeeper",
      "outputs": [],
      "stateMutability": "nonpayable",
      "type": "function"
    },
    {
      "inputs": [
        {
          "internalType": "address",
          "name": "_keeper",
          "type": "address"
        }
      ],
      "name": "removeKeeper",
      "outputs": [],
      "stateMutability": "nonpayable",
      "type": "function"
    },
    {
      "inputs": [
        {
          "internalType": "address",
          "name": "_address",
          "type": "address"
        }
      ],
      "name": "isKeeperNode",
      "outputs": [
        {
          "internalType": "bool",
          "name": "",
          "type": "bool"
        }
      ],
      "stateMutability": "view",
      "type": "function"
    },
    {
      "inputs": [
        {
          "internalType": "address",
          "name": "_newAddres",
          "type": "address"
        }
      ],
      "name": "changeKeeperNode",
      "outputs": [],
      "stateMutability": "nonpayable",
      "type": "function"
    },
    {
      "inputs": [
        {
          "internalType": "address",
          "name": "_newCouncil",
          "type": "address"
        }
      ],
      "name": "changeCouncil",
      "outputs": [],
      "stateMutability": "nonpayable",
      "type": "function"
    },
    {
      "inputs": [
        {
          "internalType": "address",
          "name": "_address",
          "type": "address"
        }
      ],
      "name": "isCouncil",
      "outputs": [
        {
          "internalType": "bool",
          "name": "",
          "type": "bool"
        }
      ],
      "stateMutability": "view",
      "type": "function"
    }
  ],
  "bytecode": "0x608060405234801561001057600080fd5b506040516106c73803806106c783398101604081905261002f916100b0565b60028054600160a060020a03938416600160a060020a03199182161790915560018054808201825560009182527fb10e2d527612073b26eecdfd717e6a320cf44b4afac2b0732d9fcbe2b7fa0cf60180548316905580549290931691161790556100e3565b8051600160a060020a03811681146100ab57600080fd5b919050565b600080604083850312156100c357600080fd5b6100cc83610094565b91506100da60208401610094565b90509250929050565b6105d5806100f26000396000f3fe608060405234801561001057600080fd5b50600436106100bb576000357c010000000000000000000000000000000000000000000000000000000090048063943ad88011610083578063943ad880146101415780639aa360ec14610164578063ba9de0e914610177578063e2c6d41c146101a2578063fd6aad25146101b557600080fd5b806302c3b436146100c057806314ae9f2e146100d55780633cf9a4ca146100e85780634032b72b146100fb57806354fecea51461010e575b600080fd5b6100d36100ce3660046104e7565b6101de565b005b6100d36100e33660046104e7565b610224565b6100d36100f63660046104e7565b61031a565b6100d36101093660046104e7565b610360565b61012e61011c3660046104e7565b60036020526000908152604090205481565b6040519081526020015b60405180910390f35b61015461014f3660046104e7565b610475565b6040519015158152602001610138565b6101546101723660046104e7565b61049c565b61018a610185366004610517565b6104bd565b604051600160a060020a039091168152602001610138565b60025461018a90600160a060020a031681565b61012e6101c33660046104e7565b600160a060020a031660009081526003602052604090205490565b600254600160a060020a031633146101f557600080fd5b6002805473ffffffffffffffffffffffffffffffffffffffff1916600160a060020a0392909216919091179055565b600254600160a060020a0316331461023b57600080fd5b600160a060020a038116600090815260036020526040812054908190036102c3576040517f08c379a000000000000000000000000000000000000000000000000000000000815260206004820152600c60248201527f4e6f742061204b6565706572000000000000000000000000000000000000000060448201526064015b60405180910390fd5b600160a060020a03821660009081526003602052604081205560018054829081106102f0576102f0610530565b6000918252602090912001805473ffffffffffffffffffffffffffffffffffffffff191690555050565b600254600160a060020a0316331461033157600080fd5b6000805473ffffffffffffffffffffffffffffffffffffffff1916600160a060020a0392909216919091179055565b600254600160a060020a0316331461037757600080fd5b600160a060020a038116600090815260036020526040902054156103f7576040517f08c379a000000000000000000000000000000000000000000000000000000000815260206004820152601560248201527f4b656570657220616c726561647920657869737473000000000000000000000060448201526064016102ba565b60018054808201825560008290527fb10e2d527612073b26eecdfd717e6a320cf44b4afac2b0732d9fcbe2b7fa0cf601805473ffffffffffffffffffffffffffffffffffffffff1916600160a060020a0384161790558054610459919061055f565b600160a060020a03909116600090815260036020526040902055565b60008054600160a060020a039081169083160361049457506001919050565b506000919050565b600254600090600160a060020a039081169083160361049457506001919050565b600181815481106104cd57600080fd5b600091825260209091200154600160a060020a0316905081565b6000602082840312156104f957600080fd5b8135600160a060020a038116811461051057600080fd5b9392505050565b60006020828403121561052957600080fd5b5035919050565b7f4e487b7100000000000000000000000000000000000000000000000000000000600052603260045260246000fd5b81810381811115610599577f4e487b7100000000000000000000000000000000000000000000000000000000600052601160045260246000fd5b9291505056fea26469706673582212206aed1f2e694d3ad85bc1b25d00707b019021aab0bc5aa93b4ac2a5b4f98ca8b864736f6c63430008130033",
  "immutableReferences": {},
  "source": "//SPDX-License-Identifier: UNLICENSED\r\npragma solidity 0.8.19;\r\n\r\ncontract Keepers {\r\n    address keeperNodeAddress;\r\n    address[] public keepers;\r\n    address public council;\r\n    mapping(address => uint256) public keepersIndex;\r\n\r\n    constructor(address _council, address _keeperNodeAddress) {\r\n        council = _council;\r\n        // Mocks index 0 to require(indexOf(_keeper) == 0)\r\n        keepers.push(address(0));\r\n        keeperNodeAddress = _keeperNodeAddress;\r\n    }\r\n\r\n    modifier onlyCouncil() {\r\n        require(msg.sender == council);\r\n        _;\r\n    }\r\n\r\n    function indexOf(address _keeper) public view returns (uint256) {\r\n        return keepersIndex[_keeper];\r\n    }\r\n\r\n    function addKeeper(address _keeper) external onlyCouncil {\r\n        require(indexOf(_keeper) == 0, \"Keeper already exists\");\r\n        keepers.push(_keeper);\r\n        keepersIndex[_keeper] = keepers.length - 1;\r\n    }\r\n\r\n    function removeKeeper(address _keeper) external onlyCouncil {\r\n        uint256 index = keepersIndex[_keeper];\r\n        require(index != 0, \"Not a Keeper\");\r\n        delete keepersIndex[_keeper];\r\n        delete keepers[index];\r\n    }\r\n\r\n    function isKeeperNode(address _address) external view returns (bool) {\r\n        if (_address == keeperNodeAddress) {\r\n            return true;\r\n        } else {\r\n            return false;\r\n        }\r\n    }\r\n\r\n    function changeKeeperNode(address _newAddres) external onlyCouncil {\r\n        keeperNodeAddress = _newAddres;\r\n    }\r\n\r\n    modifier onlyKeepers() {\r\n        require(indexOf(msg.sender) != 0);\r\n        _;\r\n    }\r\n\r\n    function changeCouncil(address _newCouncil) public onlyCouncil {\r\n        council = _newCouncil;\r\n    }\r\n\r\n    function isCouncil(address _address) external view returns (bool) {\r\n        if(_address == council){\r\n            return true;\r\n        } else {\r\n            return false;\r\n        }\r\n    }\r\n}\r\n",
  "sourcePath": "C:\\Users\\Charl\\Documents\\Projects\\SteamMarket\\CSX\\csx-contracts\\contracts\\Keepers\\Keepers.sol",
  "compiler": {
    "name": "solc",
    "version": "0.8.19+commit.7dd6d404.Emscripten.clang"
  },
  "schemaVersion": "3.4.3",
  "updatedAt": "2023-05-23T09:33:51.170Z",
  "devdoc": {
    "kind": "dev",
    "methods": {},
    "version": 1
  },
  "userdoc": {
    "kind": "user",
    "methods": {},
    "version": 1
  }
}