{
  "contractName": "Keepers",
  "abi": [
    {
      "inputs": [
        {
          "internalType": "address",
          "name": "_council",
          "type": "address"
        },
        {
          "internalType": "address",
          "name": "_keeperNodeAddress",
          "type": "address"
        }
      ],
      "stateMutability": "nonpayable",
      "type": "constructor"
    },
    {
      "inputs": [],
      "name": "council",
      "outputs": [
        {
          "internalType": "address",
          "name": "",
          "type": "address"
        }
      ],
      "stateMutability": "view",
      "type": "function",
      "constant": true
    },
    {
      "inputs": [
        {
          "internalType": "uint256",
          "name": "",
          "type": "uint256"
        }
      ],
      "name": "keepers",
      "outputs": [
        {
          "internalType": "address",
          "name": "",
          "type": "address"
        }
      ],
      "stateMutability": "view",
      "type": "function",
      "constant": true
    },
    {
      "inputs": [
        {
          "internalType": "address",
          "name": "",
          "type": "address"
        }
      ],
      "name": "keepersIndex",
      "outputs": [
        {
          "internalType": "uint256",
          "name": "",
          "type": "uint256"
        }
      ],
      "stateMutability": "view",
      "type": "function",
      "constant": true
    },
    {
      "inputs": [
        {
          "internalType": "address",
          "name": "_keeper",
          "type": "address"
        }
      ],
      "name": "indexOf",
      "outputs": [
        {
          "internalType": "uint256",
          "name": "",
          "type": "uint256"
        }
      ],
      "stateMutability": "view",
      "type": "function",
      "constant": true
    },
    {
      "inputs": [
        {
          "internalType": "address",
          "name": "_keeper",
          "type": "address"
        }
      ],
      "name": "addKeeper",
      "outputs": [],
      "stateMutability": "nonpayable",
      "type": "function"
    },
    {
      "inputs": [
        {
          "internalType": "address",
          "name": "_keeper",
          "type": "address"
        }
      ],
      "name": "removeKeeper",
      "outputs": [],
      "stateMutability": "nonpayable",
      "type": "function"
    },
    {
      "inputs": [
        {
          "internalType": "address",
          "name": "_address",
          "type": "address"
        }
      ],
      "name": "isKeeperNode",
      "outputs": [
        {
          "internalType": "bool",
          "name": "",
          "type": "bool"
        }
      ],
      "stateMutability": "view",
      "type": "function",
      "constant": true
    },
    {
      "inputs": [
        {
          "internalType": "address",
          "name": "_newAddres",
          "type": "address"
        }
      ],
      "name": "changeKeeperNode",
      "outputs": [],
      "stateMutability": "nonpayable",
      "type": "function"
    },
    {
      "inputs": [
        {
          "internalType": "address",
          "name": "_newCouncil",
          "type": "address"
        }
      ],
      "name": "changeCouncil",
      "outputs": [],
      "stateMutability": "nonpayable",
      "type": "function"
    },
    {
      "inputs": [
        {
          "internalType": "address",
          "name": "_address",
          "type": "address"
        }
      ],
      "name": "isCouncil",
      "outputs": [
        {
          "internalType": "bool",
          "name": "",
          "type": "bool"
        }
      ],
      "stateMutability": "view",
      "type": "function",
      "constant": true
    }
  ],
  "bytecode": "0x608060405234801561001057600080fd5b506040516105f33803806105f383398101604081905261002f916100b0565b60028054600160a060020a03938416600160a060020a03199182161790915560018054808201825560009182527fb10e2d527612073b26eecdfd717e6a320cf44b4afac2b0732d9fcbe2b7fa0cf60180548316905580549290931691161790556100e3565b8051600160a060020a03811681146100ab57600080fd5b919050565b600080604083850312156100c357600080fd5b6100cc83610094565b91506100da60208401610094565b90509250929050565b610501806100f26000396000f3fe608060405234801561001057600080fd5b50600436106100915760e060020a600035046302c3b436811461009657806314ae9f2e146100ab5780633cf9a4ca146100be5780634032b72b146100d157806354fecea5146100e4578063943ad880146101175780639aa360ec1461013a578063ba9de0e91461014d578063e2c6d41c14610178578063fd6aad251461018b575b600080fd5b6100a96100a436600461043d565b61019e565b005b6100a96100b936600461043d565b6101d7565b6100a96100cc36600461043d565b61029b565b6100a96100df36600461043d565b6102d4565b6101046100f236600461043d565b60036020526000908152604090205481565b6040519081526020015b60405180910390f35b61012a61012536600461043d565b6103b0565b604051901515815260200161010e565b61012a61014836600461043d565b6103d7565b61016061015b36600461046d565b6103f8565b604051600160a060020a03909116815260200161010e565b60025461016090600160a060020a031681565b61010461019936600461043d565b610422565b600254600160a060020a031633146101b557600080fd5b60028054600160a060020a031916600160a060020a0392909216919091179055565b600254600160a060020a031633146101ee57600080fd5b600160a060020a038116600090815260036020526040812054908190036102515760405160e560020a62461bcd02815260206004820152600c602482015260a160020a6b2737ba10309025b2b2b832b90260448201526064015b60405180910390fd5b600160a060020a038216600090815260036020526040812055600180548290811061027e5761027e610486565b60009182526020909120018054600160a060020a03191690555050565b600254600160a060020a031633146102b257600080fd5b60008054600160a060020a031916600160a060020a0392909216919091179055565b600254600160a060020a031633146102eb57600080fd5b6102f481610422565b1561033f5760405160e560020a62461bcd0281526020600482015260156024820152605860020a744b656570657220616c726561647920657869737473026044820152606401610248565b60018054808201825560008290527fb10e2d527612073b26eecdfd717e6a320cf44b4afac2b0732d9fcbe2b7fa0cf6018054600160a060020a031916600160a060020a038416179055805461039491906104a0565b600160a060020a03909116600090815260036020526040902055565b60008054600160a060020a03908116908316036103cf57506001919050565b506000919050565b600254600090600160a060020a03908116908316036103cf57506001919050565b6001818154811061040857600080fd5b600091825260209091200154600160a060020a0316905081565b600160a060020a031660009081526003602052604090205490565b60006020828403121561044f57600080fd5b8135600160a060020a038116811461046657600080fd5b9392505050565b60006020828403121561047f57600080fd5b5035919050565b60e060020a634e487b710260009081526032600452602490fd5b818103818111156104c55760e060020a634e487b710260009081526011600452602490fd5b9291505056fea264697066735822122039bfe415636b11e40060516e39ea88f6a94fae52090e8354123caecf970d900b64736f6c63430008130033",
  "immutableReferences": {},
  "source": "//SPDX-License-Identifier: UNLICENSED\r\npragma solidity 0.8.19;\r\n\r\ncontract Keepers {\r\n    address keeperNodeAddress;\r\n    address[] public keepers;\r\n    address public council;\r\n    mapping(address => uint256) public keepersIndex;\r\n\r\n    constructor(address _council, address _keeperNodeAddress) {\r\n        council = _council;\r\n        // Mocks index 0\r\n        keepers.push(address(0));\r\n        keeperNodeAddress = _keeperNodeAddress;\r\n    }\r\n\r\n    modifier onlyCouncil() {\r\n        require(msg.sender == council);\r\n        _;\r\n    }\r\n\r\n    function indexOf(address _keeper) public view returns (uint256) {\r\n        return keepersIndex[_keeper];\r\n    }\r\n\r\n    function addKeeper(address _keeper) external onlyCouncil {\r\n        require(indexOf(_keeper) == 0, \"Keeper already exists\");\r\n        keepers.push(_keeper);\r\n        keepersIndex[_keeper] = keepers.length - 1;\r\n    }\r\n\r\n    function removeKeeper(address _keeper) external onlyCouncil {\r\n        uint256 index = keepersIndex[_keeper];\r\n        require(index != 0, \"Not a Keeper\");\r\n        delete keepersIndex[_keeper];\r\n        delete keepers[index];\r\n    }\r\n\r\n    function isKeeperNode(address _address) external view returns (bool) {\r\n        if (_address == keeperNodeAddress) {\r\n            return true;\r\n        } else {\r\n            return false;\r\n        }\r\n    }\r\n\r\n    function changeKeeperNode(address _newAddres) external onlyCouncil {\r\n        keeperNodeAddress = _newAddres;\r\n    }\r\n\r\n    modifier onlyKeepers() {\r\n        require(indexOf(msg.sender) != 0);\r\n        _;\r\n    }\r\n\r\n    function changeCouncil(address _newCouncil) public onlyCouncil {\r\n        council = _newCouncil;\r\n    }\r\n\r\n    function isCouncil(address _address) external view returns (bool) {\r\n        if(_address == council){\r\n            return true;\r\n        } else {\r\n            return false;\r\n        }\r\n    }\r\n}\r\n",
  "sourcePath": "C:\\Users\\Charl\\Documents\\Projects\\SteamMarket\\CSX\\csx-contracts\\contracts\\Keepers\\Keepers.sol",
  "compiler": {
    "name": "solc",
    "version": "0.8.19+commit.7dd6d404.Emscripten.clang"
  },
  "schemaVersion": "3.4.3",
  "updatedAt": "2023-04-14T13:53:29.714Z",
  "networkType": "ethereum",
  "devdoc": {
    "kind": "dev",
    "methods": {},
    "version": 1
  },
  "userdoc": {
    "kind": "user",
    "methods": {},
    "version": 1
  }
}