{
  "contractName": "NetValueCalculator",
  "abi": [
    {
      "inputs": [
        {
          "internalType": "uint256",
          "name": "transactionValue",
          "type": "uint256"
        },
        {
          "internalType": "bool",
          "name": "isBuyerAffiliated",
          "type": "bool"
        },
        {
          "internalType": "uint256",
          "name": "baseFeePercent",
          "type": "uint256"
        },
        {
          "internalType": "uint256",
          "name": "discountRatio",
          "type": "uint256"
        }
      ],
      "name": "calculateNetValue",
      "outputs": [
        {
          "internalType": "uint256",
          "name": "buyerNetValue",
          "type": "uint256"
        },
        {
          "internalType": "uint256",
          "name": "affililatorRebate",
          "type": "uint256"
        },
        {
          "internalType": "uint256",
          "name": "holdersAmount",
          "type": "uint256"
        },
        {
          "internalType": "uint256",
          "name": "discountedFee",
          "type": "uint256"
        }
      ],
      "stateMutability": "pure",
      "type": "function"
    }
  ],
  "bytecode": "0x608060405234801561001057600080fd5b5061025e806100206000396000f3fe608060405234801561001057600080fd5b506004361061002e5760e060020a600035046342ba2f248114610033575b600080fd5b610046610041366004610176565b61006a565b60408051948552602085019390935291830152606082015260800160405180910390f35b60008060008060328511156100c45760405160e560020a62461bcd0281526020600482015260166024820152605060020a75496e76616c696420646973636f756e7420726174696f02604482015260640160405180910390fd5b600060646100d2888b6101d2565b6100dc91906101ef565b905087156101245760646100f087836101d2565b6100fa91906101ef565b91506064610109876032610215565b61011390836101d2565b61011d91906101ef565b935061012d565b60009150600093505b60008461013a8484610215565b6101449190610215565b9050610150818b610215565b95508461015d8484610215565b6101679190610215565b93505050945094509450949050565b6000806000806080858703121561018c57600080fd5b84359350602085013580151581146101a357600080fd5b93969395505050506040820135916060013590565b60e060020a634e487b710260009081526011600452602490fd5b80820281158282048414176101e9576101e96101b8565b92915050565b6000826102105760e060020a634e487b710260009081526012600452602490fd5b500490565b818103818111156101e9576101e96101b856fea2646970667358221220caa46fa03488535f4afd08cb33157e6384f7ab1ae44c9273923afadad87e428564736f6c63430008130033",
  "immutableReferences": {},
  "source": "// SPDX-License-Identifier: MIT\r\npragma solidity ^0.8.0;\r\n\r\n// The NetValueCalculator contract calculates the net value for each party involved in a transaction:\r\n// the buyer, the affililator, and the token holders.\r\ncontract NetValueCalculator {\r\n    // The calculateNetValue function calculates the net value for each party involved in a transaction\r\n    // based on the transaction value, whether the buyer is affiliated, the base fee percentage, and the ratio between the discount\r\n    // and rebate percentages.\r\n    //\r\n    // Example:\r\n    // --------\r\n    // Assuming the following input values:\r\n    // - transactionValue = 1,000 tokens\r\n    // - isBuyerAffiliated = true\r\n    // - baseFeePercent = 2\r\n    // - discountRatio = 10\r\n    //\r\n    // Steps:\r\n    // 1. Calculate the base fee:\r\n    //    - baseFee = (transactionValue * baseFeePercent) / 100\r\n    //    - baseFee = (1,000 * 2) / 100 = 20 tokens\r\n    //\r\n    // 2. Calculate the discounted fee and affililator rebate:\r\n    //    - discountedFee = (baseFee * discountRatio) / 100\r\n    //    - discountedFee = (20 * 10) / 100 = 2 tokens\r\n    //    - affililatorRebate = (baseFee * (50 - discountRatio)) / 100\r\n    //    - affililatorRebate = (20 * (50 - 10)) / 100 = 8 tokens\r\n    //\r\n    // 3. Calculate the net value for the buyer, the affililator, and the token holders:\r\n    //    - buyerNetValue = transactionValue - baseFee + discountedFee\r\n    //    - buyerNetValue = 1,000 - 20 + 2 = 982 tokens\r\n    //    - holdersAmount = baseFee - discountedFee - affililatorRebate\r\n    //    - holdersAmount = 20 - 2 - 8 = 10 tokens\r\n    //\r\n    function calculateNetValue(\r\n        uint256 transactionValue,\r\n        bool isBuyerAffiliated,\r\n        uint256 baseFeePercent,\r\n        uint256 discountRatio // Ratio between the discount and rebate percentages\r\n    )\r\n        external\r\n        pure\r\n        returns (\r\n            uint256 buyerNetValue, // Net value for the buyer\r\n            uint256 affililatorRebate, // Rebate for the affililator\r\n            uint256 holdersAmount, // Remaining amount for token holders\r\n            uint256 discountedFee // Discounted fee for the buyer if they are affiliated\r\n        )\r\n    {\r\n        require(discountRatio <= 50, \"Invalid discount ratio\");\r\n\r\n        // Calculate the base fee\r\n        uint256 baseFee = (transactionValue * baseFeePercent) / 100;\r\n\r\n        // Calculate the discounted fee and affililator rebate if the buyer is affiliated\r\n        if (isBuyerAffiliated) {\r\n            discountedFee = (baseFee * discountRatio) / 100;\r\n            affililatorRebate = (baseFee * (50 - discountRatio)) / 100;\r\n        } else {\r\n            discountedFee = 0;\r\n            affililatorRebate = 0;\r\n        }\r\n\r\n        // Calculate the total fee, net value for the buyer, and the remaining amount for token holders\r\n        uint256 totalFee = baseFee - discountedFee - affililatorRebate;\r\n\r\n        // Calculate the net value for the buyer by subtracting the total fee from the transaction value\r\n        buyerNetValue = transactionValue - totalFee;\r\n\r\n        // Calculate the remaining amount for token holders by subtracting the discounted fee and affililator rebate from the base fee\r\n        holdersAmount = baseFee - discountedFee - affililatorRebate;\r\n    }\r\n}\r\n",
  "sourcePath": "C:\\Users\\Charl\\Documents\\Projects\\SteamMarket\\CSX\\csx-contracts\\contracts\\Referrals\\NetValueCalculator.sol",
  "compiler": {
    "name": "solc",
    "version": "0.8.19+commit.7dd6d404.Emscripten.clang"
  },
  "schemaVersion": "3.4.3",
  "updatedAt": "2023-04-19T09:26:27.728Z",
  "devdoc": {
    "kind": "dev",
    "methods": {},
    "version": 1
  },
  "userdoc": {
    "kind": "user",
    "methods": {},
    "version": 1
  }
}