{
  "contractName": "NetValueCalculator",
  "abi": [
    {
      "inputs": [
        {
          "internalType": "uint256",
          "name": "fullItemPrice",
          "type": "uint256"
        },
        {
          "internalType": "bool",
          "name": "isBuyerAffiliated",
          "type": "bool"
        },
        {
          "internalType": "uint256",
          "name": "baseFeePercent",
          "type": "uint256"
        },
        {
          "internalType": "uint256",
          "name": "discountRatio",
          "type": "uint256"
        }
      ],
      "name": "calculateNetValue",
      "outputs": [
        {
          "internalType": "uint256",
          "name": "buyerNetPrice",
          "type": "uint256"
        },
        {
          "internalType": "uint256",
          "name": "sellerNetProceeds",
          "type": "uint256"
        },
        {
          "internalType": "uint256",
          "name": "affiliatorNetReward",
          "type": "uint256"
        },
        {
          "internalType": "uint256",
          "name": "tokenHoldersNetReward",
          "type": "uint256"
        }
      ],
      "stateMutability": "pure",
      "type": "function"
    }
  ],
  "bytecode": "0x608060405234801561001057600080fd5b506102af806100206000396000f3fe608060405234801561001057600080fd5b5060043610610047577c0100000000000000000000000000000000000000000000000000000000600035046342ba2f24811461004c575b600080fd5b61005f61005a36600461019d565b610083565b60408051948552602085019390935291830152606082015260800160405180910390f35b60008060008060328511156100f8576040517f08c379a000000000000000000000000000000000000000000000000000000000815260206004820152601660248201527f496e76616c696420646973636f756e7420726174696f00000000000000000000604482015260640160405180910390fd5b60006064610106888b61020e565b610110919061022b565b90506000881561015a576064610126888461020e565b610130919061022b565b9050606461013f886032610266565b610149908461020e565b610153919061022b565b9350610161565b5060009250825b61016b818b610266565b9550610177828b610266565b9450836101848284610266565b61018e9190610266565b92505050945094509450949050565b600080600080608085870312156101b357600080fd5b84359350602085013580151581146101ca57600080fd5b93969395505050506040820135916060013590565b7f4e487b7100000000000000000000000000000000000000000000000000000000600052601160045260246000fd5b8082028115828204841417610225576102256101df565b92915050565b600082610261577f4e487b7100000000000000000000000000000000000000000000000000000000600052601260045260246000fd5b500490565b81810381811115610225576102256101df56fea2646970667358221220329746025df1725ab14fda6f39c27ce9796225fe2e3138dafa6929ce643003f164736f6c63430008130033",
  "immutableReferences": {},
  "source": "// SPDX-License-Identifier: MIT\r\npragma solidity ^0.8.0;\r\n\r\n// The NetValueCalculator contract calculates the net value for each party involved in a transaction:\r\n// the buyer, the seller, the affiliator, and the token holders.\r\ncontract NetValueCalculator {\r\n    // The calculateNetValue function calculates the net value for each party involved in a transaction\r\n    // based on the full item price, whether the buyer is affiliated, the base fee percentage, and the ratio between the discount\r\n    // and rebate percentages.\r\n    //\r\n    // Example:\r\n    // --------\r\n    // Assuming the following input values:\r\n    // - fullItemPrice = 1,000 tokens\r\n    // - isBuyerAffiliated = true\r\n    // - baseFeePercent = 2\r\n    // - discountRatio = 10\r\n    //\r\n    // Steps:\r\n    // 1. Calculate the base fee:\r\n    //    - baseFee = (fullItemPrice * baseFeePercent) / 100\r\n    //    - baseFee = (1,000 * 2) / 100 = 20 tokens\r\n    //\r\n    // 2. Calculate the discounted fee and affiliator reward:\r\n    //    - discountedFee = (baseFee * discountRatio) / 100\r\n    //    - discountedFee = (20 * 10) / 100 = 2 tokens\r\n    //    - affiliatorReward = (baseFee * (50 - discountRatio)) / 100\r\n    //    - affiliatorReward = (20 * (50 - 10)) / 100 = 8 tokens\r\n    //\r\n    // 3. Calculate the net value for the buyer, the seller, the affiliator, and the token holders:\r\n    //    - buyerNetPrice = fullItemPrice - discountedFee\r\n    //    - buyerNetPrice = 1,000 - 2 = 998 tokens\r\n    //    - sellerNetProceeds = fullItemPrice - baseFee\r\n    //    - sellerNetProceeds = 1,000 - 20 = 980 tokens\r\n    //    - tokenHoldersNetReward = baseFee - discountedFee - affiliatorReward\r\n    //    - tokenHoldersNetReward = 20 - 2 - 8 = 10 tokens\r\n    //\r\n    function calculateNetValue(\r\n        uint256 fullItemPrice,\r\n        bool isBuyerAffiliated,\r\n        uint256 baseFeePercent,\r\n        uint256 discountRatio // Ratio between the discount and reward percentages\r\n    )\r\n        external\r\n        pure\r\n        returns (\r\n            uint256 buyerNetPrice, // Net price for the buyer\r\n            uint256 sellerNetProceeds, // Net proceeds for the seller\r\n            uint256 affiliatorNetReward, // Net reward for the affiliator\r\n            uint256 tokenHoldersNetReward // Net reward for token holders\r\n        )\r\n    {\r\n        require(discountRatio <= 50, \"Invalid discount ratio\");\r\n\r\n        // Calculate the base fee\r\n        uint256 baseFee = (fullItemPrice * baseFeePercent) / 100;\r\n\r\n        uint256 discountedFee;\r\n        // Calculate the discounted fee and affiliator reward if the buyer is affiliated\r\n        if (isBuyerAffiliated) {\r\n            discountedFee = (baseFee * discountRatio) / 100;\r\n            affiliatorNetReward = (baseFee * (50 - discountRatio)) / 100;\r\n        } else {\r\n            discountedFee = 0;\r\n            affiliatorNetReward = 0;\r\n        }\r\n\r\n        // Calculate the buyer net price\r\n        buyerNetPrice = fullItemPrice - discountedFee;\r\n\r\n        // Calculate the seller net proceeds\r\n        sellerNetProceeds = fullItemPrice - baseFee;\r\n        // Calculate the token holders net reward\r\n        tokenHoldersNetReward = baseFee - discountedFee - affiliatorNetReward;\r\n    }\r\n}\r\n",
  "sourcePath": "C:\\Users\\Charl\\Documents\\Projects\\SteamMarket\\CSX\\csx-contracts\\contracts\\Referrals\\NetValueCalculator.sol",
  "compiler": {
    "name": "solc",
    "version": "0.8.19+commit.7dd6d404.Emscripten.clang"
  },
  "schemaVersion": "3.4.3",
  "updatedAt": "2023-05-12T09:06:05.344Z",
  "devdoc": {
    "kind": "dev",
    "methods": {},
    "version": 1
  },
  "userdoc": {
    "kind": "user",
    "methods": {},
    "version": 1
  }
}