{
  "contractName": "ReferralRegistry",
  "abi": [
    {
      "inputs": [],
      "stateMutability": "nonpayable",
      "type": "constructor"
    },
    {
      "anonymous": false,
      "inputs": [
        {
          "indexed": true,
          "internalType": "address",
          "name": "contractAddress",
          "type": "address"
        },
        {
          "indexed": true,
          "internalType": "bytes32",
          "name": "referralCode",
          "type": "bytes32"
        },
        {
          "indexed": true,
          "internalType": "address",
          "name": "owner",
          "type": "address"
        },
        {
          "indexed": false,
          "internalType": "uint256",
          "name": "rebate",
          "type": "uint256"
        }
      ],
      "name": "ReferralCodeRebateUpdated",
      "type": "event"
    },
    {
      "anonymous": false,
      "inputs": [
        {
          "indexed": true,
          "internalType": "bytes32",
          "name": "referralCode",
          "type": "bytes32"
        },
        {
          "indexed": true,
          "internalType": "address",
          "name": "owner",
          "type": "address"
        },
        {
          "indexed": false,
          "internalType": "uint256",
          "name": "ownerRatio",
          "type": "uint256"
        },
        {
          "indexed": false,
          "internalType": "uint256",
          "name": "buyerRatio",
          "type": "uint256"
        }
      ],
      "name": "ReferralCodeRegistered",
      "type": "event"
    },
    {
      "inputs": [
        {
          "internalType": "uint256",
          "name": "transactionValue",
          "type": "uint256"
        },
        {
          "internalType": "bool",
          "name": "isBuyerAffiliated",
          "type": "bool"
        },
        {
          "internalType": "uint256",
          "name": "baseFeePercent",
          "type": "uint256"
        },
        {
          "internalType": "uint256",
          "name": "discountRatio",
          "type": "uint256"
        }
      ],
      "name": "calculateNetValue",
      "outputs": [
        {
          "internalType": "uint256",
          "name": "buyerNetValue",
          "type": "uint256"
        },
        {
          "internalType": "uint256",
          "name": "affililatorRebate",
          "type": "uint256"
        },
        {
          "internalType": "uint256",
          "name": "holdersAmount",
          "type": "uint256"
        },
        {
          "internalType": "uint256",
          "name": "discountedFee",
          "type": "uint256"
        }
      ],
      "stateMutability": "pure",
      "type": "function",
      "constant": true
    },
    {
      "inputs": [],
      "name": "factory",
      "outputs": [
        {
          "internalType": "contract ITradeFactory",
          "name": "",
          "type": "address"
        }
      ],
      "stateMutability": "view",
      "type": "function",
      "constant": true
    },
    {
      "inputs": [
        {
          "internalType": "address",
          "name": "_factory",
          "type": "address"
        }
      ],
      "name": "initFactory",
      "outputs": [],
      "stateMutability": "nonpayable",
      "type": "function"
    },
    {
      "inputs": [
        {
          "internalType": "address",
          "name": "contractAddress",
          "type": "address"
        },
        {
          "internalType": "bytes32",
          "name": "referralCode",
          "type": "bytes32"
        },
        {
          "internalType": "address",
          "name": "owner",
          "type": "address"
        },
        {
          "internalType": "uint256",
          "name": "rebate",
          "type": "uint256"
        }
      ],
      "name": "emitReferralCodeRebateUpdated",
      "outputs": [],
      "stateMutability": "nonpayable",
      "type": "function"
    },
    {
      "inputs": [
        {
          "internalType": "bytes32",
          "name": "referralCode",
          "type": "bytes32"
        },
        {
          "internalType": "uint256",
          "name": "ownerRatio",
          "type": "uint256"
        },
        {
          "internalType": "uint256",
          "name": "buyerRatio",
          "type": "uint256"
        }
      ],
      "name": "registerReferralCode",
      "outputs": [],
      "stateMutability": "nonpayable",
      "type": "function"
    },
    {
      "inputs": [
        {
          "internalType": "bytes32",
          "name": "referralCode",
          "type": "bytes32"
        }
      ],
      "name": "getReferralInfo",
      "outputs": [
        {
          "components": [
            {
              "internalType": "address",
              "name": "owner",
              "type": "address"
            },
            {
              "internalType": "uint256",
              "name": "ownerRatio",
              "type": "uint256"
            },
            {
              "internalType": "uint256",
              "name": "buyerRatio",
              "type": "uint256"
            },
            {
              "internalType": "uint256",
              "name": "rebate",
              "type": "uint256"
            }
          ],
          "internalType": "struct ReferralRegistry.ReferralInfo",
          "name": "",
          "type": "tuple"
        }
      ],
      "stateMutability": "view",
      "type": "function",
      "constant": true
    },
    {
      "inputs": [
        {
          "internalType": "bytes32",
          "name": "referralCode",
          "type": "bytes32"
        }
      ],
      "name": "getReferralCodeOwner",
      "outputs": [
        {
          "internalType": "address",
          "name": "",
          "type": "address"
        }
      ],
      "stateMutability": "view",
      "type": "function",
      "constant": true
    },
    {
      "inputs": [
        {
          "internalType": "bytes32",
          "name": "referralCode",
          "type": "bytes32"
        }
      ],
      "name": "getReferralCodeRatios",
      "outputs": [
        {
          "internalType": "uint256",
          "name": "ownerRatio",
          "type": "uint256"
        },
        {
          "internalType": "uint256",
          "name": "buyerRatio",
          "type": "uint256"
        }
      ],
      "stateMutability": "view",
      "type": "function",
      "constant": true
    },
    {
      "inputs": [
        {
          "internalType": "bytes32",
          "name": "referralCode",
          "type": "bytes32"
        }
      ],
      "name": "isReferralCodeRegistered",
      "outputs": [
        {
          "internalType": "bool",
          "name": "",
          "type": "bool"
        }
      ],
      "stateMutability": "view",
      "type": "function",
      "constant": true
    }
  ],
  "bytecode": "0x608060405234801561001057600080fd5b5060018054600160a060020a031916331790556109f7806100326000396000f3fe608060405234801561001057600080fd5b50600436106100865760e060020a600035046342ba2f24811461008b57806389106fb9146100c35780638b15b5ef146100d8578063aa05c9e7146100eb578063c45a015514610126578063ed0fc5a914610146578063f2dbc32c1461016f578063f3c7c931146101be578063f7c7d6c5146101fe575b600080fd5b61009e6100993660046107d6565b610211565b6040805194855260208501939093529183015260608201526080015b60405180910390f35b6100d66100d136600461082f565b61031e565b005b6100d66100e6366004610851565b610375565b6101166100f9366004610895565b600090815260026020526040902054600160a060020a0316151590565b60405190151581526020016100ba565b60005461013990600160a060020a031681565b6040516100ba91906108ae565b610139610154366004610895565b600090815260026020526040902054600160a060020a031690565b61018261017d366004610895565b610499565b6040516100ba91908151600160a060020a0316815260208083015190820152604080830151908201526060918201519181019190915260800190565b6101e96101cc366004610895565b600090815260026020819052604090912060018101549101549091565b604080519283526020830191909152016100ba565b6100d661020c3660046108c2565b610518565b600080600080603285111561026c5760405160e560020a62461bcd0281526020600482015260166024820152605060020a75496e76616c696420646973636f756e7420726174696f0260448201526064015b60405180910390fd5b6000606461027a888b610908565b6102849190610925565b905087156102cc5760646102988783610908565b6102a29190610925565b915060646102b187603261094b565b6102bb9083610908565b6102c59190610925565b93506102d5565b60009150600093505b6000846102e2848461094b565b6102ec919061094b565b90506102f8818b61094b565b955084610305848461094b565b61030f919061094b565b93505050945094509450949050565b600154600160a060020a0316331461033557600080fd5b60005460a060020a900460ff161561034c57600080fd5b60008054600160a060020a03909216600160a860020a03199092169190911760a060020a179055565b8333600160a060020a0382161480156103fd575060005460405160e160020a6337211afb028152600160a060020a0390911690636e4235f6906103bc9084906004016108ae565b602060405180830381865afa1580156103d9573d6000803e3d6000fd5b505050506040513d601f19601f820116820180604052508101906103fd919061095e565b6104445760405160e560020a62461bcd0281526020600482015260126024820152607260020a711b9bdd081d1c9859194818dbdb9d1c9858dd026044820152606401610263565b82600160a060020a03168486600160a060020a03167f84f95a55acec50feacd9e29031e4d5722ae3cf755f3ba72b004f10eb8235fa978560405161048a91815260200190565b60405180910390a45050505050565b6104cd60405180608001604052806000600160a060020a031681526020016000815260200160008152602001600081525090565b5060009081526002602081815260409283902083516080810185528154600160a060020a03168152600182015492810192909252918201549281019290925260030154606082015290565b600083900361056c5760405160e560020a62461bcd02815260206004820152601e60248201527f526566657272616c20636f64652063616e6e6f7420626520656d7074792e00006044820152606401610263565b600083815260026020526040902054600160a060020a0316156105e15760405160e560020a62461bcd02815260206004820152602160248201527f526566657272616c20636f646520616c72656164792072656769737465726564604482015260f960020a6017026064820152608401610263565b6105eb818361097b565b60641461065a5760405160e560020a62461bcd02815260206004820152603160248201527f5468652073756d206f66206f776e6572526174696f20616e64206275796572526044820152607960020a7030ba34b79036bab9ba1031329018981817026064820152608401610263565b61066383610764565b156106c25760405160e560020a62461bcd028152602060048201526024808201527f526566657272616c20636f64652063616e6e6f7420636f6e7461696e20737061604482015260e160020a6331b2b997026064820152608401610263565b604080516080810182523380825260208083018681528385018681526000606086018181528a825260028086529188902096518754600160a060020a031916600160a060020a03909116178755925160018701559051908501555160039093019290925582518581529182018490529185917f390e3781b8eca6d1aa475fb7ff2575b00bf1acdbc5e05c02707a408a48170108910160405180910390a3505050565b6000805b60208110156107bc578281602081106107835761078361098e565b1a60f860020a02600160f860020a031916602060f860020a02036107aa5750600192915050565b806107b4816109a8565b915050610768565b50600092915050565b80151581146107d357600080fd5b50565b600080600080608085870312156107ec57600080fd5b8435935060208501356107fe816107c5565b93969395505050506040820135916060013590565b8035600160a060020a038116811461082a57600080fd5b919050565b60006020828403121561084157600080fd5b61084a82610813565b9392505050565b6000806000806080858703121561086757600080fd5b61087085610813565b93506020850135925061088560408601610813565b9396929550929360600135925050565b6000602082840312156108a757600080fd5b5035919050565b600160a060020a0391909116815260200190565b6000806000606084860312156108d757600080fd5b505081359360208301359350604090920135919050565b60e060020a634e487b710260009081526011600452602490fd5b808202811582820484141761091f5761091f6108ee565b92915050565b6000826109465760e060020a634e487b710260009081526012600452602490fd5b500490565b8181038181111561091f5761091f6108ee565b60006020828403121561097057600080fd5b815161084a816107c5565b8082018082111561091f5761091f6108ee565b60e060020a634e487b710260009081526032600452602490fd5b6000600182016109ba576109ba6108ee565b506001019056fea264697066735822122045c12c6ceedcd77dff5e12f9125971376362006f1e769f7a677816d7a842e0f764736f6c63430008130033",
  "immutableReferences": {},
  "source": "// SPDX-License-Identifier: MIT\r\npragma solidity ^0.8.19;\r\n\r\nimport {NetValueCalculator} from \"./NetValueCalculator.sol\";\r\nimport {ITradeFactory} from \"../TradeFactory/ITradeFactory.sol\";\r\n\r\ncontract ReferralRegistry is NetValueCalculator {\r\n    ITradeFactory public factory;\r\n \r\n    bool init;\r\n    address migrator;\r\n\r\n    //NetValueCalculator()\r\n    constructor() {\r\n        migrator = msg.sender;\r\n    }\r\n\r\n    function initFactory(address _factory) external {\r\n        require(msg.sender == migrator);\r\n        require(!init);\r\n        init = true;\r\n        factory = ITradeFactory(_factory);\r\n    }\r\n\r\n    struct ReferralInfo {\r\n        address owner;\r\n        uint256 ownerRatio;\r\n        uint256 buyerRatio;\r\n        uint256 rebate;\r\n    }\r\n\r\n    modifier onlyTradeContracts(address contractAddress) {\r\n        require(\r\n            msg.sender == contractAddress &&\r\n                factory.isThisTradeContract(contractAddress),\r\n            \"not trade contract\"\r\n        );\r\n        _;\r\n    }\r\n\r\n    // Map to store referral codes with corresponding owner's address and distribution ratios\r\n    mapping(bytes32 => ReferralInfo) private referralInfos;\r\n\r\n    // Event to be emitted when a referral code is registered\r\n    event ReferralCodeRegistered(\r\n        bytes32 indexed referralCode,\r\n        address indexed owner,\r\n        uint256 ownerRatio,\r\n        uint256 buyerRatio\r\n    );\r\n\r\n    event ReferralCodeRebateUpdated(\r\n        address indexed contractAddress,\r\n        bytes32 indexed referralCode,\r\n        address indexed owner,\r\n        uint256 rebate\r\n    );\r\n\r\n    // Function only for isTradeContract to emit if refferal transaction is made\r\n    function emitReferralCodeRebateUpdated(\r\n        address contractAddress,\r\n        bytes32 referralCode,\r\n        address owner,\r\n        uint256 rebate\r\n    ) external onlyTradeContracts(contractAddress) {\r\n        emit ReferralCodeRebateUpdated(contractAddress, referralCode, owner, rebate);\r\n    }\r\n\r\n    // Function to register a referral code with distribution ratios\r\n    function registerReferralCode(\r\n        bytes32 referralCode,\r\n        uint256 ownerRatio,\r\n        uint256 buyerRatio\r\n    ) external {\r\n        require(referralCode != 0, \"Referral code cannot be empty.\");\r\n        require(\r\n            referralInfos[referralCode].owner == address(0),\r\n            \"Referral code already registered.\"\r\n        );\r\n        require(\r\n            ownerRatio + buyerRatio == 100,\r\n            \"The sum of ownerRatio and buyerRatio must be 100.\"\r\n        );\r\n        require(\r\n            !containsSpace(referralCode),\r\n            \"Referral code cannot contain spaces.\"\r\n        );\r\n\r\n        referralInfos[referralCode] = ReferralInfo({\r\n            owner: msg.sender,\r\n            ownerRatio: ownerRatio,\r\n            buyerRatio: buyerRatio,\r\n            rebate: 0\r\n        });\r\n\r\n        emit ReferralCodeRegistered(\r\n            referralCode,\r\n            msg.sender,\r\n            ownerRatio,\r\n            buyerRatio\r\n        );\r\n    }\r\n\r\n    // Function to get the the RefferalInfo struct of a referral code\r\n    function getReferralInfo(\r\n        bytes32 referralCode\r\n    ) external view returns (ReferralInfo memory) {\r\n        return referralInfos[referralCode];\r\n    }\r\n\r\n    // Function to check the owner of a referral code\r\n    function getReferralCodeOwner(\r\n        bytes32 referralCode\r\n    ) external view returns (address) {\r\n        return referralInfos[referralCode].owner;\r\n    }\r\n\r\n    // Function to get the distribution ratios of a referral code\r\n    function getReferralCodeRatios(\r\n        bytes32 referralCode\r\n    ) external view returns (uint256 ownerRatio, uint256 buyerRatio) {\r\n        return (\r\n            referralInfos[referralCode].ownerRatio,\r\n            referralInfos[referralCode].buyerRatio\r\n        );\r\n    }\r\n\r\n    // Function to check if a referral code is registered\r\n    function isReferralCodeRegistered(\r\n        bytes32 referralCode\r\n    ) external view returns (bool) {\r\n        return referralInfos[referralCode].owner != address(0);\r\n    }\r\n\r\n    // Helper function to check if a referral code contains spaces\r\n    function containsSpace(bytes32 code) private pure returns (bool) {\r\n        for (uint256 i = 0; i < 32; i++) {\r\n            if (code[i] == 0x20) {\r\n                return true;\r\n            }\r\n        }\r\n        return false;\r\n    }\r\n}\r\n",
  "sourcePath": "C:\\Users\\Charl\\Documents\\Projects\\SteamMarket\\CSX\\csx-contracts\\contracts\\Referrals\\ReferralRegistry.sol",
  "compiler": {
    "name": "solc",
    "version": "0.8.19+commit.7dd6d404.Emscripten.clang"
  },
  "schemaVersion": "3.4.3",
  "updatedAt": "2023-04-19T09:27:01.323Z",
  "networkType": "ethereum",
  "devdoc": {
    "kind": "dev",
    "methods": {},
    "version": 1
  },
  "userdoc": {
    "kind": "user",
    "methods": {},
    "version": 1
  }
}