{
  "contractName": "ReferralRegistry",
  "abi": [
    {
      "inputs": [],
      "stateMutability": "nonpayable",
      "type": "constructor"
    },
    {
      "anonymous": false,
      "inputs": [
        {
          "indexed": true,
          "internalType": "address",
          "name": "contractAddress",
          "type": "address"
        },
        {
          "indexed": true,
          "internalType": "bytes32",
          "name": "referralCode",
          "type": "bytes32"
        },
        {
          "indexed": true,
          "internalType": "address",
          "name": "owner",
          "type": "address"
        },
        {
          "indexed": false,
          "internalType": "address",
          "name": "paymentToken",
          "type": "address"
        },
        {
          "indexed": false,
          "internalType": "uint256",
          "name": "rebate",
          "type": "uint256"
        }
      ],
      "name": "ReferralCodeRebateUpdated",
      "type": "event"
    },
    {
      "anonymous": false,
      "inputs": [
        {
          "indexed": true,
          "internalType": "bytes32",
          "name": "referralCode",
          "type": "bytes32"
        },
        {
          "indexed": true,
          "internalType": "address",
          "name": "owner",
          "type": "address"
        },
        {
          "indexed": false,
          "internalType": "uint256",
          "name": "ownerRatio",
          "type": "uint256"
        },
        {
          "indexed": false,
          "internalType": "uint256",
          "name": "buyerRatio",
          "type": "uint256"
        }
      ],
      "name": "ReferralCodeRegistered",
      "type": "event"
    },
    {
      "inputs": [
        {
          "internalType": "uint256",
          "name": "fullItemPrice",
          "type": "uint256"
        },
        {
          "internalType": "bool",
          "name": "isBuyerAffiliated",
          "type": "bool"
        },
        {
          "internalType": "uint256",
          "name": "baseFeePercent",
          "type": "uint256"
        },
        {
          "internalType": "uint256",
          "name": "discountRatio",
          "type": "uint256"
        }
      ],
      "name": "calculateNetValue",
      "outputs": [
        {
          "internalType": "uint256",
          "name": "buyerNetPrice",
          "type": "uint256"
        },
        {
          "internalType": "uint256",
          "name": "sellerNetProceeds",
          "type": "uint256"
        },
        {
          "internalType": "uint256",
          "name": "affiliatorNetReward",
          "type": "uint256"
        },
        {
          "internalType": "uint256",
          "name": "tokenHoldersNetReward",
          "type": "uint256"
        }
      ],
      "stateMutability": "pure",
      "type": "function"
    },
    {
      "inputs": [],
      "name": "factory",
      "outputs": [
        {
          "internalType": "contract ITradeFactory",
          "name": "",
          "type": "address"
        }
      ],
      "stateMutability": "view",
      "type": "function"
    },
    {
      "inputs": [
        {
          "internalType": "address",
          "name": "_factory",
          "type": "address"
        }
      ],
      "name": "initFactory",
      "outputs": [],
      "stateMutability": "nonpayable",
      "type": "function"
    },
    {
      "inputs": [
        {
          "internalType": "bytes32",
          "name": "referralCode",
          "type": "bytes32"
        },
        {
          "internalType": "address",
          "name": "paymentToken",
          "type": "address"
        }
      ],
      "name": "getRebatePerCodePerPaymentToken",
      "outputs": [
        {
          "internalType": "uint256",
          "name": "",
          "type": "uint256"
        }
      ],
      "stateMutability": "view",
      "type": "function"
    },
    {
      "inputs": [
        {
          "internalType": "address",
          "name": "user",
          "type": "address"
        }
      ],
      "name": "getReferralCodesByUser",
      "outputs": [
        {
          "internalType": "bytes32[]",
          "name": "",
          "type": "bytes32[]"
        }
      ],
      "stateMutability": "view",
      "type": "function"
    },
    {
      "inputs": [
        {
          "internalType": "bytes32",
          "name": "referralCode",
          "type": "bytes32"
        },
        {
          "internalType": "address",
          "name": "user",
          "type": "address"
        }
      ],
      "name": "setReferralCodeAsTC",
      "outputs": [],
      "stateMutability": "nonpayable",
      "type": "function"
    },
    {
      "inputs": [
        {
          "internalType": "bytes32",
          "name": "referralCode",
          "type": "bytes32"
        }
      ],
      "name": "setReferralCodeAsUser",
      "outputs": [],
      "stateMutability": "nonpayable",
      "type": "function"
    },
    {
      "inputs": [
        {
          "internalType": "address",
          "name": "user",
          "type": "address"
        }
      ],
      "name": "getReferralCode",
      "outputs": [
        {
          "internalType": "bytes32",
          "name": "",
          "type": "bytes32"
        }
      ],
      "stateMutability": "view",
      "type": "function"
    },
    {
      "inputs": [
        {
          "internalType": "address",
          "name": "contractAddress",
          "type": "address"
        },
        {
          "internalType": "address",
          "name": "_paymentToken",
          "type": "address"
        },
        {
          "internalType": "bytes32",
          "name": "referralCode",
          "type": "bytes32"
        },
        {
          "internalType": "uint256",
          "name": "rebate",
          "type": "uint256"
        }
      ],
      "name": "emitReferralCodeRebateUpdated",
      "outputs": [],
      "stateMutability": "nonpayable",
      "type": "function"
    },
    {
      "inputs": [
        {
          "internalType": "bytes32",
          "name": "referralCode",
          "type": "bytes32"
        },
        {
          "internalType": "uint256",
          "name": "ownerRatio",
          "type": "uint256"
        },
        {
          "internalType": "uint256",
          "name": "buyerRatio",
          "type": "uint256"
        }
      ],
      "name": "registerReferralCode",
      "outputs": [],
      "stateMutability": "nonpayable",
      "type": "function"
    },
    {
      "inputs": [
        {
          "internalType": "bytes32",
          "name": "referralCode",
          "type": "bytes32"
        }
      ],
      "name": "getReferralInfo",
      "outputs": [
        {
          "components": [
            {
              "internalType": "address",
              "name": "owner",
              "type": "address"
            },
            {
              "internalType": "uint256",
              "name": "ownerRatio",
              "type": "uint256"
            },
            {
              "internalType": "uint256",
              "name": "buyerRatio",
              "type": "uint256"
            }
          ],
          "internalType": "struct ReferralRegistry.ReferralInfo",
          "name": "",
          "type": "tuple"
        }
      ],
      "stateMutability": "view",
      "type": "function"
    },
    {
      "inputs": [
        {
          "internalType": "bytes32",
          "name": "referralCode",
          "type": "bytes32"
        }
      ],
      "name": "getReferralCodeOwner",
      "outputs": [
        {
          "internalType": "address",
          "name": "",
          "type": "address"
        }
      ],
      "stateMutability": "view",
      "type": "function"
    },
    {
      "inputs": [
        {
          "internalType": "bytes32",
          "name": "referralCode",
          "type": "bytes32"
        }
      ],
      "name": "getReferralCodeRatios",
      "outputs": [
        {
          "internalType": "uint256",
          "name": "ownerRatio",
          "type": "uint256"
        },
        {
          "internalType": "uint256",
          "name": "buyerRatio",
          "type": "uint256"
        }
      ],
      "stateMutability": "view",
      "type": "function"
    },
    {
      "inputs": [
        {
          "internalType": "bytes32",
          "name": "referralCode",
          "type": "bytes32"
        }
      ],
      "name": "isReferralCodeRegistered",
      "outputs": [
        {
          "internalType": "bool",
          "name": "",
          "type": "bool"
        }
      ],
      "stateMutability": "view",
      "type": "function"
    }
  ],
  "bytecode": "0x608060405234801561001057600080fd5b5060018054600160a060020a0319163317905561101c806100326000396000f3fe608060405234801561001057600080fd5b5060043610610106576000357c010000000000000000000000000000000000000000000000000000000090048063aa05c9e7116100a9578063f2dbc32c11610083578063f2dbc32c1461027b578063f3c7c931146102b9578063f7c7d6c5146102f9578063fd4788ac1461030c57600080fd5b8063aa05c9e7146101ec578063c45a015514610227578063ed0fc5a91461025257600080fd5b806389106fb9116100e557806389106fb91461017c5780638cd62c4d1461018f57806392c40344146101b0578063a033142f146101d957600080fd5b8062f7a46a1461010b57806342ba2f241461013457806343f68e1014610167575b600080fd5b61011e610119366004610d2e565b61031f565b60405161012b9190610d50565b60405180910390f35b610147610142366004610da2565b61038b565b60408051948552602085019390935291830152606082015260800161012b565b61017a610175366004610ddf565b61048f565b005b61017a61018a366004610d2e565b610655565b6101a261019d366004610df8565b6106dc565b60405190815260200161012b565b6101a26101be366004610d2e565b600160a060020a031660009081526004602052604090205490565b61017a6101e7366004610e24565b610706565b6102176101fa366004610ddf565b600090815260036020526040902054600160a060020a0316151590565b604051901515815260200161012b565b60005461023a90600160a060020a031681565b604051600160a060020a03909116815260200161012b565b61023a610260366004610ddf565b600090815260036020526040902054600160a060020a031690565b61028e610289366004610ddf565b6108ab565b604080518251600160a060020a0316815260208084015190820152918101519082015260600161012b565b6102e46102c7366004610ddf565b600090815260036020526040902060018101546002909101549091565b6040805192835260208301919091520161012b565b61017a610307366004610e51565b61091a565b61017a61031a366004610df8565b610b68565b600160a060020a03811660009081526005602090815260409182902080548351818402810184019094528084526060939283018282801561037f57602002820191906000526020600020905b81548152602001906001019080831161036b575b50505050509050919050565b60008060008060328511156103ea5760405160e560020a62461bcd02815260206004820152601660248201527f496e76616c696420646973636f756e7420726174696f0000000000000000000060448201526064015b60405180910390fd5b600060646103f8888b610eac565b6104029190610ec3565b90506000881561044c5760646104188884610eac565b6104229190610ec3565b90506064610431886032610efe565b61043b9084610eac565b6104459190610ec3565b9350610453565b5060009250825b61045d818b610efe565b9550610469828b610efe565b9450836104768284610efe565b6104809190610efe565b92505050945094509450949050565b60008190036104e35760405160e560020a62461bcd02815260206004820152601e60248201527f526566657272616c20636f64652063616e6e6f7420626520656d7074792e000060448201526064016103e1565b600081815260036020526040902054600160a060020a031661054a5760405160e560020a62461bcd02815260206004820152601d60248201527f526566657272616c20636f6465206e6f7420726567697374657265642e00000060448201526064016103e1565b60008181526003602052604090205433600160a060020a03909116036105b55760405160e560020a62461bcd02815260206004820152601760248201527f6f776e6572206f6620726566657272616c20636f64652e00000000000000000060448201526064016103e1565b336000908152600460205260409020548190036106175760405160e560020a62461bcd02815260206004820152601a60248201527f526566657272616c20636f646520616c7265616479207365742e00000000000060448201526064016103e1565b61062081610c61565b156106405760405160e560020a62461bcd0281526004016103e190610f11565b33600090815260046020526040902055565b50565b600154600160a060020a0316331461066c57600080fd5b60005474010000000000000000000000000000000000000000900460ff161561069457600080fd5b60008054600160a060020a0390921674ffffffffffffffffffffffffffffffffffffffffff199092169190911774010000000000000000000000000000000000000000179055565b6000828152600260209081526040808320600160a060020a03851684529091529020545b92915050565b8333600160a060020a0382161480156107a157506000546040517f6e4235f6000000000000000000000000000000000000000000000000000000008152600160a060020a03838116600483015290911690636e4235f690602401602060405180830381865afa15801561077d573d6000803e3d6000fd5b505050506040513d601f19601f820116820180604052508101906107a19190610f6e565b6107f05760405160e560020a62461bcd02815260206004820152601260248201527f6e6f7420747261646520636f6e7472616374000000000000000000000000000060448201526064016103e1565b6000838152600260209081526040808320600160a060020a038816845290915281208054849290610822908490610f8b565b9091555050600083815260036020526040812054600160a060020a0316905080600160a060020a03168487600160a060020a03167fb48b1b683ed4a30e1c8ca12ac5bb9d68c680e02397ab2ee5ee7c917e79fa7a6d888760405161089b929190600160a060020a03929092168252602082015260400190565b60405180910390a4505050505050565b6108d860405180606001604052806000600160a060020a0316815260200160008152602001600081525090565b5060009081526003602090815260409182902082516060810184528154600160a060020a03168152600182015492810192909252600201549181019190915290565b600083900361096e5760405160e560020a62461bcd02815260206004820152601e60248201527f526566657272616c20636f64652063616e6e6f7420626520656d7074792e000060448201526064016103e1565b600083815260036020526040902054600160a060020a0316156109fc5760405160e560020a62461bcd02815260206004820152602160248201527f526566657272616c20636f646520616c7265616479207265676973746572656460448201527f2e0000000000000000000000000000000000000000000000000000000000000060648201526084016103e1565b610a068183610f8b565b606414610a7e5760405160e560020a62461bcd02815260206004820152603160248201527f5468652073756d206f66206f776e6572526174696f20616e642062757965725260448201527f6174696f206d757374206265203130302e00000000000000000000000000000060648201526084016103e1565b610a8783610c61565b15610aa75760405160e560020a62461bcd0281526004016103e190610f11565b604080516060810182523380825260208083018681528385018681526000898152600384528681209551865473ffffffffffffffffffffffffffffffffffffffff1916600160a060020a03909116178655915160018087019190915590516002909501949094558281526005825284812080549485018155815281902090920186905582518581529182018490529185917f390e3781b8eca6d1aa475fb7ff2575b00bf1acdbc5e05c02707a408a48170108910160405180910390a3505050565b6000546040517f6e4235f6000000000000000000000000000000000000000000000000000000008152336004820181905291600160a060020a031690636e4235f690602401602060405180830381865afa158015610bca573d6000803e3d6000fd5b505050506040513d601f19601f82011682018060405250810190610bee9190610f6e565b610c3d5760405160e560020a62461bcd02815260206004820152601260248201527f6e6f7420747261646520636f6e7472616374000000000000000000000000000060448201526064016103e1565b610c5c8383600160a060020a0316600090815260046020526040902055565b505050565b6000805b6020811015610d0957828160208110610c8057610c80610f9e565b1a7f0100000000000000000000000000000000000000000000000000000000000000027effffffffffffffffffffffffffffffffffffffffffffffffffffffffffffff191660207f01000000000000000000000000000000000000000000000000000000000000000203610cf75750600192915050565b80610d0181610fcd565b915050610c65565b50600092915050565b8035600160a060020a0381168114610d2957600080fd5b919050565b600060208284031215610d4057600080fd5b610d4982610d12565b9392505050565b6020808252825182820181905260009190848201906040850190845b81811015610d8857835183529284019291840191600101610d6c565b50909695505050505050565b801515811461065257600080fd5b60008060008060808587031215610db857600080fd5b843593506020850135610dca81610d94565b93969395505050506040820135916060013590565b600060208284031215610df157600080fd5b5035919050565b60008060408385031215610e0b57600080fd5b82359150610e1b60208401610d12565b90509250929050565b60008060008060808587031215610e3a57600080fd5b610e4385610d12565b9350610dca60208601610d12565b600080600060608486031215610e6657600080fd5b505081359360208301359350604090920135919050565b7f4e487b7100000000000000000000000000000000000000000000000000000000600052601160045260246000fd5b808202811582820484141761070057610700610e7d565b600082610ef9577f4e487b7100000000000000000000000000000000000000000000000000000000600052601260045260246000fd5b500490565b8181038181111561070057610700610e7d565b60208082526024908201527f526566657272616c20636f64652063616e6e6f7420636f6e7461696e2073706160408201527f6365732e00000000000000000000000000000000000000000000000000000000606082015260800190565b600060208284031215610f8057600080fd5b8151610d4981610d94565b8082018082111561070057610700610e7d565b7f4e487b7100000000000000000000000000000000000000000000000000000000600052603260045260246000fd5b600060018201610fdf57610fdf610e7d565b506001019056fea2646970667358221220dd43c63fb10db2dfb6cbab096783ef8f9d7628209062c81c52f736860d5f9d2964736f6c63430008130033",
  "immutableReferences": {},
  "source": "// SPDX-License-Identifier: MIT\r\npragma solidity ^0.8.19;\r\n\r\nimport {NetValueCalculator} from \"./NetValueCalculator.sol\";\r\nimport {ITradeFactory} from \"../TradeFactory/ITradeFactory.sol\";\r\n\r\ncontract ReferralRegistry is NetValueCalculator {\r\n    ITradeFactory public factory;\r\n \r\n    bool init;\r\n    address migrator;\r\n\r\n    //NetValueCalculator()\r\n    constructor() {\r\n        migrator = msg.sender;\r\n    }\r\n\r\n    function initFactory(address _factory) external {\r\n        require(msg.sender == migrator);\r\n        require(!init);\r\n        init = true;\r\n        factory = ITradeFactory(_factory);\r\n    }\r\n\r\n    mapping(bytes32 => mapping(address => uint256)) rebatePerCodePerPaymentToken;\r\n\r\n    function getRebatePerCodePerPaymentToken(bytes32 referralCode, address paymentToken) external view returns (uint256) {\r\n        return rebatePerCodePerPaymentToken[referralCode][paymentToken];\r\n    }\r\n\r\n    struct ReferralInfo {\r\n        address owner;\r\n        uint256 ownerRatio;\r\n        uint256 buyerRatio;        \r\n    }\r\n\r\n    modifier onlyTradeContracts(address contractAddress) {\r\n        require(\r\n            msg.sender == contractAddress &&\r\n                factory.isThisTradeContract(contractAddress),\r\n            \"not trade contract\"\r\n        );\r\n        _;\r\n    }\r\n\r\n    // Map to store referral codes with corresponding owner's address and distribution ratios\r\n    mapping(bytes32 => ReferralInfo) private referralInfos;\r\n\r\n    mapping(address => bytes32) private userReferralCode;\r\n\r\n    mapping(address => bytes32[]) private userCreatedCodes;\r\n\r\n    function getReferralCodesByUser(address user) external view returns (bytes32[] memory) {\r\n        return userCreatedCodes[user];\r\n    }\r\n\r\n    function setReferralCodeAsTC(bytes32 referralCode, address user) external onlyTradeContracts(msg.sender) {\r\n        _setReferralCode(referralCode, user);\r\n    }\r\n\r\n    function setReferralCodeAsUser(bytes32 referralCode) external {\r\n        require(referralCode != 0, \"Referral code cannot be empty.\");\r\n        require(\r\n            referralInfos[referralCode].owner != address(0),\r\n            \"Referral code not registered.\"\r\n        );\r\n        require(\r\n            referralInfos[referralCode].owner != msg.sender, \r\n            \"owner of referral code.\"\r\n        );\r\n        require(\r\n            userReferralCode[msg.sender] != referralCode,\r\n            \"Referral code already set.\"\r\n        );\r\n        require(\r\n            !containsSpace(referralCode),\r\n            \"Referral code cannot contain spaces.\"\r\n        );\r\n        _setReferralCode(referralCode, msg.sender);\r\n    }\r\n\r\n    function getReferralCode(address user) external view returns (bytes32) {\r\n        return userReferralCode[user];\r\n    }\r\n\r\n    function _setReferralCode(bytes32 referralCode, address user) private {\r\n        // TODO MOVED\r\n        userReferralCode[user] = referralCode;\r\n    }\r\n    \r\n\r\n    // Event to be emitted when a referral code is registered\r\n    event ReferralCodeRegistered(\r\n        bytes32 indexed referralCode,\r\n        address indexed owner,\r\n        uint256 ownerRatio,\r\n        uint256 buyerRatio\r\n    );\r\n\r\n    event ReferralCodeRebateUpdated(\r\n        address indexed contractAddress,\r\n        bytes32 indexed referralCode,\r\n        address indexed owner,\r\n        address paymentToken,\r\n        uint256 rebate\r\n    );\r\n\r\n    // Function only for isTradeContract to emit if refferal transaction is made\r\n    function emitReferralCodeRebateUpdated(\r\n        address contractAddress,\r\n        address _paymentToken,\r\n        bytes32 referralCode,\r\n        uint256 rebate\r\n    ) external onlyTradeContracts(contractAddress) {        \r\n        rebatePerCodePerPaymentToken[referralCode][_paymentToken] += rebate;\r\n        address owner = getReferralCodeOwner(referralCode);\r\n        emit ReferralCodeRebateUpdated(contractAddress, referralCode, owner, _paymentToken, rebate);\r\n    }\r\n\r\n    // Function to register a referral code with distribution ratios\r\n    function registerReferralCode(\r\n        bytes32 referralCode,\r\n        uint256 ownerRatio,\r\n        uint256 buyerRatio\r\n    ) external {\r\n        require(referralCode != 0, \"Referral code cannot be empty.\");\r\n        require(\r\n            referralInfos[referralCode].owner == address(0),\r\n            \"Referral code already registered.\"\r\n        );\r\n        require(\r\n            ownerRatio + buyerRatio == 100,\r\n            \"The sum of ownerRatio and buyerRatio must be 100.\"\r\n        );\r\n        require(\r\n            !containsSpace(referralCode),\r\n            \"Referral code cannot contain spaces.\"\r\n        );\r\n\r\n        referralInfos[referralCode] = ReferralInfo({\r\n            owner: msg.sender,\r\n            ownerRatio: ownerRatio,\r\n            buyerRatio: buyerRatio\r\n        });\r\n\r\n        userCreatedCodes[msg.sender].push(referralCode);\r\n\r\n        emit ReferralCodeRegistered(\r\n            referralCode,\r\n            msg.sender,\r\n            ownerRatio,\r\n            buyerRatio\r\n        );\r\n    }\r\n\r\n    // Function to get the the RefferalInfo struct of a referral code\r\n    function getReferralInfo(\r\n        bytes32 referralCode\r\n    ) external view returns (ReferralInfo memory) {\r\n        return referralInfos[referralCode];\r\n    }\r\n\r\n    // Function to check the owner of a referral code\r\n    function getReferralCodeOwner(\r\n        bytes32 referralCode\r\n    ) public view returns (address) {\r\n        return referralInfos[referralCode].owner;\r\n    }\r\n\r\n    // Function to get the distribution ratios of a referral code\r\n    function getReferralCodeRatios(\r\n        bytes32 referralCode\r\n    ) external view returns (uint256 ownerRatio, uint256 buyerRatio) {\r\n        return (\r\n            referralInfos[referralCode].ownerRatio,\r\n            referralInfos[referralCode].buyerRatio\r\n        );\r\n    }\r\n\r\n    // Function to check if a referral code is registered\r\n    function isReferralCodeRegistered(\r\n        bytes32 referralCode\r\n    ) external view returns (bool) {\r\n        return referralInfos[referralCode].owner != address(0);\r\n    }\r\n\r\n    // Helper function to check if a referral code contains spaces\r\n    function containsSpace(bytes32 code) private pure returns (bool) {\r\n        for (uint256 i = 0; i < 32; i++) {\r\n            if (code[i] == 0x20) {\r\n                return true;\r\n            }\r\n        }\r\n        return false;\r\n    }\r\n}\r\n",
  "sourcePath": "C:\\Users\\Charl\\Documents\\Projects\\SteamMarket\\CSX\\csx-contracts\\contracts\\Referrals\\ReferralRegistry.sol",
  "compiler": {
    "name": "solc",
    "version": "0.8.19+commit.7dd6d404.Emscripten.clang"
  },
  "schemaVersion": "3.4.3",
  "updatedAt": "2023-08-22T18:04:20.814Z",
  "devdoc": {
    "kind": "dev",
    "methods": {},
    "version": 1
  },
  "userdoc": {
    "kind": "user",
    "methods": {},
    "version": 1
  }
}