{
  "contractName": "SMTradeFactory",
  "abi": [
    {
      "inputs": [
        {
          "internalType": "address",
          "name": "_keepers",
          "type": "address"
        },
        {
          "internalType": "address",
          "name": "_users",
          "type": "address"
        }
      ],
      "stateMutability": "nonpayable",
      "type": "constructor"
    },
    {
      "anonymous": false,
      "inputs": [
        {
          "indexed": false,
          "internalType": "address",
          "name": "contractAddress",
          "type": "address"
        },
        {
          "indexed": false,
          "internalType": "enum TradeStatus",
          "name": "",
          "type": "uint8"
        },
        {
          "indexed": false,
          "internalType": "string",
          "name": "data",
          "type": "string"
        }
      ],
      "name": "TradeContractStatusChange",
      "type": "event"
    },
    {
      "inputs": [
        {
          "internalType": "string",
          "name": "",
          "type": "string"
        },
        {
          "internalType": "address",
          "name": "",
          "type": "address"
        }
      ],
      "name": "assetIdFromUserAddrssToTradeAddrss",
      "outputs": [
        {
          "internalType": "address",
          "name": "",
          "type": "address"
        }
      ],
      "stateMutability": "view",
      "type": "function"
    },
    {
      "inputs": [
        {
          "internalType": "string",
          "name": "_assetId",
          "type": "string"
        },
        {
          "internalType": "address",
          "name": "sellerAddrss",
          "type": "address"
        }
      ],
      "name": "hasAlreadyListedItem",
      "outputs": [
        {
          "internalType": "bool",
          "name": "",
          "type": "bool"
        }
      ],
      "stateMutability": "view",
      "type": "function"
    },
    {
      "inputs": [
        {
          "internalType": "address",
          "name": "contractAddress",
          "type": "address"
        }
      ],
      "name": "isThisTradeContract",
      "outputs": [
        {
          "internalType": "bool",
          "name": "",
          "type": "bool"
        }
      ],
      "stateMutability": "view",
      "type": "function"
    },
    {
      "inputs": [],
      "name": "keepersContract",
      "outputs": [
        {
          "internalType": "contract IKeepers",
          "name": "",
          "type": "address"
        }
      ],
      "stateMutability": "view",
      "type": "function"
    },
    {
      "inputs": [
        {
          "internalType": "enum TradeStatus",
          "name": "status",
          "type": "uint8"
        },
        {
          "internalType": "string",
          "name": "data",
          "type": "string"
        }
      ],
      "name": "onStatusChange",
      "outputs": [],
      "stateMutability": "nonpayable",
      "type": "function"
    },
    {
      "inputs": [
        {
          "internalType": "string",
          "name": "_assetId",
          "type": "string"
        },
        {
          "internalType": "address",
          "name": "sellerAddrss",
          "type": "address"
        }
      ],
      "name": "removeAssetIdUsed",
      "outputs": [
        {
          "internalType": "bool",
          "name": "",
          "type": "bool"
        }
      ],
      "stateMutability": "nonpayable",
      "type": "function"
    },
    {
      "inputs": [],
      "name": "totalContracts",
      "outputs": [
        {
          "internalType": "uint256",
          "name": "",
          "type": "uint256"
        }
      ],
      "stateMutability": "view",
      "type": "function"
    },
    {
      "inputs": [],
      "name": "usersContract",
      "outputs": [
        {
          "internalType": "contract IUsers",
          "name": "",
          "type": "address"
        }
      ],
      "stateMutability": "view",
      "type": "function"
    },
    {
      "inputs": [
        {
          "internalType": "string",
          "name": "_itemMarketName",
          "type": "string"
        },
        {
          "components": [
            {
              "internalType": "uint256",
              "name": "partner",
              "type": "uint256"
            },
            {
              "internalType": "string",
              "name": "token",
              "type": "string"
            }
          ],
          "internalType": "struct TradeUrl",
          "name": "_tradeUrl",
          "type": "tuple"
        },
        {
          "internalType": "string",
          "name": "_assetId",
          "type": "string"
        },
        {
          "internalType": "string",
          "name": "_inspectLink",
          "type": "string"
        },
        {
          "internalType": "string",
          "name": "_itemImageUrl",
          "type": "string"
        },
        {
          "internalType": "uint256",
          "name": "_weiPrice",
          "type": "uint256"
        },
        {
          "components": [
            {
              "internalType": "string",
              "name": "value",
              "type": "string"
            },
            {
              "internalType": "string",
              "name": "min",
              "type": "string"
            },
            {
              "internalType": "string",
              "name": "max",
              "type": "string"
            }
          ],
          "internalType": "struct FloatInfo",
          "name": "_float",
          "type": "tuple"
        },
        {
          "components": [
            {
              "internalType": "string",
              "name": "name",
              "type": "string"
            },
            {
              "internalType": "string",
              "name": "material",
              "type": "string"
            },
            {
              "internalType": "uint8",
              "name": "slot",
              "type": "uint8"
            },
            {
              "internalType": "string",
              "name": "imageLink",
              "type": "string"
            }
          ],
          "internalType": "struct Sticker[]",
          "name": "_stickers",
          "type": "tuple[]"
        },
        {
          "internalType": "string",
          "name": "_weaponType",
          "type": "string"
        },
        {
          "internalType": "enum PriceType",
          "name": "_priceType",
          "type": "uint8"
        }
      ],
      "name": "createListingContract",
      "outputs": [],
      "stateMutability": "nonpayable",
      "type": "function"
    },
    {
      "inputs": [
        {
          "internalType": "uint256",
          "name": "index",
          "type": "uint256"
        }
      ],
      "name": "getTradeDetailsByIndex",
      "outputs": [
        {
          "components": [
            {
              "internalType": "address",
              "name": "contractAddress",
              "type": "address"
            },
            {
              "internalType": "address",
              "name": "seller",
              "type": "address"
            },
            {
              "components": [
                {
                  "internalType": "uint256",
                  "name": "partner",
                  "type": "uint256"
                },
                {
                  "internalType": "string",
                  "name": "token",
                  "type": "string"
                }
              ],
              "internalType": "struct TradeUrl",
              "name": "sellerTradeUrl",
              "type": "tuple"
            },
            {
              "internalType": "address",
              "name": "buyer",
              "type": "address"
            },
            {
              "components": [
                {
                  "internalType": "uint256",
                  "name": "partner",
                  "type": "uint256"
                },
                {
                  "internalType": "string",
                  "name": "token",
                  "type": "string"
                }
              ],
              "internalType": "struct TradeUrl",
              "name": "buyerTradeUrl",
              "type": "tuple"
            },
            {
              "internalType": "string",
              "name": "itemMarketName",
              "type": "string"
            },
            {
              "internalType": "string",
              "name": "inspectLink",
              "type": "string"
            },
            {
              "internalType": "string",
              "name": "itemImageUrl",
              "type": "string"
            },
            {
              "internalType": "uint256",
              "name": "weiPrice",
              "type": "uint256"
            },
            {
              "internalType": "uint256",
              "name": "averageSellerDeliveryTime",
              "type": "uint256"
            },
            {
              "components": [
                {
                  "internalType": "string",
                  "name": "value",
                  "type": "string"
                },
                {
                  "internalType": "string",
                  "name": "min",
                  "type": "string"
                },
                {
                  "internalType": "string",
                  "name": "max",
                  "type": "string"
                }
              ],
              "internalType": "struct FloatInfo",
              "name": "float",
              "type": "tuple"
            },
            {
              "internalType": "enum TradeStatus",
              "name": "status",
              "type": "uint8"
            },
            {
              "components": [
                {
                  "internalType": "string",
                  "name": "name",
                  "type": "string"
                },
                {
                  "internalType": "string",
                  "name": "material",
                  "type": "string"
                },
                {
                  "internalType": "uint8",
                  "name": "slot",
                  "type": "uint8"
                },
                {
                  "internalType": "string",
                  "name": "imageLink",
                  "type": "string"
                }
              ],
              "internalType": "struct Sticker[]",
              "name": "stickers",
              "type": "tuple[]"
            },
            {
              "internalType": "string",
              "name": "weaponType",
              "type": "string"
            }
          ],
          "internalType": "struct TradeInfo",
          "name": "result",
          "type": "tuple"
        }
      ],
      "stateMutability": "view",
      "type": "function"
    },
    {
      "inputs": [
        {
          "internalType": "address",
          "name": "tradeAddrs",
          "type": "address"
        }
      ],
      "name": "getTradeDetailsByAddress",
      "outputs": [
        {
          "components": [
            {
              "internalType": "address",
              "name": "contractAddress",
              "type": "address"
            },
            {
              "internalType": "address",
              "name": "seller",
              "type": "address"
            },
            {
              "components": [
                {
                  "internalType": "uint256",
                  "name": "partner",
                  "type": "uint256"
                },
                {
                  "internalType": "string",
                  "name": "token",
                  "type": "string"
                }
              ],
              "internalType": "struct TradeUrl",
              "name": "sellerTradeUrl",
              "type": "tuple"
            },
            {
              "internalType": "address",
              "name": "buyer",
              "type": "address"
            },
            {
              "components": [
                {
                  "internalType": "uint256",
                  "name": "partner",
                  "type": "uint256"
                },
                {
                  "internalType": "string",
                  "name": "token",
                  "type": "string"
                }
              ],
              "internalType": "struct TradeUrl",
              "name": "buyerTradeUrl",
              "type": "tuple"
            },
            {
              "internalType": "string",
              "name": "itemMarketName",
              "type": "string"
            },
            {
              "internalType": "string",
              "name": "inspectLink",
              "type": "string"
            },
            {
              "internalType": "string",
              "name": "itemImageUrl",
              "type": "string"
            },
            {
              "internalType": "uint256",
              "name": "weiPrice",
              "type": "uint256"
            },
            {
              "internalType": "uint256",
              "name": "averageSellerDeliveryTime",
              "type": "uint256"
            },
            {
              "components": [
                {
                  "internalType": "string",
                  "name": "value",
                  "type": "string"
                },
                {
                  "internalType": "string",
                  "name": "min",
                  "type": "string"
                },
                {
                  "internalType": "string",
                  "name": "max",
                  "type": "string"
                }
              ],
              "internalType": "struct FloatInfo",
              "name": "float",
              "type": "tuple"
            },
            {
              "internalType": "enum TradeStatus",
              "name": "status",
              "type": "uint8"
            },
            {
              "components": [
                {
                  "internalType": "string",
                  "name": "name",
                  "type": "string"
                },
                {
                  "internalType": "string",
                  "name": "material",
                  "type": "string"
                },
                {
                  "internalType": "uint8",
                  "name": "slot",
                  "type": "uint8"
                },
                {
                  "internalType": "string",
                  "name": "imageLink",
                  "type": "string"
                }
              ],
              "internalType": "struct Sticker[]",
              "name": "stickers",
              "type": "tuple[]"
            },
            {
              "internalType": "string",
              "name": "weaponType",
              "type": "string"
            }
          ],
          "internalType": "struct TradeInfo",
          "name": "result",
          "type": "tuple"
        }
      ],
      "stateMutability": "view",
      "type": "function"
    },
    {
      "inputs": [
        {
          "internalType": "enum TradeStatus",
          "name": "status",
          "type": "uint8"
        },
        {
          "internalType": "uint256",
          "name": "indexFrom",
          "type": "uint256"
        },
        {
          "internalType": "uint256",
          "name": "maxResults",
          "type": "uint256"
        }
      ],
      "name": "getTradeIndexesByStatus",
      "outputs": [
        {
          "components": [
            {
              "internalType": "uint256",
              "name": "index",
              "type": "uint256"
            },
            {
              "internalType": "uint256",
              "name": "weiPrice",
              "type": "uint256"
            },
            {
              "internalType": "enum PriceType",
              "name": "priceType",
              "type": "uint8"
            },
            {
              "internalType": "string",
              "name": "weaponType",
              "type": "string"
            },
            {
              "internalType": "string",
              "name": "itemMarketName",
              "type": "string"
            },
            {
              "internalType": "uint256",
              "name": "nextIndex",
              "type": "uint256"
            }
          ],
          "internalType": "struct TradeIndex[]",
          "name": "",
          "type": "tuple[]"
        }
      ],
      "stateMutability": "view",
      "type": "function"
    },
    {
      "inputs": [
        {
          "internalType": "enum TradeStatus",
          "name": "status",
          "type": "uint8"
        }
      ],
      "name": "getTradeCountByStatus",
      "outputs": [
        {
          "internalType": "uint256",
          "name": "",
          "type": "uint256"
        }
      ],
      "stateMutability": "view",
      "type": "function"
    }
  ],
  "bytecode": "0x60806040523480156200001157600080fd5b50604051620060a4380380620060a4833981016040819052620000349162000088565b600160005560058054600160a060020a03938416600160a060020a03199182161790915560068054929093169116179055620000c0565b8051600160a060020a03811681146200008357600080fd5b919050565b600080604083850312156200009c57600080fd5b620000a7836200006b565b9150620000b7602084016200006b565b90509250929050565b615fd480620000d06000396000f3fe60806040523480156200001157600080fd5b5060043610620000c15760e060020a6000350463142ebf3c8114620000c657806333034d7114620000f2578063346c743d14620001185780635a9ad1e0146200013e5780636311c2f214620001645780636e4235f6146200018c5780637c31f38b14620001bb57806399b2abc614620001d2578063a09037a914620001eb578063a51d75d614620001f5578063adea4866146200020c578063c2bd884b1462000223578063f983567d1462000237575b600080fd5b600654620000da90600160a060020a031681565b604051620000e99190620015c5565b60405180910390f35b6200010962000103366004620015d9565b6200027e565b604051620000e99190620017b3565b6200012f6200012936600462001940565b62000ad8565b604051620000e991906200198b565b620001556200014f36600462001a4b565b62000ce9565b604051908152602001620000e9565b6200017b6200017536600462001b7f565b62000d67565b6040519015158152602001620000e9565b6200017b6200019d36600462001bd6565b600160a060020a031660009081526004602052604090205460ff1690565b6200017b620001cc36600462001b7f565b62000dff565b620001e9620001e336600462001bf6565b62000e5d565b005b6200015560015481565b620001e96200020636600462001eed565b62000ec2565b620001096200021d36600462001bd6565b62001299565b600554620000da90600160a060020a031681565b620000da6200024836600462001b7f565b815160208184018101805160078252928201948201949094209190935290915260009081526040902054600160a060020a031681565b62000288620014ad565b60008281526003602090815260409182902054600160a060020a0316808452825160e060020a6308551a5302815292518593919283926308551a5392600480830193928290030181865afa158015620002e5573d6000803e3d6000fd5b505050506040513d601f19601f820116820180604052508101906200030b919062002063565b8360200190600160a060020a03169081600160a060020a03168152505080600160a060020a0316637150d8ae6040518163ffffffff1660e060020a028152600401602060405180830381865afa1580156200036a573d6000803e3d6000fd5b505050506040513d601f19601f8201168201806040525081019062000390919062002063565b8360600190600160a060020a03169081600160a060020a03168152505080600160a060020a0316631e86221f6040518163ffffffff1660e060020a028152600401600060405180830381865afa158015620003ef573d6000803e3d6000fd5b505050506040513d6000823e601f3d908101601f19168201604052620004199190810190620020cf565b8360a0018190525080600160a060020a03166370e066f66040518163ffffffff1660e060020a028152600401600060405180830381865afa15801562000463573d6000803e3d6000fd5b505050506040513d6000823e601f3d908101601f191682016040526200048d9190810190620020cf565b60c08401526200049c62001532565b81600160a060020a03166302197c556040518163ffffffff1660e060020a028152600401600060405180830381865afa158015620004de573d6000803e3d6000fd5b505050506040513d6000823e601f3d908101601f1916820160405262000508919081019062002107565b60208301528152604084018190526200052062001532565b82600160a060020a031663fddd56c56040518163ffffffff1660e060020a028152600401600060405180830381865afa15801562000562573d6000803e3d6000fd5b505050506040513d6000823e601f3d908101601f191682016040526200058c919081019062002107565b602080840191909152908252608086018290526040805160e060020a63e29b9e970281529051600160a060020a0386169263e29b9e9792600480820193918290030181865afa158015620005e4573d6000803e3d6000fd5b505050506040513d601f19601f820116820180604052508101906200060a919062002148565b8561010001818152505082600160a060020a031663e67d55236040518163ffffffff1660e060020a028152600401600060405180830381865afa15801562000656573d6000803e3d6000fd5b505050506040513d6000823e601f3d908101601f19168201604052620006809190810190620020cf565b60e0860152600654602086015160405160e460020a630791bd0d028152600160a060020a039092169163791bd0d091620006bd91600401620015c5565b602060405180830381865afa158015620006db573d6000803e3d6000fd5b505050506040513d601f19601f8201168201806040525081019062000701919062002148565b610120860152620007116200154c565b83600160a060020a03166368ccaa526040518163ffffffff1660e060020a028152600401600060405180830381865afa15801562000753573d6000803e3d6000fd5b505050506040513d6000823e601f3d908101601f191682016040526200077d919081019062002162565b6040808501919091526020808501929092529183526101408801839052815160e160020a63100697690281529151600160a060020a0387169263200d2ed29260048083019391928290030181865afa158015620007de573d6000803e3d6000fd5b505050506040513d601f19601f82011682018060405250810190620008049190620021f3565b86610160019060078111156200081e576200081e620016d4565b90816007811115620008345762000834620016d4565b81525050600084600160a060020a031663f4a84e0f6040518163ffffffff1660e060020a028152600401602060405180830381865afa1580156200087c573d6000803e3d6000fd5b505050506040513d601f19601f82011682018060405250810190620008a2919062002148565b90506000816001604060020a03811115620008c157620008c162001a6b565b6040519080825280602002602001820160405280156200092357816020015b6200090f60405180608001604052806060815260200160608152602001600060ff168152602001606081525090565b815260200190600190039081620008e05790505b50905060005b815181101562000a4e5760405160e760020a63011f2cbb02815260048101829052600160a060020a03881690638f965d8090602401600060405180830381865afa1580156200097c573d6000803e3d6000fd5b505050506040513d6000823e601f3d908101601f19168201604052620009a6919081019062002213565b858581518110620009bb57620009bb620022ba565b6020026020010151600001868681518110620009db57620009db620022ba565b6020026020010151602001878781518110620009fb57620009fb620022ba565b602002602001015160400188888151811062000a1b5762000a1b620022ba565b60209081029190910101516060019390935260ff909316909152919052528062000a4581620022ee565b91505062000929565b508088610180018190525085600160a060020a0316638dada6d86040518163ffffffff1660e060020a028152600401600060405180830381865afa15801562000a9b573d6000803e3d6000fd5b505050506040513d6000823e601f3d908101601f1916820160405262000ac59190810190620020cf565b6101a08901525095979650505050505050565b60606000826001604060020a0381111562000af75762000af762001a6b565b60405190808252806020026020018201604052801562000b3457816020015b62000b206200156d565b81526020019060019003908162000b165790505b5090506000845b848210801562000b4c575060015481105b1562000cde57600062000b5f826200027e565b905087600781111562000b765762000b76620016d4565b816101600151600781111562000b905762000b90620016d4565b0362000cca578184848151811062000bac5762000bac620022ba565b6020026020010151600001818152505080610100015184848151811062000bd75762000bd7620022ba565b60200260200101516020018181525050600084848151811062000bfe5762000bfe620022ba565b602002602001015160400190600281111562000c1e5762000c1e620016d4565b9081600281111562000c345762000c34620016d4565b81525050806101a0015184848151811062000c535762000c53620022ba565b6020026020010151606001819052508060a0015184848151811062000c7c5762000c7c620022ba565b60209081029190910101516080015262000c988260016200230a565b84848151811062000cad5762000cad620022ba565b602090810291909101015160a0015262000cc783620022ee565b92505b62000cd582620022ee565b91505062000b3b565b509095945050505050565b60008060005b60015481101562000d6057600062000d07826200027e565b905084600781111562000d1e5762000d1e620016d4565b816101600151600781111562000d385762000d38620016d4565b0362000d4c5762000d4983620022ee565b92505b62000d5782620022ee565b91505062000cef565b5092915050565b3360009081526004602052604081205460ff1662000da55760405160e560020a62461bcd02815260040162000d9c9062002320565b60405180910390fd5b600060078460405162000db9919062002345565b9081526040805160209281900383019020600160a060020a03868116600090815291909352208054600160a060020a031916929091169190911790555060015b92915050565b600080600160a060020a031660078460405162000e1d919062002345565b9081526040805160209281900383019020600160a060020a038681166000908152919093522054160362000e545750600062000df9565b50600162000df9565b3360009081526004602052604090205460ff1662000e925760405160e560020a62461bcd02815260040162000d9c9062002320565b60008051602062005f7f83398151915233838360405162000eb69392919062002363565b60405180910390a15050565b62000ecc620012ce565b60065460405160e060020a6397f735d5028152600160a060020a03909116906397f735d59062000f01903390600401620015c5565b602060405180830381865afa15801562000f1f573d6000803e3d6000fd5b505050506040513d601f19601f8201168201806040525081019062000f45919062002396565b1562000f835760405160e560020a62461bcd028152602060048201526006602482015260d260020a6518985b9b995902604482015260640162000d9c565b6000600160a060020a031660078960405162000fa0919062002345565b90815260408051602092819003830190203360009081529252902054600160a060020a031614620010065760405160e560020a62461bcd028152602060048201526009602482015260b860020a6849442065786973747302604482015260640162000d9c565b6005546006546040513092600160a060020a03908116921690339089908f908f908f908f908f908e906200103a90620015b7565b620010509b9a99989796959493929190620023ba565b604051809103906000f0801580156200106d573d6000803e3d6000fd5b506001805460009081526003602052604081208054600160a060020a031916600160a060020a0394909416939093179092558054909190620010af90620022ee565b90915550600180546000916003918391620010ca9162002495565b81526020808201929092526040908101600090812054600160a060020a03168082526004909352908120805460ff19166001908117909155805492935060039262001116919062002495565b81526020810191909152604090810160002054905160e260020a631bc138b5028152600160a060020a0390911690636f04e2d4906200115e90879087908790600401620024ab565b600060405180830381600087803b1580156200117957600080fd5b505af11580156200118e573d6000803e3d6000fd5b5050505060018054620011a2919062002495565b600160a060020a0382166000908152600260205260409081902091909155518190600790620011d3908c9062002345565b9081526040805160209281900383019020336000908152925281208054600160a060020a031916600160a060020a0393909316929092179091558a516200121a906200132c565b905060008c8b838e602001518a60000151604051602001620012419594939291906200257b565b604051602081830303815290604052905060008051602062005f7f83398151915283600083604051620012779392919062002363565b60405180910390a15050506200128d6001600055565b50505050505050505050565b620012a3620014ad565b600160a060020a038216600090815260026020526040902054620012c7816200027e565b9392505050565b600260005403620013255760405160e560020a62461bcd02815260206004820152601f60248201527f5265656e7472616e637947756172643a207265656e7472616e742063616c6c00604482015260640162000d9c565b6002600055565b606060006200133b83620013c8565b60010190506000816001604060020a038111156200135d576200135d62001a6b565b6040519080825280601f01601f19166020018201604052801562001388576020820181803683370190505b5090508181016020015b60001901608160020a6f181899199a1a9b1b9c1cb0b131b232b302600a86061a8153600a85049450846200139257509392505050565b600080604060020a72184f03e93ff9f4daa797ed6e38ed64bf6a1f010283106200140e57604060020a72184f03e93ff9f4daa797ed6e38ed64bf6a1f0102830492506040015b6d04ee2d6d415b85acef810000000083106200143b576d04ee2d6d415b85acef8100000000830492506020015b662386f26fc1000083106200145a57662386f26fc10000830492506010015b6305f5e100831062001473576305f5e100830492506008015b61271083106200148857612710830492506004015b606483106200149b576064830492506002015b600a831062000df95760010192915050565b604080516101c08101825260008082526020820152908101620014cf62001532565b815260006020820152604001620014e562001532565b81526020016060815260200160608152602001606081526020016000815260200160008152602001620015176200154c565b81526020016000815260200160608152602001606081525090565b604051806040016040528060008152602001606081525090565b60405180606001604052806060815260200160608152602001606081525090565b6040518060c001604052806000815260200160008152602001600060028111156200159c576200159c620016d4565b81526020016060815260200160608152602001600081525090565b613957806200262883390190565b600160a060020a0391909116815260200190565b600060208284031215620015ec57600080fd5b5035919050565b600160a060020a03169052565b60005b838110156200161d57818101518382015260200162001603565b50506000910152565b600081518084526200164081602086016020860162001600565b601f01601f19169290920160200192915050565b80518252600060208201516040602085015262001675604085018262001626565b949350505050565b600081516060845262001694606085018262001626565b905060208301518482036020860152620016af828262001626565b91505060408301518482036040860152620016cb828262001626565b95945050505050565b60e060020a634e487b710260009081526021600452602490fd5b60088110620017015762001701620016d4565b9052565b6000828251808552602080860195508081830284010181860160005b84811015620017a657601f198684030189528151608081518186526200174a8287018262001626565b915050858201518582038787015262001764828262001626565b915050604060ff818401511681870152506060808301519250858203818701525062001791818362001626565b9a86019a945050509083019060010162001721565b5090979650505050505050565b60208152620017c7602082018351620015f3565b60006020830151620017dd6040840182620015f3565b5060408301516101c0806060850152620017fc6101e085018362001654565b91506060850151620018126080860182620015f3565b506080850151601f19808685030160a087015262001831848362001654565b935060a08701519150808685030160c087015262001850848362001626565b935060c08701519150808685030160e08701526200186f848362001626565b935060e0870151915061010081878603018188015262001890858462001626565b9088015161012088810191909152880151610140808901919091528801518782038301610160808a01919091529195509250620018ce85846200167d565b945080880151925050610180620018e881880184620016ee565b808801519250506101a081878603018188015262001907858462001705565b90880151878203909201848801529350905062001925838262001626565b9695505050505050565b600881106200193d57600080fd5b50565b6000806000606084860312156200195657600080fd5b833562001963816200192f565b95602085013595506040909401359392505050565b60038110620017015762001701620016d4565b60208082528251828201819052600091906040908185019080840286018301878501865b8381101562001a3d57603f19898403018552815160c081518552888201518986015287820151620019e38987018262001978565b506060808301518282880152620019fd8388018262001626565b925050506080808301518683038288015262001a1a838262001626565b60a0948501519790940196909652505094870194925090860190600101620019af565b509098975050505050505050565b60006020828403121562001a5e57600080fd5b8135620012c7816200192f565b60e060020a634e487b710260009081526041600452602490fd5b604051608081016001604060020a038111828210171562001aaa5762001aaa62001a6b565b60405290565b604051601f8201601f191681016001604060020a038111828210171562001adb5762001adb62001a6b565b604052919050565b60006001604060020a0382111562001aff5762001aff62001a6b565b50601f01601f191660200190565b600082601f83011262001b1f57600080fd5b813562001b3662001b308262001ae3565b62001ab0565b81815284602083860101111562001b4c57600080fd5b816020850160208301376000918101602001919091529392505050565b600160a060020a03811681146200193d57600080fd5b6000806040838503121562001b9357600080fd5b82356001604060020a0381111562001baa57600080fd5b62001bb88582860162001b0d565b925050602083013562001bcb8162001b69565b809150509250929050565b60006020828403121562001be957600080fd5b8135620012c78162001b69565b6000806040838503121562001c0a57600080fd5b823562001c17816200192f565b915060208301356001604060020a0381111562001c3357600080fd5b62001c418582860162001b0d565b9150509250929050565b60006040828403121562001c5e57600080fd5b604080519081016001604060020a03808211838310171562001c845762001c8462001a6b565b8160405282935084358352602085013591508082111562001ca457600080fd5b5062001cb38582860162001b0d565b6020830152505092915050565b60006060828403121562001cd357600080fd5b604051606081016001604060020a03808211838310171562001cf95762001cf962001a6b565b81604052829350843591508082111562001d1257600080fd5b62001d208683870162001b0d565b8352602085013591508082111562001d3757600080fd5b62001d458683870162001b0d565b6020840152604085013591508082111562001d5f57600080fd5b5062001d6e8582860162001b0d565b6040830152505092915050565b60ff811681146200193d57600080fd5b600082601f83011262001d9d57600080fd5b813560206001604060020a038083111562001dbc5762001dbc62001a6b565b81830262001dcc83820162001ab0565b938452858101830193838101908886111562001de757600080fd5b84880192505b8583101562001ecc5782358481111562001e075760008081fd5b88016080818b03601f190181131562001e205760008081fd5b62001e2a62001a85565b878301358781111562001e3d5760008081fd5b62001e4d8d8a8387010162001b0d565b8252506040808401358881111562001e655760008081fd5b62001e758e8b8388010162001b0d565b8a8401525060608085013562001e8b8162001d7b565b8383015292840135928884111562001ea557600091508182fd5b62001eb58e8b8688010162001b0d565b908301525084525050918401919084019062001ded565b98975050505050505050565b80356003811062001ee857600080fd5b919050565b6000806000806000806000806000806101408b8d03121562001f0e57600080fd5b8a356001604060020a038082111562001f2657600080fd5b62001f348e838f0162001b0d565b9b5060208d013591508082111562001f4b57600080fd5b62001f598e838f0162001c4b565b9a5060408d013591508082111562001f7057600080fd5b62001f7e8e838f0162001b0d565b995060608d013591508082111562001f9557600080fd5b62001fa38e838f0162001b0d565b985060808d013591508082111562001fba57600080fd5b62001fc88e838f0162001b0d565b975060a08d0135965060c08d013591508082111562001fe657600080fd5b62001ff48e838f0162001cc0565b955060e08d01359150808211156200200b57600080fd5b620020198e838f0162001d8b565b94506101008d01359150808211156200203157600080fd5b50620020408d828e0162001b0d565b925050620020526101208c0162001ed8565b90509295989b9194979a5092959850565b6000602082840312156200207657600080fd5b8151620012c78162001b69565b600082601f8301126200209557600080fd5b8151620020a662001b308262001ae3565b818152846020838601011115620020bc57600080fd5b6200167582602083016020870162001600565b600060208284031215620020e257600080fd5b81516001604060020a03811115620020f957600080fd5b620016758482850162002083565b600080604083850312156200211b57600080fd5b825160208401519092506001604060020a038111156200213a57600080fd5b62001c418582860162002083565b6000602082840312156200215b57600080fd5b5051919050565b6000806000606084860312156200217857600080fd5b83516001604060020a03808211156200219057600080fd5b6200219e8783880162002083565b94506020860151915080821115620021b557600080fd5b620021c38783880162002083565b93506040860151915080821115620021da57600080fd5b50620021e98682870162002083565b9150509250925092565b6000602082840312156200220657600080fd5b8151620012c7816200192f565b600080600080608085870312156200222a57600080fd5b84516001604060020a03808211156200224257600080fd5b620022508883890162002083565b955060208701519150808211156200226757600080fd5b620022758883890162002083565b945060408701519150620022898262001d7b565b6060870151919350808211156200229f57600080fd5b50620022ae8782880162002083565b91505092959194509250565b60e060020a634e487b710260009081526032600452602490fd5b60e060020a634e487b710260009081526011600452602490fd5b600060018201620023035762002303620022d4565b5060010190565b8082018082111562000df95762000df9620022d4565b602080825260089082015260c060020a672174726164652d6302604082015260600190565b600082516200235981846020870162001600565b9190910192915050565b600160a060020a03841681526200237e6020820184620016ee565b606060408201526000620016cb606083018462001626565b600060208284031215620023a957600080fd5b81518015158114620012c757600080fd5b600160a060020a038c1681526000610160620023da602084018e620015f3565b620023e9604084018d620015f3565b620023f8606084018c620015f3565b8960808401528060a0840152620024128184018a62001626565b905082810360c084015262002428818962001654565b905082810360e08401526200243e818862001626565b905082810361010084015262002455818762001626565b90508281036101208401526200246c818662001626565b90508281036101408401526200248381856200167d565b9e9d5050505050505050505050505050565b8181038181111562000df95762000df9620022d4565b606080825284518282018190526000919060809081850190602080820287018401818b01875b848110156200254f57898303607f1901865281518051888552620024f88986018262001626565b9050858201518582038787015262002511828262001626565b60408481015160ff1690880152928b01518684038c8801529291506200253a9050818362001626565b978601979450505090830190600101620024d1565b50508781038289015262002564818b62001626565b965050505050505062001675604083018462001978565b600086516200258f818460208b0162001600565b808301905060f260020a611f1f028082528751620025b5816002850160208c0162001600565b600292019182018190528651620025d4816004850160208b0162001600565b60f860020a602b02600493909101928301528551620025fb816005850160208a0162001600565b600592019182015283516200261881600784016020880162001600565b0160070197965050505050505056fe60806040523480156200001157600080fd5b50604051620039573803806200395783398101604081905262000034916200037b565b60158054600160a060020a038d8116600160a060020a03199283161790925560138054601480548e8616908516179055600080548d8616941693909317909255600d8a9055918c166101000260ff1916600160a860020a03199091161790556002620000a187826200059f565b50845160049081556020860151869190600590620000c090826200059f565b5060039150620000d3905085826200059f565b506008620000e284826200059f565b506009620000f183826200059f565b5080516010906200010390826200059f565b5060208101516011906200011890826200059f565b5060408101516012906200012d90826200059f565b50505050505050505050505062000671565b8051600160a060020a03811681146200015757600080fd5b919050565b7f4e487b7100000000000000000000000000000000000000000000000000000000600052604160045260246000fd5b604051601f8201601f191681016001604060020a0381118282101715620001b657620001b66200015c565b604052919050565b600082601f830112620001d057600080fd5b81516001604060020a03811115620001ec57620001ec6200015c565b602062000202601f8301601f191682016200018b565b82815285828487010111156200021757600080fd5b60005b83811015620002375785810183015182820184015282016200021a565b506000928101909101919091529392505050565b6000604082840312156200025e57600080fd5b604051604081016001604060020a0382821081831117156200028457620002846200015c565b81604052829350845183526020850151915080821115620002a457600080fd5b50620002b385828601620001be565b6020830152505092915050565b600060608284031215620002d357600080fd5b604051606081016001604060020a038282108183111715620002f957620002f96200015c565b8160405282935084519150808211156200031257600080fd5b6200032086838701620001be565b835260208501519150808211156200033757600080fd5b6200034586838701620001be565b602084015260408501519150808211156200035f57600080fd5b506200036e85828601620001be565b6040830152505092915050565b60008060008060008060008060008060006101608c8e0312156200039e57600080fd5b620003a98c6200013f565b9a50620003b960208d016200013f565b9950620003c960408d016200013f565b9850620003d960608d016200013f565b975060808c0151965060a08c01516001604060020a03811115620003fc57600080fd5b6200040a8e828f01620001be565b96505060c08c01516001604060020a038111156200042757600080fd5b620004358e828f016200024b565b95505060e08c01516001604060020a038111156200045257600080fd5b620004608e828f01620001be565b9450506101008c01516001604060020a038111156200047e57600080fd5b6200048c8e828f01620001be565b9350506101208c01516001604060020a03811115620004aa57600080fd5b620004b88e828f01620001be565b9250506101408c01516001604060020a03811115620004d657600080fd5b620004e48e828f01620002c0565b9150509295989b509295989b9093969950565b6002810460018216806200050c57607f821691505b60208210810362000546577f4e487b7100000000000000000000000000000000000000000000000000000000600052602260045260246000fd5b50919050565b601f8211156200059a576000818152602081206020601f86010481016020861015620005755750805b6020601f860104820191505b81811015620005965782815560010162000581565b5050505b505050565b81516001604060020a03811115620005bb57620005bb6200015c565b620005d381620005cc8454620004f7565b846200054c565b602080601f8311600181146200060f5760008415620005f25750858301515b60028086026008870290910a600019041982161786555062000596565b600085815260208120601f198616915b8281101562000640578886015182559484019460019091019084016200061f565b50858210156200066157878501516008601f88160260020a60001904191681555b5050505050600202600101905550565b6132d680620006816000396000f3fe6080604052600436106101765760e060020a600035046302197c55811461017b57806302d8ee9c146101a757806308551a53146101c9578063142ebf3c146101f65780631c925df0146102165780631e86221f1461023d578063200d2ed214610252578063343bf40e14610279578063356cd0dc146102aa5780634181a66c146102bf5780634e9448e9146102e3578063595210ad1461030557806360b7ee991461032557806368ccaa521461033a5780636f04e2d41461035e57806370e066f61461037e57806370ec9d54146103935780637150d8ae146103b857806373fac6f0146103d85780637c148952146103ed57806385e14a48146104035780638dada6d81461041d5780638f965d8014610432578063b06bec3e14610462578063c2bd884b14610475578063d2ef033c1461049a578063d55a17c0146104ba578063de11c94a146104cf578063e29b9e97146104ef578063e67d552314610505578063f4a84e0f1461051a578063fddd56c51461052f575b600080fd5b34801561018757600080fd5b50610190610544565b60405161019e929190612875565b60405180910390f35b3480156101b357600080fd5b506101bc6105db565b60405161019e9190612896565b3480156101d557600080fd5b506000546101e990600160a060020a031681565b60405161019e91906128b0565b34801561020257600080fd5b506014546101e990600160a060020a031681565b34801561022257600080fd5b50600e546102309060ff1681565b60405161019e91906128de565b34801561024957600080fd5b506101bc610669565b34801561025e57600080fd5b5060135461026c9060ff1681565b60405161019e919061290c565b34801561028557600080fd5b5060175461029a9060a860020a900460ff1681565b604051901515815260200161019e565b3480156102b657600080fd5b506101bc610676565b3480156102cb57600080fd5b506102d5600f5481565b60405190815260200161019e565b3480156102ef57600080fd5b506103036102fe36600461292b565b610683565b005b34801561031157600080fd5b50610303610320366004612a68565b610c5a565b34801561033157600080fd5b50610303610ef3565b34801561034657600080fd5b5061034f6110d7565b60405161019e93929190612a9c565b34801561036a57600080fd5b50610303610379366004612af3565b611285565b34801561038a57600080fd5b506101bc611453565b34801561039f57600080fd5b506017546101e9906101009004600160a060020a031681565b3480156103c457600080fd5b506001546101e990600160a060020a031681565b3480156103e457600080fd5b50610303611460565b3480156103f957600080fd5b506102d5600c5481565b34801561040f57600080fd5b5060175461026c9060ff1681565b34801561042957600080fd5b506101bc611819565b34801561043e57600080fd5b5061045261044d366004612c7f565b611826565b60405161019e9493929190612c98565b610303610470366004612ce5565b611a07565b34801561048157600080fd5b506013546101e9906101009004600160a060020a031681565b3480156104a657600080fd5b506103036104b5366004612d71565b611d2a565b3480156104c657600080fd5b50610303612351565b3480156104db57600080fd5b506015546101e990600160a060020a031681565b3480156104fb57600080fd5b506102d5600d5481565b34801561051157600080fd5b506101bc612690565b34801561052657600080fd5b50600a546102d5565b34801561053b57600080fd5b5061019061269d565b600480546005805491929161055890612d8e565b80601f016020809104026020016040519081016040528092919081815260200182805461058490612d8e565b80156105d15780601f106105a6576101008083540402835291602001916105d1565b820191906000526020600020905b8154815290600101906020018083116105b457829003601f168201915b5050505050905082565b600380546105e890612d8e565b80601f016020809104026020016040519081016040528092919081815260200182805461061490612d8e565b80156106615780601f1061063657610100808354040283529160200191610661565b820191906000526020600020905b81548152906001019060200180831161064457829003601f168201915b505050505081565b600280546105e890612d8e565b601680546105e890612d8e565b60135460405160e760020a63012875b1028152610100909104600160a060020a03169063943ad880906106ba9033906004016128b0565b602060405180830381865afa1580156106d7573d6000803e3d6000fd5b505050506040513d601f19601f820116820180604052508101906106fb9190612dcc565b8061077c575060135460405160e060020a63fd6aad25028152610100909104600160a060020a03169063fd6aad25906107389033906004016128b0565b602060405180830381865afa158015610755573d6000803e3d6000fd5b505050506040513d601f19601f820116820180604052508101906107799190612de9565b15155b6107c35760405160e560020a62461bcd02815260206004820152600d6024820152609a60020a6c085ad95c1c881bdc881bdc98db0260448201526064015b60405180910390fd5b600560135460ff1660078111156107dc576107dc6128c4565b146108175760405160e560020a62461bcd028152602060048201526005602482015260dc60020a6402164697370260448201526064016107ba565b6015546000805460405160e160020a633188e1790281529192600160a060020a0390811692636311c2f29261085492600392911690600401612e02565b6020604051808303816000875af1158015610873573d6000803e3d6000fd5b505050506040513d601f19601f820116820180604052508101906108979190612dcc565b9050806108b95760405160e560020a62461bcd0281526004016107ba90612e9c565b841561097b57600760135460ff1660078111156108d8576108d86128c4565b5050811561097657600154600c54604051600092600160a060020a031691908381818185875af1925050503d806000811461092f576040519150601f19603f3d011682016040523d82523d6000602084013e610934565b606091505b50509050806109745760405160e560020a62461bcd0281526004016107ba90602080825260049082015260e260020a63085cdb9d02604082015260600190565b505b610a22565b6013805460ff191660061790558115610a225760008054600c54604051600160a060020a03909216918381818185875af1925050503d80600081146109dc576040519150601f19603f3d011682016040523d82523d6000602084013e6109e1565b606091505b5050905080610a205760405160e560020a62461bcd028152602060048201526005602482015260d960020a6410b9b73a190260448201526064016107ba565b505b8315610a925760145460005460405160e160020a6329ca0ea7028152600160a060020a03928316926353941d4e92610a5f929116906004016128b0565b600060405180830381600087803b158015610a7957600080fd5b505af1158015610a8d573d6000803e3d6000fd5b505050505b8215610b025760145460015460405160e160020a6329ca0ea7028152600160a060020a03928316926353941d4e92610acf929116906004016128b0565b600060405180830381600087803b158015610ae957600080fd5b505af1158015610afd573d6000803e3d6000fd5b505050505b60145460005460135460405160e060020a63fe4162d1028152600160a060020a039384169363fe4162d193610b44933093919092169160ff1690600401612ec1565b600060405180830381600087803b158015610b5e57600080fd5b505af1158015610b72573d6000803e3d6000fd5b505060145460015460135460405160e060020a63fe4162d1028152600160a060020a03938416955063fe4162d19450610bb5933093169160ff1690600401612ec1565b600060405180830381600087803b158015610bcf57600080fd5b505af1158015610be3573d6000803e3d6000fd5b505060155460135460405160e160020a634cd955e3028152600160a060020a0390921693506399b2abc69250610c219160ff90911690600401612ee6565b600060405180830381600087803b158015610c3b57600080fd5b505af1158015610c4f573d6000803e3d6000fd5b505050505050505050565b600054600154600160a060020a03918216911633821480610c83575033600160a060020a038216145b610cbe5760405160e560020a62461bcd028152602060048201526006602482015260d460020a6502167726f7570260448201526064016107ba565b600560135460ff166007811115610cd757610cd76128c4565b14158015610cfc5750600660135460ff166007811115610cf957610cf96128c4565b14155b8015610d1f5750600760135460ff166007811115610d1c57610d1c6128c4565b14155b610d5e5760405160e560020a62461bcd02815260206004820152600a602482015260b060020a69616c72656164794469730260448201526064016107ba565b60138054600560ff19918216811790925560178054600160a860020a03191633610100029092169190911790911790556016610d9a8482612f55565b5060145460005460135460405160e060020a63fe4162d1028152600160a060020a039384169363fe4162d193610ddd933093919092169160ff1690600401612ec1565b600060405180830381600087803b158015610df757600080fd5b505af1158015610e0b573d6000803e3d6000fd5b505060145460015460135460405160e060020a63fe4162d1028152600160a060020a03938416955063fe4162d19450610e4e933093169160ff1690600401612ec1565b600060405180830381600087803b158015610e6857600080fd5b505af1158015610e7c573d6000803e3d6000fd5b505060155460135460405160e160020a634cd955e3028152600160a060020a0390921693506399b2abc69250610ebc9160ff90911690879060040161301a565b600060405180830381600087803b158015610ed657600080fd5b505af1158015610eea573d6000803e3d6000fd5b50505050505050565b600054600160a060020a0316338114610f215760405160e560020a62461bcd0281526004016107ba9061303a565b600260135460ff166007811115610f3a57610f3a6128c4565b14610f7b5760405160e560020a62461bcd02815260206004820152600b602482015260a860020a6a74726473747321636f6d6d0260448201526064016107ba565b6013805460ff1916600390811790915560145460005460405160e060020a63fe4162d1028152600160a060020a039283169363fe4162d193610fc593309391169190600401612ec1565b600060405180830381600087803b158015610fdf57600080fd5b505af1158015610ff3573d6000803e3d6000fd5b505060145460015460135460405160e060020a63fe4162d1028152600160a060020a03938416955063fe4162d19450611036933093169160ff1690600401612ec1565b600060405180830381600087803b15801561105057600080fd5b505af1158015611064573d6000803e3d6000fd5b505060155460135460405160e160020a634cd955e3028152600160a060020a0390921693506399b2abc692506110a29160ff90911690600401612ee6565b600060405180830381600087803b1580156110bc57600080fd5b505af11580156110d0573d6000803e3d6000fd5b5050505050565b6010805481906110e690612d8e565b80601f016020809104026020016040519081016040528092919081815260200182805461111290612d8e565b801561115f5780601f106111345761010080835404028352916020019161115f565b820191906000526020600020905b81548152906001019060200180831161114257829003601f168201915b50505050509080600101805461117490612d8e565b80601f01602080910402602001604051908101604052809291908181526020018280546111a090612d8e565b80156111ed5780601f106111c2576101008083540402835291602001916111ed565b820191906000526020600020905b8154815290600101906020018083116111d057829003601f168201915b50505050509080600201805461120290612d8e565b80601f016020809104026020016040519081016040528092919081815260200182805461122e90612d8e565b801561127b5780601f106112505761010080835404028352916020019161127b565b820191906000526020600020905b81548152906001019060200180831161125e57829003601f168201915b5050505050905083565b601554600160a060020a0316331480156112a9575060175460a860020a900460ff16155b6112e65760405160e560020a62461bcd028152602060048201526008602482015260c060020a6721666163746f72790260448201526064016107ba565b6017805460a860020a60ff02191660a860020a17905560005b83518110156113a857600a84828151811061131c5761131c61305d565b6020908102919091018101518254600181018455600093845291909220825160049092020190819061134e9082612f55565b50602082015160018201906113639082612f55565b50604082015160028201805460ff191660ff909216919091179055606082015160038201906113929082612f55565b50505080806113a090613077565b9150506112ff565b506014546000805460405160e060020a63116fd649028152600160a060020a039384169363116fd649936113e893309360019390911691906004016130a2565b600060405180830381600087803b15801561140257600080fd5b505af1158015611416573d6000803e3d6000fd5b5050505081600b90816114299190612f55565b50600e805482919060ff19166001836002811115611449576114496128c4565b0217905550505050565b600880546105e890612d8e565b600154600160a060020a031633811461148e5760405160e560020a62461bcd0281526004016107ba9061303a565b600260135460ff1660078111156114a7576114a76128c4565b14806114c95750600360135460ff1660078111156114c7576114c76128c4565b145b61150e5760405160e560020a62461bcd0281526020600482015260106024820152608160020a6f3a393239ba3990b1b7b6b6be30b1ba170260448201526064016107ba565b6013805460ff1916600490811790915560145460005460405160e160020a6321f11cdd028152600160a060020a03928316936343e239ba93611555933093911691016130e8565b600060405180830381600087803b15801561156f57600080fd5b505af1158015611583573d6000803e3d6000fd5b50506015546000805460405160e160020a633188e179028152919450600160a060020a039283169350636311c2f2926115c59260039290911690600401612e02565b6020604051808303816000875af11580156115e4573d6000803e3d6000fd5b505050506040513d601f19601f820116820180604052508101906116089190612dcc565b9050806116555760405160e560020a62461bcd0281526020600482015260156024820152605a60020a74191a591b89dd081c995b5bdd99481d1c98591952590260448201526064016107ba565b60008054600c54604051600160a060020a03909216918381818185875af1925050503d80600081146116a3576040519150601f19603f3d011682016040523d82523d6000602084013e6116a8565b606091505b50509050806116fa5760405160e560020a62461bcd0281526020600482015260186024820152604060020a774661696c7572652c206574686572206e6f742073656e74210260448201526064016107ba565b60145460005460135460405160e060020a63fe4162d1028152600160a060020a039384169363fe4162d19361173c933093919092169160ff1690600401612ec1565b600060405180830381600087803b15801561175657600080fd5b505af115801561176a573d6000803e3d6000fd5b505060145460015460135460405160e060020a63fe4162d1028152600160a060020a03938416955063fe4162d194506117ad933093169160ff1690600401612ec1565b600060405180830381600087803b1580156117c757600080fd5b505af11580156117db573d6000803e3d6000fd5b505060155460135460405160e160020a634cd955e3028152600160a060020a0390921693506399b2abc69250610ebc9160ff90911690600401612ee6565b600b80546105e890612d8e565b600a818154811061183657600080fd5b906000526020600020906004020160009150905080600001805461185990612d8e565b80601f016020809104026020016040519081016040528092919081815260200182805461188590612d8e565b80156118d25780601f106118a7576101008083540402835291602001916118d2565b820191906000526020600020905b8154815290600101906020018083116118b557829003601f168201915b5050505050908060010180546118e790612d8e565b80601f016020809104026020016040519081016040528092919081815260200182805461191390612d8e565b80156119605780601f1061193557610100808354040283529160200191611960565b820191906000526020600020905b81548152906001019060200180831161194357829003601f168201915b5050506002840154600385018054949560ff90921694919350915061198490612d8e565b80601f01602080910402602001604051908101604052809291908181526020018280546119b090612d8e565b80156119fd5780601f106119d2576101008083540402835291602001916119fd565b820191906000526020600020905b8154815290600101906020018083116119e057829003601f168201915b5050505050905084565b600060135460ff166007811115611a2057611a206128c4565b14611a625760405160e560020a62461bcd02815260206004820152600c602482015260a160020a6b3a39321039ba1010b832b7170260448201526064016107ba565b600d54341015611aa35760405160e560020a62461bcd028152602060048201526006602482015260d060020a652176616c75650260448201526064016107ba565b600054600160a060020a03163303611aed5760405160e560020a62461bcd028152602060048201526007602482015260c960020a6610b9b2b63632b90260448201526064016107ba565b6013805460ff1916600217905560145460005460405160e060020a637f1b5565028152600160a060020a0392831692637f1b556592611b34923092909116906004016130e8565b600060405180830381600087803b158015611b4e57600080fd5b505af1158015611b62573d6000803e3d6000fd5b505060018054600160a060020a031916331790555050805160069081556020820151829190600790611b949082612f55565b505034600c555042600f55600d54600090611bae906126b1565b90506000611bc06004600001546126b1565b90506000611bd184600001516126b1565b602080860151604051929350600092611bf392869260059287928a910161312f565b60408051601f198184030181529082905260145460005460135460e060020a63fe4162d1028552929450600160a060020a039182169363fe4162d193611c45933093169160ff90911690600401612ec1565b600060405180830381600087803b158015611c5f57600080fd5b505af1158015611c73573d6000803e3d6000fd5b505060145460015460135460405160e060020a63116fd649028152600160a060020a03938416955063116fd6499450611cbc93309360009391169160ff909116906004016130a2565b600060405180830381600087803b158015611cd657600080fd5b505af1158015611cea573d6000803e3d6000fd5b505060155460135460405160e160020a634cd955e3028152600160a060020a0390921693506399b2abc69250610c219160ff90911690859060040161301a565b60135460405160e760020a63012875b1028152610100909104600160a060020a03169063943ad88090611d619033906004016128b0565b602060405180830381865afa158015611d7e573d6000803e3d6000fd5b505050506040513d601f19601f82011682018060405250810190611da29190612dcc565b611dab57600080fd5b600260135460ff166007811115611dc457611dc46128c4565b1015611e075760405160e560020a62461bcd02815260206004820152600c602482015260a060020a6b747264737473213e636f6d6d0260448201526064016107ba565b600460135460ff166007811115611e2057611e206128c4565b10611e615760405160e560020a62461bcd02815260206004820152600b602482015260ac60020a6a07472647374733c636f6d70260448201526064016107ba565b80156120ae576013805460ff1916600490811790915560145460005460405160e160020a6321f11cdd028152600160a060020a03928316936343e239ba93611eae933093911691016130e8565b600060405180830381600087803b158015611ec857600080fd5b505af1158015611edc573d6000803e3d6000fd5b505060145460005460135460405160e060020a63fe4162d1028152600160a060020a03938416955063fe4162d19450611f1f933093169160ff1690600401612ec1565b600060405180830381600087803b158015611f3957600080fd5b505af1158015611f4d573d6000803e3d6000fd5b505060145460015460135460405160e060020a63fe4162d1028152600160a060020a03938416955063fe4162d19450611f90933093169160ff1690600401612ec1565b600060405180830381600087803b158015611faa57600080fd5b505af1158015611fbe573d6000803e3d6000fd5b505060008054600c54604051929450600160a060020a039091169250908381818185875af1925050503d8060008114612013576040519150601f19603f3d011682016040523d82523d6000602084013e612018565b606091505b505090508061203c5760405160e560020a62461bcd0281526004016107ba90613210565b60155460135460405160e160020a634cd955e3028152600160a060020a03909216916399b2abc6916120769160ff90911690600401613234565b600060405180830381600087803b15801561209057600080fd5b505af11580156120a4573d6000803e3d6000fd5b50505050506122ab565b60138054600760ff198216811790925560145460005460405160e060020a63fe4162d102815260ff90931693600160a060020a039283169363fe4162d1936120fd933093911691600401612ec1565b600060405180830381600087803b15801561211757600080fd5b505af115801561212b573d6000803e3d6000fd5b5060029250612138915050565b81600781111561214a5761214a6128c4565b106121c45760145460015460135460405160e060020a63fe4162d1028152600160a060020a039384169363fe4162d193612191933093919092169160ff1690600401612ec1565b600060405180830381600087803b1580156121ab57600080fd5b505af11580156121bf573d6000803e3d6000fd5b505050505b600154600c54604051600092600160a060020a031691908381818185875af1925050503d8060008114612213576040519150601f19603f3d011682016040523d82523d6000602084013e612218565b606091505b505090508061223c5760405160e560020a62461bcd0281526004016107ba90613210565b60155460135460405160e160020a634cd955e3028152600160a060020a03909216916399b2abc6916122769160ff90911690600401613269565b600060405180830381600087803b15801561229057600080fd5b505af11580156122a4573d6000803e3d6000fd5b5050505050505b6015546000805460405160e160020a633188e1790281529192600160a060020a0390811692636311c2f2926122e892600392911690600401612e02565b6020604051808303816000875af1158015612307573d6000803e3d6000fd5b505050506040513d601f19601f8201168201806040525081019061232b9190612dcc565b90508061234d5760405160e560020a62461bcd0281526004016107ba90612e9c565b5050565b600054600160a060020a031633811461237f5760405160e560020a62461bcd0281526004016107ba9061303a565b600260135460ff166007811115612398576123986128c4565b14806123ba5750600060135460ff1660078111156123b8576123b86128c4565b145b6123f65760405160e560020a62461bcd028152602060048201526007602482015260c960020a6639ba1010b832b70260448201526064016107ba565b60138054600160ff198216811790925560145460005460405160e060020a63fe4162d102815260ff90931693600160a060020a039283169363fe4162d193612445933093911691600401612ec1565b600060405180830381600087803b15801561245f57600080fd5b505af1158015612473573d6000803e3d6000fd5b5060029250612480915050565b816007811115612492576124926128c4565b036125a35760145460015460135460405160e060020a63fe4162d1028152600160a060020a039384169363fe4162d1936124d9933093919092169160ff1690600401612ec1565b600060405180830381600087803b1580156124f357600080fd5b505af1158015612507573d6000803e3d6000fd5b5050600154600c5460405160009450600160a060020a039092169250908381818185875af1925050503d806000811461255c576040519150601f19603f3d011682016040523d82523d6000602084013e612561565b606091505b50509050806125a15760405160e560020a62461bcd0281526004016107ba90602080825260049082015260e360020a630428ae8d02604082015260600190565b505b60155460135460405160e160020a634cd955e3028152600160a060020a03909216916399b2abc6916125dd9160ff90911690600401612ee6565b600060405180830381600087803b1580156125f757600080fd5b505af115801561260b573d6000803e3d6000fd5b505060155460005460405160e160020a633188e179028152600160a060020a039283169450636311c2f29350612648926003921690600401612e02565b6020604051808303816000875af1158015612667573d6000803e3d6000fd5b505050506040513d601f19601f8201168201806040525081019061268b9190612dcc565b505050565b600980546105e890612d8e565b600680546007805491929161055890612d8e565b606060006126be83612746565b60010190506000816001604060020a038111156126dd576126dd612987565b6040519080825280601f01601f191660200182016040528015612707576020820181803683370190505b5090508181016020015b60001901608160020a6f181899199a1a9b1b9c1cb0b131b232b302600a86061a8153600a850494508461271157509392505050565b600080604060020a72184f03e93ff9f4daa797ed6e38ed64bf6a1f0102831061278b57604060020a72184f03e93ff9f4daa797ed6e38ed64bf6a1f0102830492506040015b6d04ee2d6d415b85acef810000000083106127b7576d04ee2d6d415b85acef8100000000830492506020015b662386f26fc1000083106127d557662386f26fc10000830492506010015b6305f5e10083106127ed576305f5e100830492506008015b612710831061280157612710830492506004015b60648310612813576064830492506002015b600a831061281f576001015b92915050565b60005b83811015612840578181015183820152602001612828565b50506000910152565b60008151808452612861816020860160208601612825565b601f01601f19169290920160200192915050565b82815260406020820152600061288e6040830184612849565b949350505050565b6020815260006128a96020830184612849565b9392505050565b600160a060020a0391909116815260200190565b60e060020a634e487b710260009081526021600452602490fd5b60208101600383106128f2576128f26128c4565b91905290565b60088110612908576129086128c4565b9052565b6020810161281f82846128f8565b801515811461292857600080fd5b50565b6000806000806080858703121561294157600080fd5b843561294c8161291a565b9350602085013561295c8161291a565b9250604085013561296c8161291a565b9150606085013561297c8161291a565b939692955090935050565b60e060020a634e487b710260009081526041600452602490fd5b604051608081016001604060020a03811182821017156129c3576129c3612987565b60405290565b604051601f8201601f191681016001604060020a03811182821017156129f1576129f1612987565b604052919050565b600082601f830112612a0a57600080fd5b81356001604060020a03811115612a2357612a23612987565b612a36601f8201601f19166020016129c9565b818152846020838601011115612a4b57600080fd5b816020850160208301376000918101602001919091529392505050565b600060208284031215612a7a57600080fd5b81356001604060020a03811115612a9057600080fd5b61288e848285016129f9565b606081526000612aaf6060830186612849565b8281036020840152612ac18186612849565b90508281036040840152612ad58185612849565b9695505050505050565b803560038110612aee57600080fd5b919050565b600080600060608486031215612b0857600080fd5b83356001604060020a0380821115612b1f57600080fd5b818601915086601f830112612b3357600080fd5b8135602082821115612b4757612b47612987565b808202612b558282016129c9565b928352848101820192828101908b851115612b6f57600080fd5b83870192505b84831015612c4357823586811115612b8c57600080fd5b87016080818e03601f19011215612ba257600080fd5b612baa6129a1565b8582013588811115612bbb57600080fd5b612bc98f88838601016129f9565b825250604082013588811115612bdf5760008081fd5b612bed8f88838601016129f9565b8783015250606082013560ff81168114612c075760008081fd5b6040820152608082013588811115612c1f5760008081fd5b612c2d8f88838601016129f9565b6060830152508352509183019190830190612b75565b9850505087013592505080821115612c5a57600080fd5b50612c67868287016129f9565b925050612c7660408501612adf565b90509250925092565b600060208284031215612c9157600080fd5b5035919050565b608081526000612cab6080830187612849565b8281036020840152612cbd8187612849565b905060ff851660408401528281036060840152612cda8185612849565b979650505050505050565b600060208284031215612cf757600080fd5b81356001604060020a0380821115612d0e57600080fd5b9083019060408286031215612d2257600080fd5b604051604081018181108382111715612d3d57612d3d612987565b60405282358152602083013582811115612d5657600080fd5b612d62878286016129f9565b60208301525095945050505050565b600060208284031215612d8357600080fd5b81356128a98161291a565b600281046001821680612da257607f821691505b602082108103612dc65760e060020a634e487b710260009081526022600452602490fd5b50919050565b600060208284031215612dde57600080fd5b81516128a98161291a565b600060208284031215612dfb57600080fd5b5051919050565b604081526000808454612e1481612d8e565b8060408601526060600180841660008114612e365760018114612e5057612e81565b60ff19851688840152602084151502880183019550612e81565b8960005260208060002060005b86811015612e785781548b8201870152908401908201612e5d565b8a018501975050505b50505050600160a060020a03851660208501525090506128a9565b602080825260089082015260c260020a67085d1c985919525902604082015260600190565b600160a060020a038481168252831660208201526060810161288e60408301846128f8565b612ef081836128f8565b604060208201819052600090820152606001919050565b601f82111561268b576000818152602081206020601f86010481016020861015612f2e5750805b6020601f860104820191505b81811015612f4d57828155600101612f3a565b505050505050565b81516001604060020a03811115612f6e57612f6e612987565b612f8281612f7c8454612d8e565b84612f07565b602080601f831160018114612fbb5760008415612f9f5750858301515b60028086026008870290910a6000190419821617865550612f4d565b600085815260208120601f198616915b82811015612fea57888601518255948401946001909101908401612fcb565b508582101561300a57878501516008601f88160260020a60001904191681555b5050505050600202600101905550565b61302481846128f8565b60406020820152600061288e6040830184612849565b602080825260069082015260d060020a6521706172747902604082015260600190565b60e060020a634e487b710260009081526032600452602490fd5b60006001820161309b5760e060020a634e487b710260009081526011600452602490fd5b5060010190565b600160a060020a0385811682526080820190600286106130c4576130c46128c4565b60208301869052841660408301526130df60608301846128f8565b95945050505050565b600160a060020a0392831681529116602082015260400190565b60008151613114818560208601612825565b9290920192915050565b60f260020a611f1f02815260020190565b6000865160206131428285838c01612825565b818401915060f860020a602b02825260016000895461316081612d8e565b8184168015613176576001811461318f576131bf565b60ff1983168786015281151582028701850193506131bf565b8c6000528560002060005b838110156131b557815489820188015290860190870161319a565b5050848288010193505b5050506132016131fb6131f66131f06131e06131da8661311e565b8e613102565b60f860020a602b02815260010190565b8b613102565b61311e565b88613102565b9b9a5050505050505050505050565b602080825260079082015260cb60020a66042e6dce88ae8d02604082015260600190565b61323e81836128f8565b60406020820181905260089082015260c060020a674b4f205452414445026060820152608001919050565b61327381836128f8565b604060208201819052600a9082015260b260020a6912d3c81111519055531502606082015260800191905056fea2646970667358221220c1ae32d7d658bc667b088f6098af94c11055aea72738cad5c97735b3fe733df364736f6c63430008130033e84cfdc339669fa65116ce7f2ca5c4d0818d0ba66cc7fa49d99a653a89882b1da2646970667358221220a2ae205f70b4b8cc023c04a468ea5373386c08172988f20771da118e8a71e32764736f6c63430008130033",
  "immutableReferences": {},
  "source": "// //SPDX-License-Identifier: UNLICENSED\r\npragma solidity 0.8.19;\r\n\r\nimport \"./TradeFactoryBase.sol\";\r\n\r\nstruct TradeIndex {\r\n    uint256 index;\r\n    uint256 weiPrice;\r\n    PriceType priceType;\r\n    string weaponType;\r\n    string itemMarketName;\r\n    uint256 nextIndex;\r\n}\r\n\r\ncontract SMTradeFactory is TradeFactoryBase {\r\n    constructor(\r\n        address _keepers,\r\n        address _users\r\n    ) TradeFactoryBase(_keepers, _users) {}\r\n\r\n    function createListingContract(\r\n        string memory _itemMarketName,\r\n        TradeUrl memory _tradeUrl,\r\n        string memory _assetId,\r\n        string memory _inspectLink,\r\n        string memory _itemImageUrl,\r\n        uint256 _weiPrice,\r\n        FloatInfo memory _float,\r\n        Sticker[] memory _stickers,\r\n        string memory _weaponType,\r\n        PriceType _priceType\r\n    ) external nonReentrant {\r\n        require(usersContract.isBanned(msg.sender) == false, \"banned\");\r\n        require(\r\n            assetIdFromUserAddrssToTradeAddrss[_assetId][msg.sender] ==\r\n                address(0),\r\n            \"ID exists\"\r\n        );\r\n        tradeContracts[totalContracts] = new SMTrade(\r\n            address(this),\r\n            address(keepersContract),\r\n            address(usersContract),\r\n            msg.sender,\r\n            _weiPrice,\r\n            _itemMarketName,\r\n            _tradeUrl,\r\n            _assetId,\r\n            _inspectLink,\r\n            _itemImageUrl,\r\n            _float\r\n        );\r\n        ++totalContracts;\r\n\r\n        address newAddress = address(tradeContracts[totalContracts - 1]);\r\n\r\n        isTradeContract[newAddress] = true;\r\n        tradeContracts[totalContracts - 1].initExtraInfo(\r\n            _stickers,\r\n            _weaponType,\r\n            _priceType\r\n        );\r\n\r\n        contractAddressToIndex[newAddress] = totalContracts - 1;\r\n        assetIdFromUserAddrssToTradeAddrss[_assetId][msg.sender] = newAddress;\r\n\r\n        string memory _tradeUrlPartner = Strings.toString(_tradeUrl.partner);\r\n        string memory data = string(\r\n            abi.encodePacked(\r\n                _itemMarketName,\r\n                \"||\",\r\n                _assetId,\r\n                \"||\",\r\n                _tradeUrlPartner,\r\n                \"+\",\r\n                _tradeUrl.token,\r\n                \"||\",\r\n                _float.value\r\n            )\r\n        );\r\n        emit TradeContractStatusChange(newAddress, TradeStatus.Pending, data);\r\n    }\r\n\r\n    function getTradeDetailsByIndex(\r\n        uint256 index\r\n    ) public view returns (TradeInfo memory result) {\r\n        uint256 i = index;\r\n        SMTrade _contract = tradeContracts[i];\r\n\r\n        result.contractAddress = address(_contract);\r\n        result.seller = _contract.seller();\r\n        result.buyer = _contract.buyer();\r\n        result.itemMarketName = _contract.itemMarketName();\r\n        result.inspectLink = _contract.inspectLink();\r\n\r\n        TradeUrl memory _sTradeUrl;\r\n        (_sTradeUrl.partner, _sTradeUrl.token) = _contract.sellerTradeUrl();\r\n        result.sellerTradeUrl = _sTradeUrl;\r\n\r\n        TradeUrl memory _bTradeUrl;\r\n        (_bTradeUrl.partner, _bTradeUrl.token) = _contract.buyerTradeUrl();\r\n        result.buyerTradeUrl = _bTradeUrl;\r\n\r\n        result.weiPrice = _contract.weiPrice();\r\n        result.itemImageUrl = _contract.itemImageUrl();\r\n        result.averageSellerDeliveryTime = usersContract.getAverageDeliveryTime(\r\n            result.seller\r\n        );\r\n        FloatInfo memory _float;\r\n        (_float.value, _float.min, _float.max) = _contract.float();\r\n        result.float = _float;\r\n        result.status = _contract.status();\r\n\r\n        uint256 lengthOfStickersArray = _contract.stickerLength();\r\n        Sticker[] memory _stickers = new Sticker[](lengthOfStickersArray);\r\n\r\n        for (uint256 y = 0; y < _stickers.length; y++) {\r\n            (\r\n                _stickers[y].name,\r\n                _stickers[y].material,\r\n                _stickers[y].slot,\r\n                _stickers[y].imageLink\r\n            ) = _contract.stickers(y);\r\n        }\r\n        result.stickers = _stickers;\r\n\r\n        result.weaponType = _contract.weaponType();\r\n\r\n        return result;\r\n    }\r\n\r\n    function getTradeDetailsByAddress(\r\n        address tradeAddrs\r\n    ) public view returns (TradeInfo memory result) {\r\n        uint256 i = contractAddressToIndex[tradeAddrs];\r\n        result = getTradeDetailsByIndex(i);\r\n    }\r\n\r\n    function getTradeIndexesByStatus(\r\n    TradeStatus status,\r\n    uint256 indexFrom,\r\n    uint256 maxResults\r\n    ) external view returns (TradeIndex[] memory) {\r\n        TradeIndex[] memory tradeIndexes = new TradeIndex[](maxResults);\r\n        uint256 resultIndex;\r\n        uint256 i = indexFrom;\r\n        while (resultIndex < maxResults && i < totalContracts) {\r\n            TradeInfo memory _trade = getTradeDetailsByIndex(i);\r\n\r\n            if (_trade.status == status) {\r\n                tradeIndexes[resultIndex].index = i;\r\n                tradeIndexes[resultIndex].weiPrice = _trade.weiPrice;\r\n                tradeIndexes[resultIndex].priceType = PriceType.ETHER;\r\n                tradeIndexes[resultIndex].weaponType = _trade.weaponType;\r\n                tradeIndexes[resultIndex].itemMarketName = _trade.itemMarketName;\r\n                tradeIndexes[resultIndex].nextIndex = i + 1;\r\n                ++resultIndex;\r\n            }\r\n\r\n            ++i;\r\n        }\r\n        return tradeIndexes;\r\n    }\r\n\r\n    function getTradeCountByStatus(\r\n        TradeStatus status\r\n    ) external view returns (uint256) {\r\n        uint256 count;\r\n        uint256 i = 0;\r\n        while (i < totalContracts) {\r\n            TradeInfo memory _trade = getTradeDetailsByIndex(i);\r\n            if (_trade.status == status) {\r\n                ++count;\r\n            }\r\n            ++i;\r\n        }\r\n        return count;\r\n    }\r\n}\r\n",
  "sourcePath": "C:\\Users\\Charl\\Documents\\Projects\\SteamMarket\\CSX\\csx-contracts\\contracts\\TradeFactory\\TradeFactory.sol",
  "compiler": {
    "name": "solc",
    "version": "0.8.19+commit.7dd6d404.Emscripten.clang"
  },
  "schemaVersion": "3.4.3",
  "updatedAt": "2023-03-22T13:11:46.371Z",
  "devdoc": {
    "kind": "dev",
    "methods": {},
    "version": 1
  },
  "userdoc": {
    "kind": "user",
    "methods": {},
    "version": 1
  }
}