{
  "contractName": "SMTrade",
  "abi": [
    {
      "inputs": [
        {
          "internalType": "address",
          "name": "_factory",
          "type": "address"
        },
        {
          "internalType": "address",
          "name": "_keepers",
          "type": "address"
        },
        {
          "internalType": "address",
          "name": "_users",
          "type": "address"
        },
        {
          "internalType": "address",
          "name": "_seller",
          "type": "address"
        },
        {
          "internalType": "uint256",
          "name": "_weiPrice",
          "type": "uint256"
        },
        {
          "internalType": "string",
          "name": "_itemMarketName",
          "type": "string"
        },
        {
          "components": [
            {
              "internalType": "uint256",
              "name": "partner",
              "type": "uint256"
            },
            {
              "internalType": "string",
              "name": "token",
              "type": "string"
            }
          ],
          "internalType": "struct TradeUrl",
          "name": "_sellerTradeUrl",
          "type": "tuple"
        },
        {
          "internalType": "string",
          "name": "_sellerAssetId",
          "type": "string"
        },
        {
          "internalType": "string",
          "name": "_inspectLink",
          "type": "string"
        },
        {
          "internalType": "string",
          "name": "_itemImageUrl",
          "type": "string"
        },
        {
          "components": [
            {
              "internalType": "string",
              "name": "value",
              "type": "string"
            },
            {
              "internalType": "string",
              "name": "min",
              "type": "string"
            },
            {
              "internalType": "string",
              "name": "max",
              "type": "string"
            }
          ],
          "internalType": "struct FloatInfo",
          "name": "_float",
          "type": "tuple"
        }
      ],
      "stateMutability": "nonpayable",
      "type": "constructor"
    },
    {
      "inputs": [],
      "name": "buyer",
      "outputs": [
        {
          "internalType": "address payable",
          "name": "",
          "type": "address"
        }
      ],
      "stateMutability": "view",
      "type": "function"
    },
    {
      "inputs": [],
      "name": "buyerCommittedTimestamp",
      "outputs": [
        {
          "internalType": "uint256",
          "name": "",
          "type": "uint256"
        }
      ],
      "stateMutability": "view",
      "type": "function"
    },
    {
      "inputs": [],
      "name": "buyerDeposited",
      "outputs": [
        {
          "internalType": "uint256",
          "name": "",
          "type": "uint256"
        }
      ],
      "stateMutability": "view",
      "type": "function"
    },
    {
      "inputs": [],
      "name": "buyerTradeUrl",
      "outputs": [
        {
          "internalType": "uint256",
          "name": "partner",
          "type": "uint256"
        },
        {
          "internalType": "string",
          "name": "token",
          "type": "string"
        }
      ],
      "stateMutability": "view",
      "type": "function"
    },
    {
      "inputs": [],
      "name": "disputeComplaint",
      "outputs": [
        {
          "internalType": "string",
          "name": "",
          "type": "string"
        }
      ],
      "stateMutability": "view",
      "type": "function"
    },
    {
      "inputs": [],
      "name": "disputedStatus",
      "outputs": [
        {
          "internalType": "enum TradeStatus",
          "name": "",
          "type": "uint8"
        }
      ],
      "stateMutability": "view",
      "type": "function"
    },
    {
      "inputs": [],
      "name": "disputeer",
      "outputs": [
        {
          "internalType": "address",
          "name": "",
          "type": "address"
        }
      ],
      "stateMutability": "view",
      "type": "function"
    },
    {
      "inputs": [],
      "name": "factoryContract",
      "outputs": [
        {
          "internalType": "contract ITradeFactory",
          "name": "",
          "type": "address"
        }
      ],
      "stateMutability": "view",
      "type": "function"
    },
    {
      "inputs": [],
      "name": "float",
      "outputs": [
        {
          "internalType": "string",
          "name": "value",
          "type": "string"
        },
        {
          "internalType": "string",
          "name": "min",
          "type": "string"
        },
        {
          "internalType": "string",
          "name": "max",
          "type": "string"
        }
      ],
      "stateMutability": "view",
      "type": "function"
    },
    {
      "inputs": [],
      "name": "hasInit",
      "outputs": [
        {
          "internalType": "bool",
          "name": "",
          "type": "bool"
        }
      ],
      "stateMutability": "view",
      "type": "function"
    },
    {
      "inputs": [],
      "name": "inspectLink",
      "outputs": [
        {
          "internalType": "string",
          "name": "",
          "type": "string"
        }
      ],
      "stateMutability": "view",
      "type": "function"
    },
    {
      "inputs": [],
      "name": "itemImageUrl",
      "outputs": [
        {
          "internalType": "string",
          "name": "",
          "type": "string"
        }
      ],
      "stateMutability": "view",
      "type": "function"
    },
    {
      "inputs": [],
      "name": "itemMarketName",
      "outputs": [
        {
          "internalType": "string",
          "name": "",
          "type": "string"
        }
      ],
      "stateMutability": "view",
      "type": "function"
    },
    {
      "inputs": [],
      "name": "itemSellerAssetId",
      "outputs": [
        {
          "internalType": "string",
          "name": "",
          "type": "string"
        }
      ],
      "stateMutability": "view",
      "type": "function"
    },
    {
      "inputs": [],
      "name": "keepersContract",
      "outputs": [
        {
          "internalType": "contract IKeepers",
          "name": "",
          "type": "address"
        }
      ],
      "stateMutability": "view",
      "type": "function"
    },
    {
      "inputs": [],
      "name": "priceType",
      "outputs": [
        {
          "internalType": "enum PriceType",
          "name": "",
          "type": "uint8"
        }
      ],
      "stateMutability": "view",
      "type": "function"
    },
    {
      "inputs": [],
      "name": "seller",
      "outputs": [
        {
          "internalType": "address payable",
          "name": "",
          "type": "address"
        }
      ],
      "stateMutability": "view",
      "type": "function"
    },
    {
      "inputs": [],
      "name": "sellerTradeUrl",
      "outputs": [
        {
          "internalType": "uint256",
          "name": "partner",
          "type": "uint256"
        },
        {
          "internalType": "string",
          "name": "token",
          "type": "string"
        }
      ],
      "stateMutability": "view",
      "type": "function"
    },
    {
      "inputs": [],
      "name": "status",
      "outputs": [
        {
          "internalType": "enum TradeStatus",
          "name": "",
          "type": "uint8"
        }
      ],
      "stateMutability": "view",
      "type": "function"
    },
    {
      "inputs": [
        {
          "internalType": "uint256",
          "name": "",
          "type": "uint256"
        }
      ],
      "name": "stickers",
      "outputs": [
        {
          "internalType": "string",
          "name": "name",
          "type": "string"
        },
        {
          "internalType": "string",
          "name": "material",
          "type": "string"
        },
        {
          "internalType": "uint8",
          "name": "slot",
          "type": "uint8"
        },
        {
          "internalType": "string",
          "name": "imageLink",
          "type": "string"
        }
      ],
      "stateMutability": "view",
      "type": "function"
    },
    {
      "inputs": [],
      "name": "usersContract",
      "outputs": [
        {
          "internalType": "contract IUsers",
          "name": "",
          "type": "address"
        }
      ],
      "stateMutability": "view",
      "type": "function"
    },
    {
      "inputs": [],
      "name": "weaponType",
      "outputs": [
        {
          "internalType": "string",
          "name": "",
          "type": "string"
        }
      ],
      "stateMutability": "view",
      "type": "function"
    },
    {
      "inputs": [],
      "name": "weiPrice",
      "outputs": [
        {
          "internalType": "uint256",
          "name": "",
          "type": "uint256"
        }
      ],
      "stateMutability": "view",
      "type": "function"
    },
    {
      "inputs": [
        {
          "components": [
            {
              "internalType": "string",
              "name": "name",
              "type": "string"
            },
            {
              "internalType": "string",
              "name": "material",
              "type": "string"
            },
            {
              "internalType": "uint8",
              "name": "slot",
              "type": "uint8"
            },
            {
              "internalType": "string",
              "name": "imageLink",
              "type": "string"
            }
          ],
          "internalType": "struct Sticker[]",
          "name": "_stickers",
          "type": "tuple[]"
        },
        {
          "internalType": "string",
          "name": "_weaponType",
          "type": "string"
        },
        {
          "internalType": "enum PriceType",
          "name": "_priceType",
          "type": "uint8"
        }
      ],
      "name": "initExtraInfo",
      "outputs": [],
      "stateMutability": "nonpayable",
      "type": "function"
    },
    {
      "inputs": [],
      "name": "stickerLength",
      "outputs": [
        {
          "internalType": "uint256",
          "name": "",
          "type": "uint256"
        }
      ],
      "stateMutability": "view",
      "type": "function"
    },
    {
      "inputs": [],
      "name": "sellerCancel",
      "outputs": [],
      "stateMutability": "nonpayable",
      "type": "function"
    },
    {
      "inputs": [
        {
          "components": [
            {
              "internalType": "uint256",
              "name": "partner",
              "type": "uint256"
            },
            {
              "internalType": "string",
              "name": "token",
              "type": "string"
            }
          ],
          "internalType": "struct TradeUrl",
          "name": "_buyerTradeUrl",
          "type": "tuple"
        }
      ],
      "name": "commitBuy",
      "outputs": [],
      "stateMutability": "payable",
      "type": "function"
    },
    {
      "inputs": [
        {
          "internalType": "bool",
          "name": "isTradeMade",
          "type": "bool"
        }
      ],
      "name": "keeperNodeConfirmsTrade",
      "outputs": [],
      "stateMutability": "nonpayable",
      "type": "function"
    },
    {
      "inputs": [],
      "name": "acceptTradeOffer",
      "outputs": [],
      "stateMutability": "nonpayable",
      "type": "function"
    },
    {
      "inputs": [],
      "name": "confirmReceived",
      "outputs": [],
      "stateMutability": "nonpayable",
      "type": "function"
    },
    {
      "inputs": [
        {
          "internalType": "string",
          "name": "_complaint",
          "type": "string"
        }
      ],
      "name": "openDispute",
      "outputs": [],
      "stateMutability": "nonpayable",
      "type": "function"
    },
    {
      "inputs": [
        {
          "internalType": "bool",
          "name": "isFavourOfBuyer",
          "type": "bool"
        },
        {
          "internalType": "bool",
          "name": "giveWarningToSeller",
          "type": "bool"
        },
        {
          "internalType": "bool",
          "name": "giveWarningToBuyer",
          "type": "bool"
        },
        {
          "internalType": "bool",
          "name": "isWithValue",
          "type": "bool"
        }
      ],
      "name": "resolveDispute",
      "outputs": [],
      "stateMutability": "nonpayable",
      "type": "function"
    }
  ],
  "bytecode": "0x60806040523480156200001157600080fd5b50604051620039573803806200395783398101604081905262000034916200037b565b60158054600160a060020a038d8116600160a060020a03199283161790925560138054601480548e8616908516179055600080548d8616941693909317909255600d8a9055918c166101000260ff1916600160a860020a03199091161790556002620000a187826200059f565b50845160049081556020860151869190600590620000c090826200059f565b5060039150620000d3905085826200059f565b506008620000e284826200059f565b506009620000f183826200059f565b5080516010906200010390826200059f565b5060208101516011906200011890826200059f565b5060408101516012906200012d90826200059f565b50505050505050505050505062000671565b8051600160a060020a03811681146200015757600080fd5b919050565b7f4e487b7100000000000000000000000000000000000000000000000000000000600052604160045260246000fd5b604051601f8201601f191681016001604060020a0381118282101715620001b657620001b66200015c565b604052919050565b600082601f830112620001d057600080fd5b81516001604060020a03811115620001ec57620001ec6200015c565b602062000202601f8301601f191682016200018b565b82815285828487010111156200021757600080fd5b60005b83811015620002375785810183015182820184015282016200021a565b506000928101909101919091529392505050565b6000604082840312156200025e57600080fd5b604051604081016001604060020a0382821081831117156200028457620002846200015c565b81604052829350845183526020850151915080821115620002a457600080fd5b50620002b385828601620001be565b6020830152505092915050565b600060608284031215620002d357600080fd5b604051606081016001604060020a038282108183111715620002f957620002f96200015c565b8160405282935084519150808211156200031257600080fd5b6200032086838701620001be565b835260208501519150808211156200033757600080fd5b6200034586838701620001be565b602084015260408501519150808211156200035f57600080fd5b506200036e85828601620001be565b6040830152505092915050565b60008060008060008060008060008060006101608c8e0312156200039e57600080fd5b620003a98c6200013f565b9a50620003b960208d016200013f565b9950620003c960408d016200013f565b9850620003d960608d016200013f565b975060808c0151965060a08c01516001604060020a03811115620003fc57600080fd5b6200040a8e828f01620001be565b96505060c08c01516001604060020a038111156200042757600080fd5b620004358e828f016200024b565b95505060e08c01516001604060020a038111156200045257600080fd5b620004608e828f01620001be565b9450506101008c01516001604060020a038111156200047e57600080fd5b6200048c8e828f01620001be565b9350506101208c01516001604060020a03811115620004aa57600080fd5b620004b88e828f01620001be565b9250506101408c01516001604060020a03811115620004d657600080fd5b620004e48e828f01620002c0565b9150509295989b509295989b9093969950565b6002810460018216806200050c57607f821691505b60208210810362000546577f4e487b7100000000000000000000000000000000000000000000000000000000600052602260045260246000fd5b50919050565b601f8211156200059a576000818152602081206020601f86010481016020861015620005755750805b6020601f860104820191505b81811015620005965782815560010162000581565b5050505b505050565b81516001604060020a03811115620005bb57620005bb6200015c565b620005d381620005cc8454620004f7565b846200054c565b602080601f8311600181146200060f5760008415620005f25750858301515b60028086026008870290910a600019041982161786555062000596565b600085815260208120601f198616915b8281101562000640578886015182559484019460019091019084016200061f565b50858210156200066157878501516008601f88160260020a60001904191681555b5050505050600202600101905550565b6132d680620006816000396000f3fe6080604052600436106101765760e060020a600035046302197c55811461017b57806302d8ee9c146101a757806308551a53146101c9578063142ebf3c146101f65780631c925df0146102165780631e86221f1461023d578063200d2ed214610252578063343bf40e14610279578063356cd0dc146102aa5780634181a66c146102bf5780634e9448e9146102e3578063595210ad1461030557806360b7ee991461032557806368ccaa521461033a5780636f04e2d41461035e57806370e066f61461037e57806370ec9d54146103935780637150d8ae146103b857806373fac6f0146103d85780637c148952146103ed57806385e14a48146104035780638dada6d81461041d5780638f965d8014610432578063b06bec3e14610462578063c2bd884b14610475578063d2ef033c1461049a578063d55a17c0146104ba578063de11c94a146104cf578063e29b9e97146104ef578063e67d552314610505578063f4a84e0f1461051a578063fddd56c51461052f575b600080fd5b34801561018757600080fd5b50610190610544565b60405161019e929190612875565b60405180910390f35b3480156101b357600080fd5b506101bc6105db565b60405161019e9190612896565b3480156101d557600080fd5b506000546101e990600160a060020a031681565b60405161019e91906128b0565b34801561020257600080fd5b506014546101e990600160a060020a031681565b34801561022257600080fd5b50600e546102309060ff1681565b60405161019e91906128de565b34801561024957600080fd5b506101bc610669565b34801561025e57600080fd5b5060135461026c9060ff1681565b60405161019e919061290c565b34801561028557600080fd5b5060175461029a9060a860020a900460ff1681565b604051901515815260200161019e565b3480156102b657600080fd5b506101bc610676565b3480156102cb57600080fd5b506102d5600f5481565b60405190815260200161019e565b3480156102ef57600080fd5b506103036102fe36600461292b565b610683565b005b34801561031157600080fd5b50610303610320366004612a68565b610c5a565b34801561033157600080fd5b50610303610ef3565b34801561034657600080fd5b5061034f6110d7565b60405161019e93929190612a9c565b34801561036a57600080fd5b50610303610379366004612af3565b611285565b34801561038a57600080fd5b506101bc611453565b34801561039f57600080fd5b506017546101e9906101009004600160a060020a031681565b3480156103c457600080fd5b506001546101e990600160a060020a031681565b3480156103e457600080fd5b50610303611460565b3480156103f957600080fd5b506102d5600c5481565b34801561040f57600080fd5b5060175461026c9060ff1681565b34801561042957600080fd5b506101bc611819565b34801561043e57600080fd5b5061045261044d366004612c7f565b611826565b60405161019e9493929190612c98565b610303610470366004612ce5565b611a07565b34801561048157600080fd5b506013546101e9906101009004600160a060020a031681565b3480156104a657600080fd5b506103036104b5366004612d71565b611d2a565b3480156104c657600080fd5b50610303612351565b3480156104db57600080fd5b506015546101e990600160a060020a031681565b3480156104fb57600080fd5b506102d5600d5481565b34801561051157600080fd5b506101bc612690565b34801561052657600080fd5b50600a546102d5565b34801561053b57600080fd5b5061019061269d565b600480546005805491929161055890612d8e565b80601f016020809104026020016040519081016040528092919081815260200182805461058490612d8e565b80156105d15780601f106105a6576101008083540402835291602001916105d1565b820191906000526020600020905b8154815290600101906020018083116105b457829003601f168201915b5050505050905082565b600380546105e890612d8e565b80601f016020809104026020016040519081016040528092919081815260200182805461061490612d8e565b80156106615780601f1061063657610100808354040283529160200191610661565b820191906000526020600020905b81548152906001019060200180831161064457829003601f168201915b505050505081565b600280546105e890612d8e565b601680546105e890612d8e565b60135460405160e760020a63012875b1028152610100909104600160a060020a03169063943ad880906106ba9033906004016128b0565b602060405180830381865afa1580156106d7573d6000803e3d6000fd5b505050506040513d601f19601f820116820180604052508101906106fb9190612dcc565b8061077c575060135460405160e060020a63fd6aad25028152610100909104600160a060020a03169063fd6aad25906107389033906004016128b0565b602060405180830381865afa158015610755573d6000803e3d6000fd5b505050506040513d601f19601f820116820180604052508101906107799190612de9565b15155b6107c35760405160e560020a62461bcd02815260206004820152600d6024820152609a60020a6c085ad95c1c881bdc881bdc98db0260448201526064015b60405180910390fd5b600560135460ff1660078111156107dc576107dc6128c4565b146108175760405160e560020a62461bcd028152602060048201526005602482015260dc60020a6402164697370260448201526064016107ba565b6015546000805460405160e160020a633188e1790281529192600160a060020a0390811692636311c2f29261085492600392911690600401612e02565b6020604051808303816000875af1158015610873573d6000803e3d6000fd5b505050506040513d601f19601f820116820180604052508101906108979190612dcc565b9050806108b95760405160e560020a62461bcd0281526004016107ba90612e9c565b841561097b57600760135460ff1660078111156108d8576108d86128c4565b5050811561097657600154600c54604051600092600160a060020a031691908381818185875af1925050503d806000811461092f576040519150601f19603f3d011682016040523d82523d6000602084013e610934565b606091505b50509050806109745760405160e560020a62461bcd0281526004016107ba90602080825260049082015260e260020a63085cdb9d02604082015260600190565b505b610a22565b6013805460ff191660061790558115610a225760008054600c54604051600160a060020a03909216918381818185875af1925050503d80600081146109dc576040519150601f19603f3d011682016040523d82523d6000602084013e6109e1565b606091505b5050905080610a205760405160e560020a62461bcd028152602060048201526005602482015260d960020a6410b9b73a190260448201526064016107ba565b505b8315610a925760145460005460405160e160020a6329ca0ea7028152600160a060020a03928316926353941d4e92610a5f929116906004016128b0565b600060405180830381600087803b158015610a7957600080fd5b505af1158015610a8d573d6000803e3d6000fd5b505050505b8215610b025760145460015460405160e160020a6329ca0ea7028152600160a060020a03928316926353941d4e92610acf929116906004016128b0565b600060405180830381600087803b158015610ae957600080fd5b505af1158015610afd573d6000803e3d6000fd5b505050505b60145460005460135460405160e060020a63fe4162d1028152600160a060020a039384169363fe4162d193610b44933093919092169160ff1690600401612ec1565b600060405180830381600087803b158015610b5e57600080fd5b505af1158015610b72573d6000803e3d6000fd5b505060145460015460135460405160e060020a63fe4162d1028152600160a060020a03938416955063fe4162d19450610bb5933093169160ff1690600401612ec1565b600060405180830381600087803b158015610bcf57600080fd5b505af1158015610be3573d6000803e3d6000fd5b505060155460135460405160e160020a634cd955e3028152600160a060020a0390921693506399b2abc69250610c219160ff90911690600401612ee6565b600060405180830381600087803b158015610c3b57600080fd5b505af1158015610c4f573d6000803e3d6000fd5b505050505050505050565b600054600154600160a060020a03918216911633821480610c83575033600160a060020a038216145b610cbe5760405160e560020a62461bcd028152602060048201526006602482015260d460020a6502167726f7570260448201526064016107ba565b600560135460ff166007811115610cd757610cd76128c4565b14158015610cfc5750600660135460ff166007811115610cf957610cf96128c4565b14155b8015610d1f5750600760135460ff166007811115610d1c57610d1c6128c4565b14155b610d5e5760405160e560020a62461bcd02815260206004820152600a602482015260b060020a69616c72656164794469730260448201526064016107ba565b60138054600560ff19918216811790925560178054600160a860020a03191633610100029092169190911790911790556016610d9a8482612f55565b5060145460005460135460405160e060020a63fe4162d1028152600160a060020a039384169363fe4162d193610ddd933093919092169160ff1690600401612ec1565b600060405180830381600087803b158015610df757600080fd5b505af1158015610e0b573d6000803e3d6000fd5b505060145460015460135460405160e060020a63fe4162d1028152600160a060020a03938416955063fe4162d19450610e4e933093169160ff1690600401612ec1565b600060405180830381600087803b158015610e6857600080fd5b505af1158015610e7c573d6000803e3d6000fd5b505060155460135460405160e160020a634cd955e3028152600160a060020a0390921693506399b2abc69250610ebc9160ff90911690879060040161301a565b600060405180830381600087803b158015610ed657600080fd5b505af1158015610eea573d6000803e3d6000fd5b50505050505050565b600054600160a060020a0316338114610f215760405160e560020a62461bcd0281526004016107ba9061303a565b600260135460ff166007811115610f3a57610f3a6128c4565b14610f7b5760405160e560020a62461bcd02815260206004820152600b602482015260a860020a6a74726473747321636f6d6d0260448201526064016107ba565b6013805460ff1916600390811790915560145460005460405160e060020a63fe4162d1028152600160a060020a039283169363fe4162d193610fc593309391169190600401612ec1565b600060405180830381600087803b158015610fdf57600080fd5b505af1158015610ff3573d6000803e3d6000fd5b505060145460015460135460405160e060020a63fe4162d1028152600160a060020a03938416955063fe4162d19450611036933093169160ff1690600401612ec1565b600060405180830381600087803b15801561105057600080fd5b505af1158015611064573d6000803e3d6000fd5b505060155460135460405160e160020a634cd955e3028152600160a060020a0390921693506399b2abc692506110a29160ff90911690600401612ee6565b600060405180830381600087803b1580156110bc57600080fd5b505af11580156110d0573d6000803e3d6000fd5b5050505050565b6010805481906110e690612d8e565b80601f016020809104026020016040519081016040528092919081815260200182805461111290612d8e565b801561115f5780601f106111345761010080835404028352916020019161115f565b820191906000526020600020905b81548152906001019060200180831161114257829003601f168201915b50505050509080600101805461117490612d8e565b80601f01602080910402602001604051908101604052809291908181526020018280546111a090612d8e565b80156111ed5780601f106111c2576101008083540402835291602001916111ed565b820191906000526020600020905b8154815290600101906020018083116111d057829003601f168201915b50505050509080600201805461120290612d8e565b80601f016020809104026020016040519081016040528092919081815260200182805461122e90612d8e565b801561127b5780601f106112505761010080835404028352916020019161127b565b820191906000526020600020905b81548152906001019060200180831161125e57829003601f168201915b5050505050905083565b601554600160a060020a0316331480156112a9575060175460a860020a900460ff16155b6112e65760405160e560020a62461bcd028152602060048201526008602482015260c060020a6721666163746f72790260448201526064016107ba565b6017805460a860020a60ff02191660a860020a17905560005b83518110156113a857600a84828151811061131c5761131c61305d565b6020908102919091018101518254600181018455600093845291909220825160049092020190819061134e9082612f55565b50602082015160018201906113639082612f55565b50604082015160028201805460ff191660ff909216919091179055606082015160038201906113929082612f55565b50505080806113a090613077565b9150506112ff565b506014546000805460405160e060020a63116fd649028152600160a060020a039384169363116fd649936113e893309360019390911691906004016130a2565b600060405180830381600087803b15801561140257600080fd5b505af1158015611416573d6000803e3d6000fd5b5050505081600b90816114299190612f55565b50600e805482919060ff19166001836002811115611449576114496128c4565b0217905550505050565b600880546105e890612d8e565b600154600160a060020a031633811461148e5760405160e560020a62461bcd0281526004016107ba9061303a565b600260135460ff1660078111156114a7576114a76128c4565b14806114c95750600360135460ff1660078111156114c7576114c76128c4565b145b61150e5760405160e560020a62461bcd0281526020600482015260106024820152608160020a6f3a393239ba3990b1b7b6b6be30b1ba170260448201526064016107ba565b6013805460ff1916600490811790915560145460005460405160e160020a6321f11cdd028152600160a060020a03928316936343e239ba93611555933093911691016130e8565b600060405180830381600087803b15801561156f57600080fd5b505af1158015611583573d6000803e3d6000fd5b50506015546000805460405160e160020a633188e179028152919450600160a060020a039283169350636311c2f2926115c59260039290911690600401612e02565b6020604051808303816000875af11580156115e4573d6000803e3d6000fd5b505050506040513d601f19601f820116820180604052508101906116089190612dcc565b9050806116555760405160e560020a62461bcd0281526020600482015260156024820152605a60020a74191a591b89dd081c995b5bdd99481d1c98591952590260448201526064016107ba565b60008054600c54604051600160a060020a03909216918381818185875af1925050503d80600081146116a3576040519150601f19603f3d011682016040523d82523d6000602084013e6116a8565b606091505b50509050806116fa5760405160e560020a62461bcd0281526020600482015260186024820152604060020a774661696c7572652c206574686572206e6f742073656e74210260448201526064016107ba565b60145460005460135460405160e060020a63fe4162d1028152600160a060020a039384169363fe4162d19361173c933093919092169160ff1690600401612ec1565b600060405180830381600087803b15801561175657600080fd5b505af115801561176a573d6000803e3d6000fd5b505060145460015460135460405160e060020a63fe4162d1028152600160a060020a03938416955063fe4162d194506117ad933093169160ff1690600401612ec1565b600060405180830381600087803b1580156117c757600080fd5b505af11580156117db573d6000803e3d6000fd5b505060155460135460405160e160020a634cd955e3028152600160a060020a0390921693506399b2abc69250610ebc9160ff90911690600401612ee6565b600b80546105e890612d8e565b600a818154811061183657600080fd5b906000526020600020906004020160009150905080600001805461185990612d8e565b80601f016020809104026020016040519081016040528092919081815260200182805461188590612d8e565b80156118d25780601f106118a7576101008083540402835291602001916118d2565b820191906000526020600020905b8154815290600101906020018083116118b557829003601f168201915b5050505050908060010180546118e790612d8e565b80601f016020809104026020016040519081016040528092919081815260200182805461191390612d8e565b80156119605780601f1061193557610100808354040283529160200191611960565b820191906000526020600020905b81548152906001019060200180831161194357829003601f168201915b5050506002840154600385018054949560ff90921694919350915061198490612d8e565b80601f01602080910402602001604051908101604052809291908181526020018280546119b090612d8e565b80156119fd5780601f106119d2576101008083540402835291602001916119fd565b820191906000526020600020905b8154815290600101906020018083116119e057829003601f168201915b5050505050905084565b600060135460ff166007811115611a2057611a206128c4565b14611a625760405160e560020a62461bcd02815260206004820152600c602482015260a160020a6b3a39321039ba1010b832b7170260448201526064016107ba565b600d54341015611aa35760405160e560020a62461bcd028152602060048201526006602482015260d060020a652176616c75650260448201526064016107ba565b600054600160a060020a03163303611aed5760405160e560020a62461bcd028152602060048201526007602482015260c960020a6610b9b2b63632b90260448201526064016107ba565b6013805460ff1916600217905560145460005460405160e060020a637f1b5565028152600160a060020a0392831692637f1b556592611b34923092909116906004016130e8565b600060405180830381600087803b158015611b4e57600080fd5b505af1158015611b62573d6000803e3d6000fd5b505060018054600160a060020a031916331790555050805160069081556020820151829190600790611b949082612f55565b505034600c555042600f55600d54600090611bae906126b1565b90506000611bc06004600001546126b1565b90506000611bd184600001516126b1565b602080860151604051929350600092611bf392869260059287928a910161312f565b60408051601f198184030181529082905260145460005460135460e060020a63fe4162d1028552929450600160a060020a039182169363fe4162d193611c45933093169160ff90911690600401612ec1565b600060405180830381600087803b158015611c5f57600080fd5b505af1158015611c73573d6000803e3d6000fd5b505060145460015460135460405160e060020a63116fd649028152600160a060020a03938416955063116fd6499450611cbc93309360009391169160ff909116906004016130a2565b600060405180830381600087803b158015611cd657600080fd5b505af1158015611cea573d6000803e3d6000fd5b505060155460135460405160e160020a634cd955e3028152600160a060020a0390921693506399b2abc69250610c219160ff90911690859060040161301a565b60135460405160e760020a63012875b1028152610100909104600160a060020a03169063943ad88090611d619033906004016128b0565b602060405180830381865afa158015611d7e573d6000803e3d6000fd5b505050506040513d601f19601f82011682018060405250810190611da29190612dcc565b611dab57600080fd5b600260135460ff166007811115611dc457611dc46128c4565b1015611e075760405160e560020a62461bcd02815260206004820152600c602482015260a060020a6b747264737473213e636f6d6d0260448201526064016107ba565b600460135460ff166007811115611e2057611e206128c4565b10611e615760405160e560020a62461bcd02815260206004820152600b602482015260ac60020a6a07472647374733c636f6d70260448201526064016107ba565b80156120ae576013805460ff1916600490811790915560145460005460405160e160020a6321f11cdd028152600160a060020a03928316936343e239ba93611eae933093911691016130e8565b600060405180830381600087803b158015611ec857600080fd5b505af1158015611edc573d6000803e3d6000fd5b505060145460005460135460405160e060020a63fe4162d1028152600160a060020a03938416955063fe4162d19450611f1f933093169160ff1690600401612ec1565b600060405180830381600087803b158015611f3957600080fd5b505af1158015611f4d573d6000803e3d6000fd5b505060145460015460135460405160e060020a63fe4162d1028152600160a060020a03938416955063fe4162d19450611f90933093169160ff1690600401612ec1565b600060405180830381600087803b158015611faa57600080fd5b505af1158015611fbe573d6000803e3d6000fd5b505060008054600c54604051929450600160a060020a039091169250908381818185875af1925050503d8060008114612013576040519150601f19603f3d011682016040523d82523d6000602084013e612018565b606091505b505090508061203c5760405160e560020a62461bcd0281526004016107ba90613210565b60155460135460405160e160020a634cd955e3028152600160a060020a03909216916399b2abc6916120769160ff90911690600401613234565b600060405180830381600087803b15801561209057600080fd5b505af11580156120a4573d6000803e3d6000fd5b50505050506122ab565b60138054600760ff198216811790925560145460005460405160e060020a63fe4162d102815260ff90931693600160a060020a039283169363fe4162d1936120fd933093911691600401612ec1565b600060405180830381600087803b15801561211757600080fd5b505af115801561212b573d6000803e3d6000fd5b5060029250612138915050565b81600781111561214a5761214a6128c4565b106121c45760145460015460135460405160e060020a63fe4162d1028152600160a060020a039384169363fe4162d193612191933093919092169160ff1690600401612ec1565b600060405180830381600087803b1580156121ab57600080fd5b505af11580156121bf573d6000803e3d6000fd5b505050505b600154600c54604051600092600160a060020a031691908381818185875af1925050503d8060008114612213576040519150601f19603f3d011682016040523d82523d6000602084013e612218565b606091505b505090508061223c5760405160e560020a62461bcd0281526004016107ba90613210565b60155460135460405160e160020a634cd955e3028152600160a060020a03909216916399b2abc6916122769160ff90911690600401613269565b600060405180830381600087803b15801561229057600080fd5b505af11580156122a4573d6000803e3d6000fd5b5050505050505b6015546000805460405160e160020a633188e1790281529192600160a060020a0390811692636311c2f2926122e892600392911690600401612e02565b6020604051808303816000875af1158015612307573d6000803e3d6000fd5b505050506040513d601f19601f8201168201806040525081019061232b9190612dcc565b90508061234d5760405160e560020a62461bcd0281526004016107ba90612e9c565b5050565b600054600160a060020a031633811461237f5760405160e560020a62461bcd0281526004016107ba9061303a565b600260135460ff166007811115612398576123986128c4565b14806123ba5750600060135460ff1660078111156123b8576123b86128c4565b145b6123f65760405160e560020a62461bcd028152602060048201526007602482015260c960020a6639ba1010b832b70260448201526064016107ba565b60138054600160ff198216811790925560145460005460405160e060020a63fe4162d102815260ff90931693600160a060020a039283169363fe4162d193612445933093911691600401612ec1565b600060405180830381600087803b15801561245f57600080fd5b505af1158015612473573d6000803e3d6000fd5b5060029250612480915050565b816007811115612492576124926128c4565b036125a35760145460015460135460405160e060020a63fe4162d1028152600160a060020a039384169363fe4162d1936124d9933093919092169160ff1690600401612ec1565b600060405180830381600087803b1580156124f357600080fd5b505af1158015612507573d6000803e3d6000fd5b5050600154600c5460405160009450600160a060020a039092169250908381818185875af1925050503d806000811461255c576040519150601f19603f3d011682016040523d82523d6000602084013e612561565b606091505b50509050806125a15760405160e560020a62461bcd0281526004016107ba90602080825260049082015260e360020a630428ae8d02604082015260600190565b505b60155460135460405160e160020a634cd955e3028152600160a060020a03909216916399b2abc6916125dd9160ff90911690600401612ee6565b600060405180830381600087803b1580156125f757600080fd5b505af115801561260b573d6000803e3d6000fd5b505060155460005460405160e160020a633188e179028152600160a060020a039283169450636311c2f29350612648926003921690600401612e02565b6020604051808303816000875af1158015612667573d6000803e3d6000fd5b505050506040513d601f19601f8201168201806040525081019061268b9190612dcc565b505050565b600980546105e890612d8e565b600680546007805491929161055890612d8e565b606060006126be83612746565b60010190506000816001604060020a038111156126dd576126dd612987565b6040519080825280601f01601f191660200182016040528015612707576020820181803683370190505b5090508181016020015b60001901608160020a6f181899199a1a9b1b9c1cb0b131b232b302600a86061a8153600a850494508461271157509392505050565b600080604060020a72184f03e93ff9f4daa797ed6e38ed64bf6a1f0102831061278b57604060020a72184f03e93ff9f4daa797ed6e38ed64bf6a1f0102830492506040015b6d04ee2d6d415b85acef810000000083106127b7576d04ee2d6d415b85acef8100000000830492506020015b662386f26fc1000083106127d557662386f26fc10000830492506010015b6305f5e10083106127ed576305f5e100830492506008015b612710831061280157612710830492506004015b60648310612813576064830492506002015b600a831061281f576001015b92915050565b60005b83811015612840578181015183820152602001612828565b50506000910152565b60008151808452612861816020860160208601612825565b601f01601f19169290920160200192915050565b82815260406020820152600061288e6040830184612849565b949350505050565b6020815260006128a96020830184612849565b9392505050565b600160a060020a0391909116815260200190565b60e060020a634e487b710260009081526021600452602490fd5b60208101600383106128f2576128f26128c4565b91905290565b60088110612908576129086128c4565b9052565b6020810161281f82846128f8565b801515811461292857600080fd5b50565b6000806000806080858703121561294157600080fd5b843561294c8161291a565b9350602085013561295c8161291a565b9250604085013561296c8161291a565b9150606085013561297c8161291a565b939692955090935050565b60e060020a634e487b710260009081526041600452602490fd5b604051608081016001604060020a03811182821017156129c3576129c3612987565b60405290565b604051601f8201601f191681016001604060020a03811182821017156129f1576129f1612987565b604052919050565b600082601f830112612a0a57600080fd5b81356001604060020a03811115612a2357612a23612987565b612a36601f8201601f19166020016129c9565b818152846020838601011115612a4b57600080fd5b816020850160208301376000918101602001919091529392505050565b600060208284031215612a7a57600080fd5b81356001604060020a03811115612a9057600080fd5b61288e848285016129f9565b606081526000612aaf6060830186612849565b8281036020840152612ac18186612849565b90508281036040840152612ad58185612849565b9695505050505050565b803560038110612aee57600080fd5b919050565b600080600060608486031215612b0857600080fd5b83356001604060020a0380821115612b1f57600080fd5b818601915086601f830112612b3357600080fd5b8135602082821115612b4757612b47612987565b808202612b558282016129c9565b928352848101820192828101908b851115612b6f57600080fd5b83870192505b84831015612c4357823586811115612b8c57600080fd5b87016080818e03601f19011215612ba257600080fd5b612baa6129a1565b8582013588811115612bbb57600080fd5b612bc98f88838601016129f9565b825250604082013588811115612bdf5760008081fd5b612bed8f88838601016129f9565b8783015250606082013560ff81168114612c075760008081fd5b6040820152608082013588811115612c1f5760008081fd5b612c2d8f88838601016129f9565b6060830152508352509183019190830190612b75565b9850505087013592505080821115612c5a57600080fd5b50612c67868287016129f9565b925050612c7660408501612adf565b90509250925092565b600060208284031215612c9157600080fd5b5035919050565b608081526000612cab6080830187612849565b8281036020840152612cbd8187612849565b905060ff851660408401528281036060840152612cda8185612849565b979650505050505050565b600060208284031215612cf757600080fd5b81356001604060020a0380821115612d0e57600080fd5b9083019060408286031215612d2257600080fd5b604051604081018181108382111715612d3d57612d3d612987565b60405282358152602083013582811115612d5657600080fd5b612d62878286016129f9565b60208301525095945050505050565b600060208284031215612d8357600080fd5b81356128a98161291a565b600281046001821680612da257607f821691505b602082108103612dc65760e060020a634e487b710260009081526022600452602490fd5b50919050565b600060208284031215612dde57600080fd5b81516128a98161291a565b600060208284031215612dfb57600080fd5b5051919050565b604081526000808454612e1481612d8e565b8060408601526060600180841660008114612e365760018114612e5057612e81565b60ff19851688840152602084151502880183019550612e81565b8960005260208060002060005b86811015612e785781548b8201870152908401908201612e5d565b8a018501975050505b50505050600160a060020a03851660208501525090506128a9565b602080825260089082015260c260020a67085d1c985919525902604082015260600190565b600160a060020a038481168252831660208201526060810161288e60408301846128f8565b612ef081836128f8565b604060208201819052600090820152606001919050565b601f82111561268b576000818152602081206020601f86010481016020861015612f2e5750805b6020601f860104820191505b81811015612f4d57828155600101612f3a565b505050505050565b81516001604060020a03811115612f6e57612f6e612987565b612f8281612f7c8454612d8e565b84612f07565b602080601f831160018114612fbb5760008415612f9f5750858301515b60028086026008870290910a6000190419821617865550612f4d565b600085815260208120601f198616915b82811015612fea57888601518255948401946001909101908401612fcb565b508582101561300a57878501516008601f88160260020a60001904191681555b5050505050600202600101905550565b61302481846128f8565b60406020820152600061288e6040830184612849565b602080825260069082015260d060020a6521706172747902604082015260600190565b60e060020a634e487b710260009081526032600452602490fd5b60006001820161309b5760e060020a634e487b710260009081526011600452602490fd5b5060010190565b600160a060020a0385811682526080820190600286106130c4576130c46128c4565b60208301869052841660408301526130df60608301846128f8565b95945050505050565b600160a060020a0392831681529116602082015260400190565b60008151613114818560208601612825565b9290920192915050565b60f260020a611f1f02815260020190565b6000865160206131428285838c01612825565b818401915060f860020a602b02825260016000895461316081612d8e565b8184168015613176576001811461318f576131bf565b60ff1983168786015281151582028701850193506131bf565b8c6000528560002060005b838110156131b557815489820188015290860190870161319a565b5050848288010193505b5050506132016131fb6131f66131f06131e06131da8661311e565b8e613102565b60f860020a602b02815260010190565b8b613102565b61311e565b88613102565b9b9a5050505050505050505050565b602080825260079082015260cb60020a66042e6dce88ae8d02604082015260600190565b61323e81836128f8565b60406020820181905260089082015260c060020a674b4f205452414445026060820152608001919050565b61327381836128f8565b604060208201819052600a9082015260b260020a6912d3c81111519055531502606082015260800191905056fea2646970667358221220c1ae32d7d658bc667b088f6098af94c11055aea72738cad5c97735b3fe733df364736f6c63430008130033",
  "immutableReferences": {},
  "source": "// //SPDX-License-Identifier: UNLICENSED\r\npragma solidity 0.8.19;\r\n\r\nimport \"../Keepers/IKeepers.sol\";\r\nimport \"../Users/IUsers.sol\";\r\nimport \"../TradeFactory/ITradeFactory.sol\";\r\n\r\ncontract SMTrade {\r\n\r\n    address payable public seller;\r\n    address payable public buyer;\r\n\r\n    string public itemMarketName;\r\n    string public itemSellerAssetId;\r\n\r\n    TradeUrl public sellerTradeUrl;\r\n    TradeUrl public buyerTradeUrl;\r\n\r\n    string public inspectLink;\r\n    string public itemImageUrl;\r\n    Sticker[] public stickers;\r\n\r\n    string public weaponType;\r\n\r\n    uint256 public buyerDeposited;\r\n    uint256 public weiPrice;\r\n    PriceType public priceType;\r\n\r\n    uint256 public buyerCommittedTimestamp;\r\n\r\n    FloatInfo public float;\r\n\r\n    TradeStatus public status;\r\n\r\n    IKeepers public keepersContract;\r\n    IUsers public usersContract;\r\n    ITradeFactory public factoryContract;\r\n\r\n    string public disputeComplaint;\r\n    TradeStatus public disputedStatus;\r\n    address public disputeer;\r\n\r\n    constructor(\r\n        address _factory,\r\n        address _keepers,\r\n        address _users,\r\n        address _seller,\r\n        uint256 _weiPrice,\r\n        string memory _itemMarketName,\r\n        TradeUrl memory _sellerTradeUrl,\r\n        string memory _sellerAssetId,\r\n        string memory _inspectLink,\r\n        string memory _itemImageUrl,\r\n        FloatInfo memory _float\r\n    ) {\r\n        factoryContract = ITradeFactory(_factory);\r\n        keepersContract = IKeepers(_keepers);\r\n        usersContract = IUsers(_users);\r\n        seller = payable(_seller);\r\n        weiPrice = _weiPrice;\r\n        status = TradeStatus.Pending;\r\n        itemMarketName = _itemMarketName;\r\n        sellerTradeUrl = _sellerTradeUrl;\r\n        itemSellerAssetId = _sellerAssetId;\r\n        inspectLink = _inspectLink;\r\n        itemImageUrl = _itemImageUrl;\r\n        float.value = _float.value;\r\n        float.min = _float.min;\r\n        float.max = _float.max;\r\n    }\r\n\r\n    bool public hasInit;\r\n    function initExtraInfo(Sticker[] memory _stickers, string memory _weaponType, PriceType _priceType) external {\r\n        require(msg.sender == address(factoryContract) && !hasInit, '!factory');\r\n        hasInit = true;\r\n        for (uint256 i = 0; i < _stickers.length; i++) {\r\n            stickers.push(_stickers[i]);\r\n        }\r\n        usersContract.addUserInteractionStatus(address(this), Role.SELLER, seller, TradeStatus.Pending);\r\n        weaponType = _weaponType;\r\n        priceType = _priceType;\r\n    }\r\n\r\n    function stickerLength() external view returns (uint256) {\r\n        return stickers.length;\r\n    }\r\n\r\n    modifier onlyAddress(address _address) {\r\n        require(msg.sender == _address, \"!party\");\r\n        _;\r\n    }\r\n\r\n    modifier onlyTheseAddresses(address _add1, address _add2) {\r\n        require(msg.sender == _add1 || msg.sender == _add2, \"!group\");\r\n        _;\r\n    }\r\n\r\n    modifier onlyKeeperNode() {\r\n        require(keepersContract.isKeeperNode(msg.sender));\r\n        _;\r\n    }\r\n\r\n    modifier onlyKeepersOrNode() {\r\n        require(\r\n            keepersContract.isKeeperNode(msg.sender) ||\r\n                keepersContract.indexOf(msg.sender) != 0,\r\n            \"!kepr or orcl\"\r\n        );\r\n        _;\r\n    }\r\n\r\n    // Seller can cancel the listing up til any buyer has committed ETH.\r\n    function sellerCancel() external onlyAddress(seller) {\r\n        require(status == TradeStatus.Committed || status == TradeStatus.Pending, \"st !pen\");\r\n        TradeStatus oldStatus = status;\r\n        status = TradeStatus.SellerCancelled;\r\n        usersContract.changeUserInteractionStatus(address(this), seller, status);\r\n        if(oldStatus == TradeStatus.Committed) {\r\n            usersContract.changeUserInteractionStatus(address(this), buyer, status);\r\n            (bool sent, ) = buyer.call{value: buyerDeposited}(\"\");\r\n            require(sent, \"!Eth\");\r\n        }\r\n        factoryContract.onStatusChange(status, \"\");\r\n        factoryContract.removeAssetIdUsed(itemSellerAssetId, seller);\r\n    }\r\n\r\n    // Buyer commits ETH to buy if status-state allows & Sends trade-offer to sellers trade-link off-chain.\r\n    function commitBuy(TradeUrl memory _buyerTradeUrl) public payable {\r\n        require(status == TradeStatus.Pending, \"trd st !pen.\");\r\n        require(msg.value >= weiPrice, \"!value\");\r\n        require(msg.sender != seller, \"!seller\");\r\n        status = TradeStatus.Committed;\r\n        usersContract.startDeliveryTimer(address(this), seller);\r\n        buyer = payable(msg.sender);\r\n        buyerTradeUrl = _buyerTradeUrl;\r\n\r\n        buyerDeposited = msg.value;\r\n        buyerCommittedTimestamp = block.timestamp;\r\n\r\n        string memory weiPriceString = Strings.toString(weiPrice);\r\n    \r\n        string memory sellerPartnerString = Strings.toString(sellerTradeUrl.partner);\r\n        string memory buyerPartnerString = Strings.toString(_buyerTradeUrl.partner);\r\n        \r\n        string memory data = string(\r\n            abi.encodePacked(\r\n                sellerPartnerString,\r\n                \"+\",\r\n                sellerTradeUrl.token,\r\n                \"||\",\r\n                buyerPartnerString,\r\n                \"+\",\r\n                _buyerTradeUrl.token,\r\n                \"||\",\r\n                weiPriceString\r\n            )\r\n        );\r\n        usersContract.changeUserInteractionStatus(address(this), seller, status);\r\n        usersContract.addUserInteractionStatus(address(this), Role.BUYER, buyer, status);\r\n        factoryContract.onStatusChange(status, data);\r\n    }\r\n\r\n    // If automated Keeper-oracle can identify item has been successfully trade from seller to buyer, it will release here.\r\n    // function keeperNodeConfirmsTradeMade() external onlyKeeperNode {\r\n    //     require(\r\n    //         status >= TradeStatus.Committed,\r\n    //         \"trdsts!>comm\"\r\n    //     );\r\n    //     require(\r\n    //         status < TradeStatus.Completed,\r\n    //         \"trdsts<comp\"\r\n    //     );\r\n    //     status = TradeStatus.Completed;\r\n    //     usersContract.endDeliveryTimer(address(this), seller);\r\n    //     usersContract.changeUserInteractionStatus(address(this), seller, status);\r\n    //     usersContract.changeUserInteractionStatus(address(this), buyer, status);\r\n    //     bool success = factoryContract.removeAssetIdUsed(itemSellerAssetId, seller);\r\n    //     require(success, \"!tradeId\");\r\n    //     (bool sent, ) = seller.call{value: buyerDeposited}(\"\");\r\n    //     require(sent, \"!sntEth\");\r\n    //     factoryContract.onStatusChange(status, \"KEEPER-ORACLE CONFIRMED TRADE MADE\");\r\n    // }\r\n\r\n    // Keeper-oracle recognizes wrong-doing and defaults the trade.\r\n    // function keeperNodeConfirmsDefault() external onlyKeeperNode {\r\n    //     require(\r\n    //         status >= TradeStatus.Committed,\r\n    //         \"trdsts!>comm\"\r\n    //     );\r\n    //     require(\r\n    //         status < TradeStatus.Completed,\r\n    //         \"trdsts<comp\"\r\n    //     );\r\n    //     TradeStatus oldStatus = status;\r\n    //     status = TradeStatus.Clawbacked;\r\n    //     usersContract.changeUserInteractionStatus(address(this), seller, status);        \r\n    //     if(oldStatus >= TradeStatus.Committed){\r\n    //         usersContract.changeUserInteractionStatus(address(this), buyer, status);\r\n    //     }       \r\n    //     bool success = factoryContract.removeAssetIdUsed(itemSellerAssetId, seller);\r\n    //     require(success, \"!tradeId\");\r\n    //     (bool sent, ) = buyer.call{value: buyerDeposited}(\"\");\r\n    //     require(sent, \"!sntEth\");\r\n    //     factoryContract.onStatusChange(status, \"KEEPER-ORACLE CONFIRMED DEFAULT\");\r\n    // }\r\n\r\n    function keeperNodeConfirmsTrade(bool isTradeMade) external onlyKeeperNode {\r\n        require(\r\n            status >= TradeStatus.Committed,\r\n            \"trdsts!>comm\"\r\n        );\r\n        require(\r\n            status < TradeStatus.Completed,\r\n            \"trdsts<comp\"\r\n        );\r\n        \r\n        if (isTradeMade) {\r\n            status = TradeStatus.Completed;\r\n            usersContract.endDeliveryTimer(address(this), seller);\r\n            usersContract.changeUserInteractionStatus(address(this), seller, status);\r\n            usersContract.changeUserInteractionStatus(address(this), buyer, status);\r\n            (bool sS, ) = seller.call{value: buyerDeposited}(\"\");\r\n            require(sS, \"!sntEth\");\r\n            factoryContract.onStatusChange(status, \"KO TRADE\");\r\n        } else {\r\n            TradeStatus oldStatus = status;\r\n            status = TradeStatus.Clawbacked;\r\n            usersContract.changeUserInteractionStatus(address(this), seller, status);        \r\n            if(oldStatus >= TradeStatus.Committed){\r\n                usersContract.changeUserInteractionStatus(address(this), buyer, status);\r\n            }\r\n            (bool bS, ) = buyer.call{value: buyerDeposited}(\"\");\r\n            require(bS, \"!sntEth\");\r\n            factoryContract.onStatusChange(status, \"KO DEFAULT\");\r\n        }\r\n        \r\n        bool raS = factoryContract.removeAssetIdUsed(itemSellerAssetId, seller);\r\n        require(raS, \"!tradeId\");\r\n    }\r\n\r\n\r\n    // Seller Confirms they have accepted the trade offer.\r\n    function acceptTradeOffer() public onlyAddress(seller) {\r\n        require(status == TradeStatus.Committed, \"trdsts!comm\");\r\n        status = TradeStatus.Accepted;\r\n        usersContract.changeUserInteractionStatus(address(this), seller, status);\r\n        usersContract.changeUserInteractionStatus(address(this), buyer, status);   \r\n        factoryContract.onStatusChange(status, \"\");\r\n    }\r\n\r\n    // Buyer Confirms they have received the item.\r\n    function confirmReceived() public onlyAddress(buyer) {\r\n        require(\r\n            status == TradeStatus.Committed || status == TradeStatus.Accepted,\r\n            \"trdsts!comm|act.\"\r\n        );\r\n        status = TradeStatus.Completed;\r\n        usersContract.endDeliveryTimer(address(this), seller);\r\n        bool success = factoryContract.removeAssetIdUsed(itemSellerAssetId, seller);\r\n        require(success, \"didn't remove tradeId\");\r\n        (bool sent, ) = seller.call{value: buyerDeposited}(\"\");\r\n        require(sent, \"Failure, ether not sent!\");\r\n        usersContract.changeUserInteractionStatus(address(this), seller, status);\r\n        usersContract.changeUserInteractionStatus(address(this), buyer, status); \r\n        factoryContract.onStatusChange(status, \"\");\r\n    }\r\n\r\n    // Or Buyer/Seller opens dispute in any state.\r\n    function openDispute(string memory _complaint)\r\n        external\r\n        onlyTheseAddresses(seller, buyer)\r\n    {\r\n        require(\r\n            status != TradeStatus.Disputed &&\r\n                status != TradeStatus.Resolved &&\r\n                status != TradeStatus.Clawbacked,\r\n            \"alreadyDis\"\r\n        );\r\n        status = TradeStatus.Disputed;\r\n        disputeer = msg.sender;\r\n        disputedStatus = status;\r\n        disputeComplaint = _complaint;\r\n        usersContract.changeUserInteractionStatus(address(this), seller, status);\r\n        usersContract.changeUserInteractionStatus(address(this), buyer, status); \r\n        factoryContract.onStatusChange(status, _complaint);\r\n    }\r\n\r\n    function resolveDispute(\r\n        bool isFavourOfBuyer,\r\n        bool giveWarningToSeller,\r\n        bool giveWarningToBuyer,\r\n        bool isWithValue\r\n    ) external onlyKeepersOrNode {\r\n        require(status == TradeStatus.Disputed, \"!disp\");\r\n        bool success = factoryContract.removeAssetIdUsed(itemSellerAssetId, seller);\r\n        require(success, \"!tradeId\");\r\n        if (isFavourOfBuyer) {\r\n            status == TradeStatus.Clawbacked;\r\n            if (isWithValue) {\r\n                (bool sent, ) = buyer.call{value: buyerDeposited}(\"\");\r\n                require(sent, \"!snt\");\r\n            }\r\n        } else {\r\n            status = TradeStatus.Resolved;\r\n            if (isWithValue) {\r\n                (bool sent, ) = seller.call{value: buyerDeposited}(\"\");\r\n                require(sent, \"!snt2\");\r\n            }\r\n        }\r\n        if (giveWarningToSeller) {\r\n            usersContract.warnUser(seller);\r\n        }\r\n        if (giveWarningToBuyer) {\r\n            usersContract.warnUser(buyer);\r\n        }\r\n        usersContract.changeUserInteractionStatus(address(this), seller, status);\r\n        usersContract.changeUserInteractionStatus(address(this), buyer, status);\r\n        factoryContract.onStatusChange(status, \"\");\r\n    }\r\n}\r\n",
  "sourcePath": "C:\\Users\\Charl\\Documents\\Projects\\SteamMarket\\CSX\\csx-contracts\\contracts\\Trade\\Trade.sol",
  "compiler": {
    "name": "solc",
    "version": "0.8.19+commit.7dd6d404.Emscripten.clang"
  },
  "schemaVersion": "3.4.3",
  "updatedAt": "2023-03-22T13:11:46.350Z",
  "devdoc": {
    "kind": "dev",
    "methods": {},
    "version": 1
  },
  "userdoc": {
    "kind": "user",
    "methods": {},
    "version": 1
  }
}