{
  "contractName": "SMTradeFactory",
  "abi": [
    {
      "inputs": [
        {
          "internalType": "address",
          "name": "_keepers",
          "type": "address"
        },
        {
          "internalType": "address",
          "name": "_users",
          "type": "address"
        }
      ],
      "stateMutability": "nonpayable",
      "type": "constructor"
    },
    {
      "anonymous": false,
      "inputs": [
        {
          "indexed": false,
          "internalType": "address",
          "name": "contractAddress",
          "type": "address"
        },
        {
          "indexed": false,
          "internalType": "enum TradeStatus",
          "name": "",
          "type": "uint8"
        },
        {
          "indexed": false,
          "internalType": "string",
          "name": "data",
          "type": "string"
        }
      ],
      "name": "TradeContractStatusChange",
      "type": "event"
    },
    {
      "inputs": [
        {
          "internalType": "string",
          "name": "",
          "type": "string"
        },
        {
          "internalType": "address",
          "name": "",
          "type": "address"
        }
      ],
      "name": "assetIdFromUserAddrssToTradeAddrss",
      "outputs": [
        {
          "internalType": "address",
          "name": "",
          "type": "address"
        }
      ],
      "stateMutability": "view",
      "type": "function",
      "constant": true
    },
    {
      "inputs": [
        {
          "internalType": "string",
          "name": "_assetId",
          "type": "string"
        },
        {
          "internalType": "address",
          "name": "sellerAddrss",
          "type": "address"
        }
      ],
      "name": "hasAlreadyListedItem",
      "outputs": [
        {
          "internalType": "bool",
          "name": "",
          "type": "bool"
        }
      ],
      "stateMutability": "view",
      "type": "function",
      "constant": true
    },
    {
      "inputs": [
        {
          "internalType": "address",
          "name": "contractAddress",
          "type": "address"
        }
      ],
      "name": "isThisTradeContract",
      "outputs": [
        {
          "internalType": "bool",
          "name": "",
          "type": "bool"
        }
      ],
      "stateMutability": "view",
      "type": "function",
      "constant": true
    },
    {
      "inputs": [],
      "name": "keepersContract",
      "outputs": [
        {
          "internalType": "contract IKeepers",
          "name": "",
          "type": "address"
        }
      ],
      "stateMutability": "view",
      "type": "function",
      "constant": true
    },
    {
      "inputs": [
        {
          "internalType": "enum TradeStatus",
          "name": "status",
          "type": "uint8"
        },
        {
          "internalType": "string",
          "name": "data",
          "type": "string"
        }
      ],
      "name": "onStatusChange",
      "outputs": [],
      "stateMutability": "nonpayable",
      "type": "function"
    },
    {
      "inputs": [
        {
          "internalType": "string",
          "name": "_assetId",
          "type": "string"
        },
        {
          "internalType": "address",
          "name": "sellerAddrss",
          "type": "address"
        }
      ],
      "name": "removeAssetIdUsed",
      "outputs": [
        {
          "internalType": "bool",
          "name": "",
          "type": "bool"
        }
      ],
      "stateMutability": "nonpayable",
      "type": "function"
    },
    {
      "inputs": [],
      "name": "totalContracts",
      "outputs": [
        {
          "internalType": "uint256",
          "name": "",
          "type": "uint256"
        }
      ],
      "stateMutability": "view",
      "type": "function",
      "constant": true
    },
    {
      "inputs": [],
      "name": "usersContract",
      "outputs": [
        {
          "internalType": "contract IUsers",
          "name": "",
          "type": "address"
        }
      ],
      "stateMutability": "view",
      "type": "function",
      "constant": true
    },
    {
      "inputs": [
        {
          "internalType": "string",
          "name": "_itemMarketName",
          "type": "string"
        },
        {
          "components": [
            {
              "internalType": "uint256",
              "name": "partner",
              "type": "uint256"
            },
            {
              "internalType": "string",
              "name": "token",
              "type": "string"
            }
          ],
          "internalType": "struct TradeUrl",
          "name": "_tradeUrl",
          "type": "tuple"
        },
        {
          "internalType": "string",
          "name": "_assetId",
          "type": "string"
        },
        {
          "internalType": "string",
          "name": "_inspectLink",
          "type": "string"
        },
        {
          "internalType": "string",
          "name": "_itemImageUrl",
          "type": "string"
        },
        {
          "internalType": "uint256",
          "name": "_weiPrice",
          "type": "uint256"
        },
        {
          "components": [
            {
              "internalType": "string",
              "name": "value",
              "type": "string"
            },
            {
              "internalType": "string",
              "name": "min",
              "type": "string"
            },
            {
              "internalType": "string",
              "name": "max",
              "type": "string"
            }
          ],
          "internalType": "struct FloatInfo",
          "name": "_float",
          "type": "tuple"
        },
        {
          "components": [
            {
              "internalType": "string",
              "name": "name",
              "type": "string"
            },
            {
              "internalType": "string",
              "name": "material",
              "type": "string"
            },
            {
              "internalType": "uint8",
              "name": "slot",
              "type": "uint8"
            },
            {
              "internalType": "string",
              "name": "imageLink",
              "type": "string"
            }
          ],
          "internalType": "struct Sticker[]",
          "name": "_stickers",
          "type": "tuple[]"
        },
        {
          "internalType": "string",
          "name": "_weaponType",
          "type": "string"
        }
      ],
      "name": "createListingContract",
      "outputs": [],
      "stateMutability": "nonpayable",
      "type": "function"
    },
    {
      "inputs": [
        {
          "internalType": "uint256",
          "name": "index",
          "type": "uint256"
        }
      ],
      "name": "getTradeDetailsByIndex",
      "outputs": [
        {
          "components": [
            {
              "internalType": "address",
              "name": "contractAddress",
              "type": "address"
            },
            {
              "internalType": "address",
              "name": "seller",
              "type": "address"
            },
            {
              "components": [
                {
                  "internalType": "uint256",
                  "name": "partner",
                  "type": "uint256"
                },
                {
                  "internalType": "string",
                  "name": "token",
                  "type": "string"
                }
              ],
              "internalType": "struct TradeUrl",
              "name": "sellerTradeUrl",
              "type": "tuple"
            },
            {
              "internalType": "address",
              "name": "buyer",
              "type": "address"
            },
            {
              "components": [
                {
                  "internalType": "uint256",
                  "name": "partner",
                  "type": "uint256"
                },
                {
                  "internalType": "string",
                  "name": "token",
                  "type": "string"
                }
              ],
              "internalType": "struct TradeUrl",
              "name": "buyerTradeUrl",
              "type": "tuple"
            },
            {
              "internalType": "string",
              "name": "itemMarketName",
              "type": "string"
            },
            {
              "internalType": "string",
              "name": "inspectLink",
              "type": "string"
            },
            {
              "internalType": "string",
              "name": "itemImageUrl",
              "type": "string"
            },
            {
              "internalType": "uint256",
              "name": "weiPrice",
              "type": "uint256"
            },
            {
              "internalType": "uint256",
              "name": "averageSellerDeliveryTime",
              "type": "uint256"
            },
            {
              "components": [
                {
                  "internalType": "string",
                  "name": "value",
                  "type": "string"
                },
                {
                  "internalType": "string",
                  "name": "min",
                  "type": "string"
                },
                {
                  "internalType": "string",
                  "name": "max",
                  "type": "string"
                }
              ],
              "internalType": "struct FloatInfo",
              "name": "float",
              "type": "tuple"
            },
            {
              "internalType": "enum TradeStatus",
              "name": "status",
              "type": "uint8"
            },
            {
              "components": [
                {
                  "internalType": "string",
                  "name": "name",
                  "type": "string"
                },
                {
                  "internalType": "string",
                  "name": "material",
                  "type": "string"
                },
                {
                  "internalType": "uint8",
                  "name": "slot",
                  "type": "uint8"
                },
                {
                  "internalType": "string",
                  "name": "imageLink",
                  "type": "string"
                }
              ],
              "internalType": "struct Sticker[]",
              "name": "stickers",
              "type": "tuple[]"
            },
            {
              "internalType": "string",
              "name": "weaponType",
              "type": "string"
            }
          ],
          "internalType": "struct TradeInfo",
          "name": "result",
          "type": "tuple"
        }
      ],
      "stateMutability": "view",
      "type": "function",
      "constant": true
    },
    {
      "inputs": [
        {
          "internalType": "address",
          "name": "tradeAddrs",
          "type": "address"
        }
      ],
      "name": "getTradeDetailsByAddress",
      "outputs": [
        {
          "components": [
            {
              "internalType": "address",
              "name": "contractAddress",
              "type": "address"
            },
            {
              "internalType": "address",
              "name": "seller",
              "type": "address"
            },
            {
              "components": [
                {
                  "internalType": "uint256",
                  "name": "partner",
                  "type": "uint256"
                },
                {
                  "internalType": "string",
                  "name": "token",
                  "type": "string"
                }
              ],
              "internalType": "struct TradeUrl",
              "name": "sellerTradeUrl",
              "type": "tuple"
            },
            {
              "internalType": "address",
              "name": "buyer",
              "type": "address"
            },
            {
              "components": [
                {
                  "internalType": "uint256",
                  "name": "partner",
                  "type": "uint256"
                },
                {
                  "internalType": "string",
                  "name": "token",
                  "type": "string"
                }
              ],
              "internalType": "struct TradeUrl",
              "name": "buyerTradeUrl",
              "type": "tuple"
            },
            {
              "internalType": "string",
              "name": "itemMarketName",
              "type": "string"
            },
            {
              "internalType": "string",
              "name": "inspectLink",
              "type": "string"
            },
            {
              "internalType": "string",
              "name": "itemImageUrl",
              "type": "string"
            },
            {
              "internalType": "uint256",
              "name": "weiPrice",
              "type": "uint256"
            },
            {
              "internalType": "uint256",
              "name": "averageSellerDeliveryTime",
              "type": "uint256"
            },
            {
              "components": [
                {
                  "internalType": "string",
                  "name": "value",
                  "type": "string"
                },
                {
                  "internalType": "string",
                  "name": "min",
                  "type": "string"
                },
                {
                  "internalType": "string",
                  "name": "max",
                  "type": "string"
                }
              ],
              "internalType": "struct FloatInfo",
              "name": "float",
              "type": "tuple"
            },
            {
              "internalType": "enum TradeStatus",
              "name": "status",
              "type": "uint8"
            },
            {
              "components": [
                {
                  "internalType": "string",
                  "name": "name",
                  "type": "string"
                },
                {
                  "internalType": "string",
                  "name": "material",
                  "type": "string"
                },
                {
                  "internalType": "uint8",
                  "name": "slot",
                  "type": "uint8"
                },
                {
                  "internalType": "string",
                  "name": "imageLink",
                  "type": "string"
                }
              ],
              "internalType": "struct Sticker[]",
              "name": "stickers",
              "type": "tuple[]"
            },
            {
              "internalType": "string",
              "name": "weaponType",
              "type": "string"
            }
          ],
          "internalType": "struct TradeInfo",
          "name": "result",
          "type": "tuple"
        }
      ],
      "stateMutability": "view",
      "type": "function",
      "constant": true
    },
    {
      "inputs": [
        {
          "internalType": "enum TradeStatus",
          "name": "status",
          "type": "uint8"
        },
        {
          "internalType": "uint256",
          "name": "indexFrom",
          "type": "uint256"
        },
        {
          "internalType": "uint256",
          "name": "maxResults",
          "type": "uint256"
        }
      ],
      "name": "getTradeIndexesByStatus",
      "outputs": [
        {
          "components": [
            {
              "internalType": "uint256",
              "name": "index",
              "type": "uint256"
            },
            {
              "internalType": "uint256",
              "name": "weiPrice",
              "type": "uint256"
            },
            {
              "internalType": "enum PriceType",
              "name": "priceType",
              "type": "uint8"
            },
            {
              "internalType": "string",
              "name": "weaponType",
              "type": "string"
            },
            {
              "internalType": "string",
              "name": "itemMarketName",
              "type": "string"
            },
            {
              "internalType": "uint256",
              "name": "nextIndex",
              "type": "uint256"
            }
          ],
          "internalType": "struct TradeIndex[]",
          "name": "",
          "type": "tuple[]"
        }
      ],
      "stateMutability": "view",
      "type": "function",
      "constant": true
    },
    {
      "inputs": [
        {
          "internalType": "enum TradeStatus",
          "name": "status",
          "type": "uint8"
        }
      ],
      "name": "getTradeCountByStatus",
      "outputs": [
        {
          "internalType": "uint256",
          "name": "",
          "type": "uint256"
        }
      ],
      "stateMutability": "view",
      "type": "function",
      "constant": true
    }
  ],
  "bytecode": "0x60806040523480156200001157600080fd5b5060405162005fb038038062005fb0833981016040819052620000349162000088565b600160005560058054600160a060020a03938416600160a060020a03199182161790915560068054929093169116179055620000c0565b8051600160a060020a03811681146200008357600080fd5b919050565b600080604083850312156200009c57600080fd5b620000a7836200006b565b9150620000b7602084016200006b565b90509250929050565b615ee080620000d06000396000f3fe60806040523480156200001157600080fd5b5060043610620000c15760e060020a6000350463142ebf3c8114620000c657806333034d7114620000f2578063346c743d14620001185780635a9ad1e0146200013e5780636311c2f214620001645780636e4235f6146200018c57806375c1e22214620001bb5780637c31f38b14620001d457806399b2abc614620001eb578063a09037a91462000202578063adea4866146200020c578063c2bd884b1462000223578063f983567d1462000237575b600080fd5b600654620000da90600160a060020a031681565b604051620000e99190620015c2565b60405180910390f35b6200010962000103366004620015d6565b6200027e565b604051620000e99190620017b0565b6200012f620001293660046200193d565b62000ad8565b604051620000e9919062001975565b620001556200014f36600462001a3e565b62000ce9565b604051908152602001620000e9565b6200017b6200017536600462001b72565b62000d67565b6040519015158152602001620000e9565b6200017b6200019d36600462001bc9565b600160a060020a031660009081526004602052604090205460ff1690565b620001d2620001cc36600462001e76565b62000dff565b005b6200017b620001e536600462001b72565b620011d3565b620001d2620001fc36600462001fd8565b62001231565b6200015560015481565b620001096200021d36600462001bc9565b62001296565b600554620000da90600160a060020a031681565b620000da6200024836600462001b72565b815160208184018101805160078252928201948201949094209190935290915260009081526040902054600160a060020a031681565b62000288620014aa565b60008281526003602090815260409182902054600160a060020a0316808452825160e060020a6308551a5302815292518593919283926308551a5392600480830193928290030181865afa158015620002e5573d6000803e3d6000fd5b505050506040513d601f19601f820116820180604052508101906200030b91906200202d565b8360200190600160a060020a03169081600160a060020a03168152505080600160a060020a0316637150d8ae6040518163ffffffff1660e060020a028152600401602060405180830381865afa1580156200036a573d6000803e3d6000fd5b505050506040513d601f19601f820116820180604052508101906200039091906200202d565b8360600190600160a060020a03169081600160a060020a03168152505080600160a060020a0316631e86221f6040518163ffffffff1660e060020a028152600401600060405180830381865afa158015620003ef573d6000803e3d6000fd5b505050506040513d6000823e601f3d908101601f1916820160405262000419919081019062002099565b8360a0018190525080600160a060020a03166370e066f66040518163ffffffff1660e060020a028152600401600060405180830381865afa15801562000463573d6000803e3d6000fd5b505050506040513d6000823e601f3d908101601f191682016040526200048d919081019062002099565b60c08401526200049c6200152f565b81600160a060020a03166302197c556040518163ffffffff1660e060020a028152600401600060405180830381865afa158015620004de573d6000803e3d6000fd5b505050506040513d6000823e601f3d908101601f19168201604052620005089190810190620020d1565b6020830152815260408401819052620005206200152f565b82600160a060020a031663fddd56c56040518163ffffffff1660e060020a028152600401600060405180830381865afa15801562000562573d6000803e3d6000fd5b505050506040513d6000823e601f3d908101601f191682016040526200058c9190810190620020d1565b602080840191909152908252608086018290526040805160e060020a63e29b9e970281529051600160a060020a0386169263e29b9e9792600480820193918290030181865afa158015620005e4573d6000803e3d6000fd5b505050506040513d601f19601f820116820180604052508101906200060a919062002112565b8561010001818152505082600160a060020a031663e67d55236040518163ffffffff1660e060020a028152600401600060405180830381865afa15801562000656573d6000803e3d6000fd5b505050506040513d6000823e601f3d908101601f1916820160405262000680919081019062002099565b60e0860152600654602086015160405160e460020a630791bd0d028152600160a060020a039092169163791bd0d091620006bd91600401620015c2565b602060405180830381865afa158015620006db573d6000803e3d6000fd5b505050506040513d601f19601f8201168201806040525081019062000701919062002112565b6101208601526200071162001549565b83600160a060020a03166368ccaa526040518163ffffffff1660e060020a028152600401600060405180830381865afa15801562000753573d6000803e3d6000fd5b505050506040513d6000823e601f3d908101601f191682016040526200077d91908101906200212c565b6040808501919091526020808501929092529183526101408801839052815160e160020a63100697690281529151600160a060020a0387169263200d2ed29260048083019391928290030181865afa158015620007de573d6000803e3d6000fd5b505050506040513d601f19601f82011682018060405250810190620008049190620021bd565b86610160019060078111156200081e576200081e620016d1565b90816007811115620008345762000834620016d1565b81525050600084600160a060020a031663f4a84e0f6040518163ffffffff1660e060020a028152600401602060405180830381865afa1580156200087c573d6000803e3d6000fd5b505050506040513d601f19601f82011682018060405250810190620008a2919062002112565b90506000816001604060020a03811115620008c157620008c162001a5e565b6040519080825280602002602001820160405280156200092357816020015b6200090f60405180608001604052806060815260200160608152602001600060ff168152602001606081525090565b815260200190600190039081620008e05790505b50905060005b815181101562000a4e5760405160e760020a63011f2cbb02815260048101829052600160a060020a03881690638f965d8090602401600060405180830381865afa1580156200097c573d6000803e3d6000fd5b505050506040513d6000823e601f3d908101601f19168201604052620009a69190810190620021dd565b858581518110620009bb57620009bb62002284565b6020026020010151600001868681518110620009db57620009db62002284565b6020026020010151602001878781518110620009fb57620009fb62002284565b602002602001015160400188888151811062000a1b5762000a1b62002284565b60209081029190910101516060019390935260ff909316909152919052528062000a4581620022b8565b91505062000929565b508088610180018190525085600160a060020a0316638dada6d86040518163ffffffff1660e060020a028152600401600060405180830381865afa15801562000a9b573d6000803e3d6000fd5b505050506040513d6000823e601f3d908101601f1916820160405262000ac5919081019062002099565b6101a08901525095979650505050505050565b60606000826001604060020a0381111562000af75762000af762001a5e565b60405190808252806020026020018201604052801562000b3457816020015b62000b206200156a565b81526020019060019003908162000b165790505b5090506000845b848210801562000b4c575060015481105b1562000cde57600062000b5f826200027e565b905087600781111562000b765762000b76620016d1565b816101600151600781111562000b905762000b90620016d1565b0362000cca578184848151811062000bac5762000bac62002284565b6020026020010151600001818152505080610100015184848151811062000bd75762000bd762002284565b60200260200101516020018181525050600084848151811062000bfe5762000bfe62002284565b602002602001015160400190600281111562000c1e5762000c1e620016d1565b9081600281111562000c345762000c34620016d1565b81525050806101a0015184848151811062000c535762000c5362002284565b6020026020010151606001819052508060a0015184848151811062000c7c5762000c7c62002284565b60209081029190910101516080015262000c98826001620022d4565b84848151811062000cad5762000cad62002284565b602090810291909101015160a0015262000cc783620022b8565b92505b62000cd582620022b8565b91505062000b3b565b509095945050505050565b60008060005b60015481101562000d6057600062000d07826200027e565b905084600781111562000d1e5762000d1e620016d1565b816101600151600781111562000d385762000d38620016d1565b0362000d4c5762000d4983620022b8565b92505b62000d5782620022b8565b91505062000cef565b5092915050565b3360009081526004602052604081205460ff1662000da55760405160e560020a62461bcd02815260040162000d9c90620022ea565b60405180910390fd5b600060078460405162000db991906200230f565b9081526040805160209281900383019020600160a060020a03868116600090815291909352208054600160a060020a031916929091169190911790555060015b92915050565b62000e09620012cb565b60065460405160e060020a6397f735d5028152600160a060020a03909116906397f735d59062000e3e903390600401620015c2565b602060405180830381865afa15801562000e5c573d6000803e3d6000fd5b505050506040513d601f19601f8201168201806040525081019062000e8291906200232d565b1562000ec05760405160e560020a62461bcd028152602060048201526006602482015260d260020a6518985b9b995902604482015260640162000d9c565b6000600160a060020a031660078860405162000edd91906200230f565b90815260408051602092819003830190203360009081529252902054600160a060020a03161462000f435760405160e560020a62461bcd028152602060048201526009602482015260b860020a6849442065786973747302604482015260640162000d9c565b6005546006546040513092600160a060020a03908116921690339088908e908e908e908e908e908d9062000f7790620015b4565b62000f8d9b9a9998979695949392919062002351565b604051809103906000f08015801562000faa573d6000803e3d6000fd5b506001805460009081526003602052604081208054600160a060020a031916600160a060020a039490941693909317909255805490919062000fec90620022b8565b9091555060018054600091600391839162001007916200242c565b81526020808201929092526040908101600090812054600160a060020a03168082526004909352908120805460ff1916600190811790915580549293506003926200105391906200242c565b81526020810191909152604090810160002054905160e160020a631fe5f2ed028152600160a060020a0390911690633fcbe5da9062001099908690869060040162002442565b600060405180830381600087803b158015620010b457600080fd5b505af1158015620010c9573d6000803e3d6000fd5b5050505060018054620010dd91906200242c565b600160a060020a03821660009081526002602052604090819020919091555181906007906200110e908b906200230f565b9081526040805160209281900383019020336000908152925281208054600160a060020a031916600160a060020a0393909316929092179091558951620011559062001329565b905060008b8a838d6020015189600001516040516020016200117c9594939291906200250a565b604051602081830303815290604052905060008051602062005e8b83398151915283600083604051620011b293929190620025b6565b60405180910390a1505050620011c86001600055565b505050505050505050565b600080600160a060020a0316600784604051620011f191906200230f565b9081526040805160209281900383019020600160a060020a0386811660009081529190935220541603620012285750600062000df9565b50600162000df9565b3360009081526004602052604090205460ff16620012665760405160e560020a62461bcd02815260040162000d9c90620022ea565b60008051602062005e8b8339815191523383836040516200128a93929190620025b6565b60405180910390a15050565b620012a0620014aa565b600160a060020a038216600090815260026020526040902054620012c4816200027e565b9392505050565b600260005403620013225760405160e560020a62461bcd02815260206004820152601f60248201527f5265656e7472616e637947756172643a207265656e7472616e742063616c6c00604482015260640162000d9c565b6002600055565b606060006200133883620013c5565b60010190506000816001604060020a038111156200135a576200135a62001a5e565b6040519080825280601f01601f19166020018201604052801562001385576020820181803683370190505b5090508181016020015b60001901608160020a6f181899199a1a9b1b9c1cb0b131b232b302600a86061a8153600a85049450846200138f57509392505050565b600080604060020a72184f03e93ff9f4daa797ed6e38ed64bf6a1f010283106200140b57604060020a72184f03e93ff9f4daa797ed6e38ed64bf6a1f0102830492506040015b6d04ee2d6d415b85acef8100000000831062001438576d04ee2d6d415b85acef8100000000830492506020015b662386f26fc1000083106200145757662386f26fc10000830492506010015b6305f5e100831062001470576305f5e100830492506008015b61271083106200148557612710830492506004015b6064831062001498576064830492506002015b600a831062000df95760010192915050565b604080516101c08101825260008082526020820152908101620014cc6200152f565b815260006020820152604001620014e26200152f565b815260200160608152602001606081526020016060815260200160008152602001600081526020016200151462001549565b81526020016000815260200160608152602001606081525090565b604051806040016040528060008152602001606081525090565b60405180606001604052806060815260200160608152602001606081525090565b6040518060c00160405280600081526020016000815260200160006002811115620015995762001599620016d1565b81526020016060815260200160608152602001600081525090565b6138a180620025ea83390190565b600160a060020a0391909116815260200190565b600060208284031215620015e957600080fd5b5035919050565b600160a060020a03169052565b60005b838110156200161a57818101518382015260200162001600565b50506000910152565b600081518084526200163d816020860160208601620015fd565b601f01601f19169290920160200192915050565b80518252600060208201516040602085015262001672604085018262001623565b949350505050565b600081516060845262001691606085018262001623565b905060208301518482036020860152620016ac828262001623565b91505060408301518482036040860152620016c8828262001623565b95945050505050565b60e060020a634e487b710260009081526021600452602490fd5b60088110620016fe57620016fe620016d1565b9052565b6000828251808552602080860195508081830284010181860160005b84811015620017a357601f19868403018952815160808151818652620017478287018262001623565b915050858201518582038787015262001761828262001623565b915050604060ff81840151168187015250606080830151925085820381870152506200178e818362001623565b9a86019a94505050908301906001016200171e565b5090979650505050505050565b60208152620017c4602082018351620015f0565b60006020830151620017da6040840182620015f0565b5060408301516101c0806060850152620017f96101e085018362001651565b915060608501516200180f6080860182620015f0565b506080850151601f19808685030160a08701526200182e848362001651565b935060a08701519150808685030160c08701526200184d848362001623565b935060c08701519150808685030160e08701526200186c848362001623565b935060e087015191506101008187860301818801526200188d858462001623565b9088015161012088810191909152880151610140808901919091528801518782038301610160808a01919091529195509250620018cb85846200167a565b945080880151925050610180620018e581880184620016eb565b808801519250506101a081878603018188015262001904858462001702565b90880151878203909201848801529350905062001922838262001623565b9695505050505050565b600881106200193a57600080fd5b50565b6000806000606084860312156200195357600080fd5b833562001960816200192c565b95602085013595506040909401359392505050565b60208082528251828201819052600091906040908185019080840286018301878501865b8381101562001a3057603f19898403018552815160c08151855288820151898601528782015160038110620019d257620019d2620016d1565b85890152606082810151818701839052620019f08388018262001623565b925050506080808301518683038288015262001a0d838262001623565b60a094850151979094019690965250509487019492509086019060010162001999565b509098975050505050505050565b60006020828403121562001a5157600080fd5b8135620012c4816200192c565b60e060020a634e487b710260009081526041600452602490fd5b604051608081016001604060020a038111828210171562001a9d5762001a9d62001a5e565b60405290565b604051601f8201601f191681016001604060020a038111828210171562001ace5762001ace62001a5e565b604052919050565b60006001604060020a0382111562001af25762001af262001a5e565b50601f01601f191660200190565b600082601f83011262001b1257600080fd5b813562001b2962001b238262001ad6565b62001aa3565b81815284602083860101111562001b3f57600080fd5b816020850160208301376000918101602001919091529392505050565b600160a060020a03811681146200193a57600080fd5b6000806040838503121562001b8657600080fd5b82356001604060020a0381111562001b9d57600080fd5b62001bab8582860162001b00565b925050602083013562001bbe8162001b5c565b809150509250929050565b60006020828403121562001bdc57600080fd5b8135620012c48162001b5c565b60006040828403121562001bfc57600080fd5b604080519081016001604060020a03808211838310171562001c225762001c2262001a5e565b8160405282935084358352602085013591508082111562001c4257600080fd5b5062001c518582860162001b00565b6020830152505092915050565b60006060828403121562001c7157600080fd5b604051606081016001604060020a03808211838310171562001c975762001c9762001a5e565b81604052829350843591508082111562001cb057600080fd5b62001cbe8683870162001b00565b8352602085013591508082111562001cd557600080fd5b62001ce38683870162001b00565b6020840152604085013591508082111562001cfd57600080fd5b5062001d0c8582860162001b00565b6040830152505092915050565b60ff811681146200193a57600080fd5b600082601f83011262001d3b57600080fd5b813560206001604060020a038083111562001d5a5762001d5a62001a5e565b81830262001d6a83820162001aa3565b938452858101830193838101908886111562001d8557600080fd5b84880192505b8583101562001e6a5782358481111562001da55760008081fd5b88016080818b03601f190181131562001dbe5760008081fd5b62001dc862001a78565b878301358781111562001ddb5760008081fd5b62001deb8d8a8387010162001b00565b8252506040808401358881111562001e035760008081fd5b62001e138e8b8388010162001b00565b8a8401525060608085013562001e298162001d19565b8383015292840135928884111562001e4357600091508182fd5b62001e538e8b8688010162001b00565b908301525084525050918401919084019062001d8b565b98975050505050505050565b60008060008060008060008060006101208a8c03121562001e9657600080fd5b89356001604060020a038082111562001eae57600080fd5b62001ebc8d838e0162001b00565b9a5060208c013591508082111562001ed357600080fd5b62001ee18d838e0162001be9565b995060408c013591508082111562001ef857600080fd5b62001f068d838e0162001b00565b985060608c013591508082111562001f1d57600080fd5b62001f2b8d838e0162001b00565b975060808c013591508082111562001f4257600080fd5b62001f508d838e0162001b00565b965060a08c0135955060c08c013591508082111562001f6e57600080fd5b62001f7c8d838e0162001c5e565b945060e08c013591508082111562001f9357600080fd5b62001fa18d838e0162001d29565b93506101008c013591508082111562001fb957600080fd5b5062001fc88c828d0162001b00565b9150509295985092959850929598565b6000806040838503121562001fec57600080fd5b823562001ff9816200192c565b915060208301356001604060020a038111156200201557600080fd5b620020238582860162001b00565b9150509250929050565b6000602082840312156200204057600080fd5b8151620012c48162001b5c565b600082601f8301126200205f57600080fd5b81516200207062001b238262001ad6565b8181528460208386010111156200208657600080fd5b62001672826020830160208701620015fd565b600060208284031215620020ac57600080fd5b81516001604060020a03811115620020c357600080fd5b62001672848285016200204d565b60008060408385031215620020e557600080fd5b825160208401519092506001604060020a038111156200210457600080fd5b62002023858286016200204d565b6000602082840312156200212557600080fd5b5051919050565b6000806000606084860312156200214257600080fd5b83516001604060020a03808211156200215a57600080fd5b62002168878388016200204d565b945060208601519150808211156200217f57600080fd5b6200218d878388016200204d565b93506040860151915080821115620021a457600080fd5b50620021b3868287016200204d565b9150509250925092565b600060208284031215620021d057600080fd5b8151620012c4816200192c565b60008060008060808587031215620021f457600080fd5b84516001604060020a03808211156200220c57600080fd5b6200221a888389016200204d565b955060208701519150808211156200223157600080fd5b6200223f888389016200204d565b945060408701519150620022538262001d19565b6060870151919350808211156200226957600080fd5b5062002278878288016200204d565b91505092959194509250565b60e060020a634e487b710260009081526032600452602490fd5b60e060020a634e487b710260009081526011600452602490fd5b600060018201620022cd57620022cd6200229e565b5060010190565b8082018082111562000df95762000df96200229e565b602080825260089082015260c060020a672174726164652d6302604082015260600190565b6000825162002323818460208701620015fd565b9190910192915050565b6000602082840312156200234057600080fd5b81518015158114620012c457600080fd5b600160a060020a038c168152600061016062002371602084018e620015f0565b62002380604084018d620015f0565b6200238f606084018c620015f0565b8960808401528060a0840152620023a98184018a62001623565b905082810360c0840152620023bf818962001651565b905082810360e0840152620023d5818862001623565b9050828103610100840152620023ec818762001623565b905082810361012084015262002403818662001623565b90508281036101408401526200241a81856200167a565b9e9d5050505050505050505050505050565b8181038181111562000df95762000df96200229e565b604080825283518282018190526000919060609081850190602080820287018401818a01875b84811015620024e757605f198a8403018652815160808151818652620024918287018262001623565b9150508582015185820387870152620024ab828262001623565b91505060ff8a830151168a86015288820151915084810389860152620024d2818362001623565b97860197945050509083019060010162002468565b505087810382890152620024fc818a62001623565b9a9950505050505050505050565b600086516200251e818460208b01620015fd565b808301905060f260020a611f1f02808252875162002544816002850160208c01620015fd565b60029201918201819052865162002563816004850160208b01620015fd565b60f860020a602b026004939091019283015285516200258a816005850160208a01620015fd565b60059201918201528351620025a7816007840160208801620015fd565b01600701979650505050505050565b600160a060020a0384168152620025d16020820184620016eb565b606060408201526000620016c860608301846200162356fe60806040523480156200001157600080fd5b50604051620038a1380380620038a183398101604081905262000034916200037b565b60148054600160a060020a038d8116600160a060020a03199283161790925560128054601380548e8616908516179055600080548d8616941693909317909255600d8a9055918c166101000260ff1916600160a860020a03199091161790556002620000a187826200059f565b50845160049081556020860151869190600590620000c090826200059f565b5060039150620000d3905085826200059f565b506008620000e284826200059f565b506009620000f183826200059f565b508051600f906200010390826200059f565b5060208101516010906200011890826200059f565b5060408101516011906200012d90826200059f565b50505050505050505050505062000671565b8051600160a060020a03811681146200015757600080fd5b919050565b7f4e487b7100000000000000000000000000000000000000000000000000000000600052604160045260246000fd5b604051601f8201601f191681016001604060020a0381118282101715620001b657620001b66200015c565b604052919050565b600082601f830112620001d057600080fd5b81516001604060020a03811115620001ec57620001ec6200015c565b602062000202601f8301601f191682016200018b565b82815285828487010111156200021757600080fd5b60005b83811015620002375785810183015182820184015282016200021a565b506000928101909101919091529392505050565b6000604082840312156200025e57600080fd5b604051604081016001604060020a0382821081831117156200028457620002846200015c565b81604052829350845183526020850151915080821115620002a457600080fd5b50620002b385828601620001be565b6020830152505092915050565b600060608284031215620002d357600080fd5b604051606081016001604060020a038282108183111715620002f957620002f96200015c565b8160405282935084519150808211156200031257600080fd5b6200032086838701620001be565b835260208501519150808211156200033757600080fd5b6200034586838701620001be565b602084015260408501519150808211156200035f57600080fd5b506200036e85828601620001be565b6040830152505092915050565b60008060008060008060008060008060006101608c8e0312156200039e57600080fd5b620003a98c6200013f565b9a50620003b960208d016200013f565b9950620003c960408d016200013f565b9850620003d960608d016200013f565b975060808c0151965060a08c01516001604060020a03811115620003fc57600080fd5b6200040a8e828f01620001be565b96505060c08c01516001604060020a038111156200042757600080fd5b620004358e828f016200024b565b95505060e08c01516001604060020a038111156200045257600080fd5b620004608e828f01620001be565b9450506101008c01516001604060020a038111156200047e57600080fd5b6200048c8e828f01620001be565b9350506101208c01516001604060020a03811115620004aa57600080fd5b620004b88e828f01620001be565b9250506101408c01516001604060020a03811115620004d657600080fd5b620004e48e828f01620002c0565b9150509295989b509295989b9093969950565b6002810460018216806200050c57607f821691505b60208210810362000546577f4e487b7100000000000000000000000000000000000000000000000000000000600052602260045260246000fd5b50919050565b601f8211156200059a576000818152602081206020601f86010481016020861015620005755750805b6020601f860104820191505b81811015620005965782815560010162000581565b5050505b505050565b81516001604060020a03811115620005bb57620005bb6200015c565b620005d381620005cc8454620004f7565b846200054c565b602080601f8311600181146200060f5760008415620005f25750858301515b60028086026008870290910a600019041982161786555062000596565b600085815260208120601f198616915b8281101562000640578886015182559484019460019091019084016200061f565b50858210156200066157878501516008601f88160260020a60001904191681555b5050505050600202600101905550565b61322080620006816000396000f3fe60806040526004361061016b5760e060020a600035046302197c55811461017057806302d8ee9c1461019c57806308551a53146101be578063142ebf3c146101eb5780631e86221f1461020b578063200d2ed214610220578063343bf40e14610247578063356cd0dc146102785780633fcbe5da1461028d5780634181a66c146102af5780634e9448e9146102d3578063595210ad146102f357806360b7ee991461031357806368ccaa521461032857806370e066f61461034c57806370ec9d54146103615780637150d8ae1461038657806373fac6f0146103a65780637c148952146103bb57806385e14a48146103d15780638dada6d8146103eb5780638f965d8014610400578063b06bec3e14610430578063c2bd884b14610443578063d2ef033c14610468578063d55a17c014610488578063de11c94a1461049d578063e29b9e97146104bd578063e67d5523146104d3578063f4a84e0f146104e8578063fddd56c5146104fd575b600080fd5b34801561017c57600080fd5b50610185610512565b6040516101939291906127f9565b60405180910390f35b3480156101a857600080fd5b506101b16105a9565b604051610193919061281a565b3480156101ca57600080fd5b506000546101de90600160a060020a031681565b6040516101939190612834565b3480156101f757600080fd5b506013546101de90600160a060020a031681565b34801561021757600080fd5b506101b1610637565b34801561022c57600080fd5b5060125461023a9060ff1681565b6040516101939190612876565b34801561025357600080fd5b506016546102689060a860020a900460ff1681565b6040519015158152602001610193565b34801561028457600080fd5b506101b1610644565b34801561029957600080fd5b506102ad6102a8366004612965565b610651565b005b3480156102bb57600080fd5b506102c5600e5481565b604051908152602001610193565b3480156102df57600080fd5b506102ad6102ee366004612af6565b6107ff565b3480156102ff57600080fd5b506102ad61030e366004612b52565b610dd1565b34801561031f57600080fd5b506102ad61106a565b34801561033457600080fd5b5061033d61124e565b60405161019393929190612b86565b34801561035857600080fd5b506101b16113fc565b34801561036d57600080fd5b506016546101de906101009004600160a060020a031681565b34801561039257600080fd5b506001546101de90600160a060020a031681565b3480156103b257600080fd5b506102ad611409565b3480156103c757600080fd5b506102c5600c5481565b3480156103dd57600080fd5b5060165461023a9060ff1681565b3480156103f757600080fd5b506101b16117c2565b34801561040c57600080fd5b5061042061041b366004612bc9565b6117cf565b6040516101939493929190612be2565b6102ad61043e366004612c2f565b6119b0565b34801561044f57600080fd5b506012546101de906101009004600160a060020a031681565b34801561047457600080fd5b506102ad610483366004612cbb565b611cd3565b34801561049457600080fd5b506102ad6122fa565b3480156104a957600080fd5b506014546101de90600160a060020a031681565b3480156104c957600080fd5b506102c5600d5481565b3480156104df57600080fd5b506101b1612614565b3480156104f457600080fd5b50600a546102c5565b34801561050957600080fd5b50610185612621565b600480546005805491929161052690612cd8565b80601f016020809104026020016040519081016040528092919081815260200182805461055290612cd8565b801561059f5780601f106105745761010080835404028352916020019161059f565b820191906000526020600020905b81548152906001019060200180831161058257829003601f168201915b5050505050905082565b600380546105b690612cd8565b80601f01602080910402602001604051908101604052809291908181526020018280546105e290612cd8565b801561062f5780601f106106045761010080835404028352916020019161062f565b820191906000526020600020905b81548152906001019060200180831161061257829003601f168201915b505050505081565b600280546105b690612cd8565b601580546105b690612cd8565b601454600160a060020a031633148015610675575060165460a860020a900460ff16155b6106b75760405160e560020a62461bcd028152602060048201526008602482015260c060020a6721666163746f72790260448201526064015b60405180910390fd5b6016805460a860020a60ff02191660a860020a17905560005b825181101561077957600a8382815181106106ed576106ed612d16565b6020908102919091018101518254600181018455600093845291909220825160049092020190819061071f9082612d7e565b50602082015160018201906107349082612d7e565b50604082015160028201805460ff191660ff909216919091179055606082015160038201906107639082612d7e565b505050808061077190612e43565b9150506106d0565b506013546000805460405160e060020a63116fd649028152600160a060020a039384169363116fd649936107b99330936001939091169190600401612e6e565b600060405180830381600087803b1580156107d357600080fd5b505af11580156107e7573d6000803e3d6000fd5b5050505080600b90816107fa9190612d7e565b505050565b60125460405160e760020a63012875b1028152610100909104600160a060020a03169063943ad88090610836903390600401612834565b602060405180830381865afa158015610853573d6000803e3d6000fd5b505050506040513d601f19601f820116820180604052508101906108779190612eb4565b806108f8575060125460405160e060020a63fd6aad25028152610100909104600160a060020a03169063fd6aad25906108b4903390600401612834565b602060405180830381865afa1580156108d1573d6000803e3d6000fd5b505050506040513d601f19601f820116820180604052508101906108f59190612ed1565b15155b61093a5760405160e560020a62461bcd02815260206004820152600d6024820152609a60020a6c085ad95c1c881bdc881bdc98db0260448201526064016106ae565b600560125460ff16600781111561095357610953612848565b1461098e5760405160e560020a62461bcd028152602060048201526005602482015260dc60020a6402164697370260448201526064016106ae565b6014546000805460405160e160020a633188e1790281529192600160a060020a0390811692636311c2f2926109cb92600392911690600401612eea565b6020604051808303816000875af11580156109ea573d6000803e3d6000fd5b505050506040513d601f19601f82011682018060405250810190610a0e9190612eb4565b905080610a305760405160e560020a62461bcd0281526004016106ae90612f84565b8415610af257600760125460ff166007811115610a4f57610a4f612848565b50508115610aed57600154600c54604051600092600160a060020a031691908381818185875af1925050503d8060008114610aa6576040519150601f19603f3d011682016040523d82523d6000602084013e610aab565b606091505b5050905080610aeb5760405160e560020a62461bcd0281526004016106ae90602080825260049082015260e260020a63085cdb9d02604082015260600190565b505b610b99565b6012805460ff191660061790558115610b995760008054600c54604051600160a060020a03909216918381818185875af1925050503d8060008114610b53576040519150601f19603f3d011682016040523d82523d6000602084013e610b58565b606091505b5050905080610b975760405160e560020a62461bcd028152602060048201526005602482015260d960020a6410b9b73a190260448201526064016106ae565b505b8315610c095760135460005460405160e160020a6329ca0ea7028152600160a060020a03928316926353941d4e92610bd692911690600401612834565b600060405180830381600087803b158015610bf057600080fd5b505af1158015610c04573d6000803e3d6000fd5b505050505b8215610c795760135460015460405160e160020a6329ca0ea7028152600160a060020a03928316926353941d4e92610c4692911690600401612834565b600060405180830381600087803b158015610c6057600080fd5b505af1158015610c74573d6000803e3d6000fd5b505050505b60135460005460125460405160e060020a63fe4162d1028152600160a060020a039384169363fe4162d193610cbb933093919092169160ff1690600401612fa9565b600060405180830381600087803b158015610cd557600080fd5b505af1158015610ce9573d6000803e3d6000fd5b505060135460015460125460405160e060020a63fe4162d1028152600160a060020a03938416955063fe4162d19450610d2c933093169160ff1690600401612fa9565b600060405180830381600087803b158015610d4657600080fd5b505af1158015610d5a573d6000803e3d6000fd5b505060145460125460405160e160020a634cd955e3028152600160a060020a0390921693506399b2abc69250610d989160ff90911690600401612fce565b600060405180830381600087803b158015610db257600080fd5b505af1158015610dc6573d6000803e3d6000fd5b505050505050505050565b600054600154600160a060020a03918216911633821480610dfa575033600160a060020a038216145b610e355760405160e560020a62461bcd028152602060048201526006602482015260d460020a6502167726f7570260448201526064016106ae565b600560125460ff166007811115610e4e57610e4e612848565b14158015610e735750600660125460ff166007811115610e7057610e70612848565b14155b8015610e965750600760125460ff166007811115610e9357610e93612848565b14155b610ed55760405160e560020a62461bcd02815260206004820152600a602482015260b060020a69616c72656164794469730260448201526064016106ae565b60128054600560ff19918216811790925560168054600160a860020a03191633610100029092169190911790911790556015610f118482612d7e565b5060135460005460125460405160e060020a63fe4162d1028152600160a060020a039384169363fe4162d193610f54933093919092169160ff1690600401612fa9565b600060405180830381600087803b158015610f6e57600080fd5b505af1158015610f82573d6000803e3d6000fd5b505060135460015460125460405160e060020a63fe4162d1028152600160a060020a03938416955063fe4162d19450610fc5933093169160ff1690600401612fa9565b600060405180830381600087803b158015610fdf57600080fd5b505af1158015610ff3573d6000803e3d6000fd5b505060145460125460405160e160020a634cd955e3028152600160a060020a0390921693506399b2abc692506110339160ff909116908790600401612fef565b600060405180830381600087803b15801561104d57600080fd5b505af1158015611061573d6000803e3d6000fd5b50505050505050565b600054600160a060020a03163381146110985760405160e560020a62461bcd0281526004016106ae9061300f565b600260125460ff1660078111156110b1576110b1612848565b146110f25760405160e560020a62461bcd02815260206004820152600b602482015260a860020a6a74726473747321636f6d6d0260448201526064016106ae565b6012805460ff1916600390811790915560135460005460405160e060020a63fe4162d1028152600160a060020a039283169363fe4162d19361113c93309391169190600401612fa9565b600060405180830381600087803b15801561115657600080fd5b505af115801561116a573d6000803e3d6000fd5b505060135460015460125460405160e060020a63fe4162d1028152600160a060020a03938416955063fe4162d194506111ad933093169160ff1690600401612fa9565b600060405180830381600087803b1580156111c757600080fd5b505af11580156111db573d6000803e3d6000fd5b505060145460125460405160e160020a634cd955e3028152600160a060020a0390921693506399b2abc692506112199160ff90911690600401612fce565b600060405180830381600087803b15801561123357600080fd5b505af1158015611247573d6000803e3d6000fd5b5050505050565b600f8054819061125d90612cd8565b80601f016020809104026020016040519081016040528092919081815260200182805461128990612cd8565b80156112d65780601f106112ab576101008083540402835291602001916112d6565b820191906000526020600020905b8154815290600101906020018083116112b957829003601f168201915b5050505050908060010180546112eb90612cd8565b80601f016020809104026020016040519081016040528092919081815260200182805461131790612cd8565b80156113645780601f1061133957610100808354040283529160200191611364565b820191906000526020600020905b81548152906001019060200180831161134757829003601f168201915b50505050509080600201805461137990612cd8565b80601f01602080910402602001604051908101604052809291908181526020018280546113a590612cd8565b80156113f25780601f106113c7576101008083540402835291602001916113f2565b820191906000526020600020905b8154815290600101906020018083116113d557829003601f168201915b5050505050905083565b600880546105b690612cd8565b600154600160a060020a03163381146114375760405160e560020a62461bcd0281526004016106ae9061300f565b600260125460ff16600781111561145057611450612848565b14806114725750600360125460ff16600781111561147057611470612848565b145b6114b75760405160e560020a62461bcd0281526020600482015260106024820152608160020a6f3a393239ba3990b1b7b6b6be30b1ba170260448201526064016106ae565b6012805460ff1916600490811790915560135460005460405160e160020a6321f11cdd028152600160a060020a03928316936343e239ba936114fe93309391169101613032565b600060405180830381600087803b15801561151857600080fd5b505af115801561152c573d6000803e3d6000fd5b50506014546000805460405160e160020a633188e179028152919450600160a060020a039283169350636311c2f29261156e9260039290911690600401612eea565b6020604051808303816000875af115801561158d573d6000803e3d6000fd5b505050506040513d601f19601f820116820180604052508101906115b19190612eb4565b9050806115fe5760405160e560020a62461bcd0281526020600482015260156024820152605a60020a74191a591b89dd081c995b5bdd99481d1c98591952590260448201526064016106ae565b60008054600c54604051600160a060020a03909216918381818185875af1925050503d806000811461164c576040519150601f19603f3d011682016040523d82523d6000602084013e611651565b606091505b50509050806116a35760405160e560020a62461bcd0281526020600482015260186024820152604060020a774661696c7572652c206574686572206e6f742073656e74210260448201526064016106ae565b60135460005460125460405160e060020a63fe4162d1028152600160a060020a039384169363fe4162d1936116e5933093919092169160ff1690600401612fa9565b600060405180830381600087803b1580156116ff57600080fd5b505af1158015611713573d6000803e3d6000fd5b505060135460015460125460405160e060020a63fe4162d1028152600160a060020a03938416955063fe4162d19450611756933093169160ff1690600401612fa9565b600060405180830381600087803b15801561177057600080fd5b505af1158015611784573d6000803e3d6000fd5b505060145460125460405160e160020a634cd955e3028152600160a060020a0390921693506399b2abc692506110339160ff90911690600401612fce565b600b80546105b690612cd8565b600a81815481106117df57600080fd5b906000526020600020906004020160009150905080600001805461180290612cd8565b80601f016020809104026020016040519081016040528092919081815260200182805461182e90612cd8565b801561187b5780601f106118505761010080835404028352916020019161187b565b820191906000526020600020905b81548152906001019060200180831161185e57829003601f168201915b50505050509080600101805461189090612cd8565b80601f01602080910402602001604051908101604052809291908181526020018280546118bc90612cd8565b80156119095780601f106118de57610100808354040283529160200191611909565b820191906000526020600020905b8154815290600101906020018083116118ec57829003601f168201915b5050506002840154600385018054949560ff90921694919350915061192d90612cd8565b80601f016020809104026020016040519081016040528092919081815260200182805461195990612cd8565b80156119a65780601f1061197b576101008083540402835291602001916119a6565b820191906000526020600020905b81548152906001019060200180831161198957829003601f168201915b5050505050905084565b600060125460ff1660078111156119c9576119c9612848565b14611a0b5760405160e560020a62461bcd02815260206004820152600c602482015260a160020a6b3a39321039ba1010b832b7170260448201526064016106ae565b600d54341015611a4c5760405160e560020a62461bcd028152602060048201526006602482015260d060020a652176616c75650260448201526064016106ae565b600054600160a060020a03163303611a965760405160e560020a62461bcd028152602060048201526007602482015260c960020a6610b9b2b63632b90260448201526064016106ae565b6012805460ff1916600217905560135460005460405160e060020a637f1b5565028152600160a060020a0392831692637f1b556592611add92309290911690600401613032565b600060405180830381600087803b158015611af757600080fd5b505af1158015611b0b573d6000803e3d6000fd5b505060018054600160a060020a031916331790555050805160069081556020820151829190600790611b3d9082612d7e565b505034600c555042600e55600d54600090611b5790612635565b90506000611b69600460000154612635565b90506000611b7a8460000151612635565b602080860151604051929350600092611b9c92869260059287928a9101613079565b60408051601f198184030181529082905260135460005460125460e060020a63fe4162d1028552929450600160a060020a039182169363fe4162d193611bee933093169160ff90911690600401612fa9565b600060405180830381600087803b158015611c0857600080fd5b505af1158015611c1c573d6000803e3d6000fd5b505060135460015460125460405160e060020a63116fd649028152600160a060020a03938416955063116fd6499450611c6593309360009391169160ff90911690600401612e6e565b600060405180830381600087803b158015611c7f57600080fd5b505af1158015611c93573d6000803e3d6000fd5b505060145460125460405160e160020a634cd955e3028152600160a060020a0390921693506399b2abc69250610d989160ff909116908590600401612fef565b60125460405160e760020a63012875b1028152610100909104600160a060020a03169063943ad88090611d0a903390600401612834565b602060405180830381865afa158015611d27573d6000803e3d6000fd5b505050506040513d601f19601f82011682018060405250810190611d4b9190612eb4565b611d5457600080fd5b600260125460ff166007811115611d6d57611d6d612848565b1015611db05760405160e560020a62461bcd02815260206004820152600c602482015260a060020a6b747264737473213e636f6d6d0260448201526064016106ae565b600460125460ff166007811115611dc957611dc9612848565b10611e0a5760405160e560020a62461bcd02815260206004820152600b602482015260ac60020a6a07472647374733c636f6d70260448201526064016106ae565b8015612057576012805460ff1916600490811790915560135460005460405160e160020a6321f11cdd028152600160a060020a03928316936343e239ba93611e5793309391169101613032565b600060405180830381600087803b158015611e7157600080fd5b505af1158015611e85573d6000803e3d6000fd5b505060135460005460125460405160e060020a63fe4162d1028152600160a060020a03938416955063fe4162d19450611ec8933093169160ff1690600401612fa9565b600060405180830381600087803b158015611ee257600080fd5b505af1158015611ef6573d6000803e3d6000fd5b505060135460015460125460405160e060020a63fe4162d1028152600160a060020a03938416955063fe4162d19450611f39933093169160ff1690600401612fa9565b600060405180830381600087803b158015611f5357600080fd5b505af1158015611f67573d6000803e3d6000fd5b505060008054600c54604051929450600160a060020a039091169250908381818185875af1925050503d8060008114611fbc576040519150601f19603f3d011682016040523d82523d6000602084013e611fc1565b606091505b5050905080611fe55760405160e560020a62461bcd0281526004016106ae9061315a565b60145460125460405160e160020a634cd955e3028152600160a060020a03909216916399b2abc69161201f9160ff9091169060040161317e565b600060405180830381600087803b15801561203957600080fd5b505af115801561204d573d6000803e3d6000fd5b5050505050612254565b60128054600760ff198216811790925560135460005460405160e060020a63fe4162d102815260ff90931693600160a060020a039283169363fe4162d1936120a6933093911691600401612fa9565b600060405180830381600087803b1580156120c057600080fd5b505af11580156120d4573d6000803e3d6000fd5b50600292506120e1915050565b8160078111156120f3576120f3612848565b1061216d5760135460015460125460405160e060020a63fe4162d1028152600160a060020a039384169363fe4162d19361213a933093919092169160ff1690600401612fa9565b600060405180830381600087803b15801561215457600080fd5b505af1158015612168573d6000803e3d6000fd5b505050505b600154600c54604051600092600160a060020a031691908381818185875af1925050503d80600081146121bc576040519150601f19603f3d011682016040523d82523d6000602084013e6121c1565b606091505b50509050806121e55760405160e560020a62461bcd0281526004016106ae9061315a565b60145460125460405160e160020a634cd955e3028152600160a060020a03909216916399b2abc69161221f9160ff909116906004016131b3565b600060405180830381600087803b15801561223957600080fd5b505af115801561224d573d6000803e3d6000fd5b5050505050505b6014546000805460405160e160020a633188e1790281529192600160a060020a0390811692636311c2f29261229192600392911690600401612eea565b6020604051808303816000875af11580156122b0573d6000803e3d6000fd5b505050506040513d601f19601f820116820180604052508101906122d49190612eb4565b9050806122f65760405160e560020a62461bcd0281526004016106ae90612f84565b5050565b600054600160a060020a03163381146123285760405160e560020a62461bcd0281526004016106ae9061300f565b600260125460ff16600781111561234157612341612848565b111561237f5760405160e560020a62461bcd028152602060048201526007602482015260c960020a6639ba1010b832b70260448201526064016106ae565b6012805460ff1916600190811790915560135460005460405160e060020a63fe4162d1028152600160a060020a039283169363fe4162d1936123c993309391169190600401612fa9565b600060405180830381600087803b1580156123e357600080fd5b505af11580156123f7573d6000803e3d6000fd5b5060029250612404915050565b60125460ff16600781111561241b5761241b612848565b0361252c5760135460015460125460405160e060020a63fe4162d1028152600160a060020a039384169363fe4162d193612462933093919092169160ff1690600401612fa9565b600060405180830381600087803b15801561247c57600080fd5b505af1158015612490573d6000803e3d6000fd5b5050600154600c5460405160009450600160a060020a039092169250908381818185875af1925050503d80600081146124e5576040519150601f19603f3d011682016040523d82523d6000602084013e6124ea565b606091505b505090508061252a5760405160e560020a62461bcd0281526004016106ae90602080825260049082015260e360020a630428ae8d02604082015260600190565b505b60145460125460405160e160020a634cd955e3028152600160a060020a03909216916399b2abc6916125669160ff90911690600401612fce565b600060405180830381600087803b15801561258057600080fd5b505af1158015612594573d6000803e3d6000fd5b505060145460005460405160e160020a633188e179028152600160a060020a039283169450636311c2f293506125d1926003921690600401612eea565b6020604051808303816000875af11580156125f0573d6000803e3d6000fd5b505050506040513d601f19601f820116820180604052508101906122f69190612eb4565b600980546105b690612cd8565b600680546007805491929161052690612cd8565b60606000612642836126ca565b60010190506000816001604060020a0381111561266157612661612884565b6040519080825280601f01601f19166020018201604052801561268b576020820181803683370190505b5090508181016020015b60001901608160020a6f181899199a1a9b1b9c1cb0b131b232b302600a86061a8153600a850494508461269557509392505050565b600080604060020a72184f03e93ff9f4daa797ed6e38ed64bf6a1f0102831061270f57604060020a72184f03e93ff9f4daa797ed6e38ed64bf6a1f0102830492506040015b6d04ee2d6d415b85acef8100000000831061273b576d04ee2d6d415b85acef8100000000830492506020015b662386f26fc10000831061275957662386f26fc10000830492506010015b6305f5e1008310612771576305f5e100830492506008015b612710831061278557612710830492506004015b60648310612797576064830492506002015b600a83106127a3576001015b92915050565b60005b838110156127c45781810151838201526020016127ac565b50506000910152565b600081518084526127e58160208601602086016127a9565b601f01601f19169290920160200192915050565b82815260406020820152600061281260408301846127cd565b949350505050565b60208152600061282d60208301846127cd565b9392505050565b600160a060020a0391909116815260200190565b60e060020a634e487b710260009081526021600452602490fd5b6008811061287257612872612848565b9052565b602081016127a38284612862565b60e060020a634e487b710260009081526041600452602490fd5b604051608081016001604060020a03811182821017156128c0576128c0612884565b60405290565b604051601f8201601f191681016001604060020a03811182821017156128ee576128ee612884565b604052919050565b600082601f83011261290757600080fd5b81356001604060020a0381111561292057612920612884565b612933601f8201601f19166020016128c6565b81815284602083860101111561294857600080fd5b816020850160208301376000918101602001919091529392505050565b6000806040838503121561297857600080fd5b82356001604060020a038082111561298f57600080fd5b818501915085601f8301126129a357600080fd5b81356020828211156129b7576129b7612884565b8082026129c58282016128c6565b928352848101820192828101908a8511156129df57600080fd5b83870192505b84831015612ab7578235868111156129fd5760008081fd5b87016080818d03601f1901811315612a155760008081fd5b612a1d61289e565b8683013589811115612a2f5760008081fd5b612a3d8f89838701016128f6565b825250604083013589811115612a535760008081fd5b612a618f89838701016128f6565b888301525060608084013560ff81168114612a7c5760008081fd5b6040830152918301359189831115612a945760008081fd5b612aa28f89858701016128f6565b908201528452505091830191908301906129e5565b9750505086013592505080821115612ace57600080fd5b50612adb858286016128f6565b9150509250929050565b8015158114612af357600080fd5b50565b60008060008060808587031215612b0c57600080fd5b8435612b1781612ae5565b93506020850135612b2781612ae5565b92506040850135612b3781612ae5565b91506060850135612b4781612ae5565b939692955090935050565b600060208284031215612b6457600080fd5b81356001604060020a03811115612b7a57600080fd5b612812848285016128f6565b606081526000612b9960608301866127cd565b8281036020840152612bab81866127cd565b90508281036040840152612bbf81856127cd565b9695505050505050565b600060208284031215612bdb57600080fd5b5035919050565b608081526000612bf560808301876127cd565b8281036020840152612c0781876127cd565b905060ff851660408401528281036060840152612c2481856127cd565b979650505050505050565b600060208284031215612c4157600080fd5b81356001604060020a0380821115612c5857600080fd5b9083019060408286031215612c6c57600080fd5b604051604081018181108382111715612c8757612c87612884565b60405282358152602083013582811115612ca057600080fd5b612cac878286016128f6565b60208301525095945050505050565b600060208284031215612ccd57600080fd5b813561282d81612ae5565b600281046001821680612cec57607f821691505b602082108103612d105760e060020a634e487b710260009081526022600452602490fd5b50919050565b60e060020a634e487b710260009081526032600452602490fd5b601f8211156107fa576000818152602081206020601f86010481016020861015612d575750805b6020601f860104820191505b81811015612d7657828155600101612d63565b505050505050565b81516001604060020a03811115612d9757612d97612884565b612dab81612da58454612cd8565b84612d30565b602080601f831160018114612de45760008415612dc85750858301515b60028086026008870290910a6000190419821617865550612d76565b600085815260208120601f198616915b82811015612e1357888601518255948401946001909101908401612df4565b5085821015612e3357878501516008601f88160260020a60001904191681555b5050505050600202600101905550565b600060018201612e675760e060020a634e487b710260009081526011600452602490fd5b5060010190565b600160a060020a038581168252608082019060028610612e9057612e90612848565b6020830186905284166040830152612eab6060830184612862565b95945050505050565b600060208284031215612ec657600080fd5b815161282d81612ae5565b600060208284031215612ee357600080fd5b5051919050565b604081526000808454612efc81612cd8565b8060408601526060600180841660008114612f1e5760018114612f3857612f69565b60ff19851688840152602084151502880183019550612f69565b8960005260208060002060005b86811015612f605781548b8201870152908401908201612f45565b8a018501975050505b50505050600160a060020a038516602085015250905061282d565b602080825260089082015260c260020a67085d1c985919525902604082015260600190565b600160a060020a03848116825283166020820152606081016128126040830184612862565b612fd88183612862565b604060208201819052600090820152606001919050565b612ff98184612862565b60406020820152600061281260408301846127cd565b602080825260069082015260d060020a6521706172747902604082015260600190565b600160a060020a0392831681529116602082015260400190565b6000815161305e8185602086016127a9565b9290920192915050565b60f260020a611f1f02815260020190565b60008651602061308c8285838c016127a9565b818401915060f860020a602b0282526001600089546130aa81612cd8565b81841680156130c057600181146130d957613109565b60ff198316878601528115158202870185019350613109565b8c6000528560002060005b838110156130ff5781548982018801529086019087016130e4565b5050848288010193505b50505061314b61314561314061313a61312a61312486613068565b8e61304c565b60f860020a602b02815260010190565b8b61304c565b613068565b8861304c565b9b9a5050505050505050505050565b602080825260079082015260cb60020a66042e6dce88ae8d02604082015260600190565b6131888183612862565b60406020820181905260089082015260c060020a674b4f205452414445026060820152608001919050565b6131bd8183612862565b604060208201819052600a9082015260b260020a6912d3c81111519055531502606082015260800191905056fea26469706673582212206a4a45452c87a6255c1832da730412679ef2a67e5f76f8dc976f85c6b1db158764736f6c63430008130033e84cfdc339669fa65116ce7f2ca5c4d0818d0ba66cc7fa49d99a653a89882b1da2646970667358221220f1ce2d8b391a3b0cb0150f81c04c021652f057d27251379620a399c17c3900ef64736f6c63430008130033",
  "immutableReferences": {},
  "source": "// //SPDX-License-Identifier: UNLICENSED\r\npragma solidity 0.8.19;\r\n\r\nimport \"./TradeFactoryBase.sol\";\r\n\r\nstruct TradeIndex {\r\n    uint256 index;\r\n    uint256 weiPrice;\r\n    PriceType priceType;\r\n    string weaponType;\r\n    string itemMarketName;\r\n    uint256 nextIndex;\r\n}\r\n\r\ncontract SMTradeFactory is TradeFactoryBase {\r\n    constructor(\r\n        address _keepers,\r\n        address _users\r\n    ) TradeFactoryBase(_keepers, _users) {}\r\n\r\n    function createListingContract(\r\n        string memory _itemMarketName,\r\n        TradeUrl memory _tradeUrl,\r\n        string memory _assetId,\r\n        string memory _inspectLink,\r\n        string memory _itemImageUrl,\r\n        uint256 _weiPrice,\r\n        FloatInfo memory _float,\r\n        Sticker[] memory _stickers,\r\n        string memory _weaponType\r\n    ) external nonReentrant {\r\n        require(usersContract.isBanned(msg.sender) == false, \"banned\");\r\n        require(\r\n            assetIdFromUserAddrssToTradeAddrss[_assetId][msg.sender] ==\r\n                address(0),\r\n            \"ID exists\"\r\n        );\r\n        tradeContracts[totalContracts] = new SMTrade(\r\n            address(this),\r\n            address(keepersContract),\r\n            address(usersContract),\r\n            msg.sender,\r\n            _weiPrice,\r\n            _itemMarketName,\r\n            _tradeUrl,\r\n            _assetId,\r\n            _inspectLink,\r\n            _itemImageUrl,\r\n            _float\r\n        );\r\n        ++totalContracts;\r\n\r\n        address newAddress = address(tradeContracts[totalContracts - 1]);\r\n\r\n        isTradeContract[newAddress] = true;\r\n        tradeContracts[totalContracts - 1].initExtraInfo(\r\n            _stickers,\r\n            _weaponType\r\n        );\r\n\r\n        contractAddressToIndex[newAddress] = totalContracts - 1;\r\n        assetIdFromUserAddrssToTradeAddrss[_assetId][msg.sender] = newAddress;\r\n\r\n        string memory _tradeUrlPartner = Strings.toString(_tradeUrl.partner);\r\n        string memory data = string(\r\n            abi.encodePacked(\r\n                _itemMarketName,\r\n                \"||\",\r\n                _assetId,\r\n                \"||\",\r\n                _tradeUrlPartner,\r\n                \"+\",\r\n                _tradeUrl.token,\r\n                \"||\",\r\n                _float.value\r\n            )\r\n        );\r\n        emit TradeContractStatusChange(newAddress, TradeStatus.Pending, data);\r\n    }\r\n\r\n    function getTradeDetailsByIndex(\r\n        uint256 index\r\n    ) public view returns (TradeInfo memory result) {\r\n        uint256 i = index;\r\n        SMTrade _contract = tradeContracts[i];\r\n\r\n        result.contractAddress = address(_contract);\r\n        result.seller = _contract.seller();\r\n        result.buyer = _contract.buyer();\r\n        result.itemMarketName = _contract.itemMarketName();\r\n        result.inspectLink = _contract.inspectLink();\r\n\r\n        TradeUrl memory _sTradeUrl;\r\n        (_sTradeUrl.partner, _sTradeUrl.token) = _contract.sellerTradeUrl();\r\n        result.sellerTradeUrl = _sTradeUrl;\r\n\r\n        TradeUrl memory _bTradeUrl;\r\n        (_bTradeUrl.partner, _bTradeUrl.token) = _contract.buyerTradeUrl();\r\n        result.buyerTradeUrl = _bTradeUrl;\r\n\r\n        result.weiPrice = _contract.weiPrice();\r\n        result.itemImageUrl = _contract.itemImageUrl();\r\n        result.averageSellerDeliveryTime = usersContract.getAverageDeliveryTime(\r\n            result.seller\r\n        );\r\n        FloatInfo memory _float;\r\n        (_float.value, _float.min, _float.max) = _contract.float();\r\n        result.float = _float;\r\n        result.status = _contract.status();\r\n\r\n        uint256 lengthOfStickersArray = _contract.stickerLength();\r\n        Sticker[] memory _stickers = new Sticker[](lengthOfStickersArray);\r\n\r\n        for (uint256 y = 0; y < _stickers.length; y++) {\r\n            (\r\n                _stickers[y].name,\r\n                _stickers[y].material,\r\n                _stickers[y].slot,\r\n                _stickers[y].imageLink\r\n            ) = _contract.stickers(y);\r\n        }\r\n        result.stickers = _stickers;\r\n\r\n        result.weaponType = _contract.weaponType();\r\n\r\n        return result;\r\n    }\r\n\r\n    function getTradeDetailsByAddress(\r\n        address tradeAddrs\r\n    ) public view returns (TradeInfo memory result) {\r\n        uint256 i = contractAddressToIndex[tradeAddrs];\r\n        result = getTradeDetailsByIndex(i);\r\n    }\r\n\r\n    function getTradeIndexesByStatus(\r\n    TradeStatus status,\r\n    uint256 indexFrom,\r\n    uint256 maxResults\r\n    ) external view returns (TradeIndex[] memory) {\r\n        TradeIndex[] memory tradeIndexes = new TradeIndex[](maxResults);\r\n        uint256 resultIndex;\r\n        uint256 i = indexFrom;\r\n        while (resultIndex < maxResults && i < totalContracts) {\r\n            TradeInfo memory _trade = getTradeDetailsByIndex(i);\r\n\r\n            if (_trade.status == status) {\r\n                tradeIndexes[resultIndex].index = i;\r\n                tradeIndexes[resultIndex].weiPrice = _trade.weiPrice;\r\n                tradeIndexes[resultIndex].priceType = PriceType.ETHER;\r\n                tradeIndexes[resultIndex].weaponType = _trade.weaponType;\r\n                tradeIndexes[resultIndex].itemMarketName = _trade.itemMarketName;\r\n                tradeIndexes[resultIndex].nextIndex = i + 1;\r\n                ++resultIndex;\r\n            }\r\n\r\n            ++i;\r\n        }\r\n        return tradeIndexes;\r\n    }\r\n\r\n    function getTradeCountByStatus(\r\n        TradeStatus status\r\n    ) external view returns (uint256) {\r\n        uint256 count;\r\n        uint256 i = 0;\r\n        while (i < totalContracts) {\r\n            TradeInfo memory _trade = getTradeDetailsByIndex(i);\r\n            if (_trade.status == status) {\r\n                ++count;\r\n            }\r\n            ++i;\r\n        }\r\n        return count;\r\n    }\r\n}\r\n",
  "sourcePath": "C:\\Users\\Charl\\Documents\\Projects\\SteamMarket\\CSX\\csx-contracts\\contracts\\TradeFactory\\TradeFactory.sol",
  "compiler": {
    "name": "solc",
    "version": "0.8.19+commit.7dd6d404.Emscripten.clang"
  },
  "schemaVersion": "3.4.3",
  "updatedAt": "2023-03-21T11:51:24.663Z",
  "networkType": "ethereum",
  "devdoc": {
    "kind": "dev",
    "methods": {},
    "version": 1
  },
  "userdoc": {
    "kind": "user",
    "methods": {},
    "version": 1
  }
}