{
  "contractName": "SMTrade",
  "abi": [
    {
      "inputs": [
        {
          "internalType": "address",
          "name": "_factory",
          "type": "address"
        },
        {
          "internalType": "address",
          "name": "_keepers",
          "type": "address"
        },
        {
          "internalType": "address",
          "name": "_users",
          "type": "address"
        },
        {
          "internalType": "address",
          "name": "_seller",
          "type": "address"
        },
        {
          "internalType": "uint256",
          "name": "_weiPrice",
          "type": "uint256"
        },
        {
          "internalType": "string",
          "name": "_itemMarketName",
          "type": "string"
        },
        {
          "components": [
            {
              "internalType": "uint256",
              "name": "partner",
              "type": "uint256"
            },
            {
              "internalType": "string",
              "name": "token",
              "type": "string"
            }
          ],
          "internalType": "struct TradeUrl",
          "name": "_sellerTradeUrl",
          "type": "tuple"
        },
        {
          "internalType": "string",
          "name": "_sellerAssetId",
          "type": "string"
        },
        {
          "internalType": "string",
          "name": "_inspectLink",
          "type": "string"
        },
        {
          "internalType": "string",
          "name": "_itemImageUrl",
          "type": "string"
        },
        {
          "components": [
            {
              "internalType": "string",
              "name": "value",
              "type": "string"
            },
            {
              "internalType": "string",
              "name": "min",
              "type": "string"
            },
            {
              "internalType": "string",
              "name": "max",
              "type": "string"
            }
          ],
          "internalType": "struct FloatInfo",
          "name": "_float",
          "type": "tuple"
        }
      ],
      "stateMutability": "nonpayable",
      "type": "constructor"
    },
    {
      "inputs": [],
      "name": "buyer",
      "outputs": [
        {
          "internalType": "address payable",
          "name": "",
          "type": "address"
        }
      ],
      "stateMutability": "view",
      "type": "function"
    },
    {
      "inputs": [],
      "name": "buyerCommittedTimestamp",
      "outputs": [
        {
          "internalType": "uint256",
          "name": "",
          "type": "uint256"
        }
      ],
      "stateMutability": "view",
      "type": "function"
    },
    {
      "inputs": [],
      "name": "buyerDeposited",
      "outputs": [
        {
          "internalType": "uint256",
          "name": "",
          "type": "uint256"
        }
      ],
      "stateMutability": "view",
      "type": "function"
    },
    {
      "inputs": [],
      "name": "buyerTradeUrl",
      "outputs": [
        {
          "internalType": "uint256",
          "name": "partner",
          "type": "uint256"
        },
        {
          "internalType": "string",
          "name": "token",
          "type": "string"
        }
      ],
      "stateMutability": "view",
      "type": "function"
    },
    {
      "inputs": [],
      "name": "disputeComplaint",
      "outputs": [
        {
          "internalType": "string",
          "name": "",
          "type": "string"
        }
      ],
      "stateMutability": "view",
      "type": "function"
    },
    {
      "inputs": [],
      "name": "disputedStatus",
      "outputs": [
        {
          "internalType": "enum TradeStatus",
          "name": "",
          "type": "uint8"
        }
      ],
      "stateMutability": "view",
      "type": "function"
    },
    {
      "inputs": [],
      "name": "disputeer",
      "outputs": [
        {
          "internalType": "address",
          "name": "",
          "type": "address"
        }
      ],
      "stateMutability": "view",
      "type": "function"
    },
    {
      "inputs": [],
      "name": "factoryContract",
      "outputs": [
        {
          "internalType": "contract ITradeFactory",
          "name": "",
          "type": "address"
        }
      ],
      "stateMutability": "view",
      "type": "function"
    },
    {
      "inputs": [],
      "name": "float",
      "outputs": [
        {
          "internalType": "string",
          "name": "value",
          "type": "string"
        },
        {
          "internalType": "string",
          "name": "min",
          "type": "string"
        },
        {
          "internalType": "string",
          "name": "max",
          "type": "string"
        }
      ],
      "stateMutability": "view",
      "type": "function"
    },
    {
      "inputs": [],
      "name": "hasInit",
      "outputs": [
        {
          "internalType": "bool",
          "name": "",
          "type": "bool"
        }
      ],
      "stateMutability": "view",
      "type": "function"
    },
    {
      "inputs": [],
      "name": "inspectLink",
      "outputs": [
        {
          "internalType": "string",
          "name": "",
          "type": "string"
        }
      ],
      "stateMutability": "view",
      "type": "function"
    },
    {
      "inputs": [],
      "name": "itemImageUrl",
      "outputs": [
        {
          "internalType": "string",
          "name": "",
          "type": "string"
        }
      ],
      "stateMutability": "view",
      "type": "function"
    },
    {
      "inputs": [],
      "name": "itemMarketName",
      "outputs": [
        {
          "internalType": "string",
          "name": "",
          "type": "string"
        }
      ],
      "stateMutability": "view",
      "type": "function"
    },
    {
      "inputs": [],
      "name": "itemSellerAssetId",
      "outputs": [
        {
          "internalType": "string",
          "name": "",
          "type": "string"
        }
      ],
      "stateMutability": "view",
      "type": "function"
    },
    {
      "inputs": [],
      "name": "keepersContract",
      "outputs": [
        {
          "internalType": "contract IKeepers",
          "name": "",
          "type": "address"
        }
      ],
      "stateMutability": "view",
      "type": "function"
    },
    {
      "inputs": [],
      "name": "seller",
      "outputs": [
        {
          "internalType": "address payable",
          "name": "",
          "type": "address"
        }
      ],
      "stateMutability": "view",
      "type": "function"
    },
    {
      "inputs": [],
      "name": "sellerTradeUrl",
      "outputs": [
        {
          "internalType": "uint256",
          "name": "partner",
          "type": "uint256"
        },
        {
          "internalType": "string",
          "name": "token",
          "type": "string"
        }
      ],
      "stateMutability": "view",
      "type": "function"
    },
    {
      "inputs": [],
      "name": "status",
      "outputs": [
        {
          "internalType": "enum TradeStatus",
          "name": "",
          "type": "uint8"
        }
      ],
      "stateMutability": "view",
      "type": "function"
    },
    {
      "inputs": [
        {
          "internalType": "uint256",
          "name": "",
          "type": "uint256"
        }
      ],
      "name": "stickers",
      "outputs": [
        {
          "internalType": "string",
          "name": "name",
          "type": "string"
        },
        {
          "internalType": "string",
          "name": "material",
          "type": "string"
        },
        {
          "internalType": "uint8",
          "name": "slot",
          "type": "uint8"
        },
        {
          "internalType": "string",
          "name": "imageLink",
          "type": "string"
        }
      ],
      "stateMutability": "view",
      "type": "function"
    },
    {
      "inputs": [],
      "name": "usersContract",
      "outputs": [
        {
          "internalType": "contract IUsers",
          "name": "",
          "type": "address"
        }
      ],
      "stateMutability": "view",
      "type": "function"
    },
    {
      "inputs": [],
      "name": "weaponType",
      "outputs": [
        {
          "internalType": "string",
          "name": "",
          "type": "string"
        }
      ],
      "stateMutability": "view",
      "type": "function"
    },
    {
      "inputs": [],
      "name": "weiPrice",
      "outputs": [
        {
          "internalType": "uint256",
          "name": "",
          "type": "uint256"
        }
      ],
      "stateMutability": "view",
      "type": "function"
    },
    {
      "inputs": [
        {
          "components": [
            {
              "internalType": "string",
              "name": "name",
              "type": "string"
            },
            {
              "internalType": "string",
              "name": "material",
              "type": "string"
            },
            {
              "internalType": "uint8",
              "name": "slot",
              "type": "uint8"
            },
            {
              "internalType": "string",
              "name": "imageLink",
              "type": "string"
            }
          ],
          "internalType": "struct Sticker[]",
          "name": "_stickers",
          "type": "tuple[]"
        },
        {
          "internalType": "string",
          "name": "_weaponType",
          "type": "string"
        }
      ],
      "name": "initExtraInfo",
      "outputs": [],
      "stateMutability": "nonpayable",
      "type": "function"
    },
    {
      "inputs": [],
      "name": "stickerLength",
      "outputs": [
        {
          "internalType": "uint256",
          "name": "",
          "type": "uint256"
        }
      ],
      "stateMutability": "view",
      "type": "function"
    },
    {
      "inputs": [],
      "name": "sellerCancel",
      "outputs": [],
      "stateMutability": "nonpayable",
      "type": "function"
    },
    {
      "inputs": [
        {
          "components": [
            {
              "internalType": "uint256",
              "name": "partner",
              "type": "uint256"
            },
            {
              "internalType": "string",
              "name": "token",
              "type": "string"
            }
          ],
          "internalType": "struct TradeUrl",
          "name": "_buyerTradeUrl",
          "type": "tuple"
        }
      ],
      "name": "commitBuy",
      "outputs": [],
      "stateMutability": "payable",
      "type": "function"
    },
    {
      "inputs": [
        {
          "internalType": "bool",
          "name": "isTradeMade",
          "type": "bool"
        }
      ],
      "name": "keeperNodeConfirmsTrade",
      "outputs": [],
      "stateMutability": "nonpayable",
      "type": "function"
    },
    {
      "inputs": [],
      "name": "acceptTradeOffer",
      "outputs": [],
      "stateMutability": "nonpayable",
      "type": "function"
    },
    {
      "inputs": [],
      "name": "confirmReceived",
      "outputs": [],
      "stateMutability": "nonpayable",
      "type": "function"
    },
    {
      "inputs": [
        {
          "internalType": "string",
          "name": "_complaint",
          "type": "string"
        }
      ],
      "name": "openDispute",
      "outputs": [],
      "stateMutability": "nonpayable",
      "type": "function"
    },
    {
      "inputs": [
        {
          "internalType": "bool",
          "name": "isFavourOfBuyer",
          "type": "bool"
        },
        {
          "internalType": "bool",
          "name": "giveWarningToSeller",
          "type": "bool"
        },
        {
          "internalType": "bool",
          "name": "giveWarningToBuyer",
          "type": "bool"
        },
        {
          "internalType": "bool",
          "name": "isWithValue",
          "type": "bool"
        }
      ],
      "name": "resolveDispute",
      "outputs": [],
      "stateMutability": "nonpayable",
      "type": "function"
    }
  ],
  "bytecode": "0x60806040523480156200001157600080fd5b50604051620038a1380380620038a183398101604081905262000034916200037b565b60148054600160a060020a038d8116600160a060020a03199283161790925560128054601380548e8616908516179055600080548d8616941693909317909255600d8a9055918c166101000260ff1916600160a860020a03199091161790556002620000a187826200059f565b50845160049081556020860151869190600590620000c090826200059f565b5060039150620000d3905085826200059f565b506008620000e284826200059f565b506009620000f183826200059f565b508051600f906200010390826200059f565b5060208101516010906200011890826200059f565b5060408101516011906200012d90826200059f565b50505050505050505050505062000671565b8051600160a060020a03811681146200015757600080fd5b919050565b7f4e487b7100000000000000000000000000000000000000000000000000000000600052604160045260246000fd5b604051601f8201601f191681016001604060020a0381118282101715620001b657620001b66200015c565b604052919050565b600082601f830112620001d057600080fd5b81516001604060020a03811115620001ec57620001ec6200015c565b602062000202601f8301601f191682016200018b565b82815285828487010111156200021757600080fd5b60005b83811015620002375785810183015182820184015282016200021a565b506000928101909101919091529392505050565b6000604082840312156200025e57600080fd5b604051604081016001604060020a0382821081831117156200028457620002846200015c565b81604052829350845183526020850151915080821115620002a457600080fd5b50620002b385828601620001be565b6020830152505092915050565b600060608284031215620002d357600080fd5b604051606081016001604060020a038282108183111715620002f957620002f96200015c565b8160405282935084519150808211156200031257600080fd5b6200032086838701620001be565b835260208501519150808211156200033757600080fd5b6200034586838701620001be565b602084015260408501519150808211156200035f57600080fd5b506200036e85828601620001be565b6040830152505092915050565b60008060008060008060008060008060006101608c8e0312156200039e57600080fd5b620003a98c6200013f565b9a50620003b960208d016200013f565b9950620003c960408d016200013f565b9850620003d960608d016200013f565b975060808c0151965060a08c01516001604060020a03811115620003fc57600080fd5b6200040a8e828f01620001be565b96505060c08c01516001604060020a038111156200042757600080fd5b620004358e828f016200024b565b95505060e08c01516001604060020a038111156200045257600080fd5b620004608e828f01620001be565b9450506101008c01516001604060020a038111156200047e57600080fd5b6200048c8e828f01620001be565b9350506101208c01516001604060020a03811115620004aa57600080fd5b620004b88e828f01620001be565b9250506101408c01516001604060020a03811115620004d657600080fd5b620004e48e828f01620002c0565b9150509295989b509295989b9093969950565b6002810460018216806200050c57607f821691505b60208210810362000546577f4e487b7100000000000000000000000000000000000000000000000000000000600052602260045260246000fd5b50919050565b601f8211156200059a576000818152602081206020601f86010481016020861015620005755750805b6020601f860104820191505b81811015620005965782815560010162000581565b5050505b505050565b81516001604060020a03811115620005bb57620005bb6200015c565b620005d381620005cc8454620004f7565b846200054c565b602080601f8311600181146200060f5760008415620005f25750858301515b60028086026008870290910a600019041982161786555062000596565b600085815260208120601f198616915b8281101562000640578886015182559484019460019091019084016200061f565b50858210156200066157878501516008601f88160260020a60001904191681555b5050505050600202600101905550565b61322080620006816000396000f3fe60806040526004361061016b5760e060020a600035046302197c55811461017057806302d8ee9c1461019c57806308551a53146101be578063142ebf3c146101eb5780631e86221f1461020b578063200d2ed214610220578063343bf40e14610247578063356cd0dc146102785780633fcbe5da1461028d5780634181a66c146102af5780634e9448e9146102d3578063595210ad146102f357806360b7ee991461031357806368ccaa521461032857806370e066f61461034c57806370ec9d54146103615780637150d8ae1461038657806373fac6f0146103a65780637c148952146103bb57806385e14a48146103d15780638dada6d8146103eb5780638f965d8014610400578063b06bec3e14610430578063c2bd884b14610443578063d2ef033c14610468578063d55a17c014610488578063de11c94a1461049d578063e29b9e97146104bd578063e67d5523146104d3578063f4a84e0f146104e8578063fddd56c5146104fd575b600080fd5b34801561017c57600080fd5b50610185610512565b6040516101939291906127f9565b60405180910390f35b3480156101a857600080fd5b506101b16105a9565b604051610193919061281a565b3480156101ca57600080fd5b506000546101de90600160a060020a031681565b6040516101939190612834565b3480156101f757600080fd5b506013546101de90600160a060020a031681565b34801561021757600080fd5b506101b1610637565b34801561022c57600080fd5b5060125461023a9060ff1681565b6040516101939190612876565b34801561025357600080fd5b506016546102689060a860020a900460ff1681565b6040519015158152602001610193565b34801561028457600080fd5b506101b1610644565b34801561029957600080fd5b506102ad6102a8366004612965565b610651565b005b3480156102bb57600080fd5b506102c5600e5481565b604051908152602001610193565b3480156102df57600080fd5b506102ad6102ee366004612af6565b6107ff565b3480156102ff57600080fd5b506102ad61030e366004612b52565b610dd1565b34801561031f57600080fd5b506102ad61106a565b34801561033457600080fd5b5061033d61124e565b60405161019393929190612b86565b34801561035857600080fd5b506101b16113fc565b34801561036d57600080fd5b506016546101de906101009004600160a060020a031681565b34801561039257600080fd5b506001546101de90600160a060020a031681565b3480156103b257600080fd5b506102ad611409565b3480156103c757600080fd5b506102c5600c5481565b3480156103dd57600080fd5b5060165461023a9060ff1681565b3480156103f757600080fd5b506101b16117c2565b34801561040c57600080fd5b5061042061041b366004612bc9565b6117cf565b6040516101939493929190612be2565b6102ad61043e366004612c2f565b6119b0565b34801561044f57600080fd5b506012546101de906101009004600160a060020a031681565b34801561047457600080fd5b506102ad610483366004612cbb565b611cd3565b34801561049457600080fd5b506102ad6122fa565b3480156104a957600080fd5b506014546101de90600160a060020a031681565b3480156104c957600080fd5b506102c5600d5481565b3480156104df57600080fd5b506101b1612614565b3480156104f457600080fd5b50600a546102c5565b34801561050957600080fd5b50610185612621565b600480546005805491929161052690612cd8565b80601f016020809104026020016040519081016040528092919081815260200182805461055290612cd8565b801561059f5780601f106105745761010080835404028352916020019161059f565b820191906000526020600020905b81548152906001019060200180831161058257829003601f168201915b5050505050905082565b600380546105b690612cd8565b80601f01602080910402602001604051908101604052809291908181526020018280546105e290612cd8565b801561062f5780601f106106045761010080835404028352916020019161062f565b820191906000526020600020905b81548152906001019060200180831161061257829003601f168201915b505050505081565b600280546105b690612cd8565b601580546105b690612cd8565b601454600160a060020a031633148015610675575060165460a860020a900460ff16155b6106b75760405160e560020a62461bcd028152602060048201526008602482015260c060020a6721666163746f72790260448201526064015b60405180910390fd5b6016805460a860020a60ff02191660a860020a17905560005b825181101561077957600a8382815181106106ed576106ed612d16565b6020908102919091018101518254600181018455600093845291909220825160049092020190819061071f9082612d7e565b50602082015160018201906107349082612d7e565b50604082015160028201805460ff191660ff909216919091179055606082015160038201906107639082612d7e565b505050808061077190612e43565b9150506106d0565b506013546000805460405160e060020a63116fd649028152600160a060020a039384169363116fd649936107b99330936001939091169190600401612e6e565b600060405180830381600087803b1580156107d357600080fd5b505af11580156107e7573d6000803e3d6000fd5b5050505080600b90816107fa9190612d7e565b505050565b60125460405160e760020a63012875b1028152610100909104600160a060020a03169063943ad88090610836903390600401612834565b602060405180830381865afa158015610853573d6000803e3d6000fd5b505050506040513d601f19601f820116820180604052508101906108779190612eb4565b806108f8575060125460405160e060020a63fd6aad25028152610100909104600160a060020a03169063fd6aad25906108b4903390600401612834565b602060405180830381865afa1580156108d1573d6000803e3d6000fd5b505050506040513d601f19601f820116820180604052508101906108f59190612ed1565b15155b61093a5760405160e560020a62461bcd02815260206004820152600d6024820152609a60020a6c085ad95c1c881bdc881bdc98db0260448201526064016106ae565b600560125460ff16600781111561095357610953612848565b1461098e5760405160e560020a62461bcd028152602060048201526005602482015260dc60020a6402164697370260448201526064016106ae565b6014546000805460405160e160020a633188e1790281529192600160a060020a0390811692636311c2f2926109cb92600392911690600401612eea565b6020604051808303816000875af11580156109ea573d6000803e3d6000fd5b505050506040513d601f19601f82011682018060405250810190610a0e9190612eb4565b905080610a305760405160e560020a62461bcd0281526004016106ae90612f84565b8415610af257600760125460ff166007811115610a4f57610a4f612848565b50508115610aed57600154600c54604051600092600160a060020a031691908381818185875af1925050503d8060008114610aa6576040519150601f19603f3d011682016040523d82523d6000602084013e610aab565b606091505b5050905080610aeb5760405160e560020a62461bcd0281526004016106ae90602080825260049082015260e260020a63085cdb9d02604082015260600190565b505b610b99565b6012805460ff191660061790558115610b995760008054600c54604051600160a060020a03909216918381818185875af1925050503d8060008114610b53576040519150601f19603f3d011682016040523d82523d6000602084013e610b58565b606091505b5050905080610b975760405160e560020a62461bcd028152602060048201526005602482015260d960020a6410b9b73a190260448201526064016106ae565b505b8315610c095760135460005460405160e160020a6329ca0ea7028152600160a060020a03928316926353941d4e92610bd692911690600401612834565b600060405180830381600087803b158015610bf057600080fd5b505af1158015610c04573d6000803e3d6000fd5b505050505b8215610c795760135460015460405160e160020a6329ca0ea7028152600160a060020a03928316926353941d4e92610c4692911690600401612834565b600060405180830381600087803b158015610c6057600080fd5b505af1158015610c74573d6000803e3d6000fd5b505050505b60135460005460125460405160e060020a63fe4162d1028152600160a060020a039384169363fe4162d193610cbb933093919092169160ff1690600401612fa9565b600060405180830381600087803b158015610cd557600080fd5b505af1158015610ce9573d6000803e3d6000fd5b505060135460015460125460405160e060020a63fe4162d1028152600160a060020a03938416955063fe4162d19450610d2c933093169160ff1690600401612fa9565b600060405180830381600087803b158015610d4657600080fd5b505af1158015610d5a573d6000803e3d6000fd5b505060145460125460405160e160020a634cd955e3028152600160a060020a0390921693506399b2abc69250610d989160ff90911690600401612fce565b600060405180830381600087803b158015610db257600080fd5b505af1158015610dc6573d6000803e3d6000fd5b505050505050505050565b600054600154600160a060020a03918216911633821480610dfa575033600160a060020a038216145b610e355760405160e560020a62461bcd028152602060048201526006602482015260d460020a6502167726f7570260448201526064016106ae565b600560125460ff166007811115610e4e57610e4e612848565b14158015610e735750600660125460ff166007811115610e7057610e70612848565b14155b8015610e965750600760125460ff166007811115610e9357610e93612848565b14155b610ed55760405160e560020a62461bcd02815260206004820152600a602482015260b060020a69616c72656164794469730260448201526064016106ae565b60128054600560ff19918216811790925560168054600160a860020a03191633610100029092169190911790911790556015610f118482612d7e565b5060135460005460125460405160e060020a63fe4162d1028152600160a060020a039384169363fe4162d193610f54933093919092169160ff1690600401612fa9565b600060405180830381600087803b158015610f6e57600080fd5b505af1158015610f82573d6000803e3d6000fd5b505060135460015460125460405160e060020a63fe4162d1028152600160a060020a03938416955063fe4162d19450610fc5933093169160ff1690600401612fa9565b600060405180830381600087803b158015610fdf57600080fd5b505af1158015610ff3573d6000803e3d6000fd5b505060145460125460405160e160020a634cd955e3028152600160a060020a0390921693506399b2abc692506110339160ff909116908790600401612fef565b600060405180830381600087803b15801561104d57600080fd5b505af1158015611061573d6000803e3d6000fd5b50505050505050565b600054600160a060020a03163381146110985760405160e560020a62461bcd0281526004016106ae9061300f565b600260125460ff1660078111156110b1576110b1612848565b146110f25760405160e560020a62461bcd02815260206004820152600b602482015260a860020a6a74726473747321636f6d6d0260448201526064016106ae565b6012805460ff1916600390811790915560135460005460405160e060020a63fe4162d1028152600160a060020a039283169363fe4162d19361113c93309391169190600401612fa9565b600060405180830381600087803b15801561115657600080fd5b505af115801561116a573d6000803e3d6000fd5b505060135460015460125460405160e060020a63fe4162d1028152600160a060020a03938416955063fe4162d194506111ad933093169160ff1690600401612fa9565b600060405180830381600087803b1580156111c757600080fd5b505af11580156111db573d6000803e3d6000fd5b505060145460125460405160e160020a634cd955e3028152600160a060020a0390921693506399b2abc692506112199160ff90911690600401612fce565b600060405180830381600087803b15801561123357600080fd5b505af1158015611247573d6000803e3d6000fd5b5050505050565b600f8054819061125d90612cd8565b80601f016020809104026020016040519081016040528092919081815260200182805461128990612cd8565b80156112d65780601f106112ab576101008083540402835291602001916112d6565b820191906000526020600020905b8154815290600101906020018083116112b957829003601f168201915b5050505050908060010180546112eb90612cd8565b80601f016020809104026020016040519081016040528092919081815260200182805461131790612cd8565b80156113645780601f1061133957610100808354040283529160200191611364565b820191906000526020600020905b81548152906001019060200180831161134757829003601f168201915b50505050509080600201805461137990612cd8565b80601f01602080910402602001604051908101604052809291908181526020018280546113a590612cd8565b80156113f25780601f106113c7576101008083540402835291602001916113f2565b820191906000526020600020905b8154815290600101906020018083116113d557829003601f168201915b5050505050905083565b600880546105b690612cd8565b600154600160a060020a03163381146114375760405160e560020a62461bcd0281526004016106ae9061300f565b600260125460ff16600781111561145057611450612848565b14806114725750600360125460ff16600781111561147057611470612848565b145b6114b75760405160e560020a62461bcd0281526020600482015260106024820152608160020a6f3a393239ba3990b1b7b6b6be30b1ba170260448201526064016106ae565b6012805460ff1916600490811790915560135460005460405160e160020a6321f11cdd028152600160a060020a03928316936343e239ba936114fe93309391169101613032565b600060405180830381600087803b15801561151857600080fd5b505af115801561152c573d6000803e3d6000fd5b50506014546000805460405160e160020a633188e179028152919450600160a060020a039283169350636311c2f29261156e9260039290911690600401612eea565b6020604051808303816000875af115801561158d573d6000803e3d6000fd5b505050506040513d601f19601f820116820180604052508101906115b19190612eb4565b9050806115fe5760405160e560020a62461bcd0281526020600482015260156024820152605a60020a74191a591b89dd081c995b5bdd99481d1c98591952590260448201526064016106ae565b60008054600c54604051600160a060020a03909216918381818185875af1925050503d806000811461164c576040519150601f19603f3d011682016040523d82523d6000602084013e611651565b606091505b50509050806116a35760405160e560020a62461bcd0281526020600482015260186024820152604060020a774661696c7572652c206574686572206e6f742073656e74210260448201526064016106ae565b60135460005460125460405160e060020a63fe4162d1028152600160a060020a039384169363fe4162d1936116e5933093919092169160ff1690600401612fa9565b600060405180830381600087803b1580156116ff57600080fd5b505af1158015611713573d6000803e3d6000fd5b505060135460015460125460405160e060020a63fe4162d1028152600160a060020a03938416955063fe4162d19450611756933093169160ff1690600401612fa9565b600060405180830381600087803b15801561177057600080fd5b505af1158015611784573d6000803e3d6000fd5b505060145460125460405160e160020a634cd955e3028152600160a060020a0390921693506399b2abc692506110339160ff90911690600401612fce565b600b80546105b690612cd8565b600a81815481106117df57600080fd5b906000526020600020906004020160009150905080600001805461180290612cd8565b80601f016020809104026020016040519081016040528092919081815260200182805461182e90612cd8565b801561187b5780601f106118505761010080835404028352916020019161187b565b820191906000526020600020905b81548152906001019060200180831161185e57829003601f168201915b50505050509080600101805461189090612cd8565b80601f01602080910402602001604051908101604052809291908181526020018280546118bc90612cd8565b80156119095780601f106118de57610100808354040283529160200191611909565b820191906000526020600020905b8154815290600101906020018083116118ec57829003601f168201915b5050506002840154600385018054949560ff90921694919350915061192d90612cd8565b80601f016020809104026020016040519081016040528092919081815260200182805461195990612cd8565b80156119a65780601f1061197b576101008083540402835291602001916119a6565b820191906000526020600020905b81548152906001019060200180831161198957829003601f168201915b5050505050905084565b600060125460ff1660078111156119c9576119c9612848565b14611a0b5760405160e560020a62461bcd02815260206004820152600c602482015260a160020a6b3a39321039ba1010b832b7170260448201526064016106ae565b600d54341015611a4c5760405160e560020a62461bcd028152602060048201526006602482015260d060020a652176616c75650260448201526064016106ae565b600054600160a060020a03163303611a965760405160e560020a62461bcd028152602060048201526007602482015260c960020a6610b9b2b63632b90260448201526064016106ae565b6012805460ff1916600217905560135460005460405160e060020a637f1b5565028152600160a060020a0392831692637f1b556592611add92309290911690600401613032565b600060405180830381600087803b158015611af757600080fd5b505af1158015611b0b573d6000803e3d6000fd5b505060018054600160a060020a031916331790555050805160069081556020820151829190600790611b3d9082612d7e565b505034600c555042600e55600d54600090611b5790612635565b90506000611b69600460000154612635565b90506000611b7a8460000151612635565b602080860151604051929350600092611b9c92869260059287928a9101613079565b60408051601f198184030181529082905260135460005460125460e060020a63fe4162d1028552929450600160a060020a039182169363fe4162d193611bee933093169160ff90911690600401612fa9565b600060405180830381600087803b158015611c0857600080fd5b505af1158015611c1c573d6000803e3d6000fd5b505060135460015460125460405160e060020a63116fd649028152600160a060020a03938416955063116fd6499450611c6593309360009391169160ff90911690600401612e6e565b600060405180830381600087803b158015611c7f57600080fd5b505af1158015611c93573d6000803e3d6000fd5b505060145460125460405160e160020a634cd955e3028152600160a060020a0390921693506399b2abc69250610d989160ff909116908590600401612fef565b60125460405160e760020a63012875b1028152610100909104600160a060020a03169063943ad88090611d0a903390600401612834565b602060405180830381865afa158015611d27573d6000803e3d6000fd5b505050506040513d601f19601f82011682018060405250810190611d4b9190612eb4565b611d5457600080fd5b600260125460ff166007811115611d6d57611d6d612848565b1015611db05760405160e560020a62461bcd02815260206004820152600c602482015260a060020a6b747264737473213e636f6d6d0260448201526064016106ae565b600460125460ff166007811115611dc957611dc9612848565b10611e0a5760405160e560020a62461bcd02815260206004820152600b602482015260ac60020a6a07472647374733c636f6d70260448201526064016106ae565b8015612057576012805460ff1916600490811790915560135460005460405160e160020a6321f11cdd028152600160a060020a03928316936343e239ba93611e5793309391169101613032565b600060405180830381600087803b158015611e7157600080fd5b505af1158015611e85573d6000803e3d6000fd5b505060135460005460125460405160e060020a63fe4162d1028152600160a060020a03938416955063fe4162d19450611ec8933093169160ff1690600401612fa9565b600060405180830381600087803b158015611ee257600080fd5b505af1158015611ef6573d6000803e3d6000fd5b505060135460015460125460405160e060020a63fe4162d1028152600160a060020a03938416955063fe4162d19450611f39933093169160ff1690600401612fa9565b600060405180830381600087803b158015611f5357600080fd5b505af1158015611f67573d6000803e3d6000fd5b505060008054600c54604051929450600160a060020a039091169250908381818185875af1925050503d8060008114611fbc576040519150601f19603f3d011682016040523d82523d6000602084013e611fc1565b606091505b5050905080611fe55760405160e560020a62461bcd0281526004016106ae9061315a565b60145460125460405160e160020a634cd955e3028152600160a060020a03909216916399b2abc69161201f9160ff9091169060040161317e565b600060405180830381600087803b15801561203957600080fd5b505af115801561204d573d6000803e3d6000fd5b5050505050612254565b60128054600760ff198216811790925560135460005460405160e060020a63fe4162d102815260ff90931693600160a060020a039283169363fe4162d1936120a6933093911691600401612fa9565b600060405180830381600087803b1580156120c057600080fd5b505af11580156120d4573d6000803e3d6000fd5b50600292506120e1915050565b8160078111156120f3576120f3612848565b1061216d5760135460015460125460405160e060020a63fe4162d1028152600160a060020a039384169363fe4162d19361213a933093919092169160ff1690600401612fa9565b600060405180830381600087803b15801561215457600080fd5b505af1158015612168573d6000803e3d6000fd5b505050505b600154600c54604051600092600160a060020a031691908381818185875af1925050503d80600081146121bc576040519150601f19603f3d011682016040523d82523d6000602084013e6121c1565b606091505b50509050806121e55760405160e560020a62461bcd0281526004016106ae9061315a565b60145460125460405160e160020a634cd955e3028152600160a060020a03909216916399b2abc69161221f9160ff909116906004016131b3565b600060405180830381600087803b15801561223957600080fd5b505af115801561224d573d6000803e3d6000fd5b5050505050505b6014546000805460405160e160020a633188e1790281529192600160a060020a0390811692636311c2f29261229192600392911690600401612eea565b6020604051808303816000875af11580156122b0573d6000803e3d6000fd5b505050506040513d601f19601f820116820180604052508101906122d49190612eb4565b9050806122f65760405160e560020a62461bcd0281526004016106ae90612f84565b5050565b600054600160a060020a03163381146123285760405160e560020a62461bcd0281526004016106ae9061300f565b600260125460ff16600781111561234157612341612848565b111561237f5760405160e560020a62461bcd028152602060048201526007602482015260c960020a6639ba1010b832b70260448201526064016106ae565b6012805460ff1916600190811790915560135460005460405160e060020a63fe4162d1028152600160a060020a039283169363fe4162d1936123c993309391169190600401612fa9565b600060405180830381600087803b1580156123e357600080fd5b505af11580156123f7573d6000803e3d6000fd5b5060029250612404915050565b60125460ff16600781111561241b5761241b612848565b0361252c5760135460015460125460405160e060020a63fe4162d1028152600160a060020a039384169363fe4162d193612462933093919092169160ff1690600401612fa9565b600060405180830381600087803b15801561247c57600080fd5b505af1158015612490573d6000803e3d6000fd5b5050600154600c5460405160009450600160a060020a039092169250908381818185875af1925050503d80600081146124e5576040519150601f19603f3d011682016040523d82523d6000602084013e6124ea565b606091505b505090508061252a5760405160e560020a62461bcd0281526004016106ae90602080825260049082015260e360020a630428ae8d02604082015260600190565b505b60145460125460405160e160020a634cd955e3028152600160a060020a03909216916399b2abc6916125669160ff90911690600401612fce565b600060405180830381600087803b15801561258057600080fd5b505af1158015612594573d6000803e3d6000fd5b505060145460005460405160e160020a633188e179028152600160a060020a039283169450636311c2f293506125d1926003921690600401612eea565b6020604051808303816000875af11580156125f0573d6000803e3d6000fd5b505050506040513d601f19601f820116820180604052508101906122f69190612eb4565b600980546105b690612cd8565b600680546007805491929161052690612cd8565b60606000612642836126ca565b60010190506000816001604060020a0381111561266157612661612884565b6040519080825280601f01601f19166020018201604052801561268b576020820181803683370190505b5090508181016020015b60001901608160020a6f181899199a1a9b1b9c1cb0b131b232b302600a86061a8153600a850494508461269557509392505050565b600080604060020a72184f03e93ff9f4daa797ed6e38ed64bf6a1f0102831061270f57604060020a72184f03e93ff9f4daa797ed6e38ed64bf6a1f0102830492506040015b6d04ee2d6d415b85acef8100000000831061273b576d04ee2d6d415b85acef8100000000830492506020015b662386f26fc10000831061275957662386f26fc10000830492506010015b6305f5e1008310612771576305f5e100830492506008015b612710831061278557612710830492506004015b60648310612797576064830492506002015b600a83106127a3576001015b92915050565b60005b838110156127c45781810151838201526020016127ac565b50506000910152565b600081518084526127e58160208601602086016127a9565b601f01601f19169290920160200192915050565b82815260406020820152600061281260408301846127cd565b949350505050565b60208152600061282d60208301846127cd565b9392505050565b600160a060020a0391909116815260200190565b60e060020a634e487b710260009081526021600452602490fd5b6008811061287257612872612848565b9052565b602081016127a38284612862565b60e060020a634e487b710260009081526041600452602490fd5b604051608081016001604060020a03811182821017156128c0576128c0612884565b60405290565b604051601f8201601f191681016001604060020a03811182821017156128ee576128ee612884565b604052919050565b600082601f83011261290757600080fd5b81356001604060020a0381111561292057612920612884565b612933601f8201601f19166020016128c6565b81815284602083860101111561294857600080fd5b816020850160208301376000918101602001919091529392505050565b6000806040838503121561297857600080fd5b82356001604060020a038082111561298f57600080fd5b818501915085601f8301126129a357600080fd5b81356020828211156129b7576129b7612884565b8082026129c58282016128c6565b928352848101820192828101908a8511156129df57600080fd5b83870192505b84831015612ab7578235868111156129fd5760008081fd5b87016080818d03601f1901811315612a155760008081fd5b612a1d61289e565b8683013589811115612a2f5760008081fd5b612a3d8f89838701016128f6565b825250604083013589811115612a535760008081fd5b612a618f89838701016128f6565b888301525060608084013560ff81168114612a7c5760008081fd5b6040830152918301359189831115612a945760008081fd5b612aa28f89858701016128f6565b908201528452505091830191908301906129e5565b9750505086013592505080821115612ace57600080fd5b50612adb858286016128f6565b9150509250929050565b8015158114612af357600080fd5b50565b60008060008060808587031215612b0c57600080fd5b8435612b1781612ae5565b93506020850135612b2781612ae5565b92506040850135612b3781612ae5565b91506060850135612b4781612ae5565b939692955090935050565b600060208284031215612b6457600080fd5b81356001604060020a03811115612b7a57600080fd5b612812848285016128f6565b606081526000612b9960608301866127cd565b8281036020840152612bab81866127cd565b90508281036040840152612bbf81856127cd565b9695505050505050565b600060208284031215612bdb57600080fd5b5035919050565b608081526000612bf560808301876127cd565b8281036020840152612c0781876127cd565b905060ff851660408401528281036060840152612c2481856127cd565b979650505050505050565b600060208284031215612c4157600080fd5b81356001604060020a0380821115612c5857600080fd5b9083019060408286031215612c6c57600080fd5b604051604081018181108382111715612c8757612c87612884565b60405282358152602083013582811115612ca057600080fd5b612cac878286016128f6565b60208301525095945050505050565b600060208284031215612ccd57600080fd5b813561282d81612ae5565b600281046001821680612cec57607f821691505b602082108103612d105760e060020a634e487b710260009081526022600452602490fd5b50919050565b60e060020a634e487b710260009081526032600452602490fd5b601f8211156107fa576000818152602081206020601f86010481016020861015612d575750805b6020601f860104820191505b81811015612d7657828155600101612d63565b505050505050565b81516001604060020a03811115612d9757612d97612884565b612dab81612da58454612cd8565b84612d30565b602080601f831160018114612de45760008415612dc85750858301515b60028086026008870290910a6000190419821617865550612d76565b600085815260208120601f198616915b82811015612e1357888601518255948401946001909101908401612df4565b5085821015612e3357878501516008601f88160260020a60001904191681555b5050505050600202600101905550565b600060018201612e675760e060020a634e487b710260009081526011600452602490fd5b5060010190565b600160a060020a038581168252608082019060028610612e9057612e90612848565b6020830186905284166040830152612eab6060830184612862565b95945050505050565b600060208284031215612ec657600080fd5b815161282d81612ae5565b600060208284031215612ee357600080fd5b5051919050565b604081526000808454612efc81612cd8565b8060408601526060600180841660008114612f1e5760018114612f3857612f69565b60ff19851688840152602084151502880183019550612f69565b8960005260208060002060005b86811015612f605781548b8201870152908401908201612f45565b8a018501975050505b50505050600160a060020a038516602085015250905061282d565b602080825260089082015260c260020a67085d1c985919525902604082015260600190565b600160a060020a03848116825283166020820152606081016128126040830184612862565b612fd88183612862565b604060208201819052600090820152606001919050565b612ff98184612862565b60406020820152600061281260408301846127cd565b602080825260069082015260d060020a6521706172747902604082015260600190565b600160a060020a0392831681529116602082015260400190565b6000815161305e8185602086016127a9565b9290920192915050565b60f260020a611f1f02815260020190565b60008651602061308c8285838c016127a9565b818401915060f860020a602b0282526001600089546130aa81612cd8565b81841680156130c057600181146130d957613109565b60ff198316878601528115158202870185019350613109565b8c6000528560002060005b838110156130ff5781548982018801529086019087016130e4565b5050848288010193505b50505061314b61314561314061313a61312a61312486613068565b8e61304c565b60f860020a602b02815260010190565b8b61304c565b613068565b8861304c565b9b9a5050505050505050505050565b602080825260079082015260cb60020a66042e6dce88ae8d02604082015260600190565b6131888183612862565b60406020820181905260089082015260c060020a674b4f205452414445026060820152608001919050565b6131bd8183612862565b604060208201819052600a9082015260b260020a6912d3c81111519055531502606082015260800191905056fea26469706673582212206a4a45452c87a6255c1832da730412679ef2a67e5f76f8dc976f85c6b1db158764736f6c63430008130033",
  "immutableReferences": {},
  "source": "// //SPDX-License-Identifier: UNLICENSED\r\npragma solidity 0.8.19;\r\n\r\nimport \"../Keepers/IKeepers.sol\";\r\nimport \"../Users/IUsers.sol\";\r\nimport \"../TradeFactory/ITradeFactory.sol\";\r\n\r\ncontract SMTrade {\r\n\r\n    address payable public seller;\r\n    address payable public buyer;\r\n\r\n    string public itemMarketName;\r\n    string public itemSellerAssetId;\r\n\r\n    TradeUrl public sellerTradeUrl;\r\n    TradeUrl public buyerTradeUrl;\r\n\r\n    string public inspectLink;\r\n    string public itemImageUrl;\r\n    Sticker[] public stickers;\r\n\r\n    string public weaponType;\r\n\r\n    uint256 public buyerDeposited;\r\n    uint256 public weiPrice;\r\n    uint256 public buyerCommittedTimestamp;\r\n\r\n    FloatInfo public float;\r\n\r\n    TradeStatus public status;\r\n\r\n    IKeepers public keepersContract;\r\n    IUsers public usersContract;\r\n    ITradeFactory public factoryContract;\r\n\r\n    string public disputeComplaint;\r\n    TradeStatus public disputedStatus;\r\n    address public disputeer;\r\n\r\n    constructor(\r\n        address _factory,\r\n        address _keepers,\r\n        address _users,\r\n        address _seller,\r\n        uint256 _weiPrice,\r\n        string memory _itemMarketName,\r\n        TradeUrl memory _sellerTradeUrl,\r\n        string memory _sellerAssetId,\r\n        string memory _inspectLink,\r\n        string memory _itemImageUrl,\r\n        FloatInfo memory _float\r\n    ) {\r\n        factoryContract = ITradeFactory(_factory);\r\n        keepersContract = IKeepers(_keepers);\r\n        usersContract = IUsers(_users);\r\n        seller = payable(_seller);\r\n        weiPrice = _weiPrice;\r\n        status = TradeStatus.Pending;\r\n        itemMarketName = _itemMarketName;\r\n        sellerTradeUrl = _sellerTradeUrl;\r\n        itemSellerAssetId = _sellerAssetId;\r\n        inspectLink = _inspectLink;\r\n        itemImageUrl = _itemImageUrl;\r\n        float.value = _float.value;\r\n        float.min = _float.min;\r\n        float.max = _float.max;\r\n    }\r\n\r\n    bool public hasInit;\r\n    function initExtraInfo(Sticker[] memory _stickers, string memory _weaponType) external {\r\n        require(msg.sender == address(factoryContract) && !hasInit, '!factory');\r\n        hasInit = true;\r\n        for (uint256 i = 0; i < _stickers.length; i++) {\r\n            stickers.push(_stickers[i]);\r\n        }\r\n        usersContract.addUserInteractionStatus(address(this), Role.SELLER, seller, TradeStatus.Pending);\r\n        weaponType = _weaponType;\r\n    }\r\n\r\n    function stickerLength() external view returns (uint256) {\r\n        return stickers.length;\r\n    }\r\n\r\n    modifier onlyAddress(address _address) {\r\n        require(msg.sender == _address, \"!party\");\r\n        _;\r\n    }\r\n\r\n    modifier onlyTheseAddresses(address _add1, address _add2) {\r\n        require(msg.sender == _add1 || msg.sender == _add2, \"!group\");\r\n        _;\r\n    }\r\n\r\n    modifier onlyKeeperNode() {\r\n        require(keepersContract.isKeeperNode(msg.sender));\r\n        _;\r\n    }\r\n\r\n    modifier onlyKeepersOrNode() {\r\n        require(\r\n            keepersContract.isKeeperNode(msg.sender) ||\r\n                keepersContract.indexOf(msg.sender) != 0,\r\n            \"!kepr or orcl\"\r\n        );\r\n        _;\r\n    }\r\n\r\n    // Seller can cancel the listing before any buyer has committed ETH.\r\n    function sellerCancel() external onlyAddress(seller) {\r\n        require(status <= TradeStatus.Committed, \"st !pen\");\r\n        status = TradeStatus.SellerCancelled;\r\n        usersContract.changeUserInteractionStatus(address(this), seller, status);\r\n        if(status == TradeStatus.Committed) {\r\n            usersContract.changeUserInteractionStatus(address(this), buyer, status);\r\n            (bool sent, ) = buyer.call{value: buyerDeposited}(\"\");\r\n            require(sent, \"!Eth\");\r\n        }\r\n        factoryContract.onStatusChange(status, \"\");\r\n        factoryContract.removeAssetIdUsed(itemSellerAssetId, seller);\r\n    }\r\n\r\n    // Buyer commits ETH to buy if status-state allows & Sends trade-offer to sellers trade-link off-chain.\r\n    function commitBuy(TradeUrl memory _buyerTradeUrl) public payable {\r\n        require(status == TradeStatus.Pending, \"trd st !pen.\");\r\n        require(msg.value >= weiPrice, \"!value\");\r\n        require(msg.sender != seller, \"!seller\");\r\n        status = TradeStatus.Committed;\r\n        usersContract.startDeliveryTimer(address(this), seller);\r\n        buyer = payable(msg.sender);\r\n        buyerTradeUrl = _buyerTradeUrl;\r\n\r\n        buyerDeposited = msg.value;\r\n        buyerCommittedTimestamp = block.timestamp;\r\n\r\n        string memory weiPriceString = Strings.toString(weiPrice);\r\n    \r\n        string memory sellerPartnerString = Strings.toString(sellerTradeUrl.partner);\r\n        string memory buyerPartnerString = Strings.toString(_buyerTradeUrl.partner);\r\n        \r\n        string memory data = string(\r\n            abi.encodePacked(\r\n                sellerPartnerString,\r\n                \"+\",\r\n                sellerTradeUrl.token,\r\n                \"||\",\r\n                buyerPartnerString,\r\n                \"+\",\r\n                _buyerTradeUrl.token,\r\n                \"||\",\r\n                weiPriceString\r\n            )\r\n        );\r\n        usersContract.changeUserInteractionStatus(address(this), seller, status);\r\n        usersContract.addUserInteractionStatus(address(this), Role.BUYER, buyer, status);\r\n        factoryContract.onStatusChange(status, data);\r\n    }\r\n\r\n    // If automated Keeper-oracle can identify item has been successfully trade from seller to buyer, it will release here.\r\n    // function keeperNodeConfirmsTradeMade() external onlyKeeperNode {\r\n    //     require(\r\n    //         status >= TradeStatus.Committed,\r\n    //         \"trdsts!>comm\"\r\n    //     );\r\n    //     require(\r\n    //         status < TradeStatus.Completed,\r\n    //         \"trdsts<comp\"\r\n    //     );\r\n    //     status = TradeStatus.Completed;\r\n    //     usersContract.endDeliveryTimer(address(this), seller);\r\n    //     usersContract.changeUserInteractionStatus(address(this), seller, status);\r\n    //     usersContract.changeUserInteractionStatus(address(this), buyer, status);\r\n    //     bool success = factoryContract.removeAssetIdUsed(itemSellerAssetId, seller);\r\n    //     require(success, \"!tradeId\");\r\n    //     (bool sent, ) = seller.call{value: buyerDeposited}(\"\");\r\n    //     require(sent, \"!sntEth\");\r\n    //     factoryContract.onStatusChange(status, \"KEEPER-ORACLE CONFIRMED TRADE MADE\");\r\n    // }\r\n\r\n    // Keeper-oracle recognizes wrong-doing and defaults the trade.\r\n    // function keeperNodeConfirmsDefault() external onlyKeeperNode {\r\n    //     require(\r\n    //         status >= TradeStatus.Committed,\r\n    //         \"trdsts!>comm\"\r\n    //     );\r\n    //     require(\r\n    //         status < TradeStatus.Completed,\r\n    //         \"trdsts<comp\"\r\n    //     );\r\n    //     TradeStatus oldStatus = status;\r\n    //     status = TradeStatus.Clawbacked;\r\n    //     usersContract.changeUserInteractionStatus(address(this), seller, status);        \r\n    //     if(oldStatus >= TradeStatus.Committed){\r\n    //         usersContract.changeUserInteractionStatus(address(this), buyer, status);\r\n    //     }       \r\n    //     bool success = factoryContract.removeAssetIdUsed(itemSellerAssetId, seller);\r\n    //     require(success, \"!tradeId\");\r\n    //     (bool sent, ) = buyer.call{value: buyerDeposited}(\"\");\r\n    //     require(sent, \"!sntEth\");\r\n    //     factoryContract.onStatusChange(status, \"KEEPER-ORACLE CONFIRMED DEFAULT\");\r\n    // }\r\n\r\n    function keeperNodeConfirmsTrade(bool isTradeMade) external onlyKeeperNode {\r\n        require(\r\n            status >= TradeStatus.Committed,\r\n            \"trdsts!>comm\"\r\n        );\r\n        require(\r\n            status < TradeStatus.Completed,\r\n            \"trdsts<comp\"\r\n        );\r\n        \r\n        if (isTradeMade) {\r\n            status = TradeStatus.Completed;\r\n            usersContract.endDeliveryTimer(address(this), seller);\r\n            usersContract.changeUserInteractionStatus(address(this), seller, status);\r\n            usersContract.changeUserInteractionStatus(address(this), buyer, status);\r\n            (bool sS, ) = seller.call{value: buyerDeposited}(\"\");\r\n            require(sS, \"!sntEth\");\r\n            factoryContract.onStatusChange(status, \"KO TRADE\");\r\n        } else {\r\n            TradeStatus oldStatus = status;\r\n            status = TradeStatus.Clawbacked;\r\n            usersContract.changeUserInteractionStatus(address(this), seller, status);        \r\n            if(oldStatus >= TradeStatus.Committed){\r\n                usersContract.changeUserInteractionStatus(address(this), buyer, status);\r\n            }\r\n            (bool bS, ) = buyer.call{value: buyerDeposited}(\"\");\r\n            require(bS, \"!sntEth\");\r\n            factoryContract.onStatusChange(status, \"KO DEFAULT\");\r\n        }\r\n        \r\n        bool raS = factoryContract.removeAssetIdUsed(itemSellerAssetId, seller);\r\n        require(raS, \"!tradeId\");\r\n    }\r\n\r\n\r\n    // Seller Confirms they have accepted the trade offer.\r\n    function acceptTradeOffer() public onlyAddress(seller) {\r\n        require(status == TradeStatus.Committed, \"trdsts!comm\");\r\n        status = TradeStatus.Accepted;\r\n        usersContract.changeUserInteractionStatus(address(this), seller, status);\r\n        usersContract.changeUserInteractionStatus(address(this), buyer, status);   \r\n        factoryContract.onStatusChange(status, \"\");\r\n    }\r\n\r\n    // Buyer Confirms they have received the item.\r\n    function confirmReceived() public onlyAddress(buyer) {\r\n        require(\r\n            status == TradeStatus.Committed || status == TradeStatus.Accepted,\r\n            \"trdsts!comm|act.\"\r\n        );\r\n        status = TradeStatus.Completed;\r\n        usersContract.endDeliveryTimer(address(this), seller);\r\n        bool success = factoryContract.removeAssetIdUsed(itemSellerAssetId, seller);\r\n        require(success, \"didn't remove tradeId\");\r\n        (bool sent, ) = seller.call{value: buyerDeposited}(\"\");\r\n        require(sent, \"Failure, ether not sent!\");\r\n        usersContract.changeUserInteractionStatus(address(this), seller, status);\r\n        usersContract.changeUserInteractionStatus(address(this), buyer, status); \r\n        factoryContract.onStatusChange(status, \"\");\r\n    }\r\n\r\n    // Or Buyer/Seller opens dispute in any state.\r\n    function openDispute(string memory _complaint)\r\n        external\r\n        onlyTheseAddresses(seller, buyer)\r\n    {\r\n        require(\r\n            status != TradeStatus.Disputed &&\r\n                status != TradeStatus.Resolved &&\r\n                status != TradeStatus.Clawbacked,\r\n            \"alreadyDis\"\r\n        );\r\n        status = TradeStatus.Disputed;\r\n        disputeer = msg.sender;\r\n        disputedStatus = status;\r\n        disputeComplaint = _complaint;\r\n        usersContract.changeUserInteractionStatus(address(this), seller, status);\r\n        usersContract.changeUserInteractionStatus(address(this), buyer, status); \r\n        factoryContract.onStatusChange(status, _complaint);\r\n    }\r\n\r\n    function resolveDispute(\r\n        bool isFavourOfBuyer,\r\n        bool giveWarningToSeller,\r\n        bool giveWarningToBuyer,\r\n        bool isWithValue\r\n    ) external onlyKeepersOrNode {\r\n        require(status == TradeStatus.Disputed, \"!disp\");\r\n        bool success = factoryContract.removeAssetIdUsed(itemSellerAssetId, seller);\r\n        require(success, \"!tradeId\");\r\n        if (isFavourOfBuyer) {\r\n            status == TradeStatus.Clawbacked;\r\n            if (isWithValue) {\r\n                (bool sent, ) = buyer.call{value: buyerDeposited}(\"\");\r\n                require(sent, \"!snt\");\r\n            }\r\n        } else {\r\n            status = TradeStatus.Resolved;\r\n            if (isWithValue) {\r\n                (bool sent, ) = seller.call{value: buyerDeposited}(\"\");\r\n                require(sent, \"!snt2\");\r\n            }\r\n        }\r\n        if (giveWarningToSeller) {\r\n            usersContract.warnUser(seller);\r\n        }\r\n        if (giveWarningToBuyer) {\r\n            usersContract.warnUser(buyer);\r\n        }\r\n        usersContract.changeUserInteractionStatus(address(this), seller, status);\r\n        usersContract.changeUserInteractionStatus(address(this), buyer, status);\r\n        factoryContract.onStatusChange(status, \"\");\r\n    }\r\n}\r\n",
  "sourcePath": "C:\\Users\\Charl\\Documents\\Projects\\SteamMarket\\CSX\\csx-contracts\\contracts\\Trade\\Trade.sol",
  "compiler": {
    "name": "solc",
    "version": "0.8.19+commit.7dd6d404.Emscripten.clang"
  },
  "schemaVersion": "3.4.3",
  "updatedAt": "2023-03-21T11:51:07.732Z",
  "devdoc": {
    "kind": "dev",
    "methods": {},
    "version": 1
  },
  "userdoc": {
    "kind": "user",
    "methods": {},
    "version": 1
  }
}