{
  "contractName": "stakedCSX",
  "abi": [
    {
      "inputs": [
        {
          "internalType": "address",
          "name": "csxAddress",
          "type": "address"
        }
      ],
      "stateMutability": "nonpayable",
      "type": "constructor"
    },
    {
      "anonymous": false,
      "inputs": [
        {
          "indexed": true,
          "internalType": "address",
          "name": "owner",
          "type": "address"
        },
        {
          "indexed": true,
          "internalType": "address",
          "name": "spender",
          "type": "address"
        },
        {
          "indexed": false,
          "internalType": "uint256",
          "name": "value",
          "type": "uint256"
        }
      ],
      "name": "Approval",
      "type": "event"
    },
    {
      "anonymous": false,
      "inputs": [
        {
          "indexed": false,
          "internalType": "uint256",
          "name": "amount",
          "type": "uint256"
        },
        {
          "indexed": false,
          "internalType": "uint256",
          "name": "dividendPerToken",
          "type": "uint256"
        }
      ],
      "name": "FundsReceived",
      "type": "event"
    },
    {
      "anonymous": false,
      "inputs": [
        {
          "indexed": true,
          "internalType": "address",
          "name": "previousOwner",
          "type": "address"
        },
        {
          "indexed": true,
          "internalType": "address",
          "name": "newOwner",
          "type": "address"
        }
      ],
      "name": "OwnershipTransferred",
      "type": "event"
    },
    {
      "anonymous": false,
      "inputs": [
        {
          "indexed": true,
          "internalType": "address",
          "name": "from",
          "type": "address"
        },
        {
          "indexed": true,
          "internalType": "address",
          "name": "to",
          "type": "address"
        },
        {
          "indexed": false,
          "internalType": "uint256",
          "name": "value",
          "type": "uint256"
        }
      ],
      "name": "Transfer",
      "type": "event"
    },
    {
      "inputs": [],
      "name": "CSX",
      "outputs": [
        {
          "internalType": "contract IERC20",
          "name": "",
          "type": "address"
        }
      ],
      "stateMutability": "view",
      "type": "function"
    },
    {
      "inputs": [],
      "name": "MAX_SUPPLY",
      "outputs": [
        {
          "internalType": "uint256",
          "name": "",
          "type": "uint256"
        }
      ],
      "stateMutability": "view",
      "type": "function"
    },
    {
      "inputs": [
        {
          "internalType": "address",
          "name": "owner",
          "type": "address"
        },
        {
          "internalType": "address",
          "name": "spender",
          "type": "address"
        }
      ],
      "name": "allowance",
      "outputs": [
        {
          "internalType": "uint256",
          "name": "",
          "type": "uint256"
        }
      ],
      "stateMutability": "view",
      "type": "function"
    },
    {
      "inputs": [
        {
          "internalType": "address",
          "name": "spender",
          "type": "address"
        },
        {
          "internalType": "uint256",
          "name": "amount",
          "type": "uint256"
        }
      ],
      "name": "approve",
      "outputs": [
        {
          "internalType": "bool",
          "name": "",
          "type": "bool"
        }
      ],
      "stateMutability": "nonpayable",
      "type": "function"
    },
    {
      "inputs": [
        {
          "internalType": "address",
          "name": "account",
          "type": "address"
        }
      ],
      "name": "balanceOf",
      "outputs": [
        {
          "internalType": "uint256",
          "name": "",
          "type": "uint256"
        }
      ],
      "stateMutability": "view",
      "type": "function"
    },
    {
      "inputs": [],
      "name": "decimals",
      "outputs": [
        {
          "internalType": "uint8",
          "name": "",
          "type": "uint8"
        }
      ],
      "stateMutability": "view",
      "type": "function"
    },
    {
      "inputs": [
        {
          "internalType": "address",
          "name": "spender",
          "type": "address"
        },
        {
          "internalType": "uint256",
          "name": "subtractedValue",
          "type": "uint256"
        }
      ],
      "name": "decreaseAllowance",
      "outputs": [
        {
          "internalType": "bool",
          "name": "",
          "type": "bool"
        }
      ],
      "stateMutability": "nonpayable",
      "type": "function"
    },
    {
      "inputs": [
        {
          "internalType": "address",
          "name": "spender",
          "type": "address"
        },
        {
          "internalType": "uint256",
          "name": "addedValue",
          "type": "uint256"
        }
      ],
      "name": "increaseAllowance",
      "outputs": [
        {
          "internalType": "bool",
          "name": "",
          "type": "bool"
        }
      ],
      "stateMutability": "nonpayable",
      "type": "function"
    },
    {
      "inputs": [],
      "name": "locked",
      "outputs": [
        {
          "internalType": "bool",
          "name": "",
          "type": "bool"
        }
      ],
      "stateMutability": "view",
      "type": "function"
    },
    {
      "inputs": [],
      "name": "name",
      "outputs": [
        {
          "internalType": "string",
          "name": "",
          "type": "string"
        }
      ],
      "stateMutability": "view",
      "type": "function"
    },
    {
      "inputs": [],
      "name": "owner",
      "outputs": [
        {
          "internalType": "address",
          "name": "",
          "type": "address"
        }
      ],
      "stateMutability": "view",
      "type": "function"
    },
    {
      "inputs": [],
      "name": "renounceOwnership",
      "outputs": [],
      "stateMutability": "nonpayable",
      "type": "function"
    },
    {
      "inputs": [],
      "name": "symbol",
      "outputs": [
        {
          "internalType": "string",
          "name": "",
          "type": "string"
        }
      ],
      "stateMutability": "view",
      "type": "function"
    },
    {
      "inputs": [],
      "name": "totalSupply",
      "outputs": [
        {
          "internalType": "uint256",
          "name": "",
          "type": "uint256"
        }
      ],
      "stateMutability": "view",
      "type": "function"
    },
    {
      "inputs": [
        {
          "internalType": "address",
          "name": "to",
          "type": "address"
        },
        {
          "internalType": "uint256",
          "name": "amount",
          "type": "uint256"
        }
      ],
      "name": "transfer",
      "outputs": [
        {
          "internalType": "bool",
          "name": "",
          "type": "bool"
        }
      ],
      "stateMutability": "nonpayable",
      "type": "function"
    },
    {
      "inputs": [
        {
          "internalType": "address",
          "name": "from",
          "type": "address"
        },
        {
          "internalType": "address",
          "name": "to",
          "type": "address"
        },
        {
          "internalType": "uint256",
          "name": "amount",
          "type": "uint256"
        }
      ],
      "name": "transferFrom",
      "outputs": [
        {
          "internalType": "bool",
          "name": "",
          "type": "bool"
        }
      ],
      "stateMutability": "nonpayable",
      "type": "function"
    },
    {
      "inputs": [
        {
          "internalType": "address",
          "name": "newOwner",
          "type": "address"
        }
      ],
      "name": "transferOwnership",
      "outputs": [],
      "stateMutability": "nonpayable",
      "type": "function"
    },
    {
      "stateMutability": "payable",
      "type": "receive"
    },
    {
      "inputs": [
        {
          "internalType": "uint256",
          "name": "_amount",
          "type": "uint256"
        }
      ],
      "name": "stake",
      "outputs": [],
      "stateMutability": "nonpayable",
      "type": "function"
    },
    {
      "inputs": [
        {
          "internalType": "uint256",
          "name": "_amount",
          "type": "uint256"
        }
      ],
      "name": "unStake",
      "outputs": [],
      "stateMutability": "nonpayable",
      "type": "function"
    },
    {
      "inputs": [],
      "name": "toggleLock",
      "outputs": [],
      "stateMutability": "nonpayable",
      "type": "function"
    },
    {
      "inputs": [],
      "name": "claim",
      "outputs": [],
      "stateMutability": "nonpayable",
      "type": "function"
    },
    {
      "inputs": [
        {
          "internalType": "address",
          "name": "_account",
          "type": "address"
        }
      ],
      "name": "getClaimableAmount",
      "outputs": [
        {
          "internalType": "uint256",
          "name": "",
          "type": "uint256"
        }
      ],
      "stateMutability": "view",
      "type": "function"
    }
  ],
  "bytecode": "0x60806040523480156200001157600080fd5b506040516200197138038062001971833981016040819052620000349162000178565b6040518060400160405280600a81526020017f5374616b656420435358000000000000000000000000000000000000000000008152506040518060400160405280600481526020017f7343535800000000000000000000000000000000000000000000000000000000815250620000cc620000bd62000124640100000000026401000000009004565b64010000000062000128810204565b600180556005620000de838262000281565b506006620000ed828262000281565b5050600c805460ff191660011790555060078054600160a060020a03909216600160a060020a031990921691909117905562000354565b3390565b60008054600160a060020a03838116600160a060020a0319831681178455604051919092169283917f8be0079c531659141344cd1fd0a4f28419497f9722a3daafe3b4186f6b6457e09190a35050565b6000602082840312156200018b57600080fd5b8151600160a060020a0381168114620001a357600080fd5b9392505050565b7f4e487b7100000000000000000000000000000000000000000000000000000000600052604160045260246000fd5b600281046001821680620001ee57607f821691505b60208210810362000228577f4e487b7100000000000000000000000000000000000000000000000000000000600052602260045260246000fd5b50919050565b601f8211156200027c576000818152602081206020601f86010481016020861015620002575750805b6020601f860104820191505b81811015620002785782815560010162000263565b5050505b505050565b815167ffffffffffffffff8111156200029e576200029e620001aa565b620002b681620002af8454620001d9565b846200022e565b602080601f831160018114620002f25760008415620002d55750858301515b60028086026008870290910a600019041982161786555062000278565b600085815260208120601f198616915b82811015620003235788860151825594840194600190910190840162000302565b50858210156200034457878501516008601f88160260020a60001904191681555b5050505050600202600101905550565b61160d80620003646000396000f3fe60806040526004361061010c5760e060020a600035046306fdde0381146101df578063095ea7b31461020a57806318160ddd1461023a57806323b872dd14610259578063313ce5671461027957806332cb6b0c1461029557806339509351146102b45780634e71d92d146102d45780635d3eea91146102eb57806370a082311461030b578063715018a61461032b5780638da5cb5b14610340578063944698371461036d57806395d89b411461038d578063a457c2d7146103a2578063a694fc3a146103c2578063a9059cbb146103e2578063cf30901214610402578063dd62ed3e1461041c578063e12f3a611461043c578063f2fde38b1461045c578063ff9413d81461047c57600080fd5b366101da576004546000036101615760405160e560020a62461bcd0281526020600482015260106024820152608260020a6f139bc81d1bdad95b9cc81b5a5b9d19590260448201526064015b60405180910390fd5b60045461017b6c0c9f2c9cd04674edea4000000034611391565b61018591906113a8565b6008600082825461019691906113ce565b90915550506008546040805134815260208101929092527f063d07ee72a7483b8e07ca09054bb686775c5c030f945dde3823a5257a0a93eb910160405180910390a1005b600080fd5b3480156101eb57600080fd5b506101f4610491565b60405161020191906113e1565b60405180910390f35b34801561021657600080fd5b5061022a61022536600461144b565b610523565b6040519015158152602001610201565b34801561024657600080fd5b506004545b604051908152602001610201565b34801561026557600080fd5b5061022a610274366004611475565b61053d565b34801561028557600080fd5b5060405160128152602001610201565b3480156102a157600080fd5b5061024b6a52b7d2dcc80cd2e400000081565b3480156102c057600080fd5b5061022a6102cf36600461144b565b610561565b3480156102e057600080fd5b506102e9610583565b005b3480156102f757600080fd5b506102e96103063660046114b1565b61079f565b34801561031757600080fd5b5061024b6103263660046114ca565b6108b8565b34801561033757600080fd5b506102e96108d3565b34801561034c57600080fd5b506103556108e5565b604051600160a060020a039091168152602001610201565b34801561037957600080fd5b5060075461035590600160a060020a031681565b34801561039957600080fd5b506101f46108f4565b3480156103ae57600080fd5b5061022a6103bd36600461144b565b610903565b3480156103ce57600080fd5b506102e96103dd3660046114b1565b610984565b3480156103ee57600080fd5b5061022a6103fd36600461144b565b610aba565b34801561040e57600080fd5b50600c5461022a9060ff1681565b34801561042857600080fd5b5061024b6104373660046114e5565b610ac8565b34801561044857600080fd5b5061024b6104573660046114ca565b610af3565b34801561046857600080fd5b506102e96104773660046114ca565b610b66565b34801561048857600080fd5b506102e9610be2565b6060600580546104a090611518565b80601f01602080910402602001604051908101604052809291908181526020018280546104cc90611518565b80156105195780601f106104ee57610100808354040283529160200191610519565b820191906000526020600020905b8154815290600101906020018083116104fc57829003601f168201915b5050505050905090565b600033610531818585610bfe565b60019150505b92915050565b60003361054b858285610d2f565b610556858585610dac565b506001949350505050565b6000336105318185856105748383610ac8565b61057e91906113ce565b610bfe565b61058b610f62565b600c5460ff16156105e15760405160e560020a62461bcd02815260206004820152601c60248201527f636f6e74726163742069732063757272656e746c79206c6f636b6564000000006044820152606401610158565b60006105ec336108b8565b336000908152600a60205260409020549091508115158061060c57508015155b61067b5760405160e560020a62461bcd02815260206004820152603460248201527f44546f6b656e3a2063616c6c657220706f7373657373206e6f20746f6b656e736044820152606060020a73206f722063726564697465642062616c616e6365026064820152608401610158565b600082156106cf57336000908152600960205260409020805460085491829055906106cb906c0c9f2c9cd04674edea40000000906106c59087906106bf9086610fbe565b90610fca565b90610fd6565b9150505b81156106f257336000908152600a60205260408120556106ef8183610fe2565b90505b801561079157604051600090339083908381818185875af1925050503d806000811461073a576040519150601f19603f3d011682016040523d82523d6000602084013e61073f565b606091505b505090508061078f5760405160e560020a62461bcd0281526020600482015260166024820152605360020a75086deead8c840dcdee840eed2e8d0c8e4c2ee40cae8d026044820152606401610158565b505b50505061079d60018055565b565b6107a7610f62565b806107b1336108b8565b10156108025760405160e560020a62461bcd02815260206004820152601c60248201527f646f65736e74206861766520656e6f756768207374616b6564534d43000000006044820152606401610158565b61080b33610fee565b6108153382611097565b60075460405160e060020a63a9059cbb02815233600482015260248101839052600160a060020a039091169063a9059cbb906044016020604051808303816000875af1158015610869573d6000803e3d6000fd5b505050506040513d601f19601f8201168201806040525081019061088d9190611556565b6108ac5760405160e560020a62461bcd02815260040161015890611578565b6108b560018055565b50565b600160a060020a031660009081526002602052604090205490565b6108db6111ce565b61079d6000611230565b600054600160a060020a031690565b6060600680546104a090611518565b600033816109118286610ac8565b9050838110156109775760405160e560020a62461bcd02815260206004820152602560248201527f45524332303a2064656372656173656420616c6c6f77616e63652062656c6f77604482015260d860020a64207a65726f026064820152608401610158565b6105568286868403610bfe565b806a52b7d2dcc80cd2e400000061099a60045490565b6109a490836113ce565b11156109f55760405160e560020a62461bcd02815260206004820152601b60248201527f616d6f756e7420737572706173736573206d617820737570706c7900000000006044820152606401610158565b6109fd610f62565b60075460405160e060020a6323b872dd02815233600482015230602482015260448101849052600160a060020a03909116906323b872dd906064016020604051808303816000875af1158015610a57573d6000803e3d6000fd5b505050506040513d601f19601f82011682018060405250810190610a7b9190611556565b610a9a5760405160e560020a62461bcd02815260040161015890611578565b610aa333610fee565b610aad3383611280565b610ab660018055565b5050565b600033610531818585610dac565b600160a060020a03918216600090815260036020908152604080832093909416825291909152205490565b600080610b386c0c9f2c9cd04674edea400000006106c5610b13866108b8565b600160a060020a0387166000908152600960205260409020546008546106bf91610fbe565b600160a060020a0384166000908152600a6020526040902054909150610b5f908290610fe2565b9392505050565b610b6e6111ce565b600160a060020a038116610bd95760405160e560020a62461bcd02815260206004820152602660248201527f4f776e61626c653a206e6577206f776e657220697320746865207a65726f2061604482015260d060020a65646472657373026064820152608401610158565b6108b581611230565b610bea6111ce565b600c805460ff19811660ff90911615179055565b600160a060020a038316610c665760405160e560020a62461bcd028152602060048201526024808201527f45524332303a20617070726f76652066726f6d20746865207a65726f20616464604482015260e060020a6372657373026064820152608401610158565b600160a060020a038216610ccd5760405160e560020a62461bcd02815260206004820152602260248201527f45524332303a20617070726f766520746f20746865207a65726f206164647265604482015260f060020a617373026064820152608401610158565b600160a060020a0383811660008181526003602090815260408083209487168084529482529182902085905590518481527f8c5be1e5ebec7d5bd14f71427d1e84f3dd0314c0f7b2291e5b200ac8c7c3b92591015b60405180910390a3505050565b6000610d3b8484610ac8565b90506000198114610da65781811015610d995760405160e560020a62461bcd02815260206004820152601d60248201527f45524332303a20696e73756666696369656e7420616c6c6f77616e63650000006044820152606401610158565b610da68484848403610bfe565b50505050565b600160a060020a038316610e165760405160e560020a62461bcd02815260206004820152602560248201527f45524332303a207472616e736665722066726f6d20746865207a65726f206164604482015260d860020a646472657373026064820152608401610158565b600160a060020a038216610e7e5760405160e560020a62461bcd02815260206004820152602360248201527f45524332303a207472616e7366657220746f20746865207a65726f2061646472604482015260e860020a62657373026064820152608401610158565b610e8983838361133e565b600160a060020a03831660009081526002602052604090205481811015610f075760405160e560020a62461bcd02815260206004820152602660248201527f45524332303a207472616e7366657220616d6f756e7420657863656564732062604482015260d060020a65616c616e6365026064820152608401610158565b600160a060020a0380851660008181526002602052604080822086860390559286168082529083902080548601905591516000805160206115b883398151915290610f559086815260200190565b60405180910390a3610da6565b600260015403610fb75760405160e560020a62461bcd02815260206004820152601f60248201527f5265656e7472616e637947756172643a207265656e7472616e742063616c6c006044820152606401610158565b6002600155565b6000610b5f82846115a4565b6000610b5f8284611391565b6000610b5f82846113a8565b6000610b5f82846113ce565b6000610ff9826108b8565b905080156110775733600090815260096020526040812054600854611036916c0c9f2c9cd04674edea40000000916106c59186916106bf91610fbe565b600160a060020a0384166000908152600a602052604090205490915061105c9082610fe2565b600160a060020a0384166000908152600a6020526040902055505b50600854600160a060020a03909116600090815260096020526040902055565b600160a060020a0382166110fd5760405160e560020a62461bcd02815260206004820152602160248201527f45524332303a206275726e2066726f6d20746865207a65726f20616464726573604482015260f860020a6073026064820152608401610158565b6111098260008361133e565b600160a060020a038216600090815260026020526040902054818110156111835760405160e560020a62461bcd02815260206004820152602260248201527f45524332303a206275726e20616d6f756e7420657863656564732062616c616e604482015260f060020a616365026064820152608401610158565b600160a060020a03831660008181526002602090815260408083208686039055600480548790039055518581529192916000805160206115b88339815191529101610d22565b505050565b336111d76108e5565b600160a060020a03161461079d5760405160e560020a62461bcd02815260206004820181905260248201527f4f776e61626c653a2063616c6c6572206973206e6f7420746865206f776e65726044820152606401610158565b60008054600160a060020a03838116600160a060020a0319831681178455604051919092169283917f8be0079c531659141344cd1fd0a4f28419497f9722a3daafe3b4186f6b6457e09190a35050565b600160a060020a0382166112d95760405160e560020a62461bcd02815260206004820152601f60248201527f45524332303a206d696e7420746f20746865207a65726f2061646472657373006044820152606401610158565b6112e56000838361133e565b80600460008282546112f791906113ce565b9091555050600160a060020a0382166000818152600260209081526040808320805486019055518481526000805160206115b8833981519152910160405180910390a35050565b600160a060020a038316158061135b5750600160a060020a038216155b1561136557505050565b61136e82610fee565b6111c983610fee565b60e060020a634e487b710260009081526011600452602490fd5b808202811582820484141761053757610537611377565b6000826113c95760e060020a634e487b710260009081526012600452602490fd5b500490565b8082018082111561053757610537611377565b600060208083528351808285015260005b8181101561140e578581018301518582016040015282016113f2565b506000604082860101526040601f19601f8301168501019250505092915050565b8035600160a060020a038116811461144657600080fd5b919050565b6000806040838503121561145e57600080fd5b6114678361142f565b946020939093013593505050565b60008060006060848603121561148a57600080fd5b6114938461142f565b92506114a16020850161142f565b9150604084013590509250925092565b6000602082840312156114c357600080fd5b5035919050565b6000602082840312156114dc57600080fd5b610b5f8261142f565b600080604083850312156114f857600080fd5b6115018361142f565b915061150f6020840161142f565b90509250929050565b60028104600182168061152c57607f821691505b6020821081036115505760e060020a634e487b710260009081526022600452602490fd5b50919050565b60006020828403121561156857600080fd5b81518015158114610b5f57600080fd5b6020808252600f90820152608a60020a6e1d1c985b9cd9995c8819985a5b195902604082015260600190565b818103818111156105375761053761137756feddf252ad1be2c89b69c2b068fc378daa952ba7f163c4a11628f55a4df523b3efa264697066735822122007649a1cd9babf95fd1a11a9d2e48eced9bba19002cede8b63e34ca8b24d312b64736f6c63430008130033",
  "immutableReferences": {},
  "source": "//SPDX-License-Identifier: Unlicense\r\npragma solidity 0.8.19;\r\n\r\nimport {ERC20} from \"@openzeppelin/contracts/token/ERC20/ERC20.sol\";\r\nimport {IERC20} from \"@openzeppelin/contracts/interfaces/IERC20.sol\";\r\n\r\nimport {Ownable} from \"@openzeppelin/contracts/access/Ownable.sol\";\r\nimport {ReentrancyGuard} from \"@openzeppelin/contracts/security/ReentrancyGuard.sol\";\r\nimport \"@openzeppelin/contracts/utils/math/SafeMath.sol\";\r\n\r\ncontract stakedCSX is Ownable, ReentrancyGuard, ERC20 {\r\n    IERC20 public CSX;\r\n\r\n    using SafeMath for uint256;\r\n    uint256 public constant MAX_SUPPLY = 100000000 ether;\r\n    uint256 private constant PRECISION = 10**30; // in gwei\r\n\r\n    /// @notice Eth share of each token in gwei\r\n    uint256 dividendPerToken;\r\n    mapping(address => uint256) xDividendPerToken;\r\n    /// @notice Amount that should have been withdrawn\r\n    mapping(address => uint256) credit;\r\n\r\n    /// @notice State variable representing amount claimed by account in ETH\r\n    mapping(address => uint256) totalClaimed;\r\n\r\n    /// @notice If locked is true, users are not allowed to withdraw funds\r\n    bool public locked;\r\n\r\n    event FundsReceived(uint256 amount, uint256 dividendPerToken);\r\n\r\n    modifier mintable(uint256 amount) {\r\n        require(\r\n            amount + totalSupply() <= MAX_SUPPLY,\r\n            \"amount surpasses max supply\"\r\n        );\r\n        _;\r\n    }\r\n    modifier isUnlocked() {\r\n        require(!locked, \"contract is currently locked\");\r\n        _;\r\n    }\r\n\r\n    modifier onlyAddress(address _address) {\r\n        require(msg.sender == _address, \"Incorrect party.\");\r\n        _;\r\n    }\r\n\r\n    receive() external payable {\r\n        require(totalSupply() != 0, \"No tokens minted\");\r\n        dividendPerToken += (msg.value * PRECISION) / totalSupply();\r\n        // gwei Multiplier decreases impact of remainder though\r\n        emit FundsReceived(msg.value, dividendPerToken);\r\n    }\r\n\r\n    constructor(address csxAddress) ERC20('Staked CSX', 'sCSX')\r\n    {\r\n        locked = true;\r\n        CSX = IERC20(csxAddress);\r\n    }\r\n\r\n    function stake(uint256 _amount) mintable(_amount) nonReentrant external {\r\n        require(CSX.transferFrom(msg.sender, address(this), _amount), 'transfer failed');\r\n        _claimToCredit(msg.sender);\r\n        _mint(msg.sender, _amount);\r\n    }\r\n\r\n    function unStake(uint256 _amount) nonReentrant external {\r\n        require(balanceOf(msg.sender) >= _amount, 'doesnt have enough stakedSMC');\r\n        _claimToCredit(msg.sender);\r\n        _burn(msg.sender, _amount);\r\n        require(CSX.transfer(msg.sender, _amount), 'transfer failed');\r\n    }\r\n\r\n    function toggleLock() external onlyOwner {\r\n        locked = !locked;\r\n    }\r\n\r\n    /// @notice Withdraw Eth from contract onto the caller w.r.t balance of token held by caller\r\n    /// @dev Reentrancy Guard modifier in order to protect the transaction from reentrancy attack\r\n    function claim() external nonReentrant isUnlocked {\r\n        uint256 holderBalance = balanceOf(_msgSender());\r\n        uint256 creditBalance = credit[_msgSender()];\r\n        require(\r\n            holderBalance != 0 || creditBalance != 0,\r\n            \"DToken: caller possess no tokens or credited balance\"\r\n        );\r\n\r\n        uint256 amount;\r\n\r\n        if (holderBalance != 0) {\r\n            uint256 userDividendPerToken = xDividendPerToken[_msgSender()];\r\n            xDividendPerToken[_msgSender()] = dividendPerToken;\r\n            amount = dividendPerToken\r\n                .sub(userDividendPerToken)\r\n                .mul(holderBalance)\r\n                .div(PRECISION);\r\n        }\r\n\r\n        if (creditBalance != 0) {\r\n            credit[_msgSender()] = 0;\r\n            amount = amount.add(creditBalance);\r\n        }\r\n\r\n        if (amount != 0) {\r\n            (bool success, ) = payable(_msgSender()).call{value: amount}(\"\");\r\n            require(success, \"Could not withdraw eth\");\r\n        }\r\n    }\r\n\r\n    function getClaimableAmount(address _account) external view returns (uint256) {\r\n        uint256 amount = dividendPerToken\r\n            .sub(xDividendPerToken[_account])\r\n            .mul(balanceOf(_account))\r\n            .div(PRECISION);\r\n        amount = amount.add(credit[_account]);\r\n        return amount;\r\n    }\r\n\r\n    //=================================== INTERNAL ==============================================\r\n    function _beforeTokenTransfer(\r\n        address from,\r\n        address to,\r\n        uint256 amount\r\n    ) internal override {\r\n        if (from == address(0) || to == address(0)) return;\r\n        // receiver first withdraw funds to credit\r\n        _claimToCredit(to);\r\n        _claimToCredit(from);\r\n    }\r\n\r\n    //=================================== PRIVATE ==============================================\r\n\r\n    function _claimToCredit(address to_) private {\r\n        uint256 recipientBalance = balanceOf(to_);\r\n        if (recipientBalance != 0) {\r\n            //uint256 amount = ( (dividendPerToken - xDividendPerToken[to_]) * recipientBalance / MULTIPLIER);\r\n            uint256 amount = dividendPerToken\r\n                .sub(xDividendPerToken[_msgSender()])\r\n                .mul(recipientBalance)\r\n                .div(PRECISION);\r\n            //credit[to_] += amount;\r\n            credit[to_] = credit[to_].add(amount);\r\n        }\r\n        xDividendPerToken[to_] = dividendPerToken;\r\n    }\r\n}\r\n",
  "sourcePath": "C:\\Users\\Charl\\Documents\\Projects\\SteamMarket\\CSX\\csx-contracts\\contracts\\CSX\\stakedCSX.sol",
  "compiler": {
    "name": "solc",
    "version": "0.8.19+commit.7dd6d404.Emscripten.clang"
  },
  "schemaVersion": "3.4.3",
  "updatedAt": "2023-03-29T11:51:01.053Z",
  "devdoc": {
    "events": {
      "Approval(address,address,uint256)": {
        "details": "Emitted when the allowance of a `spender` for an `owner` is set by a call to {approve}. `value` is the new allowance."
      },
      "Transfer(address,address,uint256)": {
        "details": "Emitted when `value` tokens are moved from one account (`from`) to another (`to`). Note that `value` may be zero."
      }
    },
    "kind": "dev",
    "methods": {
      "allowance(address,address)": {
        "details": "See {IERC20-allowance}."
      },
      "approve(address,uint256)": {
        "details": "See {IERC20-approve}. NOTE: If `amount` is the maximum `uint256`, the allowance is not updated on `transferFrom`. This is semantically equivalent to an infinite approval. Requirements: - `spender` cannot be the zero address."
      },
      "balanceOf(address)": {
        "details": "See {IERC20-balanceOf}."
      },
      "claim()": {
        "details": "Reentrancy Guard modifier in order to protect the transaction from reentrancy attack"
      },
      "decimals()": {
        "details": "Returns the number of decimals used to get its user representation. For example, if `decimals` equals `2`, a balance of `505` tokens should be displayed to a user as `5.05` (`505 / 10 ** 2`). Tokens usually opt for a value of 18, imitating the relationship between Ether and Wei. This is the value {ERC20} uses, unless this function is overridden; NOTE: This information is only used for _display_ purposes: it in no way affects any of the arithmetic of the contract, including {IERC20-balanceOf} and {IERC20-transfer}."
      },
      "decreaseAllowance(address,uint256)": {
        "details": "Atomically decreases the allowance granted to `spender` by the caller. This is an alternative to {approve} that can be used as a mitigation for problems described in {IERC20-approve}. Emits an {Approval} event indicating the updated allowance. Requirements: - `spender` cannot be the zero address. - `spender` must have allowance for the caller of at least `subtractedValue`."
      },
      "increaseAllowance(address,uint256)": {
        "details": "Atomically increases the allowance granted to `spender` by the caller. This is an alternative to {approve} that can be used as a mitigation for problems described in {IERC20-approve}. Emits an {Approval} event indicating the updated allowance. Requirements: - `spender` cannot be the zero address."
      },
      "name()": {
        "details": "Returns the name of the token."
      },
      "owner()": {
        "details": "Returns the address of the current owner."
      },
      "renounceOwnership()": {
        "details": "Leaves the contract without owner. It will not be possible to call `onlyOwner` functions anymore. Can only be called by the current owner. NOTE: Renouncing ownership will leave the contract without an owner, thereby removing any functionality that is only available to the owner."
      },
      "symbol()": {
        "details": "Returns the symbol of the token, usually a shorter version of the name."
      },
      "totalSupply()": {
        "details": "See {IERC20-totalSupply}."
      },
      "transfer(address,uint256)": {
        "details": "See {IERC20-transfer}. Requirements: - `to` cannot be the zero address. - the caller must have a balance of at least `amount`."
      },
      "transferFrom(address,address,uint256)": {
        "details": "See {IERC20-transferFrom}. Emits an {Approval} event indicating the updated allowance. This is not required by the EIP. See the note at the beginning of {ERC20}. NOTE: Does not update the allowance if the current allowance is the maximum `uint256`. Requirements: - `from` and `to` cannot be the zero address. - `from` must have a balance of at least `amount`. - the caller must have allowance for ``from``'s tokens of at least `amount`."
      },
      "transferOwnership(address)": {
        "details": "Transfers ownership of the contract to a new account (`newOwner`). Can only be called by the current owner."
      }
    },
    "version": 1
  },
  "userdoc": {
    "kind": "user",
    "methods": {
      "claim()": {
        "notice": "Withdraw Eth from contract onto the caller w.r.t balance of token held by caller"
      },
      "locked()": {
        "notice": "If locked is true, users are not allowed to withdraw funds"
      }
    },
    "version": 1
  }
}