{
  "contractName": "StakedCSX",
  "abi": [
    {
      "inputs": [
        {
          "internalType": "address",
          "name": "_csxAddress",
          "type": "address"
        },
        {
          "internalType": "address",
          "name": "_weth",
          "type": "address"
        },
        {
          "internalType": "address",
          "name": "_usdc",
          "type": "address"
        },
        {
          "internalType": "address",
          "name": "_usdt",
          "type": "address"
        }
      ],
      "stateMutability": "nonpayable",
      "type": "constructor"
    },
    {
      "anonymous": false,
      "inputs": [
        {
          "indexed": true,
          "internalType": "address",
          "name": "owner",
          "type": "address"
        },
        {
          "indexed": true,
          "internalType": "address",
          "name": "spender",
          "type": "address"
        },
        {
          "indexed": false,
          "internalType": "uint256",
          "name": "value",
          "type": "uint256"
        }
      ],
      "name": "Approval",
      "type": "event"
    },
    {
      "anonymous": false,
      "inputs": [
        {
          "indexed": false,
          "internalType": "uint256",
          "name": "amount",
          "type": "uint256"
        },
        {
          "indexed": false,
          "internalType": "uint256",
          "name": "dividendPerToken",
          "type": "uint256"
        },
        {
          "indexed": false,
          "internalType": "address",
          "name": "token",
          "type": "address"
        }
      ],
      "name": "FundsClaimed",
      "type": "event"
    },
    {
      "anonymous": false,
      "inputs": [
        {
          "indexed": false,
          "internalType": "uint256",
          "name": "amount",
          "type": "uint256"
        },
        {
          "indexed": false,
          "internalType": "uint256",
          "name": "dividendPerToken",
          "type": "uint256"
        },
        {
          "indexed": false,
          "internalType": "address",
          "name": "token",
          "type": "address"
        }
      ],
      "name": "FundsReceived",
      "type": "event"
    },
    {
      "anonymous": false,
      "inputs": [
        {
          "indexed": true,
          "internalType": "address",
          "name": "from",
          "type": "address"
        },
        {
          "indexed": true,
          "internalType": "address",
          "name": "to",
          "type": "address"
        },
        {
          "indexed": false,
          "internalType": "uint256",
          "name": "value",
          "type": "uint256"
        }
      ],
      "name": "Transfer",
      "type": "event"
    },
    {
      "inputs": [],
      "name": "CSX",
      "outputs": [
        {
          "internalType": "contract IERC20",
          "name": "",
          "type": "address"
        }
      ],
      "stateMutability": "view",
      "type": "function"
    },
    {
      "inputs": [],
      "name": "MAX_SUPPLY",
      "outputs": [
        {
          "internalType": "uint256",
          "name": "",
          "type": "uint256"
        }
      ],
      "stateMutability": "view",
      "type": "function"
    },
    {
      "inputs": [],
      "name": "USDC",
      "outputs": [
        {
          "internalType": "contract IERC20",
          "name": "",
          "type": "address"
        }
      ],
      "stateMutability": "view",
      "type": "function"
    },
    {
      "inputs": [],
      "name": "USDT",
      "outputs": [
        {
          "internalType": "contract IERC20",
          "name": "",
          "type": "address"
        }
      ],
      "stateMutability": "view",
      "type": "function"
    },
    {
      "inputs": [],
      "name": "WETH",
      "outputs": [
        {
          "internalType": "contract IWETH",
          "name": "",
          "type": "address"
        }
      ],
      "stateMutability": "view",
      "type": "function"
    },
    {
      "inputs": [
        {
          "internalType": "address",
          "name": "owner",
          "type": "address"
        },
        {
          "internalType": "address",
          "name": "spender",
          "type": "address"
        }
      ],
      "name": "allowance",
      "outputs": [
        {
          "internalType": "uint256",
          "name": "",
          "type": "uint256"
        }
      ],
      "stateMutability": "view",
      "type": "function"
    },
    {
      "inputs": [
        {
          "internalType": "address",
          "name": "spender",
          "type": "address"
        },
        {
          "internalType": "uint256",
          "name": "amount",
          "type": "uint256"
        }
      ],
      "name": "approve",
      "outputs": [
        {
          "internalType": "bool",
          "name": "",
          "type": "bool"
        }
      ],
      "stateMutability": "nonpayable",
      "type": "function"
    },
    {
      "inputs": [
        {
          "internalType": "address",
          "name": "account",
          "type": "address"
        }
      ],
      "name": "balanceOf",
      "outputs": [
        {
          "internalType": "uint256",
          "name": "",
          "type": "uint256"
        }
      ],
      "stateMutability": "view",
      "type": "function"
    },
    {
      "inputs": [],
      "name": "decimals",
      "outputs": [
        {
          "internalType": "uint8",
          "name": "",
          "type": "uint8"
        }
      ],
      "stateMutability": "view",
      "type": "function"
    },
    {
      "inputs": [
        {
          "internalType": "address",
          "name": "spender",
          "type": "address"
        },
        {
          "internalType": "uint256",
          "name": "subtractedValue",
          "type": "uint256"
        }
      ],
      "name": "decreaseAllowance",
      "outputs": [
        {
          "internalType": "bool",
          "name": "",
          "type": "bool"
        }
      ],
      "stateMutability": "nonpayable",
      "type": "function"
    },
    {
      "inputs": [
        {
          "internalType": "address",
          "name": "spender",
          "type": "address"
        },
        {
          "internalType": "uint256",
          "name": "addedValue",
          "type": "uint256"
        }
      ],
      "name": "increaseAllowance",
      "outputs": [
        {
          "internalType": "bool",
          "name": "",
          "type": "bool"
        }
      ],
      "stateMutability": "nonpayable",
      "type": "function"
    },
    {
      "inputs": [],
      "name": "name",
      "outputs": [
        {
          "internalType": "string",
          "name": "",
          "type": "string"
        }
      ],
      "stateMutability": "view",
      "type": "function"
    },
    {
      "inputs": [],
      "name": "symbol",
      "outputs": [
        {
          "internalType": "string",
          "name": "",
          "type": "string"
        }
      ],
      "stateMutability": "view",
      "type": "function"
    },
    {
      "inputs": [],
      "name": "totalSupply",
      "outputs": [
        {
          "internalType": "uint256",
          "name": "",
          "type": "uint256"
        }
      ],
      "stateMutability": "view",
      "type": "function"
    },
    {
      "inputs": [
        {
          "internalType": "address",
          "name": "to",
          "type": "address"
        },
        {
          "internalType": "uint256",
          "name": "amount",
          "type": "uint256"
        }
      ],
      "name": "transfer",
      "outputs": [
        {
          "internalType": "bool",
          "name": "",
          "type": "bool"
        }
      ],
      "stateMutability": "nonpayable",
      "type": "function"
    },
    {
      "inputs": [
        {
          "internalType": "address",
          "name": "from",
          "type": "address"
        },
        {
          "internalType": "address",
          "name": "to",
          "type": "address"
        },
        {
          "internalType": "uint256",
          "name": "amount",
          "type": "uint256"
        }
      ],
      "name": "transferFrom",
      "outputs": [
        {
          "internalType": "bool",
          "name": "",
          "type": "bool"
        }
      ],
      "stateMutability": "nonpayable",
      "type": "function"
    },
    {
      "inputs": [
        {
          "internalType": "address",
          "name": "_account",
          "type": "address"
        }
      ],
      "name": "getClaimableAmount",
      "outputs": [
        {
          "internalType": "uint256",
          "name": "usdcAmount",
          "type": "uint256"
        },
        {
          "internalType": "uint256",
          "name": "usdtAmount",
          "type": "uint256"
        },
        {
          "internalType": "uint256",
          "name": "wethAmount",
          "type": "uint256"
        }
      ],
      "stateMutability": "view",
      "type": "function"
    },
    {
      "inputs": [
        {
          "internalType": "address",
          "name": "token",
          "type": "address"
        },
        {
          "internalType": "uint256",
          "name": "amount",
          "type": "uint256"
        }
      ],
      "name": "depositDividend",
      "outputs": [
        {
          "internalType": "bool",
          "name": "",
          "type": "bool"
        }
      ],
      "stateMutability": "nonpayable",
      "type": "function"
    },
    {
      "inputs": [
        {
          "internalType": "uint256",
          "name": "amount",
          "type": "uint256"
        }
      ],
      "name": "stake",
      "outputs": [],
      "stateMutability": "nonpayable",
      "type": "function"
    },
    {
      "inputs": [
        {
          "internalType": "uint256",
          "name": "amount",
          "type": "uint256"
        }
      ],
      "name": "unStake",
      "outputs": [],
      "stateMutability": "nonpayable",
      "type": "function"
    },
    {
      "inputs": [
        {
          "internalType": "bool",
          "name": "claimUsdc",
          "type": "bool"
        },
        {
          "internalType": "bool",
          "name": "claimUsdt",
          "type": "bool"
        },
        {
          "internalType": "bool",
          "name": "claimWeth",
          "type": "bool"
        },
        {
          "internalType": "bool",
          "name": "convertWethToEth",
          "type": "bool"
        }
      ],
      "name": "claim",
      "outputs": [],
      "stateMutability": "nonpayable",
      "type": "function"
    }
  ],
  "bytecode": "0x60806040523480156200001157600080fd5b50604051620020d3380380620020d383398101604081905262000034916200013c565b6040518060400160405280600a81526020017f5374616b656420435358000000000000000000000000000000000000000000008152506040518060400160405280600481526020017f734353580000000000000000000000000000000000000000000000000000000081525060016000819055508160049081620000b9919062000270565b506005620000c8828262000270565b505060068054600160a060020a03968716600160a060020a03199182161790915560078054958716958216959095179094555060088054928516928416929092179091556009805491909316911617905562000343565b8051600160a060020a03811681146200013757600080fd5b919050565b600080600080608085870312156200015357600080fd5b6200015e856200011f565b93506200016e602086016200011f565b92506200017e604086016200011f565b91506200018e606086016200011f565b905092959194509250565b7f4e487b7100000000000000000000000000000000000000000000000000000000600052604160045260246000fd5b600281046001821680620001dd57607f821691505b60208210810362000217577f4e487b7100000000000000000000000000000000000000000000000000000000600052602260045260246000fd5b50919050565b601f8211156200026b576000818152602081206020601f86010481016020861015620002465750805b6020601f860104820191505b81811015620002675782815560010162000252565b5050505b505050565b815167ffffffffffffffff8111156200028d576200028d62000199565b620002a5816200029e8454620001c8565b846200021d565b602080601f831160018114620002e15760008415620002c45750858301515b60028086026008870290910a600019041982161786555062000267565b600085815260208120601f198616915b828110156200031257888601518255948401946001909101908401620002f1565b50858210156200033357878501516008601f88160260020a60001904191681555b5050505050600202600101905550565b611d8080620003536000396000f3fe608060405234801561001057600080fd5b5060043610610164576000357c01000000000000000000000000000000000000000000000000000000009004806389a30271116100e5578063a9059cbb116100a9578063d61bf3f811610083578063d61bf3f8146102f9578063dd62ed3e1461030c578063e12f3a611461034557600080fd5b8063a9059cbb146102c0578063ad5c4648146102d3578063c54e44eb146102e657600080fd5b806389a3027114610254578063944698371461027f57806395d89b4114610292578063a457c2d71461029a578063a694fc3a146102ad57600080fd5b806332cb6b0c1161012c57806332cb6b0c146101de57806339509351146101f05780635d3eea91146102035780635f78d6bd1461021857806370a082311461022b57600080fd5b806306fdde0314610169578063095ea7b31461018757806318160ddd146101aa57806323b872dd146101bc578063313ce567146101cf575b600080fd5b610171610373565b60405161017e9190611a8b565b60405180910390f35b61019a610195366004611af5565b610405565b604051901515815260200161017e565b6003545b60405190815260200161017e565b61019a6101ca366004611b1f565b61041f565b6040516012815260200161017e565b6101ae6a52b7d2dcc80cd2e400000081565b61019a6101fe366004611af5565b610443565b610216610211366004611b5b565b610482565b005b61019a610226366004611af5565b610641565b6101ae610239366004611b74565b600160a060020a031660009081526001602052604090205490565b60085461026790600160a060020a031681565b604051600160a060020a03909116815260200161017e565b60065461026790600160a060020a031681565b6101716108c0565b61019a6102a8366004611af5565b6108cf565b6102166102bb366004611b5b565b61097c565b61019a6102ce366004611af5565b610b43565b60075461026790600160a060020a031681565b60095461026790600160a060020a031681565b610216610307366004611ba4565b610b51565b6101ae61031a366004611c00565b600160a060020a03918216600090815260026020908152604080832093909416825291909152205490565b610358610353366004611b74565b610bbf565b6040805193845260208401929092529082015260600161017e565b60606004805461038290611c33565b80601f01602080910402602001604051908101604052809291908181526020018280546103ae90611c33565b80156103fb5780601f106103d0576101008083540402835291602001916103fb565b820191906000526020600020905b8154815290600101906020018083116103de57829003601f168201915b5050505050905090565b600033610413818585610d28565b60019150505b92915050565b60003361042d858285610e87565b610438858585610f16565b506001949350505050565b336000818152600260209081526040808320600160a060020a0387168452909152812054909190610413908290869061047d908790611cb5565b610d28565b61048a61111e565b600081116104e25760405160e560020a62461bcd02815260206004820152601d60248201527f416d6f756e74206d7573742062652067726561746572207468616e203000000060448201526064015b60405180910390fd5b336000908152600160205260409020548111156105445760405160e560020a62461bcd02815260206004820152601460248201527f496e73756666696369656e742062616c616e636500000000000000000000000060448201526064016104d9565b61054d3361117a565b6105573382611480565b6006546040517fa9059cbb00000000000000000000000000000000000000000000000000000000815233600482015260248101839052600160a060020a039091169063a9059cbb906044016020604051808303816000875af11580156105c1573d6000803e3d6000fd5b505050506040513d601f19601f820116820180604052508101906105e59190611cc8565b6106345760405160e560020a62461bcd02815260206004820152601560248201527f546f6b656e207472616e73666572206661696c6564000000000000000000000060448201526064016104d9565b61063e6001600055565b50565b600061064c60035490565b60000361069e5760405160e560020a62461bcd02815260206004820152601060248201527f4e6f20746f6b656e73206d696e7465640000000000000000000000000000000060448201526064016104d9565b600754600160a060020a03848116911614806106c75750600854600160a060020a038481169116145b806106df5750600954600160a060020a038481169116145b61072e5760405160e560020a62461bcd02815260206004820152600d60248201527f496e76616c696420746f6b656e0000000000000000000000000000000000000060448201526064016104d9565b6040517f23b872dd00000000000000000000000000000000000000000000000000000000815233600482015230602482015260448101839052600160a060020a038416906323b872dd906064016020604051808303816000875af115801561079a573d6000803e3d6000fd5b505050506040513d601f19601f820116820180604052508101906107be9190611cc8565b61080d5760405160e560020a62461bcd02815260206004820152601560248201527f546f6b656e207472616e73666572206661696c6564000000000000000000000060448201526064016104d9565b6003546108286d314dc6448d9338c15b0a0000000084611ce5565b6108329190611cfc565b600160a060020a0384166000908152600a60205260408120805490919061085a908490611cb5565b9091555050600160a060020a0383166000818152600a60209081526040918290205482518681529182015280820192909252517f926217f01cca30e68783bf8e91c15c187eccd1e26e640482258c0a867f92ab469181900360600190a150600192915050565b60606005805461038290611c33565b336000818152600260209081526040808320600160a060020a03871684529091528120549091908381101561096f5760405160e560020a62461bcd02815260206004820152602560248201527f45524332303a2064656372656173656420616c6c6f77616e63652062656c6f7760448201527f207a65726f00000000000000000000000000000000000000000000000000000060648201526084016104d9565b6104388286868403610d28565b806a52b7d2dcc80cd2e400000061099260035490565b61099c9083611cb5565b11156109ed5760405160e560020a62461bcd02815260206004820152601b60248201527f616d6f756e7420737572706173736573206d617820737570706c79000000000060448201526064016104d9565b6109f561111e565b60008211610a485760405160e560020a62461bcd02815260206004820152601d60248201527f416d6f756e74206d7573742062652067726561746572207468616e203000000060448201526064016104d9565b6006546040517f23b872dd00000000000000000000000000000000000000000000000000000000815233600482015230602482015260448101849052600160a060020a03909116906323b872dd906064016020604051808303816000875af1158015610ab8573d6000803e3d6000fd5b505050506040513d601f19601f82011682018060405250810190610adc9190611cc8565b610b2b5760405160e560020a62461bcd02815260206004820152601560248201527f546f6b656e207472616e73666572206661696c6564000000000000000000000060448201526064016104d9565b610b3533836115fa565b610b3f6001600055565b5050565b600033610413818585610f16565b610b5961111e565b8115610b7557600754610b7590600160a060020a0316826116ca565b8315610b9257600854610b9290600160a060020a031660006116ca565b8215610baf57600954610baf90600160a060020a031660006116ca565b610bb96001600055565b50505050565b600080600080610be485600160a060020a031660009081526001602052604090205490565b600854600160a060020a039081166000818152600b60209081526040808320948b16835293815283822054928252600a905291909120549192506d314dc6448d9338c15b0a00000000918391610c3991611d37565b610c439190611ce5565b610c4d9190611cfc565b600954600160a060020a039081166000818152600b60209081526040808320948b16835293815283822054928252600a905291909120549195506d314dc6448d9338c15b0a00000000918391610ca291611d37565b610cac9190611ce5565b610cb69190611cfc565b600754600160a060020a039081166000818152600b60209081526040808320948b16835293815283822054928252600a905291909120549194506d314dc6448d9338c15b0a00000000918391610d0b91611d37565b610d159190611ce5565b610d1f9190611cfc565b93959294505050565b600160a060020a038316610da65760405160e560020a62461bcd028152602060048201526024808201527f45524332303a20617070726f76652066726f6d20746865207a65726f2061646460448201527f726573730000000000000000000000000000000000000000000000000000000060648201526084016104d9565b600160a060020a038216610e255760405160e560020a62461bcd02815260206004820152602260248201527f45524332303a20617070726f766520746f20746865207a65726f20616464726560448201527f737300000000000000000000000000000000000000000000000000000000000060648201526084016104d9565b600160a060020a0383811660008181526002602090815260408083209487168084529482529182902085905590518481527f8c5be1e5ebec7d5bd14f71427d1e84f3dd0314c0f7b2291e5b200ac8c7c3b92591015b60405180910390a3505050565b600160a060020a038381166000908152600260209081526040808320938616835292905220546000198114610bb95781811015610f095760405160e560020a62461bcd02815260206004820152601d60248201527f45524332303a20696e73756666696369656e7420616c6c6f77616e636500000060448201526064016104d9565b610bb98484848403610d28565b600160a060020a038316610f955760405160e560020a62461bcd02815260206004820152602560248201527f45524332303a207472616e736665722066726f6d20746865207a65726f20616460448201527f647265737300000000000000000000000000000000000000000000000000000060648201526084016104d9565b600160a060020a0382166110145760405160e560020a62461bcd02815260206004820152602360248201527f45524332303a207472616e7366657220746f20746865207a65726f206164647260448201527f657373000000000000000000000000000000000000000000000000000000000060648201526084016104d9565b61101f838383611a52565b600160a060020a038316600090815260016020526040902054818110156110b15760405160e560020a62461bcd02815260206004820152602660248201527f45524332303a207472616e7366657220616d6f756e742065786365656473206260448201527f616c616e6365000000000000000000000000000000000000000000000000000060648201526084016104d9565b600160a060020a0380851660008181526001602052604080822086860390559286168082529083902080548601905591517fddf252ad1be2c89b69c2b068fc378daa952ba7f163c4a11628f55a4df523b3ef906111119086815260200190565b60405180910390a3610bb9565b6002600054036111735760405160e560020a62461bcd02815260206004820152601f60248201527f5265656e7472616e637947756172643a207265656e7472616e742063616c6c0060448201526064016104d9565b6002600055565b600160a060020a038116600090815260016020526040902054801561140757600854600160a060020a039081166000818152600b60209081526040808320948716835293815283822054928252600a9052918220546d314dc6448d9338c15b0a000000009184916111eb9190611d37565b6111f59190611ce5565b6111ff9190611cfc565b600954600160a060020a039081166000818152600b60209081526040808320948916835293815283822054928252600a90529182205492935090916d314dc6448d9338c15b0a000000009185916112569190611d37565b6112609190611ce5565b61126a9190611cfc565b600754600160a060020a039081166000818152600b60209081526040808320948a16835293815283822054928252600a90529182205492935090916d314dc6448d9338c15b0a000000009186916112c19190611d37565b6112cb9190611ce5565b6112d59190611cfc565b9050821561133b57600854600160a060020a039081166000908152600c6020908152604080832093891683529290522054611311908490611cb5565b600854600160a060020a039081166000908152600c60209081526040808320938a16835292905220555b811561139f57600954600160a060020a039081166000908152600c6020908152604080832093891683529290522054611375908390611cb5565b600954600160a060020a039081166000908152600c60209081526040808320938a16835292905220555b801561140357600754600160a060020a039081166000908152600c60209081526040808320938916835292905220546113d9908290611cb5565b600754600160a060020a039081166000908152600c60209081526040808320938a16835292905220555b5050505b50600854600160a060020a039081166000908152600a6020818152604080842054600b808452828620978716808752978452828620919091556009548616855283835281852054818452828620888752845282862055600754909516845291815281832054938152818320948352939093529190912055565b600160a060020a0382166114ff5760405160e560020a62461bcd02815260206004820152602160248201527f45524332303a206275726e2066726f6d20746865207a65726f2061646472657360448201527f730000000000000000000000000000000000000000000000000000000000000060648201526084016104d9565b61150b82600083611a52565b600160a060020a0382166000908152600160205260409020548181101561159d5760405160e560020a62461bcd02815260206004820152602260248201527f45524332303a206275726e20616d6f756e7420657863656564732062616c616e60448201527f636500000000000000000000000000000000000000000000000000000000000060648201526084016104d9565b600160a060020a03831660008181526001602090815260408083208686039055600380548790039055518581529192917fddf252ad1be2c89b69c2b068fc378daa952ba7f163c4a11628f55a4df523b3ef9101610e7a565b505050565b600160a060020a0382166116535760405160e560020a62461bcd02815260206004820152601f60248201527f45524332303a206d696e7420746f20746865207a65726f20616464726573730060448201526064016104d9565b61165f60008383611a52565b80600360008282546116719190611cb5565b9091555050600160a060020a0382166000818152600160209081526040808320805486019055518481527fddf252ad1be2c89b69c2b068fc378daa952ba7f163c4a11628f55a4df523b3ef910160405180910390a35050565b33600081815260016020908152604080832054600160a060020a0387168452600c835281842094845293909152812054909190811561176d57600160a060020a0385166000818152600b6020908152604080832033845282528083208054948452600a90925290912054908190556d314dc6448d9338c15b0a00000000908490611755908490611d37565b61175f9190611ce5565b6117699190611cfc565b9350505b80156117a457600160a060020a0385166000908152600c602090815260408083203384529091528120556117a18184611cb5565b92505b8215611a4b57600754600160a060020a0386811691161480156117c45750835b156118e1576007546040517f2e1a7d4d00000000000000000000000000000000000000000000000000000000815260048101859052600160a060020a0390911690632e1a7d4d90602401600060405180830381600087803b15801561182857600080fd5b505af115801561183c573d6000803e3d6000fd5b50506040516000925033915085908381818185875af1925050503d8060008114611882576040519150601f19603f3d011682016040523d82523d6000602084013e611887565b606091505b50509050806118db5760405160e560020a62461bcd02815260206004820152601360248201527f455448207472616e73666572206661696c65640000000000000000000000000060448201526064016104d9565b506119ba565b6040517fa9059cbb00000000000000000000000000000000000000000000000000000000815233600482015260248101849052600160a060020a0386169063a9059cbb906044016020604051808303816000875af1158015611947573d6000803e3d6000fd5b505050506040513d601f19601f8201168201806040525081019061196b9190611cc8565b6119ba5760405160e560020a62461bcd02815260206004820152601560248201527f546f6b656e207472616e73666572206661696c6564000000000000000000000060448201526064016104d9565b600160a060020a0385166000908152600d60209081526040808320338452909152812080548592906119ed908490611cb5565b9091555050600160a060020a0385166000818152600a60209081526040918290205482518781529182015280820192909252517f52c68b36af8832ce2eab86015f8b765a1627b38d0f87b39e1875dcec7411e6fb9181900360600190a15b5050505050565b600160a060020a0383161580611a6f5750600160a060020a038216155b15611a7957505050565b611a828261117a565b6115f58361117a565b600060208083528351808285015260005b81811015611ab857858101830151858201604001528201611a9c565b506000604082860101526040601f19601f8301168501019250505092915050565b8035600160a060020a0381168114611af057600080fd5b919050565b60008060408385031215611b0857600080fd5b611b1183611ad9565b946020939093013593505050565b600080600060608486031215611b3457600080fd5b611b3d84611ad9565b9250611b4b60208501611ad9565b9150604084013590509250925092565b600060208284031215611b6d57600080fd5b5035919050565b600060208284031215611b8657600080fd5b611b8f82611ad9565b9392505050565b801515811461063e57600080fd5b60008060008060808587031215611bba57600080fd5b8435611bc581611b96565b93506020850135611bd581611b96565b92506040850135611be581611b96565b91506060850135611bf581611b96565b939692955090935050565b60008060408385031215611c1357600080fd5b611c1c83611ad9565b9150611c2a60208401611ad9565b90509250929050565b600281046001821680611c4757607f821691505b602082108103611c80577f4e487b7100000000000000000000000000000000000000000000000000000000600052602260045260246000fd5b50919050565b7f4e487b7100000000000000000000000000000000000000000000000000000000600052601160045260246000fd5b8082018082111561041957610419611c86565b600060208284031215611cda57600080fd5b8151611b8f81611b96565b808202811582820484141761041957610419611c86565b600082611d32577f4e487b7100000000000000000000000000000000000000000000000000000000600052601260045260246000fd5b500490565b8181038181111561041957610419611c8656fea26469706673582212204f6bf6fbf7be5120475aa73aa807bbf8a76277531009861932b9b6ac79ad60a264736f6c63430008130033",
  "immutableReferences": {},
  "source": "// SPDX-License-Identifier: MIT\r\n// CSX Staking Contract v2\r\n\r\npragma solidity 0.8.19;\r\n\r\nimport {IERC20, IWETH, ReentrancyGuard, ERC20} from \"./Interfaces.sol\";\r\n\r\ncontract StakedCSX is ReentrancyGuard, ERC20 {\r\n    IERC20 public CSX;\r\n    IWETH public WETH;\r\n    IERC20 public USDC;\r\n    IERC20 public USDT;\r\n\r\n    uint256 public constant MAX_SUPPLY = 100000000 ether;\r\n\r\n    /// @notice PRECISION is a constant used for calculations in the contract.\r\n    /// It is set to 10**33 to ensure accuracy in calculations.\r\n    /// This allows for up to 100 million tokens with:\r\n    /// - A maximum dividend per token of 10^26 ether (for 18 decimals, lowest fraction is gwei)\r\n    /// - A maximum dividend per token of 10^32 tokens (for 6 decimals, lowest fraction is Mwei / Lovelace / Picoether)\r\n    uint256 private constant PRECISION = 10 ** 33; // used for higher precision calculations\r\n\r\n    /// @notice Token (usdc,weth, usdt) share of each token in gwei.\r\n    // USDC, WETH, USDT => totalDividendPerToken\r\n    mapping(address => uint256) dividendPerToken;\r\n\r\n    /// @notice Token (usdc,weth, usdt) user's share of each token in gwei.\r\n    // USDC, WETH, USDT => user => xDividendPerToken\r\n    mapping(address => mapping(address => uint256)) xDividendPerToken;\r\n\r\n    /// @notice Amount that should have been withdrawn\r\n    // USDC, WETH, USDT => user => credit\r\n    mapping(address => mapping(address => uint256)) credit;\r\n\r\n    /// @notice State variable representing amount claimed by account in WETH, USDC, USDT\r\n    // USDC, WETH, USDT => user => totalClaimed\r\n    mapping(address => mapping(address => uint256)) totalClaimed;\r\n\r\n    event FundsReceived(\r\n        uint256 amount,\r\n        uint256 dividendPerToken,\r\n        address token\r\n    );\r\n\r\n    event FundsClaimed(uint256 amount, uint256 dividendPerToken, address token);\r\n\r\n    modifier mintable(uint256 amount) {\r\n        require(\r\n            amount + totalSupply() <= MAX_SUPPLY,\r\n            \"amount surpasses max supply\"\r\n        );\r\n        _;\r\n    }\r\n\r\n    constructor(\r\n        address _csxAddress,\r\n        address _weth,\r\n        address _usdc,\r\n        address _usdt\r\n    ) ERC20(\"Staked CSX\", \"sCSX\") {\r\n        CSX = IERC20(_csxAddress);\r\n        WETH = IWETH(_weth);\r\n        USDC = IERC20(_usdc);\r\n        USDT = IERC20(_usdt);\r\n    }\r\n\r\n    //=================================== EXTERNAL ==============================================\r\n\r\n    /// @notice Function to getClaimableAmount\r\n    /// @param _account address of the user\r\n    /// @return usdcAmount\r\n    /// @return usdtAmount\r\n    /// @return wethAmount\r\n    function getClaimableAmount(\r\n        address _account\r\n    ) external view returns (uint256 usdcAmount, uint256 usdtAmount, uint256 wethAmount) {\r\n        uint256 recipientBalance = balanceOf(_account);\r\n        usdcAmount = (((dividendPerToken[address(USDC)] -\r\n            xDividendPerToken[address(USDC)][_account]) * recipientBalance) /\r\n            PRECISION);\r\n        usdtAmount = (((dividendPerToken[address(USDT)] -\r\n            xDividendPerToken[address(USDT)][_account]) * recipientBalance) /\r\n            PRECISION);\r\n        wethAmount = (((dividendPerToken[address(WETH)] -\r\n            xDividendPerToken[address(WETH)][_account]) * recipientBalance) /\r\n            PRECISION);\r\n    }\r\n\r\n    /// @notice Function to reward stakers.\r\n    function depositDividend(address token, uint256 amount) external returns (bool) {\r\n        require(totalSupply() != 0, \"No tokens minted\");\r\n        require(\r\n            token == address(WETH) ||\r\n                token == address(USDC) ||\r\n                token == address(USDT),\r\n            \"Invalid token\"\r\n        );\r\n        require(\r\n            IERC20(token).transferFrom(msg.sender, address(this), amount),\r\n            \"Token transfer failed\"\r\n        );\r\n        dividendPerToken[token] += (amount * PRECISION) / totalSupply();\r\n\r\n        emit FundsReceived(amount, dividendPerToken[token], token);\r\n\r\n        return true;\r\n    }\r\n\r\n    function stake(uint256 amount) external mintable(amount) nonReentrant {\r\n        require(amount > 0, \"Amount must be greater than 0\");\r\n        require(\r\n            CSX.transferFrom(msg.sender, address(this), amount),\r\n            \"Token transfer failed\"\r\n        );\r\n        _mint(msg.sender, amount);\r\n    }\r\n\r\n    function unStake(uint256 amount) external nonReentrant {\r\n        require(amount > 0, \"Amount must be greater than 0\");\r\n        require(balanceOf(msg.sender) >= amount, \"Insufficient balance\");\r\n        _claimToCredit(msg.sender);\r\n        _burn(msg.sender, amount);\r\n        require(CSX.transfer(msg.sender, amount), \"Token transfer failed\");\r\n    }\r\n\r\n    function claim(\r\n        bool claimUsdc,\r\n        bool claimUsdt,\r\n        bool claimWeth,\r\n        bool convertWethToEth\r\n    ) external nonReentrant {\r\n        if (claimWeth) {\r\n            _claim(address(WETH), convertWethToEth);\r\n        }\r\n        if (claimUsdc) {\r\n            _claim(address(USDC), false);\r\n        }\r\n        if (claimUsdt) {\r\n            _claim(address(USDT), false);\r\n        }\r\n    }\r\n\r\n    //=================================== INTERNAL ==============================================\r\n    function _beforeTokenTransfer(\r\n        address from,\r\n        address to,\r\n        uint256 amount\r\n    ) internal override {\r\n        super._beforeTokenTransfer(from, to, amount);\r\n        if (from == address(0) || to == address(0)) return;\r\n        // receiver first withdraw funds to credit\r\n        _claimToCredit(to);\r\n        _claimToCredit(from);\r\n    }\r\n\r\n    //=================================== PRIVATE ==============================================\r\n\r\n    function _claimToCredit(address to_) private {\r\n        uint256 recipientBalance = balanceOf(to_);\r\n        if (recipientBalance != 0) {\r\n            uint256 usdcAmount = (((dividendPerToken[address(USDC)] -\r\n                xDividendPerToken[address(USDC)][to_]) * recipientBalance) /\r\n                PRECISION);\r\n            uint256 usdtAmount = (((dividendPerToken[address(USDT)] -\r\n                xDividendPerToken[address(USDT)][to_]) * recipientBalance) /\r\n                PRECISION);\r\n            uint256 wethAmount = (((dividendPerToken[address(WETH)] -\r\n                xDividendPerToken[address(WETH)][to_]) * recipientBalance) /\r\n                PRECISION);\r\n\r\n            if (usdcAmount != 0) {\r\n                credit[address(USDC)][to_] =\r\n                    credit[address(USDC)][to_] +\r\n                    usdcAmount;\r\n            }\r\n\r\n            if (usdtAmount != 0) {\r\n                credit[address(USDT)][to_] =\r\n                    credit[address(USDT)][to_] +\r\n                    usdtAmount;\r\n            }\r\n\r\n            if (wethAmount != 0) {\r\n                credit[address(WETH)][to_] =\r\n                    credit[address(WETH)][to_] +\r\n                    wethAmount;\r\n            }\r\n        }\r\n        xDividendPerToken[address(USDC)][to_] = dividendPerToken[address(USDC)];\r\n        xDividendPerToken[address(USDT)][to_] = dividendPerToken[address(USDT)];\r\n        xDividendPerToken[address(WETH)][to_] = dividendPerToken[address(WETH)];\r\n    }\r\n\r\n    function _claim(address token, bool convertWethToEth) private {\r\n        uint256 amount;\r\n        uint256 csxBalance = balanceOf(msg.sender);\r\n        uint256 creditBalance = credit[token][msg.sender];\r\n\r\n        if (csxBalance != 0) {\r\n            uint256 userDividendPerToken = xDividendPerToken[token][msg.sender];\r\n\r\n            xDividendPerToken[token][msg.sender] = dividendPerToken[token];\r\n\r\n            amount = (((dividendPerToken[token] - userDividendPerToken) *\r\n                csxBalance) / PRECISION);\r\n        }\r\n\r\n        if (creditBalance != 0) {\r\n            credit[token][msg.sender] = 0;\r\n            amount += creditBalance;\r\n        }\r\n\r\n        if (amount != 0) {\r\n            if (token == address(WETH) && convertWethToEth) {\r\n                // Convert WETH to ETH and send to user\r\n                WETH.withdraw(amount);\r\n                // Check if the transfer is successful\r\n                (bool success, ) = msg.sender.call{value: amount}(\"\");\r\n                require(success, \"ETH transfer failed\");\r\n            } else {\r\n                require(\r\n                    IERC20(token).transfer(msg.sender, amount),\r\n                    \"Token transfer failed\"\r\n                );\r\n            }\r\n            totalClaimed[token][msg.sender] += amount;\r\n            emit FundsClaimed(amount, dividendPerToken[token], token);\r\n        }\r\n    }\r\n}\r\n",
  "sourcePath": "C:\\Users\\Charl\\Documents\\Projects\\SteamMarket\\CSX\\csx-contracts\\contracts\\CSX\\StakedCSX.sol",
  "compiler": {
    "name": "solc",
    "version": "0.8.19+commit.7dd6d404.Emscripten.clang"
  },
  "schemaVersion": "3.4.3",
  "updatedAt": "2023-05-26T09:22:03.141Z",
  "devdoc": {
    "events": {
      "Approval(address,address,uint256)": {
        "details": "Emitted when the allowance of a `spender` for an `owner` is set by a call to {approve}. `value` is the new allowance."
      },
      "Transfer(address,address,uint256)": {
        "details": "Emitted when `value` tokens are moved from one account (`from`) to another (`to`). Note that `value` may be zero."
      }
    },
    "kind": "dev",
    "methods": {
      "allowance(address,address)": {
        "details": "See {IERC20-allowance}."
      },
      "approve(address,uint256)": {
        "details": "See {IERC20-approve}. NOTE: If `amount` is the maximum `uint256`, the allowance is not updated on `transferFrom`. This is semantically equivalent to an infinite approval. Requirements: - `spender` cannot be the zero address."
      },
      "balanceOf(address)": {
        "details": "See {IERC20-balanceOf}."
      },
      "decimals()": {
        "details": "Returns the number of decimals used to get its user representation. For example, if `decimals` equals `2`, a balance of `505` tokens should be displayed to a user as `5.05` (`505 / 10 ** 2`). Tokens usually opt for a value of 18, imitating the relationship between Ether and Wei. This is the value {ERC20} uses, unless this function is overridden; NOTE: This information is only used for _display_ purposes: it in no way affects any of the arithmetic of the contract, including {IERC20-balanceOf} and {IERC20-transfer}."
      },
      "decreaseAllowance(address,uint256)": {
        "details": "Atomically decreases the allowance granted to `spender` by the caller. This is an alternative to {approve} that can be used as a mitigation for problems described in {IERC20-approve}. Emits an {Approval} event indicating the updated allowance. Requirements: - `spender` cannot be the zero address. - `spender` must have allowance for the caller of at least `subtractedValue`."
      },
      "getClaimableAmount(address)": {
        "params": {
          "_account": "address of the user"
        },
        "returns": {
          "usdcAmount": "usdcAmount",
          "usdtAmount": "usdtAmount",
          "wethAmount": "wethAmount"
        }
      },
      "increaseAllowance(address,uint256)": {
        "details": "Atomically increases the allowance granted to `spender` by the caller. This is an alternative to {approve} that can be used as a mitigation for problems described in {IERC20-approve}. Emits an {Approval} event indicating the updated allowance. Requirements: - `spender` cannot be the zero address."
      },
      "name()": {
        "details": "Returns the name of the token."
      },
      "symbol()": {
        "details": "Returns the symbol of the token, usually a shorter version of the name."
      },
      "totalSupply()": {
        "details": "See {IERC20-totalSupply}."
      },
      "transfer(address,uint256)": {
        "details": "See {IERC20-transfer}. Requirements: - `to` cannot be the zero address. - the caller must have a balance of at least `amount`."
      },
      "transferFrom(address,address,uint256)": {
        "details": "See {IERC20-transferFrom}. Emits an {Approval} event indicating the updated allowance. This is not required by the EIP. See the note at the beginning of {ERC20}. NOTE: Does not update the allowance if the current allowance is the maximum `uint256`. Requirements: - `from` and `to` cannot be the zero address. - `from` must have a balance of at least `amount`. - the caller must have allowance for ``from``'s tokens of at least `amount`."
      }
    },
    "version": 1
  },
  "userdoc": {
    "kind": "user",
    "methods": {
      "depositDividend(address,uint256)": {
        "notice": "Function to reward stakers."
      },
      "getClaimableAmount(address)": {
        "notice": "Function to getClaimableAmount"
      }
    },
    "version": 1
  }
}