{
  "contractName": "StakedCSX",
  "abi": [
    {
      "inputs": [
        {
          "internalType": "address",
          "name": "_csxAddress",
          "type": "address"
        },
        {
          "internalType": "address",
          "name": "_weth",
          "type": "address"
        },
        {
          "internalType": "address",
          "name": "_usdc",
          "type": "address"
        },
        {
          "internalType": "address",
          "name": "_usdt",
          "type": "address"
        }
      ],
      "stateMutability": "nonpayable",
      "type": "constructor"
    },
    {
      "anonymous": false,
      "inputs": [
        {
          "indexed": true,
          "internalType": "address",
          "name": "owner",
          "type": "address"
        },
        {
          "indexed": true,
          "internalType": "address",
          "name": "spender",
          "type": "address"
        },
        {
          "indexed": false,
          "internalType": "uint256",
          "name": "value",
          "type": "uint256"
        }
      ],
      "name": "Approval",
      "type": "event"
    },
    {
      "anonymous": false,
      "inputs": [
        {
          "indexed": false,
          "internalType": "uint256",
          "name": "amount",
          "type": "uint256"
        },
        {
          "indexed": false,
          "internalType": "uint256",
          "name": "dividendPerToken",
          "type": "uint256"
        },
        {
          "indexed": false,
          "internalType": "address",
          "name": "token",
          "type": "address"
        }
      ],
      "name": "FundsClaimed",
      "type": "event"
    },
    {
      "anonymous": false,
      "inputs": [
        {
          "indexed": false,
          "internalType": "uint256",
          "name": "amount",
          "type": "uint256"
        },
        {
          "indexed": false,
          "internalType": "uint256",
          "name": "dividendPerToken",
          "type": "uint256"
        },
        {
          "indexed": false,
          "internalType": "address",
          "name": "token",
          "type": "address"
        }
      ],
      "name": "FundsReceived",
      "type": "event"
    },
    {
      "anonymous": false,
      "inputs": [
        {
          "indexed": true,
          "internalType": "address",
          "name": "from",
          "type": "address"
        },
        {
          "indexed": true,
          "internalType": "address",
          "name": "to",
          "type": "address"
        },
        {
          "indexed": false,
          "internalType": "uint256",
          "name": "value",
          "type": "uint256"
        }
      ],
      "name": "Transfer",
      "type": "event"
    },
    {
      "inputs": [],
      "name": "CSX",
      "outputs": [
        {
          "internalType": "contract IERC20",
          "name": "",
          "type": "address"
        }
      ],
      "stateMutability": "view",
      "type": "function"
    },
    {
      "inputs": [],
      "name": "MAX_SUPPLY",
      "outputs": [
        {
          "internalType": "uint256",
          "name": "",
          "type": "uint256"
        }
      ],
      "stateMutability": "view",
      "type": "function"
    },
    {
      "inputs": [],
      "name": "USDC",
      "outputs": [
        {
          "internalType": "contract IERC20",
          "name": "",
          "type": "address"
        }
      ],
      "stateMutability": "view",
      "type": "function"
    },
    {
      "inputs": [],
      "name": "USDT",
      "outputs": [
        {
          "internalType": "contract IERC20",
          "name": "",
          "type": "address"
        }
      ],
      "stateMutability": "view",
      "type": "function"
    },
    {
      "inputs": [],
      "name": "WETH",
      "outputs": [
        {
          "internalType": "contract IWETH",
          "name": "",
          "type": "address"
        }
      ],
      "stateMutability": "view",
      "type": "function"
    },
    {
      "inputs": [
        {
          "internalType": "address",
          "name": "owner",
          "type": "address"
        },
        {
          "internalType": "address",
          "name": "spender",
          "type": "address"
        }
      ],
      "name": "allowance",
      "outputs": [
        {
          "internalType": "uint256",
          "name": "",
          "type": "uint256"
        }
      ],
      "stateMutability": "view",
      "type": "function"
    },
    {
      "inputs": [
        {
          "internalType": "address",
          "name": "spender",
          "type": "address"
        },
        {
          "internalType": "uint256",
          "name": "amount",
          "type": "uint256"
        }
      ],
      "name": "approve",
      "outputs": [
        {
          "internalType": "bool",
          "name": "",
          "type": "bool"
        }
      ],
      "stateMutability": "nonpayable",
      "type": "function"
    },
    {
      "inputs": [
        {
          "internalType": "address",
          "name": "account",
          "type": "address"
        }
      ],
      "name": "balanceOf",
      "outputs": [
        {
          "internalType": "uint256",
          "name": "",
          "type": "uint256"
        }
      ],
      "stateMutability": "view",
      "type": "function"
    },
    {
      "inputs": [],
      "name": "decimals",
      "outputs": [
        {
          "internalType": "uint8",
          "name": "",
          "type": "uint8"
        }
      ],
      "stateMutability": "view",
      "type": "function"
    },
    {
      "inputs": [
        {
          "internalType": "address",
          "name": "spender",
          "type": "address"
        },
        {
          "internalType": "uint256",
          "name": "subtractedValue",
          "type": "uint256"
        }
      ],
      "name": "decreaseAllowance",
      "outputs": [
        {
          "internalType": "bool",
          "name": "",
          "type": "bool"
        }
      ],
      "stateMutability": "nonpayable",
      "type": "function"
    },
    {
      "inputs": [
        {
          "internalType": "address",
          "name": "spender",
          "type": "address"
        },
        {
          "internalType": "uint256",
          "name": "addedValue",
          "type": "uint256"
        }
      ],
      "name": "increaseAllowance",
      "outputs": [
        {
          "internalType": "bool",
          "name": "",
          "type": "bool"
        }
      ],
      "stateMutability": "nonpayable",
      "type": "function"
    },
    {
      "inputs": [],
      "name": "name",
      "outputs": [
        {
          "internalType": "string",
          "name": "",
          "type": "string"
        }
      ],
      "stateMutability": "view",
      "type": "function"
    },
    {
      "inputs": [],
      "name": "symbol",
      "outputs": [
        {
          "internalType": "string",
          "name": "",
          "type": "string"
        }
      ],
      "stateMutability": "view",
      "type": "function"
    },
    {
      "inputs": [],
      "name": "totalSupply",
      "outputs": [
        {
          "internalType": "uint256",
          "name": "",
          "type": "uint256"
        }
      ],
      "stateMutability": "view",
      "type": "function"
    },
    {
      "inputs": [
        {
          "internalType": "address",
          "name": "to",
          "type": "address"
        },
        {
          "internalType": "uint256",
          "name": "amount",
          "type": "uint256"
        }
      ],
      "name": "transfer",
      "outputs": [
        {
          "internalType": "bool",
          "name": "",
          "type": "bool"
        }
      ],
      "stateMutability": "nonpayable",
      "type": "function"
    },
    {
      "inputs": [
        {
          "internalType": "address",
          "name": "from",
          "type": "address"
        },
        {
          "internalType": "address",
          "name": "to",
          "type": "address"
        },
        {
          "internalType": "uint256",
          "name": "amount",
          "type": "uint256"
        }
      ],
      "name": "transferFrom",
      "outputs": [
        {
          "internalType": "bool",
          "name": "",
          "type": "bool"
        }
      ],
      "stateMutability": "nonpayable",
      "type": "function"
    },
    {
      "stateMutability": "payable",
      "type": "receive"
    },
    {
      "inputs": [
        {
          "internalType": "address",
          "name": "_account",
          "type": "address"
        }
      ],
      "name": "getClaimableAmount",
      "outputs": [
        {
          "internalType": "uint256",
          "name": "usdcAmount",
          "type": "uint256"
        },
        {
          "internalType": "uint256",
          "name": "usdtAmount",
          "type": "uint256"
        },
        {
          "internalType": "uint256",
          "name": "wethAmount",
          "type": "uint256"
        }
      ],
      "stateMutability": "view",
      "type": "function"
    },
    {
      "inputs": [
        {
          "internalType": "address",
          "name": "token",
          "type": "address"
        },
        {
          "internalType": "uint256",
          "name": "amount",
          "type": "uint256"
        }
      ],
      "name": "depositDividend",
      "outputs": [
        {
          "internalType": "bool",
          "name": "",
          "type": "bool"
        }
      ],
      "stateMutability": "nonpayable",
      "type": "function"
    },
    {
      "inputs": [
        {
          "internalType": "uint256",
          "name": "amount",
          "type": "uint256"
        }
      ],
      "name": "stake",
      "outputs": [],
      "stateMutability": "nonpayable",
      "type": "function"
    },
    {
      "inputs": [
        {
          "internalType": "uint256",
          "name": "amount",
          "type": "uint256"
        }
      ],
      "name": "unStake",
      "outputs": [],
      "stateMutability": "nonpayable",
      "type": "function"
    },
    {
      "inputs": [
        {
          "internalType": "bool",
          "name": "claimUsdc",
          "type": "bool"
        },
        {
          "internalType": "bool",
          "name": "claimUsdt",
          "type": "bool"
        },
        {
          "internalType": "bool",
          "name": "claimWeth",
          "type": "bool"
        },
        {
          "internalType": "bool",
          "name": "convertWethToEth",
          "type": "bool"
        }
      ],
      "name": "claim",
      "outputs": [],
      "stateMutability": "nonpayable",
      "type": "function"
    }
  ],
  "bytecode": "0x60806040523480156200001157600080fd5b506040516200232c3803806200232c83398101604081905262000034916200013c565b6040518060400160405280600a81526020017f5374616b656420435358000000000000000000000000000000000000000000008152506040518060400160405280600481526020017f734353580000000000000000000000000000000000000000000000000000000081525060016000819055508160049081620000b9919062000270565b506005620000c8828262000270565b505060068054600160a060020a03968716600160a060020a03199182161790915560078054958716958216959095179094555060088054928516928416929092179091556009805491909316911617905562000343565b8051600160a060020a03811681146200013757600080fd5b919050565b600080600080608085870312156200015357600080fd5b6200015e856200011f565b93506200016e602086016200011f565b92506200017e604086016200011f565b91506200018e606086016200011f565b905092959194509250565b7f4e487b7100000000000000000000000000000000000000000000000000000000600052604160045260246000fd5b600281046001821680620001dd57607f821691505b60208210810362000217577f4e487b7100000000000000000000000000000000000000000000000000000000600052602260045260246000fd5b50919050565b601f8211156200026b576000818152602081206020601f86010481016020861015620002465750805b6020601f860104820191505b81811015620002675782815560010162000252565b5050505b505050565b815167ffffffffffffffff8111156200028d576200028d62000199565b620002a5816200029e8454620001c8565b846200021d565b602080601f831160018114620002e15760008415620002c45750858301515b60028086026008870290910a600019041982161786555062000267565b600085815260208120601f198616915b828110156200031257888601518255948401946001909101908401620002f1565b50858210156200033357878501516008601f88160260020a60001904191681555b5050505050600202600101905550565b611fd980620003536000396000f3fe60806040526004361061015b576000357c01000000000000000000000000000000000000000000000000000000009004806389a30271116100d8578063a9059cbb1161009c578063d61bf3f811610076578063d61bf3f814610441578063dd62ed3e14610461578063e12f3a61146104a757600080fd5b8063a9059cbb146103e1578063ad5c464814610401578063c54e44eb1461042157600080fd5b806389a3027114610334578063944698371461036c57806395d89b411461038c578063a457c2d7146103a1578063a694fc3a146103c157600080fd5b806332cb6b0c1161011f57806332cb6b0c1461027f578063395093511461029e5780635d3eea91146102be5780635f78d6bd146102de57806370a08231146102fe57600080fd5b806306fdde03146101c9578063095ea7b3146101f457806318160ddd1461022457806323b872dd14610243578063313ce5671461026357600080fd5b366101c457600754600160a060020a031633146101c25760405160e560020a62461bcd02815260206004820152600e60248201527f496e76616c69642053656e64657200000000000000000000000000000000000060448201526064015b60405180910390fd5b005b600080fd5b3480156101d557600080fd5b506101de6104e2565b6040516101eb9190611ccb565b60405180910390f35b34801561020057600080fd5b5061021461020f366004611d35565b610574565b60405190151581526020016101eb565b34801561023057600080fd5b506003545b6040519081526020016101eb565b34801561024f57600080fd5b5061021461025e366004611d5f565b61058e565b34801561026f57600080fd5b50604051601281526020016101eb565b34801561028b57600080fd5b506102356a52b7d2dcc80cd2e400000081565b3480156102aa57600080fd5b506102146102b9366004611d35565b6105b2565b3480156102ca57600080fd5b506101c26102d9366004611d9b565b6105f1565b3480156102ea57600080fd5b506102146102f9366004611d35565b6107ab565b34801561030a57600080fd5b50610235610319366004611db4565b600160a060020a031660009081526001602052604090205490565b34801561034057600080fd5b5060085461035490600160a060020a031681565b604051600160a060020a0390911681526020016101eb565b34801561037857600080fd5b5060065461035490600160a060020a031681565b34801561039857600080fd5b506101de610a2a565b3480156103ad57600080fd5b506102146103bc366004611d35565b610a39565b3480156103cd57600080fd5b506101c26103dc366004611d9b565b610ae6565b3480156103ed57600080fd5b506102146103fc366004611d35565b610cad565b34801561040d57600080fd5b5060075461035490600160a060020a031681565b34801561042d57600080fd5b5060095461035490600160a060020a031681565b34801561044d57600080fd5b506101c261045c366004611de4565b610cbb565b34801561046d57600080fd5b5061023561047c366004611e40565b600160a060020a03918216600090815260026020908152604080832093909416825291909152205490565b3480156104b357600080fd5b506104c76104c2366004611db4565b610d29565b604080519384526020840192909252908201526060016101eb565b6060600480546104f190611e73565b80601f016020809104026020016040519081016040528092919081815260200182805461051d90611e73565b801561056a5780601f1061053f5761010080835404028352916020019161056a565b820191906000526020600020905b81548152906001019060200180831161054d57829003601f168201915b5050505050905090565b600033610582818585610e92565b60019150505b92915050565b60003361059c858285610ff1565b6105a7858585611080565b506001949350505050565b336000818152600260209081526040808320600160a060020a038716845290915281205490919061058290829086906105ec908790611ef5565b610e92565b6105f9611288565b6000811161064c5760405160e560020a62461bcd02815260206004820152601d60248201527f416d6f756e74206d7573742062652067726561746572207468616e203000000060448201526064016101b9565b336000908152600160205260409020548111156106ae5760405160e560020a62461bcd02815260206004820152601460248201527f496e73756666696369656e742062616c616e636500000000000000000000000060448201526064016101b9565b6106b7336112e4565b6106c133826115ea565b6006546040517fa9059cbb00000000000000000000000000000000000000000000000000000000815233600482015260248101839052600160a060020a039091169063a9059cbb906044016020604051808303816000875af115801561072b573d6000803e3d6000fd5b505050506040513d601f19601f8201168201806040525081019061074f9190611f08565b61079e5760405160e560020a62461bcd02815260206004820152601560248201527f546f6b656e207472616e73666572206661696c6564000000000000000000000060448201526064016101b9565b6107a86001600055565b50565b60006107b660035490565b6000036108085760405160e560020a62461bcd02815260206004820152601060248201527f4e6f20746f6b656e73206d696e7465640000000000000000000000000000000060448201526064016101b9565b600754600160a060020a03848116911614806108315750600854600160a060020a038481169116145b806108495750600954600160a060020a038481169116145b6108985760405160e560020a62461bcd02815260206004820152600d60248201527f496e76616c696420746f6b656e0000000000000000000000000000000000000060448201526064016101b9565b6040517f23b872dd00000000000000000000000000000000000000000000000000000000815233600482015230602482015260448101839052600160a060020a038416906323b872dd906064016020604051808303816000875af1158015610904573d6000803e3d6000fd5b505050506040513d601f19601f820116820180604052508101906109289190611f08565b6109775760405160e560020a62461bcd02815260206004820152601560248201527f546f6b656e207472616e73666572206661696c6564000000000000000000000060448201526064016101b9565b6003546109926d314dc6448d9338c15b0a0000000084611f25565b61099c9190611f3c565b600160a060020a0384166000908152600a6020526040812080549091906109c4908490611ef5565b9091555050600160a060020a0383166000818152600a60209081526040918290205482518681529182015280820192909252517f926217f01cca30e68783bf8e91c15c187eccd1e26e640482258c0a867f92ab469181900360600190a150600192915050565b6060600580546104f190611e73565b336000818152600260209081526040808320600160a060020a038716845290915281205490919083811015610ad95760405160e560020a62461bcd02815260206004820152602560248201527f45524332303a2064656372656173656420616c6c6f77616e63652062656c6f7760448201527f207a65726f00000000000000000000000000000000000000000000000000000060648201526084016101b9565b6105a78286868403610e92565b806a52b7d2dcc80cd2e4000000610afc60035490565b610b069083611ef5565b1115610b575760405160e560020a62461bcd02815260206004820152601b60248201527f616d6f756e7420737572706173736573206d617820737570706c79000000000060448201526064016101b9565b610b5f611288565b60008211610bb25760405160e560020a62461bcd02815260206004820152601d60248201527f416d6f756e74206d7573742062652067726561746572207468616e203000000060448201526064016101b9565b6006546040517f23b872dd00000000000000000000000000000000000000000000000000000000815233600482015230602482015260448101849052600160a060020a03909116906323b872dd906064016020604051808303816000875af1158015610c22573d6000803e3d6000fd5b505050506040513d601f19601f82011682018060405250810190610c469190611f08565b610c955760405160e560020a62461bcd02815260206004820152601560248201527f546f6b656e207472616e73666572206661696c6564000000000000000000000060448201526064016101b9565b610c9f3383611764565b610ca96001600055565b5050565b600033610582818585611080565b610cc3611288565b8115610cdf57600754610cdf90600160a060020a031682611834565b8315610cfc57600854610cfc90600160a060020a03166000611834565b8215610d1957600954610d1990600160a060020a03166000611834565b610d236001600055565b50505050565b600080600080610d4e85600160a060020a031660009081526001602052604090205490565b600854600160a060020a039081166000818152600b60209081526040808320948b16835293815283822054928252600a905291909120549192506d314dc6448d9338c15b0a00000000918391610da391611f77565b610dad9190611f25565b610db79190611f3c565b600954600160a060020a039081166000818152600b60209081526040808320948b16835293815283822054928252600a905291909120549195506d314dc6448d9338c15b0a00000000918391610e0c91611f77565b610e169190611f25565b610e209190611f3c565b600754600160a060020a039081166000818152600b60209081526040808320948b16835293815283822054928252600a905291909120549194506d314dc6448d9338c15b0a00000000918391610e7591611f77565b610e7f9190611f25565b610e899190611f3c565b93959294505050565b600160a060020a038316610f105760405160e560020a62461bcd028152602060048201526024808201527f45524332303a20617070726f76652066726f6d20746865207a65726f2061646460448201527f726573730000000000000000000000000000000000000000000000000000000060648201526084016101b9565b600160a060020a038216610f8f5760405160e560020a62461bcd02815260206004820152602260248201527f45524332303a20617070726f766520746f20746865207a65726f20616464726560448201527f737300000000000000000000000000000000000000000000000000000000000060648201526084016101b9565b600160a060020a0383811660008181526002602090815260408083209487168084529482529182902085905590518481527f8c5be1e5ebec7d5bd14f71427d1e84f3dd0314c0f7b2291e5b200ac8c7c3b92591015b60405180910390a3505050565b600160a060020a038381166000908152600260209081526040808320938616835292905220546000198114610d2357818110156110735760405160e560020a62461bcd02815260206004820152601d60248201527f45524332303a20696e73756666696369656e7420616c6c6f77616e636500000060448201526064016101b9565b610d238484848403610e92565b600160a060020a0383166110ff5760405160e560020a62461bcd02815260206004820152602560248201527f45524332303a207472616e736665722066726f6d20746865207a65726f20616460448201527f647265737300000000000000000000000000000000000000000000000000000060648201526084016101b9565b600160a060020a03821661117e5760405160e560020a62461bcd02815260206004820152602360248201527f45524332303a207472616e7366657220746f20746865207a65726f206164647260448201527f657373000000000000000000000000000000000000000000000000000000000060648201526084016101b9565b611189838383611c92565b600160a060020a0383166000908152600160205260409020548181101561121b5760405160e560020a62461bcd02815260206004820152602660248201527f45524332303a207472616e7366657220616d6f756e742065786365656473206260448201527f616c616e6365000000000000000000000000000000000000000000000000000060648201526084016101b9565b600160a060020a0380851660008181526001602052604080822086860390559286168082529083902080548601905591517fddf252ad1be2c89b69c2b068fc378daa952ba7f163c4a11628f55a4df523b3ef9061127b9086815260200190565b60405180910390a3610d23565b6002600054036112dd5760405160e560020a62461bcd02815260206004820152601f60248201527f5265656e7472616e637947756172643a207265656e7472616e742063616c6c0060448201526064016101b9565b6002600055565b600160a060020a038116600090815260016020526040902054801561157157600854600160a060020a039081166000818152600b60209081526040808320948716835293815283822054928252600a9052918220546d314dc6448d9338c15b0a000000009184916113559190611f77565b61135f9190611f25565b6113699190611f3c565b600954600160a060020a039081166000818152600b60209081526040808320948916835293815283822054928252600a90529182205492935090916d314dc6448d9338c15b0a000000009185916113c09190611f77565b6113ca9190611f25565b6113d49190611f3c565b600754600160a060020a039081166000818152600b60209081526040808320948a16835293815283822054928252600a90529182205492935090916d314dc6448d9338c15b0a0000000091869161142b9190611f77565b6114359190611f25565b61143f9190611f3c565b905082156114a557600854600160a060020a039081166000908152600c602090815260408083209389168352929052205461147b908490611ef5565b600854600160a060020a039081166000908152600c60209081526040808320938a16835292905220555b811561150957600954600160a060020a039081166000908152600c60209081526040808320938916835292905220546114df908390611ef5565b600954600160a060020a039081166000908152600c60209081526040808320938a16835292905220555b801561156d57600754600160a060020a039081166000908152600c6020908152604080832093891683529290522054611543908290611ef5565b600754600160a060020a039081166000908152600c60209081526040808320938a16835292905220555b5050505b50600854600160a060020a039081166000908152600a6020818152604080842054600b808452828620978716808752978452828620919091556009548616855283835281852054818452828620888752845282862055600754909516845291815281832054938152818320948352939093529190912055565b600160a060020a0382166116695760405160e560020a62461bcd02815260206004820152602160248201527f45524332303a206275726e2066726f6d20746865207a65726f2061646472657360448201527f730000000000000000000000000000000000000000000000000000000000000060648201526084016101b9565b61167582600083611c92565b600160a060020a038216600090815260016020526040902054818110156117075760405160e560020a62461bcd02815260206004820152602260248201527f45524332303a206275726e20616d6f756e7420657863656564732062616c616e60448201527f636500000000000000000000000000000000000000000000000000000000000060648201526084016101b9565b600160a060020a03831660008181526001602090815260408083208686039055600380548790039055518581529192917fddf252ad1be2c89b69c2b068fc378daa952ba7f163c4a11628f55a4df523b3ef9101610fe4565b505050565b600160a060020a0382166117bd5760405160e560020a62461bcd02815260206004820152601f60248201527f45524332303a206d696e7420746f20746865207a65726f20616464726573730060448201526064016101b9565b6117c960008383611c92565b80600360008282546117db9190611ef5565b9091555050600160a060020a0382166000818152600160209081526040808320805486019055518481527fddf252ad1be2c89b69c2b068fc378daa952ba7f163c4a11628f55a4df523b3ef910160405180910390a35050565b33600081815260016020908152604080832054600160a060020a0387168452600c83528184209484529390915281205490919081156118d757600160a060020a0385166000818152600b6020908152604080832033845282528083208054948452600a90925290912054908190556d314dc6448d9338c15b0a000000009084906118bf908490611f77565b6118c99190611f25565b6118d39190611f3c565b9350505b801561190e57600160a060020a0385166000908152600c6020908152604080832033845290915281205561190b8184611ef5565b92505b8215611c8b57600754600160a060020a03868116911614801561192e5750835b15611b21576007546040517f70a082310000000000000000000000000000000000000000000000000000000081523060048201528491600160a060020a0316906370a0823190602401602060405180830381865afa158015611994573d6000803e3d6000fd5b505050506040513d601f19601f820116820180604052508101906119b89190611f8a565b1015611a095760405160e560020a62461bcd02815260206004820152601d60248201527f416464726573733a20696e73756666696369656e742062616c616e636500000060448201526064016101b9565b6007546040517f2e1a7d4d00000000000000000000000000000000000000000000000000000000815260048101859052600160a060020a0390911690632e1a7d4d90602401600060405180830381600087803b158015611a6857600080fd5b505af1158015611a7c573d6000803e3d6000fd5b50506040516000925033915085908381818185875af1925050503d8060008114611ac2576040519150601f19603f3d011682016040523d82523d6000602084013e611ac7565b606091505b5050905080611b1b5760405160e560020a62461bcd02815260206004820152601360248201527f455448207472616e73666572206661696c65640000000000000000000000000060448201526064016101b9565b50611bfa565b6040517fa9059cbb00000000000000000000000000000000000000000000000000000000815233600482015260248101849052600160a060020a0386169063a9059cbb906044016020604051808303816000875af1158015611b87573d6000803e3d6000fd5b505050506040513d601f19601f82011682018060405250810190611bab9190611f08565b611bfa5760405160e560020a62461bcd02815260206004820152601560248201527f546f6b656e207472616e73666572206661696c6564000000000000000000000060448201526064016101b9565b600160a060020a0385166000908152600d6020908152604080832033845290915281208054859290611c2d908490611ef5565b9091555050600160a060020a0385166000818152600a60209081526040918290205482518781529182015280820192909252517f52c68b36af8832ce2eab86015f8b765a1627b38d0f87b39e1875dcec7411e6fb9181900360600190a15b5050505050565b600160a060020a0383161580611caf5750600160a060020a038216155b15611cb957505050565b611cc2826112e4565b61175f836112e4565b600060208083528351808285015260005b81811015611cf857858101830151858201604001528201611cdc565b506000604082860101526040601f19601f8301168501019250505092915050565b8035600160a060020a0381168114611d3057600080fd5b919050565b60008060408385031215611d4857600080fd5b611d5183611d19565b946020939093013593505050565b600080600060608486031215611d7457600080fd5b611d7d84611d19565b9250611d8b60208501611d19565b9150604084013590509250925092565b600060208284031215611dad57600080fd5b5035919050565b600060208284031215611dc657600080fd5b611dcf82611d19565b9392505050565b80151581146107a857600080fd5b60008060008060808587031215611dfa57600080fd5b8435611e0581611dd6565b93506020850135611e1581611dd6565b92506040850135611e2581611dd6565b91506060850135611e3581611dd6565b939692955090935050565b60008060408385031215611e5357600080fd5b611e5c83611d19565b9150611e6a60208401611d19565b90509250929050565b600281046001821680611e8757607f821691505b602082108103611ec0577f4e487b7100000000000000000000000000000000000000000000000000000000600052602260045260246000fd5b50919050565b7f4e487b7100000000000000000000000000000000000000000000000000000000600052601160045260246000fd5b8082018082111561058857610588611ec6565b600060208284031215611f1a57600080fd5b8151611dcf81611dd6565b808202811582820484141761058857610588611ec6565b600082611f72577f4e487b7100000000000000000000000000000000000000000000000000000000600052601260045260246000fd5b500490565b8181038181111561058857610588611ec6565b600060208284031215611f9c57600080fd5b505191905056fea26469706673582212203fbe5353719eeccfc704888735334227e4408a03f1dfbdda910e00a65253704464736f6c63430008130033",
  "immutableReferences": {},
  "source": "// SPDX-License-Identifier: MIT\r\n// CSX Staking Contract v2\r\n\r\npragma solidity 0.8.19;\r\n\r\nimport {IERC20, IWETH, ReentrancyGuard, ERC20} from \"./Interfaces.sol\";\r\n\r\ncontract StakedCSX is ReentrancyGuard, ERC20 {\r\n    IERC20 public CSX;\r\n    IWETH public WETH;\r\n    IERC20 public USDC;\r\n    IERC20 public USDT;\r\n\r\n    uint256 public constant MAX_SUPPLY = 100000000 ether;\r\n\r\n    /// @notice PRECISION is a constant used for calculations in the contract.\r\n    /// It is set to 10**33 to ensure accuracy in calculations.\r\n    /// This allows for up to 100 million tokens with:\r\n    /// - A maximum dividend per token of 10^26 ether (for 18 decimals, lowest fraction is gwei)\r\n    /// - A maximum dividend per token of 10^32 tokens (for 6 decimals, lowest fraction is Mwei / Lovelace / Picoether)\r\n    uint256 private constant PRECISION = 10 ** 33; // used for higher precision calculations\r\n\r\n    /// @notice Token (usdc,weth, usdt) share of each token in gwei.\r\n    // USDC, WETH, USDT => totalDividendPerToken\r\n    mapping(address => uint256) dividendPerToken;\r\n\r\n    /// @notice Token (usdc,weth, usdt) user's share of each token in gwei.\r\n    // USDC, WETH, USDT => user => xDividendPerToken\r\n    mapping(address => mapping(address => uint256)) xDividendPerToken;\r\n\r\n    /// @notice Amount that should have been withdrawn\r\n    // USDC, WETH, USDT => user => credit\r\n    mapping(address => mapping(address => uint256)) credit;\r\n\r\n    /// @notice State variable representing amount claimed by account in WETH, USDC, USDT\r\n    // USDC, WETH, USDT => user => totalClaimed\r\n    mapping(address => mapping(address => uint256)) totalClaimed;\r\n\r\n    event FundsReceived(\r\n        uint256 amount,\r\n        uint256 dividendPerToken,\r\n        address token\r\n    );\r\n\r\n    event FundsClaimed(uint256 amount, uint256 dividendPerToken, address token);\r\n\r\n    modifier mintable(uint256 amount) {\r\n        require(\r\n            amount + totalSupply() <= MAX_SUPPLY,\r\n            \"amount surpasses max supply\"\r\n        );\r\n        _;\r\n    }\r\n\r\n    constructor(\r\n        address _csxAddress,\r\n        address _weth,\r\n        address _usdc,\r\n        address _usdt\r\n    ) ERC20(\"Staked CSX\", \"sCSX\") {\r\n        CSX = IERC20(_csxAddress);\r\n        WETH = IWETH(_weth);\r\n        USDC = IERC20(_usdc);\r\n        USDT = IERC20(_usdt);\r\n    }\r\n\r\n    //=================================== EXTERNAL ==============================================\r\n\r\n    /// @notice Function to getClaimableAmount\r\n    /// @param _account address of the user\r\n    /// @return usdcAmount\r\n    /// @return usdtAmount\r\n    /// @return wethAmount\r\n    function getClaimableAmount(\r\n        address _account\r\n    ) external view returns (uint256 usdcAmount, uint256 usdtAmount, uint256 wethAmount) {\r\n        uint256 recipientBalance = balanceOf(_account);\r\n        usdcAmount = (((dividendPerToken[address(USDC)] -\r\n            xDividendPerToken[address(USDC)][_account]) * recipientBalance) /\r\n            PRECISION);\r\n        usdtAmount = (((dividendPerToken[address(USDT)] -\r\n            xDividendPerToken[address(USDT)][_account]) * recipientBalance) /\r\n            PRECISION);\r\n        wethAmount = (((dividendPerToken[address(WETH)] -\r\n            xDividendPerToken[address(WETH)][_account]) * recipientBalance) /\r\n            PRECISION);\r\n    }\r\n\r\n    /// @notice Function to reward stakers.\r\n    function depositDividend(address token, uint256 amount) external returns (bool) {\r\n        require(totalSupply() != 0, \"No tokens minted\");\r\n        require(\r\n            token == address(WETH) ||\r\n                token == address(USDC) ||\r\n                token == address(USDT),\r\n            \"Invalid token\"\r\n        );\r\n        require(\r\n            IERC20(token).transferFrom(msg.sender, address(this), amount),\r\n            \"Token transfer failed\"\r\n        );\r\n        dividendPerToken[token] += (amount * PRECISION) / totalSupply();\r\n\r\n        emit FundsReceived(amount, dividendPerToken[token], token);\r\n\r\n        return true;\r\n    }\r\n\r\n    function stake(uint256 amount) external mintable(amount) nonReentrant {\r\n        require(amount > 0, \"Amount must be greater than 0\");\r\n        require(\r\n            CSX.transferFrom(msg.sender, address(this), amount),\r\n            \"Token transfer failed\"\r\n        );\r\n        _mint(msg.sender, amount);\r\n    }\r\n\r\n    function unStake(uint256 amount) external nonReentrant {\r\n        require(amount > 0, \"Amount must be greater than 0\");\r\n        require(balanceOf(msg.sender) >= amount, \"Insufficient balance\");\r\n        _claimToCredit(msg.sender);\r\n        _burn(msg.sender, amount);\r\n        require(CSX.transfer(msg.sender, amount), \"Token transfer failed\");\r\n    }\r\n\r\n    function claim(\r\n        bool claimUsdc,\r\n        bool claimUsdt,\r\n        bool claimWeth,\r\n        bool convertWethToEth\r\n    ) external nonReentrant {\r\n        if (claimWeth) {\r\n            _claim(address(WETH), convertWethToEth);\r\n        }\r\n        if (claimUsdc) {\r\n            _claim(address(USDC), false);\r\n        }\r\n        if (claimUsdt) {\r\n            _claim(address(USDT), false);\r\n        }\r\n    }\r\n\r\n    receive() external payable {\r\n        require(address(WETH) == msg.sender, \"Invalid Sender\");\r\n    }\r\n\r\n    //=================================== INTERNAL ==============================================\r\n    function _beforeTokenTransfer(\r\n        address from,\r\n        address to,\r\n        uint256 amount\r\n    ) internal override {\r\n        super._beforeTokenTransfer(from, to, amount);\r\n        if (from == address(0) || to == address(0)) return;\r\n        // receiver first withdraw funds to credit\r\n        _claimToCredit(to);\r\n        _claimToCredit(from);\r\n    }\r\n\r\n    //=================================== PRIVATE ==============================================\r\n\r\n    function _claimToCredit(address to_) private {\r\n        uint256 recipientBalance = balanceOf(to_);\r\n        if (recipientBalance != 0) {\r\n            uint256 usdcAmount = (((dividendPerToken[address(USDC)] -\r\n                xDividendPerToken[address(USDC)][to_]) * recipientBalance) /\r\n                PRECISION);\r\n            uint256 usdtAmount = (((dividendPerToken[address(USDT)] -\r\n                xDividendPerToken[address(USDT)][to_]) * recipientBalance) /\r\n                PRECISION);\r\n            uint256 wethAmount = (((dividendPerToken[address(WETH)] -\r\n                xDividendPerToken[address(WETH)][to_]) * recipientBalance) /\r\n                PRECISION);\r\n\r\n            if (usdcAmount != 0) {\r\n                credit[address(USDC)][to_] =\r\n                    credit[address(USDC)][to_] +\r\n                    usdcAmount;\r\n            }\r\n\r\n            if (usdtAmount != 0) {\r\n                credit[address(USDT)][to_] =\r\n                    credit[address(USDT)][to_] +\r\n                    usdtAmount;\r\n            }\r\n\r\n            if (wethAmount != 0) {\r\n                credit[address(WETH)][to_] =\r\n                    credit[address(WETH)][to_] +\r\n                    wethAmount;\r\n            }\r\n        }\r\n        xDividendPerToken[address(USDC)][to_] = dividendPerToken[address(USDC)];\r\n        xDividendPerToken[address(USDT)][to_] = dividendPerToken[address(USDT)];\r\n        xDividendPerToken[address(WETH)][to_] = dividendPerToken[address(WETH)];\r\n    }\r\n\r\n    function _claim(address token, bool convertWethToEth) private {\r\n        uint256 amount;\r\n        uint256 csxBalance = balanceOf(msg.sender);\r\n        uint256 creditBalance = credit[token][msg.sender];\r\n\r\n        if (csxBalance != 0) {\r\n            uint256 userDividendPerToken = xDividendPerToken[token][msg.sender];\r\n\r\n            xDividendPerToken[token][msg.sender] = dividendPerToken[token];\r\n\r\n            amount = (((dividendPerToken[token] - userDividendPerToken) *\r\n                csxBalance) / PRECISION);\r\n        }\r\n\r\n        if (creditBalance != 0) {\r\n            credit[token][msg.sender] = 0;\r\n            amount += creditBalance;\r\n        }\r\n\r\n        if (amount != 0) {\r\n            if (token == address(WETH) && convertWethToEth) {\r\n                require(WETH.balanceOf(address(this)) >= amount, \"Address: insufficient balance\");\r\n                // Convert WETH to ETH and send to user\r\n                WETH.withdraw(amount);\r\n                // Check if the transfer is successful\r\n                \r\n                (bool success, ) = payable(msg.sender).call{value: amount}(\"\");\r\n                require(success, \"ETH transfer failed\");\r\n            } else {\r\n                require(\r\n                    IERC20(token).transfer(msg.sender, amount),\r\n                    \"Token transfer failed\"\r\n                );\r\n            }\r\n            totalClaimed[token][msg.sender] += amount;\r\n            emit FundsClaimed(amount, dividendPerToken[token], token);\r\n        }\r\n    }\r\n}\r\n",
  "sourcePath": "C:\\Users\\Charl\\Documents\\Projects\\SteamMarket\\CSX\\csx-contracts\\contracts\\CSX\\StakedCSX.sol",
  "compiler": {
    "name": "solc",
    "version": "0.8.19+commit.7dd6d404.Emscripten.clang"
  },
  "schemaVersion": "3.4.3",
  "updatedAt": "2023-08-22T17:36:56.390Z",
  "devdoc": {
    "events": {
      "Approval(address,address,uint256)": {
        "details": "Emitted when the allowance of a `spender` for an `owner` is set by a call to {approve}. `value` is the new allowance."
      },
      "Transfer(address,address,uint256)": {
        "details": "Emitted when `value` tokens are moved from one account (`from`) to another (`to`). Note that `value` may be zero."
      }
    },
    "kind": "dev",
    "methods": {
      "allowance(address,address)": {
        "details": "See {IERC20-allowance}."
      },
      "approve(address,uint256)": {
        "details": "See {IERC20-approve}. NOTE: If `amount` is the maximum `uint256`, the allowance is not updated on `transferFrom`. This is semantically equivalent to an infinite approval. Requirements: - `spender` cannot be the zero address."
      },
      "balanceOf(address)": {
        "details": "See {IERC20-balanceOf}."
      },
      "decimals()": {
        "details": "Returns the number of decimals used to get its user representation. For example, if `decimals` equals `2`, a balance of `505` tokens should be displayed to a user as `5.05` (`505 / 10 ** 2`). Tokens usually opt for a value of 18, imitating the relationship between Ether and Wei. This is the value {ERC20} uses, unless this function is overridden; NOTE: This information is only used for _display_ purposes: it in no way affects any of the arithmetic of the contract, including {IERC20-balanceOf} and {IERC20-transfer}."
      },
      "decreaseAllowance(address,uint256)": {
        "details": "Atomically decreases the allowance granted to `spender` by the caller. This is an alternative to {approve} that can be used as a mitigation for problems described in {IERC20-approve}. Emits an {Approval} event indicating the updated allowance. Requirements: - `spender` cannot be the zero address. - `spender` must have allowance for the caller of at least `subtractedValue`."
      },
      "getClaimableAmount(address)": {
        "params": {
          "_account": "address of the user"
        },
        "returns": {
          "usdcAmount": "usdcAmount",
          "usdtAmount": "usdtAmount",
          "wethAmount": "wethAmount"
        }
      },
      "increaseAllowance(address,uint256)": {
        "details": "Atomically increases the allowance granted to `spender` by the caller. This is an alternative to {approve} that can be used as a mitigation for problems described in {IERC20-approve}. Emits an {Approval} event indicating the updated allowance. Requirements: - `spender` cannot be the zero address."
      },
      "name()": {
        "details": "Returns the name of the token."
      },
      "symbol()": {
        "details": "Returns the symbol of the token, usually a shorter version of the name."
      },
      "totalSupply()": {
        "details": "See {IERC20-totalSupply}."
      },
      "transfer(address,uint256)": {
        "details": "See {IERC20-transfer}. Requirements: - `to` cannot be the zero address. - the caller must have a balance of at least `amount`."
      },
      "transferFrom(address,address,uint256)": {
        "details": "See {IERC20-transferFrom}. Emits an {Approval} event indicating the updated allowance. This is not required by the EIP. See the note at the beginning of {ERC20}. NOTE: Does not update the allowance if the current allowance is the maximum `uint256`. Requirements: - `from` and `to` cannot be the zero address. - `from` must have a balance of at least `amount`. - the caller must have allowance for ``from``'s tokens of at least `amount`."
      }
    },
    "version": 1
  },
  "userdoc": {
    "kind": "user",
    "methods": {
      "depositDividend(address,uint256)": {
        "notice": "Function to reward stakers."
      },
      "getClaimableAmount(address)": {
        "notice": "Function to getClaimableAmount"
      }
    },
    "version": 1
  }
}