{
  "contractName": "TradeFactoryBaseStorage",
  "abi": [
    {
      "inputs": [
        {
          "internalType": "address",
          "name": "_keepers",
          "type": "address"
        },
        {
          "internalType": "address",
          "name": "_users",
          "type": "address"
        }
      ],
      "stateMutability": "nonpayable",
      "type": "constructor"
    },
    {
      "inputs": [],
      "name": "keepersContract",
      "outputs": [
        {
          "internalType": "contract IKeepers",
          "name": "",
          "type": "address"
        }
      ],
      "stateMutability": "view",
      "type": "function",
      "constant": true
    },
    {
      "inputs": [],
      "name": "totalContracts",
      "outputs": [
        {
          "internalType": "uint256",
          "name": "",
          "type": "uint256"
        }
      ],
      "stateMutability": "view",
      "type": "function",
      "constant": true
    },
    {
      "inputs": [],
      "name": "usersContract",
      "outputs": [
        {
          "internalType": "contract IUsers",
          "name": "",
          "type": "address"
        }
      ],
      "stateMutability": "view",
      "type": "function",
      "constant": true
    },
    {
      "inputs": [
        {
          "internalType": "address",
          "name": "_factoryAddress",
          "type": "address"
        }
      ],
      "name": "init",
      "outputs": [],
      "stateMutability": "nonpayable",
      "type": "function"
    },
    {
      "inputs": [
        {
          "internalType": "uint256",
          "name": "index",
          "type": "uint256"
        }
      ],
      "name": "getTradeContract",
      "outputs": [
        {
          "internalType": "contract CSXTrade",
          "name": "",
          "type": "address"
        }
      ],
      "stateMutability": "view",
      "type": "function",
      "constant": true
    },
    {
      "inputs": [
        {
          "internalType": "string",
          "name": "_itemMarketName",
          "type": "string"
        },
        {
          "components": [
            {
              "internalType": "uint256",
              "name": "partner",
              "type": "uint256"
            },
            {
              "internalType": "string",
              "name": "token",
              "type": "string"
            }
          ],
          "internalType": "struct TradeUrl",
          "name": "_tradeUrl",
          "type": "tuple"
        },
        {
          "internalType": "string",
          "name": "_assetId",
          "type": "string"
        },
        {
          "internalType": "string",
          "name": "_inspectLink",
          "type": "string"
        },
        {
          "internalType": "string",
          "name": "_itemImageUrl",
          "type": "string"
        },
        {
          "internalType": "uint256",
          "name": "_weiPrice",
          "type": "uint256"
        },
        {
          "components": [
            {
              "internalType": "string",
              "name": "value",
              "type": "string"
            },
            {
              "internalType": "string",
              "name": "min",
              "type": "string"
            },
            {
              "internalType": "string",
              "name": "max",
              "type": "string"
            }
          ],
          "internalType": "struct FloatInfo",
          "name": "_float",
          "type": "tuple"
        }
      ],
      "name": "newTradeContract",
      "outputs": [],
      "stateMutability": "nonpayable",
      "type": "function"
    },
    {
      "inputs": [
        {
          "internalType": "uint256",
          "name": "index",
          "type": "uint256"
        }
      ],
      "name": "getTradeContractByIndex",
      "outputs": [
        {
          "internalType": "contract CSXTrade",
          "name": "",
          "type": "address"
        }
      ],
      "stateMutability": "view",
      "type": "function",
      "constant": true
    },
    {
      "inputs": [],
      "name": "getLastTradeContractAddress",
      "outputs": [
        {
          "internalType": "address",
          "name": "",
          "type": "address"
        }
      ],
      "stateMutability": "view",
      "type": "function",
      "constant": true
    }
  ],
  "bytecode": "0x608060405234801561001057600080fd5b50604051614c96380380614c9683398101604081905261002f91610081565b600160005560038054600160a060020a03938416600160a060020a031991821617909155600480549290931691161790556100b4565b8051600160a060020a038116811461007c57600080fd5b919050565b6000806040838503121561009457600080fd5b61009d83610065565b91506100ab60208401610065565b90509250929050565b614bd3806100c36000396000f3fe60806040523480156200001157600080fd5b5060043610620000855760e060020a6000350463142ebf3c81146200008a57806314add24014620000b657806319ab453c14620000cf5780634eb9c03414620000e65780636c876a7214620000e657806394a792e11462000112578063a09037a9146200011c578063c2bd884b1462000135575b600080fd5b6004546200009e90600160a060020a031681565b604051620000ad9190620003fa565b60405180910390f35b620000cd620000c7366004620005ec565b62000149565b005b620000cd620000e0366004620006fe565b62000262565b6200009e620000f736600462000730565b600090815260026020526040902054600160a060020a031690565b6200009e62000359565b6200012660015481565b604051908152602001620000ad565b6003546200009e90600160a060020a031681565b620001536200038e565b600554600160a060020a03163314620001a15760405160e560020a62461bcd028152602060048201526005602482015260da60020a6408599858dd0260448201526064015b60405180910390fd5b6003546004546040513392600160a060020a03908116921690329086908c908c908c908c908c908b90620001d590620003ec565b620001eb9b9a999897969594939291906200081f565b604051809103906000f08015801562000208573d6000803e3d6000fd5b506001805460009081526002602052604081208054600160a060020a031916600160a060020a03949094169390931790925580549091906200024a9062000914565b90915550620002596001600055565b50505050505050565b60035460405160e260020a6326a8d83b028152600160a060020a0390911690639aa360ec9062000297903390600401620003fa565b602060405180830381865afa158015620002b5573d6000803e3d6000fd5b505050506040513d601f19601f82011682018060405250810190620002db919062000930565b620002e557600080fd5b60055460a060020a900460ff1615620003305760405160e560020a62461bcd0281526004016200019890602080825260049082015260e260020a631a5b9a5d02604082015260600190565b60058054600160a060020a03909216600160a860020a03199092169190911760a060020a179055565b600060026000600180546200036f919062000954565b8152602081019190915260400160002054600160a060020a0316919050565b600260005403620003e55760405160e560020a62461bcd02815260206004820152601f60248201527f5265656e7472616e637947756172643a207265656e7472616e742063616c6c00604482015260640162000198565b6002600055565b61422d806200097183390190565b600160a060020a0391909116815260200190565b60e060020a634e487b710260009081526041600452602490fd5b600082601f8301126200043a57600080fd5b81356001604060020a03808211156200045757620004576200040e565b604051601f8301601f19908116603f011681019082821181831017156200048257620004826200040e565b816040528381528660208588010111156200049c57600080fd5b836020870160208301376000602085830101528094505050505092915050565b600060408284031215620004cf57600080fd5b604080519081016001604060020a038082118383101715620004f557620004f56200040e565b816040528293508435835260208501359150808211156200051557600080fd5b50620005248582860162000428565b6020830152505092915050565b6000606082840312156200054457600080fd5b604051606081016001604060020a0380821183831017156200056a576200056a6200040e565b8160405282935084359150808211156200058357600080fd5b620005918683870162000428565b83526020850135915080821115620005a857600080fd5b620005b68683870162000428565b60208401526040850135915080821115620005d057600080fd5b50620005df8582860162000428565b6040830152505092915050565b600080600080600080600060e0888a0312156200060857600080fd5b87356001604060020a03808211156200062057600080fd5b6200062e8b838c0162000428565b985060208a01359150808211156200064557600080fd5b620006538b838c01620004bc565b975060408a01359150808211156200066a57600080fd5b620006788b838c0162000428565b965060608a01359150808211156200068f57600080fd5b6200069d8b838c0162000428565b955060808a0135915080821115620006b457600080fd5b620006c28b838c0162000428565b945060a08a0135935060c08a0135915080821115620006e057600080fd5b50620006ef8a828b0162000531565b91505092959891949750929550565b6000602082840312156200071157600080fd5b8135600160a060020a03811681146200072957600080fd5b9392505050565b6000602082840312156200074357600080fd5b5035919050565b600160a060020a03169052565b6000815180845260005b818110156200077f5760208185018101518683018201520162000761565b506000602082860101526020601f19601f83011685010191505092915050565b805182526000602082015160406020850152620007c0604085018262000757565b949350505050565b6000815160608452620007df606085018262000757565b905060208301518482036020860152620007fa828262000757565b9150506040830151848203604086015262000816828262000757565b95945050505050565b600160a060020a038c16815260006101606200083f602084018e6200074a565b6200084e604084018d6200074a565b6200085d606084018c6200074a565b8960808401528060a0840152620008778184018a62000757565b905082810360c08401526200088d81896200079f565b905082810360e0840152620008a3818862000757565b9050828103610100840152620008ba818762000757565b9050828103610120840152620008d1818662000757565b9050828103610140840152620008e88185620007c8565b9e9d5050505050505050505050505050565b60e060020a634e487b710260009081526011600452602490fd5b600060018201620009295762000929620008fa565b5060010190565b6000602082840312156200094357600080fd5b815180151581146200072957600080fd5b818103818111156200096a576200096a620008fa565b9291505056fe60806040523480156200001157600080fd5b506040516200422d3803806200422d83398101604081905262000034916200037b565b60158054600160a060020a038d8116600160a060020a03199283161790925560138054601480548e8616908516179055600080548d8616941693909317909255600d8a9055918c166101000260ff1916600160a860020a03199091161790556002620000a187826200059f565b50845160049081556020860151869190600590620000c090826200059f565b5060039150620000d3905085826200059f565b506008620000e284826200059f565b506009620000f183826200059f565b5080516010906200010390826200059f565b5060208101516011906200011890826200059f565b5060408101516012906200012d90826200059f565b50505050505050505050505062000671565b8051600160a060020a03811681146200015757600080fd5b919050565b7f4e487b7100000000000000000000000000000000000000000000000000000000600052604160045260246000fd5b604051601f8201601f191681016001604060020a0381118282101715620001b657620001b66200015c565b604052919050565b600082601f830112620001d057600080fd5b81516001604060020a03811115620001ec57620001ec6200015c565b602062000202601f8301601f191682016200018b565b82815285828487010111156200021757600080fd5b60005b83811015620002375785810183015182820184015282016200021a565b506000928101909101919091529392505050565b6000604082840312156200025e57600080fd5b604051604081016001604060020a0382821081831117156200028457620002846200015c565b81604052829350845183526020850151915080821115620002a457600080fd5b50620002b385828601620001be565b6020830152505092915050565b600060608284031215620002d357600080fd5b604051606081016001604060020a038282108183111715620002f957620002f96200015c565b8160405282935084519150808211156200031257600080fd5b6200032086838701620001be565b835260208501519150808211156200033757600080fd5b6200034586838701620001be565b602084015260408501519150808211156200035f57600080fd5b506200036e85828601620001be565b6040830152505092915050565b60008060008060008060008060008060006101608c8e0312156200039e57600080fd5b620003a98c6200013f565b9a50620003b960208d016200013f565b9950620003c960408d016200013f565b9850620003d960608d016200013f565b975060808c0151965060a08c01516001604060020a03811115620003fc57600080fd5b6200040a8e828f01620001be565b96505060c08c01516001604060020a038111156200042757600080fd5b620004358e828f016200024b565b95505060e08c01516001604060020a038111156200045257600080fd5b620004608e828f01620001be565b9450506101008c01516001604060020a038111156200047e57600080fd5b6200048c8e828f01620001be565b9350506101208c01516001604060020a03811115620004aa57600080fd5b620004b88e828f01620001be565b9250506101408c01516001604060020a03811115620004d657600080fd5b620004e48e828f01620002c0565b9150509295989b509295989b9093969950565b6002810460018216806200050c57607f821691505b60208210810362000546577f4e487b7100000000000000000000000000000000000000000000000000000000600052602260045260246000fd5b50919050565b601f8211156200059a576000818152602081206020601f86010481016020861015620005755750805b6020601f860104820191505b81811015620005965782815560010162000581565b5050505b505050565b81516001604060020a03811115620005bb57620005bb6200015c565b620005d381620005cc8454620004f7565b846200054c565b602080601f8311600181146200060f5760008415620005f25750858301515b60028086026008870290910a600019041982161786555062000596565b600085815260208120601f198616915b8281101562000640578886015182559484019460019091019084016200061f565b50858210156200066157878501516008601f88160260020a60001904191681555b5050505050600202600101905550565b613bac80620006816000396000f3fe60806040526004361061018c5760e060020a600035046302197c55811461019157806302d8ee9c146101bd57806308551a53146101df578063142ebf3c1461020c5780631e86221f1461022c578063200d2ed2146102415780632d90d70d14610268578063343bf40e1461028c5780633440543a146102bd578063356cd0dc146102d45780633fcbe5da146102e95780634e9448e914610309578063595210ad146103295780635b9021341461034957806368ccaa521461035f57806370e066f61461038357806370ec9d54146103985780637150d8ae146103bd5780637384001c146103dd57806385e14a48146103f25780638dada6d81461040c5780638f965d8014610421578063975a177314610451578063b06bec3e14610467578063c2bd884b1461047a578063d2ef033c1461049f578063d55a17c0146104bf578063de11c94a146104d4578063e29b9e97146104f4578063e67d55231461050a578063e9d13b571461051f578063f4a84e0f14610534578063fd7d6df414610549578063fddd56c514610569575b600080fd5b34801561019d57600080fd5b506101a661057e565b6040516101b492919061305e565b60405180910390f35b3480156101c957600080fd5b506101d2610615565b6040516101b4919061307f565b3480156101eb57600080fd5b506000546101ff90600160a060020a031681565b6040516101b49190613092565b34801561021857600080fd5b506014546101ff90600160a060020a031681565b34801561023857600080fd5b506101d26106a3565b34801561024d57600080fd5b5060135461025b9060ff1681565b6040516101b491906130d4565b34801561027457600080fd5b5061027e600f5481565b6040519081526020016101b4565b34801561029857600080fd5b506017546102ad9060a860020a900460ff1681565b60405190151581526020016101b4565b3480156102c957600080fd5b506102d26106b0565b005b3480156102e057600080fd5b506101d2610ad8565b3480156102f557600080fd5b506102d26103043660046131c3565b610ae5565b34801561031557600080fd5b506102d2610324366004613354565b610c8e565b34801561033557600080fd5b506102d26103443660046133b0565b611260565b34801561035557600080fd5b5061027e600e5481565b34801561036b57600080fd5b506103746114f9565b6040516101b4939291906133e4565b34801561038f57600080fd5b506101d26116a7565b3480156103a457600080fd5b506017546101ff906101009004600160a060020a031681565b3480156103c957600080fd5b506001546101ff90600160a060020a031681565b3480156103e957600080fd5b506102d26116b4565b3480156103fe57600080fd5b5060175461025b9060ff1681565b34801561041857600080fd5b506101d26119b1565b34801561042d57600080fd5b5061044161043c366004613427565b6119be565b6040516101b49493929190613440565b34801561045d57600080fd5b5061027e600c5481565b6102d261047536600461348d565b611b9f565b34801561048657600080fd5b506013546101ff906101009004600160a060020a031681565b3480156104ab57600080fd5b506102d26104ba366004613519565b611eef565b3480156104cb57600080fd5b506102d261250b565b3480156104e057600080fd5b506015546101ff90600160a060020a031681565b34801561050057600080fd5b5061027e600d5481565b34801561051657600080fd5b506101d2612721565b34801561052b57600080fd5b506102d261272e565b34801561054057600080fd5b50600a5461027e565b34801561055557600080fd5b506102d2610564366004613519565b612983565b34801561057557600080fd5b506101a6612cbb565b600480546005805491929161059290613536565b80601f01602080910402602001604051908101604052809291908181526020018280546105be90613536565b801561060b5780601f106105e05761010080835404028352916020019161060b565b820191906000526020600020905b8154815290600101906020018083116105ee57829003601f168201915b5050505050905082565b6003805461062290613536565b80601f016020809104026020016040519081016040528092919081815260200182805461064e90613536565b801561069b5780601f106106705761010080835404028352916020019161069b565b820191906000526020600020905b81548152906001019060200180831161067e57829003601f168201915b505050505081565b6002805461062290613536565b600154600160a060020a03163381146106e75760405160e560020a62461bcd0281526004016106de90613574565b60405180910390fd5b600260135460ff166009811115610700576107006130a6565b14806107225750600460135460ff166009811115610720576107206130a6565b145b6107675760405160e560020a62461bcd0281526020600482015260106024820152608160020a6f3a393239ba3990b1b7b6b6be30b1ba170260448201526064016106de565b6013805460ff1916600617905560145460005460405160e160020a6321f11cdd028152600160a060020a03928316926343e239ba926107ae92309290911690600401613597565b600060405180830381600087803b1580156107c857600080fd5b505af11580156107dc573d6000803e3d6000fd5b50506015546000805460405160e160020a633188e179028152919450600160a060020a039283169350636311c2f29261081e92600392909116906004016135b1565b6020604051808303816000875af115801561083d573d6000803e3d6000fd5b505050506040513d601f19601f82011682018060405250810190610861919061364b565b9050806108ae5760405160e560020a62461bcd0281526020600482015260156024820152605a60020a74191a591b89dd081c995b5bdd99481d1c98591952590260448201526064016106de565b60008054600c54604051600160a060020a03909216918381818185875af1925050503d80600081146108fc576040519150601f19603f3d011682016040523d82523d6000602084013e610901565b606091505b50509050806109535760405160e560020a62461bcd0281526020600482015260186024820152604060020a774661696c7572652c206574686572206e6f742073656e74210260448201526064016106de565b60145460005460135460405160e060020a63fe4162d1028152600160a060020a039384169363fe4162d193610995933093919092169160ff1690600401613668565b600060405180830381600087803b1580156109af57600080fd5b505af11580156109c3573d6000803e3d6000fd5b505060145460015460135460405160e060020a63fe4162d1028152600160a060020a03938416955063fe4162d19450610a06933093169160ff1690600401613668565b600060405180830381600087803b158015610a2057600080fd5b505af1158015610a34573d6000803e3d6000fd5b505050506000610a45600d54612ccf565b604051602001610a5591906136ba565b60408051601f198184030181529082905260155460135460e160020a634cd955e3028452919350600160a060020a0316916399b2abc691610aa09160ff9091169085906004016136f5565b600060405180830381600087803b158015610aba57600080fd5b505af1158015610ace573d6000803e3d6000fd5b5050505050505050565b6016805461062290613536565b601554600160a060020a031633148015610b09575060175460a860020a900460ff16155b610b465760405160e560020a62461bcd028152602060048201526008602482015260c060020a6721666163746f72790260448201526064016106de565b6017805460a860020a60ff02191660a860020a17905560005b8251811015610c0857600a838281518110610b7c57610b7c613715565b60209081029190910181015182546001810184556000938452919092208251600490920201908190610bae9082613775565b5060208201516001820190610bc39082613775565b50604082015160028201805460ff191660ff90921691909117905560608201516003820190610bf29082613775565b5050508080610c0090613854565b915050610b5f565b506014546000805460405160e060020a63116fd649028152600160a060020a039384169363116fd64993610c48933093600193909116919060040161386d565b600060405180830381600087803b158015610c6257600080fd5b505af1158015610c76573d6000803e3d6000fd5b5050505080600b9081610c899190613775565b505050565b60135460405160e760020a63012875b1028152610100909104600160a060020a03169063943ad88090610cc5903390600401613092565b602060405180830381865afa158015610ce2573d6000803e3d6000fd5b505050506040513d601f19601f82011682018060405250810190610d06919061364b565b80610d87575060135460405160e060020a63fd6aad25028152610100909104600160a060020a03169063fd6aad2590610d43903390600401613092565b602060405180830381865afa158015610d60573d6000803e3d6000fd5b505050506040513d601f19601f82011682018060405250810190610d8491906138b3565b15155b610dc95760405160e560020a62461bcd02815260206004820152600d6024820152609a60020a6c085ad95c1c881bdc881bdc98db0260448201526064016106de565b600760135460ff166009811115610de257610de26130a6565b14610e1d5760405160e560020a62461bcd028152602060048201526005602482015260dc60020a6402164697370260448201526064016106de565b6015546000805460405160e160020a633188e1790281529192600160a060020a0390811692636311c2f292610e5a926003929116906004016135b1565b6020604051808303816000875af1158015610e79573d6000803e3d6000fd5b505050506040513d601f19601f82011682018060405250810190610e9d919061364b565b905080610ebf5760405160e560020a62461bcd0281526004016106de906138cc565b8415610f8157600960135460ff166009811115610ede57610ede6130a6565b50508115610f7c57600154600c54604051600092600160a060020a031691908381818185875af1925050503d8060008114610f35576040519150601f19603f3d011682016040523d82523d6000602084013e610f3a565b606091505b5050905080610f7a5760405160e560020a62461bcd0281526004016106de90602080825260049082015260e260020a63085cdb9d02604082015260600190565b505b611028565b6013805460ff1916600817905581156110285760008054600c54604051600160a060020a03909216918381818185875af1925050503d8060008114610fe2576040519150601f19603f3d011682016040523d82523d6000602084013e610fe7565b606091505b50509050806110265760405160e560020a62461bcd028152602060048201526005602482015260d960020a6410b9b73a190260448201526064016106de565b505b83156110985760145460005460405160e160020a6329ca0ea7028152600160a060020a03928316926353941d4e9261106592911690600401613092565b600060405180830381600087803b15801561107f57600080fd5b505af1158015611093573d6000803e3d6000fd5b505050505b82156111085760145460015460405160e160020a6329ca0ea7028152600160a060020a03928316926353941d4e926110d592911690600401613092565b600060405180830381600087803b1580156110ef57600080fd5b505af1158015611103573d6000803e3d6000fd5b505050505b60145460005460135460405160e060020a63fe4162d1028152600160a060020a039384169363fe4162d19361114a933093919092169160ff1690600401613668565b600060405180830381600087803b15801561116457600080fd5b505af1158015611178573d6000803e3d6000fd5b505060145460015460135460405160e060020a63fe4162d1028152600160a060020a03938416955063fe4162d194506111bb933093169160ff1690600401613668565b600060405180830381600087803b1580156111d557600080fd5b505af11580156111e9573d6000803e3d6000fd5b505060155460135460405160e160020a634cd955e3028152600160a060020a0390921693506399b2abc692506112279160ff909116906004016138f1565b600060405180830381600087803b15801561124157600080fd5b505af1158015611255573d6000803e3d6000fd5b505050505050505050565b600054600154600160a060020a03918216911633821480611289575033600160a060020a038216145b6112c45760405160e560020a62461bcd028152602060048201526006602482015260d460020a6502167726f7570260448201526064016106de565b600760135460ff1660098111156112dd576112dd6130a6565b141580156113025750600860135460ff1660098111156112ff576112ff6130a6565b14155b80156113255750600960135460ff166009811115611322576113226130a6565b14155b6113645760405160e560020a62461bcd02815260206004820152600a602482015260b060020a69616c72656164794469730260448201526064016106de565b60138054600760ff19918216811790925560178054600160a860020a031916336101000290921691909117909117905560166113a08482613775565b5060145460005460135460405160e060020a63fe4162d1028152600160a060020a039384169363fe4162d1936113e3933093919092169160ff1690600401613668565b600060405180830381600087803b1580156113fd57600080fd5b505af1158015611411573d6000803e3d6000fd5b505060145460015460135460405160e060020a63fe4162d1028152600160a060020a03938416955063fe4162d19450611454933093169160ff1690600401613668565b600060405180830381600087803b15801561146e57600080fd5b505af1158015611482573d6000803e3d6000fd5b505060155460135460405160e160020a634cd955e3028152600160a060020a0390921693506399b2abc692506114c29160ff9091169087906004016136f5565b600060405180830381600087803b1580156114dc57600080fd5b505af11580156114f0573d6000803e3d6000fd5b50505050505050565b60108054819061150890613536565b80601f016020809104026020016040519081016040528092919081815260200182805461153490613536565b80156115815780601f1061155657610100808354040283529160200191611581565b820191906000526020600020905b81548152906001019060200180831161156457829003601f168201915b50505050509080600101805461159690613536565b80601f01602080910402602001604051908101604052809291908181526020018280546115c290613536565b801561160f5780601f106115e45761010080835404028352916020019161160f565b820191906000526020600020905b8154815290600101906020018083116115f257829003601f168201915b50505050509080600201805461162490613536565b80601f016020809104026020016040519081016040528092919081815260200182805461165090613536565b801561169d5780601f106116725761010080835404028352916020019161169d565b820191906000526020600020905b81548152906001019060200180831161168057829003601f168201915b5050505050905083565b6008805461062290613536565b600054600160a060020a03163381146116e25760405160e560020a62461bcd0281526004016106de90613574565b600460135460ff1660098111156116fb576116fb6130a6565b1461171b5760405160e560020a62461bcd0281526004016106de90613912565b600e5461172b906203f48061393a565b4210156117745760405160e560020a62461bcd0281526020600482015260116024820152607a60020a700cc819185e5cc81b9bdd081c185cdcd9590260448201526064016106de565b6013805460ff1916600617905560145460005460405160e160020a6321f11cdd028152600160a060020a03928316926343e239ba926117bb92309290911690600401613597565b600060405180830381600087803b1580156117d557600080fd5b505af11580156117e9573d6000803e3d6000fd5b505060145460005460135460405160e060020a63fe4162d1028152600160a060020a03938416955063fe4162d1945061182c933093169160ff1690600401613668565b600060405180830381600087803b15801561184657600080fd5b505af115801561185a573d6000803e3d6000fd5b505060145460015460135460405160e060020a63fe4162d1028152600160a060020a03938416955063fe4162d1945061189d933093169160ff1690600401613668565b600060405180830381600087803b1580156118b757600080fd5b505af11580156118cb573d6000803e3d6000fd5b505060008054600c54604051929450600160a060020a039091169250908381818185875af1925050503d8060008114611920576040519150601f19603f3d011682016040523d82523d6000602084013e611925565b606091505b50509050806119495760405160e560020a62461bcd0281526004016106de9061394d565b6000611956600d54612ccf565b6040516020016119669190613971565b60408051601f198184030181529082905260155460135460e160020a634cd955e3028452919350600160a060020a0316916399b2abc6916114c29160ff9091169085906004016136f5565b600b805461062290613536565b600a81815481106119ce57600080fd5b90600052602060002090600402016000915090508060000180546119f190613536565b80601f0160208091040260200160405190810160405280929190818152602001828054611a1d90613536565b8015611a6a5780601f10611a3f57610100808354040283529160200191611a6a565b820191906000526020600020905b815481529060010190602001808311611a4d57829003601f168201915b505050505090806001018054611a7f90613536565b80601f0160208091040260200160405190810160405280929190818152602001828054611aab90613536565b8015611af85780601f10611acd57610100808354040283529160200191611af8565b820191906000526020600020905b815481529060010190602001808311611adb57829003601f168201915b5050506002840154600385018054949560ff909216949193509150611b1c90613536565b80601f0160208091040260200160405190810160405280929190818152602001828054611b4890613536565b8015611b955780601f10611b6a57610100808354040283529160200191611b95565b820191906000526020600020905b815481529060010190602001808311611b7857829003601f168201915b5050505050905084565b600060135460ff166009811115611bb857611bb86130a6565b14611bfa5760405160e560020a62461bcd02815260206004820152600c602482015260a160020a6b3a39321039ba1010b832b7170260448201526064016106de565b600d54341015611c3b5760405160e560020a62461bcd028152602060048201526006602482015260d060020a652176616c75650260448201526064016106de565b600054600160a060020a03163303611c855760405160e560020a62461bcd028152602060048201526007602482015260c960020a6610b9b2b63632b90260448201526064016106de565b6013805460ff1916600217905542600f5560145460005460405160e060020a637f1b5565028152600160a060020a0392831692637f1b556592611cd092309290911690600401613597565b600060405180830381600087803b158015611cea57600080fd5b505af1158015611cfe573d6000803e3d6000fd5b505060018054600160a060020a031916331790555050805160069081556020820151829190600790611d309082613775565b505034600c5550600454600090611d4690612ccf565b8251600590611d5490612ccf565b8460200151611d6233612d64565b611d6d600d54612ccf565b604051602001611d829695949392919061398d565b60408051601f198184030181529082905260145460005460135460e060020a63fe4162d1028552929450600160a060020a039182169363fe4162d193611dd4933093169160ff90911690600401613668565b600060405180830381600087803b158015611dee57600080fd5b505af1158015611e02573d6000803e3d6000fd5b505060145460015460135460405160e060020a63116fd649028152600160a060020a03938416955063116fd6499450611e4b93309360009391169160ff9091169060040161386d565b600060405180830381600087803b158015611e6557600080fd5b505af1158015611e79573d6000803e3d6000fd5b505060155460135460405160e160020a634cd955e3028152600160a060020a0390921693506399b2abc69250611eb99160ff9091169085906004016136f5565b600060405180830381600087803b158015611ed357600080fd5b505af1158015611ee7573d6000803e3d6000fd5b505050505050565b60135460405160e760020a63012875b1028152610100909104600160a060020a03169063943ad88090611f26903390600401613092565b602060405180830381865afa158015611f43573d6000803e3d6000fd5b505050506040513d601f19601f82011682018060405250810190611f67919061364b565b611f7057600080fd5b600260135460ff166009811115611f8957611f896130a6565b1480611fab5750600460135460ff166009811115611fa957611fa96130a6565b145b611fec5760405160e560020a62461bcd02815260206004820152600c602482015260a060020a6b747264737473213e636f6d6d0260448201526064016106de565b8015612268576013805460ff1916600617905560145460005460405160e160020a6321f11cdd028152600160a060020a03928316926343e239ba9261203992309290911690600401613597565b600060405180830381600087803b15801561205357600080fd5b505af1158015612067573d6000803e3d6000fd5b505060145460005460135460405160e060020a63fe4162d1028152600160a060020a03938416955063fe4162d194506120aa933093169160ff1690600401613668565b600060405180830381600087803b1580156120c457600080fd5b505af11580156120d8573d6000803e3d6000fd5b505060145460015460135460405160e060020a63fe4162d1028152600160a060020a03938416955063fe4162d1945061211b933093169160ff1690600401613668565b600060405180830381600087803b15801561213557600080fd5b505af1158015612149573d6000803e3d6000fd5b505060008054600c54604051929450600160a060020a039091169250908381818185875af1925050503d806000811461219e576040519150601f19603f3d011682016040523d82523d6000602084013e6121a3565b606091505b50509050806121c75760405160e560020a62461bcd0281526004016106de9061394d565b60006121d4600d54612ccf565b6040516020016121e49190613971565b60408051601f198184030181529082905260155460135460e160020a634cd955e3028452919350600160a060020a0316916399b2abc69161222f9160ff9091169085906004016136f5565b600060405180830381600087803b15801561224957600080fd5b505af115801561225d573d6000803e3d6000fd5b505050505050612465565b60138054600960ff198216811790925560145460005460405160e060020a63fe4162d102815260ff90931693600160a060020a039283169363fe4162d1936122b7933093911691600401613668565b600060405180830381600087803b1580156122d157600080fd5b505af11580156122e5573d6000803e3d6000fd5b50600292506122f2915050565b816009811115612304576123046130a6565b1061237e5760145460015460135460405160e060020a63fe4162d1028152600160a060020a039384169363fe4162d19361234b933093919092169160ff1690600401613668565b600060405180830381600087803b15801561236557600080fd5b505af1158015612379573d6000803e3d6000fd5b505050505b600154600c54604051600092600160a060020a031691908381818185875af1925050503d80600081146123cd576040519150601f19603f3d011682016040523d82523d6000602084013e6123d2565b606091505b50509050806123f65760405160e560020a62461bcd0281526004016106de9061394d565b60155460135460405160e160020a634cd955e3028152600160a060020a03909216916399b2abc6916124309160ff90911690600401613a82565b600060405180830381600087803b15801561244a57600080fd5b505af115801561245e573d6000803e3d6000fd5b5050505050505b6015546000805460405160e160020a633188e1790281529192600160a060020a0390811692636311c2f2926124a2926003929116906004016135b1565b6020604051808303816000875af11580156124c1573d6000803e3d6000fd5b505050506040513d601f19601f820116820180604052508101906124e5919061364b565b9050806125075760405160e560020a62461bcd0281526004016106de906138cc565b5050565b600054600160a060020a03163381146125395760405160e560020a62461bcd0281526004016106de90613574565b600060135460ff166009811115612552576125526130a6565b1461258f5760405160e560020a62461bcd028152602060048201526007602482015260c960020a6639ba1010b832b70260448201526064016106de565b6013805460ff1916600190811790915560145460005460405160e060020a63fe4162d1028152600160a060020a039283169363fe4162d1936125d993309391169190600401613668565b600060405180830381600087803b1580156125f357600080fd5b505af1158015612607573d6000803e3d6000fd5b505050506000612618600d54612ccf565b6040516020016126289190613971565b60408051601f198184030181529082905260155460135460e160020a634cd955e3028452919350600160a060020a0316916399b2abc6916126739160ff9091169085906004016136f5565b600060405180830381600087803b15801561268d57600080fd5b505af11580156126a1573d6000803e3d6000fd5b505060155460005460405160e160020a633188e179028152600160a060020a039283169450636311c2f293506126de9260039216906004016135b1565b6020604051808303816000875af11580156126fd573d6000803e3d6000fd5b505050506040513d601f19601f82011682018060405250810190610c89919061364b565b6009805461062290613536565b600154600160a060020a031633811461275c5760405160e560020a62461bcd0281526004016106de90613574565b600260135460ff166009811115612775576127756130a6565b146127955760405160e560020a62461bcd0281526004016106de90613912565b600f546127a49061012c61393a565b4210156127e25760405160e560020a62461bcd028152602060048201526006602482015260d060020a6521356d6e74730260448201526064016106de565b6013805460ff1916600390811790915560145460005460405160e060020a63fe4162d1028152600160a060020a039283169363fe4162d19361282c93309391169190600401613668565b600060405180830381600087803b15801561284657600080fd5b505af115801561285a573d6000803e3d6000fd5b505060145460015460135460405160e060020a63fe4162d1028152600160a060020a03938416955063fe4162d1945061289d933093169160ff1690600401613668565b600060405180830381600087803b1580156128b757600080fd5b505af11580156128cb573d6000803e3d6000fd5b5050600154600c5460405160009450600160a060020a039092169250908381818185875af1925050503d8060008114612920576040519150601f19603f3d011682016040523d82523d6000602084013e612925565b606091505b50509050806129495760405160e560020a62461bcd0281526004016106de90613ab9565b60155460135460405160e160020a634cd955e3028152600160a060020a03909216916399b2abc691611eb99160ff90911690600401613ada565b600054600160a060020a03163381146129b15760405160e560020a62461bcd0281526004016106de90613574565b600260135460ff1660098111156129ca576129ca6130a6565b146129ea5760405160e560020a62461bcd0281526004016106de90613912565b8115612b1a576013805460ff1916600490811790915542600e5560145460005460405160e060020a63fe4162d1028152600160a060020a039283169363fe4162d193612a3d933093911691908101613668565b600060405180830381600087803b158015612a5757600080fd5b505af1158015612a6b573d6000803e3d6000fd5b505060145460015460135460405160e060020a63fe4162d1028152600160a060020a03938416955063fe4162d19450612aae933093169160ff1690600401613668565b600060405180830381600087803b158015612ac857600080fd5b505af1158015612adc573d6000803e3d6000fd5b505060155460135460405160e160020a634cd955e3028152600160a060020a0390921693506399b2abc69250611eb99160ff909116906004016138f1565b6013805460ff1916600590811790915560145460005460405160e060020a63fe4162d1028152600160a060020a039283169363fe4162d193612b6493309391169190600401613668565b600060405180830381600087803b158015612b7e57600080fd5b505af1158015612b92573d6000803e3d6000fd5b505060145460015460135460405160e060020a63fe4162d1028152600160a060020a03938416955063fe4162d19450612bd5933093169160ff1690600401613668565b600060405180830381600087803b158015612bef57600080fd5b505af1158015612c03573d6000803e3d6000fd5b5050600154600c5460405160009450600160a060020a039092169250908381818185875af1925050503d8060008114612c58576040519150601f19603f3d011682016040523d82523d6000602084013e612c5d565b606091505b5050905080612c815760405160e560020a62461bcd0281526004016106de90613ab9565b60155460135460405160e160020a634cd955e3028152600160a060020a03909216916399b2abc6916114c29160ff90911690600401613b11565b600680546007805491929161059290613536565b60606000612cdc83612d80565b60010190506000816001604060020a03811115612cfb57612cfb6130e2565b6040519080825280601f01601f191660200182016040528015612d25576020820181803683370190505b5090508181016020015b60001901608160020a6f181899199a1a9b1b9c1cb0b131b232b302600a86061a8153600a8504945084612d2f57509392505050565b6060612d7a600160a060020a0383166014612e5e565b92915050565b600080604060020a72184f03e93ff9f4daa797ed6e38ed64bf6a1f01028310612dc557604060020a72184f03e93ff9f4daa797ed6e38ed64bf6a1f0102830492506040015b6d04ee2d6d415b85acef81000000008310612df1576d04ee2d6d415b85acef8100000000830492506020015b662386f26fc100008310612e0f57662386f26fc10000830492506010015b6305f5e1008310612e27576305f5e100830492506008015b6127108310612e3b57612710830492506004015b60648310612e4d576064830492506002015b600a8310612d7a5760010192915050565b60606000612e6d836002613b48565b612e7890600261393a565b6001604060020a03811115612e8f57612e8f6130e2565b6040519080825280601f01601f191660200182016040528015612eb9576020820181803683370190505b50905060fc60020a60030281600081518110612ed757612ed7613715565b6020010190600160f860020a031916908160001a90535060fb60020a600f0281600181518110612f0957612f09613715565b6020010190600160f860020a031916908160001a9053506000612f2d846002613b48565b612f3890600161393a565b90505b6001811115612fb557608160020a6f181899199a1a9b1b9c1cb0b131b232b30285600f1660108110612f6f57612f6f613715565b1a60f860020a02828281518110612f8857612f88613715565b6020010190600160f860020a031916908160001a905350601090940493612fae81613b5f565b9050612f3b565b5083156130075760405160e560020a62461bcd02815260206004820181905260248201527f537472696e67733a20686578206c656e67746820696e73756666696369656e7460448201526064016106de565b9392505050565b60005b83811015613029578181015183820152602001613011565b50506000910152565b6000815180845261304a81602086016020860161300e565b601f01601f19169290920160200192915050565b8281526040602082015260006130776040830184613032565b949350505050565b6020815260006130076020830184613032565b600160a060020a0391909116815260200190565b60e060020a634e487b710260009081526021600452602490fd5b600a81106130d0576130d06130a6565b9052565b60208101612d7a82846130c0565b60e060020a634e487b710260009081526041600452602490fd5b604051608081016001604060020a038111828210171561311e5761311e6130e2565b60405290565b604051601f8201601f191681016001604060020a038111828210171561314c5761314c6130e2565b604052919050565b600082601f83011261316557600080fd5b81356001604060020a0381111561317e5761317e6130e2565b613191601f8201601f1916602001613124565b8181528460208386010111156131a657600080fd5b816020850160208301376000918101602001919091529392505050565b600080604083850312156131d657600080fd5b82356001604060020a03808211156131ed57600080fd5b818501915085601f83011261320157600080fd5b8135602082821115613215576132156130e2565b808202613223828201613124565b928352848101820192828101908a85111561323d57600080fd5b83870192505b848310156133155782358681111561325b5760008081fd5b87016080818d03601f19018113156132735760008081fd5b61327b6130fc565b868301358981111561328d5760008081fd5b61329b8f8983870101613154565b8252506040830135898111156132b15760008081fd5b6132bf8f8983870101613154565b888301525060608084013560ff811681146132da5760008081fd5b60408301529183013591898311156132f25760008081fd5b6133008f8985870101613154565b90820152845250509183019190830190613243565b975050508601359250508082111561332c57600080fd5b5061333985828601613154565b9150509250929050565b801515811461335157600080fd5b50565b6000806000806080858703121561336a57600080fd5b843561337581613343565b9350602085013561338581613343565b9250604085013561339581613343565b915060608501356133a581613343565b939692955090935050565b6000602082840312156133c257600080fd5b81356001604060020a038111156133d857600080fd5b61307784828501613154565b6060815260006133f76060830186613032565b82810360208401526134098186613032565b9050828103604084015261341d8185613032565b9695505050505050565b60006020828403121561343957600080fd5b5035919050565b6080815260006134536080830187613032565b82810360208401526134658187613032565b905060ff8516604084015282810360608401526134828185613032565b979650505050505050565b60006020828403121561349f57600080fd5b81356001604060020a03808211156134b657600080fd5b90830190604082860312156134ca57600080fd5b6040516040810181811083821117156134e5576134e56130e2565b604052823581526020830135828111156134fe57600080fd5b61350a87828601613154565b60208301525095945050505050565b60006020828403121561352b57600080fd5b813561300781613343565b60028104600182168061354a57607f821691505b60208210810361356e5760e060020a634e487b710260009081526022600452602490fd5b50919050565b602080825260069082015260d060020a6521706172747902604082015260600190565b600160a060020a0392831681529116602082015260400190565b6040815260008084546135c381613536565b80604086015260606001808416600081146135e557600181146135ff57613630565b60ff19851688840152602084151502880183019550613630565b8960005260208060002060005b868110156136275781548b820187015290840190820161360c565b8a018501975050505b50505050600160a060020a0385166020850152509050613007565b60006020828403121561365d57600080fd5b815161300781613343565b600160a060020a038481168252831660208201526060810161307760408301846130c0565b6000815161369f81856020860161300e565b9290920192915050565b60f260020a611f1f02815260020190565b600082516136cc81846020870161300e565b60f260020a611f1f0292019182525060d260020a65135053955053026002820152600801919050565b6136ff81846130c0565b6040602082015260006130776040830184613032565b60e060020a634e487b710260009081526032600452602490fd5b601f821115610c89576000818152602081206020601f860104810160208610156137565750805b6020601f860104820191505b81811015611ee757828155600101613762565b81516001604060020a0381111561378e5761378e6130e2565b6137a28161379c8454613536565b8461372f565b602080601f8311600181146137db57600084156137bf5750858301515b60028086026008870290910a6000190419821617865550611ee7565b600085815260208120601f198616915b8281101561380a578886015182559484019460019091019084016137eb565b508582101561382a57878501516008601f88160260020a60001904191681555b5050505050600202600101905550565b60e060020a634e487b710260009081526011600452602490fd5b6000600182016138665761386661383a565b5060010190565b600160a060020a03858116825260808201906002861061388f5761388f6130a6565b60208301869052841660408301526138aa60608301846130c0565b95945050505050565b6000602082840312156138c557600080fd5b5051919050565b602080825260089082015260c260020a67085d1c985919525902604082015260600190565b6138fb81836130c0565b604060208201819052600090820152606001919050565b6020808252600b9082015260a860020a6a74726473747321636f6d6d02604082015260600190565b80820180821115612d7a57612d7a61383a565b602080825260079082015260cb60020a66042e6dce88ae8d02604082015260600190565b6000825161398381846020870161300e565b9190910192915050565b6000875161399f818460208c0161300e565b808301905060f860020a602b028152600088546139bb81613536565b6001821680156139d257600181146139ed57613a26565b60ff1983166001860152600182151583028601019350613a26565b8b600052602060002060005b83811015613a1b578154600182890101526001820191506020810190506139f9565b505060018286010193505b505050613a74613a6e613a63613a68613a63613a5d613a4d613a47886136a9565b8f61368d565b60f860020a602b02815260010190565b8c61368d565b6136a9565b8961368d565b8661368d565b9a9950505050505050505050565b613a8c81836130c0565b604060208201819052600a9082015260b260020a6912d3c811115190555315026060820152608001919050565b602080825260049082015260e360020a630428ae8d02604082015260600190565b613ae481836130c0565b604060208201819052600a9082015260b260020a6910954811115190555315026060820152608001919050565b613b1b81836130c0565b604060208201819052600a9082015260b260020a6914d14811115190555315026060820152608001919050565b8082028115828204841417612d7a57612d7a61383a565b600081613b6e57613b6e61383a565b50600019019056fea264697066735822122040ed2151a30c3b3a2da71395cbaf00acb17b9ea2b272ffe9509d3b42bb66dc2364736f6c63430008130033a264697066735822122060e5775ed723dab9015310cbd559ae87ed44c6eb77476bad25efa9dabe7b230d64736f6c63430008130033",
  "immutableReferences": {},
  "source": "// //SPDX-License-Identifier: UNLICENSED\r\npragma solidity 0.8.19;\r\n\r\nimport \"./ITradeFactoryBaseStorage.sol\";\r\n\r\ncontract TradeFactoryBaseStorage is ReentrancyGuard {\r\n    uint256 public totalContracts;\r\n    mapping(uint256 => CSXTrade) tradeContracts;\r\n    IKeepers public keepersContract;\r\n    IUsers public usersContract;\r\n    address factoryAddress;\r\n    bool hasInit;\r\n\r\n    constructor(address _keepers, address _users) {\r\n        // TODO\r\n        keepersContract = IKeepers(_keepers);\r\n        usersContract = IUsers(_users);\r\n    }\r\n\r\n    function init(address _factoryAddress) external {\r\n        require(keepersContract.isCouncil(msg.sender));\r\n        require(!hasInit, \"init\");\r\n        hasInit = true;\r\n        factoryAddress = _factoryAddress;\r\n    }\r\n\r\n    function getTradeContract(uint256 index) external view returns (CSXTrade) {\r\n        return tradeContracts[index];\r\n    }\r\n\r\n    function newTradeContract(\r\n        string memory _itemMarketName,\r\n        TradeUrl memory _tradeUrl,\r\n        string memory _assetId,\r\n        string memory _inspectLink,\r\n        string memory _itemImageUrl,\r\n        uint256 _weiPrice,\r\n        FloatInfo memory _float\r\n    ) external nonReentrant {\r\n        require(factoryAddress == msg.sender, \"!fact\");\r\n        tradeContracts[totalContracts] = new CSXTrade(\r\n            address(msg.sender),\r\n            address(keepersContract),\r\n            address(usersContract),\r\n            tx.origin,\r\n            _weiPrice,\r\n            _itemMarketName,\r\n            _tradeUrl,\r\n            _assetId,\r\n            _inspectLink,\r\n            _itemImageUrl,\r\n            _float\r\n        );\r\n        ++totalContracts;\r\n    }\r\n\r\n    function getTradeContractByIndex(uint256 index)\r\n        external\r\n        view\r\n        returns (CSXTrade)\r\n    {\r\n        return tradeContracts[index];\r\n    }\r\n\r\n    function getLastTradeContractAddress() external view returns (address) {\r\n        return address(tradeContracts[totalContracts - 1]);\r\n    }\r\n}\r\n",
  "sourcePath": "C:\\Users\\Charl\\Documents\\Projects\\SteamMarket\\CSX\\csx-contracts\\contracts\\TradeFactory\\storage\\TradeFactoryBaseStorage.sol",
  "compiler": {
    "name": "solc",
    "version": "0.8.19+commit.7dd6d404.Emscripten.clang"
  },
  "schemaVersion": "3.4.3",
  "updatedAt": "2023-04-09T13:56:03.066Z",
  "networkType": "ethereum",
  "devdoc": {
    "kind": "dev",
    "methods": {},
    "version": 1
  },
  "userdoc": {
    "kind": "user",
    "methods": {},
    "version": 1
  }
}