{
  "contractName": "TradeFactoryBaseStorage",
  "abi": [
    {
      "inputs": [
        {
          "internalType": "address",
          "name": "_keepers",
          "type": "address"
        },
        {
          "internalType": "address",
          "name": "_users",
          "type": "address"
        }
      ],
      "stateMutability": "nonpayable",
      "type": "constructor"
    },
    {
      "inputs": [],
      "name": "keepersContract",
      "outputs": [
        {
          "internalType": "contract IKeepers",
          "name": "",
          "type": "address"
        }
      ],
      "stateMutability": "view",
      "type": "function"
    },
    {
      "inputs": [],
      "name": "totalContracts",
      "outputs": [
        {
          "internalType": "uint256",
          "name": "",
          "type": "uint256"
        }
      ],
      "stateMutability": "view",
      "type": "function"
    },
    {
      "inputs": [],
      "name": "usersContract",
      "outputs": [
        {
          "internalType": "contract IUsers",
          "name": "",
          "type": "address"
        }
      ],
      "stateMutability": "view",
      "type": "function"
    },
    {
      "inputs": [
        {
          "internalType": "address",
          "name": "_factoryAddress",
          "type": "address"
        }
      ],
      "name": "init",
      "outputs": [],
      "stateMutability": "nonpayable",
      "type": "function"
    },
    {
      "inputs": [
        {
          "internalType": "string",
          "name": "_itemMarketName",
          "type": "string"
        },
        {
          "components": [
            {
              "internalType": "uint256",
              "name": "partner",
              "type": "uint256"
            },
            {
              "internalType": "string",
              "name": "token",
              "type": "string"
            }
          ],
          "internalType": "struct TradeUrl",
          "name": "_tradeUrl",
          "type": "tuple"
        },
        {
          "internalType": "string",
          "name": "_assetId",
          "type": "string"
        },
        {
          "internalType": "string",
          "name": "_inspectLink",
          "type": "string"
        },
        {
          "internalType": "string",
          "name": "_itemImageUrl",
          "type": "string"
        },
        {
          "internalType": "uint256",
          "name": "_weiPrice",
          "type": "uint256"
        },
        {
          "components": [
            {
              "internalType": "string",
              "name": "floatValues",
              "type": "string"
            },
            {
              "internalType": "uint256",
              "name": "paintSeed",
              "type": "uint256"
            },
            {
              "internalType": "uint256",
              "name": "paintIndex",
              "type": "uint256"
            }
          ],
          "internalType": "struct SkinInfo",
          "name": "_skinInfo",
          "type": "tuple"
        }
      ],
      "name": "newTradeContract",
      "outputs": [],
      "stateMutability": "nonpayable",
      "type": "function"
    },
    {
      "inputs": [
        {
          "internalType": "uint256",
          "name": "index",
          "type": "uint256"
        }
      ],
      "name": "getTradeContractByIndex",
      "outputs": [
        {
          "internalType": "contract CSXTrade",
          "name": "",
          "type": "address"
        }
      ],
      "stateMutability": "view",
      "type": "function"
    },
    {
      "inputs": [],
      "name": "getLastTradeContractAddress",
      "outputs": [
        {
          "internalType": "address",
          "name": "",
          "type": "address"
        }
      ],
      "stateMutability": "view",
      "type": "function"
    }
  ],
  "bytecode": "0x608060405234801561001057600080fd5b50604051615fe3380380615fe383398101604081905261002f91610081565b600160005560038054600160a060020a03938416600160a060020a031991821617909155600480549290931691161790556100b4565b8051600160a060020a038116811461007c57600080fd5b919050565b6000806040838503121561009457600080fd5b61009d83610065565b91506100ab60208401610065565b90509250929050565b615f20806100c36000396000f3fe60806040523480156200001157600080fd5b5060043610620000a4576000357c01000000000000000000000000000000000000000000000000000000009004806377d60b9a116200007f57806377d60b9a146200011f57806394a792e11462000136578063a09037a91462000140578063c2bd884b146200015957600080fd5b8063142ebf3c14620000a957806319ab453c14620000da5780634eb9c03414620000f3575b600080fd5b600454620000bd90600160a060020a031681565b604051600160a060020a0390911681526020015b60405180910390f35b620000f1620000eb366004620004df565b6200016d565b005b620000bd6200010436600462000511565b600090815260026020526040902054600160a060020a031690565b620000f162000130366004620006e5565b620002d9565b620000bd62000427565b6200014a60015481565b604051908152602001620000d1565b600354620000bd90600160a060020a031681565b6003546040517f9aa360ec000000000000000000000000000000000000000000000000000000008152336004820152600160a060020a0390911690639aa360ec90602401602060405180830381865afa158015620001cf573d6000803e3d6000fd5b505050506040513d601f19601f82011682018060405250810190620001f59190620007f8565b620001ff57600080fd5b60055474010000000000000000000000000000000000000000900460ff161562000291576040517f08c379a0000000000000000000000000000000000000000000000000000000008152600401620002889060208082526004908201527f696e697400000000000000000000000000000000000000000000000000000000604082015260600190565b60405180910390fd5b60058054600160a060020a0390921674ffffffffffffffffffffffffffffffffffffffffff199092169190911774010000000000000000000000000000000000000000179055565b620002e36200045c565b600554600160a060020a0316331462000359576040517f08c379a000000000000000000000000000000000000000000000000000000000815260206004820152600560248201527f2166616374000000000000000000000000000000000000000000000000000000604482015260640162000288565b6003546004546040513392600160a060020a03908116921690329086908c908c908c908c908c908b906200038d90620004d1565b620003a39b9a99989796959493929190620008c4565b604051809103906000f080158015620003c0573d6000803e3d6000fd5b50600180546000908152600260205260408120805473ffffffffffffffffffffffffffffffffffffffff1916600160a060020a03949094169390931790925580549091906200040f90620009c7565b909155506200041e6001600055565b50505050505050565b600060026000600180546200043d9190620009e3565b8152602081019190915260400160002054600160a060020a0316919050565b600260005403620004ca576040517f08c379a000000000000000000000000000000000000000000000000000000000815260206004820152601f60248201527f5265656e7472616e637947756172643a207265656e7472616e742063616c6c00604482015260640162000288565b6002600055565b6154eb8062000a0083390190565b600060208284031215620004f257600080fd5b8135600160a060020a03811681146200050a57600080fd5b9392505050565b6000602082840312156200052457600080fd5b5035919050565b7f4e487b7100000000000000000000000000000000000000000000000000000000600052604160045260246000fd5b600082601f8301126200056c57600080fd5b813567ffffffffffffffff808211156200058a576200058a6200052b565b604051601f8301601f19908116603f01168101908282118183101715620005b557620005b56200052b565b81604052838152866020858801011115620005cf57600080fd5b836020870160208301376000602085830101528094505050505092915050565b6000604082840312156200060257600080fd5b6040516040810167ffffffffffffffff82821081831117156200062957620006296200052b565b816040528293508435835260208501359150808211156200064957600080fd5b5062000658858286016200055a565b6020830152505092915050565b6000606082840312156200067857600080fd5b6040516060810167ffffffffffffffff82821081831117156200069f576200069f6200052b565b816040528293508435915080821115620006b857600080fd5b50620006c7858286016200055a565b82525060208301356020820152604083013560408201525092915050565b600080600080600080600060e0888a0312156200070157600080fd5b873567ffffffffffffffff808211156200071a57600080fd5b620007288b838c016200055a565b985060208a01359150808211156200073f57600080fd5b6200074d8b838c01620005ef565b975060408a01359150808211156200076457600080fd5b620007728b838c016200055a565b965060608a01359150808211156200078957600080fd5b620007978b838c016200055a565b955060808a0135915080821115620007ae57600080fd5b620007bc8b838c016200055a565b945060a08a0135935060c08a0135915080821115620007da57600080fd5b50620007e98a828b0162000665565b91505092959891949750929550565b6000602082840312156200080b57600080fd5b815180151581146200050a57600080fd5b6000815180845260005b81811015620008445760208185018101518683018201520162000826565b506000602082860101526020601f19601f83011685010191505092915050565b8051825260006020820151604060208501526200088560408501826200081c565b949350505050565b6000815160608452620008a460608501826200081c565b905060208301516020850152604083015160408501528091505092915050565b600160a060020a038c811682528b1660208201526000610160600160a060020a038c166040840152600160a060020a038b1660608401528960808401528060a0840152620009158184018a6200081c565b905082810360c08401526200092b818962000864565b905082810360e08401526200094181886200081c565b90508281036101008401526200095881876200081c565b90508281036101208401526200096f81866200081c565b90508281036101408401526200098681856200088d565b9e9d5050505050505050505050505050565b7f4e487b7100000000000000000000000000000000000000000000000000000000600052601160045260246000fd5b600060018201620009dc57620009dc62000998565b5060010190565b81810381811115620009f957620009f962000998565b9291505056fe60806040523480156200001157600080fd5b50604051620054eb380380620054eb8339810160408190526200003491620003a1565b8a601760006101000a815481600160a060020a030219169083600160a060020a0316021790555089601560016101000a815481600160a060020a030219169083600160a060020a0316021790555088601660006101000a815481600160a060020a030219169083600160a060020a0316021790555087600260016101000a815481600160a060020a030219169083600160a060020a0316021790555086600f819055506000601560006101000a81548160ff02191690836009811115620000ff57620000ff6200051d565b02179055506004620001128782620005f4565b50845160069081556020860151869190600790620001319082620005f4565b50600591506200014490508582620005f4565b50600a620001538482620005f4565b50600b620001628382620005f4565b50805181906012908190620001789082620005f4565b5060208201518160010155604082015181600201559050505050505050505050505050620006c6565b8051600160a060020a0381168114620001b957600080fd5b919050565b7f4e487b7100000000000000000000000000000000000000000000000000000000600052604160045260246000fd5b604051601f8201601f191681016001604060020a0381118282101715620002185762000218620001be565b604052919050565b600082601f8301126200023257600080fd5b81516001604060020a038111156200024e576200024e620001be565b602062000264601f8301601f19168201620001ed565b82815285828487010111156200027957600080fd5b60005b83811015620002995785810183015182820184015282016200027c565b506000928101909101919091529392505050565b600060408284031215620002c057600080fd5b604051604081016001604060020a038282108183111715620002e657620002e6620001be565b816040528293508451835260208501519150808211156200030657600080fd5b50620003158582860162000220565b6020830152505092915050565b6000606082840312156200033557600080fd5b604051606081016001604060020a0382821081831117156200035b576200035b620001be565b8160405282935084519150808211156200037457600080fd5b50620003838582860162000220565b82525060208301516020820152604083015160408201525092915050565b60008060008060008060008060008060006101608c8e031215620003c457600080fd5b620003cf8c620001a1565b9a50620003df60208d01620001a1565b9950620003ef60408d01620001a1565b9850620003ff60608d01620001a1565b975060808c0151965060a08c01516001604060020a038111156200042257600080fd5b620004308e828f0162000220565b96505060c08c01516001604060020a038111156200044d57600080fd5b6200045b8e828f01620002ad565b95505060e08c01516001604060020a038111156200047857600080fd5b620004868e828f0162000220565b9450506101008c01516001604060020a03811115620004a457600080fd5b620004b28e828f0162000220565b9350506101208c01516001604060020a03811115620004d057600080fd5b620004de8e828f0162000220565b9250506101408c01516001604060020a03811115620004fc57600080fd5b6200050a8e828f0162000322565b9150509295989b509295989b9093969950565b7f4e487b7100000000000000000000000000000000000000000000000000000000600052602160045260246000fd5b6002810460018216806200056157607f821691505b6020821081036200059b577f4e487b7100000000000000000000000000000000000000000000000000000000600052602260045260246000fd5b50919050565b601f821115620005ef576000818152602081206020601f86010481016020861015620005ca5750805b6020601f860104820191505b81811015620005eb57828155600101620005d6565b5050505b505050565b81516001604060020a03811115620006105762000610620001be565b62000628816200062184546200054c565b84620005a1565b602080601f831160018114620006645760008415620006475750858301515b60028086026008870290910a6000190419821617865550620005eb565b600085815260208120601f198616915b82811015620006955788860151825594840194600190910190840162000674565b5085821015620006b657878501516008601f88160260020a60001904191681555b5050505050600202600101905550565b614e1580620006d66000396000f3fe608060405234801561001057600080fd5b5060043610610265576000357c01000000000000000000000000000000000000000000000000000000009004806370ec9d5411610158578063d8b6d252116100d5578063e9d13b5711610099578063e9d13b571461051d578063eee0efec14610525578063f4a84e0f14610538578063fd7d6df414610540578063fddd56c51461055357600080fd5b8063d8b6d252146104bd578063de11c94a146104c6578063e29b9e97146104d9578063e67d5523146104e2578063e8b58b21146104ea57600080fd5b80638f965d801161011c5780638f965d801461045e578063975a177314610481578063c2bd884b1461048a578063d2ef033c146104a2578063d55a17c0146104b557600080fd5b806370ec9d54146104165780637150d8ae1461042e5780637384001c1461044157806385e14a48146104495780638dada6d81461045657600080fd5b80632d90d70d116101e65780634e9448e9116101aa5780634e9448e9146103c8578063595210ad146103db5780635b902134146103ee5780636fed1d7e146103f757806370e066f61461040e57600080fd5b80632d90d70d146103585780633013ce291461036f578063343bf40e146103825780633440543a146103b8578063356cd0dc146103c057600080fd5b8063182dcc991161022d578063182dcc99146102f45780631c925df0146103075780631e86221f14610321578063200d2ed2146103295780632b7576931461034357600080fd5b806302197c551461026a57806302d8ee9c1461028957806308551a531461029e578063142ebf3c146102ce578063166e21f1146102e1575b600080fd5b61027261055b565b60405161028092919061404c565b60405180910390f35b6102916105f2565b604051610280919061406d565b6002546102b6906101009004600160a060020a031681565b604051600160a060020a039091168152602001610280565b6016546102b690600160a060020a031681565b6019546102b690600160a060020a031681565b6018546102b690600160a060020a031681565b6002546103149060ff1681565b60405161028091906140b1565b610291610680565b6015546103369060ff1681565b60405161028091906140cf565b6103566103513660046141ec565b61068d565b005b61036160115481565b604051908152602001610280565b6000546102b690600160a060020a031681565b601b546103a8907501000000000000000000000000000000000000000000900460ff1681565b6040519015158152602001610280565b610356610c52565b61029161104d565b6103566103d63660046142a7565b61105a565b6103566103e9366004614303565b6116ac565b61036160105481565b6103ff61195a565b60405161028093929190614338565b6102916119f8565b601b546102b6906101009004600160a060020a031681565b6003546102b690600160a060020a031681565b610356611a05565b601b546103369060ff1681565b610291611d53565b61047161046c36600461435d565b611d60565b6040516102809493929190614376565b610361600e5481565b6015546102b6906101009004600160a060020a031681565b6103566104b03660046143c3565b611f41565b6103566125f9565b61036160015481565b6017546102b690600160a060020a031681565b610361600f5481565b61029161287f565b6104fd6104f836600461435d565b61288c565b604080519485526020850193909352918301526060820152608001610280565b610356612b02565b6103566105333660046143ef565b612e01565b600c54610361565b61035661054e3660046143c3565b61308f565b6102726134a8565b600680546007805491929161056f906145ee565b80601f016020809104026020016040519081016040528092919081815260200182805461059b906145ee565b80156105e85780601f106105bd576101008083540402835291602001916105e8565b820191906000526020600020905b8154815290600101906020018083116105cb57829003601f168201915b5050505050905082565b600580546105ff906145ee565b80601f016020809104026020016040519081016040528092919081815260200182805461062b906145ee565b80156106785780601f1061064d57610100808354040283529160200191610678565b820191906000526020600020905b81548152906001019060200180831161065b57829003601f168201915b505050505081565b600480546105ff906145ee565b600060155460ff1660098111156106a6576106a6614080565b146106fb5760405160e560020a62461bcd02815260206004820152600360248201527f216673000000000000000000000000000000000000000000000000000000000060448201526064015b60405180910390fd5b601754604080517f1f02d6fe0000000000000000000000000000000000000000000000000000000081529051600092600160a060020a031691631f02d6fe9160048083019260209291908290030181865afa15801561075e573d6000803e3d6000fd5b505050506040513d601f19601f82011682018060405250810190610782919061462f565b600160a060020a0316330361079857508061079b565b50335b600254600160a060020a036101009091048116908216036108015760405160e560020a62461bcd02815260206004820152600760248201527f2173656c6c65720000000000000000000000000000000000000000000000000060448201526064016106f2565b600061080c8461288c565b50506000546040517f23b872dd00000000000000000000000000000000000000000000000000000000815233600482015230602482015260448101849052929350600160a060020a0316916323b872dd91506064016020604051808303816000875af1158015610880573d6000803e3d6000fd5b505050506040513d601f19601f820116820180604052508101906108a4919061464c565b6108f35760405160e560020a62461bcd02815260206004820152600f60248201527f7472616e73666572206661696c6564000000000000000000000000000000000060448201526064016106f2565b60018490556015805460ff191660029081179091554260115560165490546040517f7f1b5565000000000000000000000000000000000000000000000000000000008152306004820152600160a060020a0361010090920482166024820152911690637f1b556590604401600060405180830381600087803b15801561097857600080fd5b505af115801561098c573d6000803e3d6000fd5b50506003805473ffffffffffffffffffffffffffffffffffffffff1916600160a060020a03861617905550508451600890815560208601518691906009906109d490826146af565b50506000546040517f70a08231000000000000000000000000000000000000000000000000000000008152306004820152600160a060020a0390911691506370a0823190602401602060405180830381865afa158015610a38573d6000803e3d6000fd5b505050506040513d601f19601f82011682018060405250810190610a5c9190614775565b600e55600654600090610a6e906134bc565b8651600790610a7c906134bc565b6020890151600354610a9690600160a060020a031661355c565b610aa1600f546134bc565b604051602001610ab6969594939291906147aa565b60408051601f198184030181529082905260165460025460155460e060020a63fe4162d1028552929450600160a060020a039182169363fe4162d193610b0d9330936101009004169160ff90911690600401614911565b600060405180830381600087803b158015610b2757600080fd5b505af1158015610b3b573d6000803e3d6000fd5b50506016546003546015546040517f116fd649000000000000000000000000000000000000000000000000000000008152600160a060020a03938416955063116fd6499450610b9a93309360009391169160ff90911690600401614936565b600060405180830381600087803b158015610bb457600080fd5b505af1158015610bc8573d6000803e3d6000fd5b505060175460155460025460035460405160e360020a630b9b56f3028152600160a060020a039485169650635cdab7989550610c189460ff9094169388936101009004811692169060040161497c565b600060405180830381600087803b158015610c3257600080fd5b505af1158015610c46573d6000803e3d6000fd5b50505050505050505050565b600354600160a060020a0316338114610c9e5760405160e560020a62461bcd0281526020600482015260066024820152600080516020614dc083398151915260448201526064016106f2565b600260155460ff166009811115610cb757610cb7614080565b1480610cd95750600460155460ff166009811115610cd757610cd7614080565b145b610d285760405160e560020a62461bcd02815260206004820152601060248201527f74726473747321636f6d6d7c6163742e0000000000000000000000000000000060448201526064016106f2565b6015805460ff191660061790556016546002546040517f43e239ba000000000000000000000000000000000000000000000000000000008152306004820152600160a060020a03610100909204821660248201529116906343e239ba90604401600060405180830381600087803b158015610da257600080fd5b505af1158015610db6573d6000803e3d6000fd5b50506017546002546040517f6311c2f200000000000000000000000000000000000000000000000000000000815260009450600160a060020a039283169350636311c2f292610e1492600592610100909104909116906004016149bd565b6020604051808303816000875af1158015610e33573d6000803e3d6000fd5b505050506040513d601f19601f82011682018060405250810190610e57919061464c565b905080610ea95760405160e560020a62461bcd02815260206004820152601560248201527f6469646e27742072656d6f76652074726164654964000000000000000000000060448201526064016106f2565b610eb1613578565b60165460025460155460405160e060020a63fe4162d1028152600160a060020a039384169363fe4162d193610ef89330936101009092049092169160ff1690600401614911565b600060405180830381600087803b158015610f1257600080fd5b505af1158015610f26573d6000803e3d6000fd5b505060165460035460155460405160e060020a63fe4162d1028152600160a060020a03938416955063fe4162d19450610f69933093169160ff1690600401614911565b600060405180830381600087803b158015610f8357600080fd5b505af1158015610f97573d6000803e3d6000fd5b505050506000610fa8600f546134bc565b604051602001610fb89190614a57565b60408051601f198184030181529082905260175460155460025460035460e360020a630b9b56f3028652939550600160a060020a0392831694635cdab798946110169460ff909416938893610100900481169291169060040161497c565b600060405180830381600087803b15801561103057600080fd5b505af1158015611044573d6000803e3d6000fd5b50505050505050565b601a80546105ff906145ee565b6015546040517f943ad880000000000000000000000000000000000000000000000000000000008152336004820152610100909104600160a060020a03169063943ad88090602401602060405180830381865afa1580156110bf573d6000803e3d6000fd5b505050506040513d601f19601f820116820180604052508101906110e3919061464c565b8061117557506015546040517ffd6aad25000000000000000000000000000000000000000000000000000000008152336004820152610100909104600160a060020a03169063fd6aad2590602401602060405180830381865afa15801561114e573d6000803e3d6000fd5b505050506040513d601f19601f820116820180604052508101906111729190614775565b15155b6111c45760405160e560020a62461bcd02815260206004820152600d60248201527f216b657072206f72206f72636c0000000000000000000000000000000000000060448201526064016106f2565b600760155460ff1660098111156111dd576111dd614080565b1461122d5760405160e560020a62461bcd02815260206004820152600560248201527f216469737000000000000000000000000000000000000000000000000000000060448201526064016106f2565b6017546002546040517f6311c2f2000000000000000000000000000000000000000000000000000000008152600092600160a060020a0390811692636311c2f29261128492600592610100900416906004016149bd565b6020604051808303816000875af11580156112a3573d6000803e3d6000fd5b505050506040513d601f19601f820116820180604052508101906112c7919061464c565b9050806113195760405160e560020a62461bcd02815260206004820152600860248201527f217472616465496400000000000000000000000000000000000000000000000060448201526064016106f2565b841561141a57600960155460ff16600981111561133857611338614080565b5050811561141557600054600354600e54604051600080516020614d808339815191528152600160a060020a039283166004820152602481019190915291169063a9059cbb906044016020604051808303816000875af11580156113a0573d6000803e3d6000fd5b505050506040513d601f19601f820116820180604052508101906113c4919061464c565b6114155760405160e560020a62461bcd0281526004016106f29060208082526004908201527f21736e7400000000000000000000000000000000000000000000000000000000604082015260600190565b611435565b6015805460ff19166008179055811561143557611435613578565b83156114bb576016546002546040517f53941d4e000000000000000000000000000000000000000000000000000000008152600160a060020a03610100909204821660048201529116906353941d4e90602401600060405180830381600087803b1580156114a257600080fd5b505af11580156114b6573d6000803e3d6000fd5b505050505b821561153c576016546003546040517f53941d4e000000000000000000000000000000000000000000000000000000008152600160a060020a0391821660048201529116906353941d4e90602401600060405180830381600087803b15801561152357600080fd5b505af1158015611537573d6000803e3d6000fd5b505050505b60165460025460155460405160e060020a63fe4162d1028152600160a060020a039384169363fe4162d1936115839330936101009092049092169160ff1690600401614911565b600060405180830381600087803b15801561159d57600080fd5b505af11580156115b1573d6000803e3d6000fd5b505060165460035460155460405160e060020a63fe4162d1028152600160a060020a03938416955063fe4162d194506115f4933093169160ff1690600401614911565b600060405180830381600087803b15801561160e57600080fd5b505af1158015611622573d6000803e3d6000fd5b505060175460155460025460035460405160e360020a630b9b56f3028152600160a060020a039485169650635cdab79895506116739460ff9094169361010090930483169290911690600401614abe565b600060405180830381600087803b15801561168d57600080fd5b505af11580156116a1573d6000803e3d6000fd5b505050505050505050565b600254600354600160a060020a0361010090920482169116338214806116da575033600160a060020a038216145b6117295760405160e560020a62461bcd02815260206004820152600660248201527f2167726f7570000000000000000000000000000000000000000000000000000060448201526064016106f2565b600760155460ff16600981111561174257611742614080565b141580156117675750600860155460ff16600981111561176457611764614080565b14155b801561178a5750600960155460ff16600981111561178757611787614080565b14155b6117d95760405160e560020a62461bcd02815260206004820152600a60248201527f616c72656164794469730000000000000000000000000000000000000000000060448201526064016106f2565b60158054600760ff199182168117909255601b805474ffffffffffffffffffffffffffffffffffffffffff19163361010002909216919091179091179055601a61182384826146af565b5060165460025460155460405160e060020a63fe4162d1028152600160a060020a039384169363fe4162d19361186b9330936101009092049092169160ff1690600401614911565b600060405180830381600087803b15801561188557600080fd5b505af1158015611899573d6000803e3d6000fd5b505060165460035460155460405160e060020a63fe4162d1028152600160a060020a03938416955063fe4162d194506118dc933093169160ff1690600401614911565b600060405180830381600087803b1580156118f657600080fd5b505af115801561190a573d6000803e3d6000fd5b505060175460155460025460035460405160e360020a630b9b56f3028152600160a060020a039485169650635cdab79895506110169460ff909416938a936101009004811692169060040161497c565b601280548190611969906145ee565b80601f0160208091040260200160405190810160405280929190818152602001828054611995906145ee565b80156119e25780601f106119b7576101008083540402835291602001916119e2565b820191906000526020600020905b8154815290600101906020018083116119c557829003601f168201915b5050505050908060010154908060020154905083565b600a80546105ff906145ee565b6002546101009004600160a060020a0316338114611a565760405160e560020a62461bcd0281526020600482015260066024820152600080516020614dc083398151915260448201526064016106f2565b600460155460ff166009811115611a6f57611a6f614080565b14611abf5760405160e560020a62461bcd02815260206004820152600b60248201527f74726473747321636f6d6d00000000000000000000000000000000000000000060448201526064016106f2565b601054611acf906203f480614b13565b421015611b215760405160e560020a62461bcd02815260206004820152601160248201527f332064617973206e6f742070617373656400000000000000000000000000000060448201526064016106f2565b6015805460ff191660061790556016546002546040517f43e239ba000000000000000000000000000000000000000000000000000000008152306004820152600160a060020a03610100909204821660248201529116906343e239ba90604401600060405180830381600087803b158015611b9b57600080fd5b505af1158015611baf573d6000803e3d6000fd5b505060165460025460155460405160e060020a63fe4162d1028152600160a060020a03938416955063fe4162d19450611bf79330936101009004169160ff1690600401614911565b600060405180830381600087803b158015611c1157600080fd5b505af1158015611c25573d6000803e3d6000fd5b505060165460035460155460405160e060020a63fe4162d1028152600160a060020a03938416955063fe4162d19450611c68933093169160ff1690600401614911565b600060405180830381600087803b158015611c8257600080fd5b505af1158015611c96573d6000803e3d6000fd5b50505050611ca2613578565b6000611caf600f546134bc565b604051602001611cbf9190614b26565b60408051601f198184030181529082905260175460155460025460035460e360020a630b9b56f3028652939550600160a060020a0392831694635cdab79894611d1d9460ff909416938893610100900481169291169060040161497c565b600060405180830381600087803b158015611d3757600080fd5b505af1158015611d4b573d6000803e3d6000fd5b505050505050565b600d80546105ff906145ee565b600c8181548110611d7057600080fd5b9060005260206000209060040201600091509050806000018054611d93906145ee565b80601f0160208091040260200160405190810160405280929190818152602001828054611dbf906145ee565b8015611e0c5780601f10611de157610100808354040283529160200191611e0c565b820191906000526020600020905b815481529060010190602001808311611def57829003601f168201915b505050505090806001018054611e21906145ee565b80601f0160208091040260200160405190810160405280929190818152602001828054611e4d906145ee565b8015611e9a5780601f10611e6f57610100808354040283529160200191611e9a565b820191906000526020600020905b815481529060010190602001808311611e7d57829003601f168201915b5050506002840154600385018054949560ff909216949193509150611ebe906145ee565b80601f0160208091040260200160405190810160405280929190818152602001828054611eea906145ee565b8015611f375780601f10611f0c57610100808354040283529160200191611f37565b820191906000526020600020905b815481529060010190602001808311611f1a57829003601f168201915b5050505050905084565b6015546040517f943ad880000000000000000000000000000000000000000000000000000000008152336004820152610100909104600160a060020a03169063943ad88090602401602060405180830381865afa158015611fa6573d6000803e3d6000fd5b505050506040513d601f19601f82011682018060405250810190611fca919061464c565b611fd357600080fd5b600260155460ff166009811115611fec57611fec614080565b148061200e5750600460155460ff16600981111561200c5761200c614080565b145b61205d5760405160e560020a62461bcd02815260206004820152600c60248201527f747264737473213e636f6d6d000000000000000000000000000000000000000060448201526064016106f2565b8015612297576015805460ff191660061790556016546002546040517f43e239ba000000000000000000000000000000000000000000000000000000008152306004820152600160a060020a03610100909204821660248201529116906343e239ba90604401600060405180830381600087803b1580156120dd57600080fd5b505af11580156120f1573d6000803e3d6000fd5b505060165460025460155460405160e060020a63fe4162d1028152600160a060020a03938416955063fe4162d194506121399330936101009004169160ff1690600401614911565b600060405180830381600087803b15801561215357600080fd5b505af1158015612167573d6000803e3d6000fd5b505060165460035460155460405160e060020a63fe4162d1028152600160a060020a03938416955063fe4162d194506121aa933093169160ff1690600401614911565b600060405180830381600087803b1580156121c457600080fd5b505af11580156121d8573d6000803e3d6000fd5b505050506121e4613578565b60006121f1600f546134bc565b6040516020016122019190614b26565b60408051601f198184030181529082905260175460155460025460035460e360020a630b9b56f3028652939550600160a060020a0392831694635cdab7989461225f9460ff909416938893610100900481169291169060040161497c565b600060405180830381600087803b15801561227957600080fd5b505af115801561228d573d6000803e3d6000fd5b5050505050612509565b60158054600960ff198216811790925560165460025460405160e060020a63fe4162d102815260ff90931693600160a060020a039283169363fe4162d1936122ed93309361010090910490911691600401614911565b600060405180830381600087803b15801561230757600080fd5b505af115801561231b573d6000803e3d6000fd5b5060029250612328915050565b81600981111561233a5761233a614080565b106123b45760165460035460155460405160e060020a63fe4162d1028152600160a060020a039384169363fe4162d193612381933093919092169160ff1690600401614911565b600060405180830381600087803b15801561239b57600080fd5b505af11580156123af573d6000803e3d6000fd5b505050505b600054600354600e54604051600080516020614d808339815191528152600160a060020a039283166004820152602481019190915291169063a9059cbb906044016020604051808303816000875af1158015612414573d6000803e3d6000fd5b505050506040513d601f19601f82011682018060405250810190612438919061464c565b6124895760405160e560020a62461bcd0281526004016106f29060208082526004908201527f21736e7400000000000000000000000000000000000000000000000000000000604082015260600190565b60175460155460025460035460405160e360020a630b9b56f3028152600160a060020a0394851694635cdab798946124d59460ff90911693610100909104821692911690600401614b42565b600060405180830381600087803b1580156124ef57600080fd5b505af1158015612503573d6000803e3d6000fd5b50505050505b6017546002546040517f6311c2f2000000000000000000000000000000000000000000000000000000008152600092600160a060020a0390811692636311c2f29261256092600592610100900416906004016149bd565b6020604051808303816000875af115801561257f573d6000803e3d6000fd5b505050506040513d601f19601f820116820180604052508101906125a3919061464c565b9050806125f55760405160e560020a62461bcd02815260206004820152600860248201527f217472616465496400000000000000000000000000000000000000000000000060448201526064016106f2565b5050565b6002546101009004600160a060020a031633811461264a5760405160e560020a62461bcd0281526020600482015260066024820152600080516020614dc083398151915260448201526064016106f2565b600060155460ff16600981111561266357612663614080565b146126b35760405160e560020a62461bcd02815260206004820152600760248201527f7374202170656e0000000000000000000000000000000000000000000000000060448201526064016106f2565b6015805460ff1916600190811790915560165460025460405160e060020a63fe4162d1028152600160a060020a039283169363fe4162d1936127049330936101009091049091169190600401614911565b600060405180830381600087803b15801561271e57600080fd5b505af1158015612732573d6000803e3d6000fd5b505050506000612743600f546134bc565b6040516020016127539190614b26565b60408051601f198184030181529082905260175460155460025460035460e360020a630b9b56f3028652939550600160a060020a0392831694635cdab798946127b19460ff909416938893610100900481169291169060040161497c565b600060405180830381600087803b1580156127cb57600080fd5b505af11580156127df573d6000803e3d6000fd5b50506017546002546040517f6311c2f2000000000000000000000000000000000000000000000000000000008152600160a060020a039283169450636311c2f2935061283792600592610100900416906004016149bd565b6020604051808303816000875af1158015612856573d6000803e3d6000fd5b505050506040513d601f19601f8201168201806040525081019061287a919061464c565b505050565b600b80546105ff906145ee565b6018546040517fed0fc5a90000000000000000000000000000000000000000000000000000000081526004810183905260009182918291829182918291600160a060020a039091169063ed0fc5a990602401602060405180830381865afa1580156128fb573d6000803e3d6000fd5b505050506040513d601f19601f8201168201806040525081019061291f919061462f565b600160a060020a031614159050600081156129cd576018546040517ff3c7c93100000000000000000000000000000000000000000000000000000000815260048101899052600091600160a060020a03169063f3c7c931906024016040805180830381865afa158015612996573d6000803e3d6000fd5b505050506040513d601f19601f820116820180604052508101906129ba9190614ba0565b91506129c99050600282614bc4565b9150505b601854600f54601754604080517f6ef25c3a0000000000000000000000000000000000000000000000000000000081529051600160a060020a03948516946342ba2f2494938893911691636ef25c3a916004808201926020929091908290030181865afa158015612a42573d6000803e3d6000fd5b505050506040513d601f19601f82011682018060405250810190612a669190614775565b6040517c010000000000000000000000000000000000000000000000000000000063ffffffff861602815260048101939093529015156024830152604482015260648101849052608401608060405180830381865afa158015612acd573d6000803e3d6000fd5b505050506040513d601f19601f82011682018060405250810190612af19190614bed565b929a91995097509095509350505050565b600354600160a060020a0316338114612b4e5760405160e560020a62461bcd0281526020600482015260066024820152600080516020614dc083398151915260448201526064016106f2565b600260155460ff166009811115612b6757612b67614080565b14612bb75760405160e560020a62461bcd02815260206004820152600b60248201527f74726473747321636f6d6d00000000000000000000000000000000000000000060448201526064016106f2565b6015805460ff1916600390811790915560165460025460405160e060020a63fe4162d1028152600160a060020a039283169363fe4162d193612c089330936101009091049091169190600401614911565b600060405180830381600087803b158015612c2257600080fd5b505af1158015612c36573d6000803e3d6000fd5b505060165460035460155460405160e060020a63fe4162d1028152600160a060020a03938416955063fe4162d19450612c79933093169160ff1690600401614911565b600060405180830381600087803b158015612c9357600080fd5b505af1158015612ca7573d6000803e3d6000fd5b5050600054600354600e54604051600080516020614d808339815191528152600160a060020a03928316600482015260248101919091529116925063a9059cbb91506044016020604051808303816000875af1158015612d0b573d6000803e3d6000fd5b505050506040513d601f19601f82011682018060405250810190612d2f919061464c565b612d805760405160e560020a62461bcd0281526004016106f29060208082526004908201527f21736e7400000000000000000000000000000000000000000000000000000000604082015260600190565b60175460155460025460035460405160e360020a630b9b56f3028152600160a060020a0394851694635cdab79894612dcc9460ff90911693610100909104821692911690600401614c23565b600060405180830381600087803b158015612de657600080fd5b505af1158015612dfa573d6000803e3d6000fd5b5050505050565b601754600160a060020a031633148015612e375750601b547501000000000000000000000000000000000000000000900460ff16155b612e865760405160e560020a62461bcd02815260206004820152600860248201527f21666163746f727900000000000000000000000000000000000000000000000060448201526064016106f2565b601b805475ff0000000000000000000000000000000000000000001916750100000000000000000000000000000000000000000017905560005b8651811015612f6957600c878281518110612edd57612edd614c81565b60209081029190910181015182546001810184556000938452919092208251600490920201908190612f0f90826146af565b5060208201516001820190612f2490826146af565b50604082015160028201805460ff191660ff90921691909117905560608201516003820190612f5390826146af565b5050508080612f6190614c9e565b915050612ec0565b506016546002546040517f116fd649000000000000000000000000000000000000000000000000000000008152600160a060020a039283169263116fd64992612fc392309260019261010090041690600090600401614936565b600060405180830381600087803b158015612fdd57600080fd5b505af1158015612ff1573d6000803e3d6000fd5b5050505084600d908161300491906146af565b506000805473ffffffffffffffffffffffffffffffffffffffff1916600160a060020a0386161790556002805484919060ff19166001838381111561304b5761304b614080565b021790555060188054600160a060020a0393841673ffffffffffffffffffffffffffffffffffffffff19918216179091556019805492909316911617905550505050565b6002546101009004600160a060020a03163381146130e05760405160e560020a62461bcd0281526020600482015260066024820152600080516020614dc083398151915260448201526064016106f2565b600260155460ff1660098111156130f9576130f9614080565b146131495760405160e560020a62461bcd02815260206004820152600b60248201527f74726473747321636f6d6d00000000000000000000000000000000000000000060448201526064016106f2565b8115613293576015805460ff191660049081179091554260105560165460025460405160e060020a63fe4162d1028152600160a060020a039283169363fe4162d1936131a393309361010090910490911691908101614911565b600060405180830381600087803b1580156131bd57600080fd5b505af11580156131d1573d6000803e3d6000fd5b505060165460035460155460405160e060020a63fe4162d1028152600160a060020a03938416955063fe4162d19450613214933093169160ff1690600401614911565b600060405180830381600087803b15801561322e57600080fd5b505af1158015613242573d6000803e3d6000fd5b505060175460155460025460035460405160e360020a630b9b56f3028152600160a060020a039485169650635cdab7989550611d1d9460ff9094169361010090930483169290911690600401614abe565b6015805460ff1916600590811790915560165460025460405160e060020a63fe4162d1028152600160a060020a039283169363fe4162d1936132e49330936101009091049091169190600401614911565b600060405180830381600087803b1580156132fe57600080fd5b505af1158015613312573d6000803e3d6000fd5b505060165460035460155460405160e060020a63fe4162d1028152600160a060020a03938416955063fe4162d19450613355933093169160ff1690600401614911565b600060405180830381600087803b15801561336f57600080fd5b505af1158015613383573d6000803e3d6000fd5b5050600054600354600e54604051600080516020614d808339815191528152600160a060020a03928316600482015260248101919091529116925063a9059cbb91506044016020604051808303816000875af11580156133e7573d6000803e3d6000fd5b505050506040513d601f19601f8201168201806040525081019061340b919061464c565b61345c5760405160e560020a62461bcd0281526004016106f29060208082526004908201527f21736e7400000000000000000000000000000000000000000000000000000000604082015260600190565b60175460155460025460035460405160e360020a630b9b56f3028152600160a060020a0394851694635cdab79894611d1d9460ff90911693610100909104821692911690600401614cb7565b600880546009805491929161056f906145ee565b606060006134c983613cc9565b600101905060008167ffffffffffffffff8111156134e9576134e96140dd565b6040519080825280601f01601f191660200182016040528015613513576020820181803683370190505b5090508181016020015b600019017f3031323334353637383961626364656600000000000000000000000000000000600a86061a8153600a850494508461351d57509392505050565b6060613572600160a060020a0383166014613dab565b92915050565b6018546003546040517f92c40344000000000000000000000000000000000000000000000000000000008152600160a060020a03918216600482015260009291909116906392c4034490602401602060405180830381865afa1580156135e2573d6000803e3d6000fd5b505050506040513d601f19601f820116820180604052508101906136069190614775565b9050801561362257600154811461361d5760018190555b6137fe565b600154156137fe576018546001546040517faa05c9e7000000000000000000000000000000000000000000000000000000008152600160a060020a039092169163aa05c9e7916136789160040190815260200190565b602060405180830381865afa158015613695573d6000803e3d6000fd5b505050506040513d601f19601f820116820180604052508101906136b9919061464c565b6136c75760006001556137fe565b6018546001546040517fed0fc5a90000000000000000000000000000000000000000000000000000000081526004810191909152600091600160a060020a03169063ed0fc5a990602401602060405180830381865afa15801561372e573d6000803e3d6000fd5b505050506040513d601f19601f82011682018060405250810190613752919061462f565b600354909150600160a060020a03908116908216036137755760006001556137fc565b6018546001546003546040517ffd4788ac0000000000000000000000000000000000000000000000000000000081526004810192909252600160a060020a0390811660248301529091169063fd4788ac90604401600060405180830381600087803b1580156137e357600080fd5b505af11580156137f7573d6000803e3d6000fd5b505050505b505b60008060008061380f60015461288c565b600054600254604051600080516020614d808339815191528152600160a060020a0361010090920482166004820152602481018690529599509397509195509350169063a9059cbb906044016020604051808303816000875af115801561387a573d6000803e3d6000fd5b505050506040513d601f19601f8201168201806040525081019061389e919061464c565b6138ed5760405160e560020a62461bcd02815260206004820152600560248201527f2173736e7400000000000000000000000000000000000000000000000000000060448201526064016106f2565b8115613af2576000546018546001546040517fed0fc5a90000000000000000000000000000000000000000000000000000000081526004810191909152600160a060020a039283169263a9059cbb92169063ed0fc5a990602401602060405180830381865afa158015613964573d6000803e3d6000fd5b505050506040513d601f19601f82011682018060405250810190613988919061462f565b6040517c010000000000000000000000000000000000000000000000000000000063ffffffff8416028152600160a060020a039091166004820152602481018590526044016020604051808303816000875af11580156139ec573d6000803e3d6000fd5b505050506040513d601f19601f82011682018060405250810190613a10919061464c565b613a5f5760405160e560020a62461bcd02815260206004820152600560248201527f2172736e7400000000000000000000000000000000000000000000000000000060448201526064016106f2565b6018546000546001546040517fa033142f000000000000000000000000000000000000000000000000000000008152306004820152600160a060020a03928316602482015260448101919091526064810185905291169063a033142f90608401600060405180830381600087803b158015613ad957600080fd5b505af1158015613aed573d6000803e3d6000fd5b505050505b6000546019546040517f095ea7b3000000000000000000000000000000000000000000000000000000008152600160a060020a0391821660048201526024810184905291169063095ea7b3906044016020604051808303816000875af1158015613b60573d6000803e3d6000fd5b505050506040513d601f19601f82011682018060405250810190613b84919061464c565b506019546000546040517f5f78d6bd000000000000000000000000000000000000000000000000000000008152600160a060020a03918216600482015260248101849052911690635f78d6bd906044016020604051808303816000875af1158015613bf3573d6000803e3d6000fd5b505050506040513d601f19601f82011682018060405250810190613c17919061464c565b613c665760405160e560020a62461bcd02815260206004820152600560248201527f2174736e7400000000000000000000000000000000000000000000000000000060448201526064016106f2565b6016546002546003546001546040517f2455eb83000000000000000000000000000000000000000000000000000000008152600160a060020a0394851694632455eb839461167394610100820483169492169260ff909116908b90600401614d15565b6000807a184f03e93ff9f4daa797ed6e38ed64bf6a1f0100000000000000008310613d12577a184f03e93ff9f4daa797ed6e38ed64bf6a1f010000000000000000830492506040015b6d04ee2d6d415b85acef81000000008310613d3e576d04ee2d6d415b85acef8100000000830492506020015b662386f26fc100008310613d5c57662386f26fc10000830492506010015b6305f5e1008310613d74576305f5e100830492506008015b6127108310613d8857612710830492506004015b60648310613d9a576064830492506002015b600a83106135725760010192915050565b60606000613dba836002614d51565b613dc5906002614b13565b67ffffffffffffffff811115613ddd57613ddd6140dd565b6040519080825280601f01601f191660200182016040528015613e07576020820181803683370190505b5090507f300000000000000000000000000000000000000000000000000000000000000081600081518110613e3e57613e3e614c81565b60200101907effffffffffffffffffffffffffffffffffffffffffffffffffffffffffffff1916908160001a9053507f780000000000000000000000000000000000000000000000000000000000000081600181518110613ea157613ea1614c81565b60200101907effffffffffffffffffffffffffffffffffffffffffffffffffffffffffffff1916908160001a9053506000613edd846002614d51565b613ee8906001614b13565b90505b6001811115613fa3577f303132333435363738396162636465660000000000000000000000000000000085600f1660108110613f2957613f29614c81565b1a7f010000000000000000000000000000000000000000000000000000000000000002828281518110613f5e57613f5e614c81565b60200101907effffffffffffffffffffffffffffffffffffffffffffffffffffffffffffff1916908160001a905350601090940493613f9c81614d68565b9050613eeb565b508315613ff55760405160e560020a62461bcd02815260206004820181905260248201527f537472696e67733a20686578206c656e67746820696e73756666696369656e7460448201526064016106f2565b9392505050565b60005b83811015614017578181015183820152602001613fff565b50506000910152565b60008151808452614038816020860160208601613ffc565b601f01601f19169290920160200192915050565b8281526040602082015260006140656040830184614020565b949350505050565b602081526000613ff56020830184614020565b600080516020614da0833981519152600052602160045260246000fd5b600381106140ad576140ad614080565b9052565b60208101613572828461409d565b600a81106140ad576140ad614080565b6020810161357282846140bf565b600080516020614da0833981519152600052604160045260246000fd5b6040516080810167ffffffffffffffff8111828210171561411d5761411d6140dd565b60405290565b604051601f8201601f1916810167ffffffffffffffff8111828210171561414c5761414c6140dd565b604052919050565b600082601f83011261416557600080fd5b813567ffffffffffffffff81111561417f5761417f6140dd565b614192601f8201601f1916602001614123565b8181528460208386010111156141a757600080fd5b816020850160208301376000918101602001919091529392505050565b600160a060020a03811681146141d957600080fd5b50565b80356141e7816141c4565b919050565b60008060006060848603121561420157600080fd5b833567ffffffffffffffff8082111561421957600080fd5b908501906040828803121561422d57600080fd5b604051604081018181108382111715614248576142486140dd565b6040528235815260208301358281111561426157600080fd5b61426d89828601614154565b60208301525080955050505060208401359150604084013561428e816141c4565b809150509250925092565b80151581146141d957600080fd5b600080600080608085870312156142bd57600080fd5b84356142c881614299565b935060208501356142d881614299565b925060408501356142e881614299565b915060608501356142f881614299565b939692955090935050565b60006020828403121561431557600080fd5b813567ffffffffffffffff81111561432c57600080fd5b61406584828501614154565b60608152600061434b6060830186614020565b60208301949094525060400152919050565b60006020828403121561436f57600080fd5b5035919050565b6080815260006143896080830187614020565b828103602084015261439b8187614020565b905060ff8516604084015282810360608401526143b88185614020565b979650505050505050565b6000602082840312156143d557600080fd5b8135613ff581614299565b8035600381106141e757600080fd5b60008060008060008060c0878903121561440857600080fd5b67ffffffffffffffff8735111561441e57600080fd5b8635870188601f82011261443157600080fd5b67ffffffffffffffff8135111561444a5761444a6140dd565b61445960208083350201614123565b81358082526020808301929181028401018b101561447657600080fd5b602083015b60208085350285010181101561457c5767ffffffffffffffff813511156144a157600080fd5b803584016080818e03601f190112156144b957600080fd5b6144c16140fa565b67ffffffffffffffff602083013511156144da57600080fd5b6144ec8e602080850135850101614154565b815267ffffffffffffffff6040830135111561450757600080fd5b61451a8e60206040850135850101614154565b6020820152606082013560ff81161461453257600080fd5b6060820135604082015267ffffffffffffffff6080830135111561455557600080fd5b6145688e60206080850135850101614154565b60608201528452506020928301920161447b565b509750505067ffffffffffffffff6020880135111561459a57600080fd5b6145aa8860208901358901614154565b94506145b8604088016141dc565b93506145c6606088016143e0565b92506145d4608088016141dc565b91506145e260a088016141dc565b90509295509295509295565b60028104600182168061460257607f821691505b60208210810361462957600080516020614da0833981519152600052602260045260246000fd5b50919050565b60006020828403121561464157600080fd5b8151613ff5816141c4565b60006020828403121561465e57600080fd5b8151613ff581614299565b601f82111561287a576000818152602081206020601f860104810160208610156146905750805b6020601f860104820191505b81811015611d4b5782815560010161469c565b815167ffffffffffffffff8111156146c9576146c96140dd565b6146dd816146d784546145ee565b84614669565b602080601f83116001811461471657600084156146fa5750858301515b60028086026008870290910a6000190419821617865550611d4b565b600085815260208120601f198616915b8281101561474557888601518255948401946001909101908401614726565b508582101561476557878501516008601f88160260020a60001904191681555b5050505050600202600101905550565b60006020828403121561478757600080fd5b5051919050565b600081516147a0818560208601613ffc565b9290920192915050565b600087516147bc818460208c01613ffc565b80830190507f2b000000000000000000000000000000000000000000000000000000000000008152600088546147f1816145ee565b60018216801561480857600181146148235761485c565b60ff198316600186015260018215158302860101935061485c565b8b600052602060002060005b838110156148515781546001828901015260018201915060208101905061482f565b505060018286010193505b50507f7c7c0000000000000000000000000000000000000000000000000000000000008252506149036148fd6148ce6148f7816148c861489f600288018f61478e565b7f2b00000000000000000000000000000000000000000000000000000000000000815260010190565b8c61478e565b7f7c7c000000000000000000000000000000000000000000000000000000000000815260020190565b8961478e565b8661478e565b9a9950505050505050505050565b600160a060020a038481168252831660208201526060810161406560408301846140bf565b600160a060020a03858116825260808201906002861061495857614958614080565b602083018690528416604083015261497360608301846140bf565b95945050505050565b61498681866140bf565b60806020820152600061499c6080830186614020565b600160a060020a039485166040840152929093166060909101529392505050565b6040815260008084546149cf816145ee565b80604086015260606001808416600081146149f15760018114614a0b57614a3c565b60ff19851688840152602084151502880183019550614a3c565b8960005260208060002060005b86811015614a335781548b8201870152908401908201614a18565b8a018501975050505b50505050600160a060020a0385166020850152509050613ff5565b60008251614a69818460208701613ffc565b7f7c7c0000000000000000000000000000000000000000000000000000000000009201918252507f4d414e55414c00000000000000000000000000000000000000000000000000006002820152600801919050565b614ac881856140bf565b608060208201819052600090820152600160a060020a0392831660408201529116606082015260a001919050565b600080516020614da0833981519152600052601160045260246000fd5b8082018082111561357257613572614af6565b60008251614b38818460208701613ffc565b9190910192915050565b614b4c81856140bf565b608060208201819052600a908201527f4b4f2044454641554c540000000000000000000000000000000000000000000060a0820152600160a060020a0392831660408201529116606082015260c001919050565b60008060408385031215614bb357600080fd5b505080516020909101519092909150565b600082614be857600080516020614da0833981519152600052601260045260246000fd5b500490565b60008060008060808587031215614c0357600080fd5b505082516020840151604085015160609095015191969095509092509050565b614c2d81856140bf565b608060208201819052600a908201527f42552044454641554c540000000000000000000000000000000000000000000060a0820152600160a060020a0392831660408201529116606082015260c001919050565b600080516020614da0833981519152600052603260045260246000fd5b600060018201614cb057614cb0614af6565b5060010190565b614cc181856140bf565b608060208201819052600a908201527f53452044454641554c540000000000000000000000000000000000000000000060a0820152600160a060020a0392831660408201529116606082015260c001919050565b600160a060020a038681168252851660208201526040810184905260a08101614d41606083018561409d565b8260808301529695505050505050565b808202811582820484141761357257613572614af6565b600081614d7757614d77614af6565b50600019019056fea9059cbb000000000000000000000000000000000000000000000000000000004e487b71000000000000000000000000000000000000000000000000000000002170617274790000000000000000000000000000000000000000000000000000a2646970667358221220da8796ab64b6e7424b25b67a070eabc6b25b21f084c29943634d1473e2b524f864736f6c63430008130033a264697066735822122034bec45889ecb9abd15e770986185a3e2ae0ff0249198bc35498317aec91a2b764736f6c63430008130033",
  "immutableReferences": {},
  "source": "// //SPDX-License-Identifier: UNLICENSED\r\npragma solidity 0.8.19;\r\n\r\nimport \"./ITradeFactoryBaseStorage.sol\";\r\n\r\ncontract TradeFactoryBaseStorage is ReentrancyGuard {\r\n    uint256 public totalContracts;\r\n    mapping(uint256 => CSXTrade) tradeContracts;\r\n    IKeepers public keepersContract;\r\n    IUsers public usersContract;\r\n    address factoryAddress;\r\n    bool hasInit;\r\n\r\n    constructor(address _keepers, address _users) {\r\n        keepersContract = IKeepers(_keepers);\r\n        usersContract = IUsers(_users);\r\n    }\r\n\r\n    function init(address _factoryAddress) external {\r\n        require(keepersContract.isCouncil(msg.sender));\r\n        require(!hasInit, \"init\");\r\n        hasInit = true;\r\n        factoryAddress = _factoryAddress;\r\n    }\r\n\r\n    function newTradeContract(\r\n        string memory _itemMarketName,\r\n        TradeUrl memory _tradeUrl,\r\n        string memory _assetId,\r\n        string memory _inspectLink,\r\n        string memory _itemImageUrl,\r\n        uint256 _weiPrice,\r\n        SkinInfo memory _skinInfo\r\n    ) external nonReentrant {\r\n        require(factoryAddress == msg.sender, \"!fact\");\r\n        tradeContracts[totalContracts] = new CSXTrade(\r\n            address(msg.sender),\r\n            address(keepersContract),\r\n            address(usersContract),\r\n            tx.origin,\r\n            _weiPrice,\r\n            _itemMarketName,\r\n            _tradeUrl,\r\n            _assetId,\r\n            _inspectLink,\r\n            _itemImageUrl,\r\n            _skinInfo\r\n        );\r\n        ++totalContracts;\r\n    }\r\n\r\n    function getTradeContractByIndex(uint256 index)\r\n        external\r\n        view\r\n        returns (CSXTrade)\r\n    {\r\n        return tradeContracts[index];\r\n    }\r\n\r\n    function getLastTradeContractAddress() external view returns (address) {\r\n        return address(tradeContracts[totalContracts - 1]);\r\n    }\r\n}\r\n",
  "sourcePath": "C:\\Users\\Charl\\Documents\\Projects\\SteamMarket\\CSX\\csx-contracts\\contracts\\TradeFactory\\storage\\TradeFactoryBaseStorage.sol",
  "compiler": {
    "name": "solc",
    "version": "0.8.19+commit.7dd6d404.Emscripten.clang"
  },
  "schemaVersion": "3.4.3",
  "updatedAt": "2023-07-24T07:07:37.272Z",
  "devdoc": {
    "kind": "dev",
    "methods": {},
    "version": 1
  },
  "userdoc": {
    "kind": "user",
    "methods": {},
    "version": 1
  }
}