{
  "contractName": "TradeFactoryBaseStorage",
  "abi": [
    {
      "inputs": [
        {
          "internalType": "address",
          "name": "_keepers",
          "type": "address"
        },
        {
          "internalType": "address",
          "name": "_users",
          "type": "address"
        }
      ],
      "stateMutability": "nonpayable",
      "type": "constructor"
    },
    {
      "inputs": [],
      "name": "keepersContract",
      "outputs": [
        {
          "internalType": "contract IKeepers",
          "name": "",
          "type": "address"
        }
      ],
      "stateMutability": "view",
      "type": "function"
    },
    {
      "inputs": [],
      "name": "totalContracts",
      "outputs": [
        {
          "internalType": "uint256",
          "name": "",
          "type": "uint256"
        }
      ],
      "stateMutability": "view",
      "type": "function"
    },
    {
      "inputs": [],
      "name": "usersContract",
      "outputs": [
        {
          "internalType": "contract IUsers",
          "name": "",
          "type": "address"
        }
      ],
      "stateMutability": "view",
      "type": "function"
    },
    {
      "inputs": [
        {
          "internalType": "address",
          "name": "_factoryAddress",
          "type": "address"
        }
      ],
      "name": "init",
      "outputs": [],
      "stateMutability": "nonpayable",
      "type": "function"
    },
    {
      "inputs": [
        {
          "internalType": "uint256",
          "name": "index",
          "type": "uint256"
        }
      ],
      "name": "getTradeContract",
      "outputs": [
        {
          "internalType": "contract CSXTrade",
          "name": "",
          "type": "address"
        }
      ],
      "stateMutability": "view",
      "type": "function"
    },
    {
      "inputs": [
        {
          "internalType": "string",
          "name": "_itemMarketName",
          "type": "string"
        },
        {
          "components": [
            {
              "internalType": "uint256",
              "name": "partner",
              "type": "uint256"
            },
            {
              "internalType": "string",
              "name": "token",
              "type": "string"
            }
          ],
          "internalType": "struct TradeUrl",
          "name": "_tradeUrl",
          "type": "tuple"
        },
        {
          "internalType": "string",
          "name": "_assetId",
          "type": "string"
        },
        {
          "internalType": "string",
          "name": "_inspectLink",
          "type": "string"
        },
        {
          "internalType": "string",
          "name": "_itemImageUrl",
          "type": "string"
        },
        {
          "internalType": "uint256",
          "name": "_weiPrice",
          "type": "uint256"
        },
        {
          "components": [
            {
              "internalType": "string",
              "name": "floatValues",
              "type": "string"
            },
            {
              "internalType": "uint256",
              "name": "paintSeed",
              "type": "uint256"
            },
            {
              "internalType": "uint256",
              "name": "paintIndex",
              "type": "uint256"
            }
          ],
          "internalType": "struct SkinInfo",
          "name": "_skinInfo",
          "type": "tuple"
        }
      ],
      "name": "newTradeContract",
      "outputs": [],
      "stateMutability": "nonpayable",
      "type": "function"
    },
    {
      "inputs": [
        {
          "internalType": "uint256",
          "name": "index",
          "type": "uint256"
        }
      ],
      "name": "getTradeContractByIndex",
      "outputs": [
        {
          "internalType": "contract CSXTrade",
          "name": "",
          "type": "address"
        }
      ],
      "stateMutability": "view",
      "type": "function"
    },
    {
      "inputs": [],
      "name": "getLastTradeContractAddress",
      "outputs": [
        {
          "internalType": "address",
          "name": "",
          "type": "address"
        }
      ],
      "stateMutability": "view",
      "type": "function"
    }
  ],
  "bytecode": "0x608060405234801561001057600080fd5b50604051614b87380380614b8783398101604081905261002f91610081565b600160005560038054600160a060020a03938416600160a060020a031991821617909155600480549290931691161790556100b4565b8051600160a060020a038116811461007c57600080fd5b919050565b6000806040838503121561009457600080fd5b61009d83610065565b91506100ab60208401610065565b90509250929050565b614ac4806100c36000396000f3fe60806040523480156200001157600080fd5b5060043610620000855760e060020a6000350463142ebf3c81146200008a57806319ab453c14620000b65780634eb9c03414620000cf5780636c876a7214620000cf57806377d60b9a14620000fb57806394a792e11462000112578063a09037a9146200011c578063c2bd884b1462000135575b600080fd5b6004546200009e90600160a060020a031681565b604051620000ad9190620003ff565b60405180910390f35b620000cd620000c736600462000413565b62000149565b005b6200009e620000e036600462000445565b600090815260026020526040902054600160a060020a031690565b620000cd6200010c36600462000601565b62000249565b6200009e6200035e565b6200012660015481565b604051908152602001620000ad565b6003546200009e90600160a060020a031681565b60035460405160e260020a6326a8d83b028152600160a060020a0390911690639aa360ec906200017e903390600401620003ff565b602060405180830381865afa1580156200019c573d6000803e3d6000fd5b505050506040513d601f19601f82011682018060405250810190620001c2919062000720565b620001cc57600080fd5b60055460a060020a900460ff1615620002205760405160e560020a62461bcd0281526004016200021790602080825260049082015260e260020a631a5b9a5d02604082015260600190565b60405180910390fd5b60058054600160a060020a03909216600160a860020a03199092169190911760a060020a179055565b6200025362000393565b600554600160a060020a031633146200029d5760405160e560020a62461bcd028152602060048201526005602482015260da60020a6408599858dd02604482015260640162000217565b6003546004546040513392600160a060020a03908116921690329086908c908c908c908c908c908b90620002d190620003f1565b620002e79b9a99989796959493929190620007ec565b604051809103906000f08015801562000304573d6000803e3d6000fd5b506001805460009081526002602052604081208054600160a060020a031916600160a060020a03949094169390931790925580549091906200034690620008e1565b90915550620003556001600055565b50505050505050565b60006002600060018054620003749190620008fd565b8152602081019190915260400160002054600160a060020a0316919050565b600260005403620003ea5760405160e560020a62461bcd02815260206004820152601f60248201527f5265656e7472616e637947756172643a207265656e7472616e742063616c6c00604482015260640162000217565b6002600055565b614175806200091a83390190565b600160a060020a0391909116815260200190565b6000602082840312156200042657600080fd5b8135600160a060020a03811681146200043e57600080fd5b9392505050565b6000602082840312156200045857600080fd5b5035919050565b60e060020a634e487b710260009081526041600452602490fd5b600082601f8301126200048b57600080fd5b81356001604060020a0380821115620004a857620004a86200045f565b604051601f8301601f19908116603f01168101908282118183101715620004d357620004d36200045f565b81604052838152866020858801011115620004ed57600080fd5b836020870160208301376000602085830101528094505050505092915050565b6000604082840312156200052057600080fd5b604080519081016001604060020a0380821183831017156200054657620005466200045f565b816040528293508435835260208501359150808211156200056657600080fd5b50620005758582860162000479565b6020830152505092915050565b6000606082840312156200059557600080fd5b604051606081016001604060020a038082118383101715620005bb57620005bb6200045f565b816040528293508435915080821115620005d457600080fd5b50620005e38582860162000479565b82525060208301356020820152604083013560408201525092915050565b600080600080600080600060e0888a0312156200061d57600080fd5b87356001604060020a03808211156200063557600080fd5b620006438b838c0162000479565b985060208a01359150808211156200065a57600080fd5b620006688b838c016200050d565b975060408a01359150808211156200067f57600080fd5b6200068d8b838c0162000479565b965060608a0135915080821115620006a457600080fd5b620006b28b838c0162000479565b955060808a0135915080821115620006c957600080fd5b620006d78b838c0162000479565b945060a08a0135935060c08a0135915080821115620006f557600080fd5b50620007048a828b0162000582565b91505092959891949750929550565b600160a060020a03169052565b6000602082840312156200073357600080fd5b815180151581146200043e57600080fd5b6000815180845260005b818110156200076c576020818501810151868301820152016200074e565b506000602082860101526020601f19601f83011685010191505092915050565b805182526000602082015160406020850152620007ad604085018262000744565b949350505050565b6000815160608452620007cc606085018262000744565b905060208301516020850152604083015160408501528091505092915050565b600160a060020a038c16815260006101606200080c602084018e62000713565b6200081b604084018d62000713565b6200082a606084018c62000713565b8960808401528060a0840152620008448184018a62000744565b905082810360c08401526200085a81896200078c565b905082810360e084015262000870818862000744565b905082810361010084015262000887818762000744565b90508281036101208401526200089e818662000744565b9050828103610140840152620008b58185620007b5565b9e9d5050505050505050505050505050565b60e060020a634e487b710260009081526011600452602490fd5b600060018201620008f657620008f6620008c7565b5060010190565b81810381811115620009135762000913620008c7565b9291505056fe60806040523480156200001157600080fd5b506040516200417538038062004175833981016040819052620000349162000330565b60158054600160a060020a038d8116600160a060020a03199283161790925560138054601480548e8616908516179055600080548d8616941693909317909255600d8a9055918c166101000260ff1916600160a860020a03199091161790556002620000a1878262000554565b50845160049081556020860151869190600590620000c0908262000554565b5060039150620000d39050858262000554565b506008620000e2848262000554565b506009620000f1838262000554565b5080518190601090819062000107908262000554565b506020820151816001015560408201518160020155905050505050505050505050505062000626565b8051600160a060020a03811681146200014857600080fd5b919050565b7f4e487b7100000000000000000000000000000000000000000000000000000000600052604160045260246000fd5b604051601f8201601f191681016001604060020a0381118282101715620001a757620001a76200014d565b604052919050565b600082601f830112620001c157600080fd5b81516001604060020a03811115620001dd57620001dd6200014d565b6020620001f3601f8301601f191682016200017c565b82815285828487010111156200020857600080fd5b60005b83811015620002285785810183015182820184015282016200020b565b506000928101909101919091529392505050565b6000604082840312156200024f57600080fd5b604051604081016001604060020a0382821081831117156200027557620002756200014d565b816040528293508451835260208501519150808211156200029557600080fd5b50620002a485828601620001af565b6020830152505092915050565b600060608284031215620002c457600080fd5b604051606081016001604060020a038282108183111715620002ea57620002ea6200014d565b8160405282935084519150808211156200030357600080fd5b506200031285828601620001af565b82525060208301516020820152604083015160408201525092915050565b60008060008060008060008060008060006101608c8e0312156200035357600080fd5b6200035e8c62000130565b9a506200036e60208d0162000130565b99506200037e60408d0162000130565b98506200038e60608d0162000130565b975060808c0151965060a08c01516001604060020a03811115620003b157600080fd5b620003bf8e828f01620001af565b96505060c08c01516001604060020a03811115620003dc57600080fd5b620003ea8e828f016200023c565b95505060e08c01516001604060020a038111156200040757600080fd5b620004158e828f01620001af565b9450506101008c01516001604060020a038111156200043357600080fd5b620004418e828f01620001af565b9350506101208c01516001604060020a038111156200045f57600080fd5b6200046d8e828f01620001af565b9250506101408c01516001604060020a038111156200048b57600080fd5b620004998e828f01620002b1565b9150509295989b509295989b9093969950565b600281046001821680620004c157607f821691505b602082108103620004fb577f4e487b7100000000000000000000000000000000000000000000000000000000600052602260045260246000fd5b50919050565b601f8211156200054f576000818152602081206020601f860104810160208610156200052a5750805b6020601f860104820191505b818110156200054b5782815560010162000536565b5050505b505050565b81516001604060020a038111156200057057620005706200014d565b6200058881620005818454620004ac565b8462000501565b602080601f831160018114620005c45760008415620005a75750858301515b60028086026008870290910a60001904198216178655506200054b565b600085815260208120601f198616915b82811015620005f557888601518255948401946001909101908401620005d4565b50858210156200061657878501516008601f88160260020a60001904191681555b5050505050600202600101905550565b613b3f80620006366000396000f3fe60806040526004361061018c5760e060020a600035046302197c55811461019157806302d8ee9c146101bd57806308551a53146101df578063142ebf3c1461020c5780631e86221f1461022c578063200d2ed2146102415780632d90d70d14610268578063343bf40e1461028c5780633440543a146102bd578063356cd0dc146102d45780633fcbe5da146102e95780634e9448e914610309578063595210ad146103295780635b902134146103495780636fed1d7e1461035f57806370e066f61461038357806370ec9d54146103985780637150d8ae146103bd5780637384001c146103dd57806385e14a48146103f25780638dada6d81461040c5780638f965d8014610421578063975a177314610451578063b06bec3e14610467578063c2bd884b1461047a578063d2ef033c1461049f578063d55a17c0146104bf578063de11c94a146104d4578063e29b9e97146104f4578063e67d55231461050a578063e9d13b571461051f578063f4a84e0f14610534578063fd7d6df414610549578063fddd56c514610569575b600080fd5b34801561019d57600080fd5b506101a661057e565b6040516101b4929190612f92565b60405180910390f35b3480156101c957600080fd5b506101d2610615565b6040516101b49190612fb3565b3480156101eb57600080fd5b506000546101ff90600160a060020a031681565b6040516101b49190612fc6565b34801561021857600080fd5b506014546101ff90600160a060020a031681565b34801561023857600080fd5b506101d26106a3565b34801561024d57600080fd5b5060135461025b9060ff1681565b6040516101b49190613008565b34801561027457600080fd5b5061027e600f5481565b6040519081526020016101b4565b34801561029857600080fd5b506017546102ad9060a860020a900460ff1681565b60405190151581526020016101b4565b3480156102c957600080fd5b506102d26106b0565b005b3480156102e057600080fd5b506101d2610ae6565b3480156102f557600080fd5b506102d26103043660046130f7565b610af3565b34801561031557600080fd5b506102d2610324366004613288565b610c9c565b34801561033557600080fd5b506102d26103443660046132e4565b61127c565b34801561035557600080fd5b5061027e600e5481565b34801561036b57600080fd5b50610374611520565b6040516101b493929190613318565b34801561038f57600080fd5b506101d26115be565b3480156103a457600080fd5b506017546101ff906101009004600160a060020a031681565b3480156103c957600080fd5b506001546101ff90600160a060020a031681565b3480156103e957600080fd5b506102d26115cb565b3480156103fe57600080fd5b5060175461025b9060ff1681565b34801561041857600080fd5b506101d26118d6565b34801561042d57600080fd5b5061044161043c36600461333d565b6118e3565b6040516101b49493929190613356565b34801561045d57600080fd5b5061027e600c5481565b6102d26104753660046133a3565b611ac4565b34801561048657600080fd5b506013546101ff906101009004600160a060020a031681565b3480156104ab57600080fd5b506102d26104ba36600461342f565b611e1f565b3480156104cb57600080fd5b506102d2612456565b3480156104e057600080fd5b506015546101ff90600160a060020a031681565b34801561050057600080fd5b5061027e600d5481565b34801561051657600080fd5b506101d261267a565b34801561052b57600080fd5b506102d2612687565b34801561054057600080fd5b50600a5461027e565b34801561055557600080fd5b506102d261056436600461342f565b61289c565b34801561057557600080fd5b506101a6612bef565b60048054600580549192916105929061344c565b80601f01602080910402602001604051908101604052809291908181526020018280546105be9061344c565b801561060b5780601f106105e05761010080835404028352916020019161060b565b820191906000526020600020905b8154815290600101906020018083116105ee57829003601f168201915b5050505050905082565b600380546106229061344c565b80601f016020809104026020016040519081016040528092919081815260200182805461064e9061344c565b801561069b5780601f106106705761010080835404028352916020019161069b565b820191906000526020600020905b81548152906001019060200180831161067e57829003601f168201915b505050505081565b600280546106229061344c565b600154600160a060020a03163381146106e75760405160e560020a62461bcd0281526004016106de9061348a565b60405180910390fd5b600260135460ff16600981111561070057610700612fda565b14806107225750600460135460ff16600981111561072057610720612fda565b145b6107675760405160e560020a62461bcd0281526020600482015260106024820152608160020a6f3a393239ba3990b1b7b6b6be30b1ba170260448201526064016106de565b6013805460ff1916600617905560145460005460405160e160020a6321f11cdd028152600160a060020a03928316926343e239ba926107ae923092909116906004016134ad565b600060405180830381600087803b1580156107c857600080fd5b505af11580156107dc573d6000803e3d6000fd5b50506015546000805460405160e160020a633188e179028152919450600160a060020a039283169350636311c2f29261081e92600392909116906004016134c7565b6020604051808303816000875af115801561083d573d6000803e3d6000fd5b505050506040513d601f19601f820116820180604052508101906108619190613561565b9050806108ae5760405160e560020a62461bcd0281526020600482015260156024820152605a60020a74191a591b89dd081c995b5bdd99481d1c98591952590260448201526064016106de565b60008054600c54604051600160a060020a03909216918381818185875af1925050503d80600081146108fc576040519150601f19603f3d011682016040523d82523d6000602084013e610901565b606091505b50509050806109535760405160e560020a62461bcd0281526020600482015260186024820152604060020a774661696c7572652c206574686572206e6f742073656e74210260448201526064016106de565b60145460005460135460405160e060020a63fe4162d1028152600160a060020a039384169363fe4162d193610995933093919092169160ff169060040161357e565b600060405180830381600087803b1580156109af57600080fd5b505af11580156109c3573d6000803e3d6000fd5b505060145460015460135460405160e060020a63fe4162d1028152600160a060020a03938416955063fe4162d19450610a06933093169160ff169060040161357e565b600060405180830381600087803b158015610a2057600080fd5b505af1158015610a34573d6000803e3d6000fd5b505050506000610a45600d54612c03565b604051602001610a5591906135d0565b60408051601f198184030181529082905260155460135460005460015460e360020a630b9b56f3028652939550600160a060020a0392831694635cdab79894610aae9460ff90941693889381169291169060040161360b565b600060405180830381600087803b158015610ac857600080fd5b505af1158015610adc573d6000803e3d6000fd5b5050505050505050565b601680546106229061344c565b601554600160a060020a031633148015610b17575060175460a860020a900460ff16155b610b545760405160e560020a62461bcd028152602060048201526008602482015260c060020a6721666163746f72790260448201526064016106de565b6017805460a860020a60ff02191660a860020a17905560005b8251811015610c1657600a838281518110610b8a57610b8a61364c565b60209081029190910181015182546001810184556000938452919092208251600490920201908190610bbc90826136ac565b5060208201516001820190610bd190826136ac565b50604082015160028201805460ff191660ff90921691909117905560608201516003820190610c0090826136ac565b5050508080610c0e9061378b565b915050610b6d565b506014546000805460405160e060020a63116fd649028152600160a060020a039384169363116fd64993610c5693309360019390911691906004016137a4565b600060405180830381600087803b158015610c7057600080fd5b505af1158015610c84573d6000803e3d6000fd5b5050505080600b9081610c9791906136ac565b505050565b60135460405160e760020a63012875b1028152610100909104600160a060020a03169063943ad88090610cd3903390600401612fc6565b602060405180830381865afa158015610cf0573d6000803e3d6000fd5b505050506040513d601f19601f82011682018060405250810190610d149190613561565b80610d95575060135460405160e060020a63fd6aad25028152610100909104600160a060020a03169063fd6aad2590610d51903390600401612fc6565b602060405180830381865afa158015610d6e573d6000803e3d6000fd5b505050506040513d601f19601f82011682018060405250810190610d9291906137ea565b15155b610dd75760405160e560020a62461bcd02815260206004820152600d6024820152609a60020a6c085ad95c1c881bdc881bdc98db0260448201526064016106de565b600760135460ff166009811115610df057610df0612fda565b14610e2b5760405160e560020a62461bcd028152602060048201526005602482015260dc60020a6402164697370260448201526064016106de565b6015546000805460405160e160020a633188e1790281529192600160a060020a0390811692636311c2f292610e68926003929116906004016134c7565b6020604051808303816000875af1158015610e87573d6000803e3d6000fd5b505050506040513d601f19601f82011682018060405250810190610eab9190613561565b905080610ecd5760405160e560020a62461bcd0281526004016106de90613803565b8415610f8f57600960135460ff166009811115610eec57610eec612fda565b50508115610f8a57600154600c54604051600092600160a060020a031691908381818185875af1925050503d8060008114610f43576040519150601f19603f3d011682016040523d82523d6000602084013e610f48565b606091505b5050905080610f885760405160e560020a62461bcd0281526004016106de90602080825260049082015260e260020a63085cdb9d02604082015260600190565b505b611036565b6013805460ff1916600817905581156110365760008054600c54604051600160a060020a03909216918381818185875af1925050503d8060008114610ff0576040519150601f19603f3d011682016040523d82523d6000602084013e610ff5565b606091505b50509050806110345760405160e560020a62461bcd028152602060048201526005602482015260d960020a6410b9b73a190260448201526064016106de565b505b83156110a65760145460005460405160e160020a6329ca0ea7028152600160a060020a03928316926353941d4e9261107392911690600401612fc6565b600060405180830381600087803b15801561108d57600080fd5b505af11580156110a1573d6000803e3d6000fd5b505050505b82156111165760145460015460405160e160020a6329ca0ea7028152600160a060020a03928316926353941d4e926110e392911690600401612fc6565b600060405180830381600087803b1580156110fd57600080fd5b505af1158015611111573d6000803e3d6000fd5b505050505b60145460005460135460405160e060020a63fe4162d1028152600160a060020a039384169363fe4162d193611158933093919092169160ff169060040161357e565b600060405180830381600087803b15801561117257600080fd5b505af1158015611186573d6000803e3d6000fd5b505060145460015460135460405160e060020a63fe4162d1028152600160a060020a03938416955063fe4162d194506111c9933093169160ff169060040161357e565b600060405180830381600087803b1580156111e357600080fd5b505af11580156111f7573d6000803e3d6000fd5b505060155460135460005460015460405160e360020a630b9b56f3028152600160a060020a039485169650635cdab79895506112439460ff909416939283169290911690600401613828565b600060405180830381600087803b15801561125d57600080fd5b505af1158015611271573d6000803e3d6000fd5b505050505050505050565b600054600154600160a060020a039182169116338214806112a5575033600160a060020a038216145b6112e05760405160e560020a62461bcd028152602060048201526006602482015260d460020a6502167726f7570260448201526064016106de565b600760135460ff1660098111156112f9576112f9612fda565b1415801561131e5750600860135460ff16600981111561131b5761131b612fda565b14155b80156113415750600960135460ff16600981111561133e5761133e612fda565b14155b6113805760405160e560020a62461bcd02815260206004820152600a602482015260b060020a69616c72656164794469730260448201526064016106de565b60138054600760ff19918216811790925560178054600160a860020a031916336101000290921691909117909117905560166113bc84826136ac565b5060145460005460135460405160e060020a63fe4162d1028152600160a060020a039384169363fe4162d1936113ff933093919092169160ff169060040161357e565b600060405180830381600087803b15801561141957600080fd5b505af115801561142d573d6000803e3d6000fd5b505060145460015460135460405160e060020a63fe4162d1028152600160a060020a03938416955063fe4162d19450611470933093169160ff169060040161357e565b600060405180830381600087803b15801561148a57600080fd5b505af115801561149e573d6000803e3d6000fd5b505060155460135460005460015460405160e360020a630b9b56f3028152600160a060020a039485169650635cdab79895506114e99460ff909416938a93811692169060040161360b565b600060405180830381600087803b15801561150357600080fd5b505af1158015611517573d6000803e3d6000fd5b50505050505050565b60108054819061152f9061344c565b80601f016020809104026020016040519081016040528092919081815260200182805461155b9061344c565b80156115a85780601f1061157d576101008083540402835291602001916115a8565b820191906000526020600020905b81548152906001019060200180831161158b57829003601f168201915b5050505050908060010154908060020154905083565b600880546106229061344c565b600054600160a060020a03163381146115f95760405160e560020a62461bcd0281526004016106de9061348a565b600460135460ff16600981111561161257611612612fda565b146116325760405160e560020a62461bcd0281526004016106de90613860565b600e54611642906203f480613888565b42101561168b5760405160e560020a62461bcd0281526020600482015260116024820152607a60020a700cc819185e5cc81b9bdd081c185cdcd9590260448201526064016106de565b6013805460ff1916600617905560145460005460405160e160020a6321f11cdd028152600160a060020a03928316926343e239ba926116d2923092909116906004016134ad565b600060405180830381600087803b1580156116ec57600080fd5b505af1158015611700573d6000803e3d6000fd5b505060145460005460135460405160e060020a63fe4162d1028152600160a060020a03938416955063fe4162d19450611743933093169160ff169060040161357e565b600060405180830381600087803b15801561175d57600080fd5b505af1158015611771573d6000803e3d6000fd5b505060145460015460135460405160e060020a63fe4162d1028152600160a060020a03938416955063fe4162d194506117b4933093169160ff169060040161357e565b600060405180830381600087803b1580156117ce57600080fd5b505af11580156117e2573d6000803e3d6000fd5b505060008054600c54604051929450600160a060020a039091169250908381818185875af1925050503d8060008114611837576040519150601f19603f3d011682016040523d82523d6000602084013e61183c565b606091505b50509050806118605760405160e560020a62461bcd0281526004016106de9061389b565b600061186d600d54612c03565b60405160200161187d91906138bf565b60408051601f198184030181529082905260155460135460005460015460e360020a630b9b56f3028652939550600160a060020a0392831694635cdab798946114e99460ff90941693889381169291169060040161360b565b600b80546106229061344c565b600a81815481106118f357600080fd5b90600052602060002090600402016000915090508060000180546119169061344c565b80601f01602080910402602001604051908101604052809291908181526020018280546119429061344c565b801561198f5780601f106119645761010080835404028352916020019161198f565b820191906000526020600020905b81548152906001019060200180831161197257829003601f168201915b5050505050908060010180546119a49061344c565b80601f01602080910402602001604051908101604052809291908181526020018280546119d09061344c565b8015611a1d5780601f106119f257610100808354040283529160200191611a1d565b820191906000526020600020905b815481529060010190602001808311611a0057829003601f168201915b5050506002840154600385018054949560ff909216949193509150611a419061344c565b80601f0160208091040260200160405190810160405280929190818152602001828054611a6d9061344c565b8015611aba5780601f10611a8f57610100808354040283529160200191611aba565b820191906000526020600020905b815481529060010190602001808311611a9d57829003601f168201915b5050505050905084565b600060135460ff166009811115611add57611add612fda565b14611b1f5760405160e560020a62461bcd02815260206004820152600c602482015260a160020a6b3a39321039ba1010b832b7170260448201526064016106de565b600d54341015611b605760405160e560020a62461bcd028152602060048201526006602482015260d060020a652176616c75650260448201526064016106de565b600054600160a060020a03163303611baa5760405160e560020a62461bcd028152602060048201526007602482015260c960020a6610b9b2b63632b90260448201526064016106de565b6013805460ff1916600217905542600f5560145460005460405160e060020a637f1b5565028152600160a060020a0392831692637f1b556592611bf5923092909116906004016134ad565b600060405180830381600087803b158015611c0f57600080fd5b505af1158015611c23573d6000803e3d6000fd5b505060018054600160a060020a031916331790555050805160069081556020820151829190600790611c5590826136ac565b505034600c5550600454600090611c6b90612c03565b8251600590611c7990612c03565b8460200151611c8733612c98565b611c92600d54612c03565b604051602001611ca7969594939291906138db565b60408051601f198184030181529082905260145460005460135460e060020a63fe4162d1028552929450600160a060020a039182169363fe4162d193611cf9933093169160ff9091169060040161357e565b600060405180830381600087803b158015611d1357600080fd5b505af1158015611d27573d6000803e3d6000fd5b505060145460015460135460405160e060020a63116fd649028152600160a060020a03938416955063116fd6499450611d7093309360009391169160ff909116906004016137a4565b600060405180830381600087803b158015611d8a57600080fd5b505af1158015611d9e573d6000803e3d6000fd5b505060155460135460005460015460405160e360020a630b9b56f3028152600160a060020a039485169650635cdab7989550611de99460ff909416938893811692169060040161360b565b600060405180830381600087803b158015611e0357600080fd5b505af1158015611e17573d6000803e3d6000fd5b505050505050565b60135460405160e760020a63012875b1028152610100909104600160a060020a03169063943ad88090611e56903390600401612fc6565b602060405180830381865afa158015611e73573d6000803e3d6000fd5b505050506040513d601f19601f82011682018060405250810190611e979190613561565b611ea057600080fd5b600260135460ff166009811115611eb957611eb9612fda565b1480611edb5750600460135460ff166009811115611ed957611ed9612fda565b145b611f1c5760405160e560020a62461bcd02815260206004820152600c602482015260a060020a6b747264737473213e636f6d6d0260448201526064016106de565b80156121a6576013805460ff1916600617905560145460005460405160e160020a6321f11cdd028152600160a060020a03928316926343e239ba92611f69923092909116906004016134ad565b600060405180830381600087803b158015611f8357600080fd5b505af1158015611f97573d6000803e3d6000fd5b505060145460005460135460405160e060020a63fe4162d1028152600160a060020a03938416955063fe4162d19450611fda933093169160ff169060040161357e565b600060405180830381600087803b158015611ff457600080fd5b505af1158015612008573d6000803e3d6000fd5b505060145460015460135460405160e060020a63fe4162d1028152600160a060020a03938416955063fe4162d1945061204b933093169160ff169060040161357e565b600060405180830381600087803b15801561206557600080fd5b505af1158015612079573d6000803e3d6000fd5b505060008054600c54604051929450600160a060020a039091169250908381818185875af1925050503d80600081146120ce576040519150601f19603f3d011682016040523d82523d6000602084013e6120d3565b606091505b50509050806120f75760405160e560020a62461bcd0281526004016106de9061389b565b6000612104600d54612c03565b60405160200161211491906138bf565b60408051601f198184030181529082905260155460135460005460015460e360020a630b9b56f3028652939550600160a060020a0392831694635cdab7989461216d9460ff90941693889381169291169060040161360b565b600060405180830381600087803b15801561218757600080fd5b505af115801561219b573d6000803e3d6000fd5b5050505050506123b0565b60138054600960ff198216811790925560145460005460405160e060020a63fe4162d102815260ff90931693600160a060020a039283169363fe4162d1936121f593309391169160040161357e565b600060405180830381600087803b15801561220f57600080fd5b505af1158015612223573d6000803e3d6000fd5b5060029250612230915050565b81600981111561224257612242612fda565b106122bc5760145460015460135460405160e060020a63fe4162d1028152600160a060020a039384169363fe4162d193612289933093919092169160ff169060040161357e565b600060405180830381600087803b1580156122a357600080fd5b505af11580156122b7573d6000803e3d6000fd5b505050505b600154600c54604051600092600160a060020a031691908381818185875af1925050503d806000811461230b576040519150601f19603f3d011682016040523d82523d6000602084013e612310565b606091505b50509050806123345760405160e560020a62461bcd0281526004016106de9061389b565b60155460135460005460015460405160e360020a630b9b56f3028152600160a060020a0394851694635cdab7989461237b9460ff90911693908216929116906004016139d0565b600060405180830381600087803b15801561239557600080fd5b505af11580156123a9573d6000803e3d6000fd5b5050505050505b6015546000805460405160e160020a633188e1790281529192600160a060020a0390811692636311c2f2926123ed926003929116906004016134c7565b6020604051808303816000875af115801561240c573d6000803e3d6000fd5b505050506040513d601f19601f820116820180604052508101906124309190613561565b9050806124525760405160e560020a62461bcd0281526004016106de90613803565b5050565b600054600160a060020a03163381146124845760405160e560020a62461bcd0281526004016106de9061348a565b600060135460ff16600981111561249d5761249d612fda565b146124da5760405160e560020a62461bcd028152602060048201526007602482015260c960020a6639ba1010b832b70260448201526064016106de565b6013805460ff1916600190811790915560145460005460405160e060020a63fe4162d1028152600160a060020a039283169363fe4162d1936125249330939116919060040161357e565b600060405180830381600087803b15801561253e57600080fd5b505af1158015612552573d6000803e3d6000fd5b505050506000612563600d54612c03565b60405160200161257391906138bf565b60408051601f198184030181529082905260155460135460005460015460e360020a630b9b56f3028652939550600160a060020a0392831694635cdab798946125cc9460ff90941693889381169291169060040161360b565b600060405180830381600087803b1580156125e657600080fd5b505af11580156125fa573d6000803e3d6000fd5b505060155460005460405160e160020a633188e179028152600160a060020a039283169450636311c2f293506126379260039216906004016134c7565b6020604051808303816000875af1158015612656573d6000803e3d6000fd5b505050506040513d601f19601f82011682018060405250810190610c979190613561565b600980546106229061344c565b600154600160a060020a03163381146126b55760405160e560020a62461bcd0281526004016106de9061348a565b600260135460ff1660098111156126ce576126ce612fda565b146126ee5760405160e560020a62461bcd0281526004016106de90613860565b6013805460ff1916600390811790915560145460005460405160e060020a63fe4162d1028152600160a060020a039283169363fe4162d1936127389330939116919060040161357e565b600060405180830381600087803b15801561275257600080fd5b505af1158015612766573d6000803e3d6000fd5b505060145460015460135460405160e060020a63fe4162d1028152600160a060020a03938416955063fe4162d194506127a9933093169160ff169060040161357e565b600060405180830381600087803b1580156127c357600080fd5b505af11580156127d7573d6000803e3d6000fd5b5050600154600c5460405160009450600160a060020a039092169250908381818185875af1925050503d806000811461282c576040519150601f19603f3d011682016040523d82523d6000602084013e612831565b606091505b50509050806128555760405160e560020a62461bcd0281526004016106de90613a1e565b60155460135460005460015460405160e360020a630b9b56f3028152600160a060020a0394851694635cdab79894611de99460ff9091169390821692911690600401613a3f565b600054600160a060020a03163381146128ca5760405160e560020a62461bcd0281526004016106de9061348a565b600260135460ff1660098111156128e3576128e3612fda565b146129035760405160e560020a62461bcd0281526004016106de90613860565b8115612a41576013805460ff1916600490811790915542600e5560145460005460405160e060020a63fe4162d1028152600160a060020a039283169363fe4162d19361295693309391169190810161357e565b600060405180830381600087803b15801561297057600080fd5b505af1158015612984573d6000803e3d6000fd5b505060145460015460135460405160e060020a63fe4162d1028152600160a060020a03938416955063fe4162d194506129c7933093169160ff169060040161357e565b600060405180830381600087803b1580156129e157600080fd5b505af11580156129f5573d6000803e3d6000fd5b505060155460135460005460015460405160e360020a630b9b56f3028152600160a060020a039485169650635cdab7989550611de99460ff909416939283169290911690600401613828565b6013805460ff1916600590811790915560145460005460405160e060020a63fe4162d1028152600160a060020a039283169363fe4162d193612a8b9330939116919060040161357e565b600060405180830381600087803b158015612aa557600080fd5b505af1158015612ab9573d6000803e3d6000fd5b505060145460015460135460405160e060020a63fe4162d1028152600160a060020a03938416955063fe4162d19450612afc933093169160ff169060040161357e565b600060405180830381600087803b158015612b1657600080fd5b505af1158015612b2a573d6000803e3d6000fd5b5050600154600c5460405160009450600160a060020a039092169250908381818185875af1925050503d8060008114612b7f576040519150601f19603f3d011682016040523d82523d6000602084013e612b84565b606091505b5050905080612ba85760405160e560020a62461bcd0281526004016106de90613a1e565b60155460135460005460015460405160e360020a630b9b56f3028152600160a060020a0394851694635cdab798946114e99460ff9091169390821692911690600401613a8d565b60068054600780549192916105929061344c565b60606000612c1083612cb4565b60010190506000816001604060020a03811115612c2f57612c2f613016565b6040519080825280601f01601f191660200182016040528015612c59576020820181803683370190505b5090508181016020015b60001901608160020a6f181899199a1a9b1b9c1cb0b131b232b302600a86061a8153600a8504945084612c6357509392505050565b6060612cae600160a060020a0383166014612d92565b92915050565b600080604060020a72184f03e93ff9f4daa797ed6e38ed64bf6a1f01028310612cf957604060020a72184f03e93ff9f4daa797ed6e38ed64bf6a1f0102830492506040015b6d04ee2d6d415b85acef81000000008310612d25576d04ee2d6d415b85acef8100000000830492506020015b662386f26fc100008310612d4357662386f26fc10000830492506010015b6305f5e1008310612d5b576305f5e100830492506008015b6127108310612d6f57612710830492506004015b60648310612d81576064830492506002015b600a8310612cae5760010192915050565b60606000612da1836002613adb565b612dac906002613888565b6001604060020a03811115612dc357612dc3613016565b6040519080825280601f01601f191660200182016040528015612ded576020820181803683370190505b50905060fc60020a60030281600081518110612e0b57612e0b61364c565b6020010190600160f860020a031916908160001a90535060fb60020a600f0281600181518110612e3d57612e3d61364c565b6020010190600160f860020a031916908160001a9053506000612e61846002613adb565b612e6c906001613888565b90505b6001811115612ee957608160020a6f181899199a1a9b1b9c1cb0b131b232b30285600f1660108110612ea357612ea361364c565b1a60f860020a02828281518110612ebc57612ebc61364c565b6020010190600160f860020a031916908160001a905350601090940493612ee281613af2565b9050612e6f565b508315612f3b5760405160e560020a62461bcd02815260206004820181905260248201527f537472696e67733a20686578206c656e67746820696e73756666696369656e7460448201526064016106de565b9392505050565b60005b83811015612f5d578181015183820152602001612f45565b50506000910152565b60008151808452612f7e816020860160208601612f42565b601f01601f19169290920160200192915050565b828152604060208201526000612fab6040830184612f66565b949350505050565b602081526000612f3b6020830184612f66565b600160a060020a0391909116815260200190565b60e060020a634e487b710260009081526021600452602490fd5b600a811061300457613004612fda565b9052565b60208101612cae8284612ff4565b60e060020a634e487b710260009081526041600452602490fd5b604051608081016001604060020a038111828210171561305257613052613016565b60405290565b604051601f8201601f191681016001604060020a038111828210171561308057613080613016565b604052919050565b600082601f83011261309957600080fd5b81356001604060020a038111156130b2576130b2613016565b6130c5601f8201601f1916602001613058565b8181528460208386010111156130da57600080fd5b816020850160208301376000918101602001919091529392505050565b6000806040838503121561310a57600080fd5b82356001604060020a038082111561312157600080fd5b818501915085601f83011261313557600080fd5b813560208282111561314957613149613016565b808202613157828201613058565b928352848101820192828101908a85111561317157600080fd5b83870192505b848310156132495782358681111561318f5760008081fd5b87016080818d03601f19018113156131a75760008081fd5b6131af613030565b86830135898111156131c15760008081fd5b6131cf8f8983870101613088565b8252506040830135898111156131e55760008081fd5b6131f38f8983870101613088565b888301525060608084013560ff8116811461320e5760008081fd5b60408301529183013591898311156132265760008081fd5b6132348f8985870101613088565b90820152845250509183019190830190613177565b975050508601359250508082111561326057600080fd5b5061326d85828601613088565b9150509250929050565b801515811461328557600080fd5b50565b6000806000806080858703121561329e57600080fd5b84356132a981613277565b935060208501356132b981613277565b925060408501356132c981613277565b915060608501356132d981613277565b939692955090935050565b6000602082840312156132f657600080fd5b81356001604060020a0381111561330c57600080fd5b612fab84828501613088565b60608152600061332b6060830186612f66565b60208301949094525060400152919050565b60006020828403121561334f57600080fd5b5035919050565b6080815260006133696080830187612f66565b828103602084015261337b8187612f66565b905060ff8516604084015282810360608401526133988185612f66565b979650505050505050565b6000602082840312156133b557600080fd5b81356001604060020a03808211156133cc57600080fd5b90830190604082860312156133e057600080fd5b6040516040810181811083821117156133fb576133fb613016565b6040528235815260208301358281111561341457600080fd5b61342087828601613088565b60208301525095945050505050565b60006020828403121561344157600080fd5b8135612f3b81613277565b60028104600182168061346057607f821691505b6020821081036134845760e060020a634e487b710260009081526022600452602490fd5b50919050565b602080825260069082015260d060020a6521706172747902604082015260600190565b600160a060020a0392831681529116602082015260400190565b6040815260008084546134d98161344c565b80604086015260606001808416600081146134fb576001811461351557613546565b60ff19851688840152602084151502880183019550613546565b8960005260208060002060005b8681101561353d5781548b8201870152908401908201613522565b8a018501975050505b50505050600160a060020a0385166020850152509050612f3b565b60006020828403121561357357600080fd5b8151612f3b81613277565b600160a060020a0384811682528316602082015260608101612fab6040830184612ff4565b600081516135b5818560208601612f42565b9290920192915050565b60f260020a611f1f02815260020190565b600082516135e2818460208701612f42565b60f260020a611f1f0292019182525060d260020a65135053955053026002820152600801919050565b6136158186612ff4565b60806020820152600061362b6080830186612f66565b600160a060020a039485166040840152929093166060909101529392505050565b60e060020a634e487b710260009081526032600452602490fd5b601f821115610c97576000818152602081206020601f8601048101602086101561368d5750805b6020601f860104820191505b81811015611e1757828155600101613699565b81516001604060020a038111156136c5576136c5613016565b6136d9816136d3845461344c565b84613666565b602080601f83116001811461371257600084156136f65750858301515b60028086026008870290910a6000190419821617865550611e17565b600085815260208120601f198616915b8281101561374157888601518255948401946001909101908401613722565b508582101561376157878501516008601f88160260020a60001904191681555b5050505050600202600101905550565b60e060020a634e487b710260009081526011600452602490fd5b60006001820161379d5761379d613771565b5060010190565b600160a060020a0385811682526080820190600286106137c6576137c6612fda565b60208301869052841660408301526137e16060830184612ff4565b95945050505050565b6000602082840312156137fc57600080fd5b5051919050565b602080825260089082015260c260020a67085d1c985919525902604082015260600190565b6138328185612ff4565b608060208201819052600090820152600160a060020a0392831660408201529116606082015260a001919050565b6020808252600b9082015260a860020a6a74726473747321636f6d6d02604082015260600190565b80820180821115612cae57612cae613771565b602080825260079082015260cb60020a66042e6dce88ae8d02604082015260600190565b600082516138d1818460208701612f42565b9190910192915050565b600087516138ed818460208c01612f42565b808301905060f860020a602b028152600088546139098161344c565b600182168015613920576001811461393b57613974565b60ff1983166001860152600182151583028601019350613974565b8b600052602060002060005b8381101561396957815460018289010152600182019150602081019050613947565b505060018286010193505b5050506139c26139bc6139b16139b66139b16139ab61399b613995886135bf565b8f6135a3565b60f860020a602b02815260010190565b8c6135a3565b6135bf565b896135a3565b866135a3565b9a9950505050505050505050565b6139da8185612ff4565b608060208201819052600a9082015260b260020a6912d3c8111151905553150260a0820152600160a060020a0392831660408201529116606082015260c001919050565b602080825260049082015260e360020a630428ae8d02604082015260600190565b613a498185612ff4565b608060208201819052600a9082015260b260020a69109548111151905553150260a0820152600160a060020a0392831660408201529116606082015260c001919050565b613a978185612ff4565b608060208201819052600a9082015260b260020a6914d148111151905553150260a0820152600160a060020a0392831660408201529116606082015260c001919050565b8082028115828204841417612cae57612cae613771565b600081613b0157613b01613771565b50600019019056fea2646970667358221220b56283f7e6eac5a8ac5fe2507f28950bfec414dd9b97211cbc958d5c47084bea64736f6c63430008130033a2646970667358221220b914b363029cf4bf2d1f8e0d3d0e0ebefb114fd9b02cc0fb2b5e3c1e2cbf5a6364736f6c63430008130033",
  "immutableReferences": {},
  "source": "// //SPDX-License-Identifier: UNLICENSED\r\npragma solidity 0.8.19;\r\n\r\nimport \"./ITradeFactoryBaseStorage.sol\";\r\n\r\ncontract TradeFactoryBaseStorage is ReentrancyGuard {\r\n    uint256 public totalContracts;\r\n    mapping(uint256 => CSXTrade) tradeContracts;\r\n    IKeepers public keepersContract;\r\n    IUsers public usersContract;\r\n    address factoryAddress;\r\n    bool hasInit;\r\n\r\n    constructor(address _keepers, address _users) {\r\n        // TODO\r\n        keepersContract = IKeepers(_keepers);\r\n        usersContract = IUsers(_users);\r\n    }\r\n\r\n    function init(address _factoryAddress) external {\r\n        require(keepersContract.isCouncil(msg.sender));\r\n        require(!hasInit, \"init\");\r\n        hasInit = true;\r\n        factoryAddress = _factoryAddress;\r\n    }\r\n\r\n    function getTradeContract(uint256 index) external view returns (CSXTrade) {\r\n        return tradeContracts[index];\r\n    }\r\n\r\n    function newTradeContract(\r\n        string memory _itemMarketName,\r\n        TradeUrl memory _tradeUrl,\r\n        string memory _assetId,\r\n        string memory _inspectLink,\r\n        string memory _itemImageUrl,\r\n        uint256 _weiPrice,\r\n        SkinInfo memory _skinInfo\r\n    ) external nonReentrant {\r\n        require(factoryAddress == msg.sender, \"!fact\");\r\n        tradeContracts[totalContracts] = new CSXTrade(\r\n            address(msg.sender),\r\n            address(keepersContract),\r\n            address(usersContract),\r\n            tx.origin,\r\n            _weiPrice,\r\n            _itemMarketName,\r\n            _tradeUrl,\r\n            _assetId,\r\n            _inspectLink,\r\n            _itemImageUrl,\r\n            _skinInfo\r\n        );\r\n        ++totalContracts;\r\n    }\r\n\r\n    function getTradeContractByIndex(uint256 index)\r\n        external\r\n        view\r\n        returns (CSXTrade)\r\n    {\r\n        return tradeContracts[index];\r\n    }\r\n\r\n    function getLastTradeContractAddress() external view returns (address) {\r\n        return address(tradeContracts[totalContracts - 1]);\r\n    }\r\n}\r\n",
  "sourcePath": "C:\\Users\\Charl\\Documents\\Projects\\SteamMarket\\CSX\\csx-contracts\\contracts\\TradeFactory\\storage\\TradeFactoryBaseStorage.sol",
  "compiler": {
    "name": "solc",
    "version": "0.8.19+commit.7dd6d404.Emscripten.clang"
  },
  "schemaVersion": "3.4.3",
  "updatedAt": "2023-04-13T18:42:21.322Z",
  "devdoc": {
    "kind": "dev",
    "methods": {},
    "version": 1
  },
  "userdoc": {
    "kind": "user",
    "methods": {},
    "version": 1
  }
}