{
  "contractName": "USDCToken",
  "abi": [
    {
      "inputs": [],
      "stateMutability": "nonpayable",
      "type": "constructor"
    },
    {
      "anonymous": false,
      "inputs": [
        {
          "indexed": true,
          "internalType": "address",
          "name": "owner",
          "type": "address"
        },
        {
          "indexed": true,
          "internalType": "address",
          "name": "spender",
          "type": "address"
        },
        {
          "indexed": false,
          "internalType": "uint256",
          "name": "value",
          "type": "uint256"
        }
      ],
      "name": "Approval",
      "type": "event"
    },
    {
      "anonymous": false,
      "inputs": [
        {
          "indexed": true,
          "internalType": "address",
          "name": "from",
          "type": "address"
        },
        {
          "indexed": true,
          "internalType": "address",
          "name": "to",
          "type": "address"
        },
        {
          "indexed": false,
          "internalType": "uint256",
          "name": "value",
          "type": "uint256"
        }
      ],
      "name": "Transfer",
      "type": "event"
    },
    {
      "inputs": [
        {
          "internalType": "address",
          "name": "owner",
          "type": "address"
        },
        {
          "internalType": "address",
          "name": "spender",
          "type": "address"
        }
      ],
      "name": "allowance",
      "outputs": [
        {
          "internalType": "uint256",
          "name": "",
          "type": "uint256"
        }
      ],
      "stateMutability": "view",
      "type": "function",
      "constant": true
    },
    {
      "inputs": [
        {
          "internalType": "address",
          "name": "spender",
          "type": "address"
        },
        {
          "internalType": "uint256",
          "name": "amount",
          "type": "uint256"
        }
      ],
      "name": "approve",
      "outputs": [
        {
          "internalType": "bool",
          "name": "",
          "type": "bool"
        }
      ],
      "stateMutability": "nonpayable",
      "type": "function"
    },
    {
      "inputs": [
        {
          "internalType": "address",
          "name": "account",
          "type": "address"
        }
      ],
      "name": "balanceOf",
      "outputs": [
        {
          "internalType": "uint256",
          "name": "",
          "type": "uint256"
        }
      ],
      "stateMutability": "view",
      "type": "function",
      "constant": true
    },
    {
      "inputs": [
        {
          "internalType": "address",
          "name": "spender",
          "type": "address"
        },
        {
          "internalType": "uint256",
          "name": "subtractedValue",
          "type": "uint256"
        }
      ],
      "name": "decreaseAllowance",
      "outputs": [
        {
          "internalType": "bool",
          "name": "",
          "type": "bool"
        }
      ],
      "stateMutability": "nonpayable",
      "type": "function"
    },
    {
      "inputs": [
        {
          "internalType": "address",
          "name": "spender",
          "type": "address"
        },
        {
          "internalType": "uint256",
          "name": "addedValue",
          "type": "uint256"
        }
      ],
      "name": "increaseAllowance",
      "outputs": [
        {
          "internalType": "bool",
          "name": "",
          "type": "bool"
        }
      ],
      "stateMutability": "nonpayable",
      "type": "function"
    },
    {
      "inputs": [],
      "name": "maxSupply",
      "outputs": [
        {
          "internalType": "uint256",
          "name": "",
          "type": "uint256"
        }
      ],
      "stateMutability": "view",
      "type": "function",
      "constant": true
    },
    {
      "inputs": [],
      "name": "name",
      "outputs": [
        {
          "internalType": "string",
          "name": "",
          "type": "string"
        }
      ],
      "stateMutability": "view",
      "type": "function",
      "constant": true
    },
    {
      "inputs": [],
      "name": "symbol",
      "outputs": [
        {
          "internalType": "string",
          "name": "",
          "type": "string"
        }
      ],
      "stateMutability": "view",
      "type": "function",
      "constant": true
    },
    {
      "inputs": [],
      "name": "totalSupply",
      "outputs": [
        {
          "internalType": "uint256",
          "name": "",
          "type": "uint256"
        }
      ],
      "stateMutability": "view",
      "type": "function",
      "constant": true
    },
    {
      "inputs": [
        {
          "internalType": "address",
          "name": "to",
          "type": "address"
        },
        {
          "internalType": "uint256",
          "name": "amount",
          "type": "uint256"
        }
      ],
      "name": "transfer",
      "outputs": [
        {
          "internalType": "bool",
          "name": "",
          "type": "bool"
        }
      ],
      "stateMutability": "nonpayable",
      "type": "function"
    },
    {
      "inputs": [
        {
          "internalType": "address",
          "name": "from",
          "type": "address"
        },
        {
          "internalType": "address",
          "name": "to",
          "type": "address"
        },
        {
          "internalType": "uint256",
          "name": "amount",
          "type": "uint256"
        }
      ],
      "name": "transferFrom",
      "outputs": [
        {
          "internalType": "bool",
          "name": "",
          "type": "bool"
        }
      ],
      "stateMutability": "nonpayable",
      "type": "function"
    },
    {
      "inputs": [],
      "name": "decimals",
      "outputs": [
        {
          "internalType": "uint8",
          "name": "",
          "type": "uint8"
        }
      ],
      "stateMutability": "pure",
      "type": "function",
      "constant": true
    }
  ],
  "bytecode": "0x60806040523480156200001157600080fd5b5060408051808201825260048082527f5553444300000000000000000000000000000000000000000000000000000000602080840182905284518086019095529184529083015290600362000067838262000289565b50600462000076828262000289565b5050506200009a33655af3107a4000620000a0640100000000026401000000009004565b6200039d565b600160a060020a03821662000115576040517f08c379a000000000000000000000000000000000000000000000000000000000815260206004820152601f60248201527f45524332303a206d696e7420746f20746865207a65726f206164647265737300604482015260640160405180910390fd5b6200012c60008383640100000000620001ae810204565b80600260008282546200014091906200035c565b9091555050600160a060020a038216600081815260208181526040808320805486019055518481527fddf252ad1be2c89b69c2b068fc378daa952ba7f163c4a11628f55a4df523b3ef910160405180910390a3620001aa60008383640100000000620001ae810204565b5050565b505050565b7f4e487b7100000000000000000000000000000000000000000000000000000000600052604160045260246000fd5b600281046001821680620001f757607f821691505b60208210810362000231577f4e487b7100000000000000000000000000000000000000000000000000000000600052602260045260246000fd5b50919050565b601f821115620001ae576000818152602081206020601f86010481016020861015620002605750805b6020601f860104820191505b8181101562000281578281556001016200026c565b505050505050565b815167ffffffffffffffff811115620002a657620002a6620001b3565b620002be81620002b78454620001e2565b8462000237565b602080601f831160018114620002fa5760008415620002dd5750858301515b60028086026008870290910a600019041982161786555062000281565b600085815260208120601f198616915b828110156200032b578886015182559484019460019091019084016200030a565b50858210156200034c57878501516008601f88160260020a60001904191681555b5050505050600202600101905550565b8082018082111562000397577f4e487b7100000000000000000000000000000000000000000000000000000000600052601160045260246000fd5b92915050565b61088c80620003ad6000396000f3fe608060405234801561001057600080fd5b50600436106100a75760e060020a600035046306fdde0381146100ac578063095ea7b3146100ca57806318160ddd146100ed57806323b872dd146100ff578063313ce56714610112578063395093511461012157806370a082311461013457806395d89b411461015d578063a457c2d714610165578063a9059cbb14610178578063d5abeb011461018b578063dd62ed3e14610198575b600080fd5b6100b46101ab565b6040516100c191906106ce565b60405180910390f35b6100dd6100d8366004610738565b61023d565b60405190151581526020016100c1565b6002545b6040519081526020016100c1565b6100dd61010d366004610762565b610257565b604051600681526020016100c1565b6100dd61012f366004610738565b61027b565b6100f161014236600461079e565b600160a060020a031660009081526020819052604090205490565b6100b461029d565b6100dd610173366004610738565b6102ac565b6100dd610186366004610738565b610332565b6100f1655af3107a400081565b6100f16101a63660046107c0565b610340565b6060600380546101ba906107f3565b80601f01602080910402602001604051908101604052809291908181526020018280546101e6906107f3565b80156102335780601f1061020857610100808354040283529160200191610233565b820191906000526020600020905b81548152906001019060200180831161021657829003601f168201915b5050505050905090565b60003361024b81858561036b565b60019150505b92915050565b60003361026585828561049b565b610270858585610518565b506001949350505050565b60003361024b81858561028e8383610340565b6102989190610831565b61036b565b6060600480546101ba906107f3565b600033816102ba8286610340565b9050838110156103255760405160e560020a62461bcd02815260206004820152602560248201527f45524332303a2064656372656173656420616c6c6f77616e63652062656c6f77604482015260d860020a64207a65726f0260648201526084015b60405180910390fd5b610270828686840361036b565b60003361024b818585610518565b600160a060020a03918216600090815260016020908152604080832093909416825291909152205490565b600160a060020a0383166103d35760405160e560020a62461bcd028152602060048201526024808201527f45524332303a20617070726f76652066726f6d20746865207a65726f20616464604482015260e060020a637265737302606482015260840161031c565b600160a060020a03821661043a5760405160e560020a62461bcd02815260206004820152602260248201527f45524332303a20617070726f766520746f20746865207a65726f206164647265604482015260f060020a61737302606482015260840161031c565b600160a060020a0383811660008181526001602090815260408083209487168084529482529182902085905590518481527f8c5be1e5ebec7d5bd14f71427d1e84f3dd0314c0f7b2291e5b200ac8c7c3b925910160405180910390a3505050565b60006104a78484610340565b9050600019811461051257818110156105055760405160e560020a62461bcd02815260206004820152601d60248201527f45524332303a20696e73756666696369656e7420616c6c6f77616e6365000000604482015260640161031c565b610512848484840361036b565b50505050565b600160a060020a0383166105825760405160e560020a62461bcd02815260206004820152602560248201527f45524332303a207472616e736665722066726f6d20746865207a65726f206164604482015260d860020a64647265737302606482015260840161031c565b600160a060020a0382166105ea5760405160e560020a62461bcd02815260206004820152602360248201527f45524332303a207472616e7366657220746f20746865207a65726f2061646472604482015260e860020a6265737302606482015260840161031c565b600160a060020a038316600090815260208190526040902054818110156106685760405160e560020a62461bcd02815260206004820152602660248201527f45524332303a207472616e7366657220616d6f756e7420657863656564732062604482015260d060020a65616c616e636502606482015260840161031c565b600160a060020a03848116600081815260208181526040808320878703905593871680835291849020805487019055925185815290927fddf252ad1be2c89b69c2b068fc378daa952ba7f163c4a11628f55a4df523b3ef910160405180910390a3610512565b600060208083528351808285015260005b818110156106fb578581018301518582016040015282016106df565b506000604082860101526040601f19601f8301168501019250505092915050565b8035600160a060020a038116811461073357600080fd5b919050565b6000806040838503121561074b57600080fd5b6107548361071c565b946020939093013593505050565b60008060006060848603121561077757600080fd5b6107808461071c565b925061078e6020850161071c565b9150604084013590509250925092565b6000602082840312156107b057600080fd5b6107b98261071c565b9392505050565b600080604083850312156107d357600080fd5b6107dc8361071c565b91506107ea6020840161071c565b90509250929050565b60028104600182168061080757607f821691505b60208210810361082b5760e060020a634e487b710260009081526022600452602490fd5b50919050565b808201808211156102515760e060020a634e487b710260009081526011600452602490fdfea264697066735822122067d20cd43d21fd9a1bdffb0ad6ba4757d44d0b9f130ef36c96d46b57865c7f3b64736f6c63430008130033",
  "immutableReferences": {},
  "source": "// SPDX-License-Identifier: MIT\r\n// MOCK USDC Contract \r\n\r\npragma solidity 0.8.19;\r\n\r\nimport {ERC20} from \"../Interfaces.sol\";\r\n\r\ncontract USDCToken is ERC20 {\r\n    // ONE HUNDERED MILLION MOCK TOKENS WITH 6 DECIMALS\r\n    uint256 public constant maxSupply = 100000000 * 10 ** 6;\r\n\r\n    constructor() ERC20(\"USDC\", \"USDC\") {\r\n        _mint(msg.sender, maxSupply);\r\n    }\r\n\r\n    function decimals() public pure override returns (uint8) {\r\n        return 6;\r\n    }\r\n}",
  "sourcePath": "C:\\Users\\Charl\\Documents\\Projects\\SteamMarket\\CSX\\csx-contracts\\contracts\\CSX\\mock\\USDC.sol",
  "compiler": {
    "name": "solc",
    "version": "0.8.19+commit.7dd6d404.Emscripten.clang"
  },
  "schemaVersion": "3.4.3",
  "updatedAt": "2023-04-19T09:27:01.328Z",
  "networkType": "ethereum",
  "devdoc": {
    "events": {
      "Approval(address,address,uint256)": {
        "details": "Emitted when the allowance of a `spender` for an `owner` is set by a call to {approve}. `value` is the new allowance."
      },
      "Transfer(address,address,uint256)": {
        "details": "Emitted when `value` tokens are moved from one account (`from`) to another (`to`). Note that `value` may be zero."
      }
    },
    "kind": "dev",
    "methods": {
      "allowance(address,address)": {
        "details": "See {IERC20-allowance}."
      },
      "approve(address,uint256)": {
        "details": "See {IERC20-approve}. NOTE: If `amount` is the maximum `uint256`, the allowance is not updated on `transferFrom`. This is semantically equivalent to an infinite approval. Requirements: - `spender` cannot be the zero address."
      },
      "balanceOf(address)": {
        "details": "See {IERC20-balanceOf}."
      },
      "decimals()": {
        "details": "Returns the number of decimals used to get its user representation. For example, if `decimals` equals `2`, a balance of `505` tokens should be displayed to a user as `5.05` (`505 / 10 ** 2`). Tokens usually opt for a value of 18, imitating the relationship between Ether and Wei. This is the value {ERC20} uses, unless this function is overridden; NOTE: This information is only used for _display_ purposes: it in no way affects any of the arithmetic of the contract, including {IERC20-balanceOf} and {IERC20-transfer}."
      },
      "decreaseAllowance(address,uint256)": {
        "details": "Atomically decreases the allowance granted to `spender` by the caller. This is an alternative to {approve} that can be used as a mitigation for problems described in {IERC20-approve}. Emits an {Approval} event indicating the updated allowance. Requirements: - `spender` cannot be the zero address. - `spender` must have allowance for the caller of at least `subtractedValue`."
      },
      "increaseAllowance(address,uint256)": {
        "details": "Atomically increases the allowance granted to `spender` by the caller. This is an alternative to {approve} that can be used as a mitigation for problems described in {IERC20-approve}. Emits an {Approval} event indicating the updated allowance. Requirements: - `spender` cannot be the zero address."
      },
      "name()": {
        "details": "Returns the name of the token."
      },
      "symbol()": {
        "details": "Returns the symbol of the token, usually a shorter version of the name."
      },
      "totalSupply()": {
        "details": "See {IERC20-totalSupply}."
      },
      "transfer(address,uint256)": {
        "details": "See {IERC20-transfer}. Requirements: - `to` cannot be the zero address. - the caller must have a balance of at least `amount`."
      },
      "transferFrom(address,address,uint256)": {
        "details": "See {IERC20-transferFrom}. Emits an {Approval} event indicating the updated allowance. This is not required by the EIP. See the note at the beginning of {ERC20}. NOTE: Does not update the allowance if the current allowance is the maximum `uint256`. Requirements: - `from` and `to` cannot be the zero address. - `from` must have a balance of at least `amount`. - the caller must have allowance for ``from``'s tokens of at least `amount`."
      }
    },
    "version": 1
  },
  "userdoc": {
    "kind": "user",
    "methods": {},
    "version": 1
  }
}