{
  "contractName": "USDCToken",
  "abi": [
    {
      "inputs": [],
      "stateMutability": "nonpayable",
      "type": "constructor"
    },
    {
      "anonymous": false,
      "inputs": [
        {
          "indexed": true,
          "internalType": "address",
          "name": "owner",
          "type": "address"
        },
        {
          "indexed": true,
          "internalType": "address",
          "name": "spender",
          "type": "address"
        },
        {
          "indexed": false,
          "internalType": "uint256",
          "name": "value",
          "type": "uint256"
        }
      ],
      "name": "Approval",
      "type": "event"
    },
    {
      "anonymous": false,
      "inputs": [
        {
          "indexed": true,
          "internalType": "address",
          "name": "from",
          "type": "address"
        },
        {
          "indexed": true,
          "internalType": "address",
          "name": "to",
          "type": "address"
        },
        {
          "indexed": false,
          "internalType": "uint256",
          "name": "value",
          "type": "uint256"
        }
      ],
      "name": "Transfer",
      "type": "event"
    },
    {
      "inputs": [
        {
          "internalType": "address",
          "name": "owner",
          "type": "address"
        },
        {
          "internalType": "address",
          "name": "spender",
          "type": "address"
        }
      ],
      "name": "allowance",
      "outputs": [
        {
          "internalType": "uint256",
          "name": "",
          "type": "uint256"
        }
      ],
      "stateMutability": "view",
      "type": "function"
    },
    {
      "inputs": [
        {
          "internalType": "address",
          "name": "spender",
          "type": "address"
        },
        {
          "internalType": "uint256",
          "name": "amount",
          "type": "uint256"
        }
      ],
      "name": "approve",
      "outputs": [
        {
          "internalType": "bool",
          "name": "",
          "type": "bool"
        }
      ],
      "stateMutability": "nonpayable",
      "type": "function"
    },
    {
      "inputs": [
        {
          "internalType": "address",
          "name": "account",
          "type": "address"
        }
      ],
      "name": "balanceOf",
      "outputs": [
        {
          "internalType": "uint256",
          "name": "",
          "type": "uint256"
        }
      ],
      "stateMutability": "view",
      "type": "function"
    },
    {
      "inputs": [
        {
          "internalType": "address",
          "name": "spender",
          "type": "address"
        },
        {
          "internalType": "uint256",
          "name": "subtractedValue",
          "type": "uint256"
        }
      ],
      "name": "decreaseAllowance",
      "outputs": [
        {
          "internalType": "bool",
          "name": "",
          "type": "bool"
        }
      ],
      "stateMutability": "nonpayable",
      "type": "function"
    },
    {
      "inputs": [
        {
          "internalType": "address",
          "name": "spender",
          "type": "address"
        },
        {
          "internalType": "uint256",
          "name": "addedValue",
          "type": "uint256"
        }
      ],
      "name": "increaseAllowance",
      "outputs": [
        {
          "internalType": "bool",
          "name": "",
          "type": "bool"
        }
      ],
      "stateMutability": "nonpayable",
      "type": "function"
    },
    {
      "inputs": [],
      "name": "maxSupply",
      "outputs": [
        {
          "internalType": "uint256",
          "name": "",
          "type": "uint256"
        }
      ],
      "stateMutability": "view",
      "type": "function"
    },
    {
      "inputs": [],
      "name": "name",
      "outputs": [
        {
          "internalType": "string",
          "name": "",
          "type": "string"
        }
      ],
      "stateMutability": "view",
      "type": "function"
    },
    {
      "inputs": [],
      "name": "symbol",
      "outputs": [
        {
          "internalType": "string",
          "name": "",
          "type": "string"
        }
      ],
      "stateMutability": "view",
      "type": "function"
    },
    {
      "inputs": [],
      "name": "totalSupply",
      "outputs": [
        {
          "internalType": "uint256",
          "name": "",
          "type": "uint256"
        }
      ],
      "stateMutability": "view",
      "type": "function"
    },
    {
      "inputs": [
        {
          "internalType": "address",
          "name": "to",
          "type": "address"
        },
        {
          "internalType": "uint256",
          "name": "amount",
          "type": "uint256"
        }
      ],
      "name": "transfer",
      "outputs": [
        {
          "internalType": "bool",
          "name": "",
          "type": "bool"
        }
      ],
      "stateMutability": "nonpayable",
      "type": "function"
    },
    {
      "inputs": [
        {
          "internalType": "address",
          "name": "from",
          "type": "address"
        },
        {
          "internalType": "address",
          "name": "to",
          "type": "address"
        },
        {
          "internalType": "uint256",
          "name": "amount",
          "type": "uint256"
        }
      ],
      "name": "transferFrom",
      "outputs": [
        {
          "internalType": "bool",
          "name": "",
          "type": "bool"
        }
      ],
      "stateMutability": "nonpayable",
      "type": "function"
    },
    {
      "inputs": [],
      "name": "decimals",
      "outputs": [
        {
          "internalType": "uint8",
          "name": "",
          "type": "uint8"
        }
      ],
      "stateMutability": "pure",
      "type": "function"
    }
  ],
  "bytecode": "0x60806040523480156200001157600080fd5b5060408051808201825260048082527f5553444300000000000000000000000000000000000000000000000000000000602080840182905284518086019095529184529083015290600362000067838262000289565b50600462000076828262000289565b5050506200009a33655af3107a4000620000a0640100000000026401000000009004565b6200039d565b600160a060020a03821662000115576040517f08c379a000000000000000000000000000000000000000000000000000000000815260206004820152601f60248201527f45524332303a206d696e7420746f20746865207a65726f206164647265737300604482015260640160405180910390fd5b6200012c60008383640100000000620001ae810204565b80600260008282546200014091906200035c565b9091555050600160a060020a038216600081815260208181526040808320805486019055518481527fddf252ad1be2c89b69c2b068fc378daa952ba7f163c4a11628f55a4df523b3ef910160405180910390a3620001aa60008383640100000000620001ae810204565b5050565b505050565b7f4e487b7100000000000000000000000000000000000000000000000000000000600052604160045260246000fd5b600281046001821680620001f757607f821691505b60208210810362000231577f4e487b7100000000000000000000000000000000000000000000000000000000600052602260045260246000fd5b50919050565b601f821115620001ae576000818152602081206020601f86010481016020861015620002605750805b6020601f860104820191505b8181101562000281578281556001016200026c565b505050505050565b815167ffffffffffffffff811115620002a657620002a6620001b3565b620002be81620002b78454620001e2565b8462000237565b602080601f831160018114620002fa5760008415620002dd5750858301515b60028086026008870290910a600019041982161786555062000281565b600085815260208120601f198616915b828110156200032b578886015182559484019460019091019084016200030a565b50858210156200034c57878501516008601f88160260020a60001904191681555b5050505050600202600101905550565b8082018082111562000397577f4e487b7100000000000000000000000000000000000000000000000000000000600052601160045260246000fd5b92915050565b610a0d80620003ad6000396000f3fe608060405234801561001057600080fd5b50600436106100f1576000357c01000000000000000000000000000000000000000000000000000000009004806370a082311161009e578063a9059cbb11610078578063a9059cbb146101c2578063d5abeb01146101d5578063dd62ed3e146101e257600080fd5b806370a082311461017e57806395d89b41146101a7578063a457c2d7146101af57600080fd5b806323b872dd116100cf57806323b872dd14610149578063313ce5671461015c578063395093511461016b57600080fd5b806306fdde03146100f6578063095ea7b31461011457806318160ddd14610137575b600080fd5b6100fe61021b565b60405161010b9190610805565b60405180910390f35b61012761012236600461086f565b6102ad565b604051901515815260200161010b565b6002545b60405190815260200161010b565b610127610157366004610899565b6102c7565b6040516006815260200161010b565b61012761017936600461086f565b6102eb565b61013b61018c3660046108d5565b600160a060020a031660009081526020819052604090205490565b6100fe61032a565b6101276101bd36600461086f565b610339565b6101276101d036600461086f565b6103f0565b61013b655af3107a400081565b61013b6101f03660046108f7565b600160a060020a03918216600090815260016020908152604080832093909416825291909152205490565b60606003805461022a9061092a565b80601f01602080910402602001604051908101604052809291908181526020018280546102569061092a565b80156102a35780601f10610278576101008083540402835291602001916102a3565b820191906000526020600020905b81548152906001019060200180831161028657829003601f168201915b5050505050905090565b6000336102bb8185856103fe565b60019150505b92915050565b6000336102d5858285610566565b6102e0858585610600565b506001949350505050565b336000818152600160209081526040808320600160a060020a03871684529091528120549091906102bb908290869061032590879061097d565b6103fe565b60606004805461022a9061092a565b336000818152600160209081526040808320600160a060020a0387168452909152812054909190838110156103e3576040516000805160206109b8833981519152815260206004820152602560248201527f45524332303a2064656372656173656420616c6c6f77616e63652062656c6f7760448201527f207a65726f00000000000000000000000000000000000000000000000000000060648201526084015b60405180910390fd5b6102e082868684036103fe565b6000336102bb818585610600565b600160a060020a038316610481576040516000805160206109b88339815191528152602060048201526024808201527f45524332303a20617070726f76652066726f6d20746865207a65726f2061646460448201527f726573730000000000000000000000000000000000000000000000000000000060648201526084016103da565b600160a060020a038216610505576040516000805160206109b8833981519152815260206004820152602260248201527f45524332303a20617070726f766520746f20746865207a65726f20616464726560448201527f737300000000000000000000000000000000000000000000000000000000000060648201526084016103da565b600160a060020a0383811660008181526001602090815260408083209487168084529482529182902085905590518481527f8c5be1e5ebec7d5bd14f71427d1e84f3dd0314c0f7b2291e5b200ac8c7c3b925910160405180910390a3505050565b600160a060020a0383811660009081526001602090815260408083209386168352929052205460001981146105fa57818110156105ed576040516000805160206109b8833981519152815260206004820152601d60248201527f45524332303a20696e73756666696369656e7420616c6c6f77616e636500000060448201526064016103da565b6105fa84848484036103fe565b50505050565b600160a060020a038316610684576040516000805160206109b8833981519152815260206004820152602560248201527f45524332303a207472616e736665722066726f6d20746865207a65726f20616460448201527f647265737300000000000000000000000000000000000000000000000000000060648201526084016103da565b600160a060020a038216610708576040516000805160206109b8833981519152815260206004820152602360248201527f45524332303a207472616e7366657220746f20746865207a65726f206164647260448201527f657373000000000000000000000000000000000000000000000000000000000060648201526084016103da565b600160a060020a0383166000908152602081905260409020548181101561079f576040516000805160206109b8833981519152815260206004820152602660248201527f45524332303a207472616e7366657220616d6f756e742065786365656473206260448201527f616c616e6365000000000000000000000000000000000000000000000000000060648201526084016103da565b600160a060020a03848116600081815260208181526040808320878703905593871680835291849020805487019055925185815290927fddf252ad1be2c89b69c2b068fc378daa952ba7f163c4a11628f55a4df523b3ef910160405180910390a36105fa565b600060208083528351808285015260005b8181101561083257858101830151858201604001528201610816565b506000604082860101526040601f19601f8301168501019250505092915050565b8035600160a060020a038116811461086a57600080fd5b919050565b6000806040838503121561088257600080fd5b61088b83610853565b946020939093013593505050565b6000806000606084860312156108ae57600080fd5b6108b784610853565b92506108c560208501610853565b9150604084013590509250925092565b6000602082840312156108e757600080fd5b6108f082610853565b9392505050565b6000806040838503121561090a57600080fd5b61091383610853565b915061092160208401610853565b90509250929050565b60028104600182168061093e57607f821691505b602082108103610977577f4e487b7100000000000000000000000000000000000000000000000000000000600052602260045260246000fd5b50919050565b808201808211156102c1577f4e487b7100000000000000000000000000000000000000000000000000000000600052601160045260246000fdfe08c379a000000000000000000000000000000000000000000000000000000000a2646970667358221220f3ad7258c8bc181c5589e51bdb2b4404d162d087ea9c7c9bfafaa56c67cf8bc564736f6c63430008130033",
  "immutableReferences": {},
  "source": "// SPDX-License-Identifier: MIT\r\n// MOCK USDC Contract \r\n\r\npragma solidity 0.8.19;\r\n\r\nimport {ERC20} from \"../Interfaces.sol\";\r\n\r\ncontract USDCToken is ERC20 {\r\n    // ONE HUNDERED MILLION MOCK TOKENS WITH 6 DECIMALS\r\n    uint256 public constant maxSupply = 100000000 * 10 ** 6;\r\n\r\n    constructor() ERC20(\"USDC\", \"USDC\") {\r\n        _mint(msg.sender, maxSupply);\r\n    }\r\n\r\n    function decimals() public pure override returns (uint8) {\r\n        return 6;\r\n    }\r\n}",
  "sourcePath": "C:\\Users\\Charl\\Documents\\Projects\\SteamMarket\\CSX\\csx-contracts\\contracts\\CSX\\mock\\USDC.sol",
  "compiler": {
    "name": "solc",
    "version": "0.8.19+commit.7dd6d404.Emscripten.clang"
  },
  "schemaVersion": "3.4.3",
  "updatedAt": "2023-05-23T09:33:51.154Z",
  "devdoc": {
    "events": {
      "Approval(address,address,uint256)": {
        "details": "Emitted when the allowance of a `spender` for an `owner` is set by a call to {approve}. `value` is the new allowance."
      },
      "Transfer(address,address,uint256)": {
        "details": "Emitted when `value` tokens are moved from one account (`from`) to another (`to`). Note that `value` may be zero."
      }
    },
    "kind": "dev",
    "methods": {
      "allowance(address,address)": {
        "details": "See {IERC20-allowance}."
      },
      "approve(address,uint256)": {
        "details": "See {IERC20-approve}. NOTE: If `amount` is the maximum `uint256`, the allowance is not updated on `transferFrom`. This is semantically equivalent to an infinite approval. Requirements: - `spender` cannot be the zero address."
      },
      "balanceOf(address)": {
        "details": "See {IERC20-balanceOf}."
      },
      "decimals()": {
        "details": "Returns the number of decimals used to get its user representation. For example, if `decimals` equals `2`, a balance of `505` tokens should be displayed to a user as `5.05` (`505 / 10 ** 2`). Tokens usually opt for a value of 18, imitating the relationship between Ether and Wei. This is the value {ERC20} uses, unless this function is overridden; NOTE: This information is only used for _display_ purposes: it in no way affects any of the arithmetic of the contract, including {IERC20-balanceOf} and {IERC20-transfer}."
      },
      "decreaseAllowance(address,uint256)": {
        "details": "Atomically decreases the allowance granted to `spender` by the caller. This is an alternative to {approve} that can be used as a mitigation for problems described in {IERC20-approve}. Emits an {Approval} event indicating the updated allowance. Requirements: - `spender` cannot be the zero address. - `spender` must have allowance for the caller of at least `subtractedValue`."
      },
      "increaseAllowance(address,uint256)": {
        "details": "Atomically increases the allowance granted to `spender` by the caller. This is an alternative to {approve} that can be used as a mitigation for problems described in {IERC20-approve}. Emits an {Approval} event indicating the updated allowance. Requirements: - `spender` cannot be the zero address."
      },
      "name()": {
        "details": "Returns the name of the token."
      },
      "symbol()": {
        "details": "Returns the symbol of the token, usually a shorter version of the name."
      },
      "totalSupply()": {
        "details": "See {IERC20-totalSupply}."
      },
      "transfer(address,uint256)": {
        "details": "See {IERC20-transfer}. Requirements: - `to` cannot be the zero address. - the caller must have a balance of at least `amount`."
      },
      "transferFrom(address,address,uint256)": {
        "details": "See {IERC20-transferFrom}. Emits an {Approval} event indicating the updated allowance. This is not required by the EIP. See the note at the beginning of {ERC20}. NOTE: Does not update the allowance if the current allowance is the maximum `uint256`. Requirements: - `from` and `to` cannot be the zero address. - `from` must have a balance of at least `amount`. - the caller must have allowance for ``from``'s tokens of at least `amount`."
      }
    },
    "version": 1
  },
  "userdoc": {
    "kind": "user",
    "methods": {},
    "version": 1
  }
}