{
  "contractName": "Users",
  "abi": [
    {
      "inputs": [
        {
          "internalType": "address",
          "name": "_keepers",
          "type": "address"
        }
      ],
      "stateMutability": "nonpayable",
      "type": "constructor"
    },
    {
      "inputs": [],
      "name": "factory",
      "outputs": [
        {
          "internalType": "contract ITradeFactory",
          "name": "",
          "type": "address"
        }
      ],
      "stateMutability": "view",
      "type": "function",
      "constant": true
    },
    {
      "inputs": [],
      "name": "keepers",
      "outputs": [
        {
          "internalType": "contract IKeepers",
          "name": "",
          "type": "address"
        }
      ],
      "stateMutability": "view",
      "type": "function",
      "constant": true
    },
    {
      "inputs": [
        {
          "internalType": "address",
          "name": "",
          "type": "address"
        }
      ],
      "name": "users",
      "outputs": [
        {
          "internalType": "uint256",
          "name": "reputationPos",
          "type": "uint256"
        },
        {
          "internalType": "uint256",
          "name": "reputationNeg",
          "type": "uint256"
        },
        {
          "internalType": "uint256",
          "name": "totalTrades",
          "type": "uint256"
        },
        {
          "internalType": "uint256",
          "name": "warnings",
          "type": "uint256"
        },
        {
          "internalType": "bool",
          "name": "isBanned",
          "type": "bool"
        },
        {
          "components": [
            {
              "internalType": "uint256",
              "name": "totalStarts",
              "type": "uint256"
            },
            {
              "internalType": "uint256",
              "name": "totalDeliveryTime",
              "type": "uint256"
            },
            {
              "internalType": "uint256",
              "name": "numberOfDeliveries",
              "type": "uint256"
            },
            {
              "internalType": "uint256",
              "name": "averageDeliveryTime",
              "type": "uint256"
            }
          ],
          "internalType": "struct Users.DeliveryTimes",
          "name": "deliveryInfo",
          "type": "tuple"
        }
      ],
      "stateMutability": "view",
      "type": "function",
      "constant": true
    },
    {
      "inputs": [
        {
          "internalType": "address",
          "name": "_factoryAddress",
          "type": "address"
        }
      ],
      "name": "setFactoryAddress",
      "outputs": [],
      "stateMutability": "nonpayable",
      "type": "function"
    },
    {
      "inputs": [
        {
          "internalType": "address",
          "name": "_user",
          "type": "address"
        }
      ],
      "name": "warnUser",
      "outputs": [],
      "stateMutability": "nonpayable",
      "type": "function"
    },
    {
      "inputs": [
        {
          "internalType": "address",
          "name": "_user",
          "type": "address"
        }
      ],
      "name": "banUser",
      "outputs": [],
      "stateMutability": "nonpayable",
      "type": "function"
    },
    {
      "inputs": [
        {
          "internalType": "address",
          "name": "_user",
          "type": "address"
        }
      ],
      "name": "unbanUser",
      "outputs": [],
      "stateMutability": "nonpayable",
      "type": "function"
    },
    {
      "inputs": [
        {
          "internalType": "address",
          "name": "_user",
          "type": "address"
        }
      ],
      "name": "getUser",
      "outputs": [
        {
          "components": [
            {
              "internalType": "uint256",
              "name": "reputationPos",
              "type": "uint256"
            },
            {
              "internalType": "uint256",
              "name": "reputationNeg",
              "type": "uint256"
            },
            {
              "internalType": "uint256",
              "name": "totalTrades",
              "type": "uint256"
            },
            {
              "internalType": "uint256",
              "name": "warnings",
              "type": "uint256"
            },
            {
              "internalType": "bool",
              "name": "isBanned",
              "type": "bool"
            },
            {
              "components": [
                {
                  "internalType": "uint256",
                  "name": "totalStarts",
                  "type": "uint256"
                },
                {
                  "internalType": "uint256",
                  "name": "totalDeliveryTime",
                  "type": "uint256"
                },
                {
                  "internalType": "uint256",
                  "name": "numberOfDeliveries",
                  "type": "uint256"
                },
                {
                  "internalType": "uint256",
                  "name": "averageDeliveryTime",
                  "type": "uint256"
                }
              ],
              "internalType": "struct Users.DeliveryTimes",
              "name": "deliveryInfo",
              "type": "tuple"
            }
          ],
          "internalType": "struct Users.User",
          "name": "",
          "type": "tuple"
        }
      ],
      "stateMutability": "view",
      "type": "function",
      "constant": true
    },
    {
      "inputs": [
        {
          "internalType": "address",
          "name": "_user",
          "type": "address"
        }
      ],
      "name": "isBanned",
      "outputs": [
        {
          "internalType": "bool",
          "name": "",
          "type": "bool"
        }
      ],
      "stateMutability": "view",
      "type": "function",
      "constant": true
    },
    {
      "inputs": [
        {
          "internalType": "address",
          "name": "contractAddress",
          "type": "address"
        },
        {
          "internalType": "address",
          "name": "user",
          "type": "address"
        }
      ],
      "name": "startDeliveryTimer",
      "outputs": [],
      "stateMutability": "nonpayable",
      "type": "function"
    },
    {
      "inputs": [
        {
          "internalType": "address",
          "name": "contractAddress",
          "type": "address"
        },
        {
          "internalType": "address",
          "name": "user",
          "type": "address"
        }
      ],
      "name": "endDeliveryTimer",
      "outputs": [],
      "stateMutability": "nonpayable",
      "type": "function"
    },
    {
      "inputs": [
        {
          "internalType": "address",
          "name": "user",
          "type": "address"
        }
      ],
      "name": "getAverageDeliveryTime",
      "outputs": [
        {
          "internalType": "uint256",
          "name": "",
          "type": "uint256"
        }
      ],
      "stateMutability": "view",
      "type": "function",
      "constant": true
    },
    {
      "inputs": [
        {
          "internalType": "address",
          "name": "user",
          "type": "address"
        }
      ],
      "name": "getDeliveryInfo",
      "outputs": [
        {
          "components": [
            {
              "internalType": "uint256",
              "name": "totalStarts",
              "type": "uint256"
            },
            {
              "internalType": "uint256",
              "name": "totalDeliveryTime",
              "type": "uint256"
            },
            {
              "internalType": "uint256",
              "name": "numberOfDeliveries",
              "type": "uint256"
            },
            {
              "internalType": "uint256",
              "name": "averageDeliveryTime",
              "type": "uint256"
            }
          ],
          "internalType": "struct Users.DeliveryTimes",
          "name": "",
          "type": "tuple"
        }
      ],
      "stateMutability": "view",
      "type": "function",
      "constant": true
    },
    {
      "inputs": [
        {
          "internalType": "address",
          "name": "tradeAddress",
          "type": "address"
        },
        {
          "internalType": "enum Role",
          "name": "role",
          "type": "uint8"
        },
        {
          "internalType": "address",
          "name": "userAddress",
          "type": "address"
        },
        {
          "internalType": "enum TradeStatus",
          "name": "status",
          "type": "uint8"
        }
      ],
      "name": "addUserInteractionStatus",
      "outputs": [],
      "stateMutability": "nonpayable",
      "type": "function"
    },
    {
      "inputs": [
        {
          "internalType": "address",
          "name": "tradeAddress",
          "type": "address"
        },
        {
          "internalType": "address",
          "name": "userAddress",
          "type": "address"
        },
        {
          "internalType": "enum TradeStatus",
          "name": "status",
          "type": "uint8"
        }
      ],
      "name": "changeUserInteractionStatus",
      "outputs": [],
      "stateMutability": "nonpayable",
      "type": "function"
    },
    {
      "inputs": [
        {
          "internalType": "address",
          "name": "userAddrss",
          "type": "address"
        }
      ],
      "name": "getUserTotalTradeUIs",
      "outputs": [
        {
          "internalType": "uint256",
          "name": "",
          "type": "uint256"
        }
      ],
      "stateMutability": "view",
      "type": "function",
      "constant": true
    },
    {
      "inputs": [
        {
          "internalType": "address",
          "name": "userAddrss",
          "type": "address"
        },
        {
          "internalType": "uint256",
          "name": "i",
          "type": "uint256"
        }
      ],
      "name": "getUserTradeUIByIndex",
      "outputs": [
        {
          "components": [
            {
              "internalType": "address",
              "name": "contractAddress",
              "type": "address"
            },
            {
              "internalType": "enum Role",
              "name": "role",
              "type": "uint8"
            },
            {
              "internalType": "enum TradeStatus",
              "name": "status",
              "type": "uint8"
            }
          ],
          "internalType": "struct UserInteraction",
          "name": "",
          "type": "tuple"
        }
      ],
      "stateMutability": "view",
      "type": "function",
      "constant": true
    },
    {
      "inputs": [
        {
          "internalType": "address",
          "name": "userAddress",
          "type": "address"
        },
        {
          "internalType": "enum TradeStatus",
          "name": "status",
          "type": "uint8"
        }
      ],
      "name": "getUserTradeCountByStatus",
      "outputs": [
        {
          "internalType": "uint256",
          "name": "",
          "type": "uint256"
        }
      ],
      "stateMutability": "view",
      "type": "function",
      "constant": true
    },
    {
      "inputs": [
        {
          "internalType": "address",
          "name": "userAddress",
          "type": "address"
        },
        {
          "internalType": "enum TradeStatus",
          "name": "status",
          "type": "uint8"
        },
        {
          "internalType": "uint256",
          "name": "indexFrom",
          "type": "uint256"
        },
        {
          "internalType": "uint256",
          "name": "maxResults",
          "type": "uint256"
        }
      ],
      "name": "getUserTradeUIsByStatus",
      "outputs": [
        {
          "components": [
            {
              "internalType": "address",
              "name": "contractAddress",
              "type": "address"
            },
            {
              "internalType": "enum Role",
              "name": "role",
              "type": "uint8"
            },
            {
              "internalType": "enum TradeStatus",
              "name": "status",
              "type": "uint8"
            }
          ],
          "internalType": "struct UserInteraction[]",
          "name": "",
          "type": "tuple[]"
        }
      ],
      "stateMutability": "view",
      "type": "function",
      "constant": true
    },
    {
      "inputs": [
        {
          "internalType": "address",
          "name": "tradeAddrs",
          "type": "address"
        },
        {
          "internalType": "bool",
          "name": "isPositive",
          "type": "bool"
        }
      ],
      "name": "repAfterTrade",
      "outputs": [],
      "stateMutability": "nonpayable",
      "type": "function"
    },
    {
      "inputs": [
        {
          "internalType": "address",
          "name": "tradeAddrs",
          "type": "address"
        }
      ],
      "name": "hasMadeRepOnTrade",
      "outputs": [
        {
          "internalType": "bool",
          "name": "hasBuyer",
          "type": "bool"
        },
        {
          "internalType": "bool",
          "name": "hasSeller",
          "type": "bool"
        },
        {
          "internalType": "bool",
          "name": "isTime",
          "type": "bool"
        }
      ],
      "stateMutability": "view",
      "type": "function",
      "constant": true
    }
  ],
  "bytecode": "0x608060405234801561001057600080fd5b506040516200231f3803806200231f8339810160408190526100319161005b565b600160005560038054600160a060020a031916600160a060020a039290921691909117905561008b565b60006020828403121561006d57600080fd5b8151600160a060020a038116811461008457600080fd5b9392505050565b612284806200009b6000396000f3fe608060405234801561001057600080fd5b506004361061010a5760e060020a600035046310d86b1f811461010f578063116fd6491461012457806343e239ba146101375780634904f6dc1461014a5780634d12b69514610173578063534505661461018657806353941d4e146101995780635ec39776146101ac5780636f77926b146101cc578063791bd0d0146101ec5780637f1b5565146102265780637f24b9601461023957806383c17c55146102595780638771e9321461026c578063951dc22c1461029e57806397f735d5146102be5780639b67ca19146102fd578063a87430ba14610326578063c45a0155146103ad578063cd9c91fe146103c0578063fe4162d1146103d3575b600080fd5b61012261011d366004611880565b6103e6565b005b6101226101323660046118b1565b610586565b610122610145366004611911565b610792565b61015d61015836600461194a565b61091e565b60405161016a91906119d7565b60405180910390f35b610122610181366004611880565b6109ec565b6101226101943660046119f3565b610b86565b6101226101a7366004611880565b610e70565b6101bf6101ba366004611880565b61104e565b60405161016a9190611a47565b6101df6101da366004611880565b6110a7565b60405161016a9190611a55565b6102186101fa366004611880565b600160a060020a031660009081526001602052604090206008015490565b60405190815260200161016a565b610122610234366004611911565b611145565b61024c610247366004611aa5565b61123a565b60405161016a9190611aeb565b610122610267366004611880565b6113f5565b61027f61027a366004611880565b611494565b604080519315158452911515602084015215159082015260600161016a565b6003546102b190600160a060020a031681565b60405161016a9190611b2d565b6102ed6102cc366004611880565b600160a060020a031660009081526001602052604090206004015460ff1690565b604051901515815260200161016a565b61021861030b366004611880565b600160a060020a031660009081526005602052604090205490565b61039b610334366004611880565b6001602081815260009283526040928390208054928101546002820154600383015460048401548751608081018952600586015481526006860154968101969096526007850154978601979097526008909301546060850152939490939260ff9091169086565b60405161016a96959493929190611b41565b6004546102b190600160a060020a031681565b6102186103ce366004611b7f565b611573565b6101226103e1366004611bad565b611625565b60035460405160e060020a63fd6aad25028152600160a060020a039091169063fd6aad2590610419903390600401611b2d565b602060405180830381865afa158015610436573d6000803e3d6000fd5b505050506040513d601f19601f8201168201806040525081019061045a9190611bf8565b1515806104d9575060035460405160e060020a63fd6aad25028152600160a060020a039091169063fd6aad2590610495903290600401611b2d565b602060405180830381865afa1580156104b2573d6000803e3d6000fd5b505050506040513d601f19601f820116820180604052508101906104d69190611bf8565b15155b80610553575060035460405160e760020a63012875b1028152600160a060020a039091169063943ad88090610512903390600401611b2d565b602060405180830381865afa15801561052f573d6000803e3d6000fd5b505050506040513d601f19601f820116820180604052508101906105539190611c11565b61055c57600080fd5b600160a060020a03166000908152600160208190526040909120600401805460ff19169091179055565b8333600160a060020a03821614801561060d57506004805460405160e160020a6337211afb028152600160a060020a0390911691636e4235f6916105cc91859101611b2d565b602060405180830381865afa1580156105e9573d6000803e3d6000fd5b505050506040513d601f19601f8201168201806040525081019061060d9190611c11565b6106355760405160e560020a62461bcd02815260040161062c90611c2e565b60405180910390fd5b6005600084600160a060020a0316600160a060020a03168152602001908152602001600020604051806060016040528087600160a060020a0316815260200186600181111561068657610686611976565b815260200184600981111561069d5761069d611976565b90528154600180820184556000938452602093849020835192018054600160a060020a03198116600160a060020a0390941693841782559484015193949093928492600160a860020a0319909216179060a060020a90849081111561070457610704611976565b021790555060408201518154829060a860020a60ff02191660a860020a83600981111561073357610733611976565b02179055505050600160a060020a03831660009081526005602052604090205461075f90600190611c77565b600160a060020a039586166000908152600660209081526040808320969098168252949094529490922093909355505050565b8133600160a060020a03821614801561081957506004805460405160e160020a6337211afb028152600160a060020a0390911691636e4235f6916107d891859101611b2d565b602060405180830381865afa1580156107f5573d6000803e3d6000fd5b505050506040513d601f19601f820116820180604052508101906108199190611c11565b6108385760405160e560020a62461bcd02815260040161062c90611c2e565b600160a060020a03808316600090815260026020908152604080832093871683529290529081205461086a9042611c77565b600160a060020a03841660009081526001602052604081206006018054929350839290919061089a908490611c8a565b9091555050600160a060020a038316600090815260016020526040812060070180549091906108c890611c9d565b90915550600160a060020a038316600090815260016020526040902060078101546006909101546108f99190611cb6565b600160a060020a03909316600090815260016020526040902060080192909255505050565b6109266117e6565b600160a060020a038316600090815260056020526040902080548390811061095057610950611cdc565b6000918252602091829020604080516060810190915291018054600160a060020a0381168352919290919083019060a060020a900460ff16600181111561099957610999611976565b60018111156109aa576109aa611976565b8152815460209091019060a860020a900460ff1660098111156109cf576109cf611976565b60098111156109e0576109e0611976565b90525090505b92915050565b60035460405160e060020a63fd6aad25028152600160a060020a039091169063fd6aad2590610a1f903390600401611b2d565b602060405180830381865afa158015610a3c573d6000803e3d6000fd5b505050506040513d601f19601f82011682018060405250810190610a609190611bf8565b151580610adf575060035460405160e060020a63fd6aad25028152600160a060020a039091169063fd6aad2590610a9b903290600401611b2d565b602060405180830381865afa158015610ab8573d6000803e3d6000fd5b505050506040513d601f19601f82011682018060405250810190610adc9190611bf8565b15155b80610b59575060035460405160e760020a63012875b1028152600160a060020a039091169063943ad88090610b18903390600401611b2d565b602060405180830381865afa158015610b35573d6000803e3d6000fd5b505050506040513d601f19601f82011682018060405250810190610b599190611c11565b610b6257600080fd5b600160a060020a03166000908152600160205260409020600401805460ff19169055565b610b8e61174a565b6004805460405160e160020a6356f52433028152600092600160a060020a039092169163adea486691610bc391879101611b2d565b600060405180830381865afa158015610be0573d6000803e3d6000fd5b505050506040513d6000823e601f3d908101601f19168201604052610c089190810190612082565b905060068161016001516009811115610c2357610c23611976565b1015610c675760405160e560020a62461bcd02815260206004820152600d6024820152609860020a6c7464652021636f6d706c65746502604482015260640161062c565b8060600151600160a060020a031633600160a060020a03161480610ca057508060200151600160a060020a031633600160a060020a0316145b610ce35760405160e560020a62461bcd02815260206004820152600e6024820152609060020a6d2170617274206f6620747261646502604482015260640161062c565b6060810151600160a060020a03163303610da257600160a060020a038316600090815260076020908152604080832083805290915290205460ff1615610d625760405160e560020a62461bcd02815260206004820152600e6024820152609160020a6d30b639323c903932b81030b996b102604482015260640161062c565b600160a060020a03831660009081526007602090815260408083208380528252909120805460ff19166001179055810151610d9d90836117a6565b610e61565b6020810151600160a060020a03163303610e6157600160a060020a03831660009081526007602090815260408083206001845290915290205460ff1615610e225760405160e560020a62461bcd02815260206004820152600e6024820152609060020a6d616c726479207265702061732d7302604482015260640161062c565b600160a060020a038316600090815260076020908152604080832060018085529252909120805460ff191690911790556060810151610e6190836117a6565b50610e6c6001600055565b5050565b60035460405160e060020a63fd6aad25028152600160a060020a039091169063fd6aad2590610ea3903390600401611b2d565b602060405180830381865afa158015610ec0573d6000803e3d6000fd5b505050506040513d601f19601f82011682018060405250810190610ee49190611bf8565b151580610f63575060035460405160e060020a63fd6aad25028152600160a060020a039091169063fd6aad2590610f1f903290600401611b2d565b602060405180830381865afa158015610f3c573d6000803e3d6000fd5b505050506040513d601f19601f82011682018060405250810190610f609190611bf8565b15155b80610fdd575060035460405160e760020a63012875b1028152600160a060020a039091169063943ad88090610f9c903390600401611b2d565b602060405180830381865afa158015610fb9573d6000803e3d6000fd5b505050506040513d601f19601f82011682018060405250810190610fdd9190611c11565b610fe657600080fd5b600160a060020a0381166000908152600160208190526040822090810180549192600592611015908490611c8a565b909155505060038101805460009061102c90611c9d565b9091555060038181015410610e6c5760048101805460ff191660011790555050565b611056611808565b50600160a060020a0316600090815260016020908152604091829020825160808101845260058201548152600682015492810192909252600781015492820192909252600890910154606082015290565b6110af611830565b50600160a060020a0316600090815260016020818152604092839020835160c0810185528154815292810154838301526002810154838501526003810154606080850191909152600482015460ff1615156080808601919091528551908101865260058301548152600683015493810193909352600782015494830194909452600801549281019290925260a081019190915290565b8133600160a060020a0382161480156111cc57506004805460405160e160020a6337211afb028152600160a060020a0390911691636e4235f69161118b91859101611b2d565b602060405180830381865afa1580156111a8573d6000803e3d6000fd5b505050506040513d601f19601f820116820180604052508101906111cc9190611c11565b6111eb5760405160e560020a62461bcd02815260040161062c90611c2e565b600160a060020a03808316600081815260026020908152604080832094881683529381528382204290559181526001909152908120600501805490919061123190611c9d565b90915550505050565b60606000826001604060020a0381111561125657611256611cf6565b60405190808252806020026020018201604052801561128f57816020015b61127c6117e6565b8152602001906001900390816112745790505b5090506000845b84821080156112bc5750600160a060020a03881660009081526005602052604090205481105b156113e957600160a060020a03881660009081526005602052604081208054839081106112eb576112eb611cdc565b6000918252602091829020604080516060810190915291018054600160a060020a0381168352919290919083019060a060020a900460ff16600181111561133457611334611976565b600181111561134557611345611976565b8152815460209091019060a860020a900460ff16600981111561136a5761136a611976565b600981111561137b5761137b611976565b905250905087600981111561139257611392611976565b816040015160098111156113a8576113a8611976565b036113d857808484815181106113c0576113c0611cdc565b6020026020010181905250826113d590611c9d565b92505b6113e182611c9d565b915050611296565b50909695505050505050565b60035460405160e260020a6326a8d83b028152600160a060020a0390911690639aa360ec90611428903390600401611b2d565b602060405180830381865afa158015611445573d6000803e3d6000fd5b505050506040513d601f19601f820116820180604052508101906114699190611c11565b61147257600080fd5b60048054600160a060020a031916600160a060020a0392909216919091179055565b6004805460405160e160020a6356f52433028152600092839283928392600160a060020a039092169163adea4866916114cf91899101611b2d565b600060405180830381865afa1580156114ec573d6000803e3d6000fd5b505050506040513d6000823e601f3d908101601f191682016040526115149190810190612082565b90506006816101600151600981111561152f5761152f611976565b600160a060020a03969096166000908152600760209081526040808320838052909152808220546001835291205460ff918216989116969190911015945092505050565b60008060005b600160a060020a03851660009081526005602052604090205481101561161d578360098111156115ab576115ab611976565b600160a060020a03861660009081526005602052604090208054839081106115d5576115d5611cdc565b60009182526020909120015460a860020a900460ff1660098111156115fc576115fc611976565b0361160d5761160a82611c9d565b91505b61161681611c9d565b9050611579565b509392505050565b8233600160a060020a0382161480156116ac57506004805460405160e160020a6337211afb028152600160a060020a0390911691636e4235f69161166b91859101611b2d565b602060405180830381865afa158015611688573d6000803e3d6000fd5b505050506040513d601f19601f820116820180604052508101906116ac9190611c11565b6116cb5760405160e560020a62461bcd02815260040161062c90611c2e565b600160a060020a038085166000908152600660209081526040808320938716835292815282822054600590915291902080548491908390811061171057611710611cdc565b6000918252602090912001805460a860020a60ff02191660a860020a83600981111561173e5761173e611976565b02179055505050505050565b60026000540361179f5760405160e560020a62461bcd02815260206004820152601f60248201527f5265656e7472616e637947756172643a207265656e7472616e742063616c6c00604482015260640161062c565b6002600055565b600160a060020a038216600090815260016020526040902081156117d557806000016000815461123190611c9d565b806001016000815461123190611c9d565b604080516060810190915260008082526020820190815260200160005b905290565b6040518060800160405280600081526020016000815260200160008152602001600081525090565b6040518060c0016040528060008152602001600081526020016000815260200160008152602001600015158152602001611803611808565b600160a060020a038116811461187d57600080fd5b50565b60006020828403121561189257600080fd5b813561189d81611868565b9392505050565b600a811061187d57600080fd5b600080600080608085870312156118c757600080fd5b84356118d281611868565b93506020850135600281106118e657600080fd5b925060408501356118f681611868565b91506060850135611906816118a4565b939692955090935050565b6000806040838503121561192457600080fd5b823561192f81611868565b9150602083013561193f81611868565b809150509250929050565b6000806040838503121561195d57600080fd5b823561196881611868565b946020939093013593505050565b60e060020a634e487b710260009081526021600452602490fd5b8051600160a060020a031682526020810151600281106119b2576119b2611976565b60208301526040810151600a81106119cc576119cc611976565b806040840152505050565b606081016109e68284611990565b801515811461187d57600080fd5b60008060408385031215611a0657600080fd5b8235611a1181611868565b9150602083013561193f816119e5565b805182526020810151602083015260408101516040830152606081015160608301525050565b608081016109e68284611a21565b6000610120820190508251825260208301516020830152604083015160408301526060830151606083015260808301511515608083015260a0830151611a9e60a0840182611a21565b5092915050565b60008060008060808587031215611abb57600080fd5b8435611ac681611868565b93506020850135611ad6816118a4565b93969395505050506040820135916060013590565b6020808252825182820181905260009190848201906040850190845b818110156113e957611b1a838551611990565b9284019260609290920191600101611b07565b600160a060020a0391909116815260200190565b6000610120820190508782528660208301528560408301528460608301528315156080830152611b7460a0830184611a21565b979650505050505050565b60008060408385031215611b9257600080fd5b8235611b9d81611868565b9150602083013561193f816118a4565b600080600060608486031215611bc257600080fd5b8335611bcd81611868565b92506020840135611bdd81611868565b91506040840135611bed816118a4565b809150509250925092565b600060208284031215611c0a57600080fd5b5051919050565b600060208284031215611c2357600080fd5b815161189d816119e5565b6020808252601290820152607260020a711b9bdd081d1c9859194818dbdb9d1c9858dd02604082015260600190565b60e060020a634e487b710260009081526011600452602490fd5b818103818111156109e6576109e6611c5d565b808201808211156109e6576109e6611c5d565b600060018201611caf57611caf611c5d565b5060010190565b600082611cd75760e060020a634e487b710260009081526012600452602490fd5b500490565b60e060020a634e487b710260009081526032600452602490fd5b60e060020a634e487b710260009081526041600452602490fd5b604051608081016001604060020a0381118282101715611d3257611d32611cf6565b60405290565b6040516101c081016001604060020a0381118282101715611d3257611d32611cf6565b604051601f8201601f191681016001604060020a0381118282101715611d8357611d83611cf6565b604052919050565b8051611d9681611868565b919050565b600082601f830112611dac57600080fd5b81516001604060020a03811115611dc557611dc5611cf6565b6020611dd9601f8301601f19168201611d5b565b8281528582848701011115611ded57600080fd5b60005b83811015611e0b578581018301518282018401528201611df0565b506000928101909101919091529392505050565b600060408284031215611e3157600080fd5b604080519081016001604060020a038082118383101715611e5457611e54611cf6565b81604052829350845183526020850151915080821115611e7357600080fd5b50611e8085828601611d9b565b6020830152505092915050565b600060608284031215611e9f57600080fd5b604051606081016001604060020a038082118383101715611ec257611ec2611cf6565b816040528293508451915080821115611eda57600080fd5b611ee686838701611d9b565b83526020850151915080821115611efc57600080fd5b611f0886838701611d9b565b60208401526040850151915080821115611f2157600080fd5b50611f2e85828601611d9b565b6040830152505092915050565b8051611d96816118a4565b600082601f830112611f5757600080fd5b815160206001604060020a0380831115611f7357611f73611cf6565b818302611f81838201611d5b565b9384528581018301938381019088861115611f9b57600080fd5b84880192505b8583101561207657825184811115611fb95760008081fd5b88016080818b03601f1901811315611fd15760008081fd5b611fd9611d10565b8783015187811115611feb5760008081fd5b611ff98d8a83870101611d9b565b825250604080840151888111156120105760008081fd5b61201e8e8b83880101611d9b565b8a8401525060608085015160ff811681146120395760008081fd5b8383015292840151928884111561205257600091508182fd5b6120608e8b86880101611d9b565b9083015250845250509184019190840190611fa1565b98975050505050505050565b60006020828403121561209457600080fd5b81516001604060020a03808211156120ab57600080fd5b908301906101c082860312156120c057600080fd5b6120c8611d38565b6120d183611d8b565b81526120df60208401611d8b565b60208201526040830151828111156120f657600080fd5b61210287828601611e1f565b60408301525061211460608401611d8b565b606082015260808301518281111561212b57600080fd5b61213787828601611e1f565b60808301525060a08301518281111561214f57600080fd5b61215b87828601611d9b565b60a08301525060c08301518281111561217357600080fd5b61217f87828601611d9b565b60c08301525060e08301518281111561219757600080fd5b6121a387828601611d9b565b60e0830152506101008381015190820152610120808401519082015261014080840151838111156121d357600080fd5b6121df88828701611e8d565b8284015250506101606121f3818501611f3b565b90820152610180838101518381111561220b57600080fd5b61221788828701611f46565b8284015250506101a0808401518381111561223157600080fd5b61223d88828701611d9b565b91830191909152509594505050505056fea26469706673582212204bd8fe8a000be1548e8ef1f601181409e3af2f16134f5a37c2f67b508477f76964736f6c63430008130033",
  "immutableReferences": {},
  "source": "//SPDX-License-Identifier: UNLICENSED\r\npragma solidity 0.8.19;\r\n\r\nimport \"../Keepers/IKeepers.sol\";\r\nimport \"../TradeFactory/ITradeFactory.sol\";\r\nimport {ReentrancyGuard} from \"@openzeppelin/contracts/security/ReentrancyGuard.sol\";\r\n\r\ncontract Users is ReentrancyGuard {\r\n    struct User {\r\n        uint256 reputationPos;\r\n        uint256 reputationNeg;\r\n        uint256 totalTrades;\r\n        uint256 warnings;\r\n        bool isBanned;\r\n        DeliveryTimes deliveryInfo;\r\n    }\r\n\r\n    struct DeliveryTimes {\r\n        uint256 totalStarts;\r\n        uint256 totalDeliveryTime;\r\n        uint256 numberOfDeliveries;\r\n        uint256 averageDeliveryTime;\r\n    }\r\n\r\n    mapping(address => User) public users;\r\n    mapping(address => mapping(address => uint256)) UserToContractDeliveryStartTime;\r\n\r\n    IKeepers public keepers;\r\n    ITradeFactory public factory;\r\n\r\n    constructor(address _keepers) {\r\n        keepers = IKeepers(_keepers);\r\n    }\r\n\r\n    function setFactoryAddress(address _factoryAddress) external {\r\n        require(keepers.isCouncil(msg.sender));\r\n        factory = ITradeFactory(_factoryAddress);\r\n    }\r\n\r\n    modifier onlyFactory() {\r\n        require(msg.sender == address(factory));\r\n        _;\r\n    }\r\n\r\n    modifier onlyTradeContracts(address contractAddress) {\r\n        require(\r\n            msg.sender == contractAddress &&\r\n                factory.isThisTradeContract(contractAddress),\r\n            \"not trade contract\"\r\n        );\r\n        _;\r\n    }\r\n\r\n    modifier onlyKeepers() {\r\n        require(\r\n            keepers.indexOf(msg.sender) != 0 ||\r\n                keepers.indexOf(tx.origin) != 0 ||\r\n                keepers.isKeeperNode(msg.sender)\r\n        );\r\n        _;\r\n    }\r\n\r\n    function warnUser(address _user) public onlyKeepers {\r\n        User storage user = users[_user];\r\n        user.reputationNeg += 5;\r\n        ++user.warnings;\r\n        if (user.warnings >= 3) {\r\n            user.isBanned = true;\r\n        }\r\n    }\r\n\r\n    function banUser(address _user) public onlyKeepers {\r\n        User storage user = users[_user];\r\n        user.isBanned = true;\r\n    }\r\n\r\n    function unbanUser(address _user) public onlyKeepers {\r\n        User storage user = users[_user];\r\n        user.isBanned = false;\r\n    }\r\n\r\n    function getUser(address _user) external view returns (User memory) {\r\n        return users[_user];\r\n    }\r\n\r\n    function isBanned(address _user) external view returns (bool) {\r\n        return users[_user].isBanned;\r\n    }\r\n\r\n    function _repAfterTrade(address _user, bool isPositive) private {\r\n        User storage user = users[_user];\r\n        if (isPositive) {\r\n            ++user.reputationPos;\r\n        } else {\r\n            ++user.reputationNeg;\r\n        }\r\n    }\r\n\r\n    function startDeliveryTimer(address contractAddress, address user)\r\n        external\r\n        onlyTradeContracts(contractAddress)\r\n    {\r\n        UserToContractDeliveryStartTime[user][contractAddress] = block\r\n            .timestamp;\r\n        ++users[user].deliveryInfo.totalStarts;\r\n    }\r\n\r\n    function endDeliveryTimer(address contractAddress, address user)\r\n        external\r\n        onlyTradeContracts(contractAddress)\r\n    {\r\n        uint256 deliveryTime = block.timestamp -\r\n            UserToContractDeliveryStartTime[user][contractAddress];\r\n        users[user].deliveryInfo.totalDeliveryTime += deliveryTime;\r\n        ++users[user].deliveryInfo.numberOfDeliveries;\r\n        users[user].deliveryInfo.averageDeliveryTime =\r\n            users[user].deliveryInfo.totalDeliveryTime /\r\n            users[user].deliveryInfo.numberOfDeliveries;\r\n    }\r\n\r\n    function getAverageDeliveryTime(address user)\r\n        external\r\n        view\r\n        returns (uint256)\r\n    {\r\n        return users[user].deliveryInfo.averageDeliveryTime;\r\n    }\r\n\r\n    function getDeliveryInfo(address user)\r\n        external\r\n        view\r\n        returns (DeliveryTimes memory)\r\n    {\r\n        return users[user].deliveryInfo;\r\n    }\r\n\r\n    //User to Trades\r\n    mapping(address => UserInteraction[]) userTrades;\r\n    mapping(address => mapping(address => uint256)) tradeAddrsToUserAddrsInteractionIndex;\r\n\r\n    function addUserInteractionStatus(\r\n        address tradeAddress,\r\n        Role role,\r\n        address userAddress,\r\n        TradeStatus status\r\n    ) external onlyTradeContracts(tradeAddress) {\r\n        userTrades[userAddress].push(\r\n            UserInteraction(tradeAddress, role, status)\r\n        );\r\n        tradeAddrsToUserAddrsInteractionIndex[tradeAddress][userAddress] =\r\n            userTrades[userAddress].length -\r\n            1;\r\n    }\r\n\r\n    function changeUserInteractionStatus(\r\n        address tradeAddress,\r\n        address userAddress,\r\n        TradeStatus status\r\n    ) external onlyTradeContracts(tradeAddress) {\r\n        uint256 iIndex = tradeAddrsToUserAddrsInteractionIndex[tradeAddress][\r\n            userAddress\r\n        ];\r\n        userTrades[userAddress][iIndex].status = status;\r\n    }\r\n\r\n    function getUserTotalTradeUIs(address userAddrss)\r\n        external\r\n        view\r\n        returns (uint256)\r\n    {\r\n        return userTrades[userAddrss].length;\r\n    }\r\n\r\n    function getUserTradeUIByIndex(address userAddrss, uint256 i)\r\n        external\r\n        view\r\n        returns (UserInteraction memory)\r\n    {\r\n        return userTrades[userAddrss][i];\r\n    }\r\n\r\n    function getUserTradeCountByStatus(\r\n        address userAddress,\r\n        TradeStatus status\r\n    ) external view returns (uint256) {\r\n        uint256 count;\r\n        for (uint256 i = 0; i < userTrades[userAddress].length; ++i) {\r\n            if (userTrades[userAddress][i].status == status) {\r\n                ++count;\r\n            }\r\n        }\r\n        return count;\r\n    }\r\n\r\n     function getUserTradeUIsByStatus(\r\n        address userAddress,\r\n        TradeStatus status,\r\n        uint256 indexFrom,\r\n        uint256 maxResults\r\n    ) external view returns (UserInteraction[] memory) {\r\n        UserInteraction[] memory tradeUIs = new UserInteraction[](maxResults);\r\n        uint256 resultIndex;\r\n        uint256 i = indexFrom;\r\n        while (resultIndex < maxResults && i < userTrades[userAddress].length) {\r\n            UserInteraction memory ui = userTrades[userAddress][i];\r\n\r\n            if (ui.status == status) {\r\n                tradeUIs[resultIndex] = ui;\r\n                ++resultIndex;\r\n            }\r\n\r\n            ++i;\r\n        }\r\n        return tradeUIs;\r\n    }\r\n\r\n\r\n    // function getUserAllTradeUIs(address userAddrss)\r\n    //     external\r\n    //     view\r\n    //     returns (UserInteraction[] memory)\r\n    // {\r\n    //     return userTrades[userAddrss];\r\n    // }\r\n    \r\n    mapping(address => mapping(Role => bool)) tradeAdrsToRoleToHasRep;\r\n\r\n    function repAfterTrade(address tradeAddrs, bool isPositive)\r\n        external\r\n        nonReentrant\r\n    {\r\n        TradeInfo memory _tradeContract = factory.getTradeDetailsByAddress(\r\n            tradeAddrs\r\n        );\r\n\r\n        require(\r\n            _tradeContract.status >= TradeStatus.Completed,\r\n            \"tde !complete\"\r\n        );\r\n\r\n        require(\r\n            msg.sender == _tradeContract.buyer ||\r\n                msg.sender == _tradeContract.seller,\r\n            \"!part of trade\"\r\n        );\r\n\r\n        if (msg.sender == _tradeContract.buyer) {\r\n            require(\r\n                tradeAdrsToRoleToHasRep[tradeAddrs][Role.BUYER] == false,\r\n                \"alrdy rep as-b\"\r\n            );\r\n            tradeAdrsToRoleToHasRep[tradeAddrs][Role.BUYER] = true;\r\n            _repAfterTrade(_tradeContract.seller, isPositive);\r\n        } else if (msg.sender == _tradeContract.seller) {\r\n            require(\r\n                tradeAdrsToRoleToHasRep[tradeAddrs][Role.SELLER] == false,\r\n                \"alrdy rep as-s\"\r\n            );\r\n            tradeAdrsToRoleToHasRep[tradeAddrs][Role.SELLER] = true;\r\n            _repAfterTrade(_tradeContract.buyer, isPositive);\r\n        }\r\n    }\r\n\r\n    function hasMadeRepOnTrade(address tradeAddrs)\r\n        external\r\n        view\r\n        returns (\r\n            bool hasBuyer,\r\n            bool hasSeller,\r\n            bool isTime\r\n        )\r\n    {\r\n        TradeInfo memory _tradeContract = factory.getTradeDetailsByAddress(\r\n            tradeAddrs\r\n        );\r\n\r\n        isTime = (_tradeContract.status >= TradeStatus.Completed);\r\n\r\n        hasBuyer = tradeAdrsToRoleToHasRep[tradeAddrs][Role.BUYER];\r\n\r\n        hasSeller = tradeAdrsToRoleToHasRep[tradeAddrs][Role.SELLER];\r\n    }\r\n}\r\n",
  "sourcePath": "C:\\Users\\Charl\\Documents\\Projects\\SteamMarket\\CSX\\csx-contracts\\contracts\\Users\\Users.sol",
  "compiler": {
    "name": "solc",
    "version": "0.8.19+commit.7dd6d404.Emscripten.clang"
  },
  "schemaVersion": "3.4.3",
  "updatedAt": "2023-04-09T13:56:03.054Z",
  "networkType": "ethereum",
  "devdoc": {
    "kind": "dev",
    "methods": {},
    "version": 1
  },
  "userdoc": {
    "kind": "user",
    "methods": {},
    "version": 1
  }
}