{
  "contractName": "Users",
  "abi": [
    {
      "inputs": [
        {
          "internalType": "address",
          "name": "_keepers",
          "type": "address"
        }
      ],
      "stateMutability": "nonpayable",
      "type": "constructor"
    },
    {
      "inputs": [],
      "name": "factory",
      "outputs": [
        {
          "internalType": "contract ITradeFactory",
          "name": "",
          "type": "address"
        }
      ],
      "stateMutability": "view",
      "type": "function",
      "constant": true
    },
    {
      "inputs": [],
      "name": "keepers",
      "outputs": [
        {
          "internalType": "contract IKeepers",
          "name": "",
          "type": "address"
        }
      ],
      "stateMutability": "view",
      "type": "function",
      "constant": true
    },
    {
      "inputs": [
        {
          "internalType": "address",
          "name": "",
          "type": "address"
        }
      ],
      "name": "users",
      "outputs": [
        {
          "internalType": "uint256",
          "name": "reputationPos",
          "type": "uint256"
        },
        {
          "internalType": "uint256",
          "name": "reputationNeg",
          "type": "uint256"
        },
        {
          "internalType": "uint256",
          "name": "totalTrades",
          "type": "uint256"
        },
        {
          "internalType": "uint256",
          "name": "warnings",
          "type": "uint256"
        },
        {
          "internalType": "bool",
          "name": "isBanned",
          "type": "bool"
        },
        {
          "components": [
            {
              "internalType": "uint256",
              "name": "totalStarts",
              "type": "uint256"
            },
            {
              "internalType": "uint256",
              "name": "totalDeliveryTime",
              "type": "uint256"
            },
            {
              "internalType": "uint256",
              "name": "numberOfDeliveries",
              "type": "uint256"
            },
            {
              "internalType": "uint256",
              "name": "averageDeliveryTime",
              "type": "uint256"
            }
          ],
          "internalType": "struct Users.DeliveryTimes",
          "name": "deliveryInfo",
          "type": "tuple"
        }
      ],
      "stateMutability": "view",
      "type": "function",
      "constant": true
    },
    {
      "inputs": [
        {
          "internalType": "address",
          "name": "_factoryAddress",
          "type": "address"
        }
      ],
      "name": "setFactoryAddress",
      "outputs": [],
      "stateMutability": "nonpayable",
      "type": "function"
    },
    {
      "inputs": [
        {
          "internalType": "address",
          "name": "_user",
          "type": "address"
        }
      ],
      "name": "warnUser",
      "outputs": [],
      "stateMutability": "nonpayable",
      "type": "function"
    },
    {
      "inputs": [
        {
          "internalType": "address",
          "name": "_user",
          "type": "address"
        }
      ],
      "name": "banUser",
      "outputs": [],
      "stateMutability": "nonpayable",
      "type": "function"
    },
    {
      "inputs": [
        {
          "internalType": "address",
          "name": "_user",
          "type": "address"
        }
      ],
      "name": "unbanUser",
      "outputs": [],
      "stateMutability": "nonpayable",
      "type": "function"
    },
    {
      "inputs": [
        {
          "internalType": "address",
          "name": "_user",
          "type": "address"
        }
      ],
      "name": "getUser",
      "outputs": [
        {
          "components": [
            {
              "internalType": "uint256",
              "name": "reputationPos",
              "type": "uint256"
            },
            {
              "internalType": "uint256",
              "name": "reputationNeg",
              "type": "uint256"
            },
            {
              "internalType": "uint256",
              "name": "totalTrades",
              "type": "uint256"
            },
            {
              "internalType": "uint256",
              "name": "warnings",
              "type": "uint256"
            },
            {
              "internalType": "bool",
              "name": "isBanned",
              "type": "bool"
            },
            {
              "components": [
                {
                  "internalType": "uint256",
                  "name": "totalStarts",
                  "type": "uint256"
                },
                {
                  "internalType": "uint256",
                  "name": "totalDeliveryTime",
                  "type": "uint256"
                },
                {
                  "internalType": "uint256",
                  "name": "numberOfDeliveries",
                  "type": "uint256"
                },
                {
                  "internalType": "uint256",
                  "name": "averageDeliveryTime",
                  "type": "uint256"
                }
              ],
              "internalType": "struct Users.DeliveryTimes",
              "name": "deliveryInfo",
              "type": "tuple"
            }
          ],
          "internalType": "struct Users.User",
          "name": "",
          "type": "tuple"
        }
      ],
      "stateMutability": "view",
      "type": "function",
      "constant": true
    },
    {
      "inputs": [
        {
          "internalType": "address",
          "name": "_user",
          "type": "address"
        }
      ],
      "name": "isBanned",
      "outputs": [
        {
          "internalType": "bool",
          "name": "",
          "type": "bool"
        }
      ],
      "stateMutability": "view",
      "type": "function",
      "constant": true
    },
    {
      "inputs": [
        {
          "internalType": "address",
          "name": "contractAddress",
          "type": "address"
        },
        {
          "internalType": "address",
          "name": "user",
          "type": "address"
        }
      ],
      "name": "startDeliveryTimer",
      "outputs": [],
      "stateMutability": "nonpayable",
      "type": "function"
    },
    {
      "inputs": [
        {
          "internalType": "address",
          "name": "contractAddress",
          "type": "address"
        },
        {
          "internalType": "address",
          "name": "user",
          "type": "address"
        }
      ],
      "name": "endDeliveryTimer",
      "outputs": [],
      "stateMutability": "nonpayable",
      "type": "function"
    },
    {
      "inputs": [
        {
          "internalType": "address",
          "name": "user",
          "type": "address"
        }
      ],
      "name": "getAverageDeliveryTime",
      "outputs": [
        {
          "internalType": "uint256",
          "name": "",
          "type": "uint256"
        }
      ],
      "stateMutability": "view",
      "type": "function",
      "constant": true
    },
    {
      "inputs": [
        {
          "internalType": "address",
          "name": "user",
          "type": "address"
        }
      ],
      "name": "getUserData",
      "outputs": [
        {
          "components": [
            {
              "internalType": "uint256",
              "name": "reputationPos",
              "type": "uint256"
            },
            {
              "internalType": "uint256",
              "name": "reputationNeg",
              "type": "uint256"
            },
            {
              "internalType": "uint256",
              "name": "totalTrades",
              "type": "uint256"
            },
            {
              "internalType": "uint256",
              "name": "warnings",
              "type": "uint256"
            },
            {
              "internalType": "bool",
              "name": "isBanned",
              "type": "bool"
            },
            {
              "components": [
                {
                  "internalType": "uint256",
                  "name": "totalStarts",
                  "type": "uint256"
                },
                {
                  "internalType": "uint256",
                  "name": "totalDeliveryTime",
                  "type": "uint256"
                },
                {
                  "internalType": "uint256",
                  "name": "numberOfDeliveries",
                  "type": "uint256"
                },
                {
                  "internalType": "uint256",
                  "name": "averageDeliveryTime",
                  "type": "uint256"
                }
              ],
              "internalType": "struct Users.DeliveryTimes",
              "name": "deliveryInfo",
              "type": "tuple"
            }
          ],
          "internalType": "struct Users.User",
          "name": "",
          "type": "tuple"
        }
      ],
      "stateMutability": "view",
      "type": "function",
      "constant": true
    },
    {
      "inputs": [
        {
          "internalType": "address",
          "name": "tradeAddress",
          "type": "address"
        },
        {
          "internalType": "enum Role",
          "name": "role",
          "type": "uint8"
        },
        {
          "internalType": "address",
          "name": "userAddress",
          "type": "address"
        },
        {
          "internalType": "enum TradeStatus",
          "name": "status",
          "type": "uint8"
        }
      ],
      "name": "addUserInteractionStatus",
      "outputs": [],
      "stateMutability": "nonpayable",
      "type": "function"
    },
    {
      "inputs": [
        {
          "internalType": "address",
          "name": "tradeAddress",
          "type": "address"
        },
        {
          "internalType": "address",
          "name": "userAddress",
          "type": "address"
        },
        {
          "internalType": "enum TradeStatus",
          "name": "status",
          "type": "uint8"
        }
      ],
      "name": "changeUserInteractionStatus",
      "outputs": [],
      "stateMutability": "nonpayable",
      "type": "function"
    },
    {
      "inputs": [
        {
          "internalType": "address",
          "name": "userAddrss",
          "type": "address"
        }
      ],
      "name": "getUserTotalTradeUIs",
      "outputs": [
        {
          "internalType": "uint256",
          "name": "",
          "type": "uint256"
        }
      ],
      "stateMutability": "view",
      "type": "function",
      "constant": true
    },
    {
      "inputs": [
        {
          "internalType": "address",
          "name": "userAddrss",
          "type": "address"
        },
        {
          "internalType": "uint256",
          "name": "i",
          "type": "uint256"
        }
      ],
      "name": "getUserTradeUIByIndex",
      "outputs": [
        {
          "components": [
            {
              "internalType": "address",
              "name": "contractAddress",
              "type": "address"
            },
            {
              "internalType": "enum Role",
              "name": "role",
              "type": "uint8"
            },
            {
              "internalType": "enum TradeStatus",
              "name": "status",
              "type": "uint8"
            }
          ],
          "internalType": "struct UserInteraction",
          "name": "",
          "type": "tuple"
        }
      ],
      "stateMutability": "view",
      "type": "function",
      "constant": true
    },
    {
      "inputs": [
        {
          "internalType": "address",
          "name": "userAddress",
          "type": "address"
        },
        {
          "internalType": "enum TradeStatus",
          "name": "status",
          "type": "uint8"
        }
      ],
      "name": "getUserTradeCountByStatus",
      "outputs": [
        {
          "internalType": "uint256",
          "name": "",
          "type": "uint256"
        }
      ],
      "stateMutability": "view",
      "type": "function",
      "constant": true
    },
    {
      "inputs": [
        {
          "internalType": "address",
          "name": "userAddress",
          "type": "address"
        },
        {
          "internalType": "enum TradeStatus",
          "name": "status",
          "type": "uint8"
        },
        {
          "internalType": "uint256",
          "name": "indexFrom",
          "type": "uint256"
        },
        {
          "internalType": "uint256",
          "name": "maxResults",
          "type": "uint256"
        }
      ],
      "name": "getUserTradeUIsByStatus",
      "outputs": [
        {
          "components": [
            {
              "internalType": "address",
              "name": "contractAddress",
              "type": "address"
            },
            {
              "internalType": "enum Role",
              "name": "role",
              "type": "uint8"
            },
            {
              "internalType": "enum TradeStatus",
              "name": "status",
              "type": "uint8"
            }
          ],
          "internalType": "struct UserInteraction[]",
          "name": "",
          "type": "tuple[]"
        }
      ],
      "stateMutability": "view",
      "type": "function",
      "constant": true
    },
    {
      "inputs": [
        {
          "internalType": "address",
          "name": "tradeAddrs",
          "type": "address"
        },
        {
          "internalType": "bool",
          "name": "isPositive",
          "type": "bool"
        }
      ],
      "name": "repAfterTrade",
      "outputs": [],
      "stateMutability": "nonpayable",
      "type": "function"
    },
    {
      "inputs": [
        {
          "internalType": "address",
          "name": "tradeAddrs",
          "type": "address"
        }
      ],
      "name": "hasMadeRepOnTrade",
      "outputs": [
        {
          "internalType": "bool",
          "name": "hasBuyer",
          "type": "bool"
        },
        {
          "internalType": "bool",
          "name": "hasSeller",
          "type": "bool"
        },
        {
          "internalType": "bool",
          "name": "isTime",
          "type": "bool"
        }
      ],
      "stateMutability": "view",
      "type": "function",
      "constant": true
    }
  ],
  "bytecode": "0x608060405234801561001057600080fd5b506040516200225d3803806200225d8339810160408190526100319161005b565b600160005560038054600160a060020a031916600160a060020a039290921691909117905561008b565b60006020828403121561006d57600080fd5b8151600160a060020a038116811461008457600080fd5b9392505050565b6121c2806200009b6000396000f3fe608060405234801561001057600080fd5b506004361061010a5760e060020a600035046310d86b1f811461010f578063116fd6491461012457806343e239ba146101375780634904f6dc1461014a5780634d12b69514610173578063534505661461018657806353941d4e146101995780636f77926b146101ac578063791bd0d0146101cc5780637f1b5565146102065780637f24b9601461021957806383c17c55146102395780638771e9321461024c578063951dc22c1461027e57806397f735d51461029e5780639b67ca19146102dd578063a87430ba14610306578063c45a01551461038d578063cd9c91fe146103a0578063fe4162d1146103b3578063ffc9896b146101ac575b600080fd5b61012261011d366004611802565b6103c6565b005b610122610132366004611833565b610566565b610122610145366004611893565b610772565b61015d6101583660046118cc565b6108fe565b60405161016a9190611959565b60405180910390f35b610122610181366004611802565b6109cc565b610122610194366004611975565b610b66565b6101226101a7366004611802565b610e50565b6101bf6101ba366004611802565b61102e565b60405161016a91906119c9565b6101f86101da366004611802565b600160a060020a031660009081526001602052604090206008015490565b60405190815260200161016a565b610122610214366004611893565b6110cc565b61022c610227366004611a19565b6111c1565b60405161016a9190611a5f565b610122610247366004611802565b61137c565b61025f61025a366004611802565b61141b565b604080519315158452911515602084015215159082015260600161016a565b60035461029190600160a060020a031681565b60405161016a9190611aa1565b6102cd6102ac366004611802565b600160a060020a031660009081526001602052604090206004015460ff1690565b604051901515815260200161016a565b6101f86102eb366004611802565b600160a060020a031660009081526005602052604090205490565b61037b610314366004611802565b6001602081815260009283526040928390208054928101546002820154600383015460048401548751608081018952600586015481526006860154968101969096526007850154978601979097526008909301546060850152939490939260ff9091169086565b60405161016a96959493929190611ab5565b60045461029190600160a060020a031681565b6101f86103ae366004611af3565b6114fa565b6101226103c1366004611b21565b6115ac565b60035460405160e060020a63fd6aad25028152600160a060020a039091169063fd6aad25906103f9903390600401611aa1565b602060405180830381865afa158015610416573d6000803e3d6000fd5b505050506040513d601f19601f8201168201806040525081019061043a9190611b6c565b1515806104b9575060035460405160e060020a63fd6aad25028152600160a060020a039091169063fd6aad2590610475903290600401611aa1565b602060405180830381865afa158015610492573d6000803e3d6000fd5b505050506040513d601f19601f820116820180604052508101906104b69190611b6c565b15155b80610533575060035460405160e760020a63012875b1028152600160a060020a039091169063943ad880906104f2903390600401611aa1565b602060405180830381865afa15801561050f573d6000803e3d6000fd5b505050506040513d601f19601f820116820180604052508101906105339190611b85565b61053c57600080fd5b600160a060020a03166000908152600160208190526040909120600401805460ff19169091179055565b8333600160a060020a0382161480156105ed57506004805460405160e160020a6337211afb028152600160a060020a0390911691636e4235f6916105ac91859101611aa1565b602060405180830381865afa1580156105c9573d6000803e3d6000fd5b505050506040513d601f19601f820116820180604052508101906105ed9190611b85565b6106155760405160e560020a62461bcd02815260040161060c90611ba2565b60405180910390fd5b6005600084600160a060020a0316600160a060020a03168152602001908152602001600020604051806060016040528087600160a060020a03168152602001866001811115610666576106666118f8565b815260200184600981111561067d5761067d6118f8565b90528154600180820184556000938452602093849020835192018054600160a060020a03198116600160a060020a0390941693841782559484015193949093928492600160a860020a0319909216179060a060020a9084908111156106e4576106e46118f8565b021790555060408201518154829060a860020a60ff02191660a860020a836009811115610713576107136118f8565b02179055505050600160a060020a03831660009081526005602052604090205461073f90600190611beb565b600160a060020a039586166000908152600660209081526040808320969098168252949094529490922093909355505050565b8133600160a060020a0382161480156107f957506004805460405160e160020a6337211afb028152600160a060020a0390911691636e4235f6916107b891859101611aa1565b602060405180830381865afa1580156107d5573d6000803e3d6000fd5b505050506040513d601f19601f820116820180604052508101906107f99190611b85565b6108185760405160e560020a62461bcd02815260040161060c90611ba2565b600160a060020a03808316600090815260026020908152604080832093871683529290529081205461084a9042611beb565b600160a060020a03841660009081526001602052604081206006018054929350839290919061087a908490611bfe565b9091555050600160a060020a038316600090815260016020526040812060070180549091906108a890611c11565b90915550600160a060020a038316600090815260016020526040902060078101546006909101546108d99190611c2a565b600160a060020a03909316600090815260016020526040902060080192909255505050565b61090661176d565b600160a060020a038316600090815260056020526040902080548390811061093057610930611c50565b6000918252602091829020604080516060810190915291018054600160a060020a0381168352919290919083019060a060020a900460ff166001811115610979576109796118f8565b600181111561098a5761098a6118f8565b8152815460209091019060a860020a900460ff1660098111156109af576109af6118f8565b60098111156109c0576109c06118f8565b90525090505b92915050565b60035460405160e060020a63fd6aad25028152600160a060020a039091169063fd6aad25906109ff903390600401611aa1565b602060405180830381865afa158015610a1c573d6000803e3d6000fd5b505050506040513d601f19601f82011682018060405250810190610a409190611b6c565b151580610abf575060035460405160e060020a63fd6aad25028152600160a060020a039091169063fd6aad2590610a7b903290600401611aa1565b602060405180830381865afa158015610a98573d6000803e3d6000fd5b505050506040513d601f19601f82011682018060405250810190610abc9190611b6c565b15155b80610b39575060035460405160e760020a63012875b1028152600160a060020a039091169063943ad88090610af8903390600401611aa1565b602060405180830381865afa158015610b15573d6000803e3d6000fd5b505050506040513d601f19601f82011682018060405250810190610b399190611b85565b610b4257600080fd5b600160a060020a03166000908152600160205260409020600401805460ff19169055565b610b6e6116d1565b6004805460405160e160020a6356f52433028152600092600160a060020a039092169163adea486691610ba391879101611aa1565b600060405180830381865afa158015610bc0573d6000803e3d6000fd5b505050506040513d6000823e601f3d908101601f19168201604052610be89190810190611fc0565b905060068161016001516009811115610c0357610c036118f8565b1015610c475760405160e560020a62461bcd02815260206004820152600d6024820152609860020a6c7464652021636f6d706c65746502604482015260640161060c565b8060600151600160a060020a031633600160a060020a03161480610c8057508060200151600160a060020a031633600160a060020a0316145b610cc35760405160e560020a62461bcd02815260206004820152600e6024820152609060020a6d2170617274206f6620747261646502604482015260640161060c565b6060810151600160a060020a03163303610d8257600160a060020a038316600090815260076020908152604080832083805290915290205460ff1615610d425760405160e560020a62461bcd02815260206004820152600e6024820152609160020a6d30b639323c903932b81030b996b102604482015260640161060c565b600160a060020a03831660009081526007602090815260408083208380528252909120805460ff19166001179055810151610d7d908361172d565b610e41565b6020810151600160a060020a03163303610e4157600160a060020a03831660009081526007602090815260408083206001845290915290205460ff1615610e025760405160e560020a62461bcd02815260206004820152600e6024820152609060020a6d616c726479207265702061732d7302604482015260640161060c565b600160a060020a038316600090815260076020908152604080832060018085529252909120805460ff191690911790556060810151610e41908361172d565b50610e4c6001600055565b5050565b60035460405160e060020a63fd6aad25028152600160a060020a039091169063fd6aad2590610e83903390600401611aa1565b602060405180830381865afa158015610ea0573d6000803e3d6000fd5b505050506040513d601f19601f82011682018060405250810190610ec49190611b6c565b151580610f43575060035460405160e060020a63fd6aad25028152600160a060020a039091169063fd6aad2590610eff903290600401611aa1565b602060405180830381865afa158015610f1c573d6000803e3d6000fd5b505050506040513d601f19601f82011682018060405250810190610f409190611b6c565b15155b80610fbd575060035460405160e760020a63012875b1028152600160a060020a039091169063943ad88090610f7c903390600401611aa1565b602060405180830381865afa158015610f99573d6000803e3d6000fd5b505050506040513d601f19601f82011682018060405250810190610fbd9190611b85565b610fc657600080fd5b600160a060020a0381166000908152600160208190526040822090810180549192600592610ff5908490611bfe565b909155505060038101805460009061100c90611c11565b9091555060038181015410610e4c5760048101805460ff191660011790555050565b61103661178f565b50600160a060020a0316600090815260016020818152604092839020835160c0810185528154815292810154838301526002810154838501526003810154606080850191909152600482015460ff1615156080808601919091528551908101865260058301548152600683015493810193909352600782015494830194909452600801549281019290925260a081019190915290565b8133600160a060020a03821614801561115357506004805460405160e160020a6337211afb028152600160a060020a0390911691636e4235f69161111291859101611aa1565b602060405180830381865afa15801561112f573d6000803e3d6000fd5b505050506040513d601f19601f820116820180604052508101906111539190611b85565b6111725760405160e560020a62461bcd02815260040161060c90611ba2565b600160a060020a0380831660008181526002602090815260408083209488168352938152838220429055918152600190915290812060050180549091906111b890611c11565b90915550505050565b60606000826001604060020a038111156111dd576111dd611c6a565b60405190808252806020026020018201604052801561121657816020015b61120361176d565b8152602001906001900390816111fb5790505b5090506000845b84821080156112435750600160a060020a03881660009081526005602052604090205481105b1561137057600160a060020a038816600090815260056020526040812080548390811061127257611272611c50565b6000918252602091829020604080516060810190915291018054600160a060020a0381168352919290919083019060a060020a900460ff1660018111156112bb576112bb6118f8565b60018111156112cc576112cc6118f8565b8152815460209091019060a860020a900460ff1660098111156112f1576112f16118f8565b6009811115611302576113026118f8565b9052509050876009811115611319576113196118f8565b8160400151600981111561132f5761132f6118f8565b0361135f578084848151811061134757611347611c50565b60200260200101819052508261135c90611c11565b92505b61136882611c11565b91505061121d565b50909695505050505050565b60035460405160e260020a6326a8d83b028152600160a060020a0390911690639aa360ec906113af903390600401611aa1565b602060405180830381865afa1580156113cc573d6000803e3d6000fd5b505050506040513d601f19601f820116820180604052508101906113f09190611b85565b6113f957600080fd5b60048054600160a060020a031916600160a060020a0392909216919091179055565b6004805460405160e160020a6356f52433028152600092839283928392600160a060020a039092169163adea48669161145691899101611aa1565b600060405180830381865afa158015611473573d6000803e3d6000fd5b505050506040513d6000823e601f3d908101601f1916820160405261149b9190810190611fc0565b9050600681610160015160098111156114b6576114b66118f8565b600160a060020a03969096166000908152600760209081526040808320838052909152808220546001835291205460ff918216989116969190911015945092505050565b60008060005b600160a060020a0385166000908152600560205260409020548110156115a457836009811115611532576115326118f8565b600160a060020a038616600090815260056020526040902080548390811061155c5761155c611c50565b60009182526020909120015460a860020a900460ff166009811115611583576115836118f8565b036115945761159182611c11565b91505b61159d81611c11565b9050611500565b509392505050565b8233600160a060020a03821614801561163357506004805460405160e160020a6337211afb028152600160a060020a0390911691636e4235f6916115f291859101611aa1565b602060405180830381865afa15801561160f573d6000803e3d6000fd5b505050506040513d601f19601f820116820180604052508101906116339190611b85565b6116525760405160e560020a62461bcd02815260040161060c90611ba2565b600160a060020a038085166000908152600660209081526040808320938716835292815282822054600590915291902080548491908390811061169757611697611c50565b6000918252602090912001805460a860020a60ff02191660a860020a8360098111156116c5576116c56118f8565b02179055505050505050565b6002600054036117265760405160e560020a62461bcd02815260206004820152601f60248201527f5265656e7472616e637947756172643a207265656e7472616e742063616c6c00604482015260640161060c565b6002600055565b600160a060020a0382166000908152600160205260409020811561175c5780600001600081546111b890611c11565b80600101600081546111b890611c11565b604080516060810190915260008082526020820190815260200160005b905290565b6040518060c001604052806000815260200160008152602001600081526020016000815260200160001515815260200161178a6040518060800160405280600081526020016000815260200160008152602001600081525090565b600160a060020a03811681146117ff57600080fd5b50565b60006020828403121561181457600080fd5b813561181f816117ea565b9392505050565b600a81106117ff57600080fd5b6000806000806080858703121561184957600080fd5b8435611854816117ea565b935060208501356002811061186857600080fd5b92506040850135611878816117ea565b9150606085013561188881611826565b939692955090935050565b600080604083850312156118a657600080fd5b82356118b1816117ea565b915060208301356118c1816117ea565b809150509250929050565b600080604083850312156118df57600080fd5b82356118ea816117ea565b946020939093013593505050565b60e060020a634e487b710260009081526021600452602490fd5b8051600160a060020a03168252602081015160028110611934576119346118f8565b60208301526040810151600a811061194e5761194e6118f8565b806040840152505050565b606081016109c68284611912565b80151581146117ff57600080fd5b6000806040838503121561198857600080fd5b8235611993816117ea565b915060208301356118c181611967565b805182526020810151602083015260408101516040830152606081015160608301525050565b6000610120820190508251825260208301516020830152604083015160408301526060830151606083015260808301511515608083015260a0830151611a1260a08401826119a3565b5092915050565b60008060008060808587031215611a2f57600080fd5b8435611a3a816117ea565b93506020850135611a4a81611826565b93969395505050506040820135916060013590565b6020808252825182820181905260009190848201906040850190845b8181101561137057611a8e838551611912565b9284019260609290920191600101611a7b565b600160a060020a0391909116815260200190565b6000610120820190508782528660208301528560408301528460608301528315156080830152611ae860a08301846119a3565b979650505050505050565b60008060408385031215611b0657600080fd5b8235611b11816117ea565b915060208301356118c181611826565b600080600060608486031215611b3657600080fd5b8335611b41816117ea565b92506020840135611b51816117ea565b91506040840135611b6181611826565b809150509250925092565b600060208284031215611b7e57600080fd5b5051919050565b600060208284031215611b9757600080fd5b815161181f81611967565b6020808252601290820152607260020a711b9bdd081d1c9859194818dbdb9d1c9858dd02604082015260600190565b60e060020a634e487b710260009081526011600452602490fd5b818103818111156109c6576109c6611bd1565b808201808211156109c6576109c6611bd1565b600060018201611c2357611c23611bd1565b5060010190565b600082611c4b5760e060020a634e487b710260009081526012600452602490fd5b500490565b60e060020a634e487b710260009081526032600452602490fd5b60e060020a634e487b710260009081526041600452602490fd5b604051608081016001604060020a0381118282101715611ca657611ca6611c6a565b60405290565b6040516101c081016001604060020a0381118282101715611ca657611ca6611c6a565b604051601f8201601f191681016001604060020a0381118282101715611cf757611cf7611c6a565b604052919050565b8051611d0a816117ea565b919050565b600082601f830112611d2057600080fd5b81516001604060020a03811115611d3957611d39611c6a565b6020611d4d601f8301601f19168201611ccf565b8281528582848701011115611d6157600080fd5b60005b83811015611d7f578581018301518282018401528201611d64565b506000928101909101919091529392505050565b600060408284031215611da557600080fd5b604080519081016001604060020a038082118383101715611dc857611dc8611c6a565b81604052829350845183526020850151915080821115611de757600080fd5b50611df485828601611d0f565b6020830152505092915050565b600060608284031215611e1357600080fd5b604051606081016001604060020a038082118383101715611e3657611e36611c6a565b816040528293508451915080821115611e4e57600080fd5b50611e5b85828601611d0f565b82525060208301516020820152604083015160408201525092915050565b8051611d0a81611826565b600082601f830112611e9557600080fd5b815160206001604060020a0380831115611eb157611eb1611c6a565b818302611ebf838201611ccf565b9384528581018301938381019088861115611ed957600080fd5b84880192505b85831015611fb457825184811115611ef75760008081fd5b88016080818b03601f1901811315611f0f5760008081fd5b611f17611c84565b8783015187811115611f295760008081fd5b611f378d8a83870101611d0f565b82525060408084015188811115611f4e5760008081fd5b611f5c8e8b83880101611d0f565b8a8401525060608085015160ff81168114611f775760008081fd5b83830152928401519288841115611f9057600091508182fd5b611f9e8e8b86880101611d0f565b9083015250845250509184019190840190611edf565b98975050505050505050565b600060208284031215611fd257600080fd5b81516001604060020a0380821115611fe957600080fd5b908301906101c08286031215611ffe57600080fd5b612006611cac565b61200f83611cff565b815261201d60208401611cff565b602082015260408301518281111561203457600080fd5b61204087828601611d93565b60408301525061205260608401611cff565b606082015260808301518281111561206957600080fd5b61207587828601611d93565b60808301525060a08301518281111561208d57600080fd5b61209987828601611d0f565b60a08301525060c0830151828111156120b157600080fd5b6120bd87828601611d0f565b60c08301525060e0830151828111156120d557600080fd5b6120e187828601611d0f565b60e08301525061010083810151908201526101208084015190820152610140808401518381111561211157600080fd5b61211d88828701611e01565b828401525050610160612131818501611e79565b90820152610180838101518381111561214957600080fd5b61215588828701611e84565b8284015250506101a0808401518381111561216f57600080fd5b61217b88828701611d0f565b91830191909152509594505050505056fea264697066735822122053e2e61d511e21cb321ce6072173eebea7101544d2c76875f9c5ed7e4d54534464736f6c63430008130033",
  "immutableReferences": {},
  "source": "//SPDX-License-Identifier: UNLICENSED\r\npragma solidity 0.8.19;\r\n\r\nimport \"../Keepers/IKeepers.sol\";\r\nimport \"../TradeFactory/ITradeFactory.sol\";\r\nimport {ReentrancyGuard} from \"@openzeppelin/contracts/security/ReentrancyGuard.sol\";\r\n\r\ncontract Users is ReentrancyGuard {\r\n    struct User {\r\n        uint256 reputationPos;\r\n        uint256 reputationNeg;\r\n        uint256 totalTrades;\r\n        uint256 warnings;\r\n        bool isBanned;\r\n        DeliveryTimes deliveryInfo;\r\n    }\r\n\r\n    struct DeliveryTimes {\r\n        uint256 totalStarts;\r\n        uint256 totalDeliveryTime;\r\n        uint256 numberOfDeliveries;\r\n        uint256 averageDeliveryTime;\r\n    }\r\n\r\n    mapping(address => User) public users;\r\n    mapping(address => mapping(address => uint256)) UserToContractDeliveryStartTime;\r\n\r\n    IKeepers public keepers;\r\n    ITradeFactory public factory;\r\n\r\n    constructor(address _keepers) {\r\n        keepers = IKeepers(_keepers);\r\n    }\r\n\r\n    function setFactoryAddress(address _factoryAddress) external {\r\n        require(keepers.isCouncil(msg.sender));\r\n        factory = ITradeFactory(_factoryAddress);\r\n    }\r\n\r\n    modifier onlyFactory() {\r\n        require(msg.sender == address(factory));\r\n        _;\r\n    }\r\n\r\n    modifier onlyTradeContracts(address contractAddress) {\r\n        require(\r\n            msg.sender == contractAddress &&\r\n                factory.isThisTradeContract(contractAddress),\r\n            \"not trade contract\"\r\n        );\r\n        _;\r\n    }\r\n\r\n    modifier onlyKeepers() {\r\n        require(\r\n            keepers.indexOf(msg.sender) != 0 ||\r\n                keepers.indexOf(tx.origin) != 0 ||\r\n                keepers.isKeeperNode(msg.sender)\r\n        );\r\n        _;\r\n    }\r\n\r\n    function warnUser(address _user) public onlyKeepers {\r\n        User storage user = users[_user];\r\n        user.reputationNeg += 5;\r\n        ++user.warnings;\r\n        if (user.warnings >= 3) {\r\n            user.isBanned = true;\r\n        }\r\n    }\r\n\r\n    function banUser(address _user) public onlyKeepers {\r\n        User storage user = users[_user];\r\n        user.isBanned = true;\r\n    }\r\n\r\n    function unbanUser(address _user) public onlyKeepers {\r\n        User storage user = users[_user];\r\n        user.isBanned = false;\r\n    }\r\n\r\n    function getUser(address _user) external view returns (User memory) {\r\n        return users[_user];\r\n    }\r\n\r\n    function isBanned(address _user) external view returns (bool) {\r\n        return users[_user].isBanned;\r\n    }\r\n\r\n    function _repAfterTrade(address _user, bool isPositive) private {\r\n        User storage user = users[_user];\r\n        if (isPositive) {\r\n            ++user.reputationPos;\r\n        } else {\r\n            ++user.reputationNeg;\r\n        }\r\n    }\r\n\r\n    function startDeliveryTimer(address contractAddress, address user)\r\n        external\r\n        onlyTradeContracts(contractAddress)\r\n    {\r\n        UserToContractDeliveryStartTime[user][contractAddress] = block\r\n            .timestamp;\r\n        ++users[user].deliveryInfo.totalStarts;\r\n    }\r\n\r\n    function endDeliveryTimer(address contractAddress, address user)\r\n        external\r\n        onlyTradeContracts(contractAddress)\r\n    {\r\n        uint256 deliveryTime = block.timestamp -\r\n            UserToContractDeliveryStartTime[user][contractAddress];\r\n        users[user].deliveryInfo.totalDeliveryTime += deliveryTime;\r\n        ++users[user].deliveryInfo.numberOfDeliveries;\r\n        users[user].deliveryInfo.averageDeliveryTime =\r\n            users[user].deliveryInfo.totalDeliveryTime /\r\n            users[user].deliveryInfo.numberOfDeliveries;\r\n    }\r\n\r\n    function getAverageDeliveryTime(address user)\r\n        external\r\n        view\r\n        returns (uint256)\r\n    {\r\n        return users[user].deliveryInfo.averageDeliveryTime;\r\n    }\r\n\r\n    function getUserData(address user)\r\n        external\r\n        view\r\n        returns (User memory)\r\n    {\r\n        return users[user];\r\n    }\r\n\r\n    //User to Trades\r\n    mapping(address => UserInteraction[]) userTrades;\r\n    mapping(address => mapping(address => uint256)) tradeAddrsToUserAddrsInteractionIndex;\r\n\r\n    function addUserInteractionStatus(\r\n        address tradeAddress,\r\n        Role role,\r\n        address userAddress,\r\n        TradeStatus status\r\n    ) external onlyTradeContracts(tradeAddress) {\r\n        userTrades[userAddress].push(\r\n            UserInteraction(tradeAddress, role, status)\r\n        );\r\n        tradeAddrsToUserAddrsInteractionIndex[tradeAddress][userAddress] =\r\n            userTrades[userAddress].length -\r\n            1;\r\n    }\r\n\r\n    function changeUserInteractionStatus(\r\n        address tradeAddress,\r\n        address userAddress,\r\n        TradeStatus status\r\n    ) external onlyTradeContracts(tradeAddress) {\r\n        uint256 iIndex = tradeAddrsToUserAddrsInteractionIndex[tradeAddress][\r\n            userAddress\r\n        ];\r\n        userTrades[userAddress][iIndex].status = status;\r\n    }\r\n\r\n    function getUserTotalTradeUIs(address userAddrss)\r\n        external\r\n        view\r\n        returns (uint256)\r\n    {\r\n        return userTrades[userAddrss].length;\r\n    }\r\n\r\n    function getUserTradeUIByIndex(address userAddrss, uint256 i)\r\n        external\r\n        view\r\n        returns (UserInteraction memory)\r\n    {\r\n        return userTrades[userAddrss][i];\r\n    }\r\n\r\n    function getUserTradeCountByStatus(\r\n        address userAddress,\r\n        TradeStatus status\r\n    ) external view returns (uint256) {\r\n        uint256 count;\r\n        for (uint256 i = 0; i < userTrades[userAddress].length; ++i) {\r\n            if (userTrades[userAddress][i].status == status) {\r\n                ++count;\r\n            }\r\n        }\r\n        return count;\r\n    }\r\n\r\n     function getUserTradeUIsByStatus(\r\n        address userAddress,\r\n        TradeStatus status,\r\n        uint256 indexFrom,\r\n        uint256 maxResults\r\n    ) external view returns (UserInteraction[] memory) {\r\n        UserInteraction[] memory tradeUIs = new UserInteraction[](maxResults);\r\n        uint256 resultIndex;\r\n        uint256 i = indexFrom;\r\n        while (resultIndex < maxResults && i < userTrades[userAddress].length) {\r\n            UserInteraction memory ui = userTrades[userAddress][i];\r\n\r\n            if (ui.status == status) {\r\n                tradeUIs[resultIndex] = ui;\r\n                ++resultIndex;\r\n            }\r\n\r\n            ++i;\r\n        }\r\n        return tradeUIs;\r\n    }\r\n    \r\n    mapping(address => mapping(Role => bool)) tradeAdrsToRoleToHasRep;\r\n\r\n    function repAfterTrade(address tradeAddrs, bool isPositive)\r\n        external\r\n        nonReentrant\r\n    {\r\n        TradeInfo memory _tradeContract = factory.getTradeDetailsByAddress(\r\n            tradeAddrs\r\n        );\r\n\r\n        require(\r\n            _tradeContract.status >= TradeStatus.Completed,\r\n            \"tde !complete\"\r\n        );\r\n\r\n        require(\r\n            msg.sender == _tradeContract.buyer ||\r\n                msg.sender == _tradeContract.seller,\r\n            \"!part of trade\"\r\n        );\r\n\r\n        if (msg.sender == _tradeContract.buyer) {\r\n            require(\r\n                tradeAdrsToRoleToHasRep[tradeAddrs][Role.BUYER] == false,\r\n                \"alrdy rep as-b\"\r\n            );\r\n            tradeAdrsToRoleToHasRep[tradeAddrs][Role.BUYER] = true;\r\n            _repAfterTrade(_tradeContract.seller, isPositive);\r\n        } else if (msg.sender == _tradeContract.seller) {\r\n            require(\r\n                tradeAdrsToRoleToHasRep[tradeAddrs][Role.SELLER] == false,\r\n                \"alrdy rep as-s\"\r\n            );\r\n            tradeAdrsToRoleToHasRep[tradeAddrs][Role.SELLER] = true;\r\n            _repAfterTrade(_tradeContract.buyer, isPositive);\r\n        }\r\n    }\r\n\r\n    function hasMadeRepOnTrade(address tradeAddrs)\r\n        external\r\n        view\r\n        returns (\r\n            bool hasBuyer,\r\n            bool hasSeller,\r\n            bool isTime\r\n        )\r\n    {\r\n        TradeInfo memory _tradeContract = factory.getTradeDetailsByAddress(\r\n            tradeAddrs\r\n        );\r\n\r\n        isTime = (_tradeContract.status >= TradeStatus.Completed);\r\n\r\n        hasBuyer = tradeAdrsToRoleToHasRep[tradeAddrs][Role.BUYER];\r\n\r\n        hasSeller = tradeAdrsToRoleToHasRep[tradeAddrs][Role.SELLER];\r\n    }\r\n}\r\n",
  "sourcePath": "C:\\Users\\Charl\\Documents\\Projects\\SteamMarket\\CSX\\csx-contracts\\contracts\\Users\\Users.sol",
  "compiler": {
    "name": "solc",
    "version": "0.8.19+commit.7dd6d404.Emscripten.clang"
  },
  "schemaVersion": "3.4.3",
  "updatedAt": "2023-04-16T13:34:34.803Z",
  "networkType": "ethereum",
  "devdoc": {
    "kind": "dev",
    "methods": {},
    "version": 1
  },
  "userdoc": {
    "kind": "user",
    "methods": {},
    "version": 1
  }
}