{
  "contractName": "Users",
  "abi": [
    {
      "inputs": [
        {
          "internalType": "address",
          "name": "_keepers",
          "type": "address"
        }
      ],
      "stateMutability": "nonpayable",
      "type": "constructor"
    },
    {
      "anonymous": false,
      "inputs": [
        {
          "indexed": true,
          "internalType": "address",
          "name": "seller",
          "type": "address"
        },
        {
          "indexed": true,
          "internalType": "address",
          "name": "buyer",
          "type": "address"
        },
        {
          "indexed": true,
          "internalType": "bytes32",
          "name": "refCode",
          "type": "bytes32"
        },
        {
          "indexed": false,
          "internalType": "enum PriceType",
          "name": "priceType",
          "type": "uint8"
        },
        {
          "indexed": false,
          "internalType": "uint256",
          "name": "value",
          "type": "uint256"
        }
      ],
      "name": "NewTrade",
      "type": "event"
    },
    {
      "inputs": [],
      "name": "factory",
      "outputs": [
        {
          "internalType": "contract ITradeFactory",
          "name": "",
          "type": "address"
        }
      ],
      "stateMutability": "view",
      "type": "function"
    },
    {
      "inputs": [],
      "name": "keepers",
      "outputs": [
        {
          "internalType": "contract IKeepers",
          "name": "",
          "type": "address"
        }
      ],
      "stateMutability": "view",
      "type": "function"
    },
    {
      "inputs": [
        {
          "internalType": "address",
          "name": "",
          "type": "address"
        }
      ],
      "name": "users",
      "outputs": [
        {
          "internalType": "uint256",
          "name": "reputationPos",
          "type": "uint256"
        },
        {
          "internalType": "uint256",
          "name": "reputationNeg",
          "type": "uint256"
        },
        {
          "internalType": "uint256",
          "name": "totalTrades",
          "type": "uint256"
        },
        {
          "internalType": "uint256",
          "name": "warnings",
          "type": "uint256"
        },
        {
          "internalType": "bool",
          "name": "isBanned",
          "type": "bool"
        },
        {
          "components": [
            {
              "internalType": "uint256",
              "name": "totalStarts",
              "type": "uint256"
            },
            {
              "internalType": "uint256",
              "name": "totalDeliveryTime",
              "type": "uint256"
            },
            {
              "internalType": "uint256",
              "name": "numberOfDeliveries",
              "type": "uint256"
            },
            {
              "internalType": "uint256",
              "name": "averageDeliveryTime",
              "type": "uint256"
            }
          ],
          "internalType": "struct Users.DeliveryTimes",
          "name": "deliveryInfo",
          "type": "tuple"
        },
        {
          "internalType": "uint256",
          "name": "totalTradesAsSeller",
          "type": "uint256"
        },
        {
          "internalType": "uint256",
          "name": "totalTradesAsBuyer",
          "type": "uint256"
        }
      ],
      "stateMutability": "view",
      "type": "function"
    },
    {
      "inputs": [
        {
          "internalType": "address",
          "name": "seller",
          "type": "address"
        },
        {
          "internalType": "address",
          "name": "buyer",
          "type": "address"
        },
        {
          "internalType": "bytes32",
          "name": "refCode",
          "type": "bytes32"
        },
        {
          "internalType": "enum PriceType",
          "name": "priceType",
          "type": "uint8"
        },
        {
          "internalType": "uint256",
          "name": "value",
          "type": "uint256"
        }
      ],
      "name": "emitNewTrade",
      "outputs": [],
      "stateMutability": "nonpayable",
      "type": "function"
    },
    {
      "inputs": [
        {
          "internalType": "address",
          "name": "_factoryAddress",
          "type": "address"
        }
      ],
      "name": "setFactoryAddress",
      "outputs": [],
      "stateMutability": "nonpayable",
      "type": "function"
    },
    {
      "inputs": [
        {
          "internalType": "address",
          "name": "_user",
          "type": "address"
        }
      ],
      "name": "warnUser",
      "outputs": [],
      "stateMutability": "nonpayable",
      "type": "function"
    },
    {
      "inputs": [
        {
          "internalType": "address",
          "name": "_user",
          "type": "address"
        }
      ],
      "name": "banUser",
      "outputs": [],
      "stateMutability": "nonpayable",
      "type": "function"
    },
    {
      "inputs": [
        {
          "internalType": "address",
          "name": "_user",
          "type": "address"
        }
      ],
      "name": "unbanUser",
      "outputs": [],
      "stateMutability": "nonpayable",
      "type": "function"
    },
    {
      "inputs": [
        {
          "internalType": "address",
          "name": "user",
          "type": "address"
        }
      ],
      "name": "getUserData",
      "outputs": [
        {
          "components": [
            {
              "internalType": "uint256",
              "name": "reputationPos",
              "type": "uint256"
            },
            {
              "internalType": "uint256",
              "name": "reputationNeg",
              "type": "uint256"
            },
            {
              "internalType": "uint256",
              "name": "totalTrades",
              "type": "uint256"
            },
            {
              "internalType": "uint256",
              "name": "warnings",
              "type": "uint256"
            },
            {
              "internalType": "bool",
              "name": "isBanned",
              "type": "bool"
            },
            {
              "components": [
                {
                  "internalType": "uint256",
                  "name": "totalStarts",
                  "type": "uint256"
                },
                {
                  "internalType": "uint256",
                  "name": "totalDeliveryTime",
                  "type": "uint256"
                },
                {
                  "internalType": "uint256",
                  "name": "numberOfDeliveries",
                  "type": "uint256"
                },
                {
                  "internalType": "uint256",
                  "name": "averageDeliveryTime",
                  "type": "uint256"
                }
              ],
              "internalType": "struct Users.DeliveryTimes",
              "name": "deliveryInfo",
              "type": "tuple"
            },
            {
              "internalType": "uint256",
              "name": "totalTradesAsSeller",
              "type": "uint256"
            },
            {
              "internalType": "uint256",
              "name": "totalTradesAsBuyer",
              "type": "uint256"
            }
          ],
          "internalType": "struct Users.User",
          "name": "",
          "type": "tuple"
        }
      ],
      "stateMutability": "view",
      "type": "function"
    },
    {
      "inputs": [
        {
          "internalType": "address",
          "name": "_user",
          "type": "address"
        }
      ],
      "name": "isBanned",
      "outputs": [
        {
          "internalType": "bool",
          "name": "",
          "type": "bool"
        }
      ],
      "stateMutability": "view",
      "type": "function"
    },
    {
      "inputs": [
        {
          "internalType": "address",
          "name": "contractAddress",
          "type": "address"
        },
        {
          "internalType": "address",
          "name": "user",
          "type": "address"
        }
      ],
      "name": "startDeliveryTimer",
      "outputs": [],
      "stateMutability": "nonpayable",
      "type": "function"
    },
    {
      "inputs": [
        {
          "internalType": "address",
          "name": "contractAddress",
          "type": "address"
        },
        {
          "internalType": "address",
          "name": "user",
          "type": "address"
        }
      ],
      "name": "endDeliveryTimer",
      "outputs": [],
      "stateMutability": "nonpayable",
      "type": "function"
    },
    {
      "inputs": [
        {
          "internalType": "address",
          "name": "user",
          "type": "address"
        }
      ],
      "name": "getAverageDeliveryTime",
      "outputs": [
        {
          "internalType": "uint256",
          "name": "",
          "type": "uint256"
        }
      ],
      "stateMutability": "view",
      "type": "function"
    },
    {
      "inputs": [
        {
          "internalType": "address",
          "name": "tradeAddress",
          "type": "address"
        },
        {
          "internalType": "enum Role",
          "name": "role",
          "type": "uint8"
        },
        {
          "internalType": "address",
          "name": "userAddress",
          "type": "address"
        },
        {
          "internalType": "enum TradeStatus",
          "name": "status",
          "type": "uint8"
        }
      ],
      "name": "addUserInteractionStatus",
      "outputs": [],
      "stateMutability": "nonpayable",
      "type": "function"
    },
    {
      "inputs": [
        {
          "internalType": "address",
          "name": "tradeAddress",
          "type": "address"
        },
        {
          "internalType": "address",
          "name": "userAddress",
          "type": "address"
        },
        {
          "internalType": "enum TradeStatus",
          "name": "status",
          "type": "uint8"
        }
      ],
      "name": "changeUserInteractionStatus",
      "outputs": [],
      "stateMutability": "nonpayable",
      "type": "function"
    },
    {
      "inputs": [
        {
          "internalType": "address",
          "name": "userAddrss",
          "type": "address"
        }
      ],
      "name": "getUserTotalTradeUIs",
      "outputs": [
        {
          "internalType": "uint256",
          "name": "",
          "type": "uint256"
        }
      ],
      "stateMutability": "view",
      "type": "function"
    },
    {
      "inputs": [
        {
          "internalType": "address",
          "name": "userAddrss",
          "type": "address"
        },
        {
          "internalType": "uint256",
          "name": "i",
          "type": "uint256"
        }
      ],
      "name": "getUserTradeUIByIndex",
      "outputs": [
        {
          "components": [
            {
              "internalType": "address",
              "name": "contractAddress",
              "type": "address"
            },
            {
              "internalType": "enum Role",
              "name": "role",
              "type": "uint8"
            },
            {
              "internalType": "enum TradeStatus",
              "name": "status",
              "type": "uint8"
            }
          ],
          "internalType": "struct UserInteraction",
          "name": "",
          "type": "tuple"
        }
      ],
      "stateMutability": "view",
      "type": "function"
    },
    {
      "inputs": [
        {
          "internalType": "address",
          "name": "userAddress",
          "type": "address"
        },
        {
          "internalType": "enum TradeStatus",
          "name": "status",
          "type": "uint8"
        }
      ],
      "name": "getUserTradeCountByStatus",
      "outputs": [
        {
          "internalType": "uint256",
          "name": "",
          "type": "uint256"
        }
      ],
      "stateMutability": "view",
      "type": "function"
    },
    {
      "inputs": [
        {
          "internalType": "address",
          "name": "userAddress",
          "type": "address"
        },
        {
          "internalType": "enum TradeStatus",
          "name": "status",
          "type": "uint8"
        },
        {
          "internalType": "uint256",
          "name": "indexFrom",
          "type": "uint256"
        },
        {
          "internalType": "uint256",
          "name": "maxResults",
          "type": "uint256"
        }
      ],
      "name": "getUserTradeUIsByStatus",
      "outputs": [
        {
          "components": [
            {
              "internalType": "address",
              "name": "contractAddress",
              "type": "address"
            },
            {
              "internalType": "enum Role",
              "name": "role",
              "type": "uint8"
            },
            {
              "internalType": "enum TradeStatus",
              "name": "status",
              "type": "uint8"
            }
          ],
          "internalType": "struct UserInteraction[]",
          "name": "",
          "type": "tuple[]"
        }
      ],
      "stateMutability": "view",
      "type": "function"
    },
    {
      "inputs": [
        {
          "internalType": "address",
          "name": "tradeAddrs",
          "type": "address"
        },
        {
          "internalType": "bool",
          "name": "isPositive",
          "type": "bool"
        }
      ],
      "name": "repAfterTrade",
      "outputs": [],
      "stateMutability": "nonpayable",
      "type": "function"
    },
    {
      "inputs": [
        {
          "internalType": "address",
          "name": "tradeAddrs",
          "type": "address"
        }
      ],
      "name": "hasMadeRepOnTrade",
      "outputs": [
        {
          "internalType": "bool",
          "name": "hasBuyer",
          "type": "bool"
        },
        {
          "internalType": "bool",
          "name": "hasSeller",
          "type": "bool"
        },
        {
          "internalType": "bool",
          "name": "isTime",
          "type": "bool"
        }
      ],
      "stateMutability": "view",
      "type": "function"
    }
  ],
  "bytecode": "0x60806040523480156200001157600080fd5b50604051620027c2380380620027c283398101604081905262000034916200005f565b600160005560038054600160a060020a031916600160a060020a039290921691909117905562000091565b6000602082840312156200007257600080fd5b8151600160a060020a03811681146200008a57600080fd5b9392505050565b61272180620000a16000396000f3fe608060405234801561001057600080fd5b5060043610610164576000357c0100000000000000000000000000000000000000000000000000000000900480637f24b960116100e55780639b67ca19116100a9578063cd9c91fe11610083578063cd9c91fe14610457578063fe4162d11461046a578063ffc9896b1461047d57600080fd5b80639b67ca1914610335578063a87430ba1461035e578063c45a01551461044457600080fd5b80637f24b9601461026657806383c17c55146102865780638771e93214610299578063951dc22c146102cb57806397f735d5146102f657600080fd5b80634d12b6951161012c5780634d12b695146101e057806353450566146101f357806353941d4e14610206578063791bd0d0146102195780637f1b55651461025357600080fd5b806310d86b1f14610169578063116fd6491461017e5780632455eb831461019157806343e239ba146101a45780634904f6dc146101b7575b600080fd5b61017c610177366004611c72565b61049d565b005b61017c61018c366004611ca3565b61064c565b61017c61019f366004611d10565b6108c3565b61017c6101b2366004611d6b565b610a28565b6101ca6101c5366004611da4565b610bd6565b6040516101d79190611e34565b60405180910390f35b61017c6101ee366004611c72565b610ce3565b61017c610201366004611e50565b610e8c565b61017c610214366004611c72565b6111be565b610245610227366004611c72565b600160a060020a031660009081526001602052604090206008015490565b6040519081526020016101d7565b61017c610261366004611d6b565b6113ab565b610279610274366004611e7e565b6114c2565b6040516101d79190611ec4565b61017c610294366004611c72565b6116bd565b6102ac6102a7366004611c72565b61177a565b60408051931515845291151560208401521515908201526060016101d7565b6003546102de90600160a060020a031681565b604051600160a060020a0390911681526020016101d7565b610325610304366004611c72565b600160a060020a031660009081526001602052604090206004015460ff1690565b60405190151581526020016101d7565b610245610343366004611c72565b600160a060020a031660009081526005602052604090205490565b6103e261036c366004611c72565b600160208181526000928352604092839020805492810154600282015460038301546004840154875160808101895260058601548152600686015496810196909652600785015497860197909752600884015460608601526009840154600a90940154959692959194909360ff90931692909188565b604080519889526020808a0198909852888101969096526060808901959095529215156080880152815160a08801529481015160c08701529283015160e0860152910151610100840152610120830191909152610140820152610160016101d7565b6004546102de90600160a060020a031681565b610245610465366004611f06565b611870565b61017c610478366004611f34565b611934565b61049061048b366004611c72565b611a9c565b6040516101d79190611f7f565b60035460405160008051602061266c8339815191528152336004820152600160a060020a039091169063fd6aad2590602401602060405180830381865afa1580156104ec573d6000803e3d6000fd5b505050506040513d601f19601f820116820180604052508101906105109190612005565b15158061058e575060035460405160008051602061266c8339815191528152326004820152600160a060020a039091169063fd6aad2590602401602060405180830381865afa158015610567573d6000803e3d6000fd5b505050506040513d601f19601f8201168201806040525081019061058b9190612005565b15155b8061061957506003546040517f943ad880000000000000000000000000000000000000000000000000000000008152336004820152600160a060020a039091169063943ad88090602401602060405180830381865afa1580156105f5573d6000803e3d6000fd5b505050506040513d601f19601f82011682018060405250810190610619919061201e565b61062257600080fd5b600160a060020a03166000908152600160208190526040909120600401805460ff19169091179055565b8333600160a060020a0382161480156106d75750600480546040516000805160206126ac8339815191528152600160a060020a0384811693820193909352911690636e4235f690602401602060405180830381865afa1580156106b3573d6000803e3d6000fd5b505050506040513d601f19601f820116820180604052508101906106d7919061201e565b6107195760405160e560020a62461bcd02815260206004820152601260248201526000805160206126cc83398151915260448201526064015b60405180910390fd5b6005600084600160a060020a0316600160a060020a03168152602001908152602001600020604051806060016040528087600160a060020a0316815260200186600181111561076a5761076a611dd0565b815260200184600981111561078157610781611dd0565b9052815460018082018455600093845260209384902083519201805473ffffffffffffffffffffffffffffffffffffffff198116600160a060020a039094169384178255948401519394909392849274ffffffffffffffffffffffffffffffffffffffffff1990921617907401000000000000000000000000000000000000000090849081111561081457610814611dd0565b021790555060408201518154829075ff0000000000000000000000000000000000000000001916750100000000000000000000000000000000000000000083600981111561086457610864611dd0565b02179055505050600160a060020a03831660009081526005602052604090205461089090600190612058565b600160a060020a039586166000908152600660209081526040808320969098168252949094529490922093909355505050565b600480546040516000805160206126ac833981519152815233928101839052600160a060020a0390911690636e4235f690602401602060405180830381865afa158015610914573d6000803e3d6000fd5b505050506040513d601f19601f82011682018060405250810190610938919061201e565b6109755760405160e560020a62461bcd02815260206004820152601260248201526000805160206126cc8339815191526044820152606401610710565b600160a060020a0386166000908152600160205260408120600901805490919061099e9061206b565b90915550600160a060020a0385166000908152600160205260408120600a0180549091906109cb9061206b565b919050819055508385600160a060020a031687600160a060020a03167fbe3d626f9817a9e85c6713af52f2288eb7fcf876f04a7b53afdac926343b20288686604051610a18929190612084565b60405180910390a4505050505050565b8133600160a060020a038216148015610ab35750600480546040516000805160206126ac8339815191528152600160a060020a0384811693820193909352911690636e4235f690602401602060405180830381865afa158015610a8f573d6000803e3d6000fd5b505050506040513d601f19601f82011682018060405250810190610ab3919061201e565b610af05760405160e560020a62461bcd02815260206004820152601260248201526000805160206126cc8339815191526044820152606401610710565b600160a060020a038083166000908152600260209081526040808320938716835292905290812054610b229042612058565b600160a060020a038416600090815260016020526040812060060180549293508392909190610b529084906120a2565b9091555050600160a060020a03831660009081526001602052604081206007018054909190610b809061206b565b90915550600160a060020a03831660009081526001602052604090206007810154600690910154610bb191906120b5565b600160a060020a03909316600090815260016020526040902060080192909255505050565b610bfa60408051606081019091526000808252602082019081526020016000905290565b600160a060020a0383166000908152600560205260409020805483908110610c2457610c246120de565b6000918252602091829020604080516060810190915291018054600160a060020a0381168352919290919083019074010000000000000000000000000000000000000000900460ff166001811115610c7e57610c7e611dd0565b6001811115610c8f57610c8f611dd0565b815281546020909101907501000000000000000000000000000000000000000000900460ff166009811115610cc657610cc6611dd0565b6009811115610cd757610cd7611dd0565b90525090505b92915050565b60035460405160008051602061266c8339815191528152336004820152600160a060020a039091169063fd6aad2590602401602060405180830381865afa158015610d32573d6000803e3d6000fd5b505050506040513d601f19601f82011682018060405250810190610d569190612005565b151580610dd4575060035460405160008051602061266c8339815191528152326004820152600160a060020a039091169063fd6aad2590602401602060405180830381865afa158015610dad573d6000803e3d6000fd5b505050506040513d601f19601f82011682018060405250810190610dd19190612005565b15155b80610e5f57506003546040517f943ad880000000000000000000000000000000000000000000000000000000008152336004820152600160a060020a039091169063943ad88090602401602060405180830381865afa158015610e3b573d6000803e3d6000fd5b505050506040513d601f19601f82011682018060405250810190610e5f919061201e565b610e6857600080fd5b600160a060020a03166000908152600160205260409020600401805460ff19169055565b610e94611b4e565b600480546040517fadea4866000000000000000000000000000000000000000000000000000000008152600160a060020a03858116938201939093526000929091169063adea486690602401600060405180830381865afa158015610efd573d6000803e3d6000fd5b505050506040513d6000823e601f3d908101601f19168201604052610f259190810190612466565b905060068161016001516009811115610f4057610f40611dd0565b1015610f915760405160e560020a62461bcd02815260206004820152600d60248201527f7464652021636f6d706c657465000000000000000000000000000000000000006044820152606401610710565b8060600151600160a060020a031633600160a060020a03161480610fca57508060200151600160a060020a031633600160a060020a0316145b6110195760405160e560020a62461bcd02815260206004820152600e60248201527f2170617274206f662074726164650000000000000000000000000000000000006044820152606401610710565b6060810151600160a060020a031633036110e457600160a060020a038316600090815260076020908152604080832083805290915290205460ff16156110a45760405160e560020a62461bcd02815260206004820152600e60248201527f616c726479207265702061732d620000000000000000000000000000000000006044820152606401610710565b600160a060020a03831660009081526007602090815260408083208380528252909120805460ff191660011790558101516110df9083611baa565b6111af565b6020810151600160a060020a031633036111af57600160a060020a03831660009081526007602090815260408083206001845290915290205460ff16156111705760405160e560020a62461bcd02815260206004820152600e60248201527f616c726479207265702061732d730000000000000000000000000000000000006044820152606401610710565b600160a060020a038316600090815260076020908152604080832060018085529252909120805460ff1916909117905560608101516111af9083611baa565b506111ba6001600055565b5050565b60035460405160008051602061266c8339815191528152336004820152600160a060020a039091169063fd6aad2590602401602060405180830381865afa15801561120d573d6000803e3d6000fd5b505050506040513d601f19601f820116820180604052508101906112319190612005565b1515806112af575060035460405160008051602061266c8339815191528152326004820152600160a060020a039091169063fd6aad2590602401602060405180830381865afa158015611288573d6000803e3d6000fd5b505050506040513d601f19601f820116820180604052508101906112ac9190612005565b15155b8061133a57506003546040517f943ad880000000000000000000000000000000000000000000000000000000008152336004820152600160a060020a039091169063943ad88090602401602060405180830381865afa158015611316573d6000803e3d6000fd5b505050506040513d601f19601f8201168201806040525081019061133a919061201e565b61134357600080fd5b600160a060020a03811660009081526001602081905260408220908101805491926005926113729084906120a2565b90915550506003810180546000906113899061206b565b90915550600381810154106111ba5760048101805460ff191660011790555050565b8133600160a060020a0382161480156114365750600480546040516000805160206126ac8339815191528152600160a060020a0384811693820193909352911690636e4235f690602401602060405180830381865afa158015611412573d6000803e3d6000fd5b505050506040513d601f19601f82011682018060405250810190611436919061201e565b6114735760405160e560020a62461bcd02815260206004820152601260248201526000805160206126cc8339815191526044820152606401610710565b600160a060020a0380831660008181526002602090815260408083209488168352938152838220429055918152600190915290812060050180549091906114b99061206b565b90915550505050565b606060008267ffffffffffffffff8111156114df576114df6120fb565b60405190808252806020026020018201604052801561153457816020015b61152160408051606081019091526000808252602082019081526020016000905290565b8152602001906001900390816114fd5790505b5090506000845b84821080156115615750600160a060020a03881660009081526005602052604090205481105b156116b157600160a060020a0388166000908152600560205260408120805483908110611590576115906120de565b6000918252602091829020604080516060810190915291018054600160a060020a0381168352919290919083019074010000000000000000000000000000000000000000900460ff1660018111156115ea576115ea611dd0565b60018111156115fb576115fb611dd0565b815281546020909101907501000000000000000000000000000000000000000000900460ff16600981111561163257611632611dd0565b600981111561164357611643611dd0565b905250905087600981111561165a5761165a611dd0565b8160400151600981111561167057611670611dd0565b036116a05780848481518110611688576116886120de565b60200260200101819052508261169d9061206b565b92505b6116a98261206b565b91505061153b565b50909695505050505050565b6003546040517f9aa360ec000000000000000000000000000000000000000000000000000000008152336004820152600160a060020a0390911690639aa360ec90602401602060405180830381865afa15801561171e573d6000803e3d6000fd5b505050506040513d601f19601f82011682018060405250810190611742919061201e565b61174b57600080fd5b6004805473ffffffffffffffffffffffffffffffffffffffff1916600160a060020a0392909216919091179055565b600480546040517fadea4866000000000000000000000000000000000000000000000000000000008152600160a060020a03848116938201939093526000928392839283929091169063adea486690602401600060405180830381865afa1580156117e9573d6000803e3d6000fd5b505050506040513d6000823e601f3d908101601f191682016040526118119190810190612466565b90506006816101600151600981111561182c5761182c611dd0565b600160a060020a03969096166000908152600760209081526040808320838052909152808220546001835291205460ff918216989116969190911015945092505050565b60008060005b600160a060020a03851660009081526005602052604090205481101561192c578360098111156118a8576118a8611dd0565b600160a060020a03861660009081526005602052604090208054839081106118d2576118d26120de565b6000918252602090912001547501000000000000000000000000000000000000000000900460ff16600981111561190b5761190b611dd0565b0361191c576119198261206b565b91505b6119258161206b565b9050611876565b509392505050565b8233600160a060020a0382161480156119bf5750600480546040516000805160206126ac8339815191528152600160a060020a0384811693820193909352911690636e4235f690602401602060405180830381865afa15801561199b573d6000803e3d6000fd5b505050506040513d601f19601f820116820180604052508101906119bf919061201e565b6119fc5760405160e560020a62461bcd02815260206004820152601260248201526000805160206126cc8339815191526044820152606401610710565b600160a060020a0380851660009081526006602090815260408083209387168352928152828220546005909152919020805484919083908110611a4157611a416120de565b6000918252602090912001805475ff00000000000000000000000000000000000000000019167501000000000000000000000000000000000000000000836009811115611a9057611a90611dd0565b02179055505050505050565b611aa4611bea565b50600160a060020a03166000908152600160208181526040928390208351610100810185528154815292810154838301526002810154838501526003810154606080850191909152600482015460ff161515608080860191909152855190810186526005830154815260068301549381019390935260078201549483019490945260088101549382019390935260a0820152600982015460c0820152600a9091015460e082015290565b600260005403611ba35760405160e560020a62461bcd02815260206004820152601f60248201527f5265656e7472616e637947756172643a207265656e7472616e742063616c6c006044820152606401610710565b6002600055565b600160a060020a03821660009081526001602052604090208115611bd95780600001600081546114b99061206b565b80600101600081546114b99061206b565b60405180610100016040528060008152602001600081526020016000815260200160008152602001600015158152602001611c466040518060800160405280600081526020016000815260200160008152602001600081525090565b815260200160008152602001600081525090565b600160a060020a0381168114611c6f57600080fd5b50565b600060208284031215611c8457600080fd5b8135611c8f81611c5a565b9392505050565b600a8110611c6f57600080fd5b60008060008060808587031215611cb957600080fd5b8435611cc481611c5a565b9350602085013560028110611cd857600080fd5b92506040850135611ce881611c5a565b91506060850135611cf881611c96565b939692955090935050565b60038110611c6f57600080fd5b600080600080600060a08688031215611d2857600080fd5b8535611d3381611c5a565b94506020860135611d4381611c5a565b9350604086013592506060860135611d5a81611d03565b949793965091946080013592915050565b60008060408385031215611d7e57600080fd5b8235611d8981611c5a565b91506020830135611d9981611c5a565b809150509250929050565b60008060408385031215611db757600080fd5b8235611dc281611c5a565b946020939093013593505050565b60008051602061268c833981519152600052602160045260246000fd5b600160a060020a038151168252602081015160028110611e0f57611e0f611dd0565b60208301526040810151600a8110611e2957611e29611dd0565b806040840152505050565b60608101610cdd8284611ded565b8015158114611c6f57600080fd5b60008060408385031215611e6357600080fd5b8235611e6e81611c5a565b91506020830135611d9981611e42565b60008060008060808587031215611e9457600080fd5b8435611e9f81611c5a565b93506020850135611eaf81611c96565b93969395505050506040820135916060013590565b6020808252825182820181905260009190848201906040850190845b818110156116b157611ef3838551611ded565b9284019260609290920191600101611ee0565b60008060408385031215611f1957600080fd5b8235611f2481611c5a565b91506020830135611d9981611c96565b600080600060608486031215611f4957600080fd5b8335611f5481611c5a565b92506020840135611f6481611c5a565b91506040840135611f7481611c96565b809150509250925092565b6000610160820190508251825260208301516020830152604083015160408301526060830151606083015260808301511515608083015260a0830151611fe960a0840182805182526020810151602083015260408101516040830152606081015160608301525050565b5060c083015161012083015260e0909201516101409091015290565b60006020828403121561201757600080fd5b5051919050565b60006020828403121561203057600080fd5b8151611c8f81611e42565b60008051602061268c833981519152600052601160045260246000fd5b81810381811115610cdd57610cdd61203b565b60006001820161207d5761207d61203b565b5060010190565b604081016003841061209857612098611dd0565b9281526020015290565b80820180821115610cdd57610cdd61203b565b6000826120d95760008051602061268c833981519152600052601260045260246000fd5b500490565b60008051602061268c833981519152600052603260045260246000fd5b60008051602061268c833981519152600052604160045260246000fd5b6040516080810167ffffffffffffffff8111828210171561213b5761213b6120fb565b60405290565b604051610200810167ffffffffffffffff8111828210171561213b5761213b6120fb565b604051601f8201601f1916810167ffffffffffffffff8111828210171561218e5761218e6120fb565b604052919050565b80516121a181611c5a565b919050565b600082601f8301126121b757600080fd5b815167ffffffffffffffff8111156121d1576121d16120fb565b60206121e5601f8301601f19168201612165565b82815285828487010111156121f957600080fd5b60005b838110156122175785810183015182820184015282016121fc565b506000928101909101919091529392505050565b60006040828403121561223d57600080fd5b6040516040810167ffffffffffffffff8282108183111715612261576122616120fb565b8160405282935084518352602085015191508082111561228057600080fd5b5061228d858286016121a6565b6020830152505092915050565b6000606082840312156122ac57600080fd5b6040516060810167ffffffffffffffff82821081831117156122d0576122d06120fb565b8160405282935084519150808211156122e857600080fd5b506122f5858286016121a6565b82525060208301516020820152604083015160408201525092915050565b80516121a181611c96565b600082601f83011261232f57600080fd5b8151602067ffffffffffffffff8083111561234c5761234c6120fb565b81830261235a838201612165565b938452858101830193838101908886111561237457600080fd5b84880192505b8583101561244f578251848111156123925760008081fd5b88016080818b03601f19018113156123aa5760008081fd5b6123b2612118565b87830151878111156123c45760008081fd5b6123d28d8a838701016121a6565b825250604080840151888111156123e95760008081fd5b6123f78e8b838801016121a6565b8a8401525060608085015160ff811681146124125760008081fd5b8383015292840151928884111561242b57600091508182fd5b6124398e8b868801016121a6565b908301525084525050918401919084019061237a565b98975050505050505050565b80516121a181611d03565b60006020828403121561247857600080fd5b815167ffffffffffffffff8082111561249057600080fd5b9083019061020082860312156124a557600080fd5b6124ad612141565b6124b683612196565b81526124c460208401612196565b60208201526040830151828111156124db57600080fd5b6124e78782860161222b565b6040830152506124f960608401612196565b606082015260808301518281111561251057600080fd5b61251c8782860161222b565b60808301525060a08301518281111561253457600080fd5b612540878286016121a6565b60a08301525060c08301518281111561255857600080fd5b612564878286016121a6565b60c08301525060e08301518281111561257c57600080fd5b612588878286016121a6565b60e0830152506101008381015190820152610120808401519082015261014080840151838111156125b857600080fd5b6125c48882870161229a565b8284015250506101606125d8818501612313565b9082015261018083810151838111156125f057600080fd5b6125fc8882870161231e565b8284015250506101a0808401518381111561261657600080fd5b612622888287016121a6565b8284015250506101c061263681850161245b565b908201526101e0838101518381111561264e57600080fd5b61265a888287016121a6565b91830191909152509594505050505056fefd6aad25000000000000000000000000000000000000000000000000000000004e487b71000000000000000000000000000000000000000000000000000000006e4235f6000000000000000000000000000000000000000000000000000000006e6f7420747261646520636f6e74726163740000000000000000000000000000a26469706673582212209eaf375a288bfcd885028f0b15436f39c04a468470fb07cfa5975e78540261e764736f6c63430008130033",
  "immutableReferences": {},
  "source": "//SPDX-License-Identifier: UNLICENSED\r\npragma solidity 0.8.19;\r\n\r\nimport \"../Keepers/IKeepers.sol\";\r\nimport \"../TradeFactory/ITradeFactory.sol\";\r\nimport {ReentrancyGuard} from \"@openzeppelin/contracts/security/ReentrancyGuard.sol\";\r\n\r\ncontract Users is ReentrancyGuard {\r\n    struct User {\r\n        uint256 reputationPos;\r\n        uint256 reputationNeg;\r\n        uint256 totalTrades;\r\n        uint256 warnings;\r\n        bool isBanned;\r\n        DeliveryTimes deliveryInfo;\r\n        uint256 totalTradesAsSeller; // NEW\r\n        uint256 totalTradesAsBuyer; // NEW\r\n    }\r\n\r\n    event NewTrade(\r\n        address indexed seller,\r\n        address indexed buyer,\r\n        bytes32 indexed refCode,\r\n        PriceType priceType,\r\n        uint256 value\r\n    );\r\n\r\n    function emitNewTrade(\r\n        address seller,\r\n        address buyer,\r\n        bytes32 refCode,\r\n        PriceType priceType,\r\n        uint256 value\r\n    ) external onlyTradeContracts(msg.sender) {\r\n        ++users[seller].totalTradesAsSeller;\r\n        ++users[buyer].totalTradesAsBuyer;\r\n        emit NewTrade(seller, buyer, refCode, priceType, value);\r\n    }\r\n\r\n    struct DeliveryTimes {\r\n        uint256 totalStarts;\r\n        uint256 totalDeliveryTime;\r\n        uint256 numberOfDeliveries;\r\n        uint256 averageDeliveryTime;\r\n    }\r\n\r\n    mapping(address => User) public users;\r\n    mapping(address => mapping(address => uint256)) UserToContractDeliveryStartTime;\r\n\r\n    IKeepers public keepers;\r\n    ITradeFactory public factory;\r\n\r\n    constructor(address _keepers) {\r\n        keepers = IKeepers(_keepers);\r\n    }\r\n\r\n    function setFactoryAddress(address _factoryAddress) external {\r\n        require(keepers.isCouncil(msg.sender));\r\n        factory = ITradeFactory(_factoryAddress);\r\n    }\r\n\r\n    modifier onlyFactory() {\r\n        require(msg.sender == address(factory));\r\n        _;\r\n    }\r\n\r\n    modifier onlyTradeContracts(address contractAddress) {\r\n        require(\r\n            msg.sender == contractAddress &&\r\n                factory.isThisTradeContract(contractAddress),\r\n            \"not trade contract\"\r\n        );\r\n        _;\r\n    }\r\n\r\n    modifier onlyKeepers() {\r\n        require(\r\n            keepers.indexOf(msg.sender) != 0 ||\r\n                keepers.indexOf(tx.origin) != 0 ||\r\n                keepers.isKeeperNode(msg.sender)\r\n        );\r\n        _;\r\n    }\r\n\r\n    function warnUser(address _user) public onlyKeepers {\r\n        User storage user = users[_user];\r\n        user.reputationNeg += 5;\r\n        ++user.warnings;\r\n        if (user.warnings >= 3) {\r\n            user.isBanned = true;\r\n        }\r\n    }\r\n\r\n    function banUser(address _user) public onlyKeepers {\r\n        User storage user = users[_user];\r\n        user.isBanned = true;\r\n    }\r\n\r\n    function unbanUser(address _user) public onlyKeepers {\r\n        User storage user = users[_user];\r\n        user.isBanned = false;\r\n    }\r\n\r\n    function getUserData(address user) external view returns (User memory) {\r\n        return users[user];\r\n    }\r\n\r\n    function isBanned(address _user) external view returns (bool) {\r\n        return users[_user].isBanned;\r\n    }\r\n\r\n    function _repAfterTrade(address _user, bool isPositive) private {\r\n        User storage user = users[_user];\r\n        if (isPositive) {\r\n            ++user.reputationPos;\r\n        } else {\r\n            ++user.reputationNeg;\r\n        }\r\n    }\r\n\r\n    function startDeliveryTimer(\r\n        address contractAddress,\r\n        address user\r\n    ) external onlyTradeContracts(contractAddress) {\r\n        UserToContractDeliveryStartTime[user][contractAddress] = block\r\n            .timestamp;\r\n        ++users[user].deliveryInfo.totalStarts;\r\n    }\r\n\r\n    function endDeliveryTimer(\r\n        address contractAddress,\r\n        address user\r\n    ) external onlyTradeContracts(contractAddress) {\r\n        uint256 deliveryTime = block.timestamp -\r\n            UserToContractDeliveryStartTime[user][contractAddress];\r\n        users[user].deliveryInfo.totalDeliveryTime += deliveryTime;\r\n        ++users[user].deliveryInfo.numberOfDeliveries;\r\n        users[user].deliveryInfo.averageDeliveryTime =\r\n            users[user].deliveryInfo.totalDeliveryTime /\r\n            users[user].deliveryInfo.numberOfDeliveries;\r\n    }\r\n\r\n    function getAverageDeliveryTime(\r\n        address user\r\n    ) external view returns (uint256) {\r\n        return users[user].deliveryInfo.averageDeliveryTime;\r\n    }\r\n \r\n\r\n    //User to Trades\r\n    mapping(address => UserInteraction[]) userTrades;\r\n    mapping(address => mapping(address => uint256)) tradeAddrsToUserAddrsInteractionIndex;\r\n\r\n    function addUserInteractionStatus(\r\n        address tradeAddress,\r\n        Role role,\r\n        address userAddress,\r\n        TradeStatus status\r\n    ) external onlyTradeContracts(tradeAddress) {\r\n        userTrades[userAddress].push(\r\n            UserInteraction(tradeAddress, role, status)\r\n        );\r\n        tradeAddrsToUserAddrsInteractionIndex[tradeAddress][userAddress] =\r\n            userTrades[userAddress].length -\r\n            1;\r\n    }\r\n\r\n    function changeUserInteractionStatus(\r\n        address tradeAddress,\r\n        address userAddress,\r\n        TradeStatus status\r\n    ) external onlyTradeContracts(tradeAddress) {\r\n        uint256 iIndex = tradeAddrsToUserAddrsInteractionIndex[tradeAddress][\r\n            userAddress\r\n        ];\r\n        userTrades[userAddress][iIndex].status = status;\r\n    }\r\n\r\n    function getUserTotalTradeUIs(\r\n        address userAddrss\r\n    ) external view returns (uint256) {\r\n        return userTrades[userAddrss].length;\r\n    }\r\n\r\n    function getUserTradeUIByIndex(\r\n        address userAddrss,\r\n        uint256 i\r\n    ) external view returns (UserInteraction memory) {\r\n        return userTrades[userAddrss][i];\r\n    }\r\n\r\n    function getUserTradeCountByStatus(\r\n        address userAddress,\r\n        TradeStatus status\r\n    ) external view returns (uint256) {\r\n        uint256 count;\r\n        for (uint256 i = 0; i < userTrades[userAddress].length; ++i) {\r\n            if (userTrades[userAddress][i].status == status) {\r\n                ++count;\r\n            }\r\n        }\r\n        return count;\r\n    }\r\n\r\n    function getUserTradeUIsByStatus(\r\n        address userAddress,\r\n        TradeStatus status,\r\n        uint256 indexFrom,\r\n        uint256 maxResults\r\n    ) external view returns (UserInteraction[] memory) {\r\n        UserInteraction[] memory tradeUIs = new UserInteraction[](maxResults);\r\n        uint256 resultIndex;\r\n        uint256 i = indexFrom;\r\n        while (resultIndex < maxResults && i < userTrades[userAddress].length) {\r\n            UserInteraction memory ui = userTrades[userAddress][i];\r\n\r\n            if (ui.status == status) {\r\n                tradeUIs[resultIndex] = ui;\r\n                ++resultIndex;\r\n            }\r\n\r\n            ++i;\r\n        }\r\n        return tradeUIs;\r\n    }\r\n\r\n    mapping(address => mapping(Role => bool)) tradeAdrsToRoleToHasRep;\r\n\r\n    function repAfterTrade(\r\n        address tradeAddrs,\r\n        bool isPositive\r\n    ) external nonReentrant {\r\n        TradeInfo memory _tradeContract = factory.getTradeDetailsByAddress(\r\n            tradeAddrs\r\n        );\r\n\r\n        require(\r\n            _tradeContract.status >= TradeStatus.Completed,\r\n            \"tde !complete\"\r\n        );\r\n\r\n        require(\r\n            msg.sender == _tradeContract.buyer ||\r\n                msg.sender == _tradeContract.seller,\r\n            \"!part of trade\"\r\n        );\r\n\r\n        if (msg.sender == _tradeContract.buyer) {\r\n            require(\r\n                tradeAdrsToRoleToHasRep[tradeAddrs][Role.BUYER] == false,\r\n                \"alrdy rep as-b\"\r\n            );\r\n            tradeAdrsToRoleToHasRep[tradeAddrs][Role.BUYER] = true;\r\n            _repAfterTrade(_tradeContract.seller, isPositive);\r\n        } else if (msg.sender == _tradeContract.seller) {\r\n            require(\r\n                tradeAdrsToRoleToHasRep[tradeAddrs][Role.SELLER] == false,\r\n                \"alrdy rep as-s\"\r\n            );\r\n            tradeAdrsToRoleToHasRep[tradeAddrs][Role.SELLER] = true;\r\n            _repAfterTrade(_tradeContract.buyer, isPositive);\r\n        }\r\n    }\r\n\r\n    function hasMadeRepOnTrade(\r\n        address tradeAddrs\r\n    ) external view returns (bool hasBuyer, bool hasSeller, bool isTime) {\r\n        TradeInfo memory _tradeContract = factory.getTradeDetailsByAddress(\r\n            tradeAddrs\r\n        );\r\n\r\n        isTime = (_tradeContract.status >= TradeStatus.Completed);\r\n\r\n        hasBuyer = tradeAdrsToRoleToHasRep[tradeAddrs][Role.BUYER];\r\n\r\n        hasSeller = tradeAdrsToRoleToHasRep[tradeAddrs][Role.SELLER];\r\n    }\r\n}\r\n",
  "sourcePath": "C:\\Users\\Charl\\Documents\\Projects\\SteamMarket\\CSX\\csx-contracts\\contracts\\Users\\Users.sol",
  "compiler": {
    "name": "solc",
    "version": "0.8.19+commit.7dd6d404.Emscripten.clang"
  },
  "schemaVersion": "3.4.3",
  "updatedAt": "2023-07-24T07:07:37.287Z",
  "devdoc": {
    "kind": "dev",
    "methods": {},
    "version": 1
  },
  "userdoc": {
    "kind": "user",
    "methods": {},
    "version": 1
  }
}