{
  "contractName": "UserProfileLevel",
  "abi": [
    {
      "inputs": [
        {
          "internalType": "address",
          "name": "_tokenAddress",
          "type": "address"
        }
      ],
      "stateMutability": "nonpayable",
      "type": "constructor"
    },
    {
      "anonymous": false,
      "inputs": [
        {
          "indexed": true,
          "internalType": "address",
          "name": "userAddress",
          "type": "address"
        },
        {
          "indexed": false,
          "internalType": "uint256",
          "name": "newLevel",
          "type": "uint256"
        },
        {
          "indexed": false,
          "internalType": "uint256",
          "name": "numberOfLevelsIncreased",
          "type": "uint256"
        }
      ],
      "name": "ProfileLeveledUp",
      "type": "event"
    },
    {
      "inputs": [
        {
          "internalType": "address",
          "name": "",
          "type": "address"
        }
      ],
      "name": "users",
      "outputs": [
        {
          "internalType": "uint256",
          "name": "level",
          "type": "uint256"
        }
      ],
      "stateMutability": "view",
      "type": "function"
    },
    {
      "inputs": [
        {
          "internalType": "uint256",
          "name": "_tokenAmount",
          "type": "uint256"
        },
        {
          "internalType": "uint256",
          "name": "_levels",
          "type": "uint256"
        }
      ],
      "name": "levelUp",
      "outputs": [],
      "stateMutability": "nonpayable",
      "type": "function"
    },
    {
      "inputs": [
        {
          "internalType": "uint256",
          "name": "currentLevel",
          "type": "uint256"
        },
        {
          "internalType": "uint256",
          "name": "levels",
          "type": "uint256"
        }
      ],
      "name": "getLevelUpCost",
      "outputs": [
        {
          "internalType": "uint256",
          "name": "",
          "type": "uint256"
        }
      ],
      "stateMutability": "pure",
      "type": "function"
    },
    {
      "inputs": [
        {
          "internalType": "address",
          "name": "userAddress",
          "type": "address"
        }
      ],
      "name": "getUserLevel",
      "outputs": [
        {
          "internalType": "uint256",
          "name": "",
          "type": "uint256"
        }
      ],
      "stateMutability": "view",
      "type": "function"
    },
    {
      "inputs": [
        {
          "internalType": "address",
          "name": "userAddress",
          "type": "address"
        },
        {
          "internalType": "uint256",
          "name": "levels",
          "type": "uint256"
        }
      ],
      "name": "getCostForNextLevels",
      "outputs": [
        {
          "internalType": "uint256",
          "name": "",
          "type": "uint256"
        }
      ],
      "stateMutability": "view",
      "type": "function"
    },
    {
      "inputs": [
        {
          "internalType": "address",
          "name": "userAddress",
          "type": "address"
        }
      ],
      "name": "getUserData",
      "outputs": [
        {
          "internalType": "uint256",
          "name": "",
          "type": "uint256"
        },
        {
          "internalType": "uint256",
          "name": "",
          "type": "uint256"
        },
        {
          "internalType": "uint256",
          "name": "",
          "type": "uint256"
        },
        {
          "internalType": "uint256",
          "name": "",
          "type": "uint256"
        }
      ],
      "stateMutability": "view",
      "type": "function"
    },
    {
      "inputs": [
        {
          "internalType": "address",
          "name": "newAddress",
          "type": "address"
        }
      ],
      "name": "transferProfile",
      "outputs": [],
      "stateMutability": "nonpayable",
      "type": "function"
    }
  ],
  "bytecode": "0x608060405234801561001057600080fd5b5060405161091338038061091383398101604081905261002f91610054565b60008054600160a060020a031916600160a060020a0392909216919091179055610084565b60006020828403121561006657600080fd5b8151600160a060020a038116811461007d57600080fd5b9392505050565b610880806100936000396000f3fe608060405234801561001057600080fd5b506004361061009a576000357c0100000000000000000000000000000000000000000000000000000000900480635226dc93116100785780635226dc9314610110578063a1e3b16b14610123578063a87430ba14610136578063ffc9896b1461015657600080fd5b80631d1cc4a01461009f57806321923bde146100c557806325a219f4146100fb575b600080fd5b6100b26100ad366004610721565b610189565b6040519081526020015b60405180910390f35b6100b26100d336600461076c565b73ffffffffffffffffffffffffffffffffffffffff1660009081526001602052604090205490565b61010e61010936600461076c565b6101f3565b005b61010e61011e366004610721565b61047d565b6100b261013136600461078e565b61067f565b6100b261014436600461076c565b60016020526000908152604090205481565b61016961016436600461076c565b6106b7565b6040805194855260208501939093529183015260608201526080016100bc565b600080805b838110156101e9576000670de0b6b3a76400006101ab83886107e7565b6101b591906107fa565b6101c790670de0b6b3a76400006107e7565b90506101d381846107e7565b92505080806101e190610811565b91505061018e565b5090505b92915050565b73ffffffffffffffffffffffffffffffffffffffff8116600090815260016020526040902054156102995760405160008051602061082b833981519152815260206004820152602660248201527f546865206e65772061646472657373206d7573742068617665207a65726f206c60448201527f6576656c732e000000000000000000000000000000000000000000000000000060648201526084015b60405180910390fd5b73ffffffffffffffffffffffffffffffffffffffff811661032a5760405160008051602061082b833981519152815260206004820152602b60248201527f546865206e657720616464726573732063616e6e6f7420626520746865207a6560448201527f726f20616464726573732e0000000000000000000000000000000000000000006064820152608401610290565b3373ffffffffffffffffffffffffffffffffffffffff8216036103bd5760405160008051602061082b833981519152815260206004820152603b60248201527f546865206e657720616464726573732063616e6e6f742062652074686520736160448201527f6d65206173207468652073656e646572277320616464726573732e00000000006064820152608401610290565b336000908152600160205260409020546104475760405160008051602061082b833981519152815260206004820152602860248201527f5468652073656e646572206d7573742068617665206174206c65617374206f6e60448201527f65206c6576656c2e0000000000000000000000000000000000000000000000006064820152608401610290565b3360009081526001602052604080822080549083905573ffffffffffffffffffffffffffffffffffffffff939093168252902055565b600081116104fb5760405160008051602061082b833981519152815260206004820152602860248201527f4e756d626572206f66206c6576656c73206d757374206265206772656174657260448201527f207468616e20302e0000000000000000000000000000000000000000000000006064820152608401610290565b33600090815260016020526040812080549091906105199084610189565b9050808410156105995760405160008051602061082b833981519152815260206004820152602360248201527f4e6f7420656e6f75676820746f6b656e732073656e7420746f206c6576656c2060448201527f75702e00000000000000000000000000000000000000000000000000000000006064820152608401610290565b6000546040517f79cc67900000000000000000000000000000000000000000000000000000000081523360048201526024810186905273ffffffffffffffffffffffffffffffffffffffff909116906379cc679090604401600060405180830381600087803b15801561060b57600080fd5b505af115801561061f573d6000803e3d6000fd5b505050508282600001600082825461063791906107e7565b90915550508154604080519182526020820185905233917f33d57b58e978b50027f3afde3cd938ac44d304a480ecd848906673977ccbecbb910160405180910390a250505050565b73ffffffffffffffffffffffffffffffffffffffff82166000908152600160205260408120546106af8184610189565b949350505050565b73ffffffffffffffffffffffffffffffffffffffff8116600090815260016020819052604082205482918291829182906106f2908390610189565b90506000610701836005610189565b9050600061071084600a610189565b939992985090965091945092505050565b6000806040838503121561073457600080fd5b50508035926020909101359150565b803573ffffffffffffffffffffffffffffffffffffffff8116811461076757600080fd5b919050565b60006020828403121561077e57600080fd5b61078782610743565b9392505050565b600080604083850312156107a157600080fd5b6107aa83610743565b946020939093013593505050565b7f4e487b7100000000000000000000000000000000000000000000000000000000600052601160045260246000fd5b808201808211156101ed576101ed6107b8565b80820281158282048414176101ed576101ed6107b8565b600060018201610823576108236107b8565b506001019056fe08c379a000000000000000000000000000000000000000000000000000000000a264697066735822122054949aa300e05569a7ad29144254b229b37561946fcd71e5262520f974a2bd6364736f6c63430008130033",
  "immutableReferences": {},
  "source": "// SPDX-License-Identifier: MIT\r\n// CSX UserProfileLevel Contract v1\r\n\r\npragma solidity ^0.8.0;\r\n\r\nimport {IERC20} from \"@openzeppelin/contracts/token/ERC20/IERC20.sol\";\r\nimport {IERC20Burnable} from \"../CSX/Interfaces.sol\";\r\n\r\ncontract UserProfileLevel {\r\n    // Event to be emitted when a user levels up their profile\r\n    event ProfileLeveledUp(address indexed userAddress, uint256 newLevel, uint256 numberOfLevelsIncreased);\r\n\r\n\r\n    // Set the base cost for leveling up (1 token)\r\n    uint256 private constant BASE_COST = 1 * 10 ** 18; // Assuming the token has 18 decimals\r\n\r\n    // Address of the specific ERC20 token\r\n    IERC20Burnable private csxToken;\r\n\r\n    // User struct to store user profile data\r\n    struct User {\r\n        uint256 level;\r\n    }\r\n\r\n    // Mapping to store user profiles by their address\r\n    mapping(address => User) public users;\r\n\r\n    constructor(address _tokenAddress) {\r\n        csxToken = IERC20Burnable(_tokenAddress);\r\n    }\r\n\r\n    /**\r\n     * @dev Function to level up the user's profile multiple levels at once.\r\n     * Users can send tokens to this function to level up their profile.\r\n     * The cost to level up increases with the user's level.\r\n     * Tokens used for leveling up will be burned.\r\n     *\r\n     * @param _tokenAmount The amount of tokens to be used for leveling up\r\n     * @param _levels The number of levels to level up\r\n     */\r\n    function levelUp(uint256 _tokenAmount, uint256 _levels) public {\r\n        require(_levels > 0, \"Number of levels must be greater than 0.\");\r\n\r\n        User storage user = users[msg.sender];\r\n        uint256 totalCost = getLevelUpCost(user.level, _levels);\r\n\r\n        require(_tokenAmount >= totalCost, \"Not enough tokens sent to level up.\");\r\n\r\n        // Burn the _tokenAmount\r\n        csxToken.burnFrom(msg.sender, _tokenAmount);\r\n\r\n        // Update the user's level\r\n        user.level += _levels;\r\n\r\n        // Emit ProfileLeveledUp event\r\n        emit ProfileLeveledUp(msg.sender, user.level, _levels);\r\n    }\r\n\r\n    /**\r\n    * @dev Get the token cost to level up from the current level to the next level.\r\n    * The cost increases linearly with the user's level.\r\n    *\r\n    * @param currentLevel The current user level\r\n    * @param levels The number of levels to level up\r\n    * @return totalCost The total token cost to level up the specified number of levels\r\n    *\r\n    * Total cost =  (level * BASE_COST), for each level from 1 to n.\r\n    *\r\n    * Total costs to level up in each range:\r\n    *      0-10: 55 CSX tokens\r\n    *      0-20: 210 CSX tokens\r\n    *      0-30: 465 CSX tokens\r\n    *      0-40: 820 CSX tokens\r\n    *      0-50: 1,275 CSX tokens\r\n    *      0-60: 1,830 CSX tokens\r\n    *      0-70: 2,485 CSX tokens\r\n    *      0-80: 3,240 CSX tokens\r\n    *      0-90: 4,095 CSX tokens\r\n    *      0-100: 5,050 CSX tokens\r\n    *      0-200: 20,100 CSX tokens\r\n    *      0-300: 45,150 CSX tokens\r\n    *      0-400: 80,200 CSX tokens\r\n    *      0-500: 125,250 CSX tokens\r\n    *      0-700: 245,350 CSX tokens\r\n    *      0-800: 320,400 CSX tokens\r\n    *      0-900: 405,450 CSX tokens\r\n    *      0-1000: 500,500 CSX tokens\r\n    *      0-2000: 2,001,000 CSX tokens\r\n    */\r\n    function getLevelUpCost(uint256 currentLevel, uint256 levels) public pure returns (uint256) {\r\n        uint256 totalCost = 0;\r\n\r\n        for (uint256 i = 0; i < levels; i++) {\r\n            uint256 cost = BASE_COST + ((currentLevel + i) * BASE_COST);\r\n            totalCost += cost;\r\n        }\r\n\r\n        return totalCost;\r\n    }\r\n\r\n    /**\r\n     * @dev Function to view the user's level.\r\n     * @param userAddress The address of the user whose level is being requested\r\n     * @return level The user's level\r\n     */\r\n    function getUserLevel(address userAddress) public view returns (uint256) {\r\n        return users[userAddress].level;\r\n    }\r\n\r\n    /**\r\n     * @dev Function to view the cost to level up the user's profile for the specified number of levels.\r\n     * @param userAddress The address of the user whose next levels cost is being requested\r\n     * @param levels The number of levels to check the cost for\r\n     * @return totalTokenCostToLevelUp The total token cost to level up the specified number of levels\r\n     */\r\n    function getCostForNextLevels(address userAddress, uint256 levels) public view returns (uint256) {\r\n        uint256 currentLevel = users[userAddress].level;\r\n        return getLevelUpCost(currentLevel, levels);\r\n    }\r\n\r\n    /**\r\n     * @dev Function to get the user's level and the cost to level up for the next 1, 5, and 10 levels.\r\n     * @param userAddress The address of the user whose data is being requested\r\n     * @return userData A tuple containing the user's level, cost for the next level, cost for the next 5 levels, and cost for the next 10 levels\r\n     */\r\n    function getUserData(address userAddress) public view returns (uint256, uint256, uint256, uint256) {\r\n        uint256 currentLevel = users[userAddress].level;\r\n\r\n        uint256 costForNextLevel = getLevelUpCost(currentLevel, 1);\r\n        uint256 costForNext5Levels = getLevelUpCost(currentLevel, 5);\r\n        uint256 costForNext10Levels = getLevelUpCost(currentLevel, 10);\r\n\r\n        return (currentLevel, costForNextLevel, costForNext5Levels, costForNext10Levels);\r\n    }\r\n\r\n    /**\r\n     * @dev Function to transfer the user's profile to a new address.\r\n     * The new address must have zero levels.\r\n     *\r\n     * @param newAddress The address to which the profile should be transferred\r\n     */\r\n     // TODO: Add so its not transferable if you're banned!\r\n    function transferProfile(address newAddress) public {\r\n        require(users[newAddress].level == 0, \"The new address must have zero levels.\");\r\n        require(newAddress != address(0), \"The new address cannot be the zero address.\");\r\n        require(newAddress != msg.sender, \"The new address cannot be the same as the sender's address.\");\r\n        require(users[msg.sender].level > 0, \"The sender must have at least one level.\");\r\n\r\n        User storage currentUser = users[msg.sender];\r\n        uint256 currentLevel = currentUser.level;\r\n\r\n        // Reset the sender's profile level\r\n        currentUser.level = 0;\r\n\r\n        User storage newUser = users[newAddress];\r\n        newUser.level = currentLevel;        \r\n    }\r\n}\r\n",
  "sourcePath": "C:\\Users\\Charl\\Documents\\Projects\\SteamMarket\\CSX\\csx-contracts\\contracts\\Users\\UserProfileLevel.sol",
  "compiler": {
    "name": "solc",
    "version": "0.8.19+commit.7dd6d404.Emscripten.clang"
  },
  "schemaVersion": "3.4.3",
  "updatedAt": "2023-08-22T17:36:56.517Z",
  "devdoc": {
    "kind": "dev",
    "methods": {
      "getCostForNextLevels(address,uint256)": {
        "details": "Function to view the cost to level up the user's profile for the specified number of levels.",
        "params": {
          "levels": "The number of levels to check the cost for",
          "userAddress": "The address of the user whose next levels cost is being requested"
        },
        "returns": {
          "_0": "totalTokenCostToLevelUp The total token cost to level up the specified number of levels"
        }
      },
      "getLevelUpCost(uint256,uint256)": {
        "details": "Get the token cost to level up from the current level to the next level. The cost increases linearly with the user's level.",
        "params": {
          "currentLevel": "The current user level",
          "levels": "The number of levels to level up"
        },
        "returns": {
          "_0": "totalCost The total token cost to level up the specified number of levels Total cost =  (level * BASE_COST), for each level from 1 to n. Total costs to level up in each range:      0-10: 55 CSX tokens      0-20: 210 CSX tokens      0-30: 465 CSX tokens      0-40: 820 CSX tokens      0-50: 1,275 CSX tokens      0-60: 1,830 CSX tokens      0-70: 2,485 CSX tokens      0-80: 3,240 CSX tokens      0-90: 4,095 CSX tokens      0-100: 5,050 CSX tokens      0-200: 20,100 CSX tokens      0-300: 45,150 CSX tokens      0-400: 80,200 CSX tokens      0-500: 125,250 CSX tokens      0-700: 245,350 CSX tokens      0-800: 320,400 CSX tokens      0-900: 405,450 CSX tokens      0-1000: 500,500 CSX tokens      0-2000: 2,001,000 CSX tokens"
        }
      },
      "getUserData(address)": {
        "details": "Function to get the user's level and the cost to level up for the next 1, 5, and 10 levels.",
        "params": {
          "userAddress": "The address of the user whose data is being requested"
        },
        "returns": {
          "_0": "userData A tuple containing the user's level, cost for the next level, cost for the next 5 levels, and cost for the next 10 levels"
        }
      },
      "getUserLevel(address)": {
        "details": "Function to view the user's level.",
        "params": {
          "userAddress": "The address of the user whose level is being requested"
        },
        "returns": {
          "_0": "level The user's level"
        }
      },
      "levelUp(uint256,uint256)": {
        "details": "Function to level up the user's profile multiple levels at once. Users can send tokens to this function to level up their profile. The cost to level up increases with the user's level. Tokens used for leveling up will be burned.",
        "params": {
          "_levels": "The number of levels to level up",
          "_tokenAmount": "The amount of tokens to be used for leveling up"
        }
      },
      "transferProfile(address)": {
        "details": "Function to transfer the user's profile to a new address. The new address must have zero levels.",
        "params": {
          "newAddress": "The address to which the profile should be transferred"
        }
      }
    },
    "version": 1
  },
  "userdoc": {
    "kind": "user",
    "methods": {},
    "version": 1
  }
}