{
  "contractName": "Users",
  "abi": [
    {
      "inputs": [
        {
          "internalType": "address",
          "name": "_keepers",
          "type": "address"
        }
      ],
      "stateMutability": "nonpayable",
      "type": "constructor"
    },
    {
      "inputs": [],
      "name": "factory",
      "outputs": [
        {
          "internalType": "contract ITradeFactory",
          "name": "",
          "type": "address"
        }
      ],
      "stateMutability": "view",
      "type": "function",
      "constant": true
    },
    {
      "inputs": [],
      "name": "keepers",
      "outputs": [
        {
          "internalType": "contract IKeepers",
          "name": "",
          "type": "address"
        }
      ],
      "stateMutability": "view",
      "type": "function",
      "constant": true
    },
    {
      "inputs": [
        {
          "internalType": "address",
          "name": "",
          "type": "address"
        }
      ],
      "name": "users",
      "outputs": [
        {
          "internalType": "uint256",
          "name": "reputationPos",
          "type": "uint256"
        },
        {
          "internalType": "uint256",
          "name": "reputationNeg",
          "type": "uint256"
        },
        {
          "internalType": "uint256",
          "name": "totalTrades",
          "type": "uint256"
        },
        {
          "internalType": "uint256",
          "name": "warnings",
          "type": "uint256"
        },
        {
          "internalType": "bool",
          "name": "isBanned",
          "type": "bool"
        },
        {
          "components": [
            {
              "internalType": "uint256",
              "name": "totalDeliveryTime",
              "type": "uint256"
            },
            {
              "internalType": "uint256",
              "name": "numberOfDeliveries",
              "type": "uint256"
            },
            {
              "internalType": "uint256",
              "name": "averageDeliveryTime",
              "type": "uint256"
            }
          ],
          "internalType": "struct Users.DeliveryTimes",
          "name": "deliveryInfo",
          "type": "tuple"
        }
      ],
      "stateMutability": "view",
      "type": "function",
      "constant": true
    },
    {
      "inputs": [
        {
          "internalType": "address",
          "name": "_factoryAddress",
          "type": "address"
        }
      ],
      "name": "setFactoryAddress",
      "outputs": [],
      "stateMutability": "nonpayable",
      "type": "function"
    },
    {
      "inputs": [
        {
          "internalType": "address",
          "name": "_user",
          "type": "address"
        }
      ],
      "name": "warnUser",
      "outputs": [],
      "stateMutability": "nonpayable",
      "type": "function"
    },
    {
      "inputs": [
        {
          "internalType": "address",
          "name": "_user",
          "type": "address"
        }
      ],
      "name": "banUser",
      "outputs": [],
      "stateMutability": "nonpayable",
      "type": "function"
    },
    {
      "inputs": [
        {
          "internalType": "address",
          "name": "_user",
          "type": "address"
        }
      ],
      "name": "unbanUser",
      "outputs": [],
      "stateMutability": "nonpayable",
      "type": "function"
    },
    {
      "inputs": [
        {
          "internalType": "address",
          "name": "_user",
          "type": "address"
        }
      ],
      "name": "getUser",
      "outputs": [
        {
          "components": [
            {
              "internalType": "uint256",
              "name": "reputationPos",
              "type": "uint256"
            },
            {
              "internalType": "uint256",
              "name": "reputationNeg",
              "type": "uint256"
            },
            {
              "internalType": "uint256",
              "name": "totalTrades",
              "type": "uint256"
            },
            {
              "internalType": "uint256",
              "name": "warnings",
              "type": "uint256"
            },
            {
              "internalType": "bool",
              "name": "isBanned",
              "type": "bool"
            },
            {
              "components": [
                {
                  "internalType": "uint256",
                  "name": "totalDeliveryTime",
                  "type": "uint256"
                },
                {
                  "internalType": "uint256",
                  "name": "numberOfDeliveries",
                  "type": "uint256"
                },
                {
                  "internalType": "uint256",
                  "name": "averageDeliveryTime",
                  "type": "uint256"
                }
              ],
              "internalType": "struct Users.DeliveryTimes",
              "name": "deliveryInfo",
              "type": "tuple"
            }
          ],
          "internalType": "struct Users.User",
          "name": "",
          "type": "tuple"
        }
      ],
      "stateMutability": "view",
      "type": "function",
      "constant": true
    },
    {
      "inputs": [
        {
          "internalType": "address",
          "name": "_user",
          "type": "address"
        }
      ],
      "name": "isBanned",
      "outputs": [
        {
          "internalType": "bool",
          "name": "",
          "type": "bool"
        }
      ],
      "stateMutability": "view",
      "type": "function",
      "constant": true
    },
    {
      "inputs": [
        {
          "internalType": "address",
          "name": "contractAddress",
          "type": "address"
        },
        {
          "internalType": "address",
          "name": "user",
          "type": "address"
        }
      ],
      "name": "startDeliveryTimer",
      "outputs": [],
      "stateMutability": "nonpayable",
      "type": "function"
    },
    {
      "inputs": [
        {
          "internalType": "address",
          "name": "contractAddress",
          "type": "address"
        },
        {
          "internalType": "address",
          "name": "user",
          "type": "address"
        }
      ],
      "name": "endDeliveryTimer",
      "outputs": [],
      "stateMutability": "nonpayable",
      "type": "function"
    },
    {
      "inputs": [
        {
          "internalType": "address",
          "name": "user",
          "type": "address"
        }
      ],
      "name": "getAverageDeliveryTime",
      "outputs": [
        {
          "internalType": "uint256",
          "name": "",
          "type": "uint256"
        }
      ],
      "stateMutability": "view",
      "type": "function",
      "constant": true
    },
    {
      "inputs": [
        {
          "internalType": "address",
          "name": "tradeAddress",
          "type": "address"
        },
        {
          "internalType": "enum Role",
          "name": "role",
          "type": "uint8"
        },
        {
          "internalType": "address",
          "name": "userAddress",
          "type": "address"
        },
        {
          "internalType": "enum TradeStatus",
          "name": "status",
          "type": "uint8"
        }
      ],
      "name": "addUserInteractionStatus",
      "outputs": [],
      "stateMutability": "nonpayable",
      "type": "function"
    },
    {
      "inputs": [
        {
          "internalType": "address",
          "name": "tradeAddress",
          "type": "address"
        },
        {
          "internalType": "address",
          "name": "userAddress",
          "type": "address"
        },
        {
          "internalType": "enum TradeStatus",
          "name": "status",
          "type": "uint8"
        }
      ],
      "name": "changeUserInteractionStatus",
      "outputs": [],
      "stateMutability": "nonpayable",
      "type": "function"
    },
    {
      "inputs": [
        {
          "internalType": "address",
          "name": "userAddrss",
          "type": "address"
        }
      ],
      "name": "getUserTotalTradeUIs",
      "outputs": [
        {
          "internalType": "uint256",
          "name": "",
          "type": "uint256"
        }
      ],
      "stateMutability": "view",
      "type": "function",
      "constant": true
    },
    {
      "inputs": [
        {
          "internalType": "address",
          "name": "userAddrss",
          "type": "address"
        },
        {
          "internalType": "uint256",
          "name": "i",
          "type": "uint256"
        }
      ],
      "name": "getUserTradeUIByIndex",
      "outputs": [
        {
          "components": [
            {
              "internalType": "address",
              "name": "contractAddress",
              "type": "address"
            },
            {
              "internalType": "enum Role",
              "name": "role",
              "type": "uint8"
            },
            {
              "internalType": "enum TradeStatus",
              "name": "status",
              "type": "uint8"
            }
          ],
          "internalType": "struct UserInteraction",
          "name": "",
          "type": "tuple"
        }
      ],
      "stateMutability": "view",
      "type": "function",
      "constant": true
    },
    {
      "inputs": [
        {
          "internalType": "address",
          "name": "userAddress",
          "type": "address"
        },
        {
          "internalType": "enum TradeStatus",
          "name": "status",
          "type": "uint8"
        }
      ],
      "name": "getUserTradeCountByStatus",
      "outputs": [
        {
          "internalType": "uint256",
          "name": "",
          "type": "uint256"
        }
      ],
      "stateMutability": "view",
      "type": "function",
      "constant": true
    },
    {
      "inputs": [
        {
          "internalType": "address",
          "name": "userAddress",
          "type": "address"
        },
        {
          "internalType": "enum TradeStatus",
          "name": "status",
          "type": "uint8"
        },
        {
          "internalType": "uint256",
          "name": "indexFrom",
          "type": "uint256"
        },
        {
          "internalType": "uint256",
          "name": "maxResults",
          "type": "uint256"
        }
      ],
      "name": "getUserTradeUIsByStatus",
      "outputs": [
        {
          "components": [
            {
              "internalType": "address",
              "name": "contractAddress",
              "type": "address"
            },
            {
              "internalType": "enum Role",
              "name": "role",
              "type": "uint8"
            },
            {
              "internalType": "enum TradeStatus",
              "name": "status",
              "type": "uint8"
            }
          ],
          "internalType": "struct UserInteraction[]",
          "name": "",
          "type": "tuple[]"
        }
      ],
      "stateMutability": "view",
      "type": "function",
      "constant": true
    },
    {
      "inputs": [
        {
          "internalType": "address",
          "name": "tradeAddrs",
          "type": "address"
        },
        {
          "internalType": "bool",
          "name": "isPositive",
          "type": "bool"
        }
      ],
      "name": "repAfterTrade",
      "outputs": [],
      "stateMutability": "nonpayable",
      "type": "function"
    },
    {
      "inputs": [
        {
          "internalType": "address",
          "name": "tradeAddrs",
          "type": "address"
        }
      ],
      "name": "hasMadeRepOnTrade",
      "outputs": [
        {
          "internalType": "bool",
          "name": "hasBuyer",
          "type": "bool"
        },
        {
          "internalType": "bool",
          "name": "hasSeller",
          "type": "bool"
        },
        {
          "internalType": "bool",
          "name": "isTime",
          "type": "bool"
        }
      ],
      "stateMutability": "view",
      "type": "function",
      "constant": true
    }
  ],
  "bytecode": "0x608060405234801561001057600080fd5b5060405162002242380380620022428339810160408190526100319161005b565b600160005560038054600160a060020a031916600160a060020a039290921691909117905561008b565b60006020828403121561006d57600080fd5b8151600160a060020a038116811461008457600080fd5b9392505050565b6121a7806200009b6000396000f3fe608060405234801561001057600080fd5b50600436106100ff5760e060020a600035046310d86b1f8114610104578063116fd6491461011957806343e239ba1461012c5780634904f6dc1461013f5780634d12b69514610168578063534505661461017b57806353941d4e1461018e5780636f77926b146101a1578063791bd0d0146101c15780637f1b5565146101fb5780637f24b9601461020e57806383c17c551461022e5780638771e93214610241578063951dc22c1461027357806397f735d5146102935780639b67ca19146102d2578063a87430ba146102fb578063c45a015514610378578063cd9c91fe1461038b578063fe4162d11461039e575b600080fd5b6101176101123660046117be565b6103b1565b005b6101176101273660046117ef565b610551565b61011761013a36600461184f565b61075d565b61015261014d366004611888565b6108e9565b60405161015f9190611915565b60405180910390f35b6101176101763660046117be565b6109b7565b610117610189366004611931565b610b51565b61011761019c3660046117be565b610e3b565b6101b46101af3660046117be565b611019565b60405161015f9190611978565b6101ed6101cf3660046117be565b600160a060020a031660009081526001602052604090206007015490565b60405190815260200161015f565b61011761020936600461184f565b6110a7565b61022161021c3660046119c8565b61117b565b60405161015f9190611a0e565b61011761023c3660046117be565b611336565b61025461024f3660046117be565b6113d5565b604080519315158452911515602084015215159082015260600161015f565b60035461028690600160a060020a031681565b60405161015f9190611a50565b6102c26102a13660046117be565b600160a060020a031660009081526001602052604090206004015460ff1690565b604051901515815260200161015f565b6101ed6102e03660046117be565b600160a060020a031660009081526005602052604090205490565b6103666103093660046117be565b600160208181526000928352604092839020805492810154600282015460038301546004840154875160608101895260058601548152600686015496810196909652600790940154968501969096529394909392909160ff169086565b60405161015f96959493929190611a64565b60045461028690600160a060020a031681565b6101ed610399366004611aa2565b6114b4565b6101176103ac366004611ad0565b611566565b60035460405160e060020a63fd6aad25028152600160a060020a039091169063fd6aad25906103e4903390600401611a50565b602060405180830381865afa158015610401573d6000803e3d6000fd5b505050506040513d601f19601f820116820180604052508101906104259190611b1b565b1515806104a4575060035460405160e060020a63fd6aad25028152600160a060020a039091169063fd6aad2590610460903290600401611a50565b602060405180830381865afa15801561047d573d6000803e3d6000fd5b505050506040513d601f19601f820116820180604052508101906104a19190611b1b565b15155b8061051e575060035460405160e760020a63012875b1028152600160a060020a039091169063943ad880906104dd903390600401611a50565b602060405180830381865afa1580156104fa573d6000803e3d6000fd5b505050506040513d601f19601f8201168201806040525081019061051e9190611b34565b61052757600080fd5b600160a060020a03166000908152600160208190526040909120600401805460ff19169091179055565b8333600160a060020a0382161480156105d857506004805460405160e160020a6337211afb028152600160a060020a0390911691636e4235f69161059791859101611a50565b602060405180830381865afa1580156105b4573d6000803e3d6000fd5b505050506040513d601f19601f820116820180604052508101906105d89190611b34565b6106005760405160e560020a62461bcd0281526004016105f790611b51565b60405180910390fd5b6005600084600160a060020a0316600160a060020a03168152602001908152602001600020604051806060016040528087600160a060020a03168152602001866001811115610651576106516118b4565b8152602001846007811115610668576106686118b4565b90528154600180820184556000938452602093849020835192018054600160a060020a03198116600160a060020a0390941693841782559484015193949093928492600160a860020a0319909216179060a060020a9084908111156106cf576106cf6118b4565b021790555060408201518154829060a860020a60ff02191660a860020a8360078111156106fe576106fe6118b4565b02179055505050600160a060020a03831660009081526005602052604090205461072a90600190611b9a565b600160a060020a039586166000908152600660209081526040808320969098168252949094529490922093909355505050565b8133600160a060020a0382161480156107e457506004805460405160e160020a6337211afb028152600160a060020a0390911691636e4235f6916107a391859101611a50565b602060405180830381865afa1580156107c0573d6000803e3d6000fd5b505050506040513d601f19601f820116820180604052508101906107e49190611b34565b6108035760405160e560020a62461bcd0281526004016105f790611b51565b600160a060020a0380831660009081526002602090815260408083209387168352929052908120546108359042611b9a565b600160a060020a038416600090815260016020526040812060050180549293508392909190610865908490611bad565b9091555050600160a060020a0383166000908152600160205260408120600601805490919061089390611bc0565b90915550600160a060020a038316600090815260016020526040902060068101546005909101546108c49190611bd9565b600160a060020a03909316600090815260016020526040902060070192909255505050565b6108f1611730565b600160a060020a038316600090815260056020526040902080548390811061091b5761091b611bff565b6000918252602091829020604080516060810190915291018054600160a060020a0381168352919290919083019060a060020a900460ff166001811115610964576109646118b4565b6001811115610975576109756118b4565b8152815460209091019060a860020a900460ff16600781111561099a5761099a6118b4565b60078111156109ab576109ab6118b4565b90525090505b92915050565b60035460405160e060020a63fd6aad25028152600160a060020a039091169063fd6aad25906109ea903390600401611a50565b602060405180830381865afa158015610a07573d6000803e3d6000fd5b505050506040513d601f19601f82011682018060405250810190610a2b9190611b1b565b151580610aaa575060035460405160e060020a63fd6aad25028152600160a060020a039091169063fd6aad2590610a66903290600401611a50565b602060405180830381865afa158015610a83573d6000803e3d6000fd5b505050506040513d601f19601f82011682018060405250810190610aa79190611b1b565b15155b80610b24575060035460405160e760020a63012875b1028152600160a060020a039091169063943ad88090610ae3903390600401611a50565b602060405180830381865afa158015610b00573d6000803e3d6000fd5b505050506040513d601f19601f82011682018060405250810190610b249190611b34565b610b2d57600080fd5b600160a060020a03166000908152600160205260409020600401805460ff19169055565b610b5961168b565b6004805460405160e160020a6356f52433028152600092600160a060020a039092169163adea486691610b8e91879101611a50565b600060405180830381865afa158015610bab573d6000803e3d6000fd5b505050506040513d6000823e601f3d908101601f19168201604052610bd39190810190611fa5565b905060048161016001516007811115610bee57610bee6118b4565b1015610c325760405160e560020a62461bcd02815260206004820152600d6024820152609860020a6c7464652021636f6d706c6574650260448201526064016105f7565b8060600151600160a060020a031633600160a060020a03161480610c6b57508060200151600160a060020a031633600160a060020a0316145b610cae5760405160e560020a62461bcd02815260206004820152600e6024820152609060020a6d2170617274206f662074726164650260448201526064016105f7565b6060810151600160a060020a03163303610d6d57600160a060020a038316600090815260076020908152604080832083805290915290205460ff1615610d2d5760405160e560020a62461bcd02815260206004820152600e6024820152609160020a6d30b639323c903932b81030b996b10260448201526064016105f7565b600160a060020a03831660009081526007602090815260408083208380528252909120805460ff19166001179055810151610d6890836116e7565b610e2c565b6020810151600160a060020a03163303610e2c57600160a060020a03831660009081526007602090815260408083206001845290915290205460ff1615610ded5760405160e560020a62461bcd02815260206004820152600e6024820152609060020a6d616c726479207265702061732d730260448201526064016105f7565b600160a060020a038316600090815260076020908152604080832060018085529252909120805460ff191690911790556060810151610e2c90836116e7565b50610e376001600055565b5050565b60035460405160e060020a63fd6aad25028152600160a060020a039091169063fd6aad2590610e6e903390600401611a50565b602060405180830381865afa158015610e8b573d6000803e3d6000fd5b505050506040513d601f19601f82011682018060405250810190610eaf9190611b1b565b151580610f2e575060035460405160e060020a63fd6aad25028152600160a060020a039091169063fd6aad2590610eea903290600401611a50565b602060405180830381865afa158015610f07573d6000803e3d6000fd5b505050506040513d601f19601f82011682018060405250810190610f2b9190611b1b565b15155b80610fa8575060035460405160e760020a63012875b1028152600160a060020a039091169063943ad88090610f67903390600401611a50565b602060405180830381865afa158015610f84573d6000803e3d6000fd5b505050506040513d601f19601f82011682018060405250810190610fa89190611b34565b610fb157600080fd5b600160a060020a0381166000908152600160208190526040822090810180549192600592610fe0908490611bad565b9091555050600381018054600090610ff790611bc0565b9091555060038181015410610e375760048101805460ff191660011790555050565b611021611752565b50600160a060020a0316600090815260016020818152604092839020835160c0810185528154815292810154838301526002810154838501526003810154606080850191909152600482015460ff16151560808501528451908101855260058201548152600682015492810192909252600701549281019290925260a081019190915290565b8133600160a060020a03821614801561112e57506004805460405160e160020a6337211afb028152600160a060020a0390911691636e4235f6916110ed91859101611a50565b602060405180830381865afa15801561110a573d6000803e3d6000fd5b505050506040513d601f19601f8201168201806040525081019061112e9190611b34565b61114d5760405160e560020a62461bcd0281526004016105f790611b51565b50600160a060020a039081166000908152600260209081526040808320949093168252929092529020429055565b60606000826001604060020a0381111561119757611197611c19565b6040519080825280602002602001820160405280156111d057816020015b6111bd611730565b8152602001906001900390816111b55790505b5090506000845b84821080156111fd5750600160a060020a03881660009081526005602052604090205481105b1561132a57600160a060020a038816600090815260056020526040812080548390811061122c5761122c611bff565b6000918252602091829020604080516060810190915291018054600160a060020a0381168352919290919083019060a060020a900460ff166001811115611275576112756118b4565b6001811115611286576112866118b4565b8152815460209091019060a860020a900460ff1660078111156112ab576112ab6118b4565b60078111156112bc576112bc6118b4565b90525090508760078111156112d3576112d36118b4565b816040015160078111156112e9576112e96118b4565b03611319578084848151811061130157611301611bff565b60200260200101819052508261131690611bc0565b92505b61132282611bc0565b9150506111d7565b50909695505050505050565b60035460405160e260020a6326a8d83b028152600160a060020a0390911690639aa360ec90611369903390600401611a50565b602060405180830381865afa158015611386573d6000803e3d6000fd5b505050506040513d601f19601f820116820180604052508101906113aa9190611b34565b6113b357600080fd5b60048054600160a060020a031916600160a060020a0392909216919091179055565b6004805460405160e160020a6356f52433028152600092839283928392600160a060020a039092169163adea48669161141091899101611a50565b600060405180830381865afa15801561142d573d6000803e3d6000fd5b505050506040513d6000823e601f3d908101601f191682016040526114559190810190611fa5565b905060048161016001516007811115611470576114706118b4565b600160a060020a03969096166000908152600760209081526040808320838052909152808220546001835291205460ff918216989116969190911015945092505050565b60008060005b600160a060020a03851660009081526005602052604090205481101561155e578360078111156114ec576114ec6118b4565b600160a060020a038616600090815260056020526040902080548390811061151657611516611bff565b60009182526020909120015460a860020a900460ff16600781111561153d5761153d6118b4565b0361154e5761154b82611bc0565b91505b61155781611bc0565b90506114ba565b509392505050565b8233600160a060020a0382161480156115ed57506004805460405160e160020a6337211afb028152600160a060020a0390911691636e4235f6916115ac91859101611a50565b602060405180830381865afa1580156115c9573d6000803e3d6000fd5b505050506040513d601f19601f820116820180604052508101906115ed9190611b34565b61160c5760405160e560020a62461bcd0281526004016105f790611b51565b600160a060020a038085166000908152600660209081526040808320938716835292815282822054600590915291902080548491908390811061165157611651611bff565b6000918252602090912001805460a860020a60ff02191660a860020a83600781111561167f5761167f6118b4565b02179055505050505050565b6002600054036116e05760405160e560020a62461bcd02815260206004820152601f60248201527f5265656e7472616e637947756172643a207265656e7472616e742063616c6c0060448201526064016105f7565b6002600055565b600160a060020a0382166000908152600160205260409020811561171f57806000016000815461171690611bc0565b90915550505050565b806001016000815461171690611bc0565b604080516060810190915260008082526020820190815260200160005b905290565b6040518060c001604052806000815260200160008152602001600081526020016000815260200160001515815260200161174d60405180606001604052806000815260200160008152602001600081525090565b600160a060020a03811681146117bb57600080fd5b50565b6000602082840312156117d057600080fd5b81356117db816117a6565b9392505050565b600881106117bb57600080fd5b6000806000806080858703121561180557600080fd5b8435611810816117a6565b935060208501356002811061182457600080fd5b92506040850135611834816117a6565b91506060850135611844816117e2565b939692955090935050565b6000806040838503121561186257600080fd5b823561186d816117a6565b9150602083013561187d816117a6565b809150509250929050565b6000806040838503121561189b57600080fd5b82356118a6816117a6565b946020939093013593505050565b60e060020a634e487b710260009081526021600452602490fd5b8051600160a060020a031682526020810151600281106118f0576118f06118b4565b602083015260408101516008811061190a5761190a6118b4565b806040840152505050565b606081016109b182846118ce565b80151581146117bb57600080fd5b6000806040838503121561194457600080fd5b823561194f816117a6565b9150602083013561187d81611923565b8051825260208082015190830152604090810151910152565b6000610100820190508251825260208301516020830152604083015160408301526060830151606083015260808301511515608083015260a08301516119c160a084018261195f565b5092915050565b600080600080608085870312156119de57600080fd5b84356119e9816117a6565b935060208501356119f9816117e2565b93969395505050506040820135916060013590565b6020808252825182820181905260009190848201906040850190845b8181101561132a57611a3d8385516118ce565b9284019260609290920191600101611a2a565b600160a060020a0391909116815260200190565b6000610100820190508782528660208301528560408301528460608301528315156080830152611a9760a083018461195f565b979650505050505050565b60008060408385031215611ab557600080fd5b8235611ac0816117a6565b9150602083013561187d816117e2565b600080600060608486031215611ae557600080fd5b8335611af0816117a6565b92506020840135611b00816117a6565b91506040840135611b10816117e2565b809150509250925092565b600060208284031215611b2d57600080fd5b5051919050565b600060208284031215611b4657600080fd5b81516117db81611923565b6020808252601290820152607260020a711b9bdd081d1c9859194818dbdb9d1c9858dd02604082015260600190565b60e060020a634e487b710260009081526011600452602490fd5b818103818111156109b1576109b1611b80565b808201808211156109b1576109b1611b80565b600060018201611bd257611bd2611b80565b5060010190565b600082611bfa5760e060020a634e487b710260009081526012600452602490fd5b500490565b60e060020a634e487b710260009081526032600452602490fd5b60e060020a634e487b710260009081526041600452602490fd5b604051608081016001604060020a0381118282101715611c5557611c55611c19565b60405290565b6040516101c081016001604060020a0381118282101715611c5557611c55611c19565b604051601f8201601f191681016001604060020a0381118282101715611ca657611ca6611c19565b604052919050565b8051611cb9816117a6565b919050565b600082601f830112611ccf57600080fd5b81516001604060020a03811115611ce857611ce8611c19565b6020611cfc601f8301601f19168201611c7e565b8281528582848701011115611d1057600080fd5b60005b83811015611d2e578581018301518282018401528201611d13565b506000928101909101919091529392505050565b600060408284031215611d5457600080fd5b604080519081016001604060020a038082118383101715611d7757611d77611c19565b81604052829350845183526020850151915080821115611d9657600080fd5b50611da385828601611cbe565b6020830152505092915050565b600060608284031215611dc257600080fd5b604051606081016001604060020a038082118383101715611de557611de5611c19565b816040528293508451915080821115611dfd57600080fd5b611e0986838701611cbe565b83526020850151915080821115611e1f57600080fd5b611e2b86838701611cbe565b60208401526040850151915080821115611e4457600080fd5b50611e5185828601611cbe565b6040830152505092915050565b8051611cb9816117e2565b600082601f830112611e7a57600080fd5b815160206001604060020a0380831115611e9657611e96611c19565b818302611ea4838201611c7e565b9384528581018301938381019088861115611ebe57600080fd5b84880192505b85831015611f9957825184811115611edc5760008081fd5b88016080818b03601f1901811315611ef45760008081fd5b611efc611c33565b8783015187811115611f0e5760008081fd5b611f1c8d8a83870101611cbe565b82525060408084015188811115611f335760008081fd5b611f418e8b83880101611cbe565b8a8401525060608085015160ff81168114611f5c5760008081fd5b83830152928401519288841115611f7557600091508182fd5b611f838e8b86880101611cbe565b9083015250845250509184019190840190611ec4565b98975050505050505050565b600060208284031215611fb757600080fd5b81516001604060020a0380821115611fce57600080fd5b908301906101c08286031215611fe357600080fd5b611feb611c5b565b611ff483611cae565b815261200260208401611cae565b602082015260408301518281111561201957600080fd5b61202587828601611d42565b60408301525061203760608401611cae565b606082015260808301518281111561204e57600080fd5b61205a87828601611d42565b60808301525060a08301518281111561207257600080fd5b61207e87828601611cbe565b60a08301525060c08301518281111561209657600080fd5b6120a287828601611cbe565b60c08301525060e0830151828111156120ba57600080fd5b6120c687828601611cbe565b60e0830152506101008381015190820152610120808401519082015261014080840151838111156120f657600080fd5b61210288828701611db0565b828401525050610160612116818501611e5e565b90820152610180838101518381111561212e57600080fd5b61213a88828701611e69565b8284015250506101a0808401518381111561215457600080fd5b61216088828701611cbe565b91830191909152509594505050505056fea26469706673582212206d1ba37d98c1284ecca7d6820dbfd6c8712c178e18e7d0b4310ea2a8c66cf03464736f6c63430008130033",
  "immutableReferences": {},
  "source": "//SPDX-License-Identifier: UNLICENSED\r\npragma solidity 0.8.19;\r\n\r\nimport \"../Keepers/IKeepers.sol\";\r\nimport \"../TradeFactory/ITradeFactory.sol\";\r\nimport {ReentrancyGuard} from \"@openzeppelin/contracts/security/ReentrancyGuard.sol\";\r\n\r\ncontract Users is ReentrancyGuard {\r\n    struct User {\r\n        uint256 reputationPos;\r\n        uint256 reputationNeg;\r\n        uint256 totalTrades;\r\n        uint256 warnings;\r\n        bool isBanned;\r\n        DeliveryTimes deliveryInfo;\r\n    }\r\n\r\n    struct DeliveryTimes {\r\n        uint256 totalDeliveryTime;\r\n        uint256 numberOfDeliveries;\r\n        uint256 averageDeliveryTime;\r\n    }\r\n\r\n    mapping(address => User) public users;\r\n    mapping(address => mapping(address => uint256)) UserToContractDeliveryStartTime;\r\n\r\n    IKeepers public keepers;\r\n    ITradeFactory public factory;\r\n\r\n    constructor(address _keepers) {\r\n        keepers = IKeepers(_keepers);\r\n    }\r\n\r\n    function setFactoryAddress(address _factoryAddress) external {\r\n        require(keepers.isCouncil(msg.sender));\r\n        factory = ITradeFactory(_factoryAddress);\r\n    }\r\n\r\n    modifier onlyFactory() {\r\n        require(msg.sender == address(factory));\r\n        _;\r\n    }\r\n\r\n    modifier onlyTradeContracts(address contractAddress) {\r\n        require(\r\n            msg.sender == contractAddress &&\r\n                factory.isThisTradeContract(contractAddress),\r\n            \"not trade contract\"\r\n        );\r\n        _;\r\n    }\r\n\r\n    modifier onlyKeepers() {\r\n        require(\r\n            keepers.indexOf(msg.sender) != 0 ||\r\n                keepers.indexOf(tx.origin) != 0 ||\r\n                keepers.isKeeperNode(msg.sender)\r\n        );\r\n        _;\r\n    }\r\n\r\n    function warnUser(address _user) public onlyKeepers {\r\n        User storage user = users[_user];\r\n        user.reputationNeg += 5;\r\n        ++user.warnings;\r\n        if (user.warnings >= 3) {\r\n            user.isBanned = true;\r\n        }\r\n    }\r\n\r\n    function banUser(address _user) public onlyKeepers {\r\n        User storage user = users[_user];\r\n        user.isBanned = true;\r\n    }\r\n\r\n    function unbanUser(address _user) public onlyKeepers {\r\n        User storage user = users[_user];\r\n        user.isBanned = false;\r\n    }\r\n\r\n    function getUser(address _user) external view returns (User memory) {\r\n        return users[_user];\r\n    }\r\n\r\n    function isBanned(address _user) external view returns (bool) {\r\n        return users[_user].isBanned;\r\n    }\r\n\r\n    function _repAfterTrade(address _user, bool isPositive) private {\r\n        User storage user = users[_user];\r\n        if (isPositive) {\r\n            ++user.reputationPos;\r\n        } else {\r\n            ++user.reputationNeg;\r\n        }\r\n    }\r\n\r\n    function startDeliveryTimer(address contractAddress, address user)\r\n        external\r\n        onlyTradeContracts(contractAddress)\r\n    {\r\n        UserToContractDeliveryStartTime[user][contractAddress] = block\r\n            .timestamp;\r\n    }\r\n\r\n    function endDeliveryTimer(address contractAddress, address user)\r\n        external\r\n        onlyTradeContracts(contractAddress)\r\n    {\r\n        uint256 deliveryTime = block.timestamp -\r\n            UserToContractDeliveryStartTime[user][contractAddress];\r\n        users[user].deliveryInfo.totalDeliveryTime += deliveryTime;\r\n        ++users[user].deliveryInfo.numberOfDeliveries;\r\n        users[user].deliveryInfo.averageDeliveryTime =\r\n            users[user].deliveryInfo.totalDeliveryTime /\r\n            users[user].deliveryInfo.numberOfDeliveries;\r\n    }\r\n\r\n    function getAverageDeliveryTime(address user)\r\n        external\r\n        view\r\n        returns (uint256)\r\n    {\r\n        return users[user].deliveryInfo.averageDeliveryTime;\r\n    }\r\n\r\n    //User to Trades\r\n    mapping(address => UserInteraction[]) userTrades;\r\n    mapping(address => mapping(address => uint256)) tradeAddrsToUserAddrsInteractionIndex;\r\n\r\n    function addUserInteractionStatus(\r\n        address tradeAddress,\r\n        Role role,\r\n        address userAddress,\r\n        TradeStatus status\r\n    ) external onlyTradeContracts(tradeAddress) {\r\n        userTrades[userAddress].push(\r\n            UserInteraction(tradeAddress, role, status)\r\n        );\r\n        tradeAddrsToUserAddrsInteractionIndex[tradeAddress][userAddress] =\r\n            userTrades[userAddress].length -\r\n            1;\r\n    }\r\n\r\n    function changeUserInteractionStatus(\r\n        address tradeAddress,\r\n        address userAddress,\r\n        TradeStatus status\r\n    ) external onlyTradeContracts(tradeAddress) {\r\n        uint256 iIndex = tradeAddrsToUserAddrsInteractionIndex[tradeAddress][\r\n            userAddress\r\n        ];\r\n        userTrades[userAddress][iIndex].status = status;\r\n    }\r\n\r\n    function getUserTotalTradeUIs(address userAddrss)\r\n        external\r\n        view\r\n        returns (uint256)\r\n    {\r\n        return userTrades[userAddrss].length;\r\n    }\r\n\r\n    function getUserTradeUIByIndex(address userAddrss, uint256 i)\r\n        external\r\n        view\r\n        returns (UserInteraction memory)\r\n    {\r\n        return userTrades[userAddrss][i];\r\n    }\r\n\r\n    function getUserTradeCountByStatus(\r\n        address userAddress,\r\n        TradeStatus status\r\n    ) external view returns (uint256) {\r\n        uint256 count;\r\n        for (uint256 i = 0; i < userTrades[userAddress].length; ++i) {\r\n            if (userTrades[userAddress][i].status == status) {\r\n                ++count;\r\n            }\r\n        }\r\n        return count;\r\n    }\r\n\r\n     function getUserTradeUIsByStatus(\r\n        address userAddress,\r\n        TradeStatus status,\r\n        uint256 indexFrom,\r\n        uint256 maxResults\r\n    ) external view returns (UserInteraction[] memory) {\r\n        UserInteraction[] memory tradeUIs = new UserInteraction[](maxResults);\r\n        uint256 resultIndex;\r\n        uint256 i = indexFrom;\r\n        while (resultIndex < maxResults && i < userTrades[userAddress].length) {\r\n            UserInteraction memory ui = userTrades[userAddress][i];\r\n\r\n            if (ui.status == status) {\r\n                tradeUIs[resultIndex] = ui;\r\n                ++resultIndex;\r\n            }\r\n\r\n            ++i;\r\n        }\r\n        return tradeUIs;\r\n    }\r\n\r\n\r\n    // function getUserAllTradeUIs(address userAddrss)\r\n    //     external\r\n    //     view\r\n    //     returns (UserInteraction[] memory)\r\n    // {\r\n    //     return userTrades[userAddrss];\r\n    // }\r\n    \r\n    mapping(address => mapping(Role => bool)) tradeAdrsToRoleToHasRep;\r\n\r\n    function repAfterTrade(address tradeAddrs, bool isPositive)\r\n        external\r\n        nonReentrant\r\n    {\r\n        TradeInfo memory _tradeContract = factory.getTradeDetailsByAddress(\r\n            tradeAddrs\r\n        );\r\n\r\n        require(\r\n            _tradeContract.status >= TradeStatus.Completed,\r\n            \"tde !complete\"\r\n        );\r\n\r\n        require(\r\n            msg.sender == _tradeContract.buyer ||\r\n                msg.sender == _tradeContract.seller,\r\n            \"!part of trade\"\r\n        );\r\n\r\n        if (msg.sender == _tradeContract.buyer) {\r\n            require(\r\n                tradeAdrsToRoleToHasRep[tradeAddrs][Role.BUYER] == false,\r\n                \"alrdy rep as-b\"\r\n            );\r\n            tradeAdrsToRoleToHasRep[tradeAddrs][Role.BUYER] = true;\r\n            _repAfterTrade(_tradeContract.seller, isPositive);\r\n        } else if (msg.sender == _tradeContract.seller) {\r\n            require(\r\n                tradeAdrsToRoleToHasRep[tradeAddrs][Role.SELLER] == false,\r\n                \"alrdy rep as-s\"\r\n            );\r\n            tradeAdrsToRoleToHasRep[tradeAddrs][Role.SELLER] = true;\r\n            _repAfterTrade(_tradeContract.buyer, isPositive);\r\n        }\r\n    }\r\n\r\n    function hasMadeRepOnTrade(address tradeAddrs)\r\n        external\r\n        view\r\n        returns (\r\n            bool hasBuyer,\r\n            bool hasSeller,\r\n            bool isTime\r\n        )\r\n    {\r\n        TradeInfo memory _tradeContract = factory.getTradeDetailsByAddress(\r\n            tradeAddrs\r\n        );\r\n\r\n        isTime = (_tradeContract.status >= TradeStatus.Completed);\r\n\r\n        hasBuyer = tradeAdrsToRoleToHasRep[tradeAddrs][Role.BUYER];\r\n\r\n        hasSeller = tradeAdrsToRoleToHasRep[tradeAddrs][Role.SELLER];\r\n    }\r\n}\r\n",
  "sourcePath": "C:\\Users\\Charl\\Documents\\Projects\\SteamMarket\\CSX\\csx-contracts\\contracts\\Users\\Users.sol",
  "compiler": {
    "name": "solc",
    "version": "0.8.19+commit.7dd6d404.Emscripten.clang"
  },
  "schemaVersion": "3.4.3",
  "updatedAt": "2023-03-29T11:51:19.502Z",
  "networkType": "ethereum",
  "devdoc": {
    "kind": "dev",
    "methods": {},
    "version": 1
  },
  "userdoc": {
    "kind": "user",
    "methods": {},
    "version": 1
  }
}