{
  "contractName": "VestedStaking",
  "abi": [
    {
      "inputs": [
        {
          "internalType": "address",
          "name": "_vesterAddress",
          "type": "address"
        },
        {
          "internalType": "address",
          "name": "_sCsxTokenAddress",
          "type": "address"
        },
        {
          "internalType": "address",
          "name": "_vCsxTokenAddress",
          "type": "address"
        },
        {
          "internalType": "address",
          "name": "_csxTokenAddress",
          "type": "address"
        },
        {
          "internalType": "address",
          "name": "_usdcTokenAddress",
          "type": "address"
        },
        {
          "internalType": "address",
          "name": "_usdtTokenAddress",
          "type": "address"
        },
        {
          "internalType": "address",
          "name": "_wethTokenAddress",
          "type": "address"
        }
      ],
      "stateMutability": "nonpayable",
      "type": "constructor"
    },
    {
      "inputs": [],
      "name": "VESTING_PERIOD",
      "outputs": [
        {
          "internalType": "uint256",
          "name": "",
          "type": "uint256"
        }
      ],
      "stateMutability": "view",
      "type": "function"
    },
    {
      "inputs": [],
      "name": "csxToken",
      "outputs": [
        {
          "internalType": "contract IERC20",
          "name": "",
          "type": "address"
        }
      ],
      "stateMutability": "view",
      "type": "function"
    },
    {
      "inputs": [],
      "name": "sCsxToken",
      "outputs": [
        {
          "internalType": "contract IStakedCSX",
          "name": "",
          "type": "address"
        }
      ],
      "stateMutability": "view",
      "type": "function"
    },
    {
      "inputs": [],
      "name": "usdcToken",
      "outputs": [
        {
          "internalType": "contract IERC20",
          "name": "",
          "type": "address"
        }
      ],
      "stateMutability": "view",
      "type": "function"
    },
    {
      "inputs": [],
      "name": "usdtToken",
      "outputs": [
        {
          "internalType": "contract IERC20",
          "name": "",
          "type": "address"
        }
      ],
      "stateMutability": "view",
      "type": "function"
    },
    {
      "inputs": [],
      "name": "vCsxToken",
      "outputs": [
        {
          "internalType": "contract IERC20Burnable",
          "name": "",
          "type": "address"
        }
      ],
      "stateMutability": "view",
      "type": "function"
    },
    {
      "inputs": [],
      "name": "vesterAddress",
      "outputs": [
        {
          "internalType": "address",
          "name": "",
          "type": "address"
        }
      ],
      "stateMutability": "view",
      "type": "function"
    },
    {
      "inputs": [],
      "name": "vesting",
      "outputs": [
        {
          "internalType": "uint256",
          "name": "amount",
          "type": "uint256"
        },
        {
          "internalType": "uint256",
          "name": "startTime",
          "type": "uint256"
        }
      ],
      "stateMutability": "view",
      "type": "function"
    },
    {
      "inputs": [],
      "name": "wethToken",
      "outputs": [
        {
          "internalType": "contract IERC20",
          "name": "",
          "type": "address"
        }
      ],
      "stateMutability": "view",
      "type": "function"
    },
    {
      "inputs": [
        {
          "internalType": "uint256",
          "name": "amount",
          "type": "uint256"
        }
      ],
      "name": "deposit",
      "outputs": [],
      "stateMutability": "nonpayable",
      "type": "function"
    },
    {
      "inputs": [],
      "name": "getClaimableAmountAndVestTimeLeft",
      "outputs": [
        {
          "internalType": "uint256",
          "name": "usdcAmount",
          "type": "uint256"
        },
        {
          "internalType": "uint256",
          "name": "usdtAmount",
          "type": "uint256"
        },
        {
          "internalType": "uint256",
          "name": "wethAmount",
          "type": "uint256"
        },
        {
          "internalType": "uint256",
          "name": "vestTimeLeft",
          "type": "uint256"
        }
      ],
      "stateMutability": "view",
      "type": "function"
    },
    {
      "inputs": [
        {
          "internalType": "bool",
          "name": "claimUsdc",
          "type": "bool"
        },
        {
          "internalType": "bool",
          "name": "claimUsdt",
          "type": "bool"
        },
        {
          "internalType": "bool",
          "name": "claimWeth",
          "type": "bool"
        },
        {
          "internalType": "bool",
          "name": "convertWethToEth",
          "type": "bool"
        }
      ],
      "name": "claimRewards",
      "outputs": [],
      "stateMutability": "nonpayable",
      "type": "function"
    },
    {
      "inputs": [
        {
          "internalType": "uint256",
          "name": "amount",
          "type": "uint256"
        }
      ],
      "name": "withdraw",
      "outputs": [],
      "stateMutability": "nonpayable",
      "type": "function"
    }
  ],
  "bytecode": "0x60806040523480156200001157600080fd5b5060405162000f9838038062000f988339810160408190526200003491620000d3565b60028054600160a060020a0319908116600160a060020a03998a161790915560038054821697891697909717909655600480548716958816959095179094556005805486169387169390931790925560068054851691861691909117905560078054841691851691909117905560088054909216921691909117905562000168565b8051600160a060020a0381168114620000ce57600080fd5b919050565b600080600080600080600060e0888a031215620000ef57600080fd5b620000fa88620000b6565b96506200010a60208901620000b6565b95506200011a60408901620000b6565b94506200012a60608901620000b6565b93506200013a60808901620000b6565b92506200014a60a08901620000b6565b91506200015a60c08901620000b6565b905092959891949750929550565b610e2080620001786000396000f3fe608060405234801561001057600080fd5b50600436106100fc576000357c0100000000000000000000000000000000000000000000000000000000900480634bbc52f5116100a9578063a98ad46c11610083578063a98ad46c146101f6578063b6b55f2514610209578063da61ead41461021c578063ff04c5ee1461022f57600080fd5b80634bbc52f5146101bd57806372d05a52146101d0578063a639a300146101e357600080fd5b8063330049b2116100da578063330049b21461015f57806344c63eec146101875780634b57b0be146101aa57600080fd5b80630197d9721461010157806311eac8551461011f5780632e1a7d4d1461014a575b600080fd5b61010c6303b5380081565b6040519081526020015b60405180910390f35b60065461013290600160a060020a031681565b604051600160a060020a039091168152602001610116565b61015d610158366004610c97565b610242565b005b61016761050c565b604080519485526020850193909352918301526060820152608001610116565b600054600154610195919082565b60408051928352602083019190915201610116565b60085461013290600160a060020a031681565b61015d6101cb366004610cc1565b6105de565b60045461013290600160a060020a031681565b60055461013290600160a060020a031681565b60075461013290600160a060020a031681565b61015d610217366004610c97565b610a12565b60025461013290600160a060020a031681565b60035461013290600160a060020a031681565b600254600160a060020a031633146102a957604051600080516020610dcb833981519152815260206004820152600b60248201527f4f6e6c79206f776e65722e00000000000000000000000000000000000000000060448201526064015b60405180910390fd5b60005481111561030357604051600080516020610dcb833981519152815260206004820152601260248201527f4e6f7420656e6f75676820746f6b656e732e000000000000000000000000000060448201526064016102a0565b600154610315906303b5380090610d4c565b42101561036c57604051600080516020610dcb833981519152815260206004820152601860248201527f546f6b656e7320617265207374696c6c206c6f636b65642e000000000000000060448201526064016102a0565b806000800160008282546103809190610d65565b9091555050600480546040517f79cc6790000000000000000000000000000000000000000000000000000000008152339281019290925260248201839052600160a060020a0316906379cc679090604401600060405180830381600087803b1580156103eb57600080fd5b505af11580156103ff573d6000803e3d6000fd5b50506003546040517f5d3eea9100000000000000000000000000000000000000000000000000000000815260048101859052600160a060020a039091169250635d3eea919150602401600060405180830381600087803b15801561046257600080fd5b505af1158015610476573d6000803e3d6000fd5b50506005546040517fa9059cbb00000000000000000000000000000000000000000000000000000000815233600482015260248101859052600160a060020a03909116925063a9059cbb91506044016020604051808303816000875af11580156104e4573d6000803e3d6000fd5b505050506040513d601f19601f820116820180604052508101906105089190610d78565b5050565b6003546040517fe12f3a61000000000000000000000000000000000000000000000000000000008152306004820152600091829182918291600160a060020a039091169063e12f3a6190602401606060405180830381865afa158015610576573d6000803e3d6000fd5b505050506040513d601f19601f8201168201806040525081019061059a9190610d9c565b60015492965090945092506000906105b7906303b5380090610d4c565b9050804210156105d2576105cb4282610d65565b91506105d7565b600091505b5090919293565b600254600160a060020a0316331461064057604051600080516020610dcb833981519152815260206004820152600b60248201527f4f6e6c79206f776e65722e00000000000000000000000000000000000000000060448201526064016102a0565b6003546040517fe12f3a6100000000000000000000000000000000000000000000000000000000815230600482015260009182918291600160a060020a03169063e12f3a6190602401606060405180830381865afa1580156106a6573d6000803e3d6000fd5b505050506040513d601f19601f820116820180604052508101906106ca9190610d9c565b6003546040517fd61bf3f80000000000000000000000000000000000000000000000000000000081528b151560048201528a15156024820152891515604482015288151560648201529396509194509250600160a060020a03169063d61bf3f890608401600060405180830381600087803b15801561074857600080fd5b505af115801561075c573d6000803e3d6000fd5b5050505086801561076c57508215155b15610801576006546040517fa9059cbb00000000000000000000000000000000000000000000000000000000815233600482015260248101859052600160a060020a039091169063a9059cbb906044016020604051808303816000875af11580156107db573d6000803e3d6000fd5b505050506040513d601f19601f820116820180604052508101906107ff9190610d78565b505b85801561080d57508115155b156108a2576007546040517fa9059cbb00000000000000000000000000000000000000000000000000000000815233600482015260248101849052600160a060020a039091169063a9059cbb906044016020604051808303816000875af115801561087c573d6000803e3d6000fd5b505050506040513d601f19601f820116820180604052508101906108a09190610d78565b505b8480156108ad575083155b80156108b857508015155b1561094d576008546040517fa9059cbb00000000000000000000000000000000000000000000000000000000815233600482015260248101839052600160a060020a039091169063a9059cbb906044016020604051808303816000875af1158015610927573d6000803e3d6000fd5b505050506040513d601f19601f8201168201806040525081019061094b9190610d78565b505b8480156109575750835b801561096257508015155b15610a0957604051600090339083908381818185875af1925050503d80600081146109a9576040519150601f19603f3d011682016040523d82523d6000602084013e6109ae565b606091505b5050905080610a0757604051600080516020610dcb833981519152815260206004820152601060248201527f5472616e73666572206661696c65642e0000000000000000000000000000000060448201526064016102a0565b505b50505050505050565b600454600160a060020a03163314610a7457604051600080516020610dcb833981519152815260206004820152601360248201527f4f6e6c79207643535820636f6e74726163742e0000000000000000000000000060448201526064016102a0565b6005546040517f23b872dd00000000000000000000000000000000000000000000000000000000815233600482015230602482015260448101839052600160a060020a03909116906323b872dd906064016020604051808303816000875af1158015610ae4573d6000803e3d6000fd5b505050506040513d601f19601f82011682018060405250810190610b089190610d78565b610b5c57604051600080516020610dcb833981519152815260206004820152600f60248201527f6465706f736974206661696c65642e000000000000000000000000000000000060448201526064016102a0565b6005546003546040517f095ea7b3000000000000000000000000000000000000000000000000000000008152600160a060020a0391821660048201526024810184905291169063095ea7b3906044016020604051808303816000875af1158015610bca573d6000803e3d6000fd5b505050506040513d601f19601f82011682018060405250810190610bee9190610d78565b506003546040517fa694fc3a00000000000000000000000000000000000000000000000000000000815260048101839052600160a060020a039091169063a694fc3a90602401600060405180830381600087803b158015610c4e57600080fd5b505af1158015610c62573d6000803e3d6000fd5b505050506040518060400160405280826000800154610c819190610d4c565b8152426020918201528151600055015160015550565b600060208284031215610ca957600080fd5b5035919050565b8015158114610cbe57600080fd5b50565b60008060008060808587031215610cd757600080fd5b8435610ce281610cb0565b93506020850135610cf281610cb0565b92506040850135610d0281610cb0565b91506060850135610d1281610cb0565b939692955090935050565b7f4e487b7100000000000000000000000000000000000000000000000000000000600052601160045260246000fd5b80820180821115610d5f57610d5f610d1d565b92915050565b81810381811115610d5f57610d5f610d1d565b600060208284031215610d8a57600080fd5b8151610d9581610cb0565b9392505050565b600080600060608486031215610db157600080fd5b835192506020840151915060408401519050925092509256fe08c379a000000000000000000000000000000000000000000000000000000000a26469706673582212208745379ec4ea995dabceaf71fd37ea490dc678abfa1ef1214330f581ba480de464736f6c63430008130033",
  "immutableReferences": {},
  "source": "// SPDX-License-Identifier: MIT\r\n// StakedCSXContract v1\r\n\r\npragma solidity ^0.8.19;\r\n\r\nimport {IERC20, IStakedCSX, IERC20Burnable} from \"./Interfaces.sol\";\r\n\r\nstruct Vesting {\r\n    uint256 amount;\r\n    uint256 startTime;\r\n}\r\n\r\ncontract VestedStaking {\r\n    Vesting public vesting;\r\n\r\n    uint256 public constant VESTING_PERIOD = 24 * 30 days; // 24 months\r\n\r\n    address public vesterAddress;\r\n    IStakedCSX public sCsxToken;\r\n    IERC20Burnable public vCsxToken;\r\n    IERC20 public csxToken;\r\n    IERC20 public usdcToken;\r\n    IERC20 public usdtToken;\r\n    IERC20 public wethToken;\r\n\r\n    constructor(\r\n        address _vesterAddress,\r\n        address _sCsxTokenAddress,\r\n        address _vCsxTokenAddress,\r\n        address _csxTokenAddress,\r\n        address _usdcTokenAddress,\r\n        address _usdtTokenAddress,\r\n        address _wethTokenAddress\r\n    ) {\r\n        vesterAddress = _vesterAddress;\r\n        sCsxToken = IStakedCSX(_sCsxTokenAddress);\r\n        vCsxToken = IERC20Burnable(_vCsxTokenAddress);\r\n        csxToken = IERC20(_csxTokenAddress);\r\n        usdcToken = IERC20(_usdcTokenAddress);\r\n        usdtToken = IERC20(_usdtTokenAddress);\r\n        wethToken = IERC20(_wethTokenAddress);\r\n    }\r\n\r\n    modifier onlyVester() {\r\n        require(msg.sender == vesterAddress, \"Only owner.\");\r\n        _;\r\n    }\r\n\r\n    /// @notice Deposit CSX tokens into the staking contract.\r\n    /// @param amount Amount of CSX tokens to deposit.\r\n    /// @dev This function is called by the vester contract.\r\n    /// @dev Only callable by the vester contract.\r\n    function deposit(uint256 amount) external {\r\n        require(msg.sender == address(vCsxToken), \"Only vCSX contract.\");\r\n        require(\r\n            csxToken.transferFrom(msg.sender, address(this), amount),\r\n            \"deposit failed.\"\r\n        );\r\n        csxToken.approve(address(sCsxToken), amount);\r\n        sCsxToken.stake(amount);\r\n        vesting = Vesting(vesting.amount + amount, block.timestamp); // vesting time-lock (re)-starts when deposit is made\r\n    }\r\n\r\n    /// @notice get Claimable Amount\r\n    /// @return usdcAmount\r\n    /// @return usdtAmount\r\n    /// @return wethAmount\r\n    function getClaimableAmountAndVestTimeLeft() external view returns (uint256 usdcAmount, uint256 usdtAmount, uint256 wethAmount, uint256 vestTimeLeft) {\r\n        (usdcAmount, usdtAmount, wethAmount) = sCsxToken.getClaimableAmount(address(this));\r\n        \r\n        uint256 vestingEndTime = vesting.startTime + VESTING_PERIOD;\r\n        if (block.timestamp < vestingEndTime) {\r\n            vestTimeLeft = vestingEndTime - block.timestamp;\r\n        } else {\r\n            vestTimeLeft = 0;\r\n        }\r\n    }\r\n    \r\n\r\n    /// @notice Claim rewards from the staking contract.\r\n    /// @param claimUsdc Whether to claim USDC rewards.\r\n    /// @param claimUsdt Whether to claim USDT rewards.\r\n    /// @param claimWeth Whether to claim WETH rewards.\r\n    /// @param convertWethToEth Whether to convert WETH rewards to ETH.\r\n    /// @dev Only callable by the vester.\r\n    function claimRewards(\r\n        bool claimUsdc,\r\n        bool claimUsdt,\r\n        bool claimWeth,\r\n        bool convertWethToEth\r\n    ) external onlyVester {\r\n        (uint256 usdcAmount, uint256 usdtAmount, uint256 wethAmount) = sCsxToken\r\n            .getClaimableAmount(address(this));\r\n\r\n        sCsxToken.claim(claimUsdc, claimUsdt, claimWeth, convertWethToEth);\r\n\r\n        if (claimUsdc && usdcAmount != 0) {\r\n            usdcToken.transfer(msg.sender, usdcAmount);\r\n        }\r\n        if (claimUsdt && usdtAmount != 0) {\r\n            usdtToken.transfer(msg.sender, usdtAmount);\r\n        }\r\n        if (claimWeth && !convertWethToEth && wethAmount != 0) {\r\n            wethToken.transfer(msg.sender, wethAmount);\r\n        }\r\n        if (claimWeth && convertWethToEth && wethAmount != 0) {\r\n            (bool success, ) = msg.sender.call{value: wethAmount}(\"\");\r\n            require(success, \"Transfer failed.\");\r\n        }\r\n    }\r\n\r\n    /// @notice Withdraws tokens from the contract.\r\n    /// @param amount Amount of tokens to withdraw.\r\n    /// @dev Only callable by the vester.\r\n    /// @dev Tokens are locked for 24 months.\r\n    /// @dev Vested Tokens are burned.\r\n    function withdraw(uint256 amount) external onlyVester {\r\n        require(amount <= vesting.amount, \"Not enough tokens.\");\r\n        require(\r\n            block.timestamp >= vesting.startTime + VESTING_PERIOD,\r\n            \"Tokens are still locked.\"\r\n        );\r\n        vesting.amount -= amount;\r\n        vCsxToken.burnFrom(msg.sender, amount);\r\n        sCsxToken.unStake(amount);\r\n        csxToken.transfer(msg.sender, amount);\r\n    }\r\n}\r\n",
  "sourcePath": "C:\\Users\\Charl\\Documents\\Projects\\SteamMarket\\CSX\\csx-contracts\\contracts\\CSX\\VestedStaking.sol",
  "compiler": {
    "name": "solc",
    "version": "0.8.19+commit.7dd6d404.Emscripten.clang"
  },
  "schemaVersion": "3.4.3",
  "updatedAt": "2023-07-24T07:07:37.181Z",
  "devdoc": {
    "kind": "dev",
    "methods": {
      "claimRewards(bool,bool,bool,bool)": {
        "details": "Only callable by the vester.",
        "params": {
          "claimUsdc": "Whether to claim USDC rewards.",
          "claimUsdt": "Whether to claim USDT rewards.",
          "claimWeth": "Whether to claim WETH rewards.",
          "convertWethToEth": "Whether to convert WETH rewards to ETH."
        }
      },
      "deposit(uint256)": {
        "details": "This function is called by the vester contract.Only callable by the vester contract.",
        "params": {
          "amount": "Amount of CSX tokens to deposit."
        }
      },
      "getClaimableAmountAndVestTimeLeft()": {
        "returns": {
          "usdcAmount": "usdcAmount",
          "usdtAmount": "usdtAmount",
          "wethAmount": "wethAmount"
        }
      },
      "withdraw(uint256)": {
        "details": "Only callable by the vester.Tokens are locked for 24 months.Vested Tokens are burned.",
        "params": {
          "amount": "Amount of tokens to withdraw."
        }
      }
    },
    "version": 1
  },
  "userdoc": {
    "kind": "user",
    "methods": {
      "claimRewards(bool,bool,bool,bool)": {
        "notice": "Claim rewards from the staking contract."
      },
      "deposit(uint256)": {
        "notice": "Deposit CSX tokens into the staking contract."
      },
      "getClaimableAmountAndVestTimeLeft()": {
        "notice": "get Claimable Amount"
      },
      "withdraw(uint256)": {
        "notice": "Withdraws tokens from the contract."
      }
    },
    "version": 1
  }
}