{
  "contractName": "VestedCSX",
  "abi": [
    {
      "inputs": [
        {
          "internalType": "address",
          "name": "_eCsxAddress",
          "type": "address"
        },
        {
          "internalType": "address",
          "name": "_sCsxAddress",
          "type": "address"
        },
        {
          "internalType": "address",
          "name": "_wethAddress",
          "type": "address"
        },
        {
          "internalType": "address",
          "name": "_usdcAddress",
          "type": "address"
        },
        {
          "internalType": "address",
          "name": "_csxAddress",
          "type": "address"
        },
        {
          "internalType": "address",
          "name": "_usdtAddress",
          "type": "address"
        }
      ],
      "stateMutability": "nonpayable",
      "type": "constructor"
    },
    {
      "anonymous": false,
      "inputs": [
        {
          "indexed": true,
          "internalType": "address",
          "name": "owner",
          "type": "address"
        },
        {
          "indexed": true,
          "internalType": "address",
          "name": "spender",
          "type": "address"
        },
        {
          "indexed": false,
          "internalType": "uint256",
          "name": "value",
          "type": "uint256"
        }
      ],
      "name": "Approval",
      "type": "event"
    },
    {
      "anonymous": false,
      "inputs": [
        {
          "indexed": true,
          "internalType": "address",
          "name": "from",
          "type": "address"
        },
        {
          "indexed": true,
          "internalType": "address",
          "name": "to",
          "type": "address"
        },
        {
          "indexed": false,
          "internalType": "uint256",
          "name": "value",
          "type": "uint256"
        }
      ],
      "name": "Transfer",
      "type": "event"
    },
    {
      "inputs": [],
      "name": "CSX",
      "outputs": [
        {
          "internalType": "contract IERC20",
          "name": "",
          "type": "address"
        }
      ],
      "stateMutability": "view",
      "type": "function"
    },
    {
      "inputs": [],
      "name": "EscrowedCSX",
      "outputs": [
        {
          "internalType": "contract IERC20Burnable",
          "name": "",
          "type": "address"
        }
      ],
      "stateMutability": "view",
      "type": "function"
    },
    {
      "inputs": [],
      "name": "MAX_SUPPLY",
      "outputs": [
        {
          "internalType": "uint256",
          "name": "",
          "type": "uint256"
        }
      ],
      "stateMutability": "view",
      "type": "function"
    },
    {
      "inputs": [],
      "name": "StakedCSX",
      "outputs": [
        {
          "internalType": "contract IStakedCSX",
          "name": "",
          "type": "address"
        }
      ],
      "stateMutability": "view",
      "type": "function"
    },
    {
      "inputs": [],
      "name": "USDC",
      "outputs": [
        {
          "internalType": "contract IERC20",
          "name": "",
          "type": "address"
        }
      ],
      "stateMutability": "view",
      "type": "function"
    },
    {
      "inputs": [],
      "name": "USDT",
      "outputs": [
        {
          "internalType": "contract IERC20",
          "name": "",
          "type": "address"
        }
      ],
      "stateMutability": "view",
      "type": "function"
    },
    {
      "inputs": [],
      "name": "WETH",
      "outputs": [
        {
          "internalType": "contract IWETH",
          "name": "",
          "type": "address"
        }
      ],
      "stateMutability": "view",
      "type": "function"
    },
    {
      "inputs": [
        {
          "internalType": "address",
          "name": "owner",
          "type": "address"
        },
        {
          "internalType": "address",
          "name": "spender",
          "type": "address"
        }
      ],
      "name": "allowance",
      "outputs": [
        {
          "internalType": "uint256",
          "name": "",
          "type": "uint256"
        }
      ],
      "stateMutability": "view",
      "type": "function"
    },
    {
      "inputs": [
        {
          "internalType": "address",
          "name": "spender",
          "type": "address"
        },
        {
          "internalType": "uint256",
          "name": "amount",
          "type": "uint256"
        }
      ],
      "name": "approve",
      "outputs": [
        {
          "internalType": "bool",
          "name": "",
          "type": "bool"
        }
      ],
      "stateMutability": "nonpayable",
      "type": "function"
    },
    {
      "inputs": [
        {
          "internalType": "address",
          "name": "account",
          "type": "address"
        }
      ],
      "name": "balanceOf",
      "outputs": [
        {
          "internalType": "uint256",
          "name": "",
          "type": "uint256"
        }
      ],
      "stateMutability": "view",
      "type": "function"
    },
    {
      "inputs": [
        {
          "internalType": "uint256",
          "name": "amount",
          "type": "uint256"
        }
      ],
      "name": "burn",
      "outputs": [],
      "stateMutability": "nonpayable",
      "type": "function"
    },
    {
      "inputs": [
        {
          "internalType": "address",
          "name": "account",
          "type": "address"
        },
        {
          "internalType": "uint256",
          "name": "amount",
          "type": "uint256"
        }
      ],
      "name": "burnFrom",
      "outputs": [],
      "stateMutability": "nonpayable",
      "type": "function"
    },
    {
      "inputs": [],
      "name": "decimals",
      "outputs": [
        {
          "internalType": "uint8",
          "name": "",
          "type": "uint8"
        }
      ],
      "stateMutability": "view",
      "type": "function"
    },
    {
      "inputs": [
        {
          "internalType": "address",
          "name": "spender",
          "type": "address"
        },
        {
          "internalType": "uint256",
          "name": "subtractedValue",
          "type": "uint256"
        }
      ],
      "name": "decreaseAllowance",
      "outputs": [
        {
          "internalType": "bool",
          "name": "",
          "type": "bool"
        }
      ],
      "stateMutability": "nonpayable",
      "type": "function"
    },
    {
      "inputs": [
        {
          "internalType": "address",
          "name": "spender",
          "type": "address"
        },
        {
          "internalType": "uint256",
          "name": "addedValue",
          "type": "uint256"
        }
      ],
      "name": "increaseAllowance",
      "outputs": [
        {
          "internalType": "bool",
          "name": "",
          "type": "bool"
        }
      ],
      "stateMutability": "nonpayable",
      "type": "function"
    },
    {
      "inputs": [],
      "name": "name",
      "outputs": [
        {
          "internalType": "string",
          "name": "",
          "type": "string"
        }
      ],
      "stateMutability": "view",
      "type": "function"
    },
    {
      "inputs": [],
      "name": "symbol",
      "outputs": [
        {
          "internalType": "string",
          "name": "",
          "type": "string"
        }
      ],
      "stateMutability": "view",
      "type": "function"
    },
    {
      "inputs": [],
      "name": "totalSupply",
      "outputs": [
        {
          "internalType": "uint256",
          "name": "",
          "type": "uint256"
        }
      ],
      "stateMutability": "view",
      "type": "function"
    },
    {
      "inputs": [
        {
          "internalType": "address",
          "name": "to",
          "type": "address"
        },
        {
          "internalType": "uint256",
          "name": "amount",
          "type": "uint256"
        }
      ],
      "name": "transfer",
      "outputs": [
        {
          "internalType": "bool",
          "name": "",
          "type": "bool"
        }
      ],
      "stateMutability": "nonpayable",
      "type": "function"
    },
    {
      "inputs": [
        {
          "internalType": "address",
          "name": "from",
          "type": "address"
        },
        {
          "internalType": "address",
          "name": "to",
          "type": "address"
        },
        {
          "internalType": "uint256",
          "name": "amount",
          "type": "uint256"
        }
      ],
      "name": "transferFrom",
      "outputs": [
        {
          "internalType": "bool",
          "name": "",
          "type": "bool"
        }
      ],
      "stateMutability": "nonpayable",
      "type": "function"
    },
    {
      "inputs": [
        {
          "internalType": "address",
          "name": "",
          "type": "address"
        }
      ],
      "name": "vestedStakingContractPerUser",
      "outputs": [
        {
          "internalType": "contract VestedStaking",
          "name": "",
          "type": "address"
        }
      ],
      "stateMutability": "view",
      "type": "function"
    },
    {
      "inputs": [
        {
          "internalType": "uint256",
          "name": "amount",
          "type": "uint256"
        }
      ],
      "name": "vest",
      "outputs": [],
      "stateMutability": "nonpayable",
      "type": "function"
    }
  ],
  "bytecode": "0x60806040523480156200001157600080fd5b506040516200256a3803806200256a83398101604081905262000034916200015b565b6040518060400160405280600a81526020017f56657374656420435358000000000000000000000000000000000000000000008152506040518060400160405280600481526020017f764353580000000000000000000000000000000000000000000000000000000081525060016000819055508160049081620000b99190620002b3565b506005620000c88282620002b3565b505060068054600160a060020a0319908116600160a060020a03998a161790915560078054821697891697909717909655506008805486169487169490941790935560098054851692861692909217909155600a80548416918516919091179055600b8054909216921691909117905562000386565b8051600160a060020a03811681146200015657600080fd5b919050565b60008060008060008060c087890312156200017557600080fd5b62000180876200013e565b955062000190602088016200013e565b9450620001a0604088016200013e565b9350620001b0606088016200013e565b9250620001c0608088016200013e565b9150620001d060a088016200013e565b90509295509295509295565b7f4e487b7100000000000000000000000000000000000000000000000000000000600052604160045260246000fd5b6002810460018216806200022057607f821691505b6020821081036200025a577f4e487b7100000000000000000000000000000000000000000000000000000000600052602260045260246000fd5b50919050565b601f821115620002ae576000818152602081206020601f86010481016020861015620002895750805b6020601f860104820191505b81811015620002aa5782815560010162000295565b5050505b505050565b815167ffffffffffffffff811115620002d057620002d0620001dc565b620002e881620002e184546200020b565b8462000260565b602080601f831160018114620003245760008415620003075750858301515b60028086026008870290910a6000190419821617865550620002aa565b600085815260208120601f198616915b82811015620003555788860151825594840194600190910190840162000334565b50858210156200037657878501516008601f88160260020a60001904191681555b5050505050600202600101905550565b6121d480620003966000396000f3fe60806040523480156200001157600080fd5b50600436106200019c576000357c01000000000000000000000000000000000000000000000000000000009004806379cc679011620000f5578063a9059cbb11620000b4578063c54e44eb116200008b578063c54e44eb1462000377578063dd62ed3e146200038b578063e3885a6214620003c757600080fd5b8063a9059cbb1462000338578063ad5c4648146200034f578063c1456ab0146200036357600080fd5b806379cc679014620002d857806389a3027114620002ef57806394469837146200030357806395d89b411462000317578063a457c2d7146200032157600080fd5b806332cb6b0c116200015f57806359d6613e116200013657806359d6613e14620002685780636a760b80146200029557806370a0823114620002ac57600080fd5b806332cb6b0c146200022557806339509351146200023857806342966c68146200024f57600080fd5b806306fdde0314620001a1578063095ea7b314620001c357806318160ddd14620001eb57806323b872dd14620001fe578063313ce5671462000215575b600080fd5b620001ab620003f3565b604051620001ba919062001105565b60405180910390f35b620001da620001d436600462001172565b6200048d565b6040519015158152602001620001ba565b6003545b604051908152602001620001ba565b620001da6200020f3660046200119f565b620004a9565b60405160128152602001620001ba565b620001ef6a52b7d2dcc80cd2e400000081565b620001da6200024936600462001172565b620004d1565b6200026662000260366004620011e0565b62000514565b005b6007546200027c90600160a060020a031681565b604051600160a060020a039091168152602001620001ba565b62000266620002a6366004620011e0565b62000523565b620001ef620002bd366004620011fa565b600160a060020a031660009081526001602052604090205490565b62000266620002e936600462001172565b620008b2565b6009546200027c90600160a060020a031681565b600a546200027c90600160a060020a031681565b620001ab620008cb565b620001da6200033236600462001172565b620008dc565b620001da6200034936600462001172565b6200098d565b6008546200027c90600160a060020a031681565b6006546200027c90600160a060020a031681565b600b546200027c90600160a060020a031681565b620001ef6200039c3660046200121f565b600160a060020a03918216600090815260026020908152604080832093909416825291909152205490565b6200027c620003d8366004620011fa565b600c60205260009081526040902054600160a060020a031681565b606060048054620004049062001257565b80601f0160208091040260200160405190810160405280929190818152602001828054620004329062001257565b8015620004835780601f10620004575761010080835404028352916020019162000483565b820191906000526020600020905b8154815290600101906020018083116200046557829003601f168201915b5050505050905090565b6000336200049d8185856200099d565b60019150505b92915050565b600033620004b985828562000b00565b620004c685858562000b9a565b506001949350505050565b336000818152600260209081526040808320600160a060020a03871684529091528120549091906200049d90829086906200050e908790620012ac565b6200099d565b62000520338262000dac565b50565b806a52b7d2dcc80cd2e40000006200053a60035490565b620005469083620012ac565b11156200059d5760405160e560020a62461bcd02815260206004820152601b60248201527f616d6f756e7420737572706173736573206d617820737570706c79000000000060448201526064015b60405180910390fd5b620005a762000f28565b60008211620005fc5760405160e560020a62461bcd02815260206004820152601d60248201527f416d6f756e74206d7573742062652067726561746572207468616e2030000000604482015260640162000594565b6006546040517f79cc679000000000000000000000000000000000000000000000000000000000815233600482015260248101849052600160a060020a03909116906379cc679090604401600060405180830381600087803b1580156200066257600080fd5b505af115801562000677573d6000803e3d6000fd5b5050505062000687338362000f86565b336000908152600c6020526040902054600160a060020a03166200077857600754600a54600954600b546008546040513395600160a060020a03908116953095908216949082169390821692911690620006e190620010f7565b600160a060020a03978816815295871660208701529386166040860152918516606085015284166080840152831660a083015290911660c082015260e001604051809103906000f0801580156200073c573d6000803e3d6000fd5b50336000908152600c60205260409020805473ffffffffffffffffffffffffffffffffffffffff1916600160a060020a03929092169190911790555b600a54336000908152600c6020526040908190205490517f095ea7b3000000000000000000000000000000000000000000000000000000008152600160a060020a0391821660048201526024810185905291169063095ea7b3906044016020604051808303816000875af1158015620007f5573d6000803e3d6000fd5b505050506040513d601f19601f820116820180604052508101906200081b9190620012e7565b50336000908152600c6020526040908190205490517fb6b55f2500000000000000000000000000000000000000000000000000000000815260048101849052600160a060020a039091169063b6b55f2590602401600060405180830381600087803b1580156200088a57600080fd5b505af11580156200089f573d6000803e3d6000fd5b50505050620008ae6001600055565b5050565b620008bf82338362000b00565b620008ae828262000dac565b606060058054620004049062001257565b336000818152600260209081526040808320600160a060020a0387168452909152812054909190838110156200097e5760405160e560020a62461bcd02815260206004820152602560248201527f45524332303a2064656372656173656420616c6c6f77616e63652062656c6f7760448201527f207a65726f000000000000000000000000000000000000000000000000000000606482015260840162000594565b620004c682868684036200099d565b6000336200049d81858562000b9a565b600160a060020a03831662000a1d5760405160e560020a62461bcd028152602060048201526024808201527f45524332303a20617070726f76652066726f6d20746865207a65726f2061646460448201527f7265737300000000000000000000000000000000000000000000000000000000606482015260840162000594565b600160a060020a03821662000a9e5760405160e560020a62461bcd02815260206004820152602260248201527f45524332303a20617070726f766520746f20746865207a65726f20616464726560448201527f7373000000000000000000000000000000000000000000000000000000000000606482015260840162000594565b600160a060020a0383811660008181526002602090815260408083209487168084529482529182902085905590518481527f8c5be1e5ebec7d5bd14f71427d1e84f3dd0314c0f7b2291e5b200ac8c7c3b92591015b60405180910390a3505050565b600160a060020a03838116600090815260026020908152604080832093861683529290522054600019811462000b94578181101562000b855760405160e560020a62461bcd02815260206004820152601d60248201527f45524332303a20696e73756666696369656e7420616c6c6f77616e6365000000604482015260640162000594565b62000b9484848484036200099d565b50505050565b600160a060020a03831662000c1b5760405160e560020a62461bcd02815260206004820152602560248201527f45524332303a207472616e736665722066726f6d20746865207a65726f20616460448201527f6472657373000000000000000000000000000000000000000000000000000000606482015260840162000594565b600160a060020a03821662000c9c5760405160e560020a62461bcd02815260206004820152602360248201527f45524332303a207472616e7366657220746f20746865207a65726f206164647260448201527f6573730000000000000000000000000000000000000000000000000000000000606482015260840162000594565b62000ca98383836200105c565b600160a060020a0383166000908152600160205260409020548181101562000d3d5760405160e560020a62461bcd02815260206004820152602660248201527f45524332303a207472616e7366657220616d6f756e742065786365656473206260448201527f616c616e63650000000000000000000000000000000000000000000000000000606482015260840162000594565b600160a060020a0380851660008181526001602052604080822086860390559286168082529083902080548601905591517fddf252ad1be2c89b69c2b068fc378daa952ba7f163c4a11628f55a4df523b3ef9062000d9e9086815260200190565b60405180910390a362000b94565b600160a060020a03821662000e2d5760405160e560020a62461bcd02815260206004820152602160248201527f45524332303a206275726e2066726f6d20746865207a65726f2061646472657360448201527f7300000000000000000000000000000000000000000000000000000000000000606482015260840162000594565b62000e3b826000836200105c565b600160a060020a0382166000908152600160205260409020548181101562000ecf5760405160e560020a62461bcd02815260206004820152602260248201527f45524332303a206275726e20616d6f756e7420657863656564732062616c616e60448201527f6365000000000000000000000000000000000000000000000000000000000000606482015260840162000594565b600160a060020a03831660008181526001602090815260408083208686039055600380548790039055518581529192917fddf252ad1be2c89b69c2b068fc378daa952ba7f163c4a11628f55a4df523b3ef910162000af3565b60026000540362000f7f5760405160e560020a62461bcd02815260206004820152601f60248201527f5265656e7472616e637947756172643a207265656e7472616e742063616c6c00604482015260640162000594565b6002600055565b600160a060020a03821662000fe15760405160e560020a62461bcd02815260206004820152601f60248201527f45524332303a206d696e7420746f20746865207a65726f206164647265737300604482015260640162000594565b62000fef600083836200105c565b8060036000828254620010039190620012ac565b9091555050600160a060020a0382166000818152600160209081526040808320805486019055518481527fddf252ad1be2c89b69c2b068fc378daa952ba7f163c4a11628f55a4df523b3ef910160405180910390a35050565b600160a060020a03831615806200107a5750600160a060020a038216155b156200108557505050565b60405160e560020a62461bcd02815260206004820152603360248201527f4e6f6e5472616e7366657261626c65546f6b656e3a20546f6b656e207472616e60448201527f7366657273206172652064697361626c65642e00000000000000000000000000606482015260840162000594565b610e93806200130c83390190565b600060208083528351808285015260005b81811015620011345785810183015185820160400152820162001116565b506000604082860101526040601f19601f8301168501019250505092915050565b8035600160a060020a03811681146200116d57600080fd5b919050565b600080604083850312156200118657600080fd5b620011918362001155565b946020939093013593505050565b600080600060608486031215620011b557600080fd5b620011c08462001155565b9250620011d06020850162001155565b9150604084013590509250925092565b600060208284031215620011f357600080fd5b5035919050565b6000602082840312156200120d57600080fd5b620012188262001155565b9392505050565b600080604083850312156200123357600080fd5b6200123e8362001155565b91506200124e6020840162001155565b90509250929050565b6002810460018216806200126c57607f821691505b602082108103620012a6577f4e487b7100000000000000000000000000000000000000000000000000000000600052602260045260246000fd5b50919050565b80820180821115620004a3577f4e487b7100000000000000000000000000000000000000000000000000000000600052601160045260246000fd5b600060208284031215620012fa57600080fd5b815180151581146200121857600080fdfe60806040523480156200001157600080fd5b5060405162000e9338038062000e938339810160408190526200003491620000d3565b60028054600160a060020a0319908116600160a060020a03998a161790915560038054821697891697909717909655600480548716958816959095179094556005805486169387169390931790925560068054851691861691909117905560078054841691851691909117905560088054909216921691909117905562000168565b8051600160a060020a0381168114620000ce57600080fd5b919050565b600080600080600080600060e0888a031215620000ef57600080fd5b620000fa88620000b6565b96506200010a60208901620000b6565b95506200011a60408901620000b6565b94506200012a60608901620000b6565b93506200013a60808901620000b6565b92506200014a60a08901620000b6565b91506200015a60c08901620000b6565b905092959891949750929550565b610d1b80620001786000396000f3fe608060405234801561001057600080fd5b50600436106100f1576000357c01000000000000000000000000000000000000000000000000000000009004806372d05a521161009e578063b6b55f2511610078578063b6b55f25146101d6578063da61ead4146101e9578063ff04c5ee146101fc57600080fd5b806372d05a521461019d578063a639a300146101b0578063a98ad46c146101c357600080fd5b806344c63eec116100cf57806344c63eec146101545780634b57b0be146101775780634bbc52f51461018a57600080fd5b80630197d972146100f657806311eac855146101145780632e1a7d4d1461013f575b600080fd5b6101016303b5380081565b6040519081526020015b60405180910390f35b60065461012790600160a060020a031681565b604051600160a060020a03909116815260200161010b565b61015261014d366004610b92565b61020f565b005b600054600154610162919082565b6040805192835260208301919091520161010b565b60085461012790600160a060020a031681565b610152610198366004610bbc565b6104d9565b60045461012790600160a060020a031681565b60055461012790600160a060020a031681565b60075461012790600160a060020a031681565b6101526101e4366004610b92565b61090d565b60025461012790600160a060020a031681565b60035461012790600160a060020a031681565b600254600160a060020a0316331461027657604051600080516020610cc6833981519152815260206004820152600b60248201527f4f6e6c79206f776e65722e00000000000000000000000000000000000000000060448201526064015b60405180910390fd5b6000548111156102d057604051600080516020610cc6833981519152815260206004820152601260248201527f4e6f7420656e6f75676820746f6b656e732e0000000000000000000000000000604482015260640161026d565b6001546102e2906303b5380090610c47565b42101561033957604051600080516020610cc6833981519152815260206004820152601860248201527f546f6b656e7320617265207374696c6c206c6f636b65642e0000000000000000604482015260640161026d565b8060008001600082825461034d9190610c60565b9091555050600480546040517f79cc6790000000000000000000000000000000000000000000000000000000008152339281019290925260248201839052600160a060020a0316906379cc679090604401600060405180830381600087803b1580156103b857600080fd5b505af11580156103cc573d6000803e3d6000fd5b50506003546040517f5d3eea9100000000000000000000000000000000000000000000000000000000815260048101859052600160a060020a039091169250635d3eea919150602401600060405180830381600087803b15801561042f57600080fd5b505af1158015610443573d6000803e3d6000fd5b50506005546040517fa9059cbb00000000000000000000000000000000000000000000000000000000815233600482015260248101859052600160a060020a03909116925063a9059cbb91506044016020604051808303816000875af11580156104b1573d6000803e3d6000fd5b505050506040513d601f19601f820116820180604052508101906104d59190610c73565b5050565b600254600160a060020a0316331461053b57604051600080516020610cc6833981519152815260206004820152600b60248201527f4f6e6c79206f776e65722e000000000000000000000000000000000000000000604482015260640161026d565b6003546040517fe12f3a6100000000000000000000000000000000000000000000000000000000815230600482015260009182918291600160a060020a03169063e12f3a6190602401606060405180830381865afa1580156105a1573d6000803e3d6000fd5b505050506040513d601f19601f820116820180604052508101906105c59190610c97565b6003546040517fd61bf3f80000000000000000000000000000000000000000000000000000000081528b151560048201528a15156024820152891515604482015288151560648201529396509194509250600160a060020a03169063d61bf3f890608401600060405180830381600087803b15801561064357600080fd5b505af1158015610657573d6000803e3d6000fd5b5050505086801561066757508215155b156106fc576006546040517fa9059cbb00000000000000000000000000000000000000000000000000000000815233600482015260248101859052600160a060020a039091169063a9059cbb906044016020604051808303816000875af11580156106d6573d6000803e3d6000fd5b505050506040513d601f19601f820116820180604052508101906106fa9190610c73565b505b85801561070857508115155b1561079d576007546040517fa9059cbb00000000000000000000000000000000000000000000000000000000815233600482015260248101849052600160a060020a039091169063a9059cbb906044016020604051808303816000875af1158015610777573d6000803e3d6000fd5b505050506040513d601f19601f8201168201806040525081019061079b9190610c73565b505b8480156107a8575083155b80156107b357508015155b15610848576008546040517fa9059cbb00000000000000000000000000000000000000000000000000000000815233600482015260248101839052600160a060020a039091169063a9059cbb906044016020604051808303816000875af1158015610822573d6000803e3d6000fd5b505050506040513d601f19601f820116820180604052508101906108469190610c73565b505b8480156108525750835b801561085d57508015155b1561090457604051600090339083908381818185875af1925050503d80600081146108a4576040519150601f19603f3d011682016040523d82523d6000602084013e6108a9565b606091505b505090508061090257604051600080516020610cc6833981519152815260206004820152601060248201527f5472616e73666572206661696c65642e00000000000000000000000000000000604482015260640161026d565b505b50505050505050565b600454600160a060020a0316331461096f57604051600080516020610cc6833981519152815260206004820152601360248201527f4f6e6c79207643535820636f6e74726163742e00000000000000000000000000604482015260640161026d565b6005546040517f23b872dd00000000000000000000000000000000000000000000000000000000815233600482015230602482015260448101839052600160a060020a03909116906323b872dd906064016020604051808303816000875af11580156109df573d6000803e3d6000fd5b505050506040513d601f19601f82011682018060405250810190610a039190610c73565b610a5757604051600080516020610cc6833981519152815260206004820152600f60248201527f6465706f736974206661696c65642e0000000000000000000000000000000000604482015260640161026d565b6005546003546040517f095ea7b3000000000000000000000000000000000000000000000000000000008152600160a060020a0391821660048201526024810184905291169063095ea7b3906044016020604051808303816000875af1158015610ac5573d6000803e3d6000fd5b505050506040513d601f19601f82011682018060405250810190610ae99190610c73565b506003546040517fa694fc3a00000000000000000000000000000000000000000000000000000000815260048101839052600160a060020a039091169063a694fc3a90602401600060405180830381600087803b158015610b4957600080fd5b505af1158015610b5d573d6000803e3d6000fd5b505050506040518060400160405280826000800154610b7c9190610c47565b8152426020918201528151600055015160015550565b600060208284031215610ba457600080fd5b5035919050565b8015158114610bb957600080fd5b50565b60008060008060808587031215610bd257600080fd5b8435610bdd81610bab565b93506020850135610bed81610bab565b92506040850135610bfd81610bab565b91506060850135610c0d81610bab565b939692955090935050565b7f4e487b7100000000000000000000000000000000000000000000000000000000600052601160045260246000fd5b80820180821115610c5a57610c5a610c18565b92915050565b81810381811115610c5a57610c5a610c18565b600060208284031215610c8557600080fd5b8151610c9081610bab565b9392505050565b600080600060608486031215610cac57600080fd5b835192506020840151915060408401519050925092509256fe08c379a000000000000000000000000000000000000000000000000000000000a26469706673582212200049d3d7ed50a1ae7364eba6143a8b19ce5b43a08bcf889905d114b51cab600d64736f6c63430008130033a2646970667358221220031ae2050b9bf001844c907b4e38f8a620c63d32a4d3e13ffc9e05bfe60cbb7864736f6c63430008130033",
  "immutableReferences": {},
  "source": "// SPDX-License-Identifier: MIT\r\n// CSX Vesting Contract v2\r\n\r\npragma solidity 0.8.19;\r\n\r\nimport {ERC20, IERC20, ReentrancyGuard, IWETH, IERC20Burnable} from \"./Interfaces.sol\";\r\nimport \"@openzeppelin/contracts/token/ERC20/extensions/ERC20Burnable.sol\";\r\n\r\nimport \"./VestedStaking.sol\";\r\n\r\ncontract VestedCSX is ReentrancyGuard, ERC20Burnable {\r\n    IERC20Burnable public EscrowedCSX;\r\n    IStakedCSX public StakedCSX;\r\n    IWETH public WETH;\r\n    IERC20 public USDC;     \r\n    IERC20 public CSX;\r\n    IERC20 public USDT;\r\n\r\n    uint256 public constant MAX_SUPPLY = 100000000 ether;\r\n\r\n    modifier mintable(uint256 amount) {\r\n        require(\r\n            amount + totalSupply() <= MAX_SUPPLY,\r\n            \"amount surpasses max supply\"\r\n        );\r\n        _;\r\n    }\r\n\r\n    constructor(\r\n        address _eCsxAddress,\r\n        address _sCsxAddress,\r\n        address _wethAddress,\r\n        address _usdcAddress,\r\n        address _csxAddress,\r\n        address _usdtAddress\r\n    ) ERC20(\"Vested CSX\", \"vCSX\") {\r\n        EscrowedCSX = IERC20Burnable(_eCsxAddress);\r\n        StakedCSX = IStakedCSX(_sCsxAddress);\r\n        WETH = IWETH(_wethAddress);\r\n        USDC = IERC20(_usdcAddress);\r\n        CSX = IERC20(_csxAddress);\r\n        USDT = IERC20(_usdtAddress);\r\n    }\r\n\r\n    //=================================== EXTERNAL ==============================================\r\n\r\n    mapping(address => VestedStaking) public vestedStakingContractPerUser;\r\n\r\n    function vest(uint256 amount) external mintable(amount) nonReentrant {\r\n        require(amount > 0, \"Amount must be greater than 0\"); // To prevent users wasting gas\r\n\r\n        // Burn the deposited escrow tokens\r\n        EscrowedCSX.burnFrom(msg.sender, amount);\r\n\r\n        // Mint vCSX tokens to the user\r\n        _mint(msg.sender, amount);\r\n\r\n        // Create VestedStaking Contract if it doesn't exist\r\n        if (address(vestedStakingContractPerUser[msg.sender]) == address(0)) {\r\n            vestedStakingContractPerUser[msg.sender] = new VestedStaking(\r\n                address(msg.sender),\r\n                address(StakedCSX),\r\n                address(this),\r\n                address(CSX),\r\n                address(USDC),\r\n                address(USDT),\r\n                address(WETH)\r\n            );\r\n        } \r\n\r\n        // Approve VestedStaking Contract to transfer CSX tokens\r\n        CSX.approve(address(vestedStakingContractPerUser[msg.sender]), amount);\r\n\r\n        // Deposit CSX tokens to VestedStaking Contract for the user\r\n        vestedStakingContractPerUser[msg.sender].deposit(amount);\r\n    }\r\n\r\n    //=================================== INTERNAL ==============================================\r\n    function _beforeTokenTransfer(\r\n        address from,\r\n        address to,\r\n        uint256 amount\r\n    ) internal override {\r\n        super._beforeTokenTransfer(from, to, amount);\r\n        if (from == address(0) || to == address(0)) return;\r\n        revert(\"NonTransferableToken: Token transfers are disabled.\");\r\n    }\r\n}\r\n",
  "sourcePath": "C:\\Users\\Charl\\Documents\\Projects\\SteamMarket\\CSX\\csx-contracts\\contracts\\CSX\\VestedCSX.sol",
  "compiler": {
    "name": "solc",
    "version": "0.8.19+commit.7dd6d404.Emscripten.clang"
  },
  "schemaVersion": "3.4.3",
  "updatedAt": "2023-05-26T09:22:03.152Z",
  "devdoc": {
    "events": {
      "Approval(address,address,uint256)": {
        "details": "Emitted when the allowance of a `spender` for an `owner` is set by a call to {approve}. `value` is the new allowance."
      },
      "Transfer(address,address,uint256)": {
        "details": "Emitted when `value` tokens are moved from one account (`from`) to another (`to`). Note that `value` may be zero."
      }
    },
    "kind": "dev",
    "methods": {
      "allowance(address,address)": {
        "details": "See {IERC20-allowance}."
      },
      "approve(address,uint256)": {
        "details": "See {IERC20-approve}. NOTE: If `amount` is the maximum `uint256`, the allowance is not updated on `transferFrom`. This is semantically equivalent to an infinite approval. Requirements: - `spender` cannot be the zero address."
      },
      "balanceOf(address)": {
        "details": "See {IERC20-balanceOf}."
      },
      "burn(uint256)": {
        "details": "Destroys `amount` tokens from the caller. See {ERC20-_burn}."
      },
      "burnFrom(address,uint256)": {
        "details": "Destroys `amount` tokens from `account`, deducting from the caller's allowance. See {ERC20-_burn} and {ERC20-allowance}. Requirements: - the caller must have allowance for ``accounts``'s tokens of at least `amount`."
      },
      "decimals()": {
        "details": "Returns the number of decimals used to get its user representation. For example, if `decimals` equals `2`, a balance of `505` tokens should be displayed to a user as `5.05` (`505 / 10 ** 2`). Tokens usually opt for a value of 18, imitating the relationship between Ether and Wei. This is the value {ERC20} uses, unless this function is overridden; NOTE: This information is only used for _display_ purposes: it in no way affects any of the arithmetic of the contract, including {IERC20-balanceOf} and {IERC20-transfer}."
      },
      "decreaseAllowance(address,uint256)": {
        "details": "Atomically decreases the allowance granted to `spender` by the caller. This is an alternative to {approve} that can be used as a mitigation for problems described in {IERC20-approve}. Emits an {Approval} event indicating the updated allowance. Requirements: - `spender` cannot be the zero address. - `spender` must have allowance for the caller of at least `subtractedValue`."
      },
      "increaseAllowance(address,uint256)": {
        "details": "Atomically increases the allowance granted to `spender` by the caller. This is an alternative to {approve} that can be used as a mitigation for problems described in {IERC20-approve}. Emits an {Approval} event indicating the updated allowance. Requirements: - `spender` cannot be the zero address."
      },
      "name()": {
        "details": "Returns the name of the token."
      },
      "symbol()": {
        "details": "Returns the symbol of the token, usually a shorter version of the name."
      },
      "totalSupply()": {
        "details": "See {IERC20-totalSupply}."
      },
      "transfer(address,uint256)": {
        "details": "See {IERC20-transfer}. Requirements: - `to` cannot be the zero address. - the caller must have a balance of at least `amount`."
      },
      "transferFrom(address,address,uint256)": {
        "details": "See {IERC20-transferFrom}. Emits an {Approval} event indicating the updated allowance. This is not required by the EIP. See the note at the beginning of {ERC20}. NOTE: Does not update the allowance if the current allowance is the maximum `uint256`. Requirements: - `from` and `to` cannot be the zero address. - `from` must have a balance of at least `amount`. - the caller must have allowance for ``from``'s tokens of at least `amount`."
      }
    },
    "version": 1
  },
  "userdoc": {
    "kind": "user",
    "methods": {},
    "version": 1
  }
}