{
  "contractName": "VestedStaking",
  "abi": [
    {
      "inputs": [
        {
          "internalType": "address",
          "name": "_vesterAddress",
          "type": "address"
        },
        {
          "internalType": "address",
          "name": "_sCsxTokenAddress",
          "type": "address"
        },
        {
          "internalType": "address",
          "name": "_vCsxTokenAddress",
          "type": "address"
        },
        {
          "internalType": "address",
          "name": "_csxTokenAddress",
          "type": "address"
        },
        {
          "internalType": "address",
          "name": "_usdcTokenAddress",
          "type": "address"
        },
        {
          "internalType": "address",
          "name": "_usdtTokenAddress",
          "type": "address"
        },
        {
          "internalType": "address",
          "name": "_wethTokenAddress",
          "type": "address"
        }
      ],
      "stateMutability": "nonpayable",
      "type": "constructor"
    },
    {
      "inputs": [],
      "name": "VESTING_PERIOD",
      "outputs": [
        {
          "internalType": "uint256",
          "name": "",
          "type": "uint256"
        }
      ],
      "stateMutability": "view",
      "type": "function"
    },
    {
      "inputs": [],
      "name": "csxToken",
      "outputs": [
        {
          "internalType": "contract IERC20",
          "name": "",
          "type": "address"
        }
      ],
      "stateMutability": "view",
      "type": "function"
    },
    {
      "inputs": [],
      "name": "sCsxToken",
      "outputs": [
        {
          "internalType": "contract IStakedCSX",
          "name": "",
          "type": "address"
        }
      ],
      "stateMutability": "view",
      "type": "function"
    },
    {
      "inputs": [],
      "name": "usdcToken",
      "outputs": [
        {
          "internalType": "contract IERC20",
          "name": "",
          "type": "address"
        }
      ],
      "stateMutability": "view",
      "type": "function"
    },
    {
      "inputs": [],
      "name": "usdtToken",
      "outputs": [
        {
          "internalType": "contract IERC20",
          "name": "",
          "type": "address"
        }
      ],
      "stateMutability": "view",
      "type": "function"
    },
    {
      "inputs": [],
      "name": "vCsxToken",
      "outputs": [
        {
          "internalType": "contract IERC20Burnable",
          "name": "",
          "type": "address"
        }
      ],
      "stateMutability": "view",
      "type": "function"
    },
    {
      "inputs": [],
      "name": "vesterAddress",
      "outputs": [
        {
          "internalType": "address",
          "name": "",
          "type": "address"
        }
      ],
      "stateMutability": "view",
      "type": "function"
    },
    {
      "inputs": [],
      "name": "vesting",
      "outputs": [
        {
          "internalType": "uint256",
          "name": "amount",
          "type": "uint256"
        },
        {
          "internalType": "uint256",
          "name": "startTime",
          "type": "uint256"
        }
      ],
      "stateMutability": "view",
      "type": "function"
    },
    {
      "inputs": [],
      "name": "wethToken",
      "outputs": [
        {
          "internalType": "contract IERC20",
          "name": "",
          "type": "address"
        }
      ],
      "stateMutability": "view",
      "type": "function"
    },
    {
      "inputs": [
        {
          "internalType": "uint256",
          "name": "amount",
          "type": "uint256"
        }
      ],
      "name": "deposit",
      "outputs": [],
      "stateMutability": "nonpayable",
      "type": "function"
    },
    {
      "inputs": [
        {
          "internalType": "bool",
          "name": "claimUsdc",
          "type": "bool"
        },
        {
          "internalType": "bool",
          "name": "claimUsdt",
          "type": "bool"
        },
        {
          "internalType": "bool",
          "name": "claimWeth",
          "type": "bool"
        },
        {
          "internalType": "bool",
          "name": "convertWethToEth",
          "type": "bool"
        }
      ],
      "name": "claimRewards",
      "outputs": [],
      "stateMutability": "nonpayable",
      "type": "function"
    },
    {
      "inputs": [
        {
          "internalType": "uint256",
          "name": "amount",
          "type": "uint256"
        }
      ],
      "name": "withdraw",
      "outputs": [],
      "stateMutability": "nonpayable",
      "type": "function"
    }
  ],
  "bytecode": "0x608060405234801561001057600080fd5b50604051610cb3380380610cb383398101604081905261002f916100cc565b60028054600160a060020a0319908116600160a060020a03998a1617909155600380548216978916979097179096556004805487169588169590951790945560058054861693871693909317909255600680548516918616919091179055600780548416918516919091179055600880549092169216919091179055610152565b8051600160a060020a03811681146100c757600080fd5b919050565b600080600080600080600060e0888a0312156100e757600080fd5b6100f0886100b0565b96506100fe602089016100b0565b955061010c604089016100b0565b945061011a606089016100b0565b9350610128608089016100b0565b925061013660a089016100b0565b915061014460c089016100b0565b905092959891949750929550565b610b52806101616000396000f3fe608060405234801561001057600080fd5b50600436106100a75760e060020a60003504630197d97281146100ac57806311eac855146100ca5780632e1a7d4d146100ea57806344c63eec146100ff5780634b57b0be146101225780634bbc52f51461013557806372d05a5214610148578063a639a3001461015b578063a98ad46c1461016e578063b6b55f2514610181578063da61ead414610194578063ff04c5ee146101a7575b600080fd5b6100b76303b5380081565b6040519081526020015b60405180910390f35b6006546100dd90600160a060020a031681565b6040516100c191906109a9565b6100fd6100f83660046109bd565b6101ba565b005b60005460015461010d919082565b604080519283526020830191909152016100c1565b6008546100dd90600160a060020a031681565b6100fd6101433660046109e7565b6103fb565b6004546100dd90600160a060020a031681565b6005546100dd90600160a060020a031681565b6007546100dd90600160a060020a031681565b6100fd61018f3660046109bd565b610782565b6002546100dd90600160a060020a031681565b6003546100dd90600160a060020a031681565b600254600160a060020a031633146101f05760405160e560020a62461bcd0281526004016101e790610a43565b60405180910390fd5b60005481111561023d5760405160e560020a62461bcd0281526020600482015260126024820152607160020a712737ba1032b737bab3b4103a37b5b2b739970260448201526064016101e7565b60015461024f906303b5380090610a85565b42101561029f5760405160e560020a62461bcd0281526020600482015260186024820152604160020a772a37b5b2b7399030b9329039ba34b636103637b1b5b2b2170260448201526064016101e7565b806000800160008282546102b39190610a9e565b90915550506004805460405160e460020a63079cc679028152600160a060020a03909116916379cc6790916102ec913391869101610ab1565b600060405180830381600087803b15801561030657600080fd5b505af115801561031a573d6000803e3d6000fd5b505060035460405160e060020a635d3eea9102815260048101859052600160a060020a039091169250635d3eea919150602401600060405180830381600087803b15801561036757600080fd5b505af115801561037b573d6000803e3d6000fd5b505060055460405160e060020a63a9059cbb028152600160a060020a03909116925063a9059cbb91506103b49033908590600401610ab1565b6020604051808303816000875af11580156103d3573d6000803e3d6000fd5b505050506040513d601f19601f820116820180604052508101906103f79190610aca565b5050565b600254600160a060020a031633146104285760405160e560020a62461bcd0281526004016101e790610a43565b60035460405160e060020a63e12f3a6102815260009182918291600160a060020a03169063e12f3a61906104609030906004016109a9565b606060405180830381865afa15801561047d573d6000803e3d6000fd5b505050506040513d601f19601f820116820180604052508101906104a19190610aee565b60035460405160e360020a631ac37e7f0281528b151560048201528a15156024820152891515604482015288151560648201529396509194509250600160a060020a03169063d61bf3f890608401600060405180830381600087803b15801561050957600080fd5b505af115801561051d573d6000803e3d6000fd5b5050505086801561052d57508215155b156105ac5760065460405160e060020a63a9059cbb028152600160a060020a039091169063a9059cbb906105679033908790600401610ab1565b6020604051808303816000875af1158015610586573d6000803e3d6000fd5b505050506040513d601f19601f820116820180604052508101906105aa9190610aca565b505b8580156105b857508115155b156106375760075460405160e060020a63a9059cbb028152600160a060020a039091169063a9059cbb906105f29033908690600401610ab1565b6020604051808303816000875af1158015610611573d6000803e3d6000fd5b505050506040513d601f19601f820116820180604052508101906106359190610aca565b505b848015610642575083155b801561064d57508015155b156106cc5760085460405160e060020a63a9059cbb028152600160a060020a039091169063a9059cbb906106879033908590600401610ab1565b6020604051808303816000875af11580156106a6573d6000803e3d6000fd5b505050506040513d601f19601f820116820180604052508101906106ca9190610aca565b505b8480156106d65750835b80156106e157508015155b1561077957604051600090339083908381818185875af1925050503d8060008114610728576040519150601f19603f3d011682016040523d82523d6000602084013e61072d565b606091505b50509050806107775760405160e560020a62461bcd0281526020600482015260106024820152608160020a6f2a3930b739b332b9103330b4b632b2170260448201526064016101e7565b505b50505050505050565b600454600160a060020a031633146107d85760405160e560020a62461bcd0281526020600482015260136024820152606960020a7227b7363c903b21a9ac1031b7b73a3930b1ba170260448201526064016101e7565b60055460405160e060020a6323b872dd02815233600482015230602482015260448101839052600160a060020a03909116906323b872dd906064016020604051808303816000875af1158015610832573d6000803e3d6000fd5b505050506040513d601f19601f820116820180604052508101906108569190610aca565b61089a5760405160e560020a62461bcd02815260206004820152600f6024820152608960020a6e3232b837b9b4ba103330b4b632b2170260448201526064016101e7565b60055460035460405160e060020a63095ea7b3028152600160a060020a039283169263095ea7b3926108d3929116908590600401610ab1565b6020604051808303816000875af11580156108f2573d6000803e3d6000fd5b505050506040513d601f19601f820116820180604052508101906109169190610aca565b5060035460405160e160020a63534a7e1d02815260048101839052600160a060020a039091169063a694fc3a90602401600060405180830381600087803b15801561096057600080fd5b505af1158015610974573d6000803e3d6000fd5b5050505060405180604001604052808260008001546109939190610a85565b8152426020918201528151600055015160015550565b600160a060020a0391909116815260200190565b6000602082840312156109cf57600080fd5b5035919050565b80151581146109e457600080fd5b50565b600080600080608085870312156109fd57600080fd5b8435610a08816109d6565b93506020850135610a18816109d6565b92506040850135610a28816109d6565b91506060850135610a38816109d6565b939692955090935050565b6020808252600b9082015260a960020a6a27b7363c9037bbb732b91702604082015260600190565b60e060020a634e487b710260009081526011600452602490fd5b80820180821115610a9857610a98610a6b565b92915050565b81810381811115610a9857610a98610a6b565b600160a060020a03929092168252602082015260400190565b600060208284031215610adc57600080fd5b8151610ae7816109d6565b9392505050565b600080600060608486031215610b0357600080fd5b835192506020840151915060408401519050925092509256fea26469706673582212204a75390cb8630e1987f221d69f54902ff1b6a290b380c152c83ebfc7b6924d0764736f6c63430008130033",
  "immutableReferences": {},
  "source": "// SPDX-License-Identifier: MIT\r\n// StakedCSXContract v1\r\n\r\npragma solidity ^0.8.19;\r\n\r\nimport {IERC20, IStakedCSX, IERC20Burnable} from \"./Interfaces.sol\";\r\n\r\nstruct Vesting {\r\n    uint256 amount;\r\n    uint256 startTime;\r\n}\r\n\r\ncontract VestedStaking {\r\n    Vesting public vesting;\r\n\r\n    uint256 public constant VESTING_PERIOD = 24 * 30 days; // 24 months\r\n\r\n    address public vesterAddress;\r\n    IStakedCSX public sCsxToken;\r\n    IERC20Burnable public vCsxToken;\r\n    IERC20 public csxToken;\r\n    IERC20 public usdcToken;\r\n    IERC20 public usdtToken;\r\n    IERC20 public wethToken;\r\n\r\n    constructor(\r\n        address _vesterAddress,\r\n        address _sCsxTokenAddress,\r\n        address _vCsxTokenAddress,\r\n        address _csxTokenAddress,\r\n        address _usdcTokenAddress,\r\n        address _usdtTokenAddress,\r\n        address _wethTokenAddress\r\n    ) {\r\n        vesterAddress = _vesterAddress;\r\n        sCsxToken = IStakedCSX(_sCsxTokenAddress);\r\n        vCsxToken = IERC20Burnable(_vCsxTokenAddress);\r\n        csxToken = IERC20(_csxTokenAddress);\r\n        usdcToken = IERC20(_usdcTokenAddress);\r\n        usdtToken = IERC20(_usdtTokenAddress);\r\n        wethToken = IERC20(_wethTokenAddress);\r\n    }\r\n\r\n    modifier onlyVester() {\r\n        require(msg.sender == vesterAddress, \"Only owner.\");\r\n        _;\r\n    }\r\n\r\n    /// @notice Deposit CSX tokens into the staking contract.\r\n    /// @param amount Amount of CSX tokens to deposit.\r\n    /// @dev This function is called by the vester contract.\r\n    /// @dev Only callable by the vester contract.\r\n    function deposit(uint256 amount) external {\r\n        require(msg.sender == address(vCsxToken), \"Only vCSX contract.\");\r\n        require(\r\n            csxToken.transferFrom(msg.sender, address(this), amount),\r\n            \"deposit failed.\"\r\n        );\r\n        csxToken.approve(address(sCsxToken), amount);\r\n        sCsxToken.stake(amount);\r\n        vesting = Vesting(vesting.amount + amount, block.timestamp); // vesting time-lock (re)-starts when deposit is made\r\n    }\r\n\r\n    /// @notice Claim rewards from the staking contract.\r\n    /// @param claimUsdc Whether to claim USDC rewards.\r\n    /// @param claimUsdt Whether to claim USDT rewards.\r\n    /// @param claimWeth Whether to claim WETH rewards.\r\n    /// @param convertWethToEth Whether to convert WETH rewards to ETH.\r\n    /// @dev Only callable by the vester.\r\n    function claimRewards(\r\n        bool claimUsdc,\r\n        bool claimUsdt,\r\n        bool claimWeth,\r\n        bool convertWethToEth\r\n    ) external onlyVester {\r\n        (uint256 usdcAmount, uint256 usdtAmount, uint256 wethAmount) = sCsxToken\r\n            .getClaimableAmount(address(this));\r\n\r\n        sCsxToken.claim(claimUsdc, claimUsdt, claimWeth, convertWethToEth);\r\n\r\n        if (claimUsdc && usdcAmount != 0) {\r\n            usdcToken.transfer(msg.sender, usdcAmount);\r\n        }\r\n        if (claimUsdt && usdtAmount != 0) {\r\n            usdtToken.transfer(msg.sender, usdtAmount);\r\n        }\r\n        if (claimWeth && !convertWethToEth && wethAmount != 0) {\r\n            wethToken.transfer(msg.sender, wethAmount);\r\n        }\r\n        if (claimWeth && convertWethToEth && wethAmount != 0) {\r\n            (bool success, ) = msg.sender.call{value: wethAmount}(\"\");\r\n            require(success, \"Transfer failed.\");\r\n        }\r\n    }\r\n\r\n    /// @notice Withdraws tokens from the contract.\r\n    /// @param amount Amount of tokens to withdraw.\r\n    /// @dev Only callable by the vester.\r\n    /// @dev Tokens are locked for 24 months.\r\n    /// @dev Vested Tokens are burned.\r\n    function withdraw(uint256 amount) external onlyVester {\r\n        require(amount <= vesting.amount, \"Not enough tokens.\");\r\n        require(\r\n            block.timestamp >= vesting.startTime + VESTING_PERIOD,\r\n            \"Tokens are still locked.\"\r\n        );\r\n        vesting.amount -= amount;\r\n        vCsxToken.burnFrom(msg.sender, amount);\r\n        sCsxToken.unStake(amount);\r\n        csxToken.transfer(msg.sender, amount);\r\n    }\r\n}\r\n",
  "sourcePath": "C:\\Users\\Charl\\Documents\\Projects\\SteamMarket\\CSX\\csx-contracts\\contracts\\CSX\\VestedStaking.sol",
  "compiler": {
    "name": "solc",
    "version": "0.8.19+commit.7dd6d404.Emscripten.clang"
  },
  "schemaVersion": "3.4.3",
  "updatedAt": "2023-04-19T09:26:27.705Z",
  "devdoc": {
    "kind": "dev",
    "methods": {
      "claimRewards(bool,bool,bool,bool)": {
        "details": "Only callable by the vester.",
        "params": {
          "claimUsdc": "Whether to claim USDC rewards.",
          "claimUsdt": "Whether to claim USDT rewards.",
          "claimWeth": "Whether to claim WETH rewards.",
          "convertWethToEth": "Whether to convert WETH rewards to ETH."
        }
      },
      "deposit(uint256)": {
        "details": "This function is called by the vester contract.Only callable by the vester contract.",
        "params": {
          "amount": "Amount of CSX tokens to deposit."
        }
      },
      "withdraw(uint256)": {
        "details": "Only callable by the vester.Tokens are locked for 24 months.Vested Tokens are burned.",
        "params": {
          "amount": "Amount of tokens to withdraw."
        }
      }
    },
    "version": 1
  },
  "userdoc": {
    "kind": "user",
    "methods": {
      "claimRewards(bool,bool,bool,bool)": {
        "notice": "Claim rewards from the staking contract."
      },
      "deposit(uint256)": {
        "notice": "Deposit CSX tokens into the staking contract."
      },
      "withdraw(uint256)": {
        "notice": "Withdraws tokens from the contract."
      }
    },
    "version": 1
  }
}