{
  "contractName": "VestedCSX",
  "abi": [
    {
      "inputs": [
        {
          "internalType": "address",
          "name": "_eCsxAddress",
          "type": "address"
        },
        {
          "internalType": "address",
          "name": "_sCsxAddress",
          "type": "address"
        },
        {
          "internalType": "address",
          "name": "_wethAddress",
          "type": "address"
        },
        {
          "internalType": "address",
          "name": "_usdcAddress",
          "type": "address"
        },
        {
          "internalType": "address",
          "name": "_csxAddress",
          "type": "address"
        },
        {
          "internalType": "address",
          "name": "_usdtAddress",
          "type": "address"
        }
      ],
      "stateMutability": "nonpayable",
      "type": "constructor"
    },
    {
      "anonymous": false,
      "inputs": [
        {
          "indexed": true,
          "internalType": "address",
          "name": "owner",
          "type": "address"
        },
        {
          "indexed": true,
          "internalType": "address",
          "name": "spender",
          "type": "address"
        },
        {
          "indexed": false,
          "internalType": "uint256",
          "name": "value",
          "type": "uint256"
        }
      ],
      "name": "Approval",
      "type": "event"
    },
    {
      "anonymous": false,
      "inputs": [
        {
          "indexed": true,
          "internalType": "address",
          "name": "from",
          "type": "address"
        },
        {
          "indexed": true,
          "internalType": "address",
          "name": "to",
          "type": "address"
        },
        {
          "indexed": false,
          "internalType": "uint256",
          "name": "value",
          "type": "uint256"
        }
      ],
      "name": "Transfer",
      "type": "event"
    },
    {
      "inputs": [],
      "name": "CSX",
      "outputs": [
        {
          "internalType": "contract IERC20",
          "name": "",
          "type": "address"
        }
      ],
      "stateMutability": "view",
      "type": "function",
      "constant": true
    },
    {
      "inputs": [],
      "name": "EscrowedCSX",
      "outputs": [
        {
          "internalType": "contract IERC20Burnable",
          "name": "",
          "type": "address"
        }
      ],
      "stateMutability": "view",
      "type": "function",
      "constant": true
    },
    {
      "inputs": [],
      "name": "MAX_SUPPLY",
      "outputs": [
        {
          "internalType": "uint256",
          "name": "",
          "type": "uint256"
        }
      ],
      "stateMutability": "view",
      "type": "function",
      "constant": true
    },
    {
      "inputs": [],
      "name": "StakedCSX",
      "outputs": [
        {
          "internalType": "contract IStakedCSX",
          "name": "",
          "type": "address"
        }
      ],
      "stateMutability": "view",
      "type": "function",
      "constant": true
    },
    {
      "inputs": [],
      "name": "USDC",
      "outputs": [
        {
          "internalType": "contract IERC20",
          "name": "",
          "type": "address"
        }
      ],
      "stateMutability": "view",
      "type": "function",
      "constant": true
    },
    {
      "inputs": [],
      "name": "USDT",
      "outputs": [
        {
          "internalType": "contract IERC20",
          "name": "",
          "type": "address"
        }
      ],
      "stateMutability": "view",
      "type": "function",
      "constant": true
    },
    {
      "inputs": [],
      "name": "WETH",
      "outputs": [
        {
          "internalType": "contract IWETH",
          "name": "",
          "type": "address"
        }
      ],
      "stateMutability": "view",
      "type": "function",
      "constant": true
    },
    {
      "inputs": [
        {
          "internalType": "address",
          "name": "owner",
          "type": "address"
        },
        {
          "internalType": "address",
          "name": "spender",
          "type": "address"
        }
      ],
      "name": "allowance",
      "outputs": [
        {
          "internalType": "uint256",
          "name": "",
          "type": "uint256"
        }
      ],
      "stateMutability": "view",
      "type": "function",
      "constant": true
    },
    {
      "inputs": [
        {
          "internalType": "address",
          "name": "spender",
          "type": "address"
        },
        {
          "internalType": "uint256",
          "name": "amount",
          "type": "uint256"
        }
      ],
      "name": "approve",
      "outputs": [
        {
          "internalType": "bool",
          "name": "",
          "type": "bool"
        }
      ],
      "stateMutability": "nonpayable",
      "type": "function"
    },
    {
      "inputs": [
        {
          "internalType": "address",
          "name": "account",
          "type": "address"
        }
      ],
      "name": "balanceOf",
      "outputs": [
        {
          "internalType": "uint256",
          "name": "",
          "type": "uint256"
        }
      ],
      "stateMutability": "view",
      "type": "function",
      "constant": true
    },
    {
      "inputs": [
        {
          "internalType": "uint256",
          "name": "amount",
          "type": "uint256"
        }
      ],
      "name": "burn",
      "outputs": [],
      "stateMutability": "nonpayable",
      "type": "function"
    },
    {
      "inputs": [
        {
          "internalType": "address",
          "name": "account",
          "type": "address"
        },
        {
          "internalType": "uint256",
          "name": "amount",
          "type": "uint256"
        }
      ],
      "name": "burnFrom",
      "outputs": [],
      "stateMutability": "nonpayable",
      "type": "function"
    },
    {
      "inputs": [],
      "name": "decimals",
      "outputs": [
        {
          "internalType": "uint8",
          "name": "",
          "type": "uint8"
        }
      ],
      "stateMutability": "view",
      "type": "function",
      "constant": true
    },
    {
      "inputs": [
        {
          "internalType": "address",
          "name": "spender",
          "type": "address"
        },
        {
          "internalType": "uint256",
          "name": "subtractedValue",
          "type": "uint256"
        }
      ],
      "name": "decreaseAllowance",
      "outputs": [
        {
          "internalType": "bool",
          "name": "",
          "type": "bool"
        }
      ],
      "stateMutability": "nonpayable",
      "type": "function"
    },
    {
      "inputs": [
        {
          "internalType": "address",
          "name": "spender",
          "type": "address"
        },
        {
          "internalType": "uint256",
          "name": "addedValue",
          "type": "uint256"
        }
      ],
      "name": "increaseAllowance",
      "outputs": [
        {
          "internalType": "bool",
          "name": "",
          "type": "bool"
        }
      ],
      "stateMutability": "nonpayable",
      "type": "function"
    },
    {
      "inputs": [],
      "name": "name",
      "outputs": [
        {
          "internalType": "string",
          "name": "",
          "type": "string"
        }
      ],
      "stateMutability": "view",
      "type": "function",
      "constant": true
    },
    {
      "inputs": [],
      "name": "symbol",
      "outputs": [
        {
          "internalType": "string",
          "name": "",
          "type": "string"
        }
      ],
      "stateMutability": "view",
      "type": "function",
      "constant": true
    },
    {
      "inputs": [],
      "name": "totalSupply",
      "outputs": [
        {
          "internalType": "uint256",
          "name": "",
          "type": "uint256"
        }
      ],
      "stateMutability": "view",
      "type": "function",
      "constant": true
    },
    {
      "inputs": [
        {
          "internalType": "address",
          "name": "to",
          "type": "address"
        },
        {
          "internalType": "uint256",
          "name": "amount",
          "type": "uint256"
        }
      ],
      "name": "transfer",
      "outputs": [
        {
          "internalType": "bool",
          "name": "",
          "type": "bool"
        }
      ],
      "stateMutability": "nonpayable",
      "type": "function"
    },
    {
      "inputs": [
        {
          "internalType": "address",
          "name": "from",
          "type": "address"
        },
        {
          "internalType": "address",
          "name": "to",
          "type": "address"
        },
        {
          "internalType": "uint256",
          "name": "amount",
          "type": "uint256"
        }
      ],
      "name": "transferFrom",
      "outputs": [
        {
          "internalType": "bool",
          "name": "",
          "type": "bool"
        }
      ],
      "stateMutability": "nonpayable",
      "type": "function"
    },
    {
      "inputs": [
        {
          "internalType": "address",
          "name": "",
          "type": "address"
        }
      ],
      "name": "vestedStakingContractPerUser",
      "outputs": [
        {
          "internalType": "contract VestedStaking",
          "name": "",
          "type": "address"
        }
      ],
      "stateMutability": "view",
      "type": "function",
      "constant": true
    },
    {
      "inputs": [
        {
          "internalType": "uint256",
          "name": "amount",
          "type": "uint256"
        }
      ],
      "name": "vest",
      "outputs": [],
      "stateMutability": "nonpayable",
      "type": "function"
    }
  ],
  "bytecode": "0x60806040523480156200001157600080fd5b50604051620021b1380380620021b183398101604081905262000034916200015b565b6040518060400160405280600a81526020017f56657374656420435358000000000000000000000000000000000000000000008152506040518060400160405280600481526020017f764353580000000000000000000000000000000000000000000000000000000081525060016000819055508160049081620000b99190620002b3565b506005620000c88282620002b3565b505060068054600160a060020a0319908116600160a060020a03998a161790915560078054821697891697909717909655506008805486169487169490941790935560098054851692861692909217909155600a80548416918516919091179055600b8054909216921691909117905562000386565b8051600160a060020a03811681146200015657600080fd5b919050565b60008060008060008060c087890312156200017557600080fd5b62000180876200013e565b955062000190602088016200013e565b9450620001a0604088016200013e565b9350620001b0606088016200013e565b9250620001c0608088016200013e565b9150620001d060a088016200013e565b90509295509295509295565b7f4e487b7100000000000000000000000000000000000000000000000000000000600052604160045260246000fd5b6002810460018216806200022057607f821691505b6020821081036200025a577f4e487b7100000000000000000000000000000000000000000000000000000000600052602260045260246000fd5b50919050565b601f821115620002ae576000818152602081206020601f86010481016020861015620002895750805b6020601f860104820191505b81811015620002aa5782815560010162000295565b5050505b505050565b815167ffffffffffffffff811115620002d057620002d0620001dc565b620002e881620002e184546200020b565b8462000260565b602080601f831160018114620003245760008415620003075750858301515b60028086026008870290910a6000190419821617865550620002aa565b600085815260208120601f198616915b82811015620003555788860151825594840194600190910190840162000334565b50858210156200037657878501516008601f88160260020a60001904191681555b5050505050600202600101905550565b611e1b80620003966000396000f3fe60806040523480156200001157600080fd5b50600436106200012d5760e060020a600035046306fdde03811462000132578063095ea7b3146200015457806318160ddd146200017c57806323b872dd146200018f578063313ce56714620001a657806332cb6b0c14620001b65780633950935114620001c957806342966c6814620001e057806359d6613e14620001f95780636a760b80146200022657806370a08231146200023d57806379cc6790146200026957806389a30271146200028057806394469837146200029457806395d89b4114620002a8578063a457c2d714620002b2578063a9059cbb14620002c9578063ad5c464814620002e0578063c1456ab014620002f4578063c54e44eb1462000308578063dd62ed3e146200031c578063e3885a621462000333575b600080fd5b6200013c6200035f565b6040516200014b919062000f1d565b60405180910390f35b6200016b6200016536600462000f8a565b620003f9565b60405190151581526020016200014b565b6003545b6040519081526020016200014b565b6200016b620001a036600462000fb7565b62000415565b604051601281526020016200014b565b620001806a52b7d2dcc80cd2e400000081565b6200016b620001da36600462000f8a565b6200043d565b620001f7620001f136600462000ff8565b62000465565b005b6007546200020d90600160a060020a031681565b604051600160a060020a0390911681526020016200014b565b620001f76200023736600462000ff8565b62000474565b620001806200024e36600462001012565b600160a060020a031660009081526001602052604090205490565b620001f76200027a36600462000f8a565b620007b8565b6009546200020d90600160a060020a031681565b600a546200020d90600160a060020a031681565b6200013c620007d1565b6200016b620002c336600462000f8a565b620007e2565b6200016b620002da36600462000f8a565b62000869565b6008546200020d90600160a060020a031681565b6006546200020d90600160a060020a031681565b600b546200020d90600160a060020a031681565b620001806200032d36600462001037565b62000879565b6200020d6200034436600462001012565b600c60205260009081526040902054600160a060020a031681565b60606004805462000370906200106f565b80601f01602080910402602001604051908101604052809291908181526020018280546200039e906200106f565b8015620003ef5780601f10620003c357610100808354040283529160200191620003ef565b820191906000526020600020905b815481529060010190602001808311620003d157829003601f168201915b5050505050905090565b60003362000409818585620008a4565b60019150505b92915050565b60003362000425858285620009d9565b6200043285858562000a5d565b506001949350505050565b6000336200040981858562000453838362000879565b6200045f9190620010af565b620008a4565b62000471338262000c1e565b50565b806a52b7d2dcc80cd2e40000006200048b60035490565b620004979083620010af565b1115620004ee5760405160e560020a62461bcd02815260206004820152601b60248201527f616d6f756e7420737572706173736573206d617820737570706c79000000000060448201526064015b60405180910390fd5b620004f862000d58565b600082116200054d5760405160e560020a62461bcd02815260206004820152601d60248201527f416d6f756e74206d7573742062652067726561746572207468616e20300000006044820152606401620004e5565b60065460405160e460020a63079cc679028152600160a060020a03909116906379cc679090620005849033908690600401620010d5565b600060405180830381600087803b1580156200059f57600080fd5b505af1158015620005b4573d6000803e3d6000fd5b50505050620005c4338362000db6565b336000908152600c6020526040902054600160a060020a0316620006a857600754600a54600954600b546008546040513395600160a060020a039081169530959082169490821693908216929116906200061e9062000f0f565b600160a060020a03978816815295871660208701529386166040860152918516606085015284166080840152831660a083015290911660c082015260e001604051809103906000f08015801562000679573d6000803e3d6000fd5b50336000908152600c602052604090208054600160a060020a031916600160a060020a03929092169190911790555b600a54336000908152600c60205260409081902054905160e060020a63095ea7b3028152600160a060020a039283169263095ea7b392620006f1929116908690600401620010d5565b6020604051808303816000875af115801562000711573d6000803e3d6000fd5b505050506040513d601f19601f82011682018060405250810190620007379190620010ee565b50336000908152600c60205260409081902054905160e060020a63b6b55f2502815260048101849052600160a060020a039091169063b6b55f2590602401600060405180830381600087803b1580156200079057600080fd5b505af1158015620007a5573d6000803e3d6000fd5b50505050620007b46001600055565b5050565b620007c5823383620009d9565b620007b4828262000c1e565b60606005805462000370906200106f565b60003381620007f2828662000879565b9050838110156200085a5760405160e560020a62461bcd02815260206004820152602560248201527f45524332303a2064656372656173656420616c6c6f77616e63652062656c6f77604482015260d860020a64207a65726f026064820152608401620004e5565b620004328286868403620008a4565b6000336200040981858562000a5d565b600160a060020a03918216600090815260026020908152604080832093909416825291909152205490565b600160a060020a0383166200090e5760405160e560020a62461bcd028152602060048201526024808201527f45524332303a20617070726f76652066726f6d20746865207a65726f20616464604482015260e060020a6372657373026064820152608401620004e5565b600160a060020a038216620009775760405160e560020a62461bcd02815260206004820152602260248201527f45524332303a20617070726f766520746f20746865207a65726f206164647265604482015260f060020a617373026064820152608401620004e5565b600160a060020a0383811660008181526002602090815260408083209487168084529482529182902085905590518481527f8c5be1e5ebec7d5bd14f71427d1e84f3dd0314c0f7b2291e5b200ac8c7c3b92591015b60405180910390a3505050565b6000620009e7848462000879565b9050600019811462000a57578181101562000a485760405160e560020a62461bcd02815260206004820152601d60248201527f45524332303a20696e73756666696369656e7420616c6c6f77616e63650000006044820152606401620004e5565b62000a578484848403620008a4565b50505050565b600160a060020a03831662000ac95760405160e560020a62461bcd02815260206004820152602560248201527f45524332303a207472616e736665722066726f6d20746865207a65726f206164604482015260d860020a646472657373026064820152608401620004e5565b600160a060020a03821662000b335760405160e560020a62461bcd02815260206004820152602360248201527f45524332303a207472616e7366657220746f20746865207a65726f2061646472604482015260e860020a62657373026064820152608401620004e5565b62000b4083838362000e7b565b600160a060020a0383166000908152600160205260409020548181101562000bc05760405160e560020a62461bcd02815260206004820152602660248201527f45524332303a207472616e7366657220616d6f756e7420657863656564732062604482015260d060020a65616c616e6365026064820152608401620004e5565b600160a060020a03808516600081815260016020526040808220868603905592861680825290839020805486019055915160008051602062001dc68339815191529062000c109086815260200190565b60405180910390a362000a57565b600160a060020a03821662000c865760405160e560020a62461bcd02815260206004820152602160248201527f45524332303a206275726e2066726f6d20746865207a65726f20616464726573604482015260f860020a6073026064820152608401620004e5565b62000c948260008362000e7b565b600160a060020a0382166000908152600160205260409020548181101562000d105760405160e560020a62461bcd02815260206004820152602260248201527f45524332303a206275726e20616d6f756e7420657863656564732062616c616e604482015260f060020a616365026064820152608401620004e5565b600160a060020a038316600081815260016020908152604080832086860390556003805487900390555185815291929160008051602062001dc68339815191529101620009cc565b60026000540362000daf5760405160e560020a62461bcd02815260206004820152601f60248201527f5265656e7472616e637947756172643a207265656e7472616e742063616c6c006044820152606401620004e5565b6002600055565b600160a060020a03821662000e115760405160e560020a62461bcd02815260206004820152601f60248201527f45524332303a206d696e7420746f20746865207a65726f2061646472657373006044820152606401620004e5565b62000e1f6000838362000e7b565b806003600082825462000e339190620010af565b9091555050600160a060020a03821660008181526001602090815260408083208054860190555184815260008051602062001dc6833981519152910160405180910390a35050565b600160a060020a038316158062000e995750600160a060020a038216155b1562000ea457505050565b60405160e560020a62461bcd02815260206004820152603360248201527f4e6f6e5472616e7366657261626c65546f6b656e3a20546f6b656e207472616e6044820152606960020a7239b332b9399030b932903234b9b0b13632b217026064820152608401620004e5565b610cb3806200111383390190565b600060208083528351808285015260005b8181101562000f4c5785810183015185820160400152820162000f2e565b506000604082860101526040601f19601f8301168501019250505092915050565b8035600160a060020a038116811462000f8557600080fd5b919050565b6000806040838503121562000f9e57600080fd5b62000fa98362000f6d565b946020939093013593505050565b60008060006060848603121562000fcd57600080fd5b62000fd88462000f6d565b925062000fe86020850162000f6d565b9150604084013590509250925092565b6000602082840312156200100b57600080fd5b5035919050565b6000602082840312156200102557600080fd5b620010308262000f6d565b9392505050565b600080604083850312156200104b57600080fd5b620010568362000f6d565b9150620010666020840162000f6d565b90509250929050565b6002810460018216806200108457607f821691505b602082108103620010a95760e060020a634e487b710260009081526022600452602490fd5b50919050565b808201808211156200040f5760e060020a634e487b710260009081526011600452602490fd5b600160a060020a03929092168252602082015260400190565b6000602082840312156200110157600080fd5b815180151581146200103057600080fdfe608060405234801561001057600080fd5b50604051610cb3380380610cb383398101604081905261002f916100cc565b60028054600160a060020a0319908116600160a060020a03998a1617909155600380548216978916979097179096556004805487169588169590951790945560058054861693871693909317909255600680548516918616919091179055600780548416918516919091179055600880549092169216919091179055610152565b8051600160a060020a03811681146100c757600080fd5b919050565b600080600080600080600060e0888a0312156100e757600080fd5b6100f0886100b0565b96506100fe602089016100b0565b955061010c604089016100b0565b945061011a606089016100b0565b9350610128608089016100b0565b925061013660a089016100b0565b915061014460c089016100b0565b905092959891949750929550565b610b52806101616000396000f3fe608060405234801561001057600080fd5b50600436106100a75760e060020a60003504630197d97281146100ac57806311eac855146100ca5780632e1a7d4d146100ea57806344c63eec146100ff5780634b57b0be146101225780634bbc52f51461013557806372d05a5214610148578063a639a3001461015b578063a98ad46c1461016e578063b6b55f2514610181578063da61ead414610194578063ff04c5ee146101a7575b600080fd5b6100b76303b5380081565b6040519081526020015b60405180910390f35b6006546100dd90600160a060020a031681565b6040516100c191906109a9565b6100fd6100f83660046109bd565b6101ba565b005b60005460015461010d919082565b604080519283526020830191909152016100c1565b6008546100dd90600160a060020a031681565b6100fd6101433660046109e7565b6103fb565b6004546100dd90600160a060020a031681565b6005546100dd90600160a060020a031681565b6007546100dd90600160a060020a031681565b6100fd61018f3660046109bd565b610782565b6002546100dd90600160a060020a031681565b6003546100dd90600160a060020a031681565b600254600160a060020a031633146101f05760405160e560020a62461bcd0281526004016101e790610a43565b60405180910390fd5b60005481111561023d5760405160e560020a62461bcd0281526020600482015260126024820152607160020a712737ba1032b737bab3b4103a37b5b2b739970260448201526064016101e7565b60015461024f906303b5380090610a85565b42101561029f5760405160e560020a62461bcd0281526020600482015260186024820152604160020a772a37b5b2b7399030b9329039ba34b636103637b1b5b2b2170260448201526064016101e7565b806000800160008282546102b39190610a9e565b90915550506004805460405160e460020a63079cc679028152600160a060020a03909116916379cc6790916102ec913391869101610ab1565b600060405180830381600087803b15801561030657600080fd5b505af115801561031a573d6000803e3d6000fd5b505060035460405160e060020a635d3eea9102815260048101859052600160a060020a039091169250635d3eea919150602401600060405180830381600087803b15801561036757600080fd5b505af115801561037b573d6000803e3d6000fd5b505060055460405160e060020a63a9059cbb028152600160a060020a03909116925063a9059cbb91506103b49033908590600401610ab1565b6020604051808303816000875af11580156103d3573d6000803e3d6000fd5b505050506040513d601f19601f820116820180604052508101906103f79190610aca565b5050565b600254600160a060020a031633146104285760405160e560020a62461bcd0281526004016101e790610a43565b60035460405160e060020a63e12f3a6102815260009182918291600160a060020a03169063e12f3a61906104609030906004016109a9565b606060405180830381865afa15801561047d573d6000803e3d6000fd5b505050506040513d601f19601f820116820180604052508101906104a19190610aee565b60035460405160e360020a631ac37e7f0281528b151560048201528a15156024820152891515604482015288151560648201529396509194509250600160a060020a03169063d61bf3f890608401600060405180830381600087803b15801561050957600080fd5b505af115801561051d573d6000803e3d6000fd5b5050505086801561052d57508215155b156105ac5760065460405160e060020a63a9059cbb028152600160a060020a039091169063a9059cbb906105679033908790600401610ab1565b6020604051808303816000875af1158015610586573d6000803e3d6000fd5b505050506040513d601f19601f820116820180604052508101906105aa9190610aca565b505b8580156105b857508115155b156106375760075460405160e060020a63a9059cbb028152600160a060020a039091169063a9059cbb906105f29033908690600401610ab1565b6020604051808303816000875af1158015610611573d6000803e3d6000fd5b505050506040513d601f19601f820116820180604052508101906106359190610aca565b505b848015610642575083155b801561064d57508015155b156106cc5760085460405160e060020a63a9059cbb028152600160a060020a039091169063a9059cbb906106879033908590600401610ab1565b6020604051808303816000875af11580156106a6573d6000803e3d6000fd5b505050506040513d601f19601f820116820180604052508101906106ca9190610aca565b505b8480156106d65750835b80156106e157508015155b1561077957604051600090339083908381818185875af1925050503d8060008114610728576040519150601f19603f3d011682016040523d82523d6000602084013e61072d565b606091505b50509050806107775760405160e560020a62461bcd0281526020600482015260106024820152608160020a6f2a3930b739b332b9103330b4b632b2170260448201526064016101e7565b505b50505050505050565b600454600160a060020a031633146107d85760405160e560020a62461bcd0281526020600482015260136024820152606960020a7227b7363c903b21a9ac1031b7b73a3930b1ba170260448201526064016101e7565b60055460405160e060020a6323b872dd02815233600482015230602482015260448101839052600160a060020a03909116906323b872dd906064016020604051808303816000875af1158015610832573d6000803e3d6000fd5b505050506040513d601f19601f820116820180604052508101906108569190610aca565b61089a5760405160e560020a62461bcd02815260206004820152600f6024820152608960020a6e3232b837b9b4ba103330b4b632b2170260448201526064016101e7565b60055460035460405160e060020a63095ea7b3028152600160a060020a039283169263095ea7b3926108d3929116908590600401610ab1565b6020604051808303816000875af11580156108f2573d6000803e3d6000fd5b505050506040513d601f19601f820116820180604052508101906109169190610aca565b5060035460405160e160020a63534a7e1d02815260048101839052600160a060020a039091169063a694fc3a90602401600060405180830381600087803b15801561096057600080fd5b505af1158015610974573d6000803e3d6000fd5b5050505060405180604001604052808260008001546109939190610a85565b8152426020918201528151600055015160015550565b600160a060020a0391909116815260200190565b6000602082840312156109cf57600080fd5b5035919050565b80151581146109e457600080fd5b50565b600080600080608085870312156109fd57600080fd5b8435610a08816109d6565b93506020850135610a18816109d6565b92506040850135610a28816109d6565b91506060850135610a38816109d6565b939692955090935050565b6020808252600b9082015260a960020a6a27b7363c9037bbb732b91702604082015260600190565b60e060020a634e487b710260009081526011600452602490fd5b80820180821115610a9857610a98610a6b565b92915050565b81810381811115610a9857610a98610a6b565b600160a060020a03929092168252602082015260400190565b600060208284031215610adc57600080fd5b8151610ae7816109d6565b9392505050565b600080600060608486031215610b0357600080fd5b835192506020840151915060408401519050925092509256fea26469706673582212204a75390cb8630e1987f221d69f54902ff1b6a290b380c152c83ebfc7b6924d0764736f6c63430008130033ddf252ad1be2c89b69c2b068fc378daa952ba7f163c4a11628f55a4df523b3efa264697066735822122052cb1ac18a4d7f3c81d42bb8fec579bf7d9e15caf37a747870ee3283f128be7d64736f6c63430008130033",
  "immutableReferences": {},
  "source": "// SPDX-License-Identifier: MIT\r\n// CSX Vesting Contract v2\r\n\r\npragma solidity 0.8.19;\r\n\r\nimport {ERC20, IERC20, ReentrancyGuard, IWETH, IERC20Burnable} from \"./Interfaces.sol\";\r\nimport \"@openzeppelin/contracts/token/ERC20/extensions/ERC20Burnable.sol\";\r\n\r\nimport \"./VestedStaking.sol\";\r\n\r\ncontract VestedCSX is ReentrancyGuard, ERC20Burnable {\r\n    IERC20Burnable public EscrowedCSX;\r\n    IStakedCSX public StakedCSX;\r\n    IWETH public WETH;\r\n    IERC20 public USDC;     \r\n    IERC20 public CSX;\r\n    IERC20 public USDT;\r\n\r\n    uint256 public constant MAX_SUPPLY = 100000000 ether;\r\n\r\n    modifier mintable(uint256 amount) {\r\n        require(\r\n            amount + totalSupply() <= MAX_SUPPLY,\r\n            \"amount surpasses max supply\"\r\n        );\r\n        _;\r\n    }\r\n\r\n    constructor(\r\n        address _eCsxAddress,\r\n        address _sCsxAddress,\r\n        address _wethAddress,\r\n        address _usdcAddress,\r\n        address _csxAddress,\r\n        address _usdtAddress\r\n    ) ERC20(\"Vested CSX\", \"vCSX\") {\r\n        EscrowedCSX = IERC20Burnable(_eCsxAddress);\r\n        StakedCSX = IStakedCSX(_sCsxAddress);\r\n        WETH = IWETH(_wethAddress);\r\n        USDC = IERC20(_usdcAddress);\r\n        CSX = IERC20(_csxAddress);\r\n        USDT = IERC20(_usdtAddress);\r\n    }\r\n\r\n    //=================================== EXTERNAL ==============================================\r\n\r\n    mapping(address => VestedStaking) public vestedStakingContractPerUser;\r\n\r\n    function vest(uint256 amount) external mintable(amount) nonReentrant {\r\n        require(amount > 0, \"Amount must be greater than 0\"); // To prevent users wasting gas\r\n\r\n        // Burn the deposited escrow tokens\r\n        EscrowedCSX.burnFrom(msg.sender, amount);\r\n\r\n        // Mint vCSX tokens to the user\r\n        _mint(msg.sender, amount);\r\n\r\n        // Create VestedStaking Contract if it doesn't exist\r\n        if (address(vestedStakingContractPerUser[msg.sender]) == address(0)) {\r\n            vestedStakingContractPerUser[msg.sender] = new VestedStaking(\r\n                address(msg.sender),\r\n                address(StakedCSX),\r\n                address(this),\r\n                address(CSX),\r\n                address(USDC),\r\n                address(USDT),\r\n                address(WETH)\r\n            );\r\n        } \r\n\r\n        // Approve VestedStaking Contract to transfer CSX tokens\r\n        CSX.approve(address(vestedStakingContractPerUser[msg.sender]), amount);\r\n\r\n        // Deposit CSX tokens to VestedStaking Contract for the user\r\n        vestedStakingContractPerUser[msg.sender].deposit(amount);\r\n    }\r\n\r\n    //=================================== INTERNAL ==============================================\r\n    function _beforeTokenTransfer(\r\n        address from,\r\n        address to,\r\n        uint256 amount\r\n    ) internal override {\r\n        super._beforeTokenTransfer(from, to, amount);\r\n        if (from == address(0) || to == address(0)) return;\r\n        revert(\"NonTransferableToken: Token transfers are disabled.\");\r\n    }\r\n}\r\n",
  "sourcePath": "C:\\Users\\Charl\\Documents\\Projects\\SteamMarket\\CSX\\csx-contracts\\contracts\\CSX\\VestedCSX.sol",
  "compiler": {
    "name": "solc",
    "version": "0.8.19+commit.7dd6d404.Emscripten.clang"
  },
  "schemaVersion": "3.4.3",
  "updatedAt": "2023-04-19T09:27:01.271Z",
  "networkType": "ethereum",
  "devdoc": {
    "events": {
      "Approval(address,address,uint256)": {
        "details": "Emitted when the allowance of a `spender` for an `owner` is set by a call to {approve}. `value` is the new allowance."
      },
      "Transfer(address,address,uint256)": {
        "details": "Emitted when `value` tokens are moved from one account (`from`) to another (`to`). Note that `value` may be zero."
      }
    },
    "kind": "dev",
    "methods": {
      "allowance(address,address)": {
        "details": "See {IERC20-allowance}."
      },
      "approve(address,uint256)": {
        "details": "See {IERC20-approve}. NOTE: If `amount` is the maximum `uint256`, the allowance is not updated on `transferFrom`. This is semantically equivalent to an infinite approval. Requirements: - `spender` cannot be the zero address."
      },
      "balanceOf(address)": {
        "details": "See {IERC20-balanceOf}."
      },
      "burn(uint256)": {
        "details": "Destroys `amount` tokens from the caller. See {ERC20-_burn}."
      },
      "burnFrom(address,uint256)": {
        "details": "Destroys `amount` tokens from `account`, deducting from the caller's allowance. See {ERC20-_burn} and {ERC20-allowance}. Requirements: - the caller must have allowance for ``accounts``'s tokens of at least `amount`."
      },
      "decimals()": {
        "details": "Returns the number of decimals used to get its user representation. For example, if `decimals` equals `2`, a balance of `505` tokens should be displayed to a user as `5.05` (`505 / 10 ** 2`). Tokens usually opt for a value of 18, imitating the relationship between Ether and Wei. This is the value {ERC20} uses, unless this function is overridden; NOTE: This information is only used for _display_ purposes: it in no way affects any of the arithmetic of the contract, including {IERC20-balanceOf} and {IERC20-transfer}."
      },
      "decreaseAllowance(address,uint256)": {
        "details": "Atomically decreases the allowance granted to `spender` by the caller. This is an alternative to {approve} that can be used as a mitigation for problems described in {IERC20-approve}. Emits an {Approval} event indicating the updated allowance. Requirements: - `spender` cannot be the zero address. - `spender` must have allowance for the caller of at least `subtractedValue`."
      },
      "increaseAllowance(address,uint256)": {
        "details": "Atomically increases the allowance granted to `spender` by the caller. This is an alternative to {approve} that can be used as a mitigation for problems described in {IERC20-approve}. Emits an {Approval} event indicating the updated allowance. Requirements: - `spender` cannot be the zero address."
      },
      "name()": {
        "details": "Returns the name of the token."
      },
      "symbol()": {
        "details": "Returns the symbol of the token, usually a shorter version of the name."
      },
      "totalSupply()": {
        "details": "See {IERC20-totalSupply}."
      },
      "transfer(address,uint256)": {
        "details": "See {IERC20-transfer}. Requirements: - `to` cannot be the zero address. - the caller must have a balance of at least `amount`."
      },
      "transferFrom(address,address,uint256)": {
        "details": "See {IERC20-transferFrom}. Emits an {Approval} event indicating the updated allowance. This is not required by the EIP. See the note at the beginning of {ERC20}. NOTE: Does not update the allowance if the current allowance is the maximum `uint256`. Requirements: - `from` and `to` cannot be the zero address. - `from` must have a balance of at least `amount`. - the caller must have allowance for ``from``'s tokens of at least `amount`."
      }
    },
    "version": 1
  },
  "userdoc": {
    "kind": "user",
    "methods": {},
    "version": 1
  }
}