{
  "contractName": "VestedStaking",
  "abi": [
    {
      "inputs": [
        {
          "internalType": "address",
          "name": "_vesterAddress",
          "type": "address"
        },
        {
          "internalType": "address",
          "name": "_sCsxTokenAddress",
          "type": "address"
        },
        {
          "internalType": "address",
          "name": "_vCsxTokenAddress",
          "type": "address"
        },
        {
          "internalType": "address",
          "name": "_csxTokenAddress",
          "type": "address"
        },
        {
          "internalType": "address",
          "name": "_usdcTokenAddress",
          "type": "address"
        },
        {
          "internalType": "address",
          "name": "_usdtTokenAddress",
          "type": "address"
        },
        {
          "internalType": "address",
          "name": "_wethTokenAddress",
          "type": "address"
        }
      ],
      "stateMutability": "nonpayable",
      "type": "constructor"
    },
    {
      "inputs": [],
      "name": "VESTING_PERIOD",
      "outputs": [
        {
          "internalType": "uint256",
          "name": "",
          "type": "uint256"
        }
      ],
      "stateMutability": "view",
      "type": "function"
    },
    {
      "inputs": [],
      "name": "csxToken",
      "outputs": [
        {
          "internalType": "contract IERC20",
          "name": "",
          "type": "address"
        }
      ],
      "stateMutability": "view",
      "type": "function"
    },
    {
      "inputs": [],
      "name": "sCsxToken",
      "outputs": [
        {
          "internalType": "contract IStakedCSX",
          "name": "",
          "type": "address"
        }
      ],
      "stateMutability": "view",
      "type": "function"
    },
    {
      "inputs": [],
      "name": "usdcToken",
      "outputs": [
        {
          "internalType": "contract IERC20",
          "name": "",
          "type": "address"
        }
      ],
      "stateMutability": "view",
      "type": "function"
    },
    {
      "inputs": [],
      "name": "usdtToken",
      "outputs": [
        {
          "internalType": "contract IERC20",
          "name": "",
          "type": "address"
        }
      ],
      "stateMutability": "view",
      "type": "function"
    },
    {
      "inputs": [],
      "name": "vCsxToken",
      "outputs": [
        {
          "internalType": "contract IERC20Burnable",
          "name": "",
          "type": "address"
        }
      ],
      "stateMutability": "view",
      "type": "function"
    },
    {
      "inputs": [],
      "name": "vesterAddress",
      "outputs": [
        {
          "internalType": "address",
          "name": "",
          "type": "address"
        }
      ],
      "stateMutability": "view",
      "type": "function"
    },
    {
      "inputs": [],
      "name": "vesting",
      "outputs": [
        {
          "internalType": "uint256",
          "name": "amount",
          "type": "uint256"
        },
        {
          "internalType": "uint256",
          "name": "startTime",
          "type": "uint256"
        }
      ],
      "stateMutability": "view",
      "type": "function"
    },
    {
      "inputs": [],
      "name": "wethToken",
      "outputs": [
        {
          "internalType": "contract IERC20",
          "name": "",
          "type": "address"
        }
      ],
      "stateMutability": "view",
      "type": "function"
    },
    {
      "inputs": [
        {
          "internalType": "uint256",
          "name": "amount",
          "type": "uint256"
        }
      ],
      "name": "deposit",
      "outputs": [],
      "stateMutability": "nonpayable",
      "type": "function"
    },
    {
      "inputs": [
        {
          "internalType": "bool",
          "name": "claimUsdc",
          "type": "bool"
        },
        {
          "internalType": "bool",
          "name": "claimUsdt",
          "type": "bool"
        },
        {
          "internalType": "bool",
          "name": "claimWeth",
          "type": "bool"
        },
        {
          "internalType": "bool",
          "name": "convertWethToEth",
          "type": "bool"
        }
      ],
      "name": "claimRewards",
      "outputs": [],
      "stateMutability": "nonpayable",
      "type": "function"
    },
    {
      "inputs": [
        {
          "internalType": "uint256",
          "name": "amount",
          "type": "uint256"
        }
      ],
      "name": "withdraw",
      "outputs": [],
      "stateMutability": "nonpayable",
      "type": "function"
    }
  ],
  "bytecode": "0x60806040523480156200001157600080fd5b5060405162000e9338038062000e938339810160408190526200003491620000d3565b60028054600160a060020a0319908116600160a060020a03998a161790915560038054821697891697909717909655600480548716958816959095179094556005805486169387169390931790925560068054851691861691909117905560078054841691851691909117905560088054909216921691909117905562000168565b8051600160a060020a0381168114620000ce57600080fd5b919050565b600080600080600080600060e0888a031215620000ef57600080fd5b620000fa88620000b6565b96506200010a60208901620000b6565b95506200011a60408901620000b6565b94506200012a60608901620000b6565b93506200013a60808901620000b6565b92506200014a60a08901620000b6565b91506200015a60c08901620000b6565b905092959891949750929550565b610d1b80620001786000396000f3fe608060405234801561001057600080fd5b50600436106100f1576000357c01000000000000000000000000000000000000000000000000000000009004806372d05a521161009e578063b6b55f2511610078578063b6b55f25146101d6578063da61ead4146101e9578063ff04c5ee146101fc57600080fd5b806372d05a521461019d578063a639a300146101b0578063a98ad46c146101c357600080fd5b806344c63eec116100cf57806344c63eec146101545780634b57b0be146101775780634bbc52f51461018a57600080fd5b80630197d972146100f657806311eac855146101145780632e1a7d4d1461013f575b600080fd5b6101016303b5380081565b6040519081526020015b60405180910390f35b60065461012790600160a060020a031681565b604051600160a060020a03909116815260200161010b565b61015261014d366004610b92565b61020f565b005b600054600154610162919082565b6040805192835260208301919091520161010b565b60085461012790600160a060020a031681565b610152610198366004610bbc565b6104d9565b60045461012790600160a060020a031681565b60055461012790600160a060020a031681565b60075461012790600160a060020a031681565b6101526101e4366004610b92565b61090d565b60025461012790600160a060020a031681565b60035461012790600160a060020a031681565b600254600160a060020a0316331461027657604051600080516020610cc6833981519152815260206004820152600b60248201527f4f6e6c79206f776e65722e00000000000000000000000000000000000000000060448201526064015b60405180910390fd5b6000548111156102d057604051600080516020610cc6833981519152815260206004820152601260248201527f4e6f7420656e6f75676820746f6b656e732e0000000000000000000000000000604482015260640161026d565b6001546102e2906303b5380090610c47565b42101561033957604051600080516020610cc6833981519152815260206004820152601860248201527f546f6b656e7320617265207374696c6c206c6f636b65642e0000000000000000604482015260640161026d565b8060008001600082825461034d9190610c60565b9091555050600480546040517f79cc6790000000000000000000000000000000000000000000000000000000008152339281019290925260248201839052600160a060020a0316906379cc679090604401600060405180830381600087803b1580156103b857600080fd5b505af11580156103cc573d6000803e3d6000fd5b50506003546040517f5d3eea9100000000000000000000000000000000000000000000000000000000815260048101859052600160a060020a039091169250635d3eea919150602401600060405180830381600087803b15801561042f57600080fd5b505af1158015610443573d6000803e3d6000fd5b50506005546040517fa9059cbb00000000000000000000000000000000000000000000000000000000815233600482015260248101859052600160a060020a03909116925063a9059cbb91506044016020604051808303816000875af11580156104b1573d6000803e3d6000fd5b505050506040513d601f19601f820116820180604052508101906104d59190610c73565b5050565b600254600160a060020a0316331461053b57604051600080516020610cc6833981519152815260206004820152600b60248201527f4f6e6c79206f776e65722e000000000000000000000000000000000000000000604482015260640161026d565b6003546040517fe12f3a6100000000000000000000000000000000000000000000000000000000815230600482015260009182918291600160a060020a03169063e12f3a6190602401606060405180830381865afa1580156105a1573d6000803e3d6000fd5b505050506040513d601f19601f820116820180604052508101906105c59190610c97565b6003546040517fd61bf3f80000000000000000000000000000000000000000000000000000000081528b151560048201528a15156024820152891515604482015288151560648201529396509194509250600160a060020a03169063d61bf3f890608401600060405180830381600087803b15801561064357600080fd5b505af1158015610657573d6000803e3d6000fd5b5050505086801561066757508215155b156106fc576006546040517fa9059cbb00000000000000000000000000000000000000000000000000000000815233600482015260248101859052600160a060020a039091169063a9059cbb906044016020604051808303816000875af11580156106d6573d6000803e3d6000fd5b505050506040513d601f19601f820116820180604052508101906106fa9190610c73565b505b85801561070857508115155b1561079d576007546040517fa9059cbb00000000000000000000000000000000000000000000000000000000815233600482015260248101849052600160a060020a039091169063a9059cbb906044016020604051808303816000875af1158015610777573d6000803e3d6000fd5b505050506040513d601f19601f8201168201806040525081019061079b9190610c73565b505b8480156107a8575083155b80156107b357508015155b15610848576008546040517fa9059cbb00000000000000000000000000000000000000000000000000000000815233600482015260248101839052600160a060020a039091169063a9059cbb906044016020604051808303816000875af1158015610822573d6000803e3d6000fd5b505050506040513d601f19601f820116820180604052508101906108469190610c73565b505b8480156108525750835b801561085d57508015155b1561090457604051600090339083908381818185875af1925050503d80600081146108a4576040519150601f19603f3d011682016040523d82523d6000602084013e6108a9565b606091505b505090508061090257604051600080516020610cc6833981519152815260206004820152601060248201527f5472616e73666572206661696c65642e00000000000000000000000000000000604482015260640161026d565b505b50505050505050565b600454600160a060020a0316331461096f57604051600080516020610cc6833981519152815260206004820152601360248201527f4f6e6c79207643535820636f6e74726163742e00000000000000000000000000604482015260640161026d565b6005546040517f23b872dd00000000000000000000000000000000000000000000000000000000815233600482015230602482015260448101839052600160a060020a03909116906323b872dd906064016020604051808303816000875af11580156109df573d6000803e3d6000fd5b505050506040513d601f19601f82011682018060405250810190610a039190610c73565b610a5757604051600080516020610cc6833981519152815260206004820152600f60248201527f6465706f736974206661696c65642e0000000000000000000000000000000000604482015260640161026d565b6005546003546040517f095ea7b3000000000000000000000000000000000000000000000000000000008152600160a060020a0391821660048201526024810184905291169063095ea7b3906044016020604051808303816000875af1158015610ac5573d6000803e3d6000fd5b505050506040513d601f19601f82011682018060405250810190610ae99190610c73565b506003546040517fa694fc3a00000000000000000000000000000000000000000000000000000000815260048101839052600160a060020a039091169063a694fc3a90602401600060405180830381600087803b158015610b4957600080fd5b505af1158015610b5d573d6000803e3d6000fd5b505050506040518060400160405280826000800154610b7c9190610c47565b8152426020918201528151600055015160015550565b600060208284031215610ba457600080fd5b5035919050565b8015158114610bb957600080fd5b50565b60008060008060808587031215610bd257600080fd5b8435610bdd81610bab565b93506020850135610bed81610bab565b92506040850135610bfd81610bab565b91506060850135610c0d81610bab565b939692955090935050565b7f4e487b7100000000000000000000000000000000000000000000000000000000600052601160045260246000fd5b80820180821115610c5a57610c5a610c18565b92915050565b81810381811115610c5a57610c5a610c18565b600060208284031215610c8557600080fd5b8151610c9081610bab565b9392505050565b600080600060608486031215610cac57600080fd5b835192506020840151915060408401519050925092509256fe08c379a000000000000000000000000000000000000000000000000000000000a26469706673582212200049d3d7ed50a1ae7364eba6143a8b19ce5b43a08bcf889905d114b51cab600d64736f6c63430008130033",
  "immutableReferences": {},
  "source": "// SPDX-License-Identifier: MIT\r\n// StakedCSXContract v1\r\n\r\npragma solidity ^0.8.19;\r\n\r\nimport {IERC20, IStakedCSX, IERC20Burnable} from \"./Interfaces.sol\";\r\n\r\nstruct Vesting {\r\n    uint256 amount;\r\n    uint256 startTime;\r\n}\r\n\r\ncontract VestedStaking {\r\n    Vesting public vesting;\r\n\r\n    uint256 public constant VESTING_PERIOD = 24 * 30 days; // 24 months\r\n\r\n    address public vesterAddress;\r\n    IStakedCSX public sCsxToken;\r\n    IERC20Burnable public vCsxToken;\r\n    IERC20 public csxToken;\r\n    IERC20 public usdcToken;\r\n    IERC20 public usdtToken;\r\n    IERC20 public wethToken;\r\n\r\n    constructor(\r\n        address _vesterAddress,\r\n        address _sCsxTokenAddress,\r\n        address _vCsxTokenAddress,\r\n        address _csxTokenAddress,\r\n        address _usdcTokenAddress,\r\n        address _usdtTokenAddress,\r\n        address _wethTokenAddress\r\n    ) {\r\n        vesterAddress = _vesterAddress;\r\n        sCsxToken = IStakedCSX(_sCsxTokenAddress);\r\n        vCsxToken = IERC20Burnable(_vCsxTokenAddress);\r\n        csxToken = IERC20(_csxTokenAddress);\r\n        usdcToken = IERC20(_usdcTokenAddress);\r\n        usdtToken = IERC20(_usdtTokenAddress);\r\n        wethToken = IERC20(_wethTokenAddress);\r\n    }\r\n\r\n    modifier onlyVester() {\r\n        require(msg.sender == vesterAddress, \"Only owner.\");\r\n        _;\r\n    }\r\n\r\n    /// @notice Deposit CSX tokens into the staking contract.\r\n    /// @param amount Amount of CSX tokens to deposit.\r\n    /// @dev This function is called by the vester contract.\r\n    /// @dev Only callable by the vester contract.\r\n    function deposit(uint256 amount) external {\r\n        require(msg.sender == address(vCsxToken), \"Only vCSX contract.\");\r\n        require(\r\n            csxToken.transferFrom(msg.sender, address(this), amount),\r\n            \"deposit failed.\"\r\n        );\r\n        csxToken.approve(address(sCsxToken), amount);\r\n        sCsxToken.stake(amount);\r\n        vesting = Vesting(vesting.amount + amount, block.timestamp); // vesting time-lock (re)-starts when deposit is made\r\n    }\r\n\r\n    /// @notice Claim rewards from the staking contract.\r\n    /// @param claimUsdc Whether to claim USDC rewards.\r\n    /// @param claimUsdt Whether to claim USDT rewards.\r\n    /// @param claimWeth Whether to claim WETH rewards.\r\n    /// @param convertWethToEth Whether to convert WETH rewards to ETH.\r\n    /// @dev Only callable by the vester.\r\n    function claimRewards(\r\n        bool claimUsdc,\r\n        bool claimUsdt,\r\n        bool claimWeth,\r\n        bool convertWethToEth\r\n    ) external onlyVester {\r\n        (uint256 usdcAmount, uint256 usdtAmount, uint256 wethAmount) = sCsxToken\r\n            .getClaimableAmount(address(this));\r\n\r\n        sCsxToken.claim(claimUsdc, claimUsdt, claimWeth, convertWethToEth);\r\n\r\n        if (claimUsdc && usdcAmount != 0) {\r\n            usdcToken.transfer(msg.sender, usdcAmount);\r\n        }\r\n        if (claimUsdt && usdtAmount != 0) {\r\n            usdtToken.transfer(msg.sender, usdtAmount);\r\n        }\r\n        if (claimWeth && !convertWethToEth && wethAmount != 0) {\r\n            wethToken.transfer(msg.sender, wethAmount);\r\n        }\r\n        if (claimWeth && convertWethToEth && wethAmount != 0) {\r\n            (bool success, ) = msg.sender.call{value: wethAmount}(\"\");\r\n            require(success, \"Transfer failed.\");\r\n        }\r\n    }\r\n\r\n    /// @notice Withdraws tokens from the contract.\r\n    /// @param amount Amount of tokens to withdraw.\r\n    /// @dev Only callable by the vester.\r\n    /// @dev Tokens are locked for 24 months.\r\n    /// @dev Vested Tokens are burned.\r\n    function withdraw(uint256 amount) external onlyVester {\r\n        require(amount <= vesting.amount, \"Not enough tokens.\");\r\n        require(\r\n            block.timestamp >= vesting.startTime + VESTING_PERIOD,\r\n            \"Tokens are still locked.\"\r\n        );\r\n        vesting.amount -= amount;\r\n        vCsxToken.burnFrom(msg.sender, amount);\r\n        sCsxToken.unStake(amount);\r\n        csxToken.transfer(msg.sender, amount);\r\n    }\r\n}\r\n",
  "sourcePath": "C:\\Users\\Charl\\Documents\\Projects\\SteamMarket\\CSX\\csx-contracts\\contracts\\CSX\\VestedStaking.sol",
  "compiler": {
    "name": "solc",
    "version": "0.8.19+commit.7dd6d404.Emscripten.clang"
  },
  "schemaVersion": "3.4.3",
  "updatedAt": "2023-05-12T09:06:05.318Z",
  "devdoc": {
    "kind": "dev",
    "methods": {
      "claimRewards(bool,bool,bool,bool)": {
        "details": "Only callable by the vester.",
        "params": {
          "claimUsdc": "Whether to claim USDC rewards.",
          "claimUsdt": "Whether to claim USDT rewards.",
          "claimWeth": "Whether to claim WETH rewards.",
          "convertWethToEth": "Whether to convert WETH rewards to ETH."
        }
      },
      "deposit(uint256)": {
        "details": "This function is called by the vester contract.Only callable by the vester contract.",
        "params": {
          "amount": "Amount of CSX tokens to deposit."
        }
      },
      "withdraw(uint256)": {
        "details": "Only callable by the vester.Tokens are locked for 24 months.Vested Tokens are burned.",
        "params": {
          "amount": "Amount of tokens to withdraw."
        }
      }
    },
    "version": 1
  },
  "userdoc": {
    "kind": "user",
    "methods": {
      "claimRewards(bool,bool,bool,bool)": {
        "notice": "Claim rewards from the staking contract."
      },
      "deposit(uint256)": {
        "notice": "Deposit CSX tokens into the staking contract."
      },
      "withdraw(uint256)": {
        "notice": "Withdraws tokens from the contract."
      }
    },
    "version": 1
  }
}